:020000040800F2
:1000000000A00020B9CC0008F99D0008EDBC000854
:10001000F79D0008F59D0008F39D00080000000012
:10002000000000000000000000000000F19D00083A
:10003000EF9D000800000000ED9D00085D660008CF
:1000400021CD000821CD000821CD000821CD0008D8
:1000500021CD000821CD000821CD000821CD0008C8
:1000600021CD00085DB6000821CD000821CD000893
:1000700021CD0008053F000879B8000821CD00080F
:1000800021CD000821CD000821CD000821CD000898
:100090009D9E000821CD000821CD000821CD00083B
:1000A00021CD0008BDB6000821CD0008CDB600085E
:1000B000B1B60008A1B6000891B6000821CD00082D
:1000C00021CD000821CD000821CD000821CD000858
:1000D00021CD000871B8000869B8000821CD0008DA
:1000E0006D66000821CD0008DF9D000821CD0008C5
:1000F00021CD000821CD000821CD000821CD000828
:1001000000000000000000000000000021CD0008F9
:1001100021CD000821CD000821CD000821CD000807
:1001200021CD000821CD000821CD000821CD0008F7
:1001300021CD000821CD00080000000000000000D3
:1001400021CD000821CD000821CD000800000000CD
:10015000000000000000000000000000000000009F
:10016000000000000000000021CD000821CD0008A3
:1001700021CD000800000000000000000000000089
:080180000000000021CD000881
:100188002DE9F04FC04BB3F90610C04B2DED028B93
:100198001E687289A9B09142039311DBB1F5FA6F19
:1001A80096F807B0BDBF8B1A03FB0BF3A2F5FA6BE9
:1001B800CBF1640BBCBF93FBFBFB0BF1640B01E0C1
:1001C8004FF0640BB24DB34B2A68059293F95E2148
:1001D800B3F896A1059C029392B2079200225300AD
:1001E8000693A94B33F912300493CAEB030303F2C5
:1001F800F31740F2E630874203D8002BB8BF5B42C2
:1002080001E04FF4FA73022A01934FF06400059B52
:10021800A14F34D093F811E1BEF1000F06D0019B35
:100228007345CCBFCEEB030300230193019BDFF89A
:10023800B0E293FBF0FC6FF063093EF81C8009FB09
:100248000C390CF1010C069B3EF91CE00FFA88FCF6
:10025800CCEB0E0E0EFB09FE9EFBF0FEC64427F803
:1002680003E0B718019B3F797B438C4F93FBF7F36F
:1002780064339BB20BFB03F393FBF0F031E093F88C
:1002880012E1BEF1000F06D0019B7345CCBFCEEB47
:10029800030300230193019BDFF8308293FBF0F006
:1002A8006FF0630C38F910E00CFB00390130BDF831
:1002B8001C3038F91000CEEB000000FB09F999FB5F
:1002C800FCF9CEEB090919FB03F9019BA7F8049087
:1002D800B079002BB8BF5B424343704893FBF0F002
:1002E800643063786E4F4FF0640E434393FBFEF324
:1002F800BB546C4FE37A434393FBFEF3BB54637DDB
:10030800654F5843684B90FBFEF0022A9854674BA0
:100318000FD183F802E0049B53450FDB5D4CB4F822
:100328009821914216DBB1F5FA6FA8BF4FF4FA6134
:1003380011E003F802B0049B534504DA069B0698C3
:10034800FB5A5B423B520132032A04F101047FF459
:1003580046AFE3E71146891A4FF47A735943544B71
:100368004D4E6FF0630CC2F5FA624FF0640EB1FBAC
:10037800F2F191FBFEF233F812000CFB021101328C
:1003880033F9122003B2D21A514391FBFEF303440E
:10039800FB80484B1B88580635D5474B474A1B8876
:1003A8001288DFED477A9B1A1BB208EE103AB8EEB6
:1003B800C88A28EE278AB0EE480A08F023FBF0EE38
:1003C800408AB0EE480A08F0BDFAB6F9023006EEE7
:1003D800903AB6F90030F8EEE66A07EE903A20EE69
:1003E800667AF8EEE77AA7EEA87A67EE807ABDEE2D
:1003F800C77AE6EEA87A17EE103AFDEEE77A338070
:1004080017EE903A73802F4E3368990740F1A88011
:100418002D4B2E491A684B6945F20720D31A83429F
:10042800884640F39D804A6105F0AAFC284BDFF816
:10043800B4A01A78032A9946BAF8003054D10A2B86
:100448005ED90023282089F8003006F0BAF805F0B4
:1004580097FC204B188805F07DFC1F4B1A68D37851
:1004680090FBF3F0013008281C4BA8BF0820187037
:10047800537980B213FB00F3A8F81830137913FBF3
:1004880000F0A8F81A003BE01816002058160020C3
:10049800A01400203C1700205E1500200CFEFFFF72
:1004A800C41500202E010020CC1500207015002056
:1004B800C21200205C15002008100020F41E002045
:1004C80035FA8E3C78160020F81E00202001002006
:1004D800C0160020101200200C120020AC000020D2
:1004E800DA120020A01200200A2B09D803239E4A02
:1004F80089F8003000231370A8F81830A8F81A30CB
:1005080099F80030994A012B0DD002D3022B1DD047
:1005180026E0B8F81820BAF800309A4220DD012306
:1005280089F8003010E0BAF80010B8F81A308B4299
:1005380002DD0223137010E08D4B1B8B01339942AF
:1005480002DD002313700BE0082007E0B8F81A302A
:10055800BAF8002001339A42E1DC072005F0D0FF09
:10056800D6F800B0834E1BF4006F78D0824B8049D8
:100578001A68CB69C3EB020945F2072399458846F7
:100588006DDD7E4BB7F90670D3F800A0CA619AF802
:100598000A30B4F84E11012B4FF47A72A7F57A7726
:1005A80099FBF2F903D03FD3022B1DD03FE0D8F8D6
:1005B8002010082091FBF0F3CB1A0021C8F8203056
:1005C800A8F8241093FBF0F340F6E4419BB24B43A8
:1005D800BAF80810C1EB13335A43BAF9063092FB44
:1005E800F3F2C8F8282022E03278BAF80830C8F8C0
:1005F800283052071BD56248019305F055FF019B2F
:1006080018B91BF0100F18BF002707FB07F232219B
:1006180092FBF1F21744BAF9062057434FF47A7265
:1006280097FBF2F73B4400E00023C8F82830D8E9EC
:100638000C01D8F82830534A03FB09F34FF47A79B0
:1006480093FBF9F310EB030A41EBE37BC8E90CAB2E
:100658005046594600230BF067FDC8F838004A4B4E
:100668001A6812F4805F984602D00A2005F048FF05
:10067800464F3A68002A48D0DFF838E1444BDEF8A4
:10068800000019688142F24699463ED8414BDFF88E
:100698000CB118785168B0B901221A70BBF8003053
:1006A800CB5CD3B13C4B1A700AF0EAF8BBF80030C7
:1006B8009BB93B681B78053B012B0ED805F05AFF08
:1006C8002B4BD86309E000221A70BBF80030CB5CD2
:1006D8001BB1314B1A700AF0D3F83A68BBF80030F6
:1006E80052682E48D25CFE2A01D100230CE0FF2A72
:1006F80002D105F0F3FE08E0DAF800700A2111FBD8
:100708000272C9F800200133038033785F0703D5EC
:10071800234B08221A855DE0D8F80020D0075EBF79
:10072800144943F001030B701E4B1B7819075EBF79
:10073800337823F001033370D30242BF337823F0B8
:1007480001033370184B1A88134B1AB1174A1268F1
:10075800970702D4164A128872B302221A703378A5
:1007680023F0010333702CE0AC000020C0160020F9
:1007780020010020111F0020F81E00200C1200206C
:10078800C4180020407E0500F00F0020F41200205D
:10079800EC120020E8120020AC160020F012002015
:1007A80000040048FE0F00200E100020C416002090
:1007B8000C1F0020841600203178C80758BF022279
:1007C8001A7005F0D7FEB44B1B68C01A002801DB6D
:1007D8000AF056F8B14F3E78002E00F0D080B04BAA
:1007E8001A689846002A01F02E80D8F8000003689D
:1007F8005B689847002801F02680A94BA94C186827
:1008080003689B689847092801D03F2852D14FF0C8
:10081800000A2668DFF8CC92554636B1A248D9F8C6
:10082800001032460DF09AFE10B9CA4605B94D4679
:100838009E4B09F110099945EFD3EDB1D5F800C0E9
:10084800DAF8009023681CF803E019F803007045F3
:1008580012D15A1C944958B92D2B09D8DFF844E213
:10086800CEF800204FF0200E01F803E0885403E092
:1008780001F803E02260E5E723680BB1554510D085
:100888008B480AF0FDF8554507D855F8100B0AF0C3
:10089800F7F809200AF0ECF8F5E786480AF0F0F8CE
:1008A800002623689E42A0D27F4B985D0AF0E0F8AC
:1008B8000136F6E72368002B40F0A687042841F0AC
:1008C8008584794806F080FA00F0BDBFD8F80000AA
:1008D800DFF8F0B103685B689847002845D0DBF87B
:1008E800000003689B689847D9F8003093F84820BF
:1008F8008246002A51D1242840F08880012283F8BA
:100908004820D9F8002092F848000628DED192F84D
:1009180049304B2B00F0DF8600F29A81322B00F031
:100928000C8700F21F81222B00F07A8500F2DC8010
:10093800032B00F02E8200F2A480012B40F090805F
:1009480003200AF013F8002009F0DFFF012009F066
:10095800DCFF0D2009F0D9FF574F3B68987909F063
:10096800D4FF3B68002283F84820544B93F8133196
:10097800002B40F037874C36982E00F06487504A99
:10098800931993F84A100129F5D14B4FB2583B609F
:100998004C4BB9461A60984698E7012A04D14D286D
:1009A80014BF00220222AAE7022A04D13C2814BF5D
:1009B80000220322A3E7032A0AD140284FF00002AD
:1009C8009FBF1A71DA715871987198BF042296E71F
:1009D800042A08D19A7983F8490080EA020A83F840
:1009E80006A005228BE7052A8BD159791A799142FD
:1009F800997906D941409971511C1971134418729B
:100A08007FE781420CBF0622002278E72E4B1A7836
:100A180052073FF576AF2328DBF8002013D11F4992
:100A28000193012008701E4928480A602349C1F82B
:100A3800D8200AF025F81F480AF022F8019B1A78F6
:100A480042F002021A70224B1B681B78534501BF03
:100A5800204B214A1A60214B04BF214ADA6050E733
:100A6800022B40F01087042009F080FF432009F092
:100A78004CFF4C2009F049FF462009F046FF4C2066
:100A880068E7042B00F09081052B40F0FC861A20C3
:100A980009F06CFF002797E1B0160020121F002014
:100AA800BC1600209C1400206C140020A4F600083A
:100AB8006B0B0108700B0108B41600202001002000
:100AC80060010020B8160020111F0020A00B0108AB
:100AD800BC120020FC9F0020EFBEADDE00ED00E060
:100AE8000400FA0504F50008282B00F0DA8514D86C
:100AF800242B00F0BC85262B40F0C586BE4F06206F
:100B080009F034FFB7F8580109F033FFB7F85A0174
:100B180009F02FFFB7F85C016AE22A2B00F0D485B0
:100B28002C2B40F0B086B44F0C2009F01FFF97F82B
:100B3800900109F0EAFEB7F89A0109F01AFFB7F830
:100B4800960109F016FFB7F8980109F012FF97F817
:100B5800910109F0DAFEB7F89C0109F00AFFB7F82D
:100B68009E0145E23D2B00F02D8323D8382B00F061
:100B7800848512D8342B00F07684362B40F0838697
:100B88009E4B9D4F93F80E01C0EBC000C0B209F018
:100B9800EDFE07F1100800F0EFBD3A2B00F0BF8220
:100BA8003B2B40F07086012009F0E0FE944B1B6857
:100BB8001878CFE6452B00F0028626D8402B00F0A7
:100BC800C485422B40F05F868B4F102009F0CEFE83
:100BD800787909F09AFEB86809F0D4FE97F8900180
:100BE80009F093FEB7F8580109F0C3FEB7F85A01A7
:100BF80009F0BFFEB7F85C0109F0BBFEB7F8800149
:100C080009F0B7FEB7F88201F2E1462B00F0BD8586
:100C1800472B40F0388609F06FFE8046842009F0A3
:100C2800A5FE404609F0AEFE764BDF6808F180036A
:100C3800BB428CBFC8EB0707802707F0BDF94046C9
:100C48003A4608A907F098FA0027804600F0AEBD9A
:100C5800702B00F0E38255D8682B00F0388224D836
:100C6800652B00F0E38015D84D2B00F04385642BED
:100C780040F00986072009F079FEE72009F045FED3
:100C88005D4B587909F041FE002009F03EFE042032
:100C980000F0A4BD662B00F08281672B40F0F3853D
:100CA800102009F063FE0027A5E16D2B00F03182CA
:100CB80012D8692B00F017826C2B40F0E485524F54
:100CC800062009F053FE388809F053FE788809F0A9
:100CD80050FE4E4B18888BE16E2B00F024826F2B50
:100CE80040F0D1854A4F0B2009F040FE3B68187848
:100CF80009F00BFE3B68587809F007FE4FF0000931
:100D0800B8466BE2782B00F07E811ED8742B00F079
:100D1800D3830BD8722B00F04584732B40F0B38536
:100D2800082009F023FE012700F08CBC752B00F089
:100D38006B83772B40F0A785DFF8C08098F8DC003C
:100D480009F014FE002700F023BCF02B00F0828489
:100D580014D87B2B00F0F482A02B40F094850C2053
:100D680009F004FE2B4B186809F00CFE2A4B186892
:100D780009F008FE294B186800F030BDF12B00F08F
:100D88008081FE2B40F07F85082009F0EFFD0020D0
:100D980025E1184609F0EAFD012009F0B6FD0A2010
:100DA80009F0B3FD0020D5E5062009F0DFFD43205A
:100DB80009F0ABFD432009F0A8FD332009F0A5FD9B
:100DC800442009F0A2FD12E1154BD85D013709F066
:100DD8009CFD0B2FF8D10027124BD85D013709F085
:100DE80094FD082FF8D100270F4BD85D013709F083
:100DF8008CFD072FF8D1AFE53C170020200100201B
:100E0800A0140020380000206615002008100020DB
:100E180058160020ACF7FF1FB0F7FF1FB4F7FF1FED
:100E2800D80B0108E40B0108ED0B01080B2009F0B1
:100E38009DFDD34B188809F09CFD002009F099FD11
:100E4800D04B1B68C3F3C000C3F38002800040EAA4
:100E58004200C3F340021043C3F3401240EAC20009
:100E680003F01003184309F084FDC74B1A88C74BD9
:100E780012F0010F14BF4FF002084FF0000812F0F3
:100E8800020F14BF4FF0040C4FF0000C12F0040FC7
:100E980014BF4FF0100E4FF0000E12F0400F14BFA9
:100EA8002027002712F0100F14BF4FF40070002005
:100EB80012F0200F1B6814BF4FF4806B4FF0000B2B
:100EC80012F4807F14BF4FF400610021019102F0F9
:100ED800080903F4475141EA090903F4804149EA42
:100EE800010903F4004149EA010903F4803149EAA0
:100EF800010903F4003149EA010903F4802A49EAA7
:100F08000A0903F4002149EA010103F4801941EABE
:100F1800090903F0007349EA0303DFF8A09299F87E
:100F28000090C9F3800943EA090343EA080343EA46
:100F38000C0C4CEA0E0E4EEA07073843019B12F4DC
:100F4800007F40EA0B0B4BEA030B14BF4FF4001170
:100F580000218F4B12F4806F4BEA01014FF0000023
:100F680014BF4FF0806B4FF0000B93F8DC7041EA30
:100F78000B010346BB420CD2864A13F802E0012259
:100F880002FA0EFE1EEA010F1CBF9A4010430133FD
:100F9800F0E709F0F7FC804B93F8B406DAE4122086
:100FA80009F0E4FC7D4B1B88B3F5806F8CBF4FF0D4
:100FB80008084FF001080027794B33F9170090FB18
:100FC800F8F0013780B209F0D4FC032FF4D1754F43
:100FD800388809F0CEFC788809F0CBFCB88809F08D
:100FE800C8FC002009F0C5FC002009F0C2FC002064
:100FF80009F0BFFCB0E46C4BD85D013709F085FC03
:10100800102FF8D1A8E4702009F0B0FC4FF00008C8
:101018002B680E2707FB08F73B4408F10108B3F8D3
:10102800190109F0A6FC2B683B44B3F81B0109F031
:10103800A0FC2B683B44B3F81D0109F09AFC2B680F
:101048003B4493F81F0109F060FC2B683B4493F87C
:10105800200109F05AFC2B683B4493F8210109F060
:1010680054FC2B683B4493F8220109F04EFC2B6892
:101078001F44D7F8230109F085FCB8F1080FC7D140
:101088006AE47020444F09F071FC07F1700897F882
:10109800D00009F03AFC97F8D10009F036FC97F82F
:1010A800D20009F032FC97F8D30009F02EFC97F82B
:1010B800D40009F02AFC97F8D50009F026FC073778
:1010C80097F8CF0009F021FC4745E0D144E410200F
:1010D80009F04CFC0027354BD85D013709F015FCA9
:1010E800102FF8D138E4DFF8D88098F800004000D5
:1010F80000F0FE0009F03AFC002798F800309F4203
:10110800BFF42AAC2A4B33F8170009F032FC013738
:10111800F3E709F02BFC002009F034FC67E7042012
:1011280009F024FC59E3072009F020FC214B184F53
:101138001888FF28A8BFFF20C0B209F0E6FBB86BEB
:101148004FF6FF784045A8BF404620EAE07080B2DD
:1011580009F00FFC184B188809F00BFC0E4BB86A05
:1011680093F885313BB10A2358434045A8BF404610
:1011780020EAE07001E000F30F0080B238E700BF1A
:10118800D4160020C41600205C150020F00F0020A3
:1011980020010020FD0100203C1700200000002055
:1011A800180200206A1500201E02002000130020EB
:1011B80018160020A0120020F40F0020111F002094
:1011C8001C1E0020D24F022009F0D0FB97F8E00146
:1011D80009F09BFB97F8DF01FFF7BCBBD8F800309C
:1011E800CC4F4B4409F10109187909F08EFBB9F18C
:1011F800030FF3D13B68D87909F087FB3B689878EF
:1012080009F083FB3B68D87809F07FFB3B68588975
:1012180009F0AFFB3B68187AFFF79CBBBE4F1E2056
:1012280009F0A4FB3B681B78022B4FF0000871D132
:101238003B6803EB880393ED080AB2EE048A20EEBC
:10124800080A0DF04DFB80F30800C0B209F05DFB01
:101258003B68DFEDB27A03EB880393ED0B0A20EECF
:10126800270A0DF03DFB80F30800C0B209F04DFBE2
:101278003B68DFEDAB7A03EB880393ED0E0A20EEB3
:10128800270A0DF02DFB80F30800C0B208F1010811
:1012980009F03BFBB8F1030FCAD1B8F1070F3B685F
:1012A80023D193ED110A20EE080A0DF019FB80F303
:1012B8000800C0B209F029FB3B6893ED120A20EE42
:1012C800080A0DF00DFB80F30800C0B209F01DFB01
:1012D8003B6893F84C3000EE103AB8EE400A0DF037
:1012E800FFFA80F30800C0B20BE04344587809F0D5
:1012F8000CFB3B684344D87A09F007FB3B6843443E
:10130800587D08F1010809F000FBB8F10A0FC4D1B3
:10131800FFF722BB3B684344587809F0F6FA3B686C
:101328004344D87A09F0F1FA3B68434408F10108CC
:10133800587D09F0EAFAB8F10A0FEBD1FFF70CBBB8
:101348003C2009F013FB0027DFF8CC819FED748A5D
:10135800D8F8003003EB870393ED080A20EE080A5B
:101368000DF0BEFA80B209F004FBD8F8003003EBA8
:10137800870393ED0B0A20EE080A0DF0B1FA80B24C
:1013880009F0F7FAD8F8003003EB870393ED0E0A5B
:1013980020EE080A0DF0A4FA013780B209F0E9FA44
:1013A800032FD1D1072FD8F8003018D193ED110AA7
:1013B80020EE080A0DF094FA80B209F0DAFAD8F8AB
:1013C800003093ED120A20EE080A0DF089FA80B277
:1013D80009F0CFFAD8F8003093F84C000DE03B4400
:1013E800587809F0C6FAD8F800303B44D87A09F0A2
:1013F800C0FAD8F800303B44587D013709F0B9FAF3
:101408000A2FCFD1FFF7A8BA2F2009F0AFFA454F1E
:1014180017F8010F00283FF49FAA09F076FAF7E7BA
:10142800502009F0A3FA00273B4B1B6803EB870801
:101438003D4B98F879200C2101FB0233013793F8D2
:10144800380009F062FA98F87A0009F05EFA98F81C
:101458007B0009F05AFA98F87C0009F056FA142F24
:10146800E2D1FFF779BA482009F080FA4FF0000876
:10147800294B1F68062303FB087708F1010897F832
:10148800CE0009F042FA97F8C90009F03EFA97F839
:10149800CA0009F03AFA97F8CB0009F036FA97F83B
:1014A800CC0009F032FA97F8CD0009F02EFAB8F11D
:1014B8000C0FDDD1FFF750BA4FF000084FF00109CB
:1014C8004FF0000A194B93F8DC20924542DADD33DD
:1014D8004FF0000B1AF80320134F0C2307F13001CB
:1014E80003FB0BF3595C914209D13B44586B0DF057
:1014F8002CF80246B9F1000F07D14B4618E00BF162
:10150800010BBBF11C0FE7D121E080441FE000BFB5
:101518003C17002058160020A01400200000C842E4
:1015280000007A448BF200088CF2000820010020A9
:1015380093420CDA0C2101FB0B710492496B019365
:10154800C85C09F0E2F9019B049A0133F0E70AF15B
:10155800010AB7E7B9F1000F3FF4FEA95FFA88F076
:1015680009F004FA4FF00009AAE701311C290ED04E
:10157800CD480C2200F1300C02FB01F313F80C20CB
:101588007245F2D1034493F8380009F0BEF90137E7
:1015980098F8DC309F42BFF4DFA9C44B002117F84C
:1015A80003E0E5E7162009F0E1F9029BB3F896019C
:1015B80009F0DFF9029BB3F8400109F0DAF9029B60
:1015C800B3F8420109F0D5F9029BB3F8440109F0D8
:1015D800D0F9029BB3F8D80109F0CBF9002009F043
:1015E80094F9002009F091F9002009F08EF9029B86
:1015F80093F8850109F089F9029B93F8920109F0A3
:1016080084F9002009F081F9A94B1B680A20B3F975
:10161800563093FBF0F080B209F0ABF9029B93F8D7
:101628007A0109F072F9029B93F87E0109F06DF9CD
:10163800029B93F87D0109F068F9029B93F87F01FA
:10164800FFF788B9F8B2013709F05FF9092FF9D126
:10165800FFF782B9964F042009F088F93B68B3F880
:101668005A0009F086F93B68B3F85800C0E4042032
:1016780009F07CF98F4B9868B0E08E4F042009F090
:1016880075F997F87A0109F040F997F87E0109F0A1
:101698003CF997F87D0109F038F997F87F01FFF7D1
:1016A80059B9844F072009F061F9B7F8800109F0AA
:1016B80060F9B7F8820109F05CF997F8840109F03C
:1016C80024F9B7F8860193E4012009F04FF9794B22
:1016D8005879FFF73FB9774F042009F047F997F891
:1016E800D60109F012F997F8D70109F00EF9B7F801
:1016F800D8017DE4704FDFF8EC81387800EB4000CA
:10170800C0B209F033F94FF000093B78994508F168
:101718000208BFF421A918F8020C09F0F6F818F825
:10172800010C00EB800000EB800000F2EE2080B29C
:1017380009F01FF909F10109E7E7012009F016F995
:101748005C4B93F89201FFF705B9082009F00EF9F0
:101758000027584B3B44013793F8880109F0D5F826
:10176800082FF6D1FFF7F8B892F90C209A4273D0F7
:10177800083747453FF4F0A8504A97F8F00192F926
:10178800001043B29942EFD166E04D4F0D2009F0A9
:10179800EDF806F0D9FB09F0B8F8388809F0F2F846
:1017A800F86809F0EFF806F0BDFB17E04745BFF60B
:1017B800D3A808ABD85D09F0A8F80137F6E71320DD
:1017C80009F0D4F800273F4BD85D013709F09DF8A0
:1017D8000B2FF8D1002009F0D5F8002009F0D2F835
:1017E800FFF7BAB8384BF05804F044FF18B9322064
:1017F80004F0E7FEF6E705F0ABF807F033F9334BF2
:10180800334ADA60FFF7B7B80C2800F0E1840A28F9
:1018180040F0E2842F4D304809F032F92846232160
:101828000CF085FE08B1401B20602368002B40F0B7
:10183800D78428482360002130220CF042FE3B78F0
:10184800002B40F00285254B9B68002B00F0248577
:101858002348984700F020BD09F057F8B7F8F2017F
:1018680009F087F897F8F40109F04FF897F8F501AF
:1018780009F04BF897F8F70109F047F897F8F601DF
:1018880009F043F874E74C2B3ED109F01FF8094FD3
:1018980087F8D60109F01AF887F8D70109F022F875
:1018A800A7F8D8012BE000BF8CF20008FD0100204A
:1018B800A01400203C1700201C1E0020A4120020A9
:1018C80038000020D80B01086001002000ED00E07E
:1018D8000400FA056C14002040180108D01E0020EE
:1018E80034020020DC180020D42B00F05183D22BC6
:1018F80040F06884CA4B1B785B0740F19083002056
:1019080009F034F8FFF728B800F27B81352B27D18E
:1019180008F0DCFF0B28804602D909F04FFDEEE7FE
:10192800C04B1F6808F0D2FF0328F6D8062303FB34
:10193800087787F8CE0008F0C9FF87F8C90008F0D3
:10194800C5FF87F8CA0008F0C1FF87F8CB0008F088
:10195800BDFF87F8CC0008F0B9FF87F8CD00CEE7C7
:1019680000F2A680292B11D108F0BCFFAE4FA7F8D2
:10197800800108F0B7FFA7F8820108F0A7FF87F8F1
:10198800840108F0AFFFA7F88601B8E75AD8252BDD
:1019980008D1A54F0023BB6008F0AEFFBB68184311
:1019A800B860ACE7272B0DD108F09CFF9E4FA7F835
:1019B800580108F097FFA7F85A0108F093FFA7F815
:1019C8005C019CE7232B40F0FD8308F07FFF132880
:1019D8008146A2D8DFF84C82D8F8007008F076FF6C
:1019E800002292490C23534301EB030E9EF838E082
:1019F800864523D10B440FFA89F907EB890793F839
:101A0800303087F8793008F061FF87F87A0008F0FD
:101A18005DFF87F87B0008F059FF854B854A1A60FF
:101A280087F87C00844BD8F800001860793009F0FA
:101A380035FC824B80F00100187060E701321C2AE7
:101A4800CFD16AE72D2B23D108F040FFDFF8D881EA
:101A580088F8900108F046FFA8F89A0108F042FFBC
:101A6800A8F8960108F03EFFA8F8980108F02EFFA4
:101A78003B6888F891015B79082B7FF640AF08F046
:101A880031FFA8F89C0108F02DFFA8F89E0136E761
:101A9800332B05D108F01AFF634B83F892012EE728
:101AA8002B2B40F08F8308F011FF5F4B587126E70E
:101AB8003E2B09D108F00AFF5B4F87F8E00108F0D8
:101AC80005FF87F8DF011AE759D8392B11D108F03B
:101AD800FDFE554F87F87A0108F0F8FE87F87E0179
:101AE80008F0F4FE87F87D0108F0F0FE87F87F0122
:101AF80005E73C2B0BD14B4FD7F8008008F0E6FEEA
:101B080088F800003B68187804F0EFFFF7E6372BF9
:101B180040F0588353790727B3FBF7F2C2EBC202B0
:101B28009A1A12F0FF0F7FF4F8AEB3FBF7F7013FF4
:101B3800FFB2FF2F3FF4E3AE08F0C8FE5FFA80F96A
:101B48004FFA89F004F050FB804600283FF4E5AED8
:101B580080F8009008F0C6FEA8F8020008F0B6FE6B
:101B680088F8040008F0B2FE88F8050008F0AEFE18
:101B780088F8070008F0AAFE88F80600D7E7432B84
:101B880023D108F0A3FE284F0023BB60787108F02A
:101B9800B3FEBB681843B86008F098FE87F8900158
:101BA80008F0A0FEA7F8580108F09CFEA7F85A0113
:101BB80008F098FEA7F85C0108F094FEA7F88001E9
:101BC80008F090FEA7F8820199E60DD8412B40F065
:101BD800F982002708F07AFE134B3B440137082F9F
:101BE80083F88801F6D18AE6442B04D1144B0122EC
:101BF80083F8132183E6482B40F0E48206F092FA3A
:101C08007DE6D02B1ED1064B1B7858073FF577AEE3
:101C180005F042FF06F050FF07F00CF86FE600BF32
:101C2800111F0020A01400203C1700208CF200088F
:101C3800481000207C1800204C10002002000020D2
:101C48002001002000F28E81CC2B50D15379092B32
:101C58007FF663AE039BD3F8008008F037FE039B42
:101C680088F80000D3F8008008F030FE88F80100FA
:101C780008F02CFE039B64281B68A8BF6420187119
:101C880008F024FE039B64281B68A8BF64205871D1
:101C980008F01CFE039BFF281B68A8BFFF20987153
:101CA80008F014FE039B6428D3F8008028BF642042
:101CB80088F8070008F00AFE039B88F80200D3F8AA
:101CC800008008F003FE039B88F80300D3F8008027
:101CD80008F008FE3B68A8F80A005B790A2B7FF633
:101CE8000EAEDC4B1F6808F0F1FD387207E600F213
:101CF800DC80C82B15D157797F08122F3FF60DAE1F
:101D08004FF00008B84507D208F0ECFDD24B23F895
:101D1800180008F10108F5E7D04B012283F81221D9
:101D2800EDE5CA2B40F09280CD4F3B681B78022B23
:101D38004FF000086FD1D7F8009008F0C7FD07EE04
:101D4800900AF8EE677AB2EE048AC7EE887A09EB51
:101D58008809C9ED087AD7F8009008F0B7FD07EEB2
:101D6800900A9FEDC07AF8EE677A09EB8809C7EE0A
:101D7800877AC9ED0B7AD7F8009008F0A7FD07EE2F
:101D8800900A9FEDB97AF8EE677A09EB8809C7EEF1
:101D9800877A08F10108B8F1030FC9ED0E7ACAD1A4
:101DA800B8F1070FD7F800901CD108F08FFD07EEA7
:101DB800900AF8EE677AC7EE887AC9ED117AD7F8F3
:101DC800009008F083FD07EE900AF8EE677AC7EEF8
:101DD800887AC9ED127AD7F8009008F077FD89F86B
:101DE8004C0012E008F072FDC14489F80100D7F8F0
:101DF800009008F06BFDC14489F80B00D7F80090FB
:101E080008F064FDC14489F8150008F10108B8F12B
:101E18000A0FC5D173E5D7F8009008F057FDC14403
:101E280089F80100D7F8009008F050FDC14489F8FE
:101E38000B00D7F8009008F049FDC14408F10108EB
:101E4800B8F10A0F89F81500E5D158E54E2B40F096
:101E5800B98157790323B7FBF3F7122F3FF65DAD2E
:101E6800DFF810824FF00009B945BFF448AD08F01B
:101E78002DFD88F8A00108F035FD40F2ED239842C9
:101E880005DD40F6CA039842A8BF184601E040F2B3
:101E9800EE20A0F2EE20192309F1010990FBF3F0DE
:101EA80008F1020888F89F01DEE7CE2B0AD16F4BB4
:101EB8001B785A073FF523AD6D4A137843F00403A6
:101EC80013701CE544D908F00DFD6FF4AF67C31912
:101ED8009BB2C62B9CBF674BA3F8960108F002FD86
:101EE800A4F8400108F0FEFCA4F8420108F0FAFC4E
:101EF800A4F8440108F0F6FCA4F8D80108F0E6FCC0
:101F080008F0E4FC08F0E2FC08F0E0FC84F8850145
:101F180008F0DCFC84F8920108F0D8FC504B1F68EC
:101F280008F0E0FC00EB80004000A7F8560008F03D
:101F3800CDFC84F87A0108F0C9FC84F87E0108F029
:101F4800C5FC84F87D0108F0C1FC84F87F01D6E463
:101F5800464B1B7859073FF5D2AC474B4FF4C87234
:101F68001A80CCE4D62B09D1002708F0BBFC434BE0
:101F780023F817000137082FF7D1C0E45BD8D32B1B
:101F88007FF4B2AC08F0AEFC344BA3F81001B6E411
:101F980053790F2B7FF4C1AC08F098FC072807464B
:101FA8003FF6BBACDFF8B880D8F8009008F09AFC90
:101FB8000E235F43B944A9F81901D8F8009008F036
:101FC80091FCB944A9F81B01D8F8009008F08AFCE4
:101FD800B944A9F81D01D8F8009008F077FCB94475
:101FE80089F81F01D8F8009008F070FCB94489F806
:101FF8002001D8F8009008F069FCB94489F821015B
:10200800D8F8009008F062FCB944D8F8008089F844
:10201800220108F071FC4744C7F823016FE408F077
:1020280055FC144B022883F8B4067FF6F3AD002262
:1020380083F8B426EEE5EF2B22D1094FD7F80080BC
:1020480008F050FCA8F85A003F6808F04BFCA7F8C5
:10205800580054E4581600201816002020010020CB
:10206800A01400200000C84200007A44111F00207C
:10207800FE0F00203C1700200E1000205C160020E8
:102088006DD8D82B40F09E800027DFF844829FED62
:10209800858AD8F8009008F025FC07EE900AF8EE3B
:1020A800677A09EB8709C7EE887AC9ED087AD8F804
:1020B800009008F017FC07EE900AF8EE677A09EB33
:1020C8008709C7EE887AC9ED0B7AD8F8009008F02E
:1020D80009FC07EE900AF8EE677A09EB8709C7EE64
:1020E800887A0137032FC9ED0E7ACED1072FD8F899
:1020F80000901CD108F0F6FB07EE900AF8EE677A1C
:10210800C7EE887AC9ED117AD8F8009008F0EAFB92
:1021180007EE900AF8EE677AC7EE887AC9ED127A68
:10212800D8F8009008F0DEFB89F84C0012E008F0BF
:10213800D9FBB94489F80100D8F8009008F0D2FB1F
:10214800B94489F80B00D8F8009008F0CBFBB944E3
:1021580089F8150001370A2FC8D1FFF7D0BBF22B39
:1021680029D108F0B3FB0F2807463FF6D6AB08F095
:10217800ADFB4D4BC7EBC7071F4487F8D00008F0ED
:10218800A5FB87F8D10008F0A1FB87F8D20008F07A
:102198009DFB87F8D30008F099FB87F8D40008F076
:1021A80095FB87F8D50008F091FB87F8D60004F076
:1021B8000FFCFFF7A4BBFA2B04D13C4B1B785B0741
:1021C8007FF528AD09F0FAF8FEF7C6BB0C284AD10E
:1021D800374808F055FC38E00D2838D1FFF71ABB0E
:1021E8005A1EA95C202902D11346FFF71FBB314AAA
:1021F80023600021D154304B304DD3F800A0D5F8DE
:1022080000B0DFF8B09058460CF09FF90646324609
:10221800484659460CF0A2F9294A28B919F8063057
:1022280053445B78590703D010359542E7D306E04D
:10223800954204D2701CEB684844984702E0214854
:1022480008F01EFC0023FFF7F4BA1F4807E07F28B8
:102258000DD1013B174A1D4823600021D15408F0D5
:102268000FFCFEF7C2BA7F2804D1FEF7BEBA2F2BA7
:102278003EF6BBAAA0F12002D2B25E2A3EF6B5AA6B
:1022880013B920283EF4B1AA5A1C2260094AD05436
:1022980008F0EEFBFEF7A9BA29B0BDEC028BBDE849
:1022A800F08F00BF00007A443C170020111F002067
:1022B800750B01086C140020B000002004F500081C
:1022C800A4F60008800B0108700B01089C0B01089C
:1022D800A01400202DE9F04F2DED068B6D4D6E4BAF
:1022E8002B60A5B000236B6005F0B2FB18B905F0B0
:1022F800D3FB06F0E1FB06F09DFC684A684C1378B6
:1023080043F001031370674B4FF47002C3F8882041
:10231800002307930893236843F4803323602368DA
:1023280003F400330893079B01330793089B1BB9F9
:10233800079BB3F5A04FF2D1236813F4003318BFFD
:1023480001230893089B012B7BD0564F564BFB600B
:10235800636AAB60636ADFF888B1DFF88891DFF8F9
:10236800888143F080736362636943F4FC0324AE9D
:10237800636103238DF8423041F6FF7326F8503D20
:102388004FF09040314601F0D1FD4FF6FF735846AB
:102398003146ADF8403001F0C9FD4448314601F0FE
:1023A800C5FD4348314601F0C1FD4248314601F0C0
:1023B800BDFD3146404801F0B9FD304603F084FACE
:1023C800109B3E4AB3FBF2F33D4A13603D4B3E4A35
:1023D8004FF0000AC3F800A03C4B5A60F02287F87F
:1023E800232007223A4FC3F808A01A60D9F808300A
:1023F800C8F8003097E80300636986E8030043F4EF
:10240800802363610823CBF8183011A9109801F0D4
:102418008DFD642004F0D5F8A0222E4851460CF01A
:1024280050F8E3692C4A43F00703E361A36943F4D6
:102438000063A361636943F4C023636102F1700E12
:1024480054E0264B12221A60636863606368636015
:10245800636843F480636360636823F47C13636098
:10246800636843F4E8136360236843F08073236070
:1024780022680B4B9601FBD55A6822F003025A607A
:102488005A6842F002025A60636803F00C03082B92
:10249800FAD15AE738020020F5830008F61E00201A
:1024A8000010024000ED00E00005FA0500080048B1
:1024B800000C0048001000480014004840420F007B
:1024C800F8120020FC1200203F19010010E000E083
:1024D8000CF400084C130020DC0C0108002002401A
:1024E800000400483C17002078160020937BD17B1D
:1024F80003F00700800001FA00FC5168DB0801EBDB
:1025080083034FF00F0A196A0AFA00F021EA000162
:102518001962196A10324CEA010172451962E5D153
:102528000023DFF888A30AF10C0200219954013333
:10253800072BF6D1FF23CB4A8AF813308AF81430D8
:102548008AF815308AF81630C74B1360DFF860B385
:10255800C64A029302201070584618220BF0B1FFA9
:102568000122C349029B8BF80C2099F805B081F829
:1025780000B0A3F5EF71CAF81810BE49D8F800806A
:10258800A3F58F730B60BC4B03EBCB0318F0200F44
:102598005B78CAF81C3018BFCAF81C200023B74A59
:1025A80040F2DC5122F813100133082BF7D13046E2
:1025B80000211C220BF085FFBBF10E0F04D00BF09D
:1025C800EF0BBBF1080F02D101238DF85030022028
:1025D80003F00AFE18B14088003018BF0120C8F384
:1025E80040038DF84630C8F380138DF84830C8F39F
:1025F80040338DF84030C8F3C03300F001008DF847
:10260800433018F400638DF8450004D099F88431FC
:10261800581E434243418DF84430C8F300438DF8B7
:102628004930EB69B9F84401ADF85400003318BFDC
:1026380001238DF84A30C8F300538DF84B30B9F8B0
:102648004631ADF84E3018F4805FB9F8523118BFF2
:102658008B48ADF84C30C8F380438DF84730B9F853
:1026680050311CBFB0F84C01ADF85400B3F5FA7FF7
:10267800ADF8523084BF0023ADF85430814899F842
:10268800D43185F82030002385F8213043709DF837
:10269800503008F00101002BC8F3C0028DF841103A
:1026A8008DF842200CBF0023022301B902B1013387
:1026B80007EB83074FF00009BB68A3F1020B0C334B
:1026C80003933BF8023F4FF6FF72934200F02181DB
:1026D8001A0A022A02D19DF8401003E0012A04D107
:1026E8009DF84110002900F01081DFF8A8A19DF89D
:1026F8004B00DBB24FEA03180AEB0806514630B12B
:102708009DF8500018B9043B032B40F2E780012ADA
:10271800D0B23BD1FF2385F8683085F8693001EBEA
:102728000803002703F10802597B58681B89ADF894
:102738002C308DF82E1002230BA985F86C70AE672B
:102748008DF82F30029285F82470AF62EF622F6304
:102758006F6685F86A7085F86B7001F0E7FB029A7E
:102768005AF8080091783A4601F012FB304608F012
:1027780047FD454B4549EB67454BC5F88030C5F8E3
:10278800847030460A1D09F011F8BEE0022845D1D0
:102798005FFA89F34FF01C0A0AFB03F3EF18029360
:1027A8003C4B87F86D90012187F86C1003EB08010A
:1027B8004FF0000AD1F804C091F80DE08DF82F0011
:1027C80001F108020989ADF82C1060460BA987F8B9
:1027D8006EA087F876A0BE678DF82EE00593049268
:1027E80001F0A4FB059B049A53F80800917852461F
:1027F80001F0CEFA304608F003FD2749F96727496A
:10280800C7F88010029B2149C7F884A019443046B4
:102818000A1D08F0CBFF09F1010976E003285BD116
:102828009DF847301E4F3BB195F82280304608216D
:102838004FF6FF72002343E0BDF8522095F822803E
:10284800BDF85430B2F5FA7F34D91649B1FBF2F22B
:102858003046082192B201F092FB134B47F828004A
:1028680033E000BFBC1200202A1900202E020020ED
:10287800FC05002068140020F40D01081E02002049
:102888003C17002059020020F1370008B40200204C
:10289800D1380008DC0C0108953E0008C93700084B
:1028A8001813002000127A00F138000838020020BE
:1028B800A41200206449B1FBF2F23046012192B221
:1028C80001F05DFB614B47F82800C36095F82230A2
:1028D800013385F8223018E0042816D195F82170C4
:1028E800BDF84C20584B93FBF2F23046BDF84E3001
:1028F800012192B201F043FB95F8213005EB8707DF
:102908000133C7F84C0185F82130039B9B457FF4C0
:10291800D8AE95F8212085F86C214D4A4D4B177893
:10292800A7F117020026022A1E709E461AD8AB6924
:102938003344D3ED007AF5EE407AF1EE10FA02D185
:10294800EB6963BB26E0444A06EB020C0FCB8CE82C
:102958000F009EF8003010360133C02E8EF800307C
:10296800E5D1EDE73D4B13F837C08EF800C003EB17
:10297800C703D3F80480B8F1000FE1D06645DFDA69
:10298800354A330103EB020943440FCB013689E88A
:102998000F00F3E7324D2B68D90424D41DE0314BE6
:1029A800314A13F83700107003EBC7035D68002D38
:1029B800F0D000238342EDDAC3EBC3016A18DFF8D5
:1029C800B4C0D2F8008041F80C8001EB0C06918865
:1029D800B1809279B2710133ECE707F0EF03082B6D
:1029E800224B20D121E09EF80020012AF5D9204B66
:1029F80003EB0212103210339342EED053ED047AF7
:102A0800B6EE007A67EE877A43ED047A53ED057ADD
:102A180067EE877A43ED057A53ED037A67EE877A96
:102A280043ED037AE7E70E2F08D11A7842F0100237
:102A38001A70182F20D103F0CBFF1DE01A7822F06E
:102A480010021A70192FF5E740420F00E13800080C
:102A5800FC0500204813002038050020F40D01086B
:102A68007816002064F70008F4130020FE0F0020F9
:102A780040050020F513002003F08EFF2B68DFF8D7
:102A8800E4A25A035EBFAC4B01221A709AF80030D8
:102A980043F004038AF80030A36943F48053A36128
:102AA800E36843F48053E36063694FF0904543F46F
:102AB800003363612B6A23F470032B622B6A43F49F
:102AC800A0032B622B6A23F070632B622B6A43F0FE
:102AD800A0632B622B6A23F070432B622B6A43F0AE
:102AE800A0432B622B6A23F470232B622B6A43F4D6
:102AF800A02300262B624FF00208E0234FF00309C1
:102B0800284609A94FF0100B012709938DF8288052
:102B18008DF829908DF82A608DF82B6003F042F823
:102B2800284609A9CDF824B08DF828708DF8299089
:102B38008DF82A608DF82B6003F034F8E3687F4D38
:102B480043F48053E360E36823F48053E3604FF475
:102B580000734FF482724FF4E06CADF836304FF0EA
:102B68000703ADF82E20ADF830C0ADF82C60ADF8F5
:102B78003A60ADF83C30ADF83280ADF83470ADF85D
:102B880038B0AB88049223F4805303FA0BF323FA8A
:102B98000BF3CDF80CC0AB80AB889BB243F48053E9
:102BA800AB8028460BA902F0B1FD2B889BB243F0FD
:102BB80040032B80E369624D43F48043E36123695A
:102BC80043F480432361636943F4802363616B6A40
:102BD80023F470036B626B6A43F4A0036B626B6A45
:102BE80023F070636B626B6A43F0A0636B626B6A7D
:102BF80023F070436B626B6A43F0A0436B626B6AAD
:102C080023F470236B626B6A43F4A0236B6228463B
:102C18004FF4604309A909938DF828808DF829900D
:102C28008DF82A608DF82B6002F0BCFF4FF48053BA
:102C3800284609A9099302938DF828708DF82990E0
:102C48008DF82A608DF82B6002F0ACFF2169049A98
:102C5800DDF80CC041F48041216121694FF4007313
:102C680021F480412161374CADF836304FF007032D
:102C7800ADF83C30ADF82C60ADF82E20ADF830C082
:102C8800ADF83280ADF83470ADF838B0ADF83A60D0
:102C9800A28822F4805202FA0BF222FA0BF2A280E6
:102CA800A28892B242F48052A28020460BA902F078
:102CB8002DFD2288029B92B242F040022280224CD3
:102CC800AB61B4F85831CDF808A0002B40F0EB8484
:102CD800B4F95A21002A40F0E684B4F95C21002AAC
:102CE80040F0E184194B1A481B681A4DB3F8563066
:102CF800039300210C2294F85FB10BF0E2FB14223D
:102D0800154800210BF0DDFB144A95F87461002387
:102D18001370134BC5F870319046049336B10023F5
:102D2800A5F8763106BB05F051FA1DE005F0A4FAC6
:102D3800002800F00981F2E7680A0020003001400D
:102D480000040048003800403C170020A014002070
:102D5800C816002038020020D01E0020DC03002006
:102D680024F40008F61E0020684A138823F0400364
:102D78001B041B0C1380138823F038031B041B0C43
:102D880043F03003138013889BB243F04003138051
:102D980095F87811192008F023FC012003F006FCAF
:102DA80001211A2008F01CFC012003F0FFFB0BA8EE
:102DB80004F00EFE9DF92E30013303D19DF92C301D
:102DC800013303D0B5F876319BB21BB10023A5F8C7
:102DD8007631B9E04E4F4F4B3B604F4B7B604F4BCA
:102DE800FB6064204E4B3B614E4E03F0EAFB04232C
:102DF8004D4988F8003006230B70336843F001030F
:102E08003360D9468A46494B0021B9F1090F197038
:102E18009B4601D98946F6E7012303FA09F340F2F4
:102E28000231194041BB13F0FD0F25D0049BC5F8B2
:102E3800703195F8743133B10022A5F8762143B981
:102E480005F0C4F905E0059305F016FA059B98B15D
:102E5800F2E7374B374A1A606420374A5A6003F062
:102E6800B0FB04238BF8003007238AF8013033685D
:102E780043F00203336005E0B9F1010F02D94FF0C6
:102E88000009C0E733689B0702D5294B1B689847A0
:102E98002A4B4FF47A721A604FF000093B6885F8A4
:102EA80078919847264B94F8542183F800900AB1FA
:102EB80088F8002094F855210AB11C490A7094F842
:102EC800562102B11A70336818071AD5BDF90C10CB
:102ED800DFED1C6A642291FBF2F302FB131212B2BB
:102EE80007EE902AB8EEE77A07EE903AF8EEE77A1E
:102EF800E7EE267AB2EE047A67EE877AC5ED5F7A56
:102F080025E00023C5F87C3121E000BF00300140F6
:102F1800D01E0020557A0008D97900085979000890
:102F280090C1793DC4160020A80000200F1F002082
:102F3800C8160020417A0008717900088015002021
:102F48000E1F00208988883C012003F044FB029B67
:102F5800029A1B7843F002031370AB4B08229A6164
:102F68000A26A94FBB8A9BB283F00803BB821920AB
:102F780003F027FB013E192003F023FB16F0FF06A0
:102F8800EFD10823BB61A14B9FEDA18A1F68DFED3C
:102F9800A18A3B7B00EE103AB8EEC00A20EE080A80
:102FA80005F030FD9C4B83ED000A9C4B1B8807EE17
:102FB800903AF8EEE77AB7EE007AC7EE277A984BA0
:102FC800B0EE680AC3ED007A964BD3ED047A964BBF
:102FD80067EE887AC3ED007A3B78944F07EE903A13
:102FE800F8EEE77A924BC7EE277AC3ED007A77EED0
:102FF800677A904BC3ED007A8F4B83ED027AC3ED6D
:10300800008AC3ED018A8D4B83ED027AC3ED008AF5
:10301800C3ED018A05F0F6FCB0EE408AB0EE680A0E
:1030280005F090FC20EE006A68EE086A66EE007A09
:10303800834BE6EE887AFF211B2220EE087AC3ED47
:10304800007A67EE007A3846F0EE675AD7EE085AEB
:10305800E7EE087A28EE468AC3ED015AA6EE808A82
:10306800C3ED027A83ED038A764B1E700BF029FAC2
:10307800754A764B12683E70012112F0020F1970E2
:103088001FBF797003211970022118BFB970510749
:1030980041BF19784E1C1E70032648BF7E5412F09B
:1030A8000A0F38460CD01A780421B954511CC9B2F9
:1030B80005267E54D11C0232D2B219700621B954A9
:1030C800634A11688A0641BF1A78561C1E70072683
:1030D80048BF86546679082E01D00E2E04D11A787E
:1030E800571C1F700B2787541A7811F0040F4FF0E4
:1030F8000C0E00F802E002F101071CBFDFF84CE1FA
:103108000232FFB21F701FBF8EF80020474A4FF0EF
:10311800100E02F807E01A78571CFFB24FF0120E93
:1031280011F4806F1F7000F802E00ED094F800E2EE
:10313800BEF1000F09D0DFF814E102328EF800204A
:103148003A4A4FF0130E02F807E08F0541BF1A788C
:10315800571C1F70152748BF8754182E0DD11A7891
:1031680016278754571CFFB24FF0170E00F807E0D8
:10317800D71C0232D2B21F708654CE0541BF1A78CE
:10318800511C19701A2348BF8354002198223148D2
:103198000BF097F9012003F0F7F8002600285DD01E
:1031A800012E5BD84FF04C092A4B09FB06FB03EBB9
:1031B8000B0A0AF1480898F8027017B10136F6B2FE
:1031C800ECE790F9003090F804E01846224B03220F
:1031D8008DE8840001213A4653F82E3002F0D6FFDC
:1031E800039068B14A46504639460BF06AF9194AC5
:1031F800039B42F80B3001231E4488F80230F6B2D4
:10320800012003F0A9F8C9E700040048BC04002025
:1032180035FA8E3C00000000B804002000000020B1
:1032280070040020D01E002074040020FD0100203E
:10323800D0040020C0040020D4040020C4040020CE
:10324800A804002032040020C4160020FC0100203D
:103258007816002060010020E4F40008AE4BAF4A65
:103268001A60AF4BB4F84E111980AE4900230B8099
:103278008B70AD490A60B4F8962190B2AB4921F839
:1032880013000133122BF9D1A94E3368D8045CBF5F
:10329800B4F89C0108801B0740F1C28094F8903173
:1032A800062B00F2B780DFE803F004070E3D5775E0
:1032B800750045F2F05201E042F6F8229D4B1A8063
:1032C80008F03BF8A5E007EE902ADFED9B6A994BE2
:1032D800B8EEE77ADFED997AE7EE267A42F6F8213A
:1032E80019800023FCEEE77A954A17EE901A42F807
:1032F80023100133122BF7D1924A93491160934A54
:103308004020137003F040F8002800F08380012368
:103318004FF0070E90F900008D4A8DE808404021D3
:103328008C4B71E0834B42F6F8221A80854B8A4A0F
:103338001A60864B102240201A7003F025F80028E6
:1033480068D00123002790F90000844A8DE888009E
:1033580040214FF4E13357E0764B42F6F8221A80C9
:10336800784B7F4A1A60794B082240201A7003F084
:103378000BF800284ED00121002390F90000794A6B
:103388008DE80A0040214FF4E13302F0FFFEC5F852
:1033980080013BE0674ADFF814E2734F734842F656
:1033A800F821118069490C22062B0A700FD00023DE
:1033B8003B708EF8003003706D4B1B2119706D4BFC
:1033C8001A706D4B05221A704FF4E1370CE000219A
:1033D800397001708EF800106549684F2120087017
:1033E80064490A70644A1370564B654A1A60402053
:1033F80002F0CAFF70B10122002390F900008DE8A5
:103408000C00604A40213B4602F0C0FE003018BF65
:10341800012028B9082005F01DFB4A4B5A4A1A60BA
:1034280032684A4B12F4804F1FBF08211970454972
:10343800564818BF086042F20101114002F001002D
:1034480002F4005779B13B4A44F62061118027B154
:1034580008221A703B4A4E49116020B10C221A709A
:10346800384A4C4911601A784B4F043A5A703B88D5
:1034780023F040031B041B0C3B803B8823F03803DC
:103488001B041B0C3B803B889BB243F040033B80F2
:103498004FF000089F2332208DF824308DF82580C6
:1034A8008DF826808DF8278003F08BF88DF82D8015
:1034B800DFF8FC804FF4805909AA0423A8F8289063
:1034C80038460BA900F070FEC8F818909DF82E2019
:1034D8009DF82D30120242EA03429DF82F301A431C
:1034E8002E4B9A422E4B65D008D82E498A420CD0D2
:1034F80001F51A4102318A4209D069E02A498A4213
:1035080005D001318A4255D062E0202200E08022B5
:103518001A804FF4807250E0F80F0020C418002081
:10352800FC0F0020881600207416002018160020B2
:103538007816002012050020CDCCCC3F0000B0C486
:1035480000110020A00000205D5300081C1E002070
:10355800A9550008A086010049530008FD54000839
:1035680031530008B15400085111002050110020B7
:10357800521100208B1000205311002090D003001E
:103588004D52000891530008D1A50008A5A50008D0
:10359800C1A50008B1A500080038004018BA2000ED
:1035A80038000020152020001740EF008C10002064
:1035B800000400484FF480721A805A809A8819884B
:1035C80012029A604A43DA60012285F8842104E0F5
:1035D80000221A805A809A60DA60DB681BB34FEACF
:1035E800D328C1464FF0000AC24509DA0AEB08079A
:1035F8007F10F8020BA9102204F0BEFD0F2806DC8C
:1036080004F0DAFC4FEAC923C5F888310BE000233F
:103618000BAA52F82320013241D10133042BF7D1F0
:10362800B846B946E0E702F0A5FF564B1860637943
:10363800052B02BF544B4FF4C8721A80534B4FF4FA
:103648007A721A80524A137843F008031370514A69
:10365800137823F002031370326840F60203134014
:103668006BB14D4B4D4A1A604D4B03221A704D4BAE
:1036780001221A704C4A002313804C4A1380A36815
:1036880033604B4B01221A70029B029A1B7863F03D
:103698007F03137025B0BDEC068BBDE8F08F07F1F2
:1036A800010A4F46BDE71BB208EE103AB4F95A3189
:1036B800DFED407A404A09EE103AB4F95C31B8EED1
:1036C800C88A08EE903A28EE278AB8EEC99AF8EE2A
:1036D800E88A0021B0EE480A29EE279A68EEA78A00
:1036E800117005F08FF9F0EE409AB0EE480A05F037
:1036F80029F9B0EE408AB0EE490A05F083F9B0EE38
:1037080040AAB0EE490A05F01DF9F0EE40AAB0EE65
:10371800680A05F077F9B0EE409AB0EE680A05F04D
:1037280011F960EE296A68EE097AF0EE665AE7EE5A
:10373800AA5A224B29EE296A28EE007AC3ED035AC9
:10374800F0EE465A2AEE400AE7EE6A5AE6EEAA7A00
:10375800A6EE6A7A29EE0A9A83ED010A28EE4A8AC9
:103768002AEE290A83ED009AC3ED02AAC3ED045A92
:1037780083ED058A83ED067AC3ED077A83ED080A9F
:10378800FFF7B0BAE40400200E1000200C1F002040
:10379800FE0F0020111F00200C120020B618002078
:1037A800C0160020AC000020380100203A0100209B
:1037B800680A002035FA8E3C34000020E811002009
:1037C80010F80A3C0133DBB20A2B84BF10F8131C33
:1037D800044A00F80A3C82BF002322F8113000F89E
:1037E8000A3C70473C160020334A136C9068194411
:1037F800081A40F68C23984270B513469160D06041
:1038080051603BD9127893F945108A4210460BD182
:10381800111F082908D893F84610182901D8013132
:1038280003E083F8442002E0002183F8461093F96E
:1038380044402149A24219D191F84740B4B10C3112
:103848000024944206DA1D4D51F8046F25F81460DF
:103858000134F6E70C2805D01849002421F8104057
:103868000130F7E7164801780131017083F84520E7
:10387800002201211A7083F8471070BD92F8471092
:10388800C9B1A0F2EF2440F2DA518C4208D811787D
:103898000B2905D80B1D0131117042F8230070BDAA
:1038A800002283F84720074B03F13002002143F838
:1038B800041F9342FAD170BD5C0200203C16002020
:1038C800CC03002068020020024A136C013319441B
:1038D800116470475C020020024B53F820301B68CB
:1038E8001960704718130020064B53F820301A68E7
:1038F8001B89A1F57A7159434FF47A7391FBF3F15F
:1039080011607047181300200B4B984201D10B4AE5
:1039180003E00B4B984207D10A4A138801339BB244
:1039280013804FF0FF307047074A138801339BB26A
:103938001380108880B2704700300140AE03002029
:1039480000380040C40300206C0A0020F0B5046D64
:103958008668236823F0010323608379054613F002
:10396800020F40790CBF4FF0000E4FF4005E13F0C9
:10397800040F14BF4FF48067002710F0010F14BF25
:10398800042100218307206820F00100206062687C
:1039980022F440524EEA02026260226822F4B053D6
:1039A80023F00C0348BF41F008013B430B4323605D
:1039B800A36895B023F44073A360684601F084FFC0
:1039C800284B9C4201D10C9B0EE0274B9C4201D115
:1039D8000D9B09E0254B9C4201D10E9B04E0244B32
:1039E8009C420CBF0F9B109B2268A879170448BF04
:1039F8005B00B3FBF6F206FB1233B3EB560F2368FA
:103A080028BF01321E0441BF4FF6F073C2F34201D2
:103A1800134041EA03026B7992B213F0020FA281BC
:103A280000F0010114BF4FF400320022DC0748BF48
:103A380042F480322B6D11B159680A4302E059688B
:103A480021EA02025A609A6801074CBF42F0080254
:103A580022F008029A601A6842F001021A6015B052
:103A6800F0BD00BF0038014000440040004800405D
:103A7800004C00402DE9FF471D46B34B9DF83060D0
:103A880098428846174640F08680B04BB04A1A6084
:103A9800B04A5A6102F580729A614FF48072DA6016
:103AA8001A61AD4A1A63143A5A63A2F54842203A99
:103AB800DA6404329A649F601865A84B9A6942F4E4
:103AC80080429A615A6942F001025A6102238DF8D4
:103AD8000C30032316F0010A8DF80D304FF0000367
:103AE8008DF80E3014BF0223012331078DF80F30F3
:103AF8001BD54FF090444FF40079CDF808908AF028
:103B080001038DF80E30636A23F0F0036362636A81
:103B180043F070036362204602A902F043F8BAF149
:103B2800000F28D1C4F8189025E0AA0710D504A9D9
:103B38004FF4007341F8083D4FF09040436A23F07A
:103B4800F0034362436A43F07003436202F02AF8C9
:103B5800EB0710D504A94FF4806341F8083D4FF0F6
:103B68009040436A23F470634362436A43F4E0631A
:103B7800436202F017F80E238DF804300022012367
:103B880001A88DF805308DF806208DF807306F4CA8
:103B980007F018FB77E0724B984240F0F580714BC4
:103BA8006B4A1A604FF48072DA601A616E4A5A6181
:103BB80002F580729A61694A9F601865D36943F477
:103BC8000033D36102238DF80C30032316F0010A69
:103BD8008DF80D304FF000038DF80E3014BF02231E
:103BE800012334078DF80F301AD5604C4FF48069E3
:103BF800CDF808908AF001038DF80E30636A23F43B
:103C080070636362636A43F4E0636362204602A9F7
:103C180001F0C8FFBAF1000F26D1C4F8189023E0CC
:103C2800A8070FD504A94FF4806341F8083D4F4811
:103C3800436A23F470634362436A43F4E063436274
:103C480001F0B0FFE9070FD504A94FF4006341F86C
:103C5800083D4648436A23F470434362436A43F489
:103C6800E043436201F09EFF26238DF804300022D2
:103C7800012301A88DF805308DF806208DF807304E
:103C880007F0A0FA374CC4F82C80012384F844309C
:103C980000232362E361A36263626571A760A67172
:103CA8002046FFF753FEEA0729D5206B00B3D4F866
:103CB8004C80E668676901F08FFD236B216D1A68F7
:103CC80022F4FF4222F0700242F48552B6B21A6022
:103CD8005E60C3F80880DF601A6842F001021A606B
:103CE8008A6842F040028A605B689BB2236406E0FF
:103CF800236D20221A621A6842F020021A60AB076C
:103D08003BD5606B002833D0A66C256901F064FDB3
:103D1800636B1A6822F4FF4222F0700242F4845264
:103D280042F010021A60ADB200225D609E60DA6057
:103D3800196841F0020119605A605A60226D93684F
:103D480043F08003936018E0003801407C1E002097
:103D58007CF400086E0A002058000240001002405F
:103D680000440040281E00206E0C0020000400487B
:103D7800226D136843F080031360226D136843F0CB
:103D880001031360204600E0002004B0BDE8F0877E
:103D98003D4B1B78012B30B514BF00240324B1B967
:103DA800036A23F0010303628169036A21F0F301C6
:103DB80023F00A0341F0010142F001021A4341EAEB
:103DC800041181610262836923F00C031BE004295A
:103DD8001DD1016A4FF6EF730B4003628169056AD2
:103DE800120121F473414FF65F7342F0100241F45F
:103DF80080712B4092B2134341EA0431816103621E
:103E0800836923F4406383618369836130BD082932
:103E1800016A1AD14FF6FF630B400362C169036A56
:103E28009BB289B223F4206343F4807321F0F30139
:103E380043EA022241F0010192B241EA0411C16150
:103E48000262C2694FF6F37319E04EF6FF730B4036
:103E58000362C369056A40F6FF41194045F6FF73DE
:103E68002B4043F4805343EA023241F4807192B20A
:103E780041EA0431C1610262C2694FF2FF33134063
:103E8800C361C369C36130BD5802002038B510F85A
:103E98000E2C50F8043C044652B9012200F80E2CAE
:103EA80020F80C1C997A18680222BDE838406FE7A0
:103EB80030F80C2C20F80A1C891A89B220F8081C42
:103EC800074A10F80F0C002522F8101004F80E5CB1
:103ED8001868997A2A46FFF75BFF04F8065C38BD34
:103EE8003C160020044B53F820301BB107289CBF18
:103EF8001B681960704700BF84030020084A1368D4
:103F08009B050BD5074B00211970074908684FF628
:103F1800FE7303400B604FF400735360704700BF9B
:103F280000000240101F00203000024073B5064612
:103F38000D46002401232A88A34013421AD0AA78E8
:103F4800009302F003038DF80430EB78022B03D0C2
:103F5800032B0CBF032301238DF805303046C2F331
:103F680001136946C2F381028DF806308DF80720E7
:103F780001F018FE0134102CDCD102B070BD2DE91F
:103F8800F743DFF81C9299F8024405468E4600680C
:103F98001146164698467246631C89F8023407F0A3
:103FA80099FB2B89ADF8043001A9022368688DF8C4
:103FB80006308DF80730FFF7B9FFAB7A2A6809F2A7
:103FC80004472401274449460C2B00F2B780DFE858
:103FD80003F007B5B5B53EB5B5B56AB5B5B5930047
:103FE800136ADFF8C0C123F001031362136AD2F821
:103FF80004E0906920F4803020F07300624540F0BE
:10400800700012D00CF5006C62450ED00CF5406CB7
:1040180062450AD00CF5806C624506D00CF5806CC0
:10402800624502D043F0030307E023F00E032EF4A9
:10403800407E43F003034EF4807EC2F804E09061B2
:10404800C2F834801362936943F0080329E0136AC5
:10405800DFF850C123F010031362136AD2F804E0AA
:10406800906920F0807020F4E640624540F4E0401A
:1040780006D00CF5006C624502D043F0300307E02F
:1040880023F0E0032EF4406E43F030034EF4806ECC
:10409800C2F804E09061C2F838801362936943F46F
:1040A800006393614AE0136ADFF8F8C023F4807371
:1040B8001362106AD2F804E0D369624523F07303EF
:1040C80043F0700306D00CF5006C624502D040F452
:1040D800407007E020F460602EF4405E40F44070C9
:1040E8004EF4805EC2F804E0D361C2F83C801062EE
:1040F800D36943F0080320E0136ADFF8A8C023F46B
:1041080080531362106AD2F804E0D369624523F43D
:10411800E64343F4E04340F4405003D00CF5006C10
:10412800624501D14EF4804EC2F804E0D361C2F872
:1041380040801062D36943F40063D3612B7B1BB1C9
:10414800536C43F40043536413889BB243F0010358
:104158001380AB7A0C2B19D8DFE803F0071818186E
:104168000B1818180F18181813000B1902F134003F
:104178000AE00B1902F1380006E00B1902F13C00C5
:1041880002E00B1902F14000C3F804040C4438465D
:10419800A4F80C64C4F8082403B0BDE8F08300BF99
:1041A8006C0A0020002C014070B584894FF47A74A1
:1041B800F3B112B11578013207E0FF2505E0013CA3
:1041C800A4B24FF6FF76B4420CD00689B607F6D5EE
:1041D80005730589ED070DD4013CA4B24FF6FF75B0
:1041E800AC42F6D1FFF790FB003018BF012070BD3C
:1041F800012070BD057B09B10D700131013BD7E786
:1042080008B540F2E9330289920704D4013B9BB216
:10421800002BF8D109E0017340F2E9330289D20793
:1042280006D4013B9BB2002BF8D1FFF76DFB00E0F1
:10423800007BC0B208BD00BF7F4A2DE9F04F15686A
:104248007E4C05F59C43203323607D4B196889B06B
:1042580011F4804F05929A4605D106F005FB10B976
:10426800237901332371774B1F78C7B1764A1268D7
:10427800954240F2FD80013F1F70F9E0D8F8003008
:104288007248072D98BF595D714B88BF29461B6836
:104298009847032D0BD904EB45050137E8806B4B94
:1042A800DFF8C4811E78FDB2AE42E7D820E0D8F826
:1042B800002005F10E0302EB83039988DA880028B1
:1042C800E9D04FF47A73401A5843531A90FBF3F02D
:1042D80040F6C90300F57A70984205DC40F2EE23F7
:1042E8009842B8BF184601E040F6CA0080B2D2E74B
:1042F8000F23277984F82A3094F82B30019303256B
:1043080094F82C30B7FBF5F505EB45057D1B0393B9
:10431800D8F800300293DFF85491EBB204930025EB
:10432800B54254DA4B49019B31F815B04FEA4508BC
:1043380053B906F099FA28B1039B002B08BF4FF038
:10434800000B01E0DDF804B0029B988A584502D8BA
:10435800D88A58450ED2E8B206F03EFA032D8346B5
:10436800DFBF94F82AE00120A8402EEA0000D8BF59
:1043780084F82A0006F078FA18B1374828F800B00F
:1043880021E0049B94F8760029F813B028B9022F8D
:1043980015D92A49012081F87600B9F80210B9F830
:1043A80000000844B9F8041008442C4980B228F8E1
:1043B800010000B2032190FBF1F080B200E0584602
:1043C800254928F80100013509F10609A8E794F8FC
:1043D8002A20234BA2F10F004242424184F8902048
:1043E800204872B1154AD2F89420510109D40268C4
:1043F800D9689A60521AC82A3AD9012283F821202A
:1044080036E002689868DA605B68121A9A4288BFD8
:10441800134B4FF0000184F82B1088BF83F821104C
:104428000025B54224DAE8B206F0D6F90A4B23F89B
:1044380015000135F5E700BFF81E00205C0F0020CD
:1044480078160020801600207C1600201C1E0020F4
:10445800A0000020620F002018160020D40F0020B2
:104468008816002084160020741600208A0F002069
:10447800DAF80030DA0405D5D4F89430DB0701D433
:1044880007F022FCAC4B1A68937A2BB3013BAB497B
:10449800127B31F813301AB1C3F53B6308339BB272
:1044A8001BB2A3F57A73B3F57A7FA8BF4FF47A737A
:1044B80023EAE37307EE903A9FEDA17AF8EEE77AE4
:1044C800C7EE877A9FED9F7A67EE877AFCEEE77AE8
:1044D80017EE903AA4F89830DAF800309A4E13F4B0
:1044E800807F00F0EA80059BDFF864B21A68974B7A
:1044F8009A4205D99BF8023013B901238BF8023090
:104508009BF80230002B00F0D880914BD4F894909F
:1045180093F821506F1E7D427D413778002DC9F3F5
:104528008063C7F38007019314BF4FF000084FF072
:1045380003089BF82030052B00F2B980DFE803F070
:10454800034D527584A0002F3AD0D4F89C00B4F8DB
:10455800A01001F0A9FF012809D17E4A7E4B1268FC
:104568001B68D288642101FB0233CBF81030019B11
:104578006BB1784B1B681B794BB107F051FB0323D8
:104588008BF820304FF47A73CBF81C30D1E7002D2C
:1045980040F08D80704BDBF8102019686C4B91420D
:1045A8000AD9029307F03CFB029B032283F82020E0
:1045B80040F6B832DA61BCE7012283F82020B8E778
:1045C800019B4FF4806013B104F034FA01E004F069
:1045D80021FA0023CBF8103069E0002D45D107F00F
:1045E8001FFBA6E725B105238BF82030012100E049
:1045F800294667B1D4F89C30DA89504B1A805A8022
:104608009A80544A12685288DA804FF00208524B56
:104618001A68DBF814309A4201D8002F44D147F2C7
:104628003053CBF81C30032320E0337843F00203E7
:10463800337007F049FB484BDBF81C201B68134418
:10464800CBF81830042311E0434B95B11A68DBF816
:1046580018309A422BD9414B1B7813B919F0010F26
:1046680025D1337823F00203337005238BF82030EB
:104678005FE71B68DBF81C201344CBF8183016E002
:10468800344A354B12681B68D288642101FB023317
:10469800CBF810304FF4806000238BF820308BF873
:1046A800033004F0B7F944E700297FF442AFB8F1CA
:1046B800000F02D0404601F023FF294D05F5C470D4
:1046C800B5F84E1101F0F0FE814668B907F09AFA84
:1046D800244BC3F80090C3F80490C3F80890224B09
:1046E80000221A605A609A603378580758D5DAF869
:1046F8000030D90654D594F8A2301C4FDA064FD4AE
:10470800164B1B78002B45D095F8E031B9F1000F16
:104718002ED15BB1104B1A68D7F8A4309B1A002B26
:1047280004DA07F0D1FA87F8A89039E0102001F0F0
:10473800E7FE01232BE000BF7416002018160020A6
:1047480000007A4400C07F44111F0020404B4C00F9
:1047580088160020F01E0020841600200200002089
:104768003C17002084150020EC1500205C0F002069
:104778003BB1A04A12684FF47A7101FB0323C7F8D2
:10478800A43094F8A8305BB101F0A8FE002384F8A7
:10479800A83005E0B9F1000FC8D097F8A830F2E7C3
:1047A800002295F8DE7195F8DF11B5F898C1B5F8D3
:1047B8009AE19046904B019333F912004FEA98081A
:1047C8006045C4BF68F07F035FFA83F80132704523
:1047D800B8BF48F04008042AECD194F8A9208748CB
:1047E800424505D190F8AA20F92A04D8013200E000
:1047F800002280F8AA20824A804892F800B084F803
:10480800A9800292BBF1000F1CD1D0F89420D307E5
:1048180008D5B9F1000F15D13278D10712D507F0B4
:104828001DFA0FE0327852070CD590F82B204AB1C8
:10483800744AD27832B911B107F046FA02E0B9F1F8
:10484800000FF9D094F8AA20DFF8C891142A6CD187
:10485800003718BF0127BBF1000F15D0B8F15F0F63
:1048680003D08FB1B8F17D0F0ED1327802F0040277
:1048780002F0FF0B12B107F027FA05E00B2001F058
:104888003FFE5E4B83F8AAB0327802F0040202F0D1
:10489800FF01002A49D1B8F1570F0BD15A4B4FF4F9
:1048A8007A721A80594B1B6813F008033DD1A4F89B
:1048B800AC303AE0DAF80020530719D5B8F15A0FAE
:1048C80016D194F8AE304D4A2BB1012382F8AE10C0
:1048D80082F8AF3029E092F8B03083F0010382F813
:1048E800B0300BB10C2000E00D2001F009FE1CE0F7
:1048F800B8F15D0F00F0CE83B8F15B0F00F0CC8308
:10490800B8F15E0F01D10320C7E3B8F1560F01D10A
:1049180004F01CFB029B1A78002A00F0CF83B8F140
:104928006F0F40F0C68307F099F9DAF800305F0797
:1049380037D594F8B030314A9BB13378580710D541
:10494800019BB3F90610B5F89831994209DDD2F800
:10495800943013F0010302BF3221A2F8B41082F898
:10496800B030D4F89420254BD1030CD593F8B62059
:104978002AB993F8AE2012B93222A3F8B420012341
:1049880084F8B6300DE093F8AE2052B1327802F0D8
:10499800040202F0FF0122B9012283F8AE1083F865
:1049A800AF20D9F800700023C4F8943007F17B06D3
:1049B80007F1CB083278737816F8010C9A420DD2B9
:1049C800314601F04BFD48B116F8022C012303FAD9
:1049D80002F2D4F894301343C4F8943004364645B0
:1049E800E8D10B4B1B78BBB1D4F89460B20700F147
:1049F80015830CE384160020181600205C0F002095
:104A080002000020881600200C1F0020C416002079
:104A1800121F0020A014002007F1CA0607F58977A5
:104A28003278737816F8010C9A4225D2314601F093
:104A380015FD08B3B37896F804E0CD4A96F80380DC
:104A4800CC480C21013B01FB0E4103EB430313440B
:104A5800D1F8BC209A420FD0C1F8BC30002390F89E
:104A6800E820C1F8C030012303FA0EF322EA030359
:104A780081F8B88080F8E8300636BE42D0D1BE4A08
:104A8800BE4994F82B30D2F80080D1F80090BC4F82
:104A98000293002603923868002800F0B182027859
:104AA800002A00F0AD827968C1EB090100290ADB10
:104AB80009F5FA7194F8E8E079600121B1402EEA2D
:104AC800010184F8E810029B002B00F0998217F886
:104AD800041C43780431C9B2002B40F05582019B75
:104AE80033F911E0B5F8961101F1C80CE64502DD7D
:104AF80090F802B013E0C8398E4504DA90F802B095
:104B0800CBF1000B0BE094F8E8100122B24021EA47
:104B1800020284F8E82009F5FA727A6070E294F8E3
:104B2800E8103141CB0700F16B82BBF1000FCCBF1D
:104B380002200120049201F005FD049A8D49501EBF
:104B4800132800F25682DFE810F01400210031002B
:104B580043005D006500C2002F019001BF01EE0116
:104B68005402430050006500C2002F019300F0007A
:104B78005F0198F800209344BBF1FA0FA8BF4FF0EB
:104B8800FA0B2BEAEB7B88F800B00BE098F80120D1
:104B98009344BBF1640FA8BF4FF0640B2BEAEB7B87
:104BA80088F801B0404601F03FFC22E298F8032063
:104BB8009344BBF1640FA8BF4FF0640B2BEAEB7B67
:104BC80088F803B04046D1F8EC1001F0E3FB10E29E
:104BD80098F8051059446429A8BF642121EAE171B5
:104BE8000D2A88F8051000F0048298F804209344F0
:104BF800BBF1640FA8BF4FF0640B2BEAEB7B88F87E
:104C080004B0F6E198F8062093448BF3080B88F873
:104C180006B0EEE1D1F8F030187802281DD107EE81
:104C280090BA9FED597AD3ED096AF8EEE77AC7EEA4
:104C3800877A77EEA67AF5EEC07AF1EE10FA07D405
:104C4800F4EE477AF1EE10FAC8BFF0EE477A01E0C9
:104C5800DFED4E7AC3ED097A07E098785844C82802
:104C6800A8BFC82020EAE07098700F2A00F0C18120
:104C7800D1F8F0100A78022A1DD107EE90BA9FEDFC
:104C8800427AD1ED086AF8EEE77AC7EE877A77EECE
:104C9800A67AF5EEC07AF1EE10FA07D4F4EE477A68
:104CA800F1EE10FAC8BFF0EE477A01E0DFED377A8F
:104CB800C1ED087A9DE14A789344BBF1C80FA8BFBB
:104CC8004FF0C80B2BEAEB7B81F801B091E1D1F8EA
:104CD800F030187802281DD107EE90BA9FED2A7A95
:104CE800D3ED0C6AF8EEE77AC7EE877A77EEA67A04
:104CF800F5EEC07AF1EE10FA07D4F4EE477AF1EE49
:104D080010FAC8BFF0EE477A01E0DFED207AC3ED74
:104D18000C7A07E0187B5844C828A8BFC82020EAA6
:104D2800E0701873102A00F06481D1F8F0100A7846
:104D3800022A2DD107EE90BA9FED137AD1ED0B6AB6
:104D4800F8EEE77AC7EE877A77EEA67AF5EEC07ABC
:104D5800F1EE10FA07D4F4EE477AF1EE10FAC8BF74
:104D6800F0EE477A01E0DFED097AC1ED0B7A40E118
:104D78009CF400085C0F00205816002084160020C0
:104D88001810002000007A440000C842000000000B
:104D9800CA7A9344BBF1C80FA8BF4FF0C80B2BEADF
:104DA800EB7B81F80BB024E1D1F8F03018780228B9
:104DB8001FD107EE90BA1FED0D7AF8EEE77AC7EE2D
:104DC800877A93ED0F7A77EE877AF5EEC07AF1EE6F
:104DD80010FA09D41FED147AF4EE477AF1EE10FABE
:104DE800C8BFF0EE477A01E05FED187AC3ED0F7A9D
:104DF80007E0987D5844C828A8BFC82020EAE0707A
:104E08009875112A00F0F580D1F8F0100A78022A76
:104E18001FD107EE90BA1FED257AF8EEE77AC7EEB4
:104E2800877A91ED0E7A77EE877AF5EEC07AF1EE11
:104E380010FA09D41FED2C7AF4EE477AF1EE10FA45
:104E4800C8BFF0EE477A01E05FED307AC1ED0E7A27
:104E5800CFE04A7D9344BBF1C80FA8BF4FF0C80B01
:104E68002BEAEB7B81F815B0C3E0D1F8F0100A7893
:104E7800022A1DD107EE90BA1FED3D7AD1ED0A6ADC
:104E8800F8EEE77AC7EE877A77EEA67AF5EEC07A7B
:104E9800F1EE10FA07D4F4EE477AF1EE10FAC8BF33
:104EA800F0EE477A01E05FED477AC1ED0A7AA0E0BB
:104EB800CA789344BBF1C80FA8BF4FF0C80B2BEAC0
:104EC800EB7B81F803B094E0D1F8F0100A78022A5D
:104ED8001DD107EE90BA1FED547AD1ED0D6AF8EEA8
:104EE800E77AC7EE877A77EEA67AF5EEC07AF1EE22
:104EF80010FA07D4F4EE477AF1EE10FAC8BFF0EED4
:104F0800477A01E05FED5F7AC1ED0D7A71E04A7B87
:104F18009344BBF1C80FA8BF4FF0C80B2BEAEB7B3B
:104F280081F80DB065E0D1F8F020117802291FD181
:104F380007EE90BA1FED6D7AF8EEE77AC7EE877A3A
:104F480092ED107A77EE877AF5EEC07AF1EE10FAE4
:104F580009D41FED737AF4EE477AF1EE10FAC8BF60
:104F6800F0EE477A01E05FED777AC2ED107A40E023
:104F7800D17D8B44BBF1C80FA8BF4FF0C80B2BEAFB
:104F8800EB7B82F817B034E0012B32D1019B90F80B
:104F980002E033F911B0BBF5617F05DB40F6330160
:104FA8008B45A8BF8B4601E04FF4617B0C2A20D1CA
:104FB8004FF4966090FBFEFE67480178ABF5617B85
:104FC8009BFBFEFB5FFA8BFB594512D0BBF1040F2C
:104FD80034BF5946022102FB0152039B017002F2C1
:104FE800B6621A6003F002FE0BF10100C0B201F0D4
:104FF800A9FA94F8E8100122B2400A4384F8E8209C
:105008000136042E07F10C077FF445ADECE4DAF81D
:105018000030DC0511D5514BDB7873B1504B1B6860
:1050280098070AD54F4B1B8813F001040AD106F0E4
:10503800E9FD012003F0FEFC04E0012003F0EAFC96
:10504800012300E0002371070DD563B1012003F0AF
:10505800E1FC444B1B889A0708D406F0D3FD0220D4
:1050680003F0E8FC02E0022003F0D4FC33054FF41F
:10507800807002D503F0DEFC01E003F0CBFC6B7915
:10508800082B01D00E2B63D1402009B0BDE8F04FAA
:1050980003F0C0BC012000E00220C7B27B1E85F8E7
:1050A800B43603F009FD03F0C5FD384601F04AFAAD
:1050B8003BE41FB1B8F17E0F3FF435ACB8F1970F60
:1050C80004D14FF4C873A4F8B2302EE4B8F1A70F96
:1050D80006D194F8A23043F0040384F8A23024E403
:1050E8000022B8F1BB0F079201D1022304E0B8F106
:1050F800B70F04D14FF6FE73ADF81E300CE0B8F1CF
:10510800BE0F01D1022305E0B8F1BD0F7FF40DAC4D
:105118004FF6FE73ADF81C30D9F80030BDF81C10FE
:10512800B3F858200A44A3F85820BDF81E10B3F865
:105138005A200A44A3F85A2003F0BEFC03F07AFD73
:10514800012001F0FFF9002384F8AA30FFF7EDBB36
:1051580009B0BDE8F08F00BF541600208816002063
:10516800C41600205C15002010B5214A18B9136830
:1051780002221A8210BD1F48146800230380217878
:1051880011F07F0102460DD1637A990644BF0221CE
:10519800017013F0400F037814BF43F0010323F0AC
:1051A800010315E0012921D002291ED1637913F0EA
:1051B800800F03F00F034FEA830303F1804303F5E5
:1051C800B8431B6806D003F03003102B07D1012326
:1051D800137004E003F44053B3F5805FF6E7064B21
:1051E8001B681B699847034810BD184610BD00BFCF
:1051F800EC160020501000200816002010B5064CB0
:1052080018B9236801221A8210BD044B1B689B68D9
:10521800984720680C3010BDEC16002008160020B6
:1052280010B5064C18B9236801221A8210BD044B28
:105238001B681B68984720680A3010BDEC160020D0
:105248000816002003788B4283BF034B03EB410110
:1052580048880020704700BF5010002070B5002219
:105268001346244914180C44A47E83EA0423082412
:1052780013F4004F4FEA430318BF83F4815304F13A
:10528800FF3418BF83F0010314F0FF049BB2EFD181
:105298000132192AE5D100F1190200F11A050A4470
:1052A8000D44967EAA7E02EB062292B29A421FD144
:1052B800104B93F83B50E2B2AA4216D2431C03EBC0
:1052C8004203DBB2CA1801330B44927E9B7E03EB88
:1052D80002239BB24FF4AF6253431B13064A03F5F4
:1052E800487322F814300134E5E7012381F83C3093
:1052F80070BD00BF501000205210002003788B4270
:105308000BD9074B1A78074B89001944086C02B16E
:10531800400800F5777080B270470020704700BFE2
:10532800201E00205010002007299DBF034B03EBCF
:105338008101B1F870000020704700BF50100020B4
:10534800034B03EB4101B1F89000C008704700BF60
:10535800501000200A4BDFED0B7A03EB810191ED31
:105368002C7AB8EE477AF6EE046AE7EE267A82B02F
:10537800FCEEE77ACDED017ABDF8040002B0704783
:105388005010002000005C4470B5334C054601F015
:10539800F1F8D4F8F830C4F8F800C31AB3F5FA5F96
:1053A800C4F8FC3082BF002384F8003184F801314E
:1053B80094F800312BB9A12D02BF274A012182F8A8
:1053C800011194F80111244A29B1D118EDB2013321
:1053D8008D7682F8003194F8005194F80231AB428E
:1053E80039D11D4B93F80331052B02D0062B03D07E
:1053F8002CE00020FFF732FFE37E1E2B26D1002091
:105408000246C1B26B1E994219DA21448B7E0821EB
:10541800DBB283EA0206F60744BF83F01803C3F33E
:10542800460301F1FF3154BF5B0843F0800311F0DC
:10543800FF01C2F34702ECD101301A46E1E72344E9
:105448009B7E9A4202D10320FFF708FF002384F8CD
:10545800013184F8003170BD5010002010B50446A9
:1054680001F088F80F4BD3F80421C3F80401821A1D
:1054780041F288318A42C3F8082184BF002283F8A8
:105488000C2193F80C21074913440F2AE4B218BFE2
:10549800013283F80D4112BF81F80C21012381F8F4
:1054A8001D3110BD5010002010B5044601F062F8FF
:1054B8000F4BD3F82021C3F82001821A41F288311A
:1054C8008A42C3F8242184BF002283F8282193F854
:1054D800282107491344142A18BF013283F82941A7
:1054E80012BF81F82821012381F83E3110BD00BF89
:1054F8005010002038B5044601F03CF8274A2749E7
:10550800D2F84031C2F84001C31AB3F57A6F84BFAC
:10551800002382F8443192F8443133B9A82C3BD1A6
:1055280081F84531A1F8463106E0022B02D181F815
:10553800484101E0242B02D8D11881F8494192F85A
:105548004811164D01330231DBB249008B4282F813
:10555800443118DAB5F84631E0B283EA002008236E
:1055680010F4004F4FEA400018BF80F4815003F157
:10557800FF3318BF80F0010013F0FF0380B2EFD1B2
:10558800A2F8460138BD01318B4201BF002385F8DE
:105598004431012385F8453138BD00BF5010002043
:1055A80010B5044600F0E6FF104AD2F8703140F614
:1055B800AC51C31A8B42C4BF002382F8743192F8ED
:1055C8007431D11881F8754123B90F2C0DD10749D1
:1055D800C1F870010133DBB2192B044982F8743128
:1055E8000CBF0123002381F88E3110BD501000201C
:1055F80008B50020402104F010FC094B1B68187AFC
:10560800082801BF074B4FF480521A80064B04BF8D
:1056180010221A80A0F109035842584108BD00BF62
:10562800EC1600200416002006160020314B2DE948
:10563800F0411C68228A267AB2B9042E14D12E4D64
:105648002E482B78012B0BD12D4B19682D4B89B285
:105658000B445B0019681A60302303802A7045E008
:1056680010230380072641E0A58AA369AA4294BFB4
:1056780004260226954228BF1546AFB238469847F9
:105688001F4A13689BB203F1005303F540535B00B4
:1056980005F1010E1B689BB203F1005303F540535B
:1056A8004FEA6E0E5B000021714500F1020009D03F
:1056B80010F8018C10F802CC4CEA082C23F821C011
:1056C8000131F1E712680F4B92B213445B001A687C
:1056D8001D60238ADB1B2382638A1F44074B678272
:1056E80030221A80084B4FF440521A802672BDE8C7
:1056F800F08100BFEC160020131F002006160020C2
:10570800505C004002300020041600202DE9F041D2
:105718004D880E88CB880C894A89B1F80C80B1F87D
:105728000EE08F88B5F5827F1BD11E4346F4827642
:1057380046EA0405B0F800C045EA020444EA080253
:1057480042EA0E030CF4415C4CEA03039BB203806B
:10575800828822F470631B041B0C3B439BB283803A
:105768001CE0B0F804C02CF4706C4FEA0C4C4FEA03
:105778001C4C4CEA07072E43BFB2334387802343B0
:105788000788134343EA080307F4415743EA0E0323
:1057980047EA030E1FFA8EFEA0F800E0838B23F47D
:1057A80000631B041B0C83830B8A0382BDE8F08112
:1057B800084BDA68D10709D4DA68D20608D4DB685E
:1057C80013F0040F14BF0320042070470120704712
:1057D800022070470020024002684FF6FE73134013
:1057E80003600023036043608360C360284B9842D2
:1057F80001D1284A27E0284B984201D1254A2AE0BE
:10580800264B984201D1234A2DE0254B984201D1DD
:10581800204A30E0234B984201D11E4A33E0224B04
:10582800984204D11B4A536843F470032EE01F4B7F
:10583800984204D1174A536843F0706326E01C4B22
:10584800984204D11B4A536843F00F031EE01A4BD9
:10585800984204D1174A536843F0F00316E0174BF7
:10586800984204D1134A536843F470630EE0144B12
:10587800984204D10F4A536843F4704306E0114B31
:10588800984204D10B4A536843F47023536070471D
:1058980008000240000002401C00024030000240A4
:1058A80044000240580002406C0002408000024060
:1058B80008040240000402401C0402403004024074
:1058C8004404024058040240994A536803F00C0308
:1058D800042B2DE9F04105D0082B06D0954901602D
:1058E800B3B916E0934B036012E053685468C3F3EE
:1058F8008343991CE30349BFD36A8F4B8D4C03F054
:105908000F0344BF0133B4FBF3F34B43036000E0E0
:1059180000235168894FC1F303117D5C0168EDB222
:1059280021FA05F444605668C6F30226BE5D24FADF
:1059380006FEC0F808E05668C6F3C226BE5DF6B299
:10594800F440C460D2F82C80C8F3041808F00F0C97
:1059580007EB4C0C18F0100FBCF810C01FFA8CFCA9
:1059680007D0BCF1000F04D0B3FBFCFCC0F810C09A
:1059780000E00161D2F82CC0CCF3442C0CF00F08E5
:1059880007EB48071CF0100F3F8ABFB204D01FB1C5
:10599800B3FBF7F7476100E04161176BFF065ABF99
:1059A800644F87618161176BBF065ABF614FC7613A
:1059B800C161176B7F065ABF5E4F07620162176BA2
:1059C800FF0506D5994204D1AE4202D14F00476285
:1059D80000E04462176BFF0406D5994204D1AE4239
:1059E80002D14F00876200E08462176BBF0506D5BD
:1059F800994204D1AE4202D14F00C76200E0C462AE
:105A0800176B7F0506D5994204D1AE4202D14F00EB
:105A1800476400E04464176B3F0506D5994204D1FA
:105A2800AE4202D14F00876400E08464176BBF0464
:105A380006D5994204D1AE4202D14B00C36400E0BE
:105A48008464156B3A4BAD0701D1046315E01C6BF8
:105A580004F00304012C01D101630EE01C6B04F077
:105A68000304022C02D14FF4004305E01B6B03F042
:105A78000303032B01D12F4B0363146B2C4B14F43A
:105A8800403F02D1C0F834E018E01C6B04F4403405
:105A9800B4F5803F01D1416310E01C6B04F440343D
:105AA800B4F5003F02D14FF4004306E01B6B03F44A
:105AB8004033B3F5403F01D11E4B4363146B1C4B7D
:105AC80014F4402F02D1C0F838E018E01C6B04F43D
