:020000040800F2
:1000000000A00020C5390108ABD30008E122010897
:10001000A9D30008A7D30008A5D30008000000005A
:10002000000000000000000000000000A3D3000852
:10003000A1D30008000000009FD30008D1E8000809
:100040002D3A01082D3A01082D3A01082D3A0108F0
:100050002D3A01082D3A01082D3A01082D3A0108E0
:100060002D3A01082D3A01082D3A01082D3A0108D0
:100070002D3A0108CD48000883C400082D3A010834
:100080002D3A01082D3A01082D3A01082D3A0108B0
:1000900051D400082D3A01082D3A01082D3A0108E3
:1000A000F9C0000825C10008E9C0000835C10008F2
:1000B00019C1000809C100082D3A01082D3A0108AC
:1000C0002D3A01082D3A01082D3A01082D3A010870
:1000D0002D3A010811C3000805C30008F9C2000841
:1000E000E1E800082D3A0108912501082D3A0108A0
:1000F0002D3A01082D3A01082D3A01082D3A010840
:100100000000000000000000000000002D3A01087F
:100110002D3A01082D3A01082D3A01082D3A01081F
:100120002D3A01082D3A01082D3A01082D3A01080F
:100130002D3A01082D3A01080000000000000000DF
:100140002D3A01082D3A01082D3A0108000000005F
:10015000000000000000000000000000000000009F
:1001600000000000000000002D3A01082D3A0108AF
:100170002D3A01080000000000000000000000000F
:08018000000000002D3A010807
:100188002DE9F04FA34D2B780D2B9CBFA24A3421AB
:100198002DED0E8B98BF01FB032391B094BF9F6A8E
:1001A80000279E4C9E4EE36809A898479DF8243086
:1001B80023B12B780D2B0CD900220FE00EF052FA48
:1001C800984B1B68FB1A1844336864339842E8D389
:1001D800EFE7914A342101FB03239A6AD6ED000A1E
:1001E800914BDFED928A924D92B2F8EE600A07EEDB
:1001F800902A1A8060EEA80A8E4BB8EE670A284645
:100208000121C3ED000A07F085FAFCEEC07A8A489E
:1002180017EE903AAB816368874C9847AB4648B96C
:10022800864A874E116811F0020F904640F0C78049
:1002380000F02EBC2E692EB3A71E0025814805F1BB
:10024800180200EB050C0244614606F1FF3E00204F
:1002580031F8028F21F8028C1EF9019F914218FB98
:100268000900F5D137F8022FACF8182096F90C10D0
:100278001A354E2D12FB01024FF4807192FBF1F2F8
:100288003A80DBD16C48704E9BF86220684D01467D
:1002980007F098F8328805F1B009002A68D06A6E2C
:1002A800137808EE103A05F168074FF00008743526
:1002B8003088B0F57A7F02BF00223A602A61396837
:1002C80034F91820114407EE902A2A69396001325E
:1002D800012A4FEA480AF8EEE77A2A6106D1002295
:1002E800C5ED017AC5ED007AAA601BE0D5ED006A7C
:1002F80007EE102A37EEE66AB8EEC77A86EE077A76
:1003080036EE877AD5ED026A85ED017A77EEC77AFF
:1003180085ED007AE6EE276AF0EE667AC5ED036AA7
:10032800C5ED026A0022012824F80A2029F80A20CB
:1003380029D12A69012AC3BF02F1FF3300EE103A1E
:10034800D5ED037A9FED410AC4BFB8EEC00A87EE27
:10035800800A16F009F818EE103A5BB1F8EEC87A80
:10036800B4EEE70AF1EE10FA04DD4FF47A72328047
:10037800002219E03A684FF47A7102F5FA7292FB9A
:10038800F1F229F80A2008F10108B8F1030F07F182
:10039800040705F114058BD13088012801D10EF02E
:1003A800C5FA3288013AE2E734F8121039F8120037
:1003B800091A24F812100132032AF5D130E7244A29
:1003C8001278002A00F064830EF04CF9DBF8B820AC
:1003D800CBF8B800831A09EE103A0025DBF8BC30D8
:1003E80004931978DFF870A0C1B336F91530194AAB
:1003F80000EE103AF8EE490A0C2000FB0520B8EE92
:10040800C00A60EEA80A07F085F9FDEEC07A17EE7B
:10041800902A25E0EE030020840000201826002002
:1004280054340020B0220020F8130020BD37863550
:10043800980900201C2500203414002004140020F2
:1004480094340020AC090020E434002000000000AF
:10045800C4340020580A00202E14002036F8152035
:100468002AF815200135032DB8D1BAF80260BAF878
:100478000050BAF8047016FB06F215FB052217FBAC
:10048800072264215143C64A1288524391FBF2F273
:10049800D8F80010A2F1520307930B0709D5C14AF7
:1004A800B2F9000028B1B2F9020010B1B2F9042083
:1004B8007ABBBD4A107800F010027AB311F020021E
:1004C8002CD000F0020149B3B84A1278042A25D981
:1004D800B74A1288B2F5967F20D3B64AB2F90430EB
:1004E800B54A07EE903A1388B8EEE77A07EE903AE5
:1004F800F8EEE77AB2EE048A87EE888A4FF00109AF
:100508004FF0000877EE487A9FEDAC8A27EE888A8C
:1005180009E04FF000094FF0010802E04FF0000930
:10052800C8469FEDA78AB4F90030DBED395A9D48DB
:100538000AEE903AB4F902300BEE903AF8EEEBBAC4
:10054800B4F9043044886BEEA5BAF8EEEAAA0BEECB
:10055800103A6AEEA5AA2BEEAB0AB8EECBBAAAEE11
:10056800AA0A038805932BEE25BAF8EE497A838800
:100578000693ABEE0B0A67EEA88A15F0F5FEF0EECF
:1005880040CAB9F1000F22D0DFED8E7AB4EEE78AC7
:10059800F1EE10FA04DDDFED8C7A38EE678AF3E7C6
:1005A800DFED8A7AB4EEE78AF1EE10FA04D5DFEDD2
:1005B800867A38EE278AF3E7B6EE000A28EE000AB4
:1005C80007F00BFB9FED7ECA30EE0CCA01E09FEDF1
:1005D8007CCA9FED7BAADFF80892F7EE009AB8F183
:1005E800000F56D0BDF91430DFED797A07EE103AD6
:1005F80023B208EE103ABDF91830F8EEC7DA00EE6B
:10060800103AB8EEC88AB8EEC0DA2DEEAD0AA8EEF8
:10061800080AADEE0D0AB4EEE70AF1EE10FA38DD7D
:1006280015F0A2FE89EE800AD9ED017AD9ED006AAB
:1006380028EE008A2DEE807A68EE277A2DEE000AE1
:10064800E6EE877AD9ED026AE6EE807AD9ED046A99
:1006580028EE268AD9ED036AA6EE878A99ED057AEF
:10066800A7EE008AB0EE4ADA28EE080AA7EEA70A33
:1006780015F07AFED9ED067A20EE480AA7EE80DA60
:10068800D9ED077AA7EE80AAD9ED087AA7EE80CA35
:1006980001E0B0EE4ADA079B262B3DD82DB207EED3
:1006A800905A36B2B8EEE78A07EE906A28EE080A42
:1006B800F8EEE7DA3FB207EE907AADEEAD0AB8EEA3
:1006C800E7EADFED437AAEEE0E0AB4EEE70AF1EEA2
:1006D80010FA21DD15F048FE89EE800AD9ED076A87
:1006E80099ED087A2EEE00EA6DEE80DA66EECE7AA3
:1006F80028EE008AEDEE877A27EE487A3DEE27DA73
:10070800D9ED067AAEEE277A67EEED7A3AEE07AAC9
:10071800E8EE267A3CEE27CA049BD3ED017AF5EE83
:10072800C07AF1EE10FA4FF000011FDD9FED297A33
:10073800F4EEC7CAF1EE10FA1ED567EE8D6A9BED8E
:100748003A7AA6EEA87A67EE8A6A8BED3A7A9BED3A
:100758003B7AA6EEA87A67EE8C7A8BED3B7A9BED16
:100768003C7AA7EEA87A8BED3C7A05E0CBF8E81046
:10077800CBF8EC10CBF8F010174C049B2178D3ED94
:10078800027A4F072ED41549086844F61F6188423B
:10079800F7EE005AB2EE047A98BFF0EE475A23E01B
:1007A800060000203A140020881400208914002034
:1007B800961400206C1400209814002035FA8E3C02
:1007C80000000000DB0F4940DB0FC940DB0F49C0C8
:1007D8000AD7233CC2B8B23EEC340020643400206F
:1007E800B4270020F7EE005A67EEA55ADBED3C6A05
:1007F8009BED3A7ADBED3B7AC34EDFF8488396ED02
:10080800004AC24FD8ED003AC14D9FEDC28AD5EDDE
:10081800004AE5EE8C6AA5EE8D7AE5EE8A7A3BEE23
:1008280026BAF6EE006A68EEA66A7BEEA77A3AEE7A
:10083800877A27EEA66A27EE267A6BEE266A26EED8
:10084800445A24EE260AD7ED007AA3EE870AA7EECB
:10085800C75AF1EE645AA5EEA65AA5EE860A66EEC8
:10086800E75A37EE800AE3EE865A67EE867A33EE69
:10087800855AE4EE875AE3EEA67A87ED000A20EE61
:10088800000A74EE255AA5EE050AE4EE477AA5EEAD
:10089800A50A74EEA77AC6ED005AA7EEA70A88ED56
:1008A800005AC5ED007A15F05FFD89EE800AD8ED93
:1008B800007AD5ED009A67EE807AC8ED007AD7ED18
:1008C800007A67EE807AC7ED007AD6ED007A67EE97
:1008D800807A29EE800AC6ED007A85ED000A0FF0CD
:1008E800F5FAD9ED080A99ED070A8B4D15F098FB32
:1008F80020EE080A15F0F0FA99ED060A2880B1EE04
:10090800400A15F02FFBDFED857A37EEC00A20EE9E
:10091800080A15F0E1FAD9ED000A99ED030A688092
:1009280015F07EFBDBED3D7AE0EE487AB0EE670A23
:1009380015F0D2FABAF90030D9ED085ADBED3E7A53
:1009480099ED010A99ED065A06EE103ABAF9023005
:1009580007EE103AB8EEC77AB8EEC66AF4EEE75A70
:10096800BAF90430D9ED007A27EE000A06EE903A7B
:10097800A7EE860A81B20E04F8EEE66AD9ED027A8D
:1009880058BFA980A7EEA60A48BF00F56160644970
:10099800D9ED077A049B48BFA88067EE277A0878C4
:1009A8005A78E5EE067AF1EE10FAE5EEA67ACCBFB3
:1009B80040F0080020F00800D9ED045A087027EE2E
:1009C800257AD9ED035AA5EE867A012A99ED056AAA
:1009D800A6EE267AF1EE479A1AD1227854070FD458
:1009E800DBF8FC20402192FBF1F1531A07EE103A94
:1009F800B8EEC77A37EE277ABDEEC77A8BED3F7A25
:100A0800DBF8FC20402192FBF1F207EE102A03E00C
:100A1800444A138807EE103AB8EEC77A9BED408A2D
:100A2800414C77EEC77A9BED417A38EE877A77EEBC
:100A3800C87AC8EE878AA8EEA78A8BED408A15F097
:100A48004BFADBF80851297807F0B8F82368B0EEBC
:100A5800690A1844206015F03FFA297807F0AEF8C3
:100A68006368B0EE480A1844606015F035FA697892
:100A780007F0A4F8A3682D4A184419EE101A136851
:100A8800A060194411602A4A13680133136003E017
:100A9800002333807380B380264BB3F90610264BAE
:100AA800D3F800E0BEF80A2091420FDBB1F5FA6FE7
:100AB8009EF80750BDBF8B1A6B43A2F5FA65C5F1C6
:100AC8006405BCBF93FBF5F5643500E064251B4B5A
:100AD8001B4AB3F894C193F95E31126804929BB231
:100AE800164605930022134B33F91280CCEB08030A
:100AF80003F2F31440F2E63084424FEA420923D865
:100B0800002BB8BF5B4221E0AC270020A8270020BB
:100B1800B02700204C3D0F446C140020DB0FC93F68
:100B28008814002006000020CC220020C8340020B1
:100B3800C82200208C280020841400204829002086
:100B480050140020800000204FF4FA73022A049CFD
:100B58004FF064002AD094F81D411CB1A342CCBFC9
:100B68001B1B0023BA4C93FBF0F76FF0630B34F8B0
:100B780017A00BFB073B013734F917400FFA8AF728
:100B8800E41BB44F04FB0BF494FBF0F4544427F833
:100B980009400EEB020424796343AF4C93FBF4F352
:100BA80064339BB26B4393FBF0F02CE094F81E4146
:100BB8001CB1A342CCBF1B1B0023A84C93FBF0F035
:100BC8006FF0630A0AFB003B04EB400704EB4000AC
:100BD800B7F90C71B0F90E01C01B00FB0BFBBDF897
:100BE80014009BFBFAFBC7EB0B0717FB00F79948B0
:100BF80087809EF80600002BB8BF5B4243439648A7
:100C080093FBF0F064307478954B6427444394FB6D
:100C1800F7F49C5403F1030AF47A444394FBF7F481
:100C28000AF802400633747D022A00FB04F0894C5E
:100C380090FBF7F098548B4B0DD1E0459F700DDB7E
:100C4800894EB6F89621914214DBB1F5FA6FA8BF28
:100C58004FF4FA610FE0E0459D5404DA34F80930A6
:100C68005B4224F809300132032A06F101067FF4B9
:100C78003AAFE5E71146DFF834E2764D891A4FF4CA
:100C88007A736FF063005943C2F5FA626423B1FBCB
:100C9800F2F191FBF3F23EF8127000FB02110132FF
:100CA80038B23EF91220121A514391FBF3F33B4438
:100CB800E3806E4B1B88580639D56D4BDFED6D7A96
:100CC800B3F904300A2293FBF2F36B4A12889B1A99
:100CD8001BB208EE103AB8EEC88A28EE278AB0EEA2
:100CE800480A06F0DBFFF0EE408AB0EE480A06F04C
:100CF80074FFB5F9023006EE903AB5F90030F8EE17
:100D0800E66A07EE903A20EE667AF8EEE77AA7EE02
:100D1800A87A67EE807ABDEEC77AE6EEA87A17EE73
:100D2800103AFDEEE77A2B8017EE903A6B8096F832
:100D38009A31002B55D0494BB3F824019B89B0FB5D
:100D4800F3F0464B451CADB2A3F826514B4B1B782C
:100D58001BB3424BB3F828910023404F34F813C01B
:100D680007F5997E07F595783EF8132038F81310A3
:100D78002EF813C0C2EB0C0A11FB09F12AB291FB41
:100D8800F2F2524428F813200133042BE5D13B4BEF
:100D9800A7F8280100221A7006E0304B2F4AB3F852
:100DA8002831013BA2F828312C4AB2F8280103B2B5
:100DB800002B4FF0000312DDB2F92651304931F80B
:100DC8001320083112FB00F231F8131092FBF5F2F0
:100DD8008A1A24F813200133042BEFD101E0A2F87A
:100DE8002831284A284D137813F0040F03D0274BD5
:100DF80010221A856AE026490968C9075CBF43F0D2
:100E080001031370234B24491B781F075EBF137817
:100E180023F0010313702B6813F0040F02D01F484E
:100E2800008870B91E48008808B1980709D41D4B7E
:100E38001B88003318BF01231BB91B48008864288E
:100E480036D902230B70137823F00103137034E0B2
:100E58005A230020042500200CFEFFFF98090020DB
:100E6800B20A00200C250020482900200814002080
:100E78006C14002035FA8E3C9211002020120020BC
:100E8800C20A0020EC3400200414002000040048AA
:100E98000C140020881400208C340020E634002034
:100EA8004C110020E43400200428002042230020B4
:100EB8001278D20758BF02230B700DF0D3FBB14B49
:100EC8001B68C01A002801DB11F086FCAE4B9B683A
:100ED8000BB1AE489847AE4BDFF810B301221A7039
:100EE8002A6812F0080F3BD0A188AA4801F10E0326
:100EF8009BB21C2BA84BB3F904302DD8A74F3F88C1
:100F08007F0729D500880A2793FBF7F31B1A9BB2A2
:100F18009FB238B2B330BCBF03F5B4739FB23BB2D3
:100F2800B32BC4BFA7F5B4739FB29D4B96F85E016F
:100F38001B781B0714D540B2404217FB00F3DBF8BF
:100F48000000407A9BB213FB00F36FF01D0093FB87
:100F5800F0F31944A18003E00A2193FBF1F3038025
:100F680012F0140F8F4F6DD08C4B1B8803F4027353
:100F7800002B67D08A4B1B7803F0100303F0FF0E99
:100F88004BB1894B96F9EC21B3F90010638801FB4A
:100F98000233638056E0D7F83C21844BD1788448EB
:100FA8009278B0F90000B3F9063001B3191A002994
:100FB800B8BF4942914210DD7E498342C1F800E042
:100FC8004FF00101C8BF534287F84011E188CCBFF8
:100FD8009BB293B20B44E38034E097F840311BB3E3
:100FE800754B87F840E11A68744B1A601CE01B1AAD
:100FF80083EAE37EAEEBE37E96450ADD022293FBAD
:10100800F2F36F4A13606F4A0123137087F8403177
:101018000AE097F840313BB1674B87F840111A68EE
:10102800664B1A60674B19705F4BD7F844111B6801
:101038000A8849880344934203DB8B42A8BF0B46C6
:101048001A46E280604B1B78ABB1584BB3F90620C7
:10105800B6F896319A420EDC5C4B5B79012B01D0D5
:10106800192B02D196F8E6212AB90E2B03D0082BAA
:101078001CBF0023A380DBF8003093F82481B8F16B
:10108800000F33D0454B1B889B072FD0504BDFED0B
:10109800517A93ED080AB4EEE70AF1EE10FA21D975
:1010A80014F060FF3F4BD3ED527A20EE270A14F07C
:1010B80013FFB0F5617FA8BF4FF4617007EE900A87
:1010C800B8EEE70ADFED447A80EE270A06F085FDE0
:1010D80007EE908AF8EEE77A27EE800A14F0FCFE15
:1010E80080B200E00020E3881844E0802B6898066E
:1010F80040F1DA80294B1B8803F03003002B00F005
:10110800D380274B1B78D90740F1CE80224BDFEDE7
:10111800337AB3F904300A2293FBF2F308EE103A5B
:10112800B8EEC88A28EE278AB0EE480A06F055FDC0
:10113800F0EE408AB0EE480A06F0B0FD284B294987
:101148001B68294A93F803A0B0EE409AB2EE048ACD
:10115800BAF1000F00F08680DFF89490B1F9020030
:10116800B9F8025005922BB2C01A049108F090F811
:10117800CAF1000398420499059A3BDB5045A8BF81
:10118800504638E09034002018260020D20A00206B
:1011980021120020901100206C1400200814002057
:1011A8008814002098090020F02200208C280020B4
:1011B80022120020EC22002074140020B014002019
:1011C800CC340020F422002002000020482900200E
:1011D800B42700208FC2753CEFB6B04435FA8E3C78
:1011E800981100201C120020E83400205014002020
:1011F80018120020184600EB0508B9F80050B1F99C
:101208000000059229B21FFA88F8401A0493A9F839
:10121800028008F03DF8049B059A984203DB50458C
:101228000346A8BF53461D44ADB2A9F800502DB2DD
:1012380007EE105A0FFA88F8B8EEC70A07EE908A38
:1012480028EEC07AF8EEE77A20EE090AA7EE897A46
:10125800A7EEA80A87EE087ABDEEC77A17EE103A0D
:1012680013801AE0B1F9023007EE103AB1F90030F4
:1012780000EE103AB8EEC00AB8EEC77A68EEC07A47
:1012880020EE090AE7EE097AA7EE280AC7EE887A5F
:10129800FDEEE77A17EE903A138080EE080AFDEE2D
:1012A800C07A17EE903A5380B64B1B784BB1B64BC9
:1012B80000221A605A609A60B44B00221A605A6081
:1012C8009A60B34BDBF80000B6F86A210093B14B83
:1012D8001D68B14B196800F16403A847AF4B187833
:1012E800AF4B032818D9D7F84C21B2F802E0BEF565
:1012F800FA7F11D2B4F90450B3F904C0002DB8BF75
:101308006D42CEF100014A1B944504DB0EEB050249
:101318006245A8BF62469A80A24A126812010CD59B
:101328000021D7F84C91B3F802C0B3F80080B3F9A4
:1013380004A09D4D0A460F467FE09C4A126812F4AD
:101348008052EDD19A49E5880A70B3F802E0B3F803
:1013580000C0D7F84C71B3F904809649824201F174
:10136800100180F0DB8097F9003051ED045ADFF866
:1013780054925B4208FB03F307EE903A0FFA8CF3A2
:1013880006EE903A2BB206EE103A0FFA8EF3B8EE4C
:10139800E77A07EE903AF8EEE77AB8EEC66A67EEB3
:1013A800A57A51ED065AE6EE257AF8EEE66A11EDD1
:1013B800056AE6EE867A51ED036AE7EE267AFDEED7
:1013C800E77A17EE903A29F812300132C6E799F910
:1013D800003095ED016A5B420AFB03F307EE903A91
:1013E8000FFA8CF306EE903A0FFA88F3B8EEE77A24
:1013F80007EE903AF8EEE77AF8EEE66A67EE867A54
:1014080095ED026AE6EE867A0DF1240E0FFA82FB5C
:10141800D5ED036AE7EE267AFDEEE77ACDED047A9C
:10142800BDF810302EF817300FFA83FEDE4507DDC1
:101438001A460B460137103519468742C7D305E0CF
:101448000FFA81FBDE45F5DB1346F1E75A4B584DA1
:101458001B685F88B3F800E0521ACEEB070189B227
:101468000BB212B29A424FF0000315DD4FF0010C97
:1014780085F800C083420BD20DF1240C3CF81350C0
:1014880015FB01F595FBF2F52CF813500133F1E744
:101498001FFA8EF5BAB208E02B70022192FBF1F226
:1014A8000EEB0203BA1A9DB292B2E788002181427C
:1014B80034D209AB33F9113007EE903A3BB206EE5D
:1014C800903A394B03EB0113B8EEE77AF8EEE66A87
:1014D800D3ED007A2BB266EEA76A07EE903AF8EEE3
:1014E800E77AF4EEE76AF1EE10FA0BD413B207EEDE
:1014F800903AF8EEE77AF4EEE76AF1EE10FAD8BF20
:10150800F0EE667A77EE277ADFF8B8E0FDEEE77A54
:1015180017EE903A2EF811300131C8E7274BDFF863
:101528007CE01A7802F0040202F0FF0312B99EF878
:101538000020A0E0224B1D49DB780593194B186861
:1015480010F0006304933FD10B68DD0418D41D4AE2
:101558009EF8007013880125BD420FFA83FC07D25C
:1015680032F915306345B8BF63469BB20135F3E7DE
:10157800114A12685288944526DD9A1A92B224E0DC
:10158800049A22E0040000202C250020F4250020E5
:10159800CE2A0020E8030020841400205C260020C6
:1015A800682500200C140020E80A00208C31002057
:1015B800F3340020F00A00202C270020EC3400200F
:1015C800683400205414002000220B68AD499EF8AE
:1015D80000B0B1F90650AC49D1F810C2AB4903F4D8
:1015E80080590F68AA4903F010030693A94B0968AC
:1015F80003EB4B0B5B4535D0049850B9B9F1000F9C
:1016080040F06884B3F800E0C2EB0E0EA3F800E0E7
:1016180003E0B9F1000F40F068840598B1F8028042
:10162800B3F900A040B1B1F804E0F24516DBC245B9
:10163800D646A8BFC64611E0B1F800E0F24503DB84
:10164800C245D646A8BFC646A3F800E0BCF810E0DD
:10165800754505DA069818B1B1F804E0A3F800E07A
:101668000233C7E7884890F81432013BDBB2182BE5
:1016780000F2448109E09342F4D2874931F813001B
:10168800844921F813000133F5E701229A40834B7E
:101698001340002B00F03281814B7A491B8813F4E8
:1016A800807F07D02388ADF824306388ADF82630D2
:1016B800A38815E07B4B1A88ADF824205A88ADF82A
:1016C8002620794A9B881268ADF82830D40409D5B9
:1016D800D0F81022B1F90640D289944202DA5B426E
:1016E800ADF82830714CB4F902304FF47A7203F532
:1016F800E16353434FF4616093FBF0F3A3F5FA738E
:10170800ADF83C30B4F9003003F5E1635A43614B5E
:1017180092FBF0F21B88A3F2DC53ADF82A305A4B47
:10172800A2F5FA72D3F81032ADF83E20DB890A88A8
:10173800D21AADF82C204A88D21AADF82E208A8801
:10174800D21AADF83020CA88D21AADF832200A89E8
:10175800D21AADF834204A89D21AADF836208A89CF
:10176800D21AADF83820CA89D31AADF83A30002316
:101778004F4A002122F813100133082BF8D14D4AA3
:101788004D4B126804924D4A1B7812684C490592D9
:101798004C4D072202FB031B594500F095800B783E
:1017A80033B103F1150201239340049A134065D025
:1017B80011F806CC059B11F805AC11F8034C11F88B
:1017C800018CCCEBCC0E03EB4E0E6420BEF900204E
:1017D800BEF902309B1A9BB211F9022C4FEA530949
:1017E8005A434FEA4A0792FBF0F210A8C9EB0202EB
:1017F80092B2074414B937F81C0C0CE0B5F9000094
:1018080037F91C7CB84208DA0444844203DBA74257
:101818003846A8BF2046288008E007DD041BBC42E4
:1018280003DB8442A8BF044627462F80DEF80A401F
:1018380011F9047C012000FA0AF02042288812B22B
:1018480017FB00F014BF4FF0FF340124642790FB0E
:10185800F7F090420ADB4FFA88F25A4392FBF7F20C
:10186800C9EB020212B28242A8BF0246104B33F8FB
:101878001C9002FB049423F81C4000E02B800235E6
:10188800073189E78C2800209809002028270020A4
:101898002C27002054140020DE27002099209801CE
:1018A80008140020682500208C3100206C140020CA
:1018B800401400200C14002030270020481A002073
:1018C80037270020AE0B0020964B974FD3F80080A7
:1018D80000250E2202FB058237F8023F92F90640E6
:1018E800E8B214FB03F3642493FBF4F43C800EF099
:1018F800D3FA01352044082D3880EAD18B4B8C4D22
:101908001A68884F12F0200F984632D000200EF047
:10191800C3FA2880044601200EF0BEFA854B688081
:101928001B68190625D5844B844AD3F838321B78AE
:10193800012B22D13968138891F914E0B2F90220F9
:101948001EFB03F34FF0320C93FBFCF31FFA83FEEC
:1019580091F906305B4253436FF0310193FBF1F18B
:101968000EEB0102A11893FBFCF373442980184481
:101978006880D7F800E0002318E0D7F800E0538823
:101988009EF9061011FB03F1322391FBF3F1214478
:10199800298011889EF9142012FB01F292FBF3F2C0
:1019A8001044E5E70133082B2A5311D00E2101FB1F
:1019B80003E135F91300B1F90020B1F902109042A2
:1019C8004FEA4304EEDB0AB28242A8BF0246E9E7C7
:1019D800594CD4F84CA19AF90830A3B994F8149248
:1019E80009F1FF33182B72D8DFE803F03571714F16
:1019F8007171714871717171715971717171714F32
:101A0800657171593500DFF820B14FF000094C4B72
:101A18003BF9021FBAF90620882000FB09300DF0B7
:101A280039F83A680E2380B203FB0922ABF80000AC
:101A3800B2F90030B2F9022000B2984203DB13B2C7
:101A48008342A8BF034609F10109B9F1080FABF8B1
:101A58000030DCD1C2E79AF8043013B1002069895C
:101A680008E0384B1B7803F0040303F0FF00002B59
:101A7800F4D1014602F01AFF012729E00020E98885
:101A880002F014FF0120298905E00020298902F0CD
:101A98000DFF6989012002F009FF022718E00227DB
:101AA800B81E35F81710C0B2013702F0FFFE082F34
:101AB800F6D106270CE00327F81E35F81710C0B238
:101AC800013702F0F3FE072FF6D1042700E00027C4
:101AD800D8F800309A0602D4B9F1050F0AD1384671
:101AE800298802F0E3FE781CC0B2698802F0DEFEA5
:101AF8000237FFB2D8F80030DB0205D494F88036FC
:101B080023B30EF00FF921E0DFF83C900025781997
:101B1800C0B239F8021F02F0C9FE0D2DEED0013512
:101B2800F5E700BF481A00203E1400208C31002041
:101B3800401400200C140020980900206C14002088
:101B4800D80B0020EC34002092280020B04B1878E5
:101B5800002840F0E981D8F800301D0340F1E48105
:101B680094F88136023B052B19D8AA4B93F8F8371D
:101B78002BB9A94BD3F8840603689B689847D4F817
:101B8800883694F88C261344B3F5807FA8BF4FF4A9
:101B980080738342D4BFC4F88836C4F8880694F8A2
:101BA8008136023B082B00F2BF81DFE813F0090001
:101BB8003F00620078009100A30013016B017801D7
:101BC800964B1A68D4F8943664339A4240F2AC8142
:101BD80040200FF0CBFC002840F0A6814027904B16
:101BE800D4F890268C4E985C1D4670B10FF026FDF7
:101BF800D6F88836013BC6F88836D6F89036013FC5
:101C080003F10103C6F89036E9D1D4F89026824B47
:101C1800AA5C002A40F08881C3F890264FF0FF3272
:101C2800C3F89426032283F881267DE129230093B3
:101C38007C4B019303F10C0202924920A3F10A02A2
:101C48005021023308F078F9002840F06D81D8F867
:101C5800003013F080034FF0FF3205D0C4F890062F
:101C6800C4F89426042324E1C4F89036C4F89426D2
:101C78002CE06D4A02230021009301910291482033
:101C880002F1080308F058F9002840F04D814FF0A0
:101C9800FF33C4F89436C4F89006052309E10723F6
:101CA8000093624B019303F10C0202924720A3F1C7
:101CB80008020021043308F03FF9002840F034817D
:101CC8004FF0FF33C4F89006C4F894360623F0E0CA
:101CD800574A05230021009301910291532002F1F4
:101CE800080308F029F9002840F01E81C4F890067E
:101CF8000723DEE040200FF039FC002840F0148173
:101D0800D4F890360C2B00F2DC80DFE803F0070BE8
:101D18000E121823282D3135434D510045480FF038
:101D280045FD51E04448454911E045484549464A82
:101D380048E0464896F8F61796F8F72742E096F8EE
:101D4800D03743480C2202FB036696F8D2170FF0EF
:101D58002DFD39E02F4B3F48B3F84011F7E72D4BE5
:101D68003D48B3F84211F2E73C4B3D481969EEE7AC
:101D78003C4B3D481988EAE7D4F89836D80404D58E
:101D8800244B3A4893F87811E1E7234B0B22C3F828
:101D9800902619E0364896F87C1196F87D2196F839
:101DA8007B310FF003FD0FE03248B4F89C16CEE704
:101DB800D8F80030190507D5164B2F48B3F880110D
:101DC800B3F97E210FF0F2FCD4F890360133C4F851
:101DD8009036A9E0294B1B689A0116D5B4F8A036AD
:101DE8000D4D93B9D5F8A4360993254B0E201B68E1
:101DF8000A9309A907F0AAFD4FF48053A5F89E3667
:101E0800092385F8813607F0FBFD07F081FD8BE09B
:101E1800EE3400204829002098090020643400206E
:101E28002C730108967301087875010890750108EC
:101E3800DC750108049901081E9901083399010805
:101E48003B9901084F9901085B99010864990108B9
:101E5800759901087F9901088E99010818260020B4
:101E68009D99010806000020AD990108B79901085D
:101E7800C4990108DD990108E89901080C140020AB
:101E8800B022002094F8A836002BBCD0294B1B6840
:101E98009B01B8D4284B082283F88126B5E7274B45
:101EA8001A68D4F89436C8339A4205D90FF07CFBE7
:101EB800012384F8813637E00FF090FB0028F5D134
:101EC80032E00FF08BFB78B34FF48053A4F89E36C2
:101ED8000923EEE7BCF80E80B7F806E0CEEB080A57
:101EE800554502DDC644754516DBBCF80EE0B3F96E
:101EF80000807545CBBFB7F802E0B1F804E0B1F84F
:101F080002A0B7F800A0F045FFF6A8ABD045C6463A
:101F1800A8BFD646FFF7A2BB4545CCBFB7F802E03D
:101F2800B7F800E0FFF79ABB11B0BDEC0E8BBDE827
:101F3800F08F00BF0C1400209809002064340020A2
:101F48002DE9F04FA34FA44C3A6802F59C432DEDC0
:101F5800028B20332360A14B1E7887B0D6B1A049ED
:101F680009688A4240F20881013E1E7004E1DFF8E8
:101F780090829C48D8F80030072D98BF595D9A4B3D
:101F880088BF29461B689847032D09D904EB4505E6
:101F98000136A88010F0B6FBF5B28542E7D320E001
:101FA800D8F8002005F10E0302EB8303D9881A89BB
:101FB8000028EBD04FF47A73401A5843531A90FB19
:101FC800F3F040F6C90300F57A70984205DC40F258
:101FD800EE239842B8BF184601E040F6CA0080B226
:101FE800D4E7824B824E1B68D6F8008042F2010A81
:101FF80003EA0A0ABAFA8AFA4FEA5A1A7D4BBAF180
:10200800000F05D194F828201A707B4A5178117076
:102018001B782BB1784B93F8009089F0010900E008
:1020280099460F23DFF8F0B184F82930002510F025
:1020380069FB854267DA6B00B9F1000F03D06F4A7C
:1020480032F8150000E048466D4ADFF8D0C1116843
:10205800CA8A82424FEA850E6A4A02D8098B8142AF
:102068001CD25CF80E005C49804501D2D05A19E0B8
:10207800E8B202928DE80A0010F05AFB032D019B8A
:10208800029A0FDC00994FF0010E91F829C00EFA60
:1020980005FE2CEA0E0E81F829E003E008F596719A
:1020A8004CF80E10BAF1000F28D194F8BC10032296
:1020B800B1FBF2F202EB42028A1A03EB050E5EFA5A
:1020C80082F204EB4202508594F8BD202AB9022915
:1020D80013D9414A012182F8BD10BBF800203BF812
:1020E800020C1044BBF802201044474A80B2D05278
:1020F80000B2032290FBF2F080B2424AD05201357E
:102108000BF1060B93E794F82920404BA2F10F013D
:102118004A424A4184F8D6206AB13D4A12685201BF
:1021280009D43268D9689A60521AC82A1FD901227C
:1021380083F821201BE0304A012151701170326868
:102148009968DA605B68521A9A4282BF2F4B002264
:1021580083F82120002510F0D5FA854207DAE8B285
:1021680010F0E6FA274B23F815000135F3E794F849
:10217800BC30013384F8BC301C4B1A6812F4805F01
:10218800984605D0224B1B68DE0701D410F06EF884
:102198001B4B39681868837A002B41D0013B194DD5
:1021A800027B35F813301AB1C3F53B6308339BB291
:1021B8001BB2A3F57A73B3F57A7FA8BF4FF47A738D
:1021C80023EAE37307EE903A9FED127AF8EEE77A86
:1021D8005FE000BFB02200204410002060340020DF
:1021E8005C34002050310020980300208C310020FE
:1021F8006434002048180020000000204810002007
:10220800583400208C280020021100206834002057
:102218000C14002000007A4470100020B810002030
:10222800D8F80020150440D5D4F8D820934E8A1A3F
:10223800002A3ADB01F59C422032C6F8D820904AA1
:10224800C07A55798F4A32F8152096F8DC50013556
:1022580092B292FBF0F205F00F0086F8DC003044F1
:1022680080F8DD201A468848185C01330244102B98
:1022780092B2F8D112B292FBF3F31BB2642BA8BF4F
:10228800642323EAE37307EE903A9FED807AF8EE31
:10229800E77AC7EE877A7E4A9FED7E7A67EE877A7D
:1022A800FCEEE77A17EE903A1380D8F800307A4DB2
:1022B80013F4807F00F00981784BDFF8E4919942AC
:1022C80005D999F8022012B9012289F8022099F853
:1022D8000220002A00F0F980714A2F7892F82160D4
:1022E800721E564256416F4A1168002EC1F3806330
:1022F800C7F380070093924614BF4FF0000B4FF0CE
:10230800030B99F82020052A00F2D980DFE802F0B3
:10231800034D527584A1002F3AD0D4F8F000B4F8D8
:10232800F4100CF05AF9012809D15F495F4A09688D
:102338001268C988642000FB0122C9F81020009B9C
:102348006BB1594A126812794AB10DF01FFE032287
:1023580089F820204FF47A72C9F81C20D1E7002EA2
:1023680040F0AD80514AD9F8101010684C4A8842A4
:102378000AD901920DF00AFE019A032182F8201071
:1023880040F6B831D161BCE7012182F82010B8E7E6
:10239800009B4FF4806013B105F098FC01E005F054
:1023A80085FC0022C9F8102089E0002E46D10DF0E6
:1023B800EDFDA6E726B1052289F82020012000E0DE
:1023C800304667B1D4F8F020D189394A118051805C
:1023D8009180354909684988D1804FF0020B334A0A
:1023E8001168D9F81420914201D8002F64D147F21E
:1023F8003052C9F81C20032221E02A7842F0020258
:102408002A700FF033FF294AD9F81C1012680A44C1
:10241800C9F81820042212E0244A9EB11168D9F89C
:10242800182091424BD9234A92781AB9DAF8002039
:10243800D30744D42A7822F002022A70052289F8A8
:1024480020205EE71268D9F81C100A44C9F8182041
:1024580035E01549154A09681268C988642000FBE7
:102468000122C9F810204FF48060002289F820204A
:1024780089F8032005F01AFC43E700BF4410002048
:10248800F416002004170020211100200000C84283
:102498007C14002000C07F44EC340020404B4C00EA
:1024A800683400200C140020D82700206434002051
:1024B8008C2800200000002000287FF422AFBBF108
:1024C800000F02D058460CF031FAA64EA64FB6F8C7
:1024D8004E1106F5C3700CF080F8824630BBA34B52
:1024E8001B6813F0006908D0FB7833B90FF0C4FCFF
:1024F8009F4B012818BF002018702B78580708D563
:10250800D8F80030D90604D4B9F1000F01D0FB780F
:102518005BB3984B1B6803F57A730122C4F8F83053
:10252800934B3A71FA7000221A701EE0D8F8003006
:10253800DA0615D42B785B0712D58C4B1B6818016B
:102548000ED5FB7863B18B4B1A68D4F8F8309A42F1
:1025580009D90FF091FC30B9854BF870187002E07A
:10256800834B00221A7000233B712B78590735D50D
:10257800D8F80030DA0631D57F4B1B78DB062DD42E
:10258800BB7893B196F8E031BAF1000F15D17BB161
:10259800784B1A68D4F8FC309B1A002B08DA0FF035
:1025A80065FE764B83F800A118E0BAF1000F0DD153
:1025B80010200CF0BBF901230EE03BB16D4A126804
:1025C8004FF47A7101FB0323C4F8FC3094F800310E
:1025D80023B10CF093F9002384F80031002296F817
:1025E800DEB196F8DF11B6F896E1B6F898C1134651
:1025F800DFF8A091CDF8009039F912009B087045DA
:10260800C4BF63F07F03DBB201326045B8BF43F05B
:102618004003042AECD194F8012158489A4205D184
:1026280090F80221F92A04D8013200E0002280F84B
:10263800022184F80131BB78504ADFF8309133BB6E
:10264800D9F80000C0070AD582F80331BAF1000FA3
:102658001DD12B78DB071AD50FF04EFC17E02B782D
:10266800580714D5464B1B788BB1464BDB7873B9AA
:1026780092F803310133DBB2032B82F8033106D918
:1026880011B10FF0F3FD02E0BAF1000FF9D094F8A0
:1026980002313A4ADFF800A1142B40F0A680BB783B
:1026A8001BF1000B18BF4FF0010B6BB392F801310F
:1026B8005F2B11D12B7803F0040303F0FF0113B152
:1026C8000FF0D4FD08E00B20029101920CF02EF9D6
:1026D800019A029982F80211BBF1000F14D094F804
:1026E80001317D2B10D12B7803F0040303F0FF0296
:1026F80013B10FF0BBFD07E00B2001920CF016F9A7
:102708001E4B019A83F802212B7803F0040303F08F
:10271800FF01002B69D194F80131184A572B11D1C8
:10272800194B4FF47A721A80D8F800301B0601D57D
:1027380006F06CFE154B1B685F0756D5144B0A2232
:102748001A8052E0D8F80000400734D55A2B32D10D
:1027580092F8043113B3012382F8041182F8053189
:1027680043E000BF48290020000000200C1400208E
:10277800F434002064340020881400204410002021
:102788004818002068340020E43400200414002095
:10279800E63400208C2800205014002092F80631DE
:1027A80083F0010382F806310BB10C2000E00D2004
:1027B8000CF0BCF819E05D2B00F03D855B2B00F0B8
:1027C8003C855E2B02D1032000F038BD562B01D189
:1027D80005F05CFDBB78002B00F0438594F80131CF
:1027E8006F2B40F038850FF087FBD8F800305F0773
:1027F80038D594F80631BA4A9BB12B78580710D5CA
:10280800009BB3F90610B6F89631994209DDD9F85C
:10281800003013F0010302BF3221A2F80A1182F836
:102828000631D9F80030D9030DD594F80C21AC4BFA
:102838002AB993F8042112B93222A3F80A210123F4
:1028480084F80C310EE094F80431A54A53B12B7882
:1028580003F0040303F0FF0123B9012382F80411F4
:1028680082F80531DAF800A00023C9F800300AF12F
:1028780087070AF1D70B3A787B7817F8010C9A4248
:102888000DD239460BF05EFE48B117F8022C012331
:1028980003FA02F2D9F800301343C9F800300437BC
:1028A8005F45E8D18F4B1B785BB18F4BDFF854B293
:1028B8001A68DFF854A212F0020F994640F03C83E0
:1028C80033E30AF1D6070AF58F793A787B7817F857
:1028D800010C9A4225D239460BF034FE08B3BB7876
:1028E80097F804C0814A97F803A07D480C21013B62
:1028F80001FB0C4103EB43031344D1F814219A4222
:102908000FD0C1F81431002390F84021C1F81831D4
:10291800012303FA0CF322EA030381F810A180F8DB
:10292800403106374F45D0D1714B1F68714B1B683A
:102938000293714B1B780393704B01930023009310
:10294800019B1B68002B00F0E58293F800A0BAF108
:10295800000F00F0DF82019A029952688A1A002A51
:102968000CDB01F5FA7201994A60009901228A404C
:1029780094F8401121EA020284F84021039A002ABF
:1029880000F0C882019A597812F8042C0432D2B2A5
:10299800002940F07E825A4931F91210B6F8942184
:1029A80002F1C800814202DD93F802B015E0C83A8E
:1029B800914203DA9978C1F1000B0EE0009A0123E5
:1029C800934094F8402122EA030384F84031029BA3
:1029D800019A03F5FA7353609CE2009A94F8403127
:1029E8001341DA0700F19682BBF1000FCCBF022039
:1029F80001200BF0D5FF0AF1FF33DFF8E490132B29
:102A080000F28082DFE813F01400250037004B0045
:102A180064008800EB004E01B501E30113027E0259
:102A28004B005A008800EB004E01BD0020018501D3
:102A380097F80090D944B9F1FA0FA8BF4FF0FA09F6
:102A480029EAE979384687F800900BF061FD012002
:102A58000FE097F80190D944B9F1640FA8BF4FF07F
:102A6800640929EAE979384687F801900BF050FDA6
:102A780002204946D8E197F803A0DA44BAF1640F76
:102A8800A8BF4FF0640A2AEAEA7A87F803A0384612
:102A9800D9F844110BF0F2FC03205146C4E17979CE
:102AA80059446429A8BF642121EAE17179710D2094
:102AB8000BF0C4FDBAF10D0F00F0248239795944A6
:102AC8006429A8BF642121EAE17139710E20ABE1C4
:102AD800B979594481F30801B9710520A4E100BF0F
:102AE80044100020EE3400200C1400200476010865
:102AF8008414002064340020481800205811002055
:102B08008C280020041400200814002000007A44B7
:102B18000000C84200000000D9F848311A78022A9B
:102B280020D107EE90BAB8EEE70A5FED077A93ED89
:102B3800097A80EE270A30EE070AB5EEC00AF1EEF0
:102B480010FA07D4B4EE670AF1EE10FAC8BFB0EE77
:102B5800670A01E01FED110A83ED090A0F200BF047
:102B680057FD0AE099785944C829A8BFC82121EA25
:102B7800E17199700F200BF061FDBAF10F0F00F0B1
:102B8800C181D9F848311A78022A1ED107EE90BAC5
:102B9800B8EEE78A5FED227A93ED080A88EE278A75
:102BA80038EE000AB5EEC00AF1EE10FA07D4B4EE1A
:102BB800670AF1EE10FAC8BFB0EE670A01E01FED30
:102BC8002B0A83ED080A122056E159785944C8297E
:102BD800A8BFC82121EAE1715970122024E1D9F86F
:102BE80048311A78022A20D107EE90BAB8EEE70ADF
:102BF8005FED397A93ED0C7A80EE270A30EE070AFA
:102C0800B5EEC00AF1EE10FA07D4B4EE670AF1EE99
:102C180010FAC8BFB0EE670A01E01FED420A83ED63
:102C28000C0A10200BF0F4FC0AE0197B5944C8295F
:102C3800A8BFC82121EAE171197310200BF0FEFC2E
:102C4800BAF1100F00F05E81D9F848311A78022ADB
:102C58001ED107EE90BAB8EEE78A5FED537A93ED8E
:102C68000B0A88EE278A38EE000AB5EEC00AF1EEA4
:102C780010FA07D4B4EE670AF1EE10FAC8BFB0EE46
:102C8800670A01E01FED5D0A83ED0B0A1320F3E0EC
:102C9800D97A5944C829A8BFC82121EAE171D97253
:102CA8001320C1E0D9F848311A78022A22D107EE58
:102CB80090BA1FED6A0AF8EEE77A87EE800AD3ED3C
:102CC8000F7A30EE270AB5EEC00AF1EE10FA09D4F1
:102CD8005FED717AB4EE670AF1EE10FAC8BFB0EE94
:102CE800670A01E01FED750A83ED0F0A11200BF04A
:102CF8008FFC0AE0997D5944C829A8BFC82121EA58
:102D0800E171997511200BF099FCBAF1110F00F0DF
:102D1800F980D9F848311A78022A20D107EE90BAFA
:102D28001FED860AB8EEE78A88EE008A93ED0E0A50
:102D380038EE000AB5EEC00AF1EE10FA09D45FEDDC
:102D48008C7AB4EE670AF1EE10FAC8BFB0EE670AE3
:102D580001E01FED900A83ED0E0A14208CE0597DE6
:102D68005944C829A8BFC82121EAE171597514201E
:102D78005AE0D9F848311A78022A1ED107EE90BADB
:102D8800B8EEE78A5FED9E7A93ED0A0A88EE278A05
:102D980038EE000AB5EEC00AF1EE10FA07D4B4EE28
:102DA800670AF1EE10FAC8BFB0EE670A01E01FED3E
:102DB800A70A83ED0A0A09205EE0D9785944C82990
:102DC800A8BFC82121EAE171D97009202CE0D9F8FF
:102DD80048311A78022A1ED107EE90BAB8EEE78A6F
:102DE8005FEDB57A93ED0D0A88EE278A38EE000A72
:102DF800B5EEC00AF1EE10FA07D4B4EE670AF1EEA8
:102E080010FAC8BFB0EE670A01E01FEDBE0A83EDF5
:102E18000D0A0A2030E0597B5944C829A8BFC821A7
:102E280021EAE17159730A200BF008FC6AE0D9F82D
:102E380048311A78022A22D107EE90BA1FEDCD0A3E
:102E4800B8EEE78A88EE008A93ED100A38EE000A99
:102E5800B5EEC00AF1EE10FA09D45FEDD37AB4EEFC
:102E6800670AF1EE10FAC8BFB0EE670A01E01FED7D
:102E7800D70A83ED100A0B200BF0CAFB42E0D97D7C
:102E88005944C829A8BFC82121EAE171D9750B2086
:102E9800CAE7012936D19878B64B33F91230B3F521
:102EA800617F05DB40F633029342A8BF134601E079
:102EB8004FF46173BAF10C0F24D14FF4966292FB70
:102EC800F0F0AD4AA3F5617393FBF0F35FFA83F971
:102ED80013784B4516D0B9F1040F34BF4B46022383
:102EE8001370A64A0AFB036303F2D273136004F05B
:102EF800D1FF504649460BF0A1FB09F10100C0B2D1
:102F08000BF04EFD009A0123934094F8402113439F
:102F180084F84031009B01330093019B0C330193EB
:102F2800009B042B7FF40CADBFE4D8F80030DB0520
:102F38000FD5934BDB7863B1DBF800309F0708D5DA
:102F4800BAF8003013F0010708D1012004F0BEFEE2
:102F580004E0012004F0AAFE012300E00023D9F8D0
:102F6800002050070BD553B1012004F09FFEBAF89A
:102F78000030990706D4022004F0A8FE02E00220DF
:102F880004F094FEBAF800307E4A13F0030F4FF0B5
:102F980020010CBF91611185DBF8002012F00A0FA7
:102FA80030D0D9F80020D2060DD55F070ED4042002
:102FB80004F08CFE744B0A22B3F9043093FBF2F34D
:102FC800A4F84C3102E0042004F070FED9F8003077
:102FD800980607D5BAF80030590606D4402004F000
:102FE80075FE02E0402004F061FED9F800305A0670
:102FF80041BF654BB3F904300A2293FBF2F348BF93
:10300800A4F84E31DBF800309B0609D4D9F800301B
:103018001F0540F197804FF4807004F057FE95E04B
:103028005A4B1B78980755D5594B1B78042B51D907
:10303800D9F8003013F400730FD0BAF80030D9066D
:103048003CD4102004F042FE202004F02FFE51480A
:10305800011D06F02FF902232CE0BAF8007007F0E2
:103068001007BFB23FB11020009304F01FFE009B71
:1030780084F850310127D9F800305A0512D5D4F810
:10308800543145495A89B1F90030002BB8BF5B4229
:10309800934207DAB1F90230002BB8BF5B42934282
:1030A800C0F23281BAF800309B0608D5202004F01F
:1030B800FDFD002384F85031012700E0002794F833
:1030C8005831BBB90E200BF031FC344B012283F888
:1030D80058210FE0BAF8003003F03003002B95D0E8
:1030E800102004F0E3FD202004F0E0FD002384F824
:1030F800503101E0002F89D0294A002002F1280E22
:1031080002F15007274B002123F81010264B51607D
:1031180023F810100433CEF8041023F810100023FD
:1031280013609360CEF80030CEF808303B607960C9
:10313800BB6014320EF1140E143700287FF466AF0A
:103148000120DFE74FF4807004F0B0FD7379082B9D
:1031580001D00E2B02D1402004F0A8FDD8F8003091
:10316800580536D596F8143203BB2B7813F0040FA4
:1031780020E000BF8C280020DC27002084140020D9
:1031880068340020000400486C14002088140020D3
:1031980089140020A01400200425002044100020D9
:1031A800A0110020E834002018120020D9F80030BF
:1031B80013F4002F09D0624B00221A703C200EF045
:1031C80027FE30B10DF028F8F8E707F0ADFE0EF055
:1031D8002EFD012384F8DC3194F8DD31002B00F05A
:1031E800A980DBF80030590740F1A480D9F80030F5
:1031F8001A0707D4082007B0BDEC028BBDE8F04FD2
:1032080004F054BDBAF8004004F00804A4B2002C3D
:1032180040F09080082004F059FD4A4B1A684A4B48
:103228001A604A4BDA884A4BA3F8DE21494B1C60E6
:10323800494B1C607EE0012000E00220C7B27B1EE3
:1032480086F8D03704F08CFD04F048FE38460BF0C1
:10325800A7FBFFF7CABABBF1000F02D07E2B3FF4E1
:10326800C2AA94F80131972B06D1394B4FF4C87292
:10327800A3F80821FFF7B9BAA72B06D1374A137864
:1032880043F004031370FFF7B0BA0022BB2B05927A
:1032980001D1022303E0B72B04D14FF6FE73ADF83A
:1032A800163009E0BE2B01D1022303E0BD2B1AD151
:1032B8004FF6FE73ADF81430DAF80030BDF814108C
:1032C800B3F864200A44A3F86420BDF81610B3F8D4
:1032D80066200A44A3F8662004F0D8FF002384F887
:1032E8000231FFF782BA792B04D11D4AD37823F033
:1032F800010306E07A2B7FF478AA194AD37843F0C1
:103308000103D370FFF771BABAF800309B063FF596
:10331800D6AE202004F0DAFC1248134B011D1A68BF
:103328005B684360026005F0C5FF094B012783F81D
:103338005071C4E607B0BDEC028BBDE8F08F00BF4A
:103348005531002074140020B01400208C2800206F
:1033580044100020EC220020F022002088140020D5
:10336800041A0020A81400208C1400202DE9F04F26
:103378002DED028BAF4E8DB034780096002C00F006
:10338800AB80AD4B1A689846002A01F08E80D8F8B9
:1033980000000BF079FB002801F08780A64BA74CB2
:1033A80018680BF06EFB092801D03F284AD14FF06E
:1033B800000A2668A24D57462EB1A248296832460F
:1033C80012F0C8FB10B9AA4607B92F469E4B103514
:1033D8009D42F1D3C7B1D7F800E0DAF800C02368FE
:1033E8001EF803501CF80300A8420DD15A1C954939
:1033F80038B92D2B05D8914D2A602025CD548854F5
:1034080002E0CD542260EAE723680BB1574510D09B
:103418008E480DF00BF8574507D857F8100B0DF0EC
:1034280005F809200CF0FAFFF5E789480CF0FEFFD3
:10343800002623689E42AAD2824B985D0CF0EEFFCC
:103448000136F6E72368002B40F09C87042840F0FB
:10345800F8877C4807F016F801F027B8DBF8000079
:10346800DFF81C920BF010FB28B3D9F800000BF022
:1034780008FBDAF8003093F84810064600293BD1DB
:10348800242873D1012283F84820DAF80030DFF8C5
:10349800D49193F84820062AE0D193F8490001F026
:1034A80007FD8246002800F089800CF001FF2B6898
:1034B800002283F84820674B1B794BB1385909F033
:1034C8004BFF0CF081FC04F021FC634B634ADA608B
:1034D8004C34982C00F0E987614FE31993F84A209F
:1034E800012AF5D15F4DDFF898812B60E359C8F8C0
:1034F8000030AA46C346B1E7012904D14D2814BFBC
:1035080000220222BFE7022904D13C2814BF00226E
:103518000322B8E703290CD140284FF0000102D953
:1035280083F84810B1E758711971D971987104225C
:10353800A9E7042907D1997983F8490080EA0102AB
:103548009A7105229FE705299FD1587919798842F0
:10355800987906D970409871481C18710B441E72EE
:1035680093E7B0420CBF062200228CE73E4B197845
:103578004A078AD42328D9F8001012D10193009B56
:10358800012018702C4801603248016037480CF05F
:103598004DFF2F480CF04AFF019B197841F00201BA
:1035A8001970334B1B681B78B34201BF314B324A49
:1035B8001A60294B04BF294ADA6066E7D9F8002067
:1035C80092F849304C2B00F0C48476D8332B00F0A5
:1035D800FA8422D8292B00F0868409D8252B00F0FC
:1035E8005B84272B00F05F84232B40F0C78647E2DB
:1035F8002D2B00F08A8408D82B2B40F0BF860CF0C6
:103608002BFE1E4B587100F0B4BE2F2B00F04485E2
:10361800312B00F0548500F0B1BE3E2B00F0E9805C
:1036280038D8372B00F004852CD8352B00F064826D
:1036380000F0A4BEEE34002000280020401A00202C
:103648003C780108101A0020FC790108029B010847
:10365800079B01082412002000ED00E00400FA0591
:10366800B0280020F8270020EC340020379B010800
:1036780058310020FC9F0020EFBEADDE4829002015
:10368800FC270020392B00F01C843C2B00F0BC8068
:1036980000F074BE432B00F0A88406D8412B40F0FC
:1036A8006D864FF0000800F094BC442B00F03C8578
:1036B8004A2B00F05E8600F061BED12B00F0B0838B
:1036C80020D8CC2B00F040820FD8C82B61D004D86A
:1036D8004E2B00F04C8400F051BEC92B00F05A83E9
:1036E800CA2B00F0A88000F049BECE2B00F043831F
:1036F800C0F03783CF2B00F07182D02B00F02583E8
:1037080000F03CBED82B00F031810BD8D32B3AD037
:1037180025D3D42B00F0AA82D62B40F02F864FF069
:10372800000898E2F22B00F0E78210D8EF2B40F067
:103738002586C84ED6F800900CF098FDA9F86600CA
:1037480036680CF093FDA6F8640000F012BEF32B67
:1037580000F0FC84FA2B00F0188300F00FBEBE4B7B
:103768001B7803F0040303F0FF08002B40F00186E8
:103778000CF072FDB94B022883F8D00740F2EC82B6
:1037880083F8D087E8E20CF071FDB54B188000F0A3
:10379800F0BD92F805804FEA5808B8F1120F03D926
:1037A8000EF08AFB00F0E5BD4FF00009C14507D2D5
:1037B8000CF05CFD03AB23F8190009F10109F5E7EA
:1037C80042460023434507DA03A931F81300A54907
:1037D80021F813000133F5E7122A05D0A14B002187
:1037E80023F812100132F7E79F4B01221A7000F0FC
:1037F800C0BD0CF031FD994E86F8E0010CF02CFDAF
:1038080086F8DF0100F0B5BD924ED6F800900CF0B6
:1038180023FD18B10228A8BF022000E0012089F882
:10382800000033681B78022B904B14BF904A914AD2
:103838001A6000F09EBD874B1A681278022A4FF072
:103848000009984673D1D8F800600CF005FD07EE22
:10385800900AF8EE677AB2EE048AC7EE887A06EB29
:10386800890AD8F80060CAED087A0CF0F5FC07EE72
:10387800900A9FED817AF8EE677A06EB890AC7EE1F
:10388800877AD8F80060CAED0B7A0CF0E5FC07EEF1
:10389800900A9FED7A7AF8EE677A06EB890AC7EE06
:1038A800877A09F10109B9F1030FCAED0E7ACAD175
:1038B800B9F1070FD8F800601CD10CF0CDFC07EE69
:1038C800900AF8EE677AC7EE887AC6ED117AD8F8CA
:1038D80000600CF0C1FC07EE900AF8EE677AC7EEBC
:1038E800887AC6ED127AD8F800600CF0B5FC86F834
:1038F8004C0015E00CF0B0FC06EB090A8AF8010050
:10390800D8F800600CF0A8FC06EB090AD8F80060AB
:103918008AF80B000CF0A0FC06EB090A8AF81500DF
:1039280009F10109B9F10A0FC2D100F022BDD8F896
:1039380000600CF091FC06EB090A8AF80100D8F83F
:1039480000600CF089FC06EB090AD8F800608AF8D8
:103958000B000CF081FC06EB090A09F10109B9F129
:103968000A0F8AF81500E2D100F003BD8046394EEF
:103978009FED428AD6F800A00CF078FC07EE900A7A
:10398800F8EE677A0AEB880AC7EE887AB146CAED7C
:10399800087AD6F800A00CF069FC07EE900AF8EE59
:1039A800677A0AEB880AC7EE887ACAED0B7AD6F8E6
:1039B80000A00CF05BFC07EE900AF8EE677A0AEBC1
:1039C800880AC7EE887A08F10108B8F1030FCAED32
:1039D8000E7ACCD1B8F1070FD9F800601CD10CF0E1
:1039E80045FC07EE900AF8EE677AC7EE887AC6EDCE
:1039F800117AD9F800600CF039FC07EE900AF8EE5D
:103A0800677AC7EE887AC6ED127AD9F800600CF0AA
:103A18002DFC86F84C0015E00CF028FC06EB080A93
:103A28008AF80100D9F800600CF020FC06EB080ABF
:103A3800D9F800608AF80B000CF018FC06EB080AAD
:103A48008AF8150008F10108B8F10A0FC2D100F090
:103A580090BC00BF50140020EC34002048290020FE
:103A680090110020C833002035280020E8030020EA
:103A7800A1F50008C9F800080000C84200007A440F
:103A88000CF0EAFB132881463FF68AAEDFF860A304
:103A9800DAF800600CF0E0FB0023D0490C2202FBAE
:103AA8000312117A814223D10FFA89F906EB8908AA
:103AB800137888F885300CF0CFFB88F886000CF076
:103AC800CBFB88F887000CF0C7FBC54BC54A1A60CA
:103AD80088F88800C44BDAF80000186000218530A7
:103AE8000AF06AFDC14B80F00100187000F041BC7B
:103AF80001331D2BD1D153E60CF0AEFB0B288146C8
:103B08003FF64EAEBA4B1E680CF0A6FB03283FF6F4
:103B180047AE062303FB096888F8DA000CF09CFB23
:103B280088F8D5000CF098FB88F8D6000CF094FBC8
:103B380088F8D7000CF090FB88F8D8000CF08CFBC4
:103B480088F8D90000F015BC5379092B7FF628AE08
:103B5800A84ED6F800A00CF07FFB8AF80000D6F833
:103B680000A00CF079FB8AF801000CF075FB3368B3
:103B78006428A8BF642018710CF06EFB33686428B1
:103B8800A8BF642058710CF067FB3368FF28A8BFF2
:103B9800FF2098710CF060FBD6F800A0642828BFBD
:103BA80064208AF807000CF057FB8AF80200D6F860
:103BB80000A00CF051FB8AF80300D6F800A00CF026
:103BC80055FBD9F80030AAF80A005B790A2B40F2B5
:103BD800D08336680CF040FB3072CAE30CF046FB29
:103BE8006FF4AF6E00EB0E039BB2834EC62B98BFEB
:103BF800A6F894010CF03AFBA6F840010CF036FB4D
:103C0800A6F842010CF032FBA6F844010CF02EFB9A
:103C1800A6F8D8010CF020FB86F8ED010CF01CFB8F
:103C28000CF01AFB86F8EE010CF016FB86F88301FF
:103C38000CF012FB86F890010CF00EFB6C4BD3F8DD
:103C480000900CF013FB00EB80004000A9F8620024
:103C58000CF002FB38E10CF009FB684B23F8180064
:103C680008F10108B8F1080FF5D182E353790F2B59
:103C78007FF496AD0CF0F0FA072880463FF690AD39
:103C88005B4ED6F800A00CF0F1FA0E2303FB08F8FF
:103C9800C244AAF82501D6F800A00CF0E7FAC244FD
:103CA800AAF82701D6F800A00CF0E0FAC244AAF856
:103CB8002901D6F800A00CF0CFFAC2448AF82B01EB
:103CC800D6F800A00CF0C8FAC2448AF82C01D6F83D
:103CD80000A00CF0C1FAC2448AF82D01D6F800A061
:103CE8000CF0BAFAC24436688AF82E010CF0C8FA09
:103CF800B044C8F82F013CE30CF0AEFA0F28804618
:103D08003FF64EAD0CF0A8FA3B4BC8EBC8089844F8
:103D180088F8D0000CF0A0FA88F8D1000CF09CFAD2
:103D280088F8D2000CF098FA88F8D3000CF094FACE
:103D380088F8D4000CF090FA88F8D5000CF08CFACA
:103D480088F8D6000CF080F813E32D4B1B785E073B
:103D580000F10F830DF034F904F002F804F0BEF816
:103D680007E3274B1B78580700F10383254B4FF4D3
:103D7800C8721A80FDE2224B1B78590700F1F982BC
:103D8800214A137843F0040326E01D4B1B785A0799
:103D9800E2D5F3E20CF060FA1B4B1A7810B142F04E
:103DA800020201E022F002021A700CF055FA174BD9
:103DB800174E18700CF064FA30600CF061FA7060FD
:103DC8000CF054FA134B18800CF050FA124B134AAB
:103DD8001880137843F002031370CAE27076010862
:103DE80088110020882A00208C1100200200002061
:103DF800501400208414002048290020DE270020C9
:103E0800EC3400204C110020881400208914002074
:103E18008C14002094140020961400209E14002076
:103E28000CF01AFA83460CF02BFA82460CF028FAAA
:103E380081460CF025FA06460CF018FA0CF016FA32
:103E48000CF00AFABBF1000F12D1B94B1020C3F8DD
:103E580000A0C3F8049003F029FFB64A137843F092
:103E680001031370002E00F08482B34B1E6080E2C1
:103E7800BBF1100F40F07D82B04BC3F800A0C3F82F
:103E880004900EB1AC4B1E60AC48AD4B0222011D34
:103E98001A7005F00FFA6CE2AA4B98600CF0F0F972
:103EA80003F02CFF65E20CF0E1F9A64EA6F85801E4
:103EB8000CF0DCF9A6F85A010CF0D8F9A6F85C0168
:103EC80057E20CF0C9F99F4E86F878010CF0C4F956
:103ED80086F87C010CF0C0F986F87B010CF0BCF97F
:103EE80086F87D0145E20CF0C1F9964EA6F87E01F0
:103EF8000CF0BCF9A6F880010CF0AEF986F8820146
:103F08000CF0B4F9A6F8840133E20CF0A5F98D4E53
:103F180086F88E010CF0AAF9A6F898010CF0A6F91B
:103F2800A6F894010CF0A2F9A6F896010CF094F901
:103F3800D9F8003086F88F015B79082B40F2198296
:103F48000CF094F9A6F89C010CF090F9A6F89E01E3
:103F58000FE20CF081F97B4E86F8D6010CF07CF963
:103F680086F8D7010CF082F9A6F8D80101E292F898
:103F780005800323B8FBF3F8B8F1120F3FF610AC35
:103F8800704E4FF0000AC24580F0F3810CF064F9DE
:103F980086F8A0010CF06AF940F2ED23984205DD9D
:103FA80040F6CA039842A8BF184601E040F2EE2046
:103FB800A0F2EE2019230AF1010A90FBF3F0023671
:103FC80086F89F01DFE70CF047F95E4B83F8900114
:103FD800CFE10CF041F95B4B434408F10108B8F11B
:103FE800080F83F88601F4D1C3E10CF035F9554E7A
:103FF8007071C6F808A00CF043F903F07FFE0CF0CE
:104008002BF986F88E010CF031F9A6F858010CF05E
:104018002DF9A6F85A010CF029F9A6F85C010CF064
:1040280025F9A6F87E010CF021F9A6F88001A0E197
:1040380053794FF00708B3FBF8F2C2EBC2029A1AA1
:1040480012F0FF0F7FF4ACABB3FBF8F808F1FF38C0
:104058005FFA88F8B8F1FF0F00F08B810CF0FCF8DC
:104068005FFA80FA4FFA8AF00AF0CAF90646002881
:104078003FF496AB80F800A00CF0F8F870800CF0D4
:10408800EBF830710CF0E8F870710CF0E5F8F071AD
:104098000CF0E2F8B071D9E72A4E06F140090CF0AD
:1040A800E5F8A6F8A4020CF0D7F886F8A6020CF0FA
:1040B800D3F8043686F8A3024E45F0D159E10CF046
:1040C800CBF81F2880463FF66BAB2B685B79082B33
:1040D8007FF466AB0CF0CAF81A4B08F1880803EBBA
:1040E800880800F03F00A8F806000CF0BFF8B8F800
:1040F8000630800100F4FE501843A8F806000CF0C2
:10410800ABF8000188F804000CF0A6F898F8043021
:1041180000F00F00184388F804000CF09DF888F8A8
:1041280005000AF065FE24E1074B01221A7120E11F
:10413800A014002088140020B0140020A814002027
:104148009411002048290020241200200CF084F843
:10415800FF28DFF8FC9266D14FF0000809F108004B
:104168004146602289F8058011F0A7FC8DF80B8084
:104178009DF80B3099F86A20B54E9A424BD99DF8B4
:104188000B3006EBC30393F86D30DB073CD59DF885
:104198000B3006EBC30393F86C20AE4B33F91230A7
:1041A800002B31DD9DF80B3096F8058006EBC30334
:1041B8004FEAC80E1B6F58689DF80B3006EBC30A10
:1041C80006EB0E01DAF8703088601A89CA8192B25B
:1041D800002101238B40134003D101311029F8D16C
:1041E80000E00B4609EB0E0108F101088B8104235E
:1041F8008DF80E3003A90123ADF80C208DF80F308F
:1042080000F056FC89F805809DF80B300133DBB2CD
:104218008DF80B30ACE701200CF06EF870790CF0DB
:1042280038F8FFF742B999F805209042BFF4B8AAC8
:10423800019000200CF060F80CF03AF82A68106839
:1042480009F08AF8D8F800000BF0E6FF0AF056FBF0
:1042580072B6DFF804A280214026AAF82810AAF82E
:104268002860ADF80C1004214FF0010B8DF80E10EA
:10427800504603A98DF80FB000F01AFC504603A968
:10428800ADF80C608DF80EB08DF80FB000F010FC92
:10429800019B4FEAC30809EB0800816883890A6813
:1042A80003FA0BF30BFA03F313430B60C3898B6117
:1042B8005046CAF81860038A1E06FCD409EB0803A6
:1042C80001229868B3F80CE001684FEA4E0E02FA32
:1042D8000EF20A4302609A68DB8913855E4A402120
:1042E8001185102191612021118540F6055BDFF8C9
:1042F80068A1BAF81020110605D4BBF1000FF6D05A
:104308000BF1FF3BF3E78361ADF80C3004238DF824
:104318000E3003A901238DF80F3000F0C9FB2023CC
:10432800CAF81830BBF1000F13D04B4B1A8A12068B
:10433800C4D509EB08018A68C989128A11424FF06D
:1043480040014FF0100215BF996119859A611A85CD
:10435800EBE74023CAF818301023CAF8183062B6C1
:104368000A200AF0A6F90DF062FC2B68F32283F804
:10437800492000200BF0C0FFFFF797B80DF09CFD17
:10438800FFF793B80C2803D134480CF04FF84AE0F3
:104398000A2801D00D2848D1314D32480CF046F892
:1043A8002846232111F0BFFB08B1401B2060236879
:1043B8007BB35A1EA95C202901D11346F8E7284A85
:1043C80023600021D154284B284DD3F800A0D5F8FC
:1043D80000B0234E584611F0B4FB07463A46304623
:1043E800594611F0B7FB224A20B9F35D53445B7874
:1043F800590703D010359542E9D306E0954204D217
:10440800781CEB683044984702E01A480CF00EF824
:104418000023134823600021302211F04EFB009B3B
:104428001B78002B41D0144807E07F2828D1013B96
:104438000B4A124823600021D1540BF0F7FFFEF716
:10444800A6BF0C28A0D07F281DD1FEF7A0BF00BFB3
:104458002412002054140020000400480C9B01087A
:10446800101A002049A90108F40300203C7801082B
:10447800FC790108179B0108079B0108339B010879
:104488002F2B3EF684AFA0F12002D2B25E2A3EF670
:104498007EAF13B920283EF47AAF5A1C2260054A31
:1044A800D0540BF0BBFFFEF772BF0DB0BDEC028B12
:1044B800BDE8F08F101A002010F80A3C0133DBB277
:1044C8000A2B84BF10F8131C044A00F80A3C82BF68
:1044D800002322F8113000F80A3C7047EC33002022
:1044E800354A70B5136C90681944344B1B78D94021
:1044F800081A40F68C2398429160D06051601346A8
:104508003BD9127893F945108A4210460BD1111FF6
:10451800082908D893F84610182901D8013103E072
:1045280083F8442002E0002183F8461093F94440C0
:104538002149A24219D191F84740B4B10C31002465
:10454800944206DA1E4D51F8046F25F814600134C0
:10455800F6E70C2805D01A49002421F8104001304C
:10456800F7E7184801780131017083F845200022E7
:1045780001211A7083F8471070BD92F84710C9B12D
:10458800A0F2EF2440F2DA518C4208D811780B29B6
:1045980005D80B1D0131117042F8230070BD0022AF
:1045A80083F84720084B03F13002002143F8041F29
:1045B8009342FAD170BD00BF880400208504002012
:1045C800EC3300203628002094040020024A136CA3
:1045D800013319441164704788040020024B53F8D2
:1045E80020301B68196070472C260020064B53F8B2
:1045F80020301A681B89A1F57A7159434FF47A73F0
:1046080091FBF3F1116070472C260020054B98426E
:104618000CBF054A054A138801339BB2138000205A
:10462800704700BF0054004000140020021400200E
:10463800F0B5046D8668236823F00103236083794D
:10464800054613F0020F40790CBF4FF0000E4FF4EF
:10465800005E13F0040F14BF4FF48067002710F0BA
:10466800010F14BF042100218307206820F00100F6
:104678002060626822F440524EEA020262602268B8
:1046880022F4B05323F00C0348BF41F008013B4328
:104698000B432360A36895B023F44073A360684676
:1046A80002F0E6FC284B9C4201D10C9B0EE0274B04
:1046B8009C4201D10D9B09E0254B9C4201D10E9BE8
:1046C80004E0244B9C420CBF0F9B109B2268A879E6
:1046D800170448BF5B00B3FBF6F206FB1233B3EBDB
:1046E800560F236828BF01321E0441BF4FF6F073EE
:1046F800C2F34201134041EA03026B7992B213F00C
:10470800020FA28100F0010114BF4FF40032002211
:10471800DC0748BF42F480322B6D11B159680A4357
:1047280002E0596821EA02025A609A6801074CBF00
:1047380042F0080222F008029A601A6842F0010268
:104748001A6015B0F0BD00BF0038014000440040B9
:1047580000480040004C00403D4B1B78012B30B511
:1047680014BF00240324B1B9036A23F001030362D0
:104778008169036A21F0F30123F00A0341F0010182
:1047880042F001021A4341EA04118161026283691D
:1047980023F00C031BE004291DD1016A4FF6EF73C7
:1047A8000B4003628169056A120121F473414FF6D7
:1047B8005F7342F0100241F480712B4092B21343B0
:1047C80041EA043181610362836923F440638361B0
:1047D8008369836130BD0829016A1AD14FF6FF63E6
:1047E8000B400362C169036A9BB289B223F4206358
:1047F80043F4807321F0F30143EA022241F00101FE
:1048080092B241EA0411C1610262C2694FF6F373C0
:1048180019E04EF6FF730B400362C369056A40F660
:10482800FF41194045F6FF732B4043F4805343EA98
:10483800023241F4807192B241EA0431C1610262EC
:10484800C2694FF2FF331340C361C369C36130BD0E
:104858008404002038B510F80E2C50F8043C0446A7
:1048680052B9012200F80E2C20F80C1C997A18680D
:104878000222BDE838406FE730F80C2C20F80A1CFB
:10488800891A89B220F8081C074A10F80F0C00256D
:1048980022F8101004F80E5C1868997A2A46FFF777
:1048A8005BFF04F8065C38BDEC330020044B53F87A
:1048B80020301BB107289CBF1B681960704700BFD8
:1048C800B0050020084A13689B050BD5074B00214B
:1048D8001970074908684FF6FE7303400B604FF4E0
:1048E80000735360704700BF00000240ED340020A1
:1048F800300002402DE9F047664D2B6866490A787A
:10490800581C02F0FF068E460AB10346F6E72B60F4
:1049180095F80880687AAA7AEB68374639B2202970
:1049280000F09B80DFF880C10CEB81033CF821107C
:10493800DC789B78C3F1FF039BB2002B65D0C3F1F1
:10494800FF0363434FF03C0C1B12B1FBFCF9B9F1B8
:10495800050F5DD8DFE809F0030B1A293A4AE01A77
:10496800DAB24143B1FBFCF01044C0B251E0B1FBF4
:10497800FCF00CFB101189B2DAB2C1F13C01E31A68
:104988004B432046B3FBFCFC94442CE0B1FBFCF009
:104998000CFB10115FFA83F8E21A89B24A43B2FBA2
:1049A800FCF24244D2B2204632E0B1FBFCF90CFBE7
:1049B800191189B25FFA83F8E01AC1F13C01484342
:1049C800B0FBFCF04044C0B2224621E0B1FBFCF849
:1049D8000CFB1811D8B289B2E31A01FB03F2B2FB3F
:1049E800FCFC224684445FFA8CF412E0B1FBFCF82C
:1049F8000CFB181189B2D8B2C1F13C01E31A4B4340
:104A0800B3FBFCF20244D2B203E02246204600E0A7
:104A180044464FEA042C4CEA004C4CEA020C17239B
:104A280006F117014FF0010808FA03F8C91A18EA45
:104A38000C0F89B2DFF8748014BF4FF011094FF0E2
:104A4800090913F1FF3308F80190E9D21836013744
:104A5800B6B2BFB2114BA04660E7AA72EB60104A2B
:104A6800E98001238EF800300E4985F8088040F26D
:104A78002A336872AE80536000234B620B889BB266
:104A880043F001030B80136843F001031360BDE892
:104A9800F08700BFF0120020ED340020F81200204B
:104AA8003000024000440140B61700203D060020B7
:104AB80073B506460D46002401232A88A3401342F5
:104AC8001AD0AA78009302F003038DF80430EB782B
:104AD800022B03D0032B0CBF032301238DF80530D1
:104AE8003046C2F301136946C2F381028DF80630DD
:104AF8008DF8072002F02AFC0134102CDCD102B01A
:104B080070BD2DE9F04F734E357C07460C4687B0D3
:104B180011469A4600686B1C914622464FF0020BDC
:104B2800337407F00BFB3B897868ADF8043001A9B2
:104B38008DF806B08DF807B0FFF7BAFF0023ADF87F
:104B48000A30ADF81230ADF8163070230193BA7AF6
:104B58003C68CDF80CA0012306F114082D01ADF82E
:104B680008304FF48073A844ADF810B0ADF8143095
:104B78000C2A7ED8DFE802F0077D7D7D0F7D7D7DE4
:104B8800387D7D7D5E00204601A902F07BF9A3698E
:104B980043F0080326E0236A4F4823F010032362FA
:104BA800236A6168A26922F0807222F4E642844294
:104BB80042F4E04206D000F50060844202D043F09F
:104BC800300307E023F0E00321F4406143F03003B1
:104BD80041F480616160A261C4F838A02362A369CE
:104BE80043F40063A36144E0236A3B4823F48073E1
:104BF8002362226A6168E369844223F0730343F005
:104C0800700306D000F50060844202D042F440727E
:104C180007E022F4606221F4405142F4407241F40A
:104C280080516160E361C4F83CA02262E36943F00B
:104C380008031DE0236A284823F480532362226A6C
:104C48006168E369844223F4E64343F4E04342F4B1
:104C5800405203D000F50060844201D141F4804104
:104C68006160E361C4F840A02262E36943F4006331
:104C7800E3613A7B3B681AB15A6C42F400425A64C9
:104C88001A8892B242F001021A80BA7A0C2A18D80D
:104C9800DFE802F0071717170B1717170F17171763
:104CA8001300721903F134010AE0721903F1380193
:104CB80006E0721903F13C0102E0721903F14001A8
:104CC800516135444046A5F81C90AB6107B0BDE87A
:104CD800F08F00BFF0120020002C0140F8B53A4ECA
:104CE8003A4C4000C7B24FF420453068C4F8D4505D
:104CF800D0F818E01EF4004F05D0AE46013DBEF1D5
:104D0800000FF5D116E0D0F804E0314D0EEA0505A4
:104D180045F490353D4345604FF42045C4F8D450E0
:104D2800D0F818E01EF0020F2DD1AE46013DBEF1BD
:104D3800000FF5D1C4F8D4501FE02946013D0029E1
:104D4800F8D081694906F8D5C4F8D4502049456897
:104D5800294041F0007141F4105141EA02413943C0
:104D680041604FF42041A2B1306885696D071ED4B7
:104D780011F1FF31F9D2C4F8D410FFF747FC003025
:104D880018BF0120F8BD4FF420458162C4F8D45003
:104D9800D7E73068C4F8D4100B46826992060CD461
:104DA8001A46013B002AF8D1C4F8D430E5E7416A35
:104DB80003F8011B013AD2B2D3E7C4F8D430202358
:104DC800C3610120F8BD00BFFC130020F0120020D1
:104DD800009800FC400070B5C5B23248324B0068FC
:104DE8004FF42044C3F8D4408669360404D52646D7
:104DF800013C002EF8D113E046682C4C344044F0B6
:104E0800807444F490342C4344604FF42044C3F835
:104E1800D4408669B60729D42646013C002EF8D12D
:104E2800C3F8D4401CE02146013C0029F8D0816930
:104E38000E06F8D544681D49214041F0007141F43F
:104E48008031294341604FF42041C3F8D41084696C
:104E5800A40711D40C460139002CF8D1C3F8D4109A
:104E6800FFF7D4FB003018BF012070BD4FF4204479
:104E78008162C3F8D440DAE782624FF42042C3F873
:104E8800D4208169890606D41146013A0029F8D14F
:104E9800C3F8D420E4E7C3F8D4202023C361012059
:104EA80070BD00BFFC130020F0120020009800FC29
:104EB8002DE9F84F4D282DED028B044600F0688649
:104EC80000F2B980302800F0C98651D8222800F0B5
:104ED800A18423D8032800F0058214D8012800F003
:104EE800F581022840F0008704200BF005FA4220E3
:104EF8000BF0CFF954200BF0CCF946200BF0C9F990
:104F08004C2000F06BBE042800F0F581052840F025
:104F1800EB861A200BF0F0F90024FCE1282800F0B9
:104F2800F68515D8242800F0DD85262840F0DC8693
:104F3800DE4C06200BF0E0F9B4F858010BF0DFF96D
:104F4800B4F85A010BF0DBF9B4F85C0100F0C7BD06
:104F58002C2800F0EF852E2800F06A862A2840F0D9
:104F6800C38601200BF0C8F9D04B587900F036BE43
:104F78003D2800F0FF821ED8362800F040860BD866
:104F8800322800F02586342840F0AE8648200BF001
:104F9800B3F9002500F060BC3A2800F0C2823B2833
:104FA80000F03184382840F09F8604200BF0A4F9E3
:104FB800BE4C00F09DBD452800F0758627D84028D6
:104FC80000F00F86422840F08F86B84C10200BF076
:104FD80093F960790BF05DF9A0680BF099F994F8F2
:104FE8008E010BF056F9B4F858010BF088F9B4F8B3
:104FF8005A010BF084F9B4F85C010BF080F9B4F8AD
:105008007E010BF07CF9B4F8800100F068BD4928F6
:1050180000F0BB824B2800F0AC85462840F064863F
:105028000D200BF069F900200BF033F900200BF08C
:105038006FF900F043BE702800F0FA8200F2E980B0
:10504800692800F0498200F2B880662800F0A08143
:1050580000F2A880642800F07781652840F0448633
:10506800934C0B200BF048F920880BF048F9626844
:10507800904B9A420CBF2089608980B20BF03FF9AF
:10508800E368C3F3C000C3F38002800040EA420033
:10509800C3F340021043C3F3401240EAC20003F0D6
:1050A800100318430BF02BF9218A6369247E01F061
:1050B800080203F4475A4AEA020A03F480424AEA19
:1050C800020A03F400424AEA020A03F480324AEA76
:1050D800020A03F400324AEA020A03F480224AEA86
:1050E800020A03F400224AEA020A03F480124AEA96
:1050F800020A714A03F0007B12784AEA0B0A03F0AD
:10510800006311F0010FC2F380024AEA030314BFDF
:105118004FF002094FF00009134311F0020F14BFBA
:105128004FF004084FF0000843EA090911F0040F92
:1051380014BF4FF0100C4FF0000C49EA080811F0AA
:10514800400F14BF4FF0200E4FF0000E48EA0C0C31
:1051580011F0100F14BF4FF4007700274CEA0E0E21
:1051680011F0200F14BF4FF4806600264EEA07079F
:1051780011F4807F14BF4FF4006500253E4311F4FD
:10518800007F14BF4FF400100020354311F4806FE6
:1051980040EA050014BF4FF0806100210143002060
:1051A8000346E1E0672800F02081682840F09C85EC
:1051B80010200BF0A1F8002486E16C2800F09F81F4
:1051C80017D86A2800F00C846B2840F08D85384C7D
:1051D80005200BF091F8B4F8A2000BF090F8B4F8A1
:1051E800A4000BF08CF894F8A60000F0010000F081
:1051F800F5BC6E282E4C00F0988100F2CC81062078
:105208000BF07AF8E06F0BF083F8B4F8800000F048
:1052180066BC782800F0F68018D8742800F03D8322
:105228000AD8722800F09C83732840F05D85082016
:105238000BF062F80124CCE3762800F0F28300F248
:1052480065832F200BF058F81C4CD4E2A42800F0FA
:10525800128414D87B2800F07482A02840F044857A
:105268000C200BF049F8164B18680BF051F8154B49
:1052780018680BF04DF8144B186800F023BDF1289E
:1052880000F0FC80FE2800F01D84F02840F02C85FA
:10529800074C04200BF030F8A36DB3F866000BF050
:1052A8002EF8A36DB3F8640000F019BC482900205B
:1052B800F813002000540040EC3400203F76010829
:1052C800ACF7FF1FB0F7FF1FB4F7FF1F03200BF069
:1052D80013F800200AF0DDFF20460AF0DAFF0D205F
:1052E80000F07CBC0BF008F802200AF0D2FF022084
:1052F8000AF0CFFFBDE306200AF0FEFF53200AF0B4
:10530800C8FF50200AF0C5FF4B200AF0C2FF592001
:105318000AF0BFFFE2E3B84B185D01340AF0B9FFA9
:105328000B2CF8D10024B54B185D01340AF0B1FFFD
:10533800082CF8D10024B24B185D01340AF0A9FFFB
:10534800072CF8D100F0C0BC07200AF0D5FFE720F1
:105358000AF09FFFAB4B58790AF09BFF00200AF038
:1053680098FF042000F0AEBCA3420AD2A64A9D5C76
:10537800012202FA05F50D421CBF9A401043013381
:10538800F2E70AF0C5FF9F4B93F8D00700F026BC60
:1053980012200AF0B1FF9D4B1B88B3F5806F8CBFBC
:1053A8000826012600259A4C04F1360333F9150026
:1053B80090FBF6F0013580B20AF0A1FF032DF2D17F
:1053C800A08F0AF09CFFE08F0AF099FFB4F8400024
:1053D8000AF095FFB4F842000AF091FFB4F84400CF
:1053E8000AF08DFFB4F8460079E310200AF084FF34
:1053F8000024884B185D01340AF04BFF102CF8D1BB
:1054080000F062BC70200AF077FF0026804D0E2461
:10541800AB6D744323440136B3F825010AF06FFFDE
:10542800AB6D2344B3F827010AF069FFAB6D234441
:10543800B3F829010AF063FFAB6D234493F82B01FD
:105448000AF027FFAB6D234493F82C010AF021FFE3
:10545800AB6D234493F82D010AF01BFFAB6D234479
:1054680093F82E010AF015FFAB6D1C44D4F82F01F8
:105478000AF04EFF082EC9D100F026BC7020614CFE
:105488000AF03AFF04F1700594F8D0000AF001FF21
:1054980094F8D1000AF0FDFE94F8D2000AF0F9FE63
:1054A80094F8D3000AF0F5FE94F8D4000AF0F1FE5F
:1054B80094F8D5000AF0EDFE073494F8CF000AF00E
:1054C800E8FEAC42E0D1FFE3534B185D01340AF02B
:1054D800E0FE102CF8D1F7E3504D2878400000F09A
:1054E800FE000AF009FF00242B789C4280F0EC8330
:1054F8004B4B33F814000AF002FF0134F4E7444C34
:1055080006200AF0F9FEB4F874000AF0F8FEB4F8C0
:1055180076000AF0F4FEB4F978300A2093FBF0F034
:1055280026E004200AF0E8FECBE307200AF0E4FEB8
:105538003C4B1888FF28A8BFFF20C0B20AF0A9FE7C
:10554800394B186880F3100080B20AF0D8FEB4F81E
:1055580084000AF0D4FE2B4BD4F8880093F88331EA
:1055680023B10A23584380F3100001E000F30F0031
:1055780080B2B4E2234C02200AF0BEFE94F8E001A7
:105588000AF087FE94F8DF0128E302200AF0B4FE4F
:10559800264B1888A3E20B200AF0AEFED4F88C3014
:1055A80018780AF076FED4F88C3058780AF071FE34
:1055B8000026D4F88C30164D3344013618790AF099
:1055C80068FE032EF5D1D5F88C30D8790AF061FE43
:1055D800D5F88C3098780AF05CFED5F88C30D878FD
:1055E8000AF057FED5F88C3058890AF088FED5F8AD
:1055F8008C30187AF2E200BF4F9901085B990108D4
:1056080033990108482900201114002006000020C1
:10561800F8130020401400205414002050310020BA
:105628008C28002098170020F01600205434002001
:10563800C64C1E200AF060FEA36D1B78022B4FF0AB
:1056480000056BD1A36D03EB850393ED080AB2EE59
:10565800048A20EE080A10F03FFC80F30800C0B26C
:105668000AF017FEA36DDFEDBA7A03EB850393ED1D
:105678000B0A20EE270A10F02FFC80F30800C0B2B6
:105688000AF007FEA36DDFEDB37A03EB850393ED14
:105698000E0A20EE270A10F01FFC80F30800C0B2A3
:1056A80001350AF0F6FD032DCCD1072DA36D23D1CA
:1056B80093ED110A20EE080A10F00EFC80F30800A2
:1056C800C0B20AF0E6FDA36D93ED120A20EE080AB7
:1056D80010F002FC80F30800C0B20AF0DAFDA36DF6
:1056E80093F84C3000EE103AB8EE400A10F0F4FB94
:1056F80080F30800C0B20BE02B4458780AF0C9FDCB
:10570800A36D2B44D87A0AF0C4FDA36D2B44587DB1
:1057180001350AF0BEFD0A2DC7D1D5E2A36D2B4491
:1057280058780AF0B6FDA36D2B44D87A0AF0B1FD7B
:10573800A36D2B440135587D0AF0ABFD0A2DEDD140
:10574800C2E23C200AF0D8FD0024804D9FED818AFA
:10575800AB6D03EB840393ED080A20EE080A10F002
:10576800BBFB80B20AF0CBFDAB6D03EB840393ED7A
:105778000B0A20EE080A10F0AFFB80B20AF0BFFD5A
:10578800AB6D03EB840393ED0E0A20EE080A10F0CC
:10579800A3FB013480B20AF0B2FD032CD5D1072C4B
:1057A800AB6D16D193ED110A20EE080A10F094FBA8
:1057B80080B20AF0A4FDAB6D93ED120A20EE080A40
:1057C80010F08AFB80B20AF09AFDAB6D93F84C009A
:1057D8000BE0234458780AF092FDAB6D2344D87A45
:1057E8000AF08DFDAB6D2344587D01340AF087FD26
:1057F8000A2CD4D168E214F8010F002800F0648262
:105808000AF047FDF7E701200AF076FD4F4B9B6D44
:105818001878E3E150200AF06FFD00254B4B9C6D92
:105828004D4B04EB85040C2194F8852001FB0233D1
:10583800013593F838000AF02CFD94F886000AF038
:1058480028FD94F887000AF024FD94F888000AF0EF
:1058580020FD142DE2D137E23C4B9C6D062303FB5F
:105868000544013594F8DA000AF013FD94F8D500E0
:105878000AF00FFD94F8D6000AF00BFD94F8D70053
:105888000AF007FD94F8D8000AF003FD94F8D9004F
:105898000AF0FFFC0C2DDFD116E24FF000080126BC
:1058A80000272A4B1A7E974227DA19330024FA5C1C
:1058B800294D0C2305F130016343595C914207D10E
:1058C8002B44586B10F03DF982462EB9B14605E0DD
:1058D80001341D2CECD10EE080440CE0D1450ADAED
:1058E8000C2303FB04535B6B13F809000AF0D1FC8B
:1058F80009F10109F2E70137D3E7002E00F0E4814E
:105908005FFA88F00AF0F8FC0026C9E70F4D287EF8
:105918000AF0F2FC00242B7E9C4280F0D5810F4BCC
:10592800E65C00210C480C2200F1300702FB01F371
:10593800DA5DB24205D1034493F838000AF0A9FCB5
:1059480002E001311D29EDD10134E4E7F81300200C
:105958000000C84200007A44407601081114002073
:10596800DA4C16200AF0C8FCB4F894010AF0C7FC17
:10597800B4F840010AF0C3FCB4F842010AF0BFFCD5
:10598800B4F844010AF0BBFCB4F8D8010AF0B7FC3B
:1059980094F8ED010AF07DFC00200AF07AFC94F8F6
:1059A800EE010AF076FC94F883010AF072FC94F890
:1059B80090010AF06EFC00200AF06BFCC44B9B6D52
:1059C8000A20B3F9623093FBF0F080B20AF097FC3A
:1059D8008EE0E0B201340AF05CFC092CF9D173E1E5
:1059E800BB4C10200AF088FC94F8900000F00200EC
:1059F8000AF04FFC94F891000AF04BFCD4F894009C
:105A08000AF086FCD4F898000AF082FCB4F89C00EE
:105A18000AF075FCB4F89E000AF071FCB4F8A00016
:105A28005DE00AF019FC074612200AF065FCA84C54
:105A380027B9D4F8A860D4F8AC5007E0102F13BFEA
:105A48000025D4F8B060D4F8B4502E4638460AF091
:105A580020FC30460AF05CFC28460AF059FCD4F8D1
:105A6800B8000AF055FC00200AF049FC00200AF0B2
:105A780046FC0020B2E0964D95F8BC00800001304D
:105A8800C0B20AF039FC95F8BC000AF002FC002408
:105A98002E4696F8BC309C4280F016818D4D285DCC
:105AA8000AF0F7FB05F11003185D0AF0F2FB05F1A7
:105AB80020033035185D0AF0ECFB285D0AF0E9FB9D
:105AC8000134E6E708200AF017FC00200AF017FC6A
