:020000040800F2
:1000000000A00020B1D70008759A0008E5C70008D5
:10001000739A0008719A00086F9A000800000000A7
:100020000000000000000000000000006D9A0008C1
:100030006B9A000800000000699A00082DA40008CF
:1000400019D8000819D8000819D8000819D80008CC
:1000500019D8000819D8000819D8000819D80008BC
:1000600019D800084D97000819D8000819D80008B9
:1000700019D800086D7D0008199A000819D80008E1
:1000800019D8000819D8000819D8000819D800088C
:10009000199B000819D8000819D8000819D80008B9
:1000A00019D80008CD97000819D80008DD97000876
:1000B000C1970008B1970008A197000819D8000857
:1000C00019D8000819D8000819D8000819D800084C
:1000D00019D80008A199000819D8000819D80008F3
:1000E0003DA4000819D800085B9A000819D8000838
:1000F0008197000819D800089197000819D80008BE
:1001000000000000000000000000000019D80008F6
:1001100019D8000819D8000819D8000819D80008FB
:1001200019D8000819D8000819D8000819D80008EB
:1001300019D8000819D800080000000000000000CD
:1001400019D8000819D8000819D8000800000000C4
:10015000000000000000000000000000000000009F
:10016000000000000000000019D8000819D800089D
:1001700019D8000800000000000000000000000086
:080180000000000019D800087E
:100188002DE9F04FC04BB3F90610C04B2DED028B93
:100198001E687289A9B09142039311DBB1F5FA6F19
:1001A80096F807B0BDBF8B1A03FB0BF3A2F5FA6BE9
:1001B800CBF1640BBCBF93FBFBFB0BF1640B01E0C1
:1001C8004FF0640BB24DB34B2A68059293F95E2148
:1001D800B3F896A1059C029392B2079200225300AD
:1001E8000693A94B33F912300493CAEB030303F2C5
:1001F800F31740F2E630874203D8002BB8BF5B42C2
:1002080001E04FF4FA73022A01934FF06400059B52
:10021800A14F34D093F811E1BEF1000F06D0019B35
:100228007345CCBFCEEB030300230193019BDFF89A
:10023800B0E293FBF0FC6FF063093EF81C8009FB09
:100248000C390CF1010C069B3EF91CE00FFA88FCF6
:10025800CCEB0E0E0EFB09FE9EFBF0FEC64427F803
:1002680003E0B718019B3F797B438C4F93FBF7F36F
:1002780064339BB20BFB03F393FBF0F031E093F88C
:1002880012E1BEF1000F06D0019B7345CCBFCEEB47
:10029800030300230193019BDFF8308293FBF0F006
:1002A8006FF0630C38F910E00CFB00390130BDF831
:1002B8001C3038F91000CEEB000000FB09F999FB5F
:1002C800FCF9CEEB090919FB03F9019BA7F8049087
:1002D800B079002BB8BF5B424343704893FBF0F002
:1002E800643063786E4F4FF0640E434393FBFEF324
:1002F800BB546C4FE37A434393FBFEF3BB54637DDB
:10030800654F5843684B90FBFEF0022A9854674BA0
:100318000FD183F802E0049B53450FDB5D4CB4F822
:100328009821914216DBB1F5FA6FA8BF4FF4FA6134
:1003380011E003F802B0049B534504DA069B0698C3
:10034800FB5A5B423B520132032A04F101047FF459
:1003580046AFE3E71146891A4FF47A735943544B71
:100368004D4E6FF0630CC2F5FA624FF0640EB1FBAC
:10037800F2F191FBFEF233F812000CFB021101328C
:1003880033F9122003B2D21A514391FBFEF303440E
:10039800FB80484B1B88580635D5474B474A1B8876
:1003A8001288DFED477A9B1A1BB208EE103AB8EEB6
:1003B800C88A28EE278AB0EE480A07F01DF8F0EE42
:1003C800408AB0EE480A06F0B7FFB6F9023006EEEA
:1003D800903AB6F90030F8EEE66A07EE903A20EE69
:1003E800667AF8EEE77AA7EEA87A67EE807ABDEE2D
:1003F800C77AE6EEA87A17EE103AFDEEE77A338070
:1004080017EE903A73802F4E3368990740F1A88011
:100418002D4B2E491A684B6945F20720D31A83429F
:10042800884640F39D804A6103F0E2FF284BDFF8DD
:10043800B4A01A78032A9946BAF8003054D10A2B86
:100448005ED90023282089F8003009F0A2FF03F0C4
:10045800CFFF204B188803F0B5FF1F4B1A68D378DD
:1004680090FBF3F0013008281C4BA8BF0820187037
:10047800537980B213FB00F3A8F81830137913FBF3
:1004880000F0A8F81A003BE0B0130020F013002099
:10049800080F00206C1500203A1000200CFEFFFF0A
:1004A800940E00209E070020A80E00204C1000206B
:1004B8005A0E002038100020E6110020D41C00201D
:1004C80035FA8E3C101400206C1E00209007002086
:1004D80058140020600B00205C0B0020AC000020AA
:1004E800720E0020F00B00200A2B09D803239E4A25
:1004F80089F8003000231370A8F81830A8F81A30CB
:1005080099F80030994A012B0DD002D3022B1DD047
:1005180026E0B8F81820BAF800309A4220DD012306
:1005280089F8003010E0BAF80010B8F81A308B4299
:1005380002DD0223137010E08D4B1B8B01339942AF
:1005480002DD002313700BE0082007E0B8F81A302A
:10055800BAF8002001339A42E1DC072009F0B8FE1E
:10056800D6F800B0834E1BF4006F78D0824B8049D8
:100578001A68CB69C3EB020945F2072399458846F7
:100588006DDD7E4BB7F90670D3F800A0CA619AF802
:100598000A30B4F84E11012B4FF47A72A7F57A7726
:1005A80099FBF2F903D03FD3022B1DD03FE0D8F8D6
:1005B8002010082091FBF0F3CB1A0021C8F8203056
:1005C800A8F8241093FBF0F340F6E4419BB24B43A8
:1005D800BAF80810C1EB13335A43BAF9063092FB44
:1005E800F3F2C8F8282022E03278BAF80830C8F8C0
:1005F800283052071BD56248019304F092FB019BF7
:1006080018B91BF0100F18BF002707FB07F232219B
:1006180092FBF1F21744BAF9062057434FF47A7265
:1006280097FBF2F73B4400E00023C8F82830D8E9EC
:100638000C01D8F82830534A03FB09F34FF47A79B0
:1006480093FBF9F310EB030A41EBE37BC8E90CAB2E
:100658005046594600230CF0E3FAC8F838004A4BD4
:100668001A6812F4805F984602D00A2009F030FE1A
:10067800464F3A68002A48D0DFF83CE1444BDEF8A0
:10068800000019688142F24699463ED8414BDFF88E
:1006980010B118785168B0B901221A70BBF800304F
:1006A800CB5CD3B13C4B1A700AF074FABBF800303B
:1006B8009BB93B681B78053B012B0ED809F042FE1D
:1006C800364B186009E000221A70BBF80030CB5C8A
:1006D8001BB1314B1A700AF05DFA3A68BBF800306A
:1006E80052682F48D25CFE2A01D100230CE0FF2A71
:1006F80002D109F0DDFD08E0DAF800700A2111FBEB
:100708000272C9F800200133038033785F0703D5EC
:10071800244B08221A855FE0D8F80020D0075EBF76
:10072800144943F001030B701F4B1B7819075EBF78
:10073800337823F001033370D30242BF337823F0B8
:1007480001033370194B1A88134B1AB1184A1268EF
:10075800970702D4174A128882B302221A70337894
:1007680023F0010333702EE0AC0000205814002061
:1007780090070020891E00206C1E00205C0B0020C2
:10078800F4160020407E0500D01C00201012002026
:10079800081200200512002044140020581E0020D2
:1007A8000C12002000040048BC1100203A1100205F
:1007B8005C140020801E00201C1400203178C8071B
:1007C80058BF02221A7009F0BDFDAF4B1B68C01A52
:1007D800002801DB0AF0DEF9AC4F3E78002E00F06D
:1007E800E280AB4B1A689846002A01F02580D8F8B9
:1007F800000003685B689847002801F01D80A44B3F
:10080800A44C186803689B689847092801D03F28BA
:1008180052D14FF0000A2668DFF8C492554636B127
:100828009D48D9F8001032460FF034F910B9CA467D
:1008380005B94D46994B09F110099945EFD3EDB12A
:10084800D5F800C0DAF8009023681CF803E019F81E
:100858000300704512D15A1C8F4958B92D2B09D85D
:10086800DFF830E2CEF800204FF0200E01F803E068
:10087800885403E001F803E02260E5E723680BB140
:10088800554510D086480AF085FA554507D855F8D9
:10089800100B0AF07FFA09200AF074FAF5E781488C
:1008A8000AF078FA002623689E42A0D27A4B985D17
:1008B8000AF068FA0136F6E72368002B40F09D87B6
:1008C800042841F07B84744805F042FC00F0B4BF72
:1008D800D8F80000DFF8E8B103685B68984700289B
:1008E80057D0DBF8000003689B689847D9F80030B8
:1008F80093F848208246002A63D1242840F09B8040
:10090800012283F84820D9F8002092F848000628E8
:10091800DED192F849304B2B00F0D38600F2A48147
:10092800322B00F0008700F23281222B00F069851B
:1009380000F2ED80032B00F0468240F2D380042BB6
:1009480000F04D82052B40F0BB871A200AF098F979
:100958000027554BD85D01370AF061F90B2FF8D104
:100968000027524BD85D01370AF059F9082FF8D102
:1009780000274F4BD85D01370AF051F9072FF8D1FE
:100988004C4F3B6898790AF04AF93B68002283F893
:100998004820494B93F87C30002B40F01C874C369C
:1009A800982E00F04987454AB31893F84A10012950
:1009B800F5D1404FB2583B60414BB9461A60984652
:1009C80086E7012A04D14D2814BF0022022298E7A5
:1009D800022A04D13C2814BF0022032291E7032AEB
:1009E8000AD140284FF000029FBF1A71DA7158717E
:1009F800987198BF042284E7042A08D19A7983F869
:100A0800490080EA020A83F806A0052279E7052A48
:100A18007FF479AF59791A799142997906D9414089
:100A28009971511C1971134418726CE781420CBFFB
:100A38000622002265E7234B1A7852073FF563AF79
:100A48002328DBF8002012D11049019301200870F7
:100A58000F491D480A601849CA630AF09BF91148F2
:100A68000AF098F9019B1A7842F002021A70174BA3
:100A78001B681B78534501BF154B164A1A60164B65
:100A880004BF164ADA603EE748140020831E00209F
:100A980054140020040F0020D40E0020C40D0108B7
:100AA800DD240108E2240108632301086F230108FB
:100AB800442301084C14002090070020D41400207F
:100AC80050140020891E002012250108540E002011
:100AD800FC9F0020EFBEADDE00ED00E00400FA054B
:100AE800240C0108012B00F06281022B40F0E886FB
:100AF80004200AF0C5F843200AF091F84C200AF0C7
:100B08008EF846200AF08BF84C2000F0B2BE282B55
:100B180000F0BE8515D8242B00F0A185262B40F0C7
:100B2800CF86B84F06200AF0ABF8B7F858010AF09C
:100B3800AAF8B7F85A010AF0A6F8B7F85C0100F06D
:100B480008BE2A2B00F0B7852C2B40F0B986AD4F94
:100B58000C200AF095F897F890010AF060F8B7F8B9
:100B68009A010AF090F8B7F896010AF08CF8B7F8ED
:100B780098010AF088F897F891010AF050F8B7F848
:100B88009C010AF080F8B7F89E0100F0E2BD3D2B09
:100B980000F0EB8219D8382B00F0678507D8342B82
:100BA80000F05284362B00F0D88500F089BE3A2B2D
:100BB80000F0AB823B2B40F0838601200AF060F8FE
:100BC800914B1B68187800F054BE452B00F0F08557
:100BD80027D8402B00F0AE85422B40F07186894F14
:100BE80010200AF04DF878790AF019F8B8680AF078
:100BF80053F897F890010AF012F8B7F858010AF07C
:100C080042F8B7F85A010AF03EF8B7F85C010AF062
:100C18003AF8B7F880010AF036F8B7F8820100F020
:100C280098BD462B00F0AA85472B40F0498609F06D
:100C3800EDFF804684200AF023F840460AF02CF89D
:100C4800724BDF6808F18003BB428CBFC8EB070713
:100C5800802707F0CFFA40463A4608A90AF036FF3F
:100C68000027804600F09BBD702B00F0C88256D844
:100C7800682B00F0228224D8652B00F0D78015D885
:100C88004D2B00F02D85642B40F01A86072009F0C3
:100C9800F7FFE72009F0C3FF5A4B587909F0BFFF67
:100CA800002009F0BCFF042000F091BD662B00F085
:100CB8007781672B40F00486102009F0E1FF0027B8
:100CC8008FE16D2B00F01B8213D8692B00F0018295
:100CD8006C2B40F0F5854E4F062009F0D1FF38887F
:100CE80009F0D1FF788809F0CEFF4A4B188800F048
:100CF80030BD6E2B00F00D826F2B40F0E185464F22
:100D08000B2009F0BDFF3B68187809F088FF3B68A5
:100D1800587809F084FF4FF00009B84650E2782B64
:100D280000F067811ED8742B00F0B7830BD8722BA4
:100D380000F02784732B40F0C385082009F0A0FF3A
:100D4800012700F06DBC752B00F04F83772B40F026
:100D5800B785DFF8D48098F8400009F091FF0027A4
:100D680000F005BCF02B00F06D8414D87B2B00F04C
:100D7800D882A02B40F0A4850C2009F081FF274BD6
:100D8800186809F089FF264B186809F085FF254B7C
:100D9800186800F01CBDF12B00F06981FE2B40F0B3
:100DA8008F85082009F06CFF002000F041BC03206B
:100DB80009F066FF002009F032FF012009F02FFF3B
:100DC8000D2000F056BD184609F05AFF012009F021
:100DD80026FF0A2009F023FF002000F04ABD062064
:100DE80009F04EFF432009F01AFF432009F017FFCE
:100DF800332009F014FF442009F011FF012000F00E
:100E0800A8BC00BF6C150020080F0020340000208B
:100E180042100020E6110020F0130020ACF7FF1F5D
:100E2800B0F7FF1FB4F7FF1F900700200B2009F051
:100E380027FFD34B188809F026FF002009F023FF6D
:100E4800D04B1B68C3F3C000C3F38002800040EAA4
:100E58004200C3F340021043C3F3401240EAC20009
:100E680003F01003184309F00EFFC74B1A88C74B4D
:100E780012F0010F14BF4FF002084FF0000812F0F3
:100E8800020F14BF4FF0040C4FF0000C12F0040FC7
:100E980014BF4FF0100E4FF0000E12F0400F14BFA9
:100EA8002027002712F0100F14BF4FF40070002005
:100EB80012F0200F1B6814BF4FF4806B4FF0000B2B
:100EC80012F4807F14BF4FF400610021019102F0F9
:100ED800080903F4475141EA090903F4804149EA42
:100EE800010903F4004149EA010903F4803149EAA0
:100EF800010903F4003149EA010903F4802A49EAA7
:100F08000A0903F4002149EA010103F4801941EABE
:100F1800090903F0007349EA0303DFF89C9299F882
:100F28000090C9F3800943EA090343EA080343EA46
:100F38000C0C4CEA0E0E4EEA07073843019B12F4DC
:100F4800007F40EA0B0B4BEA030B14BF4FF4001170
:100F580000218F4B12F4806F4BEA01014FF0000023
:100F680014BF4FF0806B4FF0000B93F8407041EACC
:100F78000B010346BB420CD2864A13F802E0012259
:100F880002FA0EFE1EEA010F1CBF9A4010430133FD
:100F9800F0E709F081FE804B93F8AC0600F069BCDD
:100FA800122009F06DFE7D4B1B88B3F5806F8CBF56
:100FB8004FF008084FF001080027794B33F9170064
:100FC80090FBF8F0013780B209F05DFE032FF4D1F1
:100FD800744F388809F057FE788809F054FEB888AD
:100FE80026E3714BD85D013709F019FE102FF8D1AF
:100FF800C6E4702009F044FE4FF000082B680E2765
:1010080007FB08F73B4408F10108B3F8190109F098
:101018003AFE2B683B44B3F81B0109F034FE2B68F9
:101028003B44B3F81D0109F02EFE2B683B4493F8AE
:101038001F0109F0F4FD2B683B4493F8200109F0E7
:10104800EEFD2B683B4493F8210109F0E8FD2B687D
:101058003B4493F8220109F0E2FD2B681F44D7F8BE
:10106800230109F019FEB8F1080FC7D188E47020F0
:10107800494F09F005FE07F1700897F8D00009F00C
:10108800CEFD97F8D10009F0CAFD97F8D20009F013
:10109800C6FD97F8D30009F0C2FD97F8D40009F00F
:1010A800BEFD97F8D50009F0BAFD073797F8CF00CD
:1010B80009F0B5FD4745E0D162E4102009F0E0FDF4
:1010C80000273A4BD85D013709F0A9FD102FF8D158
:1010D80056E4DFF8E88098F80000400000F0FE00D1
:1010E80009F0CEFD002798F800309F42BFF448ACC5
:1010F8002F4B33F8170009F0C6FD0137F3E709F065
:10110800BFFD002009F0C8FD9AE2042009F0B8FDEF
:101118005CE3072009F0B4FD264B1D4F1888FF2813
:10112800A8BFFF20C0B209F07AFDB86B4FF6FF7870
:101138004045A8BF404620EAE07080B209F0A3FD10
:10114800B7F86C0009F09FFD134BB86A93F8853126
:101158003BB10A2358434045A8BF404620EAE07007
:1011680001E000F30F0080B2F3E20B4F022009F018
:1011780087FD97F8E00109F052FD97F8DF0178E361
:101188006C1400205C14002038100020D01C0020B3
:1011980090070020D10700206C1500204400002093
:1011A8008811002046100020EC0700201C120020A7
:1011B800B0130020F00B0020891E0020481C0020DE
:1011C800D8F80030D24F4B4409F10109187909F0D9
:1011D80026FDB9F1030FF3D13B68D87909F01FFD5B
:1011E8003B68987809F01BFD3B68D87809F017FD33
:1011F8003B68588909F047FD3B68187A39E3C54FC1
:101208001E2009F03DFD3B681B78022B4FF00008BB
:1012180071D13B6803EB880393ED080AB2EE048AA8
:1012280020EE080A0EF0F8FD80F30800C0B209F0BD
:10123800F6FC3B68DFEDB87A03EB880393ED0B0A05
:1012480020EE270A0EF0E8FD80F30800C0B209F08E
:10125800E6FC3B68DFEDB17A03EB880393ED0E0AF9
:1012680020EE270A0EF0D8FD80F30800C0B208F17E
:10127800010809F0D4FCB8F1030FCAD1B8F1070F7F
:101288003B6823D193ED110A20EE080A0EF0C4FD45
:1012980080F30800C0B209F0C2FC3B6893ED120A63
:1012A80020EE080A0EF0B8FD80F30800C0B209F07D
:1012B800B6FC3B6893F84C3000EE103AB8EE400AA2
:1012C8000EF0AAFD80F30800C0B20BE04344587842
:1012D80009F0A5FC3B684344D87A09F0A0FC3B68B8
:1012E8004344587D08F1010809F099FCB8F10A0F48
:1012F800C4D1FFF745BB3B684344587809F08FFCDD
:101308003B684344D87A09F08AFC3B68434408F1B7
:101318000108587D09F083FCB8F10A0FEBD1FFF7FB
:101328002FBB3C2009F0ACFC0027DFF8E8819FEDDB
:101338007B8AD8F8003003EB870393ED080A20EE88
:10134800080A0EF069FD80B209F09DFCD8F800305B
:1013580003EB870393ED0B0A20EE080A0EF05CFD01
:1013680080B209F090FCD8F8003003EB870393EDC6
:101378000E0A20EE080A0EF04FFD013780B209F080
:1013880082FC032FD1D1072FD8F8003018D193ED64
:10139800110A20EE080A0EF03FFD80B209F073FC36
:1013A800D8F8003093ED120A20EE080A0EF034FD4A
:1013B80080B209F068FCD8F8003093F84C000DE0D2
:1013C8003B44587809F05FFCD8F800303B44D87AA1
:1013D80009F059FCD8F800303B44587D013709F032
:1013E80052FC0A2FCFD1FFF7CBBA2F2009F048FCC7
:1013F8004B4F17F8010F00283FF4C2AA09F00FFC61
:10140800F7E7502009F03CFC0027424B1B6803EB30
:101418008708444B98F879200C2101FB02330137E7
:1014280093F8380009F0FBFB98F87A0009F0F7FB0D
:1014380098F87B0009F0F3FB98F87C0009F0EFFBC3
:10144800142FE2D1FFF79CBA482009F019FC4FF09D
:101458000008304B1F68062303FB087708F10108D2
:1014680097F8CE0009F0DBFB97F8C90009F0D7FB25
:1014780097F8CA0009F0D3FB97F8CB0009F0CFFB27
:1014880097F8CC0009F0CBFB97F8CD0009F0C7FB23
:10149800B8F10C0FDDD1FFF773BA4FF000084FF029
:1014A80001094FF0000A204B93F84020924540DA9A
:1014B80041334FF0000B1AF803201A4F0C2307F1A1
:1014C800300103FB0BF3595C914209D13B44586B43
:1014D8000EF0D7FA0246B9F1000F07D14B4607E0E4
:1014E8000BF1010BBBF11C0FE7D11FE080441DE09D
:1014F80093421BDA0C2101FB0B710492496B019397
:10150800C85C09F08CFB019B049A0133F0E700BF2B
:10151800F0130020080F00200000C84200007A44A1
:10152800230A0108240A0108900700200AF1010A89
:10153800B9E7B9F1000F3FF423AA5FFA88F009F080
:101548009FFB4FF00009ACE701311C290ED0CB48B6
:101558000C2200F1300C02FB01F313F80C20724549
:10156800F2D1034493F8380009F059FB013798F891
:1015780040309F42BFF404AAC14B002117F803E092
:10158800E5E7162009F07CFB029BB3F8960109F009
:101598007AFB029BB3F8400109F075FB029BB3F894
:1015A800420109F070FB029BB3F8440109F06BFBA0
:1015B800029BB3F8D80109F066FB002009F02FFB65
:1015C800002009F02CFB002009F029FB029B93F86E
:1015D800850109F024FB029B93F8920109F01FFB97
:1015E800002009F01CFBA74B1B680A20B3F95630F2
:1015F80093FBF0F080B209F046FB029B93F87A0166
:1016080009F00DFB029B93F87E0109F008FB029B91
:1016180093F87D0109F003FB029B93F87F0128E111
:10162800F8B2013709F0FBFA092FF9D1FFF7A8B989
:1016380009F029FB002009F026FB002009F023FB14
:10164800002086E08F4F042009F01AFB3B68B3F8AE
:101658005A0009F018FB3B68B3F8580079E00420F9
:1016680009F00EFB884B9868B1E0874F042009F019
:1016780007FB97F87A0109F0D2FA97F87E0109F08A
:10168800CEFA97F87D0109F0CAFA97F87F01F0E0E1
:101698007D4F072009F0F4FAB7F8800109F0F3FA52
:1016A800B7F8820109F0EFFA97F8840109F0B7FA60
:1016B800B7F886014DE0012009F0E2FA724B58793B
:1016C800D7E0714F042009F0DBFA97F8D60109F04A
:1016D800A6FA97F8D70109F0A2FAB7F8D80138E0C6
:1016E8006A4FDFF8D881387800EB4000C0B209F0C3
:1016F800C7FA4FF000093B78994508F10208BFF492
:101708003FA918F8020C09F08AFA18F8010C00EB46
:10171800800000EB800000F2EE2080B209F0B3FAFE
:1017280009F10109E7E7012009F0AAFA564B93F8F5
:1017380092019EE0082009F0A3FA0027524B3B448F
:10174800013793F8880109F06AFA082FF6D1FFF7F4
:1017580017B909F098FAFFF713B94D4B4A4F93F8A8
:101768006E00C0EBC000C0B209F08AFA494B187885
:1017780097F8F03198427FF403A966E0464F0D20B0
:1017880009F07EFA0AF090F809F049FA388809F069
:1017980083FAF86809F080FA07F0C2F817E04745BD
:1017A800BFF6EEA808ABD85D09F039FA0137F6E7BD
:1017B800132009F065FA0027384BD85D013709F086
:1017C8002EFA0B2FF8D1002009F066FA002009F054
:1017D80063FAFFF7D5B8324BF05808F033FE18B962
:1017E800322008F0D6FDF6E708F098FF05F034FE41
:1017F8002C4B2D4ADA60FFF7D2B80C2800F0E084B1
:101808000A2840F0E184294D294809F0C3FA2846FE
:1018180023210EF028F908B1401B20602368002B13
:1018280040F0D68421482360002130220EF0E5F8EC
:101838003B78002B40F001851E4B9B68002B00F085
:1018480023851D48984700F01FBD09F0E8F9B7F84F
:10185800F20109F018FA97F8F40109F0E0F997F89D
:10186800F50109F0DCF997F8F70109F0D8F997F8CC
:10187800F60109F0D4F9FFF783B800BF240A01087C
:10188800D1070020080F00206C150020481C0020FC
:1018980090070020F40B0020340000206323010887
:1018A800D414002000ED00E00400FA05D40E002056
:1018B800C6310108BC1000200E0800200C170020BB
:1018C8004C2B1DD109F08CF9D34F87F8D60109F0BC
:1018D80087F987F8D70109F08FF9A7F8D8010AE046
:1018E800D42B00F04D83D22B40F06484CB4B1B7873
:1018F8005B0740F18C83002009F0C2F9FFF740B87C
:1019080000F27B81352B27D109F06AF90B28804634
:1019180002D909F015FFEEE7C14B1F6809F060F91D
:101928000328F6D8062303FB087787F8CE0009F0CA
:1019380057F987F8C90009F053F987F8CA0009F080
:101948004FF987F8CB0009F04BF987F8CC0009F07C
:1019580047F987F8CD00CEE700F2A680292B11D1F0
:1019680009F04AF9AC4FA7F8800109F045F9A7F842
:10197800820109F035F987F8840109F03DF9A7F8E3
:101988008601B8E75AD8252B08D1A34F0023BB609E
:1019980009F03CF9BB681843B860ACE7272B0DD1B8
:1019A80009F02AF99C4FA7F8580109F025F9A7F87A
:1019B8005A0109F021F9A7F85C019CE7232B40F0B4
:1019C800F98309F00DF913288146A2D8DFF850826F
:1019D800D8F8007009F004F9002292490C23534307
:1019E80001EB030E9EF838E0864523D10B440FFA2D
:1019F80089F907EB890793F8303087F8793009F0CF
:101A0800EFF887F87A0009F0EBF887F87B0009F01F
:101A1800E7F8854B87F87C00D8F800009867834A78
:101A28005A677930002103F06BF9814B80F001008F
:101A3800187060E701321C2ACFD16AE72D2B23D119
:101A480009F0CEF8DFF8D08188F8900109F0D4F8D1
:101A5800A8F89A0109F0D0F8A8F8960109F0CCF88E
:101A6800A8F8980109F0BCF83B6888F891015B79FF
:101A7800082B7FF640AF09F0BFF8A8F89C0109F0E1
:101A8800BBF8A8F89E0136E7332B05D109F0A8F872
:101A9800614B83F892012EE72B2B40F08B8309F0E2
:101AA8009FF85D4B587126E73E2B09D109F098F84D
:101AB800594F87F8E00109F093F887F8DF011AE732
:101AC80059D8392B11D109F08BF8534F87F87A017F
:101AD80009F086F887F87E0109F082F887F87D0119
:101AE80009F07EF887F87F0105E73C2B0BD14C4FB6
:101AF800D7F8008009F074F888F800003B68187877
:101B080007F0AEFCF7E6372B40F0548353790727EC
:101B1800B3FBF7F2C2EBC2029A1A12F0FF0F7FF47E
:101B2800F8AEB3FBF7F7013FFFB2FF2F3FF4E3AE88
:101B380009F056F85FFA80F94FFA89F002F094FF3D
:101B4800804600283FF4E5AE80F8009009F054F88C
:101B5800A8F8020009F044F888F8040009F040F8F1
:101B680088F8050009F03CF888F8070009F038F80B
:101B780088F80600D7E7432B23D109F031F8264F20
:101B88000023BB60787109F041F8BB681843B8605E
:101B980009F026F887F8900109F02EF8A7F85801FF
:101BA80009F02AF8A7F85A0109F026F8A7F85C0105
:101BB80009F022F8A7F8800109F01EF8A7F88201B9
:101BC80099E60DD8412B40F0F582002709F008F876
:101BD800114B3B440137082F83F88801F6D18AE678
:101BE800442B04D1104B012283F87C2083E6482B38
:101BF80040F0E08209F03EFF7DE6D02B1AD1074B7A
:101C08001B7858073FF577AE0AF04EF805F04EFC02
:101C180005F00AFD6FE600BF6C150020891E002044
:101C2800080F0020240A010890070020AC160020A5
:101C38000000002000F28E81CC2B50D15379092B63
:101C48007FF667AE039BD3F8008008F0C9FF039BBB
:101C580088F80000D3F8008008F0C2FF88F8010077
:101C680008F0BEFF039B64281B68A8BF6420187196
:101C780008F0B6FF039B64281B68A8BF642058714E
:101C880008F0AEFF039BFF281B68A8BFFF209871D0
:101C980008F0A6FF039B6428D3F8008028BF6420BF
:101CA80088F8070008F09CFF039B88F80200D3F827
:101CB800008008F095FF039B88F80300D3F80080A4
:101CC80008F09AFF3B68A8F80A005B790A2B7FF6B0
:101CD80012AEDC4B1F6808F083FF38720BE600F287
:101CE800DC80C82B15D157797F08122F3FF611AE2B
:101CF8004FF00008B84507D208F07EFFD24B23F812
:101D0800180008F10108F5E7D04B012283F872208A
:101D1800F1E5CA2B40F09280CD4F3B681B78022B2F
:101D28004FF000086FD1D7F8009008F059FF07EE80
:101D3800900AF8EE677AB2EE048AC7EE887A09EB61
:101D48008809C9ED087AD7F8009008F049FF07EE2E
:101D5800900A9FEDC07AF8EE677A09EB8809C7EE1A
:101D6800877AC9ED0B7AD7F8009008F039FF07EEAB
:101D7800900A9FEDB97AF8EE677A09EB8809C7EE01
:101D8800877A08F10108B8F1030FC9ED0E7ACAD1B4
:101D9800B8F1070FD7F800901CD108F021FF07EE23
:101DA800900AF8EE677AC7EE887AC9ED117AD7F803
:101DB800009008F015FF07EE900AF8EE677AC7EE74
:101DC800887AC9ED127AD7F8009008F009FF89F8E7
:101DD8004C0012E008F004FFC14489F80100D7F86C
:101DE800009008F0FDFEC14489F80B00D7F8009078
:101DF80008F0F6FEC14489F8150008F10108B8F1A9
:101E08000A0FC5D177E5D7F8009008F0E9FEC1447C
:101E180089F80100D7F8009008F0E2FEC14489F87B
:101E28000B00D7F8009008F0DBFEC14408F1010868
:101E3800B8F10A0F89F81500E5D15CE54E2B40F0A2
:101E4800B98157790323B7FBF3F7122F3FF661AD3A
:101E5800DFF810824FF00009B945BFF44CAD08F027
:101E6800BFFE88F8A00108F0C7FE40F2ED239842B3
:101E780005DD40F6CA039842A8BF184601E040F2C3
:101E8800EE20A0F2EE20192309F1010990FBF3F0EE
:101E980008F1020888F89F01DEE7CE2B0AD16F4BC4
:101EA8001B785A073FF527AD6D4A137843F00403B2
:101EB800137020E544D908F09FFE6FF4AF67C3198B
:101EC8009BB2C62B9CBF674BA3F8960108F094FE03
:101ED800A4F8400108F090FEA4F8420108F08CFE36
:101EE800A4F8440108F088FEA4F8D80108F078FEA8
:101EF80008F076FE08F074FE08F072FE84F885019A
:101F080008F06EFE84F8920108F06AFE504B1F68D4
:101F180008F072FE00EB80004000A7F8560008F0B9
:101F28005FFE84F87A0108F05BFE84F87E0108F011
:101F380057FE84F87D0108F053FE84F87F01DAE447
:101F4800464B1B7859073FF5D6AC474B4FF4C87240
:101F58001A80D0E4D62B09D1002708F04DFE434B58
:101F680023F817000137082FF7D1C4E45BD8D32B27
:101F78007FF4B6AC08F040FE344BA3F87000BAE426
:101F880053790F2B7FF4C5AC08F02AFE07280746C3
:101F98003FF6BFACDFF8B880D8F8009008F02CFE08
:101FA8000E235F43B944A9F81901D8F8009008F046
:101FB80023FEB944A9F81B01D8F8009008F01CFECC
:101FC800B944A9F81D01D8F8009008F009FEB944F1
:101FD80089F81F01D8F8009008F002FEB94489F882
:101FE8002001D8F8009008F0FBFDB94489F82101D8
:101FF800D8F8009008F0F4FDB944D8F8008089F8C2
:10200800220108F003FE4744C7F8230173E408F0EF
:10201800E7FD144B022883F8AC067FF6F7AD0022E3
:1020280083F8AC26F2E5EF2B22D1094FD7F80080D0
:1020380008F0E2FDA8F85A003F6808F0DDFDA7F8AF
:10204800580058E4F0130020B01300209007002037
:10205800080F00200000C84200007A44891E0020B2
:10206800BC1100206C1500203A110020F413002048
:102078006DD8D82B40F09E800027DFF844829FED72
:10208800858AD8F8009008F0B7FD07EE900AF8EEB8
:10209800677A09EB8709C7EE887AC9ED087AD8F814
:1020A800009008F0A9FD07EE900AF8EE677A09EBB0
:1020B8008709C7EE887AC9ED0B7AD8F8009008F03E
:1020C8009BFD07EE900AF8EE677A09EB8709C7EEE1
:1020D800887A0137032FC9ED0E7ACED1072FD8F8A9
:1020E80000901CD108F088FD07EE900AF8EE677A98
:1020F800C7EE887AC9ED117AD8F8009008F07CFD0F
:1021080007EE900AF8EE677AC7EE887AC9ED127A78
:10211800D8F8009008F070FD89F84C0012E008F03B
:102128006BFDB94489F80100D8F8009008F064FD07
:10213800B94489F80B00D8F8009008F05DFDB9445F
:1021480089F8150001370A2FC8D1FFF7D4BBF22B45
:1021580029D108F045FD0F2807463FF6DAAB08F00D
:102168003FFD4D4BC7EBC7071F4487F8D00008F069
:1021780037FD87F8D10008F033FD87F8D20008F062
:102188002FFD87F8D30008F02BFD87F8D40008F05E
:1021980027FD87F8D50008F023FD87F8D60008F05A
:1021A800FDFAFFF7A8BBFA2B04D13C4B1B785B0761
:1021B8007FF52CAD09F0C4FAFEF7E2BB0C284AD132
:1021C800374808F0E7FD38E00D2838D1FFF71BBB8A
:1021D8005A1EA95C202902D11346FFF720BB314AB9
:1021E80023600021D154304B304DD3F800A0D5F8EE
:1021F80000B0DFF8B09058460DF043FC0646324672
:10220800484659460DF046FC294A28B919F80630BF
:1022180053445B78590703D010359542E7D306E05D
:10222800954204D2701CEB684844984702E0214864
:1022380008F0B0FD0023FFF7F5BA1F4807E07F2834
:102248000DD1013B174A1D4823600021D15408F0E5
:10225800A1FDFEF7CCBA7F2804D1FEF7C8BA2F2B10
:102268003EF6C5AAA0F12002D2B25E2A3EF6BFAA67
:1022780013B920283EF4BBAA5A1C2260094AD0543C
:1022880008F080FDFEF7B3BA29B0BDEC028BBDE8BB
:10229800F08F00BF00007A446C150020891E0020D2
:1022A800E7240108D40E0020B0000020240C010807
:1022B800C40D0108F2240108E22401080E250108D2
:1022C800080F00202DE9F04F2DED068B6E4D6F4B5A
:1022D8002B60A7B000236B6009F0C3FC18B909F0A4
:1022E800E3FC05F0E3F805F09FF9694A694C1378B7
:1022F80043F001031370684B4FF47002C3F8882051
:10230800002309930A93236843F4803323602368E6
:1023180003F400330A93099B013309930A9B1BB901
:10232800099BB3F5A04FF2D1236813F4003318BF0B
:1023380001230A930A9B012B7CD0574F574BFB6014
:10234800636AAB60636ADFF88CB1DFF88C91DFF801
:102358008C8143F080736362636943F4FC0326AEA7
:10236800636103238DF84A3041F6FF7326F8503D28
:102378004FF09040314605F00DFD4FF6FF7358467B
:102388003146ADF8483005F005FD4548314605F0C1
:1023980001FD4448314605F0FDFC4348314605F04F
:1023A800F9FC3146414805F0F5FC304601F0C4FD22
:1023B800129B3F4AB3FBF2F33E4A13603E4B3F4A3F
:1023C8004FF0000AC3F800A03D4B5A60F02287F88E
:1023D800232007223B4FC3F808A01A60D9F8083019
:1023E800C8F8003097E80300636986E8030043F4FF
:1023F800802363610823CBF8183013A9129805F0DD
:10240800C9FC642007F0C5FFC8222F4851460DF0CB
:10241800F4FAE3692D4A43F00703E361A36943F43F
:102428002053A361636943F4C023636102F1700E12
:10243800039755E0264B12221A606368636063684D
:102448006360636843F480636360636823F47C13A8
:102458006360636843F4E8136360236843F0807340
:10246800236022680B4B9601FBD55A6822F00302C1
:102478005A605A6842F002025A60636803F00C031B
:10248800082BFAD159E700BF10080020D56D0008C5
:102498006A1E00200010024000ED00E00005FA0569
:1024A80000080048000C00480010004800140048CC
:1024B80040420F0014120020181200203F1901009A
:1024C80010E000E0A40B0108681200203026010883
:1024D80000200240000400486C1500201014002061
:1024E800937BD17B03F00700800001FA00FC516860
:1024F800DB0801EB83034FF00F0A196A0AFA00F0B0
:1025080021EA00011962196A10324CEA0101724588
:102518001962E5D10023DFF874A30AF10C02002147
:1025280099540133072BF6D1FF238AF813308AF820
:1025380014308AF815308AF816308AF81730C24BEA
:10254800C24FC34A1F6001231370C24804930C2270
:102558000DF053FAC04A99F805B082F800B0BF49A7
:10256800D8F80080049BA7F5EF72CAF81820A7F5E1
:102578008F720A60BA4A02EBCB0218F0200F527829
:10258800CAF81C2018BFCAF81C300023B54A40F20C
:10259800DC5122F813100133082BF7D13046002103
:1025A8001C220DF02AFABBF10E0F04D00BF0EF0B32
:1025B800BBF1080F02D101238DF85A30022002F036
:1025C80053FA18B14088003018BF0120C8F34003FF
:1025D8008DF84E30C8F380138DF85130C8F340336E
:1025E8008DF84830C8F3C03300F001008DF84B3047
:1025F80018F400638DF84D0004D099F88431581E02
:10260800434243418DF84C30C8F300438DF85230B3
:10261800EB69B9F84401ADF85E00003318BF012337
:102628008DF85330C8F300538DF85430B9F846315B
:10263800ADF85830B9F85231ADF8563018F4805F1B
:10264800C8F3804318BF88488DF84F30C8F340530B
:102658008DF85030B9F850311CBFB0F84C01ADF8C6
:102668005E00B3F5FA7FADF85C3084BF0023ADF8A7
:102678005E307E4899F8D43185F82030002385F8FB
:10268800213043709DF85A3008F00101002BC8F33F
:10269800C0028DF849108DF84A200CBF0023022390
:1026A80001B902B10133039A02EB83074FF0000925
:1026B800BB68A3F1020B0C3304933BF8023F4FF6BF
:1026C800FF72934200F026811A0A022A02D19DF86D
:1026D800481003E0012A04D19DF84910002900F0B0
:1026E8001581DFF898A19DF85400DBB24FEA031872
:1026F8000AEB0806514630B19DF85A0018B9043B58
:10270800032B40F2EC80012AD0B23BD1FF2385F89D
:10271800683085F8693001EB0803002703F10802E7
:10272800597B58681B89ADF834308DF83610022370
:102738000DA985F86C70AE678DF83730039285F86F
:102748002470AF62EF622F636F6685F86A7085F850
:102758006B7005F01FFB039A5AF8080091783A4607
:1027680005F04AFA304608F0D5FE414B4149EB677F
:10277800414BC5F88030C5F8847030460A1D07F013
:10278800B1F8C3E0022845D15FFA89F34FF01C0A7B
:102798000AFB03F3EF180393384B87F86D90012178
:1027A80087F86C1003EB08014FF0000AD1F804C059
:1027B80091F80DE08DF8370001F108020989ADF8AC
:1027C800341060460DA987F86EA087F876A0BE671A
:1027D8008DF836E00693059205F0DCFA069B059A1B
:1027E80053F808009178524605F006FA304608F08A
:1027F80091FE2349F9672349C7F88010039B1D49B7
:10280800C7F884A0194430460A1D07F06BF809F18F
:1028180001097BE0032860D19DF84F301A4F3BB186
:1028280095F82280304608214FF6FF72002348E0D1
:102838009DF85020BDF85E3052B395F8228030469E
:1028480008214FF4FA623CE0540E00205A17002089
:10285800FE070020F40B00201C030020AC1300200E
:1028680048270108EC0700206C15002031080020DB
:10287800757900088C080020557A00083026010870
:10288800FD7C00084D790008341200201008002053
:10289800BDF85C2095F82280B2F5FA7F0BD96B4918
:1028A800B1FBF2F23046082192B205F09CFA684B6F
:1028B80047F828000AE06749B1FBF2F230460121E7
:1028C80092B205F090FA644B47F82800C36095F877
:1028D8002230013385F8223018E0042816D195F803
:1028E8002170BDF856205B4B93FBF2F23046BDF8E1
:1028F8005830012192B205F076FA95F8213005EBAF
:1029080087070133C7F84C0185F82130049B9B45A4
:102918007FF4D3AE95F8212085F86C214F4A504BAF
:102928001778A7F117020026022A1E709E461AD8A9
:10293800AB693344D3ED007AF5EE407AF1EE10FA44
:1029480002D1EB6963BB26E0464A06EB020C0FCBCB
:102958008CE80F009EF8003010360133C02E8EF838
:102968000030E5D1EDE7404B13F837C08EF800C0D2
:1029780003EBC703D3F80480B8F1000FE1D0664534
:10298800DFDA384A330103EB020943440FCB01363F
:1029980089E80F00F3E7354D2B68D90424D41DE0EE
:1029A800334B344A13F83700107003EBC7035D68E4
:1029B800002DF0D000238342EDDAC3EBC3016A187F
:1029C800DFF8BCC0D2F8008041F80C8001EB0C069F
:1029D8009188B1809279B2710133ECE707F0EF0387
:1029E800082B254B20D121E09EF80020012AF5D99B
:1029F800224B03EB0212103210339342EED053ED08
:102A0800047AB6EE007A67EE877A43ED047A53EDDE
:102A1800057A67EE877A43ED057A53ED037A67EE18
:102A2800877A43ED037AE7E70E2F08D11A7842F048
:102A380010021A70182F25D107F0B0FE22E01A787C
:102A480022F010021A70192FF5E700BF00127A0061
:102A5800757A000840420F00657A00081C030020C0
:102A68006412002058020020482701081014002092
:102A7800880E010838130020BC11002060020020D5
:102A88003913002007F06EFE2B68AC4E5A035EBF68
:102A9800AB4B01221A70337843F004033370A369F7
:102AA80043F48053A361E36843F48053E3606369AC
:102AB8004FF0904543F4003363612B6A23F47003AD
:102AC8002B622B6A43F4A0032B622B6A23F07063FA
:102AD8002B622B6A43F0A0632B622B6A23F07043AE
:102AE8002B622B6A43F0A0432B622B6A23F47023DA
:102AF8002B622B6A43F4A02300272B624FF0020AB3
:102B08004FF0030BE02328460BA94FF001090B9364
:102B18008DF830A08DF831B08DF832708DF83370A3
:102B280001F078FB102328460BA90B938DF8309001
:102B38008DF831B08DF832708DF8337001F06AFB82
:102B4800E268804D42F48052E260E2684FF4E0634C
:102B580022F48052E260ADF838304FF40073ADF8DB
:102B68003E3007234FF4827CADF8443004934FF095
:102B78001003ADF836C0ADF84030ADF83470ADF89C
:102B88004270ADF83AA0ADF83C90AA88CDF814C0D0
:102B980022F480521204120CAA80AA8892B242F43B
:102BA80080520DF13408AA802846414601F0E6F823
:102BB8002A8892B242F040022A80E269624D42F4C9
:102BC8008042E261226942F480422261626942F4F1
:102BD800802262616A6A22F470026A626A6A42F456
:102BE800A0026A626A6A22F070626A626A6A42F0E5
:102BF800A0626A626A6A22F070426A626A6A42F095
:102C0800A0426A626A6A22F470226A626A6A42F4BC
:102C1800A0226A6228464FF460420BA90B928DF8F5
:102C280030A08DF831B08DF832708DF8337001F026
:102C3800F1FA4FF4805228460BA90B9203928DF8B3
:102C480030908DF831B08DF832708DF8337001F016
:102C5800E1FA2169DDF814C041F48041216121695C
:102C68004FF4E06321F480412161ADF838304FF42E
:102C78000073ADF83E304FF01003344CADF84030DF
:102C8800049BADF83470ADF836C0ADF83AA0ADF895
:102C98003C90ADF84270ADF84430A38823F48053DB
:102CA8001B041B0CA380A3889BB243F48053A3800E
:102CB8002046414601F062F82388039A9BB243F00C
:102CC80040032380224CAA61B4F85831002B40F00D
:102CD800F484B4F95A21002A40F0EF84B4F95C2155
:102CE800002A40F0EA841B4B1B481B681B4DB3F8B5
:102CF8005630039300210C2294F85FB10CF07DFE4E
:102D08001422174800210CF078FE164A95F87471C1
:102D180000231370144BC5F870319146049337B1F2
:102D28000023A5F876310FBB08F0FAFE1EE008F084
:102D380053FF002800F00A81F2E700BF6A1E002056
:102D48008807002000300140000400480038004097
:102D58006C150020080F00206014002010080020C7
:102D6800BC100020D0100020BC0B0108684A138852
:102D780023F040031B041B0C1380138823F0380333
:102D88001B041B0C43F03003138013889BB243F0E1
:102D98004003138095F87811192006F047FC0120AC
:102DA80007F0ECFA00211A2006F040FC012007F099
:102DB800E5FA404608F01CFD9DF93630013303D191
:102DC8009DF93430013303D0B5F876319BB21BB18D
:102DD8000023A5F87631B9E04E4F4F4B3B604F4B7F
:102DE8007B604F4BFB6064204E4B3B6107F0D1FA90
:102DF80004234D4989F8003006230B704B4B059787
:102E08001A6842F001021A608A465A461F46484B21
:102E18000021092A19709B4601D90A46F7E70123C0
:102E2800934040F20231194051BB13F0FD0F27D0F7
:102E3800049BC5F8703195F8743133B10022A5F8B8
:102E4800762153B908F06CFE07E00793069208F064
:102E5800C3FE069A079B98B1F0E7364B364A1A60CC
:102E68006420364A5A6007F094FA04238BF800303D
:102E780007238AF801303B6843F002033B6003E014
:102E8800012A01D90022C2E73B689B0702D5294BDA
:102E98001B6898472A4B4FF4FA721A60059B4FF04B
:102EA800000A1B6885F878A19847264B94F85421A6
:102EB80083F800A00AB189F8002094F855210AB1D6
:102EC8001B490A7094F8562102B11A703B6818071A
:102ED8001AD5BDF90C10DFED1C6A642291FBF2F3E0
:102EE80002FB131212B207EE902AB8EEE77A07EE49
:102EF800903AF8EEE77AE7EE267AB2EE047A67EED1
:102F0800877AC5ED5F7A24E00023C5F87C3120E09C
:102F180000300140BC10002075B80008F9B700085F
:102F280079B7000890C1793DA80000205C14002002
:102F3800851E00206014002061B8000891B70008C1
:102F48005C100020821E00208988883C012007F040
:102F58002AFA337843F002033370BE4B08229A6191
:102F68000A27DFF8F092B9F814309BB283F008030F
:102F7800A9F81430192007F00CFA013F192007F0BE
:102F880008FA17F0FF07ECD10823C9F81830B24B3C
:102F98009FEDB28AD3F80090DFEDB18A99F80C3032
:102FA80000EE103AB8EEC00A20EE080A04F024FA3F
:102FB800AC4B83ED000AAC4B1B8807EE903AF8EE59
:102FC800E77AB7EE007AC7EE277AA84BB0EE680A20
:102FD800C3ED007AA64BD3ED047AA64B67EE887A48
:102FE800C3ED007A99F8003007EE903AF8EEE77AE8
:102FF800A14BC7EE277AC3ED007A77EE677A9F4B2D
:10300800C3ED007A9E4B83ED027AC3ED008AC3EDCF
:10301800018A9C4B83ED027AC3ED008AC3ED018AD5
:1030280004F0EAF9B0EE408AB0EE680A04F084F9D8
:1030380020EE006A68EE086A66EE007A924BE6EEC9
:10304800887AFF211B2220EE087AC3ED007A67EE0A
:10305800007AF0EE675AD7EE085AE7EE087A28EEBB
:10306800468AC3ED015AA6EE808AC3ED027A83ED43
:10307800038A864B1F70864B18460CF0BEFC854AA7
:10308800DFF838E212680770012112F0020F8EF89B
:1030980000101FBF417003218EF80010022118BFD5
:1030A8008170510741BF9EF800104F1C8EF80070C8
:1030B800032748BF475412F00A0F73460ED09EF8F4
:1030C800002004218154511CC9B205274754D11C42
:1030D8000232D2B28EF80010062181546E4A11686D
:1030E8008A0641BF1A78571C1F70072748BF8754A4
:1030F8006779082F01D00E2F08D11A7802F1010E36
:1031080083F800E04FF00B0E00F802E01A7811F097
:10311800040F4FF00C0C00F802C002F1010E1CBFA6
:10312800DFF898C102325FFA8EFE83F800E01FBF15
:103138008CF80020564A4FF0100C02F80EC01A788E
:1031480002F1010E5FFA8EFE4FF0120C11F4806F3F
:1031580083F800E000F802C00ED094F8F8C1BCF182
:10316800000F09D0DFF854C102328CF80020484A19
:103178004FF0130C02F80EC08A0541BF1A7802F10D
:10318800010E83F800E04FF0150E48BF00F802E08A
:10319800182F13D11A784FF0160E00F802E002F13A
:1031A800010E5FFA8EFE4FF0170C00F80EC002F108
:1031B800030E0232D2B283F800E087540A0341BFFB
:1031C8001A78571C1F70192748BF8754CF0541BF6D
:1031D8001A78511C19701A2348BF83540021982269
:1031E8002E480CF00AFC08F0CFF92D4B2D4A1A6036
:1031F8002D4BB4F84E1119802C4900230B808B708D
:103208002B490A60B4F8962190B22A4921F8130094
:103218000133122BF9D1204F3B68D8045CBFB4F8B6
:103228009C0108801B0740F1FF8094F89031062B21
:1032380000F2F480DFE803F00407467590AEAE00B4
:1032480045F2F05201E042F6F8221B4B1A8008F0D2
:1032580036FAE2E000040048C011002035FA8E3C3E
:1032680000000000B8110020440000206811002070
:10327800BC1000206C110020D4110020C4110020C3
:10328800D8110020C8110020A81100202611002004
:10329800D10700205C14002010140020D414002052
:1032A800C0010020F4160020C401002020140020D2
:1032B8000C140020B013002032020020D007002098
:1032C800CDCCCC3F07EE902A5FED036AB94BB8EE40
:1032D800E77ADFEDB97AE7EE267A42F6F821198027
:1032E8000023FCEEE77AB54A17EE901A42F823104D
:1032F8000133122BF7D1B24AB2491160B24A4020C9
:10330800137001F06BFC002800F0888001234FF057
:10331800070C90F90000AD4A8DE808104021AC4B2D
:1033280076E0A44B42F6F8221A80A54BA94A1A6007
:10333800A54B102240201A7001F050FC00286DD0D7
:1033480001234FF0000E90F90000A34A8DE80840D1
:1033580040214FF4E1335BE0964B42F6F8221A80A5
:10336800974B9E4A1A60984B082240201A7001F029
:1033780035FC002852D00121002390F90000984A1A
:103388008DE80A0040214FF4E13301F043FAC5F813
:1033980080013FE0874ADFF884C2DFF884E2914881
:1033A80042F6F821118088490C22062B0A7010D0A9
:1033B80000238CF800308EF8003003708A4B1B21F4
:1033C80019708A4B1A708A4B05221A704FF4E1392A
:1033D8000EE0002101708CF800108EF80010824970
:1033E800DFF840922120087080490A70804A1370E3
:1033F800734B804A1A60402001F0F0FB70B1012243
:10340800002390F900008DE80C007B4A40214B46D0
:1034180001F000FA003018BF012028B9082004F094
:1034280013F8674B754A1A603A68674B12F4804F75
:103438001FBF082119706249714818BF086042F21D
:103448000101114002F0010002F4005E89B1594AFD
:1034580044F620611180BEF1000F04D008221A70D2
:10346800574A6849116020B10C221A70544A6649BB
:1034780011601A78DFF8B091043A5A70B9F8003040
:1034880023F040031B041B0CA9F80030B9F80030E6
:1034980023F038031B041B0CA9F80030B9F80030DE
:1034A8009BB243F04003A9F800304FF0000A9F2375
:1034B80032208DF82C308DF82DA08DF82EA08DF8A7
:1034C8002FA006F066FF8DF835A0DFF860A14FF455
:1034D800805B0BAA0423AAF828B04846414604F0AA
:1034E80093FDCAF818B09DF836209DF835301202C1
:1034F80042EA03429DF837301A43444B9A42444B00
:1035080017D008D843498A420CD001F51A41023134
:103518008A4209D01BE040498A4205D001318A42DB
:1035280007D014E0202200E080221A804FF4807235
:1035380002E04FF480721A805A809A881988120221
:103548009A604A43DA60012285F8842104E0002267
:103558001A805A809A60DA60DB68002B68D04FEADC
:10356800D32AD3464FF0000CD4450FDA0CEB0A09E6
:103578004FEA69094FEAC92041461022CDF80CC02C
:1035880008F0A4FA0F28DDF80CC006DC04F032FEBF
:103598004FEACB23C5F888314AE0002358F82320A6
:1035A800013240F086800133042BF7D1CA46CB465E
:1035B800DAE700BF320200200000B0C4500A002041
:1035C800A0000020CD390008481C0020193C000844
:1035D800A0860100B93900086D3B0008A139000830
:1035E800213B0008A00A0020A20A0020DB090020D5
:1035F800A30A0020BD380008013A0008EDA8000819
:10360800C1A80008DDA80008CDA8000818BA200045
:1036180034000020152020001740EF00DC090020AE
:10362800A10A002090D003000038004000040048A0
:103638003B68594A13F4002318BF0123137006F09E
:1036480081FE564B18606379052B02BF544B4FF42B
:10365800C8721A80534B4FF47A721A80524A137800
:1036680043F008031370514A137823F002031370D0
:103678003A6840F6020313406BB14D4B4D4A1A604D
:103688004D4B03221A704D4B01221A704C4A0023ED
:1036980013804C4A1380A3683B604B4B01221A707D
:1036A800337863F07F03337027B0BDEC068BBDE839
:1036B800F08F09F1010CD94679E71BB208EE103AF0
:1036C800B4F95A31DFED417A414A09EE103AB4F9BA
:1036D8005C31B8EEC88A08EE903A28EE278AB8EE30
:1036E800C99AF8EEE88A0021B0EE480A29EE279A2E
:1036F80068EEA78A117003F07FFEF0EE409AB0EEF4
:10370800480A03F019FEB0EE408AB0EE490A03F009
:1037180073FEB0EE40AAB0EE490A03F00DFEF0EEDB
:1037280040AAB0EE680A03F067FEB0EE409AB0EE29
:10373800680A03F001FE60EE296A68EE097AF0EE85
:10374800665AE7EEAA5A234B29EE296A28EE007A30
:10375800C3ED035AF0EE465A2AEE400AE7EE6A5ADB
:10376800E6EEAA7AA6EE6A7A29EE0A9A83ED010AAB
:1037780028EE4A8A2AEE290A83ED009AC3ED02AAA6
:10378800C3ED045A83ED058A83ED067AC3ED077A03
:1037980083ED080AFFF7A7BA0412002004020020EC
:1037A8003A110020801E0020BC110020891E002034
:1037B8005C0B0020E616002058140020AC00002006
:1037C800A8070020AA0700208807002035FA8E3CA9
:1037D80032000020380B002010B5214A18B91368B0
:1037E80002221A8210BD1F48146800230380217822
:1037F80011F07F0102460DD1637A990644BF022178
:10380800017013F0400F037814BF43F0010323F055
:10381800010315E0012921D002291ED1637913F093
:10382800800F03F00F034FEA830303F1804303F58E
:10383800B8431B6806D003F03003102B07D10123CF
:10384800137004E003F44053B3F5805FF6E7064BCA
:103858001B681B699847034810BD184610BD00BF78
:1038680084140020A0090020F411002010B5064C93
:1038780018B9236801221A8210BD044B1B689B6883
:10388800984720680C3010BD84140020F4110020E3
:1038980010B5064C18B9236801221A8210BD044BD2
:1038A8001B681B68984720680A3010BD84140020E4
:1038B800F411002003788B4283BF034B03EB4101D3
:1038C80048880020704700BFA009002070B500227A
:1038D8001346244914180C44A47E83EA04230824BC
:1038E80013F4004F4FEA430318BF83F4815304F1E4
:1038F800FF3418BF83F0010314F0FF049BB2EFD12B
:103908000132192AE5D100F1190200F11A050A4419
:103918000D44967EAA7E02EB062292B29A421FD1ED
:10392800104B93F83B50E2B2AA4216D2431C03EB69
:103938004203DBB2CA1801330B44927E9B7E03EB31
:1039480002239BB24FF4AF6253431B13064A03F59D
:10395800487322F814300134E5E7012381F83C303C
:1039680070BD00BFA0090020A209002003788B4287
:103978000BD9074B1A78074B89001944086C02B118
:10398800400800F5777080B270470020704700BF8C
:103998004C1C0020A009002007299DBF034B03EB06
:1039A8008101B1F870000020704700BFA009002015
:1039B800034B03EB4101B1F89000C008704700BF0A
:1039C800A00900200A4BDFED0B7A03EB810191ED92
:1039D8002C7AB8EE477AF6EE046AE7EE267A82B0D9
:1039E800FCEEE77ACDED017ABDF8040002B070472D
:1039F800A009002000005C4470B5334C054606F071
:103A0800A1FCD4F8F830C4F8F800C31AB3F5FA5F8B
:103A1800C4F8FC3082BF002384F8003184F80131F7
:103A280094F800312BB9A12D02BF274A012182F851
:103A3800011194F80111244A29B1D118EDB20133CA
:103A48008D7682F8003194F8005194F80231AB4237
:103A580039D11D4B93F80331052B02D0062B03D027
:103A68002CE00020FFF732FFE37E1E2B26D100203A
:103A78000246C1B26B1E994219DA21448B7E082195
:103A8800DBB283EA0206F60744BF83F01803C3F3E8
:103A9800460301F1FF3154BF5B0843F0800311F086
:103AA800FF01C2F34702ECD101301A46E1E7234493
:103AB8009B7E9A4202D10320FFF708FF002384F877
:103AC800013184F8003170BDA009002010B504460A
:103AD80006F038FC0F4BD3F80421C3F80401821A0E
:103AE80041F288318A42C3F8082184BF002283F852
:103AF8000C2193F80C21074913440F2AE4B218BF8C
:103B0800013283F80D4112BF81F80C21012381F89D
:103B18001D3110BDA009002010B5044606F012FCA6
:103B28000F4BD3F82021C3F82001821A41F28831C3
:103B38008A42C3F8242184BF002283F8282193F8FD
:103B4800282107491344142A18BF013283F8294150
:103B580012BF81F82821012381F83E3110BD00BF32
:103B6800A009002038B5044606F0ECFB274A27498F
:103B7800D2F84031C2F84001C31AB3F57A6F84BF56
:103B8800002382F8443192F8443133B9A82C3BD150
:103B980081F84531A1F8463106E0022B02D181F8BF
:103BA800484101E0242B02D8D11881F8494192F804
:103BB8004811164D01330231DBB249008B4282F8BD
:103BC800443118DAB5F84631E0B283EA0020082318
:103BD80010F4004F4FEA400018BF80F4815003F101
:103BE800FF3318BF80F0010013F0FF0380B2EFD15C
:103BF800A2F8460138BD01318B4201BF002385F888
:103C08004431012385F8453138BD00BFA0090020A3
:103C180010B5044606F096FB104AD2F8703140F60B
:103C2800AC51C31A8B42C4BF002382F8743192F896
:103C38007431D11881F8754123B90F2C0DD107497A
:103C4800C1F870010133DBB2192B044982F87431D1
:103C58000CBF0123002381F88E3110BDA00900207C
:103C680008B50020402105F016FF094B1B68187A9B
:103C7800082801BF074B4FF480521A80064B04BF37
:103C880010221A80A0F109035842584108BD00BF0C
:103C980084140020F0110020F2110020314B2DE98E
:103CA800F0411C68228A267AB2B9042E14D12E4D0E
:103CB8002E482B78012B0BD12D4B19682D4B89B22F
:103CC8000B445B0019681A60302303802A7045E0B2
:103CD80010230380072641E0A58AA369AA4294BF5E
:103CE80004260226954228BF1546AFB238469847A3
:103CF8001F4A13689BB203F1005303F540535B005E
:103D080005F1010E1B689BB203F1005303F5405304
:103D18004FEA6E0E5B000021714500F1020009D0E8
:103D280010F8018C10F802CC4CEA082C23F821C0BA
:103D38000131F1E712680F4B92B213445B001A6825
:103D48001D60238ADB1B2382638A1F44074B67821B
:103D580030221A80084B4FF440521A802672BDE870
:103D6800F08100BF84140020861E0020F21100207C
:103D7800505C004002300020F01100202DE9F04195
:103D88004D880E88CB880C894A89B1F80C80B1F827
:103D98000EE08F88B5F5827F1BD11E4346F48276EC
:103DA80046EA0405B0F800C045EA020444EA0802FD
:103DB80042EA0E030CF4415C4CEA03039BB2038015
:103DC800828822F470631B041B0C3B439BB28380E4
:103DD8001CE0B0F804C02CF4706C4FEA0C4C4FEAAD
:103DE8001C4C4CEA07072E43BFB23343878023435A
:103DF8000788134343EA080307F4415743EA0E03CD
:103E080047EA030E1FFA8EFEA0F800E0838B23F426
:103E180000631B041B0C83830B8A0382BDE8F081BB
:103E2800084BDA68D10709D4DA68D20608D4DB6807
:103E380013F0040F14BF03200420704701207047BB
:103E4800022070470020024002684FF6FE731340BC
:103E580003600023036043608360C360284B98427B
:103E680001D1284A27E0284B984201D1254A2AE067
:103E7800264B984201D1234A2DE0254B984201D187
:103E8800204A30E0234B984201D11E4A33E0224BAE
:103E9800984204D11B4A536843F470032EE01F4B29
:103EA800984204D1174A536843F0706326E01C4BCC
:103EB800984204D11B4A536843F00F031EE01A4B83
:103EC800984204D1174A536843F0F00316E0174BA1
:103ED800984204D1134A536843F470630EE0144BBC
:103EE800984204D10F4A536843F4704306E0114BDB
:103EF800984204D10B4A536843F4702353607047C7
:103F080008000240000002401C000240300002404D
:103F180044000240580002406C0002408000024009
:103F280008040240000402401C040240300402401D
:103F38004404024058040240994A536803F00C03B1
:103F4800042B2DE9F04105D0082B06D095490160D6
:103F5800B3B916E0934B036012E053685468C3F397
:103F68008343991CE30349BFD36A8F4B8D4C03F0FD
:103F78000F0344BF0133B4FBF3F34B43036000E08A
:103F880000235168894FC1F303117D5C0168EDB2CC
:103F980021FA05F444605668C6F30226BE5D24FA89
:103FA80006FEC0F808E05668C6F3C226BE5DF6B243
:103FB800F440C460D2F82C80C8F3041808F00F0C41
:103FC80007EB4C0C18F0100FBCF810C01FFA8CFC53
:103FD80007D0BCF1000F04D0B3FBFCFCC0F810C044
:103FE80000E00161D2F82CC0CCF3442C0CF00F088F
:103FF80007EB48071CF0100F3F8ABFB204D01FB16F
:10400800B3FBF7F7476100E04161176BFF065ABF42
:10401800644F87618161176BBF065ABF614FC761E3
:10402800C161176B7F065ABF5E4F07620162176B4B
:10403800FF0506D5994204D1AE4202D14F0047622E
:1040480000E04462176BFF0406D5994204D1AE42E2
:1040580002D14F00876200E08462176BBF0506D566
:10406800994204D1AE4202D14F00C76200E0C46257
:10407800176B7F0506D5994204D1AE4202D14F0095
:10408800476400E04464176B3F0506D5994204D1A4
:10409800AE4202D14F00876400E08464176BBF040E
:1040A80006D5994204D1AE4202D14B00C36400E068
:1040B8008464156B3A4BAD0701D1046315E01C6BA2
:1040C80004F00304012C01D101630EE01C6B04F021
:1040D8000304022C02D14FF4004305E01B6B03F0EC
:1040E8000303032B01D12F4B0363146B2C4B14F4E4
:1040F800403F02D1C0F834E018E01C6B04F44034AF
:10410800B4F5803F01D1416310E01C6B04F44034E6
:10411800B4F5003F02D14FF4004306E01B6B03F4F3
:104128004033B3F5403F01D11E4B4363146B1C4B26
:1041380014F4402F02D1C0F838E018E01C6B04F4E6
:104148004024B4F5802F01D1816310E01C6B04F486
:104158004024B4F5002F02D14FF4004306E01B6B56
:1041680003F44023B3F5402F01D10E4B8363146B46
:104178000B4B14F4401F02D1C0F83CE020E01C6B4C
:1041880004F44014B4F5801F01D1C16318E01C6B1E
:1041980004F44014B4F5001F0AD14FF400430EE0B4
:1041A8000010024000127A0000093D0002000020C1
:1041B8001B6B03F44013B3F5401F01D1134BC363CA
:1041C800126B134B12F4400F03D1C0F840E0BDE866
:1041D800F0811A6B02F44002B2F5800F02D101643B
:1041E800BDE8F0811A6B02F44002B2F5000F02D16B
:1041F8004FF4004306E01B6B03F44003B3F5400F94
:1042080001D1024B0364BDE8F08100BF00127A00BF
:1042180000100240F0B500230E681C460125A54099
:1042280005EA060EAE452BD10F797A1E012A15D85C
:10423800856803229A4025EA020282604D798268E5
:104248009D4015438560828892B222EA0E028280E0
:104258008A798588A2402A4392B28280032205681F
:104268009A40D2431540056005689F402F43076078
:10427800C7681740CA7902FA03F547EA0502C2601F
:104288000134102C03F10203C8D1F0BD38B52DED6F
:10429800048B4A4C0368C4F890318388A4F894319D
:1042A800013A0D46072A42D8DFE802F0040A10183E
:1042B80022292F35B4F890310B80B4F8923113E0ED
:1042C800B4F892310B80B4F8903105E0B4F890312D
:1042D8005B420B80B4F892315B4205E0B4F892314E
:1042E8005B420B80B4F890316B80B4F894311DE0D8
:1042F800B4F890315B420B80B4F8923112E0B4F814
:1043080092310B80B4F890310CE0B4F890310B8006
:10431800B4F8923105E0B4F892315B420B80B4F8FE
:1043280090315B426B80B4F894315B42AB80244B94
:1043380093F83030002B3ED1B5F9003094ED690A7E
:10434800D4ED667A09EE103AB5F9023008EE103A63
:10435800B8EEC88AB5F90430B8EEC99A28EE000A52
:1043680008EE903AA7EE890AF8EEE88AD4ED6C7A5E
:10437800A7EEA80A0BF050FD94ED6A0AD4ED677A0F
:10438800288028EE000AA7EE890AD4ED6D7AA7EEF8
:10439800A80A0BF041FD94ED6B0AD4ED687A6880A9
:1043A80028EE000AA7EE890AD4ED6E7AA7EEA80ACD
:1043B8000BF032FDA880BDEC048B38BDA0090020AD
:1043C80002000020094BD3F8BC21137844F6FB7196
:1043D80003EB431300FB03135078C0EB0030B3FB2F
:1043E800F0F39078B3FBF0F080B27047A00900209A
:1043F80010B5074C00210A2204F5E470A4F8C01196
:1044080006F026F880B2FFF7DDFFA4F8500210BDD1
:10441800A0090020F8B504460E4617460025204698
:1044280020210BF020FB0446D0B1013420460BF0CC
:104438007FFBB0F5617F05DB40F634039842A8BFE7
:10444800184601E04FF46170A0F56170192390FBE4
:10445800F3F00DB9307000E070703B7801333B70B9
:104468000DB90125DBE72046F8BD7FB5047806467F
:10447800E4B9364B1B6803EB8403192193F87B00DE
:1044880093F87C6093F8792093F87A304FF461754B
:1044980011FB005011FB0651009001912C48214658
:1044A800013402F0B8FE142CE3D14CE00BF040FBD1
:1044B8001328054641DC254B701C1C68202100236D
:1044C8008DF80F300BF0CFFA1E35064670B1013665
:1044D80030460BF02DFB1A289FBF04EB850358705C
:1044E8009DF80F30013398BF8DF80F3030462021EA
:1044F8000BF0B9FA064670B1013630460BF018FBDE
:104508000D289FBF04EB850398709DF80F30013389
:1045180098BF8DF80F3004EB85043046E11C0DF18F
:104528000F02FFF777FF9DF80F30042B0BD0601CAC
:10453800002104220BF061FA05E006480649002232
:10454800132302F068FE04B070BD00BF080F0020FE
:10455800A0260108B5260108D4260108014806F05E
:1045680019BC00BFDA260108F0B5047887B0064602
:104578001CBB524B1968062303FB0411192091F840
:10458800CA5091F8CB7091F8CE2091F8C9304FF409
:10459800617610FB056510FB07600095019091F8A6
:1045A800CC000290C831464849790391214601342C
:1045B80002F031FE0C2CDCD17DE00BF0B9FA0B28AF
:1045C800044672DC3D4B701C1D68202100238DF8C9
:1045D80017300BF048FA064680B1013630460BF02A
:1045E800A7FA03289FBF062303FB045383F8CE00D2
:1045F8009DF817309CBF01338DF8173030462021C5
:104608000BF031FA074680B1013738460BF090FAC3
:104618000D289FBF062303FB045383F8C9009DF8A8
:1046280017309CBF01338DF8173006266643A91949
:104638003846CA310DF11702FFF7ECFE20210BF0C6
:1046480012FA074670B1013738460BF071FA142890
:104658009FBF9DF817307619013386F8CC0098BFB4
:104668008DF81730384620210BF0FDF978B101306C
:104678000BF05EFA0D289FBF062303FB045383F853
:10468800CD009DF817309CBF01338DF817309DF889
:104698001730062B0FD0062202FB04500021C93028
:1046A8000BF0ABF9FFF75AFF05E006480649002270
:1046B8000B2302F0B0FD07B0F0BD00BF080F0020CB
:1046C800E8260108B5260108D42601082DE9F34794
:1046D800047807464CB9204601A906F0DFFF0134EB
:1046E800FFF7F4FF122CF6D178E00BF021FAC5B2EF
:1046F800112D6DD8781C20210BF0B5F9394C3A4FA3
:1047080005F1D006034614F8168030B9A8F1020264
:10471800D2F1000848EB020843E000F1010A597899
:1047280038460BF0A0F960B1032D8CBF032300239A
:10473800C01B3B4453FA80F090F80490B9F1030F82
:1047480002D1FFF70BFF49E0A9F10203D3F10008FA
:1047580050464FF0200148EB03080BF084F9D8B11C
:10476800B8F1000FEDD001300BF0E2F940F2ED2383
:1047780080B2984205DD40F6CA039842A8BF1846A1
:1047880001E040F2EE2004EB4603A0F2EE201922ED
:1047980090FBF2F0587002E0B8F1000FD1D104F8A4
:1047A800169014F81630FA5CB8F1000F0BD00D4BC8
:1047B8000E4803EB46062946737840F2EE24192585
:1047C80005FB034308E02946094802F024FD05E0FB
:1047D800084809490022112302F01DFD02B0BDE876
:1047E800F08700BF6C150020F80B010808270108A6
:1047F8001A270108B5260108EC320108044B59684C
:10480800814201BF0022CA621A725A60704700BF13
:10481800F40B00202DE9F04F984689B08D4B029299
:1048280093F90020019182429DF848709DF84C5000
:104838001C4601D1187A08B1002007E1002A40F08F
:104848000581854BE36004F16003236204F5B073CE
:1048580063624FF48073A361E361804BE363143BAD
:1048680023647F4BE3652433A3650433636503F551
:104878005743D833C4F81480996941F48041996149
:10488800596941F00101596102238DF81C308DF8F6
:104898001E20032315F001028DF81D3014BF0223DA
:1048A800012315F0080F8DF81F3007F0020907F0F3
:1048B800010B1BD04FF090464FF4007ACDF818A0AA
:1048C800716A039282F0010321F0F0018DF81E3025
:1048D8007162716A41F070017162304606A9FFF792
:1048E80099FC039A52BBC6F818A027E0B9F1000F4B
:1048F80010D008A94FF4007341F8083D4FF09040DC
:10490800436A23F0F0034362436A43F0700343624F
:10491800FFF780FCBBF1000F10D008A94FF48063AB
:1049280041F8083D4FF09040436A23F470634362B6
:10493800436A43F4E0634362FFF76CFC454E002290
:104948000E234FF0010A05A88DF814308DF81620B3
:1049580003928DF815A08DF817A006F0BDFD039AF7
:10496800029B84F850A006F10C00E262A262626326
:104978002263A3636774C4F81480A57403F0A8F8CD
:10498800BBF1000F29D0F06B00B3D6F85880B56999
:10499800376AFFF759FAF26BF06D116821F4FF419D
:1049A80021F0700141F48551ADB211605560C2F833
:1049B8000880D760116841EA0A011160816841F0F6
:1049C80040018160526892B2F26406E0F36D2022E1
:1049D8001A621A6842F020021A60B9F1000F29D051
:1049E800206C1C4D08B3D5F85480EF69FFF72CFAFA
:1049F8002B6C1A6822F4FF4222F0700242F48452AF
:104A080042F010021A60BFB200225F60C3F808804B
:104A1800DA60196841F0020119605A605A60EA6D5B
:104A2800936843F08003936004E0EA6D136843F0F1
:104A380080031360E26D0B48136843F001031360B1
:104A4800002323749DF804302372606009B0BDE828
:104A5800F08F00BFF40B0020040C0108580002403E
:104A680000380140000C0020044BD3F8603293F961
:104A7800022082420CBF981C00207047F40B0020D3
:104A8800F0B5027887B00ABB444B454A93F9F01158
:104A980092F9002091427FD1424C93F8F50193F8A6
:104AA800F45154F82000B3F8F221009093F8F7017C
:104AB80054F82000019093F8F6313B4854F823301D
:104AC800029354F8253002F0A6FB65E00022049218
:104AD8000592451C0BF02CF8C4B260B2FFF7C4FF76
:104AE800074618B18DF81040012400E00446284616
:104AF80020210AF0B8FF054638B1013528460BF0E9
:104B080017F80134ADF81200E4B200262846202137
:104B18000AF0A9FFB0B3451C28460BF009F800229B
:104B2800204951F8223083425FFA82FE04D00132D4
:104B3800082AF5D1002300E0734651F82320824269
:104B480020D1022E0FD0032E12D05A1E012ED2B21F
:104B580004D0042A13D88DF814300EE0042A0ED895
:104B68008DF8153009E0052B09D88DF8173004E0C9
:104B78009A1E052A03D88DF816300134E4B201369E
:104B8800042EC3D1052C03D807B0BDE8F040E5E4F6
:104B980004AB03CB3860796007B0F0BD6C1500201A
:104BA800F40B0020202201082927010810B50A4922
:104BB80091F86432D1F860220C4643B993881842C0
:104BC8004FF0010303D081F86432901C10BD84F8C3
:104BD8006432002010BD00BFF40B0020024B0022FD
:104BE80083F86422E2E700BFF40B00202DE9F047C8
:104BF800877890F803C0214DBBB2C7F1640E03EB70
:104C080083065C42C3F178005FFA8EFE7600CCF131
:104C18006408A4B280B2A3B20FFA83F9B9F1000F05
:104C280005DC002B14BFBA464FF0010A00E0F2463B
:104C380013FB03F303FB0CF21AFB0AF392FBF3F3E7
:104C4800434403FB09F30A2293FBF2F333449BB278
:104C580025F8023FB1F800904A880A34C9EB020AE5
:104C6800A4B21AB202FB0AF24FF47A73844292FB9E
:104C7800F3F34B442B80CED1BDE8F087580E0020CB
:104C880010B544780078002202FB02F3193B634315
:104C980003F6C413534340F6C411434393FBF1F3A3
:104CA800034921F812300132072AEDD110BD00BFA7
:104CB800720E00200430114B33F91000B0F5617FFB
:104CC80010B506DB40F6330398420246A8BF1A46E1
:104CD80001E04FF461720C78192340F2833013FB22
:104CE8000404944207DA497813FB01039342B4BFE2
:104CF8000020012010BD002010BD00BFB01300200F
:104D080010B500F1500302788A4203D18478C27842
:104D1800944204D304309842F5D1002010BD0120FC
:104D280010BD0B4B1B6813F4805F0A4BB3F90630B8
:104D380005D0C089421A934207DD084400E0008A82
:104D48008342B4BF0020012070470120704700BF94
:104D580010140020B01300202DE9F04F2DED0A8B20
:104D6800054690F8500087B018B13228A8BF322005
:104D780000E0012007EE900AB8EEE7BADFEDDB7A33
:104D8800DB48DFEDDCBA0088DFF8B8A387EE8BBA22
:104D9800002808BF012007EE900AF8EEE79AD648E7
:104DA80069EEABBA04883BEE2BBA14F0020F8BEE17
:104DB8008BBA844626D0BAF90000BAF9024080EAD4
:104DC800E07684EAE477A6EBE076A7EBE477B742EF
:104DD800BE46B8BFB646BEF5E17F16DAB742DFED8C
:104DE800C7AA05DD002CD8BF644207EE904A04E04C
:104DF8000028D8BF404207EE900AF8EEE77AC7EEDF
:104E0800AAAA04E0DFEDBEAA01E0F7EE00AA9FED32
:104E1800BCCABC4EAB460024B0EE4CAABA48BCF89B
:104E280000E030F8147038B207EE900AF8EEE77A2E
:104E3800B5EE047A67EE877A3AF914009FEDB37AF3
:104E4800FDEEE77A1EF0030FF8EEE77A4FEA440822
:104E580067EE877A07EE100AB8EEC77A6CD077EE5D
:104E6800076A5042FDEEE66A16EE909A814504DB29
:104E7800914516EE900AA8BF1046DFF8CC929FED38
:104E8800A45A38F90990C9EB000933F914004844C9
:104E980006EE900A287F0AEE100A287AB8EEE66A2B
:104EA80006EE900AF8EE666AB8EE4AAA66EE266A38
:104EB800F1EE045A66EE856A6AEE255AFDEEE66A58
:104EC80016EE900AF1EE656ABDEEE6AA1AEE109AA1
:104ED800484508DBBDEEE5AA1AEE109A8145A8BF41
:104EE80081460AEE109A8B4800EB8400D0ED006AE8
:104EF800E6EE2B6ABBEE0E6AF4EEC66AF1EE10FA25
:104F0800B8EECAAA09D4B3EE0E6AF4EE466AF1EE18
:104F180010FAC8BFF0EE466A01E0F0EE466AC0ED4E
:104F2800006AA87C0CEE100AB8EE4CCA66EE8C6AD1
:104F38009FED79CA26EE8CCA1EF0010F52D13FB2FE
:104F4800002FB8BF7F42B7F5206F02DD0020306028
:104F580026E09FED726A9BF8010067EE066A06EE8E
:104F6800100AB8EE466A86EE866AD6ED006A36EE14
:104F7800676AE6EE2B6A9FED6A6AF4EEC66AF1EE9E
:104F880010FA09D49FED676AF4EE466AF1EE10FA5A
:104F9800C8BFF0EE466A01E0F0EE466AC6ED006A68
:104FA8009BF80B00D6ED006A09EE100AB8EE499A94
:104FB8001EF0020F69EE266A9FED5B9A26EE899A2B
:104FC80014D037EE4A7AF0EE4A6AEAEE876A39EE8A
:104FD8004C9AB0EE667AF0EE4C6AEAEE896AB0EE68
:104FE800669A03E0B0EE4C9AB0EE4A7A4F480493C2
:104FF800235C9FED4F6ACDF814C006EE903AF8EEA8
:10500800E66AA70066EEE76A00F1040EA6EE867A65
:10501800BE4403920291F0EE478A9EED007ACEEDEF
:10502800007A37EEC77A00F10C0E87EE2B7A7744B8
:105038001430DFF81891235C04360BF1010BD7ED1F
:10504800007A37EE677A08EE103AEBEE077AB8EE98
:10505800C88AC7ED007A67EE887A9FED368A364FA0
:1050680027EE888A38EE890A30EE480A0AF0D4FE1C
:10507800BDEEE87ABDEEC99A17EE103AB1EE488A4D
:1050880027F8080049F82430DFF8C4802B4801903D
:1050980019EE103ABDEEC88A48F8243018EE103AD6
:1050A80002A940F8243091E80E100CB90124B5E6A5
:1050B8008C79BAF90430640028345C43124BB3F994
:1050C800043000EE103ABAEECF0A0AF0A5FE6411D9
:1050D800201A002C07EE900AB8BF6442322CF8EE72
:1050E800E76A174A38DD002393605BE083F9223EC4
:1050F8006C140020BD378635381000200000E143CD
:1051080000000000800E002046100020CDCC4C404E
:105118006F12033C8C0E00200AD7A33D0000A04369
:10512800000040C3000040430AD7233C940E0020EF
:10513800A69B443BF7CC923890100020B01000207A
:10514800601000203A100020421000209810002023
:10515800A410002000803B45FDEEE99A19EE903A34
:1051680023F0030307EE903AF8EEE79A5FED077A2B
:105178006B7BC9EEA77A07EE103AB8EE477A9368C8
:1051880026EE877A67EE277AFDEEE77A17EE901A11
:105198000B442F498B42A8BF0B462E498B42ACBF0C
:1051A8009360916093685B13B3F5807FA8BF4FF459
:1051B80080736FF0FF029342B8BF134607EE903A30
:1051C800F8EEE78AFDEEE67AEA7817EE903A53436E
:1051D8009B1107EE903A204B1B78032BB8EEE78A19
:1051E80014D9B5F84E20B2F5FA7F0FD2FDEEC87A81
:1051F800534217EE901A994204DB914217EE903A07
:10520800A8BF134607EE903AB8EEE78A78EE287AF8
:10521800FDEEE77ACDED027ABDF80830BB801BB20F
:1052280000EE103AB8EEC00A0AF0F6FDBDEEC88AE4
:10523800FDEEE88A019AB880002389ED028AC8ED5C
:10524800028A936007B0BDEC0A8BBDE8F08F00BFFF
:10525800FEFFFF0F020000F0641200202DE9F04F5E
:1052680087B000260593AB4B0491B3F90270B3F9EC
:1052780000300292002FB8BF7F42002BB8BF5B42BC
:105288009F42B8BF1F46B7F5FA7F8046A8BF4FF4C4
:10529800FA770090B3460196B24634469E4B198879
:1052A80011F003023DD09B4B33F91400029B4000E0
:1052B8005B4298424FEA440503DB029B8342A8BF46
:1052C800034696482D5E05985B1B30F914501D4423
:1052D80098F8083064206B4393FBF0F398F81C00AF
:1052E8006FF0040A0AFB00FA534504DB00EB800A5E
:1052F8009A45A8BF9A468A4850F824302B4442F26F
:105308001075AB42A8BF2B46864DAB42B8BF2B46A3
:1053180040F8243098F8120043431B13012A0193E4
:1053280038D07C4B804833F914B0009B50F824E007
:1053380093F801C07D4B33F9145085EAE573A3EB6C
:10534800E573B3F5206F4FEA840616DC0BEB8B038D
:105358001A0192FBFCF3042295FBF2F55D1BAE44A7
:10536800BEF57A5FA8BF4FF47A5E714B9E45ACBF1D
:1053780040F824E040F8243002E0002340F82430CC
:1053880083597D2693FBF6F6009BDB7A7343402610
:1053980093FBF6F68A0711D50198C7F5FA7307FB50
:1053A8000BF907FB06F54FF4FA7103FB0A9903FBA7
:1053B800005599FBF1F295FBF1F505E0CB074DBFE0
:1053C800019D35465A46524663005A490393574B46
:1053D800605C33F814E020310FFA8EF34FF0040CC0
:1053E80093FBFCF909FB00F06FF04F0990FBF9F90A
:1053F800914431F9142021F814E098F850109B1AC0
:1054080093FBFCF300EE103A59B14B4B4B48D3EDEC
:10541800000AB8EEC00A00EBC40001F0DDFCBDEEE6
:10542800C00A474A039912F804C0464810EE103AD9
:1054380009EB05020CFB03F34FF0200C93FBFCF384
:10544800D21A0A52404A414942F82450404D41F884
:1054580024905B4245F82430009B013300930CB93B
:1054680001241BE72B4B304EB3F90440049BD6F8BC
:1054780008E09B790F335B0063435B112B4C002BD7
:10548800B4F904404FF0040794FBF7F7A3EB0707C0
:10549800B8BF5B42322B98F80D400BDC2D4B04FB58
:1054A80007E4A342A8BF23462B4CA342ACBFB3607A
:1054B800B46001E00023B36098F8034004FB07F3ED
:1054C800264C2478032C4FEAA3130CD9B8F84E4085
:1054D800B4F5FA7F07D26742BB4203DBA342A8BFF9
:1054E800234600E03B46B4688B6044F34F34B4F580
:1054F800807FA8BF4FF480746FF0FF06B442B8BF36
:1055080034461E19002386809460AB6007B0BDE85E
:10551800F08F00BF3A100020381000204210002001
:10552800AC0E0020F0D8FFFF6010002046100020CD
:1055380080C1FFFF940E0020581000207810002032
:10554800A80E002090100020A41000209810002021
:10555800B0100020FEFFFF0F020000F064120020D0
:105568002DE9F04F85B0074603939C4B02911C88A8
:10557800019204F00204A4B294B1994BB3F9024029
:10558800B3F90030002CB8BF6442002BB8BF5B42AF
:105598009C42B8BF1C46B4F5007FA8BF4FF4007406
:1055A800B94600258E4B8F4E33F915008E4B33F8D4
:1055B80015300093BDF900E056F825308EEAEE7BF1
:1055C800ABEBEE7B0421BBF5206F9EFBF1F189B2BA
:1055D8004FEA450A4FEA400C0AB24FEA85080FDC49
:1055E800C2EB0C021344B3F57A5FA8BF4FF47A53A9
:1055F8007E4A9342ACBF46F8253046F8252002E0A3
:10560800002346F8253056F8086099F80B30734A9D
:10561800F6115E43128899F80130920703FB0CF3E8
:105628004FEAA6164FEAA3133ED0019A4000524211
:10563800904203DB019A8242A8BF02466C48DFF819
:10564800E0C13AF90000101A039A32F91520104403
:1056580058F80C2042F2107B02445A45A8BF5A461B
:10566800DFF8C0B15A45B8BF5A4648F80C2097F839
:1056780008C00CFB00F097F81CC00CEB8C0CC01198
:10568800CCF1000B584503DB6045A8BF6046834654
:10569800B87C42431213B61ACBEB03036643634349
:1056A80002EB66260BEB6323524A12F805B024324C
:1056B80011FB0BFBA3EBAB1B3AF9023097F8501028
:1056C800C3EB0E0E04239EFBF3F300EE103ABDF875
:1056D80000302AF8023059B1474B4848D3ED000A48
:1056E800B8EEC00A00EBC50001F076FBBDEEC00ABB
:1056F800434B44495B5D444810EE102A03FB02FE0D
:105708004FEA6E1E0BEB0603CEEB03032AF80130BB
:105718003E4B3F4A48F80360CEF1000648F8026065
:1057280048F800B009F101091E460DB9012539E70D
:105738002B4B2C4DB3F90440029BD5F808C09B793C
:105748000F335B0063435B11274C002BB4F9044013
:105758004FF0040E94FBFEFECEEB030EB8BF5B4287
:10576800322B7C7B0BDC2B4B04FB0EC4A342A8BF63
:105778002346294CA342ACBFAB60AC6001E00023D8
:10578800AB60FC7804FB0EF3244C2478032C4FEA1E
:10579800A3130CD9B7F84E40B4F5FA7F07D2674285
:1057A800BB4203DBA342A8BF234600E03B46AC68EC
:1057B800836044F34F34B4F5807FA8BF4FF48074FE
:1057C8006FF0FF05AC42B8BF2C461D1900238D8031
:1057D800B460936005B0BDE8F08F00BF38100020BA
:1057E8003A100020601000204610002080C1FFFF02
:1057F80042100020940E002058100020781000203D
:10580800A80E00209010002098100020A41000205E
:10581800B0100020FEFFFF0F020000F0641200200D
:10582800AC0E0020F0D8FFFF2DE9F04F2DED028BD4
:1058380085B08DE80C009B4BB3F90270B3F90030CA
:10584800002FB8BF7F42002BB8BF5B429F42B8BF52
:105858001F460026B7F5FA7F8346A8BF4FF4FA77AC
:105868000246B046B246B14634468F4B1B8813F009
:10587800030044D0022C42D08A4931F914500099CF
:105888006D0049428D424FEA440E03DB0099A9425C
:10589800A8BF2946854D3EF905A0019DCAEB010127
:1058A80035F914A08A449BF80810642501FB0AF115
:1058B80091FBF5F19BF81C506FF0040909FB05F901
:1058C800494504DB05EB85098945A8BF8946784D1C
:1058D80055F8241042F2107E51447145A8BF714614
:1058E800DFF804E29BF812A07145B8BF71460AFBC5
:1058F80001FA012845F824104FEA2A3A3FD06D4DA5
:10590800684935F914506C4831F9148092F801E06F
:1059180050F824C085EAE576A6EBE576B6F5206F63
:105928004FEA84011FDC022C17D008EB8800000125
:1059380090FBFEFE042095FBF0F5C5EB0E0EF4443B
:10594800BCF57A5F5C485D4DA8BF4FF47A5CAC4506
:10595800ACBF41F800C00D5007E088EAE876A6EB36
:10596800E876642EE1DD0025455053487D26095828
:1059780091FBF6F6D17A7143402691FBF6F699072A
:1059880012D5022C10D0C7F5FA7307FB06F507FBF2
:1059980008F103FB09114FF4FA7003FB0A5391FB5A
:1059A800F0F193FBF0F508E0DB0704D5022C02D0F8
:1059B8005546494601E0354641463E4B33F9140009
:1059C800042390FBF3F33E48205C022C03FB00F316
:1059D8006FF04F0093FBF0F30B444FEA440C08EED2
:1059E800103A10D1374B3848D3ED000A0392B8EE7D
:1059F800C80A1E21CDF808C001F0EEF9039ADDF8B7
:105A080008C0BDEEC08A2B4B30493CF803003CF976
:105A180001302CF801009BF850100FFA80FEC3EB00
:105A28000E034FF0040E93FBFEF300EE103A89B11B
:105A3800244B2748D3ED000A0392B8EEC00A00EBC6
:105A4800C400CDF808C001F0C7F9039ADDF808C012
:105A5800BDEEC00A1F4B20481B5D10EE101A4B43C9
:105A680018EE101A29444FF0200E93FBFEF3C91AC2
:105A78002CF80010194918EE100A41F824001849AA
:105A880041F8245017495B4241F824300134032C73
:105A980002F101027FF4E9AE05B0BDEC028BBDE86E
:105AA800F08F00BF3A10002038100020421000206C
:105AB800AC0E0020461000206010002080C1FFFFBF
:105AC800940E00205810002050100020BC0E00201A
