:020000040800F2
:10000000005000208135010821360108691F0108D0
:1000100021360108213601082136010800000000C0
:100020000000000000000000000000002136010870
:1000300021360108000000002136010827BA000817
:100040002136010821360108213601082136010830
:100050002136010821360108756400087364000820
:1000600021360108E1520008213601082136010835
:100070002136010821360108C5DF000821360108B4
:10008000776400082136010821360108213601086D
:100090002136010821360108213601087164000863
:1000A0002136010891DD000821360108A1DD000894
:1000B00085DD000875DD000865DD0008D9520008FF
:1000C000DD520008D1520008D5520008213601083F
:1000D00021360108B9DF0008ADDF0008A1DF000804
:1000E00035BA000821360108213601080000000059
:1000F0000000000000000000000000000000000000
:0C01000000000000000000005FF808F1A3
:100110002DE9F04F724B734EA3B033600023736030
:1001200010F0B5F918B910F0D5F90AF05FF80AF037
:1001300027F96D4A6D4C137843F0010313700023C7
:100140000A930B930C934FF4E0130D93236843F43D
:1001500080332360A36943F01003A361236803F491
:1001600000330B930A9B01330A930B9B1BB90A9B29
:10017000B3F5A06FF2D123685C4913F4003301D0CA
:10018000022315E00A6842F001020A600A9323681C
:1001900003F002030B930A9B01330A930B9B1BB9D9
:1001A0000A9BB3F5A06FF2D123689D0739D50123CF
:1001B0000C934F4B4F491A6842F010021A601A68AC
:1001C00022F003021A601A6842F002021A606368A1
:1001D000636063686360636843F480636360464B95
:1001E0001A68043B22F070425A60444A1160616808
:1001F00021F47C116160596841F000415960D9686F
:1002000021F40041D9609B68180449BF3C4B4FF46E
:10021000E01313604FF480130D930C9B012B01D15D
:1002200016E0FEE7022B17D10D9BB3F5801F02D11C
:100230004FF4A01305E00D9BB3F5E01F02D14FF47E
:1002400000130D930D9963680B4343F4803302E070
:10025000636843F460136360236843F08073236032
:100260002168224B8901FBD5596821F003015960AF
:10027000596841F00201596063681C4903F00C039E
:10028000082BF9D14B681F4D03F00C03042B03D04E
:10029000082B03D0174B12E0136810E04B68486836
:1002A000C3F38343C70303F1020301D4164905E0F6
:1002B000496811F4003F116818BF49084B432B608F
:1002C00063681249C3F303130B44187E2B6805912E
:1002D000C3402B601368074A934219D101221BE0E7
:1002E000639A0008B8000020982F002000100240F8
:1002F0000020024000127A00041001402C0000206F
:10030000001BB7004800002000093D0024700108D0
:10031000884A934202D10222874B1A70DFF8789202
:10032000864BDFF878C2C9F80C30A3690DF1880B51
:1003300043F00103A361636A814FB360636A60465F
:1003400043F080736362A3694FF0000843F01C031D
:10035000A3614FF6FF732BF82C3D5946CDF80CC026
:100360008DF85E8006F091F93846594606F08DF911
:100370005946744806F089F9734A584653684FF055
:10038000100A43F0007353600AF0DAFC6F4A179BBF
:100390004146B3FBF2F36E4A6E4813600C2215F02F
:1003A000BAF92B684FF47A72B3FBF2F36A4A013B55
:1003B0005360F02389F82330684D0723C2F8088082
:1003C0001360AB68DFF8D891DFF8D881C9F8003046
:1003D00098E80F008BE80F00A369179843F0080313
:1003E000A361A36918A943F00803A36108233B6133
:1003F000C7F810A006F049F919981AA906F045F9AE
:10040000D9F80020100712D595F89021012A0ED8AE
:10041000534A95F89111926812F0805200F0E185EC
:1004200005E04E4B002283F891210AF06FF9642019
:100430000BF0EFFAA0224B48002115F06CF9E369AC
:10044000002243F00703E361A36943F4006343F030
:100450000C03A361424B4FF0000803F10C0102F8BA
:10046000018001320E2AF5D1FF229A76DA761A77C8
:100470005A773D4A3D4B41461A603D483C22D9F8E7
:10048000004015F048F94146C4F380170520394B68
:10049000DFF8DCE0CA5C0C234B4303F80E2047B9BD
:1004A0001E3A012A9FBFFF2200F1FF3003F80E2001
:1004B000C0B201310529EAD12F4B95F8059018708B
:1004C0002E4B2F4983F800902E4B254A3362C033C0
:1004D0000B602D4BA10603EBC9035B7848BF0123DA
:1004E0005362002340F2DC51284A22F813100133F2
:1004F000082BF7D110A800211C2215F00CF914F4D8
:10050000007A04F400684FD0A3040BD4B8F1000FB4
:100510000AD01F4B95F88411A3F10C02012908BFE2
:10052000134602E01B4B00E0194B0493CDF858B082
:100530003CE000BF001BB700C12F00200005FA05FA
:10054000000C0140001001400000014040420F003B
:10055000F4170020E01A002010E000E098270020A7
:10056000B8000020B4190020862900202C1B002090
:10057000301B002076AC0108C00E0020EC180020D3
:10058000541A0020A8270020B89D0108720E0020F0
:10059000307001082470010800ED00E000080140FF
:1005A000A01700204C700108CDF810A0B9F10E0F73
:1005B00004D009F0EF09B9F1080F02D101238DF839
:1005C0005230012009F02AF818B14088003018BFD5
:1005D0000120C4F340038DF84630C4F3403300F0EB
:1005E00001008DF84030C4F3C0338DF845008DF81C
:1005F00049708DF84330B8F1000F07D095F8848129
:1006000008F1FF37D7F1000848EB0708C4F30043AF
:100610008DF84A301AF1000318BF01238DF84B30D2
:10062000736A04F00101003318BF01238DF84C30C8
:10063000C4F300538DF84D30B5F84631C4F3C00211
:10064000ADF85030B5F85231B5F84471ADF84E30D0
:10065000C4F380438DF8473095F85431ADF85670A7
:10066000181C18BF0120E40448BFAF4C8DF84800A7
:1006700048BFB4F84C41B5F8500148BFADF85640FA
:10068000B0F5FA7F8DF844808DF841108DF8422046
:10069000ADF8540002D90BB9ADF8563095F8D43105
:1006A000A24886F82830002386F8293043709DF848
:1006B0005230002B0CBF0023022301B902B10133D9
:1006C000059A02EB830ADAF838309A1E1A33079338
:1006D000002306920593069B33F8024F06934FF6CC
:1006E000FF739C4200F09E819DF84520E3B2240AEE
:1006F000E5B21AB19A1E012A40F28F819DF8492075
:1007000032B18B491A0189588A4A914200F0858199
:100710009DF84A0030B186491A018958854A9142AC
:1007200000F07B819DF8462052B18149039E01EB88
:1007300003114A68B24203D10A89102A00F06D8180
:100740009DF8432052B17A49039E01EB03114A6898
:10075000B24203D10A89022A00F05F819DF8442049
:1007600052B17349744E01EB03114A68B24203D18E
:100770000A89022A00F05181169E7EB16C4F3268C0
:1007800007EB03177968914208D13A89B188914201
:1007900000F04381F188914200F03F81022C02D1A8
:1007A0009DF8402003E0012C04D19DF84120002A4F
:1007B00000F033819DF84C205D4C1E015AB19DF82C
:1007C000522042B9A3F10802012A04D8A2595B4978
:1007D0008A4208BF04259DF84D20344452B19DF84B
:1007E00052203AB910B10C3B012B01E0043B032B22
:1007F00040F2FB80012D48D1514FDFF834A1FF2397
:1008000087F8703087F871300AEB06035A7B586816
:1008100003F108091B894FF00008ADF85C3017A9F7
:10082000022387F87480C7F880408DF85F308DF818
:100830005E2087F82C80C7F83080C7F83480C7F86E
:100840003880C7F86C8087F8728087F8738005F06D
:100850001CFF5AF8060099F80210424605F0B3FD55
:10086000204641462A460DF0F7FA364BC7F88C80F1
:10087000C7F88430344B2046C7F8883007F184012C
:1008800007F188020DF030FBC7E0022D62D19DF820
:1008900014204FF01C0C0CFB02FC294B002703EB2F
:1008A0000C0808939DF814304FF0010988F8753052
:1008B0001F4B88F876709A19517B506802F1080A2C
:1008C00012898DF85E1088F87E7017A988F87490E8
:1008D000C8F88040CDF824C0ADF85C208DF85F509A
:1008E00005F0D3FE124B9AF8021098593A4605F0DB
:1008F0006AFD204639464A460DF0AEFA1349089B78
:10090000DDF824C0C8F8841011496344C8F8881081
:1009100003F18401C8F88C7020460A1D0DF0E4FA3A
:10092000059B4B44059378E098270020E1000020C8
:10093000F890010800040040000C0140002C014028
:10094000B8000020F9600008D961000801640008BF
:10095000D1600008032D46D19DF84730964D974E43
:10096000D3B19DF84830964F95F82A8053B1954BF6
:10097000BDF854202046B3FBF2F2082192B2BDF834
:10098000563003E020464FF6FF72082105F070FF55
:1009900046F82800C76020E0BDF8542095F82A707A
:1009A000B2F5FA7FBDF856300BD986492046B1FB27
:1009B000F2F2082192B205F05BFF834B46F8270064
:1009C0000AE082492046B1FBF2F2012192B205F021
:1009D0004FFF7B4B46F82700C36095F82A30013360
:1009E00085F82A3019E0042D17D1BDF84E20774B39
:1009F000714D93FBF2F22046BDF85030012192B2C6
:100A000095F8296005F034FF95F8293005EB860646
:100A10000133C6F8540185F82930069B079A9342A2
:100A20007FF459AE644F6A4E97F82930002487F856
:100A30007431684B34701D78A5F11703022B18D858
:100A40003B6A0021185903EB040811F051FF10B163
:100A50007B6A5BBB25E0604B04EB030E98E80F005C
:100A60008EE80F00337810340133C02C3370E7D197
:100A7000EEE75A4B13F835C003EBC503D3F80480F7
:100A800086F800C0B8F1000FE2D06445E0DA524ABF
:100A9000230103EB020E43440FCB01348EE80F0019
:100AA000F3E74F4F3B68DB0424D41DE04D4B4E4A27
:100AB00013F8350003EBC5035C681070002CF0D010
:100AC00000238342EDDAC3EBC3016218D2F800C001
:100AD000DFF83CE1013341F80EC001EB0E079188CD
:100AE000B9809279BA71ECE705F0EF03082B3F4B20
:100AF00024D125E03378012BF6D93D4C04EB0313C8
:100B000003F110061034B442EED054F8100C4FF03C
:100B10007C5111F059FD4FF07C5144F8100C54F801
:100B2000140C11F051FD4FF07C5144F8140C54F8A2
:100B30000C0C11F049FD44F80C0CE3E70E2D08D124
:100B40001A78182D42F010021A7008D10BF0B6FC7A
:100B500005E01A78192D22F010021A70F5E70BF053
:100B600091FC3B68234D5E035EBF234B01221A704C
:100B7000224A234E1378234843F0040313702B7842
:100B80004FF48052022B34BF142310238DF85E30B3
:100B90004FF002038DF85F30B369ADF85C2043F08D
:100BA0000403B36134BF0024012417A905F06DFDCF
:100BB000154B7CB3154A2EE0B800002084190020A4
:100BC000E961000800127A00F961000840420F0054
:100BD00008180020EC18002020180020B89D0108FB
:100BE000A0170020BC7A01087E19002000240020F4
:100BF00028180020C12F0020C00B0020982F0020B3
:100C00000010024000080140A82F002041B9000850
:100C10000E190020BE4A00201A600AF019FFBD4BD1
:100C2000BD4C93E80300B3698BE8030043F008036D
:100C3000B361179818A905F028FDF3694FF003096F
:100C400043F48043F3613369204643F480433361C6
:100C500018238DF85E3059464FF42043ADF85C30D0
:100C60004FF0040A8DF85F9005F00FFD4FF48043BC
:100C7000204659464FF48058ADF85C308DF85EA0A0
:100C800005F003FD1023204659468DF85E30ADF87F
:100C90005C8005F0FAFC3369322043F48043336111
:100CA000336923F4804333619C4B1A8802F4415228
:100CB00042F4457242EA09021A80998B072221F414
:100CC00000610904090C99831A821A8892B242F0D1
:100CD00040021A809F23C4F810808DF83C30002316
:100CE0008DF83D308DF83E308DF83F300AF091FEA2
:100CF0005246C4F8148058460FA910F0A5FDC4F858
:100D000010809DF85E309DF85D201B0243EA02438F
:100D10009DF85F201343824A934214D032200AF098
:100D200078FEC4F81480F52010F0C4FDFF2010F008
:100D3000C1FD7028C4F8108005D12B78022B04BFA8
:100D4000784B83F800902B78032B0CBF1F200220D8
:100D500008F0E8FB2B78032B03D0012006F0ADFE52
:100D600007E0022008F05AFC0028F6D04388002B48
:100D7000F3D095F800906C4D4FF0100B28460021F1
:100D80005A463C6814F0C7FC4FF6FF73ADF83C3090
:100D9000022304F4004804F400674FF0000A1C40EA
:100DA0008DF83E308DF83FA00DD060480FA9ADF80A
:100DB0003CB00AF00FF804232B700124072385F8B8
:100DC00001A0AC70EB70B8F1000F0ED002235748B1
:100DD0000FA9ADF83C3009F0FDFF0123E2182B719B
:100DE000AB7107236C71EB71D4B2B9F1010F0FD95C
:100DF00020234E480FA9ADF83C3009F0EBFF052346
:100E000001222B72AA72631C07226C72EA72DCB296
:100E10007FB1022340480FA9ADF83C3009F0DAFF5A
:100E2000092301222B73AA73631C07226C73EA73D4
:100E3000DCB273683E4843F44043736073693C4FCF
:100E400043F001037361B36943F40073B3610AF0C3
:100E500088F817A80AF05AF8364B00261793364B35
:100E6000012C189394BF334680231C934FF4807356
:100E70001D934FF480631E93202317A91F933846B8
:100E80004FF400531A94209319961B9621960AF05A
:100E90004AF83B68294A43F001033B605368012C40
:100EA00023F4702394BF0021012123F4807343EACB
:100EB000012353609168224B013C0B40314643F4BF
:100EC000602343F002039360D36AE4B223F4700317
:100ED00043EA0454D46201236A18907800286BD046
:100EE0006C5C581C092CC0B2D278144F2AD9A4F1DA
:100EF0000A06D7F80CC006EB46064FF0070E0EFAAE
:100F000006FE2CEA0E0EB2404EEA0202FA6026E01D
:100F100055B900086C700108000C01400038004011
:100F200015202000C12F0020F416002000080140E9
:100F3000080002404C240140041700200024014016
:100F4000FDF7F1FF3E6904EB440C4FF0070E0EFA7B
:100F50000CFE26EA0E0602FA0CF232433A61062B28
:100F60003A4E0CD85A1E776B02EB82021F23934035
:100F700027EA030704FA02F33B4373631BE00C2BDD
:100F80000CD8DA1F376B02EB82021F23934027EA4B
:100F9000030704FA02F33B4333630CE0A3F10D02B1
:100FA000F76A02EB82021F23934027EA030704FA41
:100FB00002F33B43F3620346043110298CD1234BE7
:100FC0009A6842F480729A609A6842F001029A60CC
:100FD0009A6842F008029A6099681C4A0D0739D550
:100FE000FAE7013909293FF622AAD8F82C00049221
:100FF0005946C7F814A0CBF80000039805F045FB4C
:10100000039B3C201A46082313610AF002FD049A50
:10101000C7F810A0174695F891319F42BFF601AA74
:10102000039BDFF82CA04FF00808CAF81080782046
:10103000C3F814800AF0E2FC039BCAF814807820FD
:10104000C3F810800AF0DAFC0137E4E7002401401D
:10105000000C0140936843F004039360A64B9A6828
:1010600012F004020392F9D19A6842F4A0029A6045
:10107000A24BB3F85801002840F00486B3F95A2176
:10108000002A40F0FF85B3F95C31002B40F0FA856F
:101090009B4D2B689C0320D5C8200AF0BAFCAE20DB
:1010A00006F08BFC08B106F08DFC964C84F87501B7
:1010B000C8200AF0AEFC944B0021C4F87831934C60
:1010C0000C22204614F027FB0223E3700EF023FFCE
:1010D0000AF078FC8E4B0344A3608E4B874C1B6850
:1010E00094F85F0194F8691194F86A21B3F96230B9
:1010F0000BF076FA10B901200AF0FEFC864B1021A5
:101100001A780A2642F002021A70844A51610821B4
:1011100011610593814F1920FB68013E83F0100394
:10112000FB60FB6883F00803FB600AF072FC01209F
:101130000AF08EFC19200AF06CFC00200AF088FCF2
:1011400016F0FF06E6D108233B611026744B3E6182
:101150001B68180707D5734B7E611B689847724B55
:1011600001223E611A70714B00271E68DFF8F4817E
:10117000307B11F0D5F96E4911F026FA08F0DAFF4C
:101180006C4B18606C4B188811F0CAF901464FF08F
:101190007E5011F0CDFA694B65491860684B1869AB
:1011A00011F012FA674B1860307811F0B9F9014666
:1011B0004FF07E5011F0BCFA634B014618604FF0BF
:1011C0007E5011F0F7F8614B4FF07E521860604B83
:1011D00038469A601F605F605E4B9A601F605F6078
:1011E00008F0A8FF0646384608F032FF31460746A9
:1011F000304611F0E9F939468246384611F0E4F9F3
:1012000031468146504611F0DFF93946834648465B
:1012100011F0DAF90146584611F0CEF83146C8F817
:101220000000384611F0D0F93146069011F0CCF9A3
:10123000069B83463946184611F0C6F903465846C0
:101240001946069311F0B6F8069BC8F80400194633
:10125000584611F0B1F83946C8F80800504611F068
:10126000B3F931460746484611F0AEF90146384613
:1012700011F0A0F8384F394B0026C8F80C00FF21B8
:1012800038461B221E7014F046FA38463E70244E33
:10129000334B3268012112F0020F18BF79701970B8
:1012A0001FBF032119700221B970510741BF19787E
:1012B0004F1C1F70032748BF475412F00A0F0CD071
:1012C0001A7804218154511CC9B205274754D11CF6
:1012D00002321970D2B20621815429688A0641BFB0
:1012E0001A78571C1F70072748BF87546779082F43
:1012F0003AD00E2F41D137E000240140982700203A
:10130000A0170020B800002020290020900D002008
:10131000404B4C00840E0020982F0020000C014010
:101320000C1B00201C1B0020C805002004240020EA
:1013300035FA8E3CFC2300200C000020B423002052
:10134000641A0020B823002018240020082400205C
:101350001C2400200C240020450E002072230020B5
:10136000440E0020EC2300201A7802F1010E83F8CD
:1013700000E04FF00B0E00F802E01A7811F4803F05
:101380004FF00C0C00F802C002F1010E1CBFDFF898
:1013900058C202325FFA8EFE83F800E01FBF8CF85D
:1013A0000020904A4FF00E0C02F80EC04A0748BFCA
:1013B0001A784FF0120C41BF02F1010E83F800E0E1
:1013C00010238354884B11F4806F1A7802F1010EB8
:1013D0005FFA8EFE83F800E000F802C00BD094F8AC
:1013E00018C2BCF1000F06D002321A707D4A4FF0CD
:1013F000130C02F80EC08A0541BF1A7802F1010EE3
:1014000083F800E04FF0150E48BF00F802E0182FF7
:1014100013D11A784FF0160E00F802E002F1010E17
:101420005FFA8EFE4FF0170C00F80EC002F1030EAB
:101430000232D2B283F800E087540F0341BF1A781A
:10144000571C1F70192748BF8754CA0541BF1A7817
:10145000511C19701A2148BF81541A78511C1970F7
:101460001423835400219822604814F054F910F09A
:10147000B7FA5F4A5F4BB4F84E111A605E4B1980A1
:101480005E4900230B808B705D490A605D4A1370D2
:10149000B4F8962190B25C4921F813000133122B65
:1014A000F9D12B68DF0458BFB4F89C011B07C88032
:1014B00040F1FA8094F89031062B00F2EF80DFE8DB
:1014C00003F004070E355172720045F2F05201E04C
:1014D00042F6F8224D4B1A8010F00EFBDDE042F68A
:1014E000F8214A4B120119800A2392FBF3F20023E0
:1014F000A2F5B062464941F823200133122BF9D1FD
:10150000444A454940201160444A137008F060F98C
:10151000002800F0C38001234FF0070990F9000074
:1015200040218DE808023E4A3E4BB1E042F6F822E7
:10153000364B40201A803C4A364B1A60374B1022FB
:101540001A7008F045F9002800F0A88001234FF038
:10155000000890F9000040218DE80801334A4FF45B
:10156000E13395E042F6F822284B40201A80304AB9
:10157000284B1A60294B08221A7008F029F9002814
:1015800000F08C8001234FF0000C90F90000402106
:101590008DE80810274A4FF4E13307F0EFFF264BA0
:1015A000C3F87C0176E042F6F821184A062B118038
:1015B0001A494FF00C02DFF898E0204F20480A70DB
:1015C00048D000233B708EF8003003701D4B1B2168
:1015D00019701D4B4FF4E1371A701C4B05221A701D
:1015E00045E000BF450E0020440E002000270020EB
:1015F00020290020800D0020840D0020B01700203D
:101600009C170020030D0020DA260020320700205E
:10161000A4150020380000204DA80008802F0020CD
:10162000C9AA0008A086010039A800081DAA000860
:1016300021A80008D1A90008B80000203116002018
:1016400030160020321600203115002033160020FD
:10165000321500200021397001708EF80010B84951
:1016600021200870B749B84F0A70B84A1370B84AB9
:10167000B84B40201A6008F0ABF878B101234FF066
:10168000000E90F900008DE808403B46B24A402128
:1016900007F074FF003018BF012028B9082008F0B7
:1016A00073FDAE4AAB4B1A602B68AD4A13F4804F02
:1016B0001FBF12211170AB48A64918BF086042F243
:1016C0000101194099B144F62060A74908809904A6
:1016D00041BF08211170A5489E4948BF0860DF0737
:1016E00041BF0C211170A2489A4948BF0860117887
:1016F0009805A1F10401517053D59E4A9E4F049B59
:101700004FF010083B6093699C4843F001039361DC
:10171000049B0EA91B888DF83A80ADF8383002235F
:101720008DF83B3004F0B1FF3B6894485B880EA90C
:10173000ADF8383004238DF83A3004F0A6FF3B684A
:101740000120197A04F08CFF3B688D4A5B684FF0EA
:101750000009536117A88DF861804FF001081793B5
:101760008DF860908DF8628009F093FB3B680FA8BC
:101770005B7A8DF83E908DF83C3003238DF83D3038
:101780008DF83F8010F042F87E4B7F4A1B683C3B4F
:10179000136033684FF0FF3243F0100333607B4B2C
:1017A0001A607B4B7B4A7C4E13607C4A803313600B
:1017B0002B680027D903377040F1B58040F22A39F1
:1017C000DFF800A2DFF8ACB10CF014F84FF001081C
:1017D0004A465046394686F8008013F09CFFDBF8F5
:1017E00018306F4843F00403CBF818304023ADF8AD
:1017F000383018238DF83B300EA903238DF83A308A
:1018000009F0E8FADBF81C30664A43F00203CBF833
:101810001C30654B654E1B68ABF6947BB3FBF2F353
:101820003288013B22F45C721204120C32809BB2AB
:101830001D22B2853385A6F81480338C23F0010372
:101840001B041B0C3384338CB188328B23F00203CE
:1018500022F0730212041B04120C1B0C89B242F01A
:10186000600243EA0803B1803283B7863384338B46
:1018700023F008031B041B0C43F008033383B6F862
:1018800044306FEA43436FEA53439BB2A6F84430B7
:10189000DBF8A83F43EA0803CBF8A83F584609F015
:1018A00060FB17A809F032FB414BCDF860A01793FD
:1018B00080231C934FF480734FF0100A1D935846F9
:1018C0004FF4005317A92093CDF864A0CDF8689089
:1018D0001B971E971F97219709F025FBB3890FA827
:1018E0009BB243F40073B381DBF8003043F0020392
:1018F000CBF800308DF83CA08DF83D808DF83E701F
:101900008DF83F800FF082FF2A4B03991A682A4B0B
:1019100043F821200B460133202B0393F4D104F02C
:10192000C1FD04F0BFFD2B685A0540F18C80234EA9
:10193000234BD6F8AC840420C3F8008044E000BFF9
:10194000321600203115002090D0030033160020FD
:1019500049A7000838000020B1A80008ADA8000879
:10196000802F00207DA80008320700209DA80008D5
:101970008DA800080010024000070020000C014064
:1019800000040140AC170020FC060020B00E00202F
:10199000C02900209C1400204B0C0020981400202B
:1019A0000008014000366E0148000020000400409D
:1019B00034040040747001084C0C0020B800002072
:1019C000CC0B00203802002007F002FF0421C6F8EB
:1019D000B00407F0D9FE904B86F8B4040820C3F891
:1019E000008007F0F5FE8D4B0821186007F0CCFE53
:1019F0008B4F2C22002186F8B504384613F08BFE5D
:101A00007C233B708E237B70E023FB7010207D23B2
:101A100087F82B30C6F8B88407F0DAFE1021C6F834
:101A2000BC0407F0B1FE86F8C0042020C6F8C484C8
:101A300007F0CEFE2021C6F8C80407F0A5FE86F800
:101A4000CC040EF03FF9774B774E1B78022B67D111
:101A5000764A00271388322023F040031B041B0C16
:101A6000138013884FF4805823F038031B041B0C99
:101A7000138013889BB243F0400313809F238DF89B
:101A80003C308DF83D708DF83E708DF83F7009F058
:101A9000C0FF8DF85D70664F0422C7F8148017A848
:101AA0000FA90FF0D1FEC7F810809DF85E309DF8A9
:101AB0005D201B0243EA02429DF85F3013435D4AFA
:101AC000934219D00AD8A2F51A42033A93420CD095
:101AD00002F51A420232934209D01CE0564A934260
:101AE00005D00132934207D015E0202300E0802387
:101AF00033804FF4807302E04FF48073338073803F
:101B0000B38832881B02B3605343F3604B4B01220E
:101B100083F8CD2404E0002333807380B360F36046
:101B2000F66826B3F60AB0464FF0000AB2450BDA63
:101B30000AEB06077F100DF15C09F80249461022F6
:101B400005F000F80F2807DC0CF096F83B4B4FEA45
:101B5000C822C3F8D0240AE0002359F82320013218
:101B600055D10133042BF8D1B8463E46DEE72B6849
:101B7000334A13F4002318BF0123137009F022FF26
:101B8000304B18606379052B02BF2F4B4FF4C8729E
:101B90001A802E4B4FF47A721A802D4BC8221A806D
:101BA0002C4A137843F0080313702B4A137823F060
:101BB0000203137040F602032A6813406BB12749F1
:101BC000274B1960274B03211970274B01211970EE
:101BD000264900230B8026490B80930341BF254BE8
:101BE00003221A71DA7844BF42F00102DA70224B04
:101BF0009A68224B1A60224B01221A70059B059AA3
:101C00001B7863F07F03137023B0BDE8F08F07F1FA
:101C1000010A3746A9E700BF080C0020240C002069
:101C2000D80B0020C12F00201000002000380040F9
:101C3000000C014018BA20001740EF00B800002047
:101C40000C2500200407002086230020BA2F002046
:101C5000B82F002000240020BD2F002012290020D2
:101C6000EC160020F424002044000020F80D002091
:101C7000FA0D0020900D002098270020A0170020CA
:101C8000C00B0020424B00221A7000B210F048FC3A
:101C9000404910F099FC404C0646B4F95A0110F046
:101CA0003FFC3C4910F090FC0546B4F95C0110F093
:101CB00037FC384910F088FC0446304608F03AFA00
:101CC0008046304608F0C4F90646284608F032FA45
:101CD0000746284608F0BCF90546204608F02AFACF
:101CE0008246204608F0B4F941468146504610F03D
:101CF0006BFC41468346484610F066FC5146059011
:101D0000304610F061FC49460690304610F05CFC0D
:101D100039460790504610F057FC204C4946206049
:101D200007F1004010F050FC29466060A56006985D
:101D300010F04AFC0146059810F03EFB2946E06091
:101D4000079810F041FC0146584610F033FB394625
:101D5000206106F1004010F037FC294660615846CA
:101D600010F032FC0146079810F024FB2946A061D0
:101D7000059810F029FC0146069810F01DFB41461D
:101D8000E061384610F020FC2062FFF781B900BF07
:101D90003000002035FA8E3C98270020C81600201D
:101DA00098492DE9F04F0A68974C02F59C4320337F
:101DB0002360964B89B01E788946DFF88482C6B1CD
:101DC000934909688A4240F2F180013E1E70EDE0BD
:101DD000D8F80030072D98BF595D8E4B88BF294633
:101DE0001B688D489847032D0AD904EB4505A88048
:101DF0000136894BF5B21A78AA421A46E8D820E093
:101E0000D8F8002005F10E0302EB83039988DA88E5
:101E10000028EAD04FF47A73401A5843531A90FBC3
:101E2000F3F040F6C90300F57A70984205DC40F201
:101E3000EE239842B8BF184601E040F6CA0080B2CF
:101E4000D3E742F2010B754B1B6803EA0B0BBBFA9D
:101E50008BFB4FEA5B1BBBF1000F06D194F82930D6
:101E600084F828306E4B5978197094F828701FB197
:101E70006B4B1F7887F0010792F800A094F82B2095
:101E80000326B2FBF6F60F2306EB460684F82A304B
:101E9000961BD8F80010634BF6B2002555454DDA75
:101EA0001FB1614830F8150000E03846B1F814E081
:101EB000864503D8B1F816E0864515D2E8B20392FC
:101EC0000291019309F0FCF9032DDFBF4FF0010EE1
:101ED00094F82AC00EFA05FE2CEA0E0E019B029918
:101EE000039AD8BF84F82AE0BBF1000F1FD194F801
:101EF00074E023F81600BEF1000F06D1022A16D9AD
:101F000041484FF0010E80F874E0B3F800E05888C3
:101F10007044B3F804E07044DFF828E180B22EF892
:101F2000150000B24FF0030E90FBFEF080B2DFF818
:101F300008E106332EF815000135AFE794F82A20A2
:101F40003A49A2F10F077A427A4184F88E20384B41
:101F50006AB1384A1268560109D40A68D9689A6089
:101F6000521AC82A1DD9012283F8212019E02C4ACF
:101F70000120507010700A689968DA605B68521A24
:101F80009A4282BF2A4B002283F821200025554522
:101F900007DAE8B209F094F9274B23F81500013568
:101FA000F5E794F82B30013384F82B301B4E33685F
:101FB000DD0405D51F4B1B68D80701D40FF0F2FBD9
:101FC000D8F800E0D9F800709EF80A0000283BD04D
:101FD000194A9EF80C30013832F810001BB1C0F5D8
:101FE0003B60083080B200B2A0F57A70B0F57A7F1D
:101FF000A8BF4FF47A7020EAE07010F091FA0F4910
:1020000058E000BFA42F0020D80C0020A817002003
:10201000A417002038000020802F0020A0170020E7
:1020200006000020040D0020DC0C0020AC1700206E
:10203000B0170020400E0020DA26002000007A446D
:102040009C1700204E0D0020336819043BD5D4F8AE
:102050009030934DFB1A002B35DB07F59C43203362
:10206000C5F890308F4B5A798F4B33F812108AB2E3
:102070009EF80B1092FBF1F195F89420013202F0DA
:102080000F0385F894302B4483F895100346874A54
:10209000825C0130134410289BB2F8D11BB293FB31
:1020A000F0F000B26428A8BF642020EAE07010F0CD
:1020B00037FA7F4910F03CFB7E4910F085FA10F0AA
:1020C0006FFC7D4B188033687C4D13F4807F00F0EB
:1020D0000E817B4BDFF8EC919F4205D999F80220E5
:1020E00012B9012289F8022099F80220002A00F092
:1020F000FE80744A95F8008092F82170C8F3800839
:102100007A1E57425741704A002F9246116818BFF5
:102110004FF0000BC1F38063019308BF4FF0030B36
:1021200099F82020052A00F2DC80DFE802F0034E57
:10213000537988A5B8F1000F3AD0D4F8A800B4F8C4
:10214000AC1007F0E2FB012809D16049604A096838
:102150001268C988642000FB0122C9F81020019B85
:102160006BB15A4A126812794AB10FF0DFFE0322AE
:1021700089F820204FF47A72C9F81C20D0E7002F8C
:1021800040F0AF80524AD9F8101010684D4A88428A
:102190000AD902920FF0CAFE029A032182F8201097
:1021A00040F6B831D161BBE7012182F82010B7E7D2
:1021B000019B4FF4806013B107F0D6FF01E007F0F8
:1021C000C3FF0022C9F810208BE0002F49D10FF087
:1021D000ADFEA5E727B1052289F82020012000E007
:1021E0003846B8F1000F0CD0D4F8A8204FF0020BFD
:1021F000D189384A118051809180344909684988D1
:10220000D180334A1168D9F81420914202D8B8F12C
:10221000000F63D147F23052C9F81C20032221E09D
:102220002A7842F002022A700FF0BCFA284AD9F844
:102230001C1012680A44C9F81820042212E0244A2B
:102240009FB11168D9F8182091424AD9224A927850
:102250001AB9DAF80020D30743D42A7822F0020210
:102260002A70052289F820205AE71268D9F81C1034
:102270000A44C9F8182034E01449154A096812685C
:10228000C988642000FB01224FF48060C9F8102047
:10229000002289F8202089F8032007F055FF3FE746
:1022A000D80C0020F4160020041700206D0D00202B
:1022B0000000C84200C07F44B40E0020BD2F0020A3
:1022C000404B4C00B0170020400E0020942F0020FF
:1022D000AC170020DA2600200600002000287FF43A
:1022E0001FAFBBF1000F02D0584609F0CBFB904F57
:1022F00007F5C470B7F84E1107F007FB0197834646
:1023000068B90FF005FE8B4B0022C3F800B0C3F88C
:1023100004B0C3F808B0884B1A605A609A602B78F2
:102320005F0736D53368D80633D5844B1B78D9067A
:102330002FD4834B9B789BB1019B93F8E031BBF189
:10234000000F15D17BB17F4B1A68D4F8B0309B1ABF
:10235000002B08DA0FF026FA7B4B83F8B4B018E0B4
:10236000BBF1000F0DD1102009F08CFB01230EE012
:102370003BB1744A4FF47A71126801FB0323C4F82D
:10238000B03094F8B43023B109F068FB002384F82E
:10239000B430019B002293F8DEA193F8DF11B3F86B
:1023A00098E1B3F89AC1134668489B0830F9127057
:1023B00001327745C4BF63F07F03DBB26745B8BF26
:1023C00043F04003042A8146EED194F8B5205E48DC
:1023D0009A4205D190F8B620F92A04D8013200E0DB
:1023E000002280F8B62084F8B530554B584F9A78C3
:1023F0009846E2B93B68DA0708D5BBF1000F16D161
:102400002B78DB0713D50FF02FF810E02B78580747
:102410000DD54D4B93F828304BB14E4BDB7833B98B
:1024200011B10FF0BFF902E0BBF1000FF9D094F841
:10243000B630454A142BDFF838B140F0AB8098F83D
:1024400002301AF1000A18BF4FF0010A6BB392F87C
:10245000B5305F2B11D12B7803F0040303F0FF019B
:1024600013B10FF09FF908E00B200391029209F0DD
:1024700009FB029A039982F8B610BAF1000F14D042
:1024800094F8B5307D2B10D12B7803F0040303F0C2
:10249000FF0213B10FF086F907E00B20029209F05A
:1024A000F1FA294B029A83F8B6202B7803F0040343
:1024B00003F0FF01002B6DD194F8B530224A572B61
:1024C00010D1254B4FF47A721A80244B1B685A079F
:1024D00042BF234A0A21118013F008035AD1214A2E
:1024E000138057E03068400716D55A2B14D11E4B85
:1024F000187820B119701D4B01221A704AE092F829
:10250000B73083F0010382F8B7300BB10C2000E044
:102510000D2009F0B7FA3DE05D2B00F069845B2BDC
:1025200000F068845E2B25D1032000F064BC00BF5E
:1025300098270020CC2200208022002000240020A8
:1025400006000020AC170020D80C0020DA2600205E
:10255000400E0020B0170020BA2F00200C1B0020D6
:10256000B82F0020A40E0020B1230020B2230020A9
:10257000840E0020562B01D108F0C8F898F80230DC
:10258000002B00F04E8494F8B5306F2B40F043845C
:102590000EF06AFF3368580732D594F8B730A3B10C
:1025A0002B78590711D5019BB9F90620B3F898315A
:1025B0009A420ADD3B6813F0010301BFAC4A3221A5
:1025C0001180AC4A08BF82F8B7303B68DA030AD5FD
:1025D000A94B1A782AB9A94A127812B9A44A322109
:1025E000118001220BE0A54A13784BB12B7803F040
:1025F000040303F0FF011BB9A14B117001221A70F3
:10260000DBF8009000233B6009F1870809F1D70A45
:1026100098F8002098F8013018F8010C9A420BD273
:10262000414607F03DF938B118F8022C012303FAAE
:1026300002F23B6813433B6008F10408D045E7D140
:10264000904B1B7853B1904FDFF854923B68DFF802
:10265000548213F0020F40F0388330E309F1D607BB
:1026600009F58F783A787B7817F8010C9A4225D2D1
:10267000394607F015F908B397F804C00C21BB7868
:1026800001FB0C41814A013B03EB43031344D1F8A6
:10269000C82097F803909A4276480FD0C1F8C83006
:1026A000002390F8F420C1F8CC30012303FA0CF396
:1026B00022EA030381F8C49080F8F43006374745D6
:1026C000D0D1734BDFF8E0A1D3F80080714B4FF00D
:1026D000000B1B68029394F828300393DAF800206B
:1026E000002A00F0E38292F80090B9F1000F00F0A8
:1026F000DD82DAF804300299CB1A002B0CDB01F5ED
:10270000FA73CAF8043094F8F410012303FA0BF3B7
:1027100021EA030384F8F430039B002B00F0C68207
:102720001AF8043C51780433DBB2002940F07F8270
:10273000594931F91310594BB3F8963103F1C800D8
:10274000814201DD977814E0C83B994202DA917822
:102750004F420EE094F8F420012303FA0BF322EA2F
:10276000030384F8F430029B03F5FA73CAF80430CB
:102770009CE294F8F43043FA0BF3DB0700F1968205
:10278000002FCCBF0220012009F09EF909F1FF3291
:10279000384B132A00F28282DFE812F01400230083
:1027A0003200440061008800ED005201B701EA01E7
:1027B00019028002440055008800ED005201BF005C
:1027C0002401890198F8001040460F44FA2FA8BF51
:1027D000FA2727EAE77788F8007007F047F8012022
:1027E0001EE098F8011040460F44642FA8BF6427EC
:1027F00027EAE77788F8017007F038F802200FE041
:1028000098F8031040460F44642FA8BF642727EAB6
:10281000E77788F80370D3F8F81006F0DFFF03209D
:102820003946D1E198F805100D2039446429A8BF34
:10283000642121EAE17188F8051009F0AFF8B9F1D7
:102840000D0F00F02B8298F804100E2039446429F3
:10285000A8BF642121EAE17188F80410B4E198F876
:1028600006100520394481F3080188F80610ABE111
:1028700098230020D80C0020B0230020B123002092
:10288000B2230020BF2F0020400E00205A73010801
:10289000BC0E0020AC170020DA260020982700206C
:1028A0000C1B00203C0E0020A00D0020D3F8FC30B3
:1028B0001A78022A22D1384604930FF031FEA94932
:1028C0000FF036FF049B596A05930FF075FD002148
:1028D000049010F017F8059B48B9049AA1491046D6
:1028E00010F02EF8049A059B10B19E4A00E00022D9
:1028F0005A620F20114607F023F80AE099780F205A
:102900003944C829A8BFC82121EAE171997009F0AA
:1029100045F8B9F10F0F00F0C181934BD3F8FC904B
:1029200099F80030022B1AD138460FF0F9FD8D4985
:102930000FF0FEFED9F820100FF03EFD00210746F3
:102940000FF0E0FF30B9384686490FF0F9FF10B1BB
:10295000844F00E00027C9F82070122057E199F851
:10296000011012203944C829A8BFC82121EAE17109
:1029700089F8011028E1D3F8FC301A78022A22D114
:10298000384604930FF0CCFD76490FF0D1FE049B3E
:10299000196B05930FF010FD002104900FF0B2FFAA
:1029A000059B48B9049A6F4910460FF0C9FF049A75
:1029B000059B10B16B4A00E000221A6310201146FB
:1029C00006F0BEFF0AE0197B10203944C829A8BFD1
:1029D000C82121EAE171197308F0E0FFB9F1100F85
:1029E00000F05C81604BD3F8FC9099F80030022B2A
:1029F0001AD138460FF094FD5A490FF099FED9F8D4
:102A00002C100FF0D9FC002107460FF07BFF30B9E6
:102A1000384654490FF094FF10B1524F00E00027A0
:102A2000C9F82C701320F2E099F80B1013203944E8
:102A3000C829A8BFC82121EAE17189F80B10C3E0B9
:102A4000D3F8FC301A78022A22D1384604930FF0CA
:102A500067FD46490FF06CFE049BD96B05930FF0A0
:102A6000ABFC002104900FF04DFF059B48B9049A80
:102A70003C4910460FF064FF049A059B10B1394A97
:102A800000E00022DA631120114606F059FF0AE047
:102A9000997D11203944C829A8BFC82121EAE171D4
:102AA000997508F07BFFB9F1110F00F0F7802E4BFC
:102AB000D3F8FC9099F80030022B1AD138460FF069
:102AC0002FFD2A490FF034FED9F838100FF074FCAE
:102AD000002107460FF016FF30B9384621490FF0A4
:102AE0002FFF10B11F4F00E00027C9F838701420E5
:102AF0008DE099F8151014203944C829A8BFC821C1
:102B000021EAE17189F815105EE0D3F8FC9099F89C
:102B10000030022B1AD138460FF002FD11490FF098
:102B200007FED9F828100FF047FC002107460FF0E8
:102B3000E9FE30B938460B490FF002FF10B1094FDA
:102B400000E00027C9F82870092060E099F8031018
:102B500009203944C829A8BFC82121EAE17189F8B0
:102B6000031031E00000C842D80C002000007A4475
:102B7000D3F8FC9099F80030022B1AD138460FF0A8
:102B8000CFFCBA490FF0D4FDD9F834100FF014FC83
:102B9000002107460FF0B6FE30B93846B3490FF0B2
:102BA000CFFE10B1B14F00E00027C9F834700A2001
:102BB0002DE099F80D100A203944C829A8BFC82172
:102BC00021EAE17189F80D1008F0E8FE66E0D3F81B
:102BD000FC9099F80030022B1DD138460FF0A0FC74
:102BE000A3490FF0A5FDD9F840100FF0E5FB002137
:102BF00007460FF087FE30B938469C490FF0A0FE1B
:102C000010B19A4F00E00027C9F840700B203946F8
:102C100006F096FE42E099F817100B203944C829B7
:102C2000A8BFC82121EAE17189F81710CCE7012972
:102C300034D190788F4A32F91370B7F5617F05DB94
:102C400040F633039F42A8BF1F4601E04FF461776F
:102C5000B9F10C0F22D14FF4966393FBF0F0A7F576
:102C6000617797FBF0F7844AFFB21378BB4215D027
:102C7000042F34BF3B4602231370019A09FB032340
:102C80007E4A03F2B273136007F056FB484639469A
:102C900008F084FE781CC0B208F016FF94F8F42007
:102CA000012303FA0BF3134384F8F4300BF1010B07
:102CB000BBF1040F0AF10C0A7FF410ADC3E43368D2
:102CC000D80511D56E4BDB7873B1D9F80030990770
:102CD0000AD5B8F8003013F0010A0AD10FF018F93C
:102CE000012007F041FA04E0012007F02DFA01234A
:102CF00000E000233A6852070DD563B1012007F0C8
:102D000023FAB8F80030980708D40FF001F9022030
:102D100007F02AFA02E0022007F016FAB8F80030AD
:102D2000584A13F0030F4FF0100114BF51611161A5
:102D3000D9F8002012F00A0F24D03A68D10609D53C
:102D40005A070AD4042007F00FFA4F4B1B88A4F847
:102D5000003102E0042007F0F7F93B689B0607D535
:102D6000B8F80030580606D4402007F0FDF902E01C
:102D7000402007F0E9F93B68590642BF424B1B88E7
:102D8000A4F802313B684FF480701A0502D507F0B1
:102D9000EBF901E007F0D8F93C4B5A791C46082AB8
:102DA00001D00E2A02D1402007F0CEF933685B052E
:102DB00040F1A58094F818321BB92B7813F0040F5A
:102DC00002E03B6813F4002F0BD0314B00221A7045
:102DD0003C200AF09DF8002800F091800EF072F877
:102DE000F6E70CF06FFF09B0BDE8F04F0EF0F8BD4C
:102DF000012000E002205FFA80F8019A08F1FF3319
:102E000082F8B03707F0F2F907F0BAFA404608F056
:102E10005BFEFFF7BFBBBAF1000F02D07E2B3FF481
:102E2000B7AB94F8B5301B4A972B05D11A4B4FF42A
:102E3000C8721A80FFF7AEBBA72B06D1174A1378CA
:102E400043F004031370FFF7A5BB0021BB2B0791D0
:102E500001D1022303E0B72B04D14FF6FE73ADF886
:102E60001E3023E0BE2B1BD102231DE00000C84210
:102E700000007A44DA260020CC240020BC0E00207A
:102E8000B0170020000C0140A40E0020982700205D
:102E9000281B0020D80C00208623002000240020BE
:102EA000BD2B1AD14FF6FE73ADF81C30DBF80030A5
:102EB000BDF81C10B3F864200A44A3F86420BDF8E0
:102EC0001E10B3F866200A44A3F8662007F01EFC23
:102ED000002384F8B630FFF75DBB792B04D192F85C
:102EE000BB3023F0010306E07A2B7FF453AB92F85A
:102EF000BB3043F0010382F8BB30FFF74BBB09B096
:102F0000BDE8F08F704B2DE9F04FB3F906106F4B11
:102F100091B01F6801937A8991420EDBB1F5FA6F87
:102F2000FC79BFBF8B1A6343A2F5FA6493FBF4F4F8
:102F3000ACBFC4F16404643400E06424644B654AAB
:102F40001868B2F896A1054692F95E21049092B2F3
:102F500005920293002240F2E6305B4B4FEA420BAF
:102F600033F912300393CAEB030303F2F3168642DC
:102F700003D8002BB8BF5B4201E04FF4FA73022A7A
:102F800000934FF06400049B534E31D093F81DE141
:102F9000BEF1000F06D0009B7345CCBFCEEB030300
:102FA00000230093009BDFF84CE193FBF0FC6FF0F3
:102FB00063093EF81C8009FB0C390CF1010C3EF949
:102FC0001CE00FFA88FCCCEB0E0E0EFB09FE9EFBFC
:102FD000F0FEC64426F80BE0BE18367973433F4E28
:102FE00093FBF6F364339BB2634393FBF0F030E062
:102FF00093F81EE1BEF1000F06D0009B7345CCBFD5
:10300000CEEB030300230093009BDFF8E48093FBE7
:10301000F0F06FF0630C38F910E00CFB0039013070
:1030200038F91000059BCEEB000000FB09F999FB75
:10303000FCF9CEEB090909FB03F9009BA6F8049003
:10304000B879002BB8BF5B424343244893FBF0F0B0
:1030500064306B784FF0640E434393FBFEF3204ED5
:10306000022AB354EB7A1F4E00FB03F393FBFEF3EB
:10307000B3546B7D184E00FB03F090FBFEF01A4B2F
:1030800098541A4B0FD183F802E0039B53450EDB93
:10309000104CB4F8982191422EDBB1F5FA6FA8BF1D
:1030A0004FF4FA6129E09C54039B534504DA36F847
:1030B0000B305B4226F80B300132032A05F1010583
:1030C0007FF449AFE4E700BFDA260020BC0E002001
:1030D000840E002098270020161800200CFEFFFF09
:1030E0008C220020EE0D0020A0220020BC22002017
:1030F000E00D0020CA1400201146891A4FF47A739B
:103100005943C2F5FA62B1FBF2F1642791FBF7F281
:10311000DFF898E26FF063033EF8120003FB021140
:1031200001323EF9122003B2D21A514391FBF7F358
:103130000344F3808C4B8D4D1B885F063BD58C4A36
:103140008C4B10881B88181A00B20FF0E9F98A49D5
:103150000FF03AFA074606F0EDFF8046384606F0D3
:1031600077FF0746B5F902000FF0DAF98146B5F9A5
:1031700000000FF0D5F9414682460FF025FA394696
:10318000834648460FF020FA014658460FF012F9E0
:103190000FF0E0FB4146288048460FF015FA39460B
:1031A000804650460FF010FA014640460FF004F9F1
:1031B0000FF0D0FB6880714F3B689D076CD545F2DE
:1031C00007216F4B6F4D1A686B69D31A8B4263DD11
:1031D0006A6108F05DF86C4BDFF8D4911A78984674
:1031E000032AB9F8003020D10A2B28D9002328203F
:1031F00088F8003008F00DFC08F04AF8634B188896
:1032000008F030F8624B1A68D37890FBF3F0013085
:103210000828604BA8BF08201870537980B2434338
:103220002B8313795843688309E00A2B07D80323BB
:10323000584A88F80030002313702B836B8398F86A
:103240000030514A012B0CD002D3022B1BD023E0BB
:103250002A8BB9F800309A421EDD012388F800302D
:103260000FE0B9F800106B8B8B4202DD0223137064
:103270000FE0444B1B8B0133994202DD0023137096
:103280000AE0082006E06B8BB9F8002001339A426F
:10329000E3DC072008F0F6FBD7F800B03E4D1BF446
:1032A000006F00F0A080364B364F1B68FA69C2EB06
:1032B000030845F20722904540F39580FB61344BAB
:1032C000B6F906C0D3F80090B4F84E1199F80A3058
:1032D000ACF57A7C012B314E03D06BD3022B20D07E
:1032E0006AE02F4B396A5A7B2E4B082033F81220A4
:1032F00091FBF0F392B2C91A8B183B6293FBF0F387
:10330000BA8440F6E4429BB25343B9F80820C2EBBA
:1033100013334FF47A725343B9F9062093FBF2F357
:1033200049E02B78B9F808A05807C6F800A043D5A3
:103330001D48CDF800C006F0E8FADDF800C020B95D
:103340001BF0100F18BF4FF0000C0CFB0CF33222D7
:1033500093FBF2F3B9F9062063445A434FF47A73AE
:1033600092FBF3F3534426E03C0E00201618002095
:10337000DA0D0020A40E002035FA8E3CA0170020A4
:10338000A42F0020E00D0020F42400200C170020C2
:10339000EC16002044000020BD2F0020B80E0020B5
:1033A000F41600200417002020290020B214002069
:1033B00098170020002333603368D7E90A0103FB24
:1033C00008F84FF47A7398FBF3F810EB080241EB1E
:1033D000E873C7E90A2310461946944A00230FF000
:1033E000FFFA934B1860934F3B68009713F4805F8C
:1033F00002D00A2008F046FB8F4E3268002A58D0CF
:103400008E498F4B08681F6889468742984650D876
:103410008C4BDFF83CA21878516808BB012018706B
:10342000BAF80030CB5C5BB31378013B00FA03F2CF
:10343000D4F8DC371A4201D108F00AFB824B012292
:103440001A7007F08FFFBAF80030CBB933681B78D9
:10345000053B012B14D808F0B5FA7C4B18600FE03F
:103460004FF0000B83F800B0BAF80030CB5C3BB1F2
:10347000584608F0EDFA744B83F800B007F072FF7D
:103480003368BAF800205B6871499B5CFE2B02D15F
:1034900000230B800DE0FF2B02D108F0DFFA08E0DB
:1034A000D9F800000A2606FB03030132C8F80030F1
:1034B0000A802B78590703D5664B08225A6138E0F9
:1034C000009A1268D2075EBF634A43F0010313708B
:1034D000624B5D4A1B781F075EBF2B7823F0010308
:1034E0002B705F4B1B6813F0040F02D05D490988F5
:1034F00051B95D49098809B19E0705D45B4B1B880A
:10350000003318BF012333B1022313702B7823F04B
:1035100001032B7004E02978C80758BF02231370F9
:1035200008F050FA524B1B68C01A002801DB07F064
:1035300019FF504F0CF0C6FB3E78002E00F0E180E2
:103540004D4B1A689846002A00F0E786D8F800002C
:1035500008F034FB002800F0E086474B474C186821
:1035600008F029FB092801D03F2852D14FF0000A6A
:1035700055462668DFF8189136B14148D9F8001051
:10358000324612F015F910B9CA4605B94D463D4B01
:1035900009F110099945EFD3EDB1D5F800C0DAF87B
:1035A000009023681CF803E019F80300704512D15D
:1035B0005A1C334958B92D2B09D8DFF8C0E0CEF892
:1035C00000204FF0200E01F803E0885403E001F8DA
:1035D00003E02260E5E723680BB1554510D02A4887
:1035E0000DF064FD554507D855F8100B0DF05EFD44
:1035F00009200DF053FDF5E724480DF057FD002696
:1036000023689E42A2D21E4B985D0DF047FD013605
:10361000F6E72368002B40F06686042840F0888691
:10362000174804F0B3FD00F078BE00BF407E0500EF
:10363000F0160020400E002004180020AC170020D7
:10364000FC170020F8170020D4170020C426002003
:1036500000180020000C0140BD2F00200024002095
:103660000C1B0020B82F002086230020BA2F00203A
:10367000D8170020BF2F0020F02400209414002031
:1036800064140020FC790108B6930108BB9301087B
:103690002C780108D9F80000DFF894A308F08EFA1E
:1036A00028B3DAF8000008F086FADBF800300246AA
:1036B00093F84810A9BB24286CD1012283F8482034
:1036C000DBF80030DFF89CA393F84820062AE1D10C
:1036D00093F8490001F01AFE8346002800F0838029
:1036E0000DF03CFCD8F80030002283F84820CE4B87
:1036F00093F83530002B40F0E4854C36982E00F0DE
:103700000C86CA4BF21892F84A100129F5D1DFF85D
:103710005483F358C8F80020C54AC3461360914645
:10372000B8E7012904D14D2814BF00220222C5E7C1
:10373000022904D13C2814BF00220322BEE703293A
:103740000CD140284FF0000102D983F84810B7E7A8
:1037500058711971D97198710422AFE7042906D103
:10376000997983F849004A409A710522A6E705290C
:10377000A6D1587919798842987906D9504098711C
:10378000481C18710B441A729AE790420CBF06222B
:10379000002293E72B78A7495B0791D42328DAF816
:1037A000003013D1009001203870A34803910360CA
:1037B0009D480363A1480DF079FCA1480DF076FC0B
:1037C0000399009A0B7843F002030B709D4B1B6822
:1037D0001B78934201BF9C4A9C4B1A609C4A04BFD1
:1037E0009C4BDA606CE7DAF8002092F849304A2BFB
:1037F00000F062855CD8332B00F05B8421D8292B44
:1038000000F0F58309D8252B00F0CC83272B00F09E
:10381000D083232B40F0888552E22D2B00F0F883D3
:1038200007D82B2B40F080850DF06CFB607100F009
:1038300043BD2F2B00F0AA84312B00F0C78400F089
:1038400073BD3E2B00F036811DD8372B00F0658408
:1038500004D8352B00F06D8200F066BD392B00F0E6
:10386000B5833C2B40F06085DFF8EC91D9F800A0DF
:103870000DF048FB8AF80000D9F8003018780CF0F9
:10388000E3F900F019BD432B00F0248406D8412B46
:1038900040F04A854FF0000900F010BC442B00F0C6
:1038A000CA84482B40F040850AF034FA00F004BD89
:1038B000D02B00F055835FD8CA2B00F0048116D8B6
:1038C0004E2B00F0C883C82B00F0A2804C2B40F098
:1038D0002B850DF017FB84F8D6010DF013FB84F84F
:1038E000D7010DF019FBA4F8D80100F0E5BCCD2BF1
:1038F00000F0418304D8CC2B00F05A8200F014BDB4
:10390000CE2B00F04183CF2B40F00E850DF004FB51
:103910006FF4AF6E00EB0E039BB2C62B98BFA4F8FA
:1039200096010DF0F9FAA4F840010DF0F5FAA4F8AB
:1039300042010DF0F1FAA4F844010DF0EDFAA4F8FB
:10394000D8010DF0DFFA0DF0DDFA0DF0DBFA0DF025
:10395000D9FA84F885010DF0D5FA84F892010DF0BA
:10396000D1FA3D4BD3F800900DF0D6FA00EB800071
:103970004000A9F8620029E3D82B00F033810FD86A
:10398000D32B3FD003D8D22B29D000F0CDBCD42BE1
:1039900000F06D82D62B40F0C7844FF000095BE247
:1039A000F22B00F0B28212D8EF2B40F0BD84DFF88A
:1039B000A890D9F800A00DF0AFFAAAF86600D9F8DF
:1039C00000900DF0A9FAA9F8640000F075BCF32B83
:1039D00000F03684FA2B00F0E18200F0A5BC2B78D1
:1039E00003F0040303F0FF09002B40F065840DF0A1
:1039F00089FA022884F8B00740F2B882174B83F89E
:103A0000B097B3E20DF088FA154B188000F054BC63
:103A100092F805904FEA5909B9F1120F24D909F02B
:103A200073FA00F049BC00BFE00D00200027002021
:103A3000EC240020BD2F0020F0240020EB9301088F
:103A4000BB9301082C1B0020EFBEADDEF04F002021
:103A50000400FA0500ED00E0840E00209827002005
:103A6000D80D0020E82400204FF0000ACA4507D2F4
:103A70000DF052FA07AB23F81A000AF1010AF5E734
:103A80004A4600234B4507DA07A931F81300BD4920
:103A900021F813000133F5E7122A05D0B94B0021B4
:103AA00023F812100132F7E7B74B012283F83420D4
:103AB00000F002BC0DF026FA84F8E0010DF022FAC5
:103AC00084F8DF01F8E3B14B81461A689A46127810
:103AD000022A6CD1DFF8B4A209F1080BDAF8003041
:103AE00000930DF00FFA0EF017FDA9490EF020FE1D
:103AF000009B43F82B00DAF800B00DF003FA09F14F
:103B00000A030BEB830B0EF007FDA2490EF010FE2B
:103B1000DAF80030CBF8040000930DF0F3F90EF062
:103B2000FBFC9D490EF004FE09F10E0B009B09F110
:103B30000109B9F1030F43F82B00CBD1B9F1070FFD
:103B4000DAF800B01AD10DF0DDF90EF0E5FC90497D
:103B50000EF0EEFDCBF84400DAF800B00DF0D2F92B
:103B60000EF0DAFC8A490EF0E3FDCBF84800DAF8F3
:103B700000B00DF0C7F98BF84C0012E00DF0C2F95F
:103B8000CB448BF80100DAF800B00DF0BBF9CB4460
:103B90008BF80B00DAF800B00DF0B4F9CB448BF8D9
:103BA000150009F10109B9F10A0FC7D184E3DAF868
:103BB00000B00DF0A7F9CB448BF80100DAF800B0A3
:103BC0000DF0A0F9CB448BF80B00DAF800B00DF043
:103BD00099F9CB4409F10109B9F10A0F8BF81500E5
:103BE000E5D169E38146DFF8A4A109F1080BDAF811
:103BF000003000930DF090F90EF08EFC66490EF047
:103C000097FD009B43F82B00DAF800B00DF084F923
:103C100009F10A030BEB830B0EF07EFC5E490EF0FC
:103C200087FDDAF80030CBF8040000930DF074F94A
:103C30000EF072FC58490EF07BFD09F10E0B009B53
:103C400009F10109B9F1030F43F82B00CBD1B9F108
:103C5000070FDAF800B01AD10DF05EF90EF05CFC37
:103C60004D490EF065FDCBF84400DAF800B00DF0D8
:103C700053F90EF051FC48490EF05AFDCBF84800BC
:103C8000DAF800B00DF048F98BF84C0012E00DF0B6
:103C900043F9CB448BF80100DAF800B00DF03CF9A1
:103CA000CB448BF80B00DAF800B00DF035F9CB44BB
:103CB0008BF8150009F10109B9F10A0FC7D1FBE230
:103CC0000DF020F9132883463FF6A9AEDFF8BCA01B
:103CD000DAF800900DF016F9002330490C2202FBAF
:103CE0000312117A814220D1137809EB8B0989F8EC
:103CF00085300DF007F989F886000DF003F989F891
:103D000087000DF0FFF8264A264B89F888001A60D4
:103D1000DAF80000244B00211860853005F0E4FD3E
:103D2000224B80F001001870C6E201331C2BD4D165
:103D300075E60DF0E7F80B2882463FF670AE134BA0
:103D4000D3F800900DF0DEF803283FF668AE0623A6
:103D500003FB0A9989F8DA000DF0D4F889F8D50048
:103D60000DF0D0F889F8D6000DF0CCF889F8D7001E
:103D70000DF0C8F889F8D8000DF0C4F889F8D9001A
:103D80009AE200BFEC150020E00D0020840E002018
:103D9000000020410000C84200007A44C8730108B6
:103DA000D8280020D00D0020D40D002008000020CD
:103DB0005379092B7FF633AE019BD3F800900DF0B9
:103DC000A1F8019B89F80000D3F800900DF09AF853
:103DD00089F801000DF096F8019B64281B68A8BFC4
:103DE000642018710DF08EF8019B64281B68A8BF31
:103DF000642058710DF086F8019BFF281B68A8BF4E
:103E0000FF2098710DF07EF8019B6428D3F8009094
:103E100028BF642089F807000DF074F8019B89F829
:103E20000200D3F800900DF06DF8019B89F80300B3
:103E3000D3F800900DF070F8D8F80030A9F80A0017
:103E40005B790A2B40F23882DB4BD3F800900DF0FF
:103E500059F889F808002FE20DF05EF8D74B23F8E7
:103E6000190009F10109B9F1080FF5D124E25379DC
:103E70000F2B7FF4D4AD0DF045F8072881463FF6AF
:103E8000CEAD029BD3F800A00DF046F80E2303FB45
:103E900009F9029BCA44AAF82501D3F800A00DF045
:103EA0003BF8CA44029BAAF82701D3F800A00DF002
:103EB00033F8CA44029BAAF82901D3F800A00DF0F8
:103EC00021F8CA44029B8AF82B01D3F800A00DF018
:103ED00019F8CA44029B8AF82C01D3F800A00DF00F
:103EE00011F8CA44029B8AF82D01D3F800A00DF006
:103EF00009F8CA44029B8AF82E01D3F800A00DF0FD
:103F000015F8D144C9F82F01D6E10CF0FBFF0F28BA
:103F100081463FF684AD0CF0F5FFC9EBC90904EB0F
:103F2000090383F8D00003F1D0090CF0EBFF89F806
:103F300001000CF0E7FF89F802000CF0E3FF89F8BC
:103F400003000CF0DFFF89F804000CF0DBFF89F8B8
:103F500005000CF0D7FF89F8060008F0AFFAABE1D6
:103F60002B78580700F1A8810CF0B4FA06F03EF95E
:103F700006F006FAA0E12B78590700F19D81904BDD
:103F80004FF4C8721A8097E12B785A0700F1948198
:103F90008C4A137843F0040313708DE12B785B0790
:103FA000E4D5C1E1A0600CF0C1FFA3681843A06094
:103FB00082E10CF0B1FFA4F858010CF0ADFFA4F8B9
:103FC0005A010CF0A9FFA4F85C0175E10CF09AFF0E
:103FD00084F87A010CF096FF84F87E010CF092FFD1
:103FE00084F87D010CF08EFF84F87F0164E10CF011
:103FF00093FFA4F880010CF08FFFA4F882010CF06D
:1040000081FF84F884010CF087FFA4F8860153E156
:104010000CF078FF84F890010CF07EFFA4F89A0170
:104020000CF07AFFA4F896010CF076FFA4F8980142
:104030000CF068FFDAF8003084F891015B79082B06
:1040400040F23A810CF068FFA4F89C010CF064FF88
:10405000A4F89E0130E192F805900323B9FBF3F92F
:10406000B9F1120F3FF6DBACDFF85CA14FF0000BAB
:10407000CB4580F021810CF045FF8AF8A0010CF0BF
:104080004BFF40F2ED23984205DD40F6CA0398420B
:10409000A8BF184601E040F2EE20A0F2EE2019235E
:1040A00090FBF3F00BF1010B8AF8A1010AF1020A6F
:1040B000DEE70CF027FF84F89201FDE00CF022FF10
:1040C00004EB090309F10109B9F1080F83F888012C
:1040D000F4D1F1E00CF016FFC4F808B060710CF0F8
:1040E00025FFA3681843A0600CF00CFF84F8900132
:1040F0000CF012FFA4F858010CF00EFFA4F85A01BE
:104100000CF00AFFA4F85C010CF006FFA4F8800193
:104110000CF002FFA4F88201CEE053794FF0070AB9
:10412000B3FBFAF2C2EBC2029A1A12F0FF0F7FF44D
:1041300076ACB3FBFAFA0AF1FF3A5FFA8AFABAF1FF
:10414000FF0F00F0B9800CF0DDFE5FFA80FB4FFA44
:104150008BF005F063FA814600283FF460AC80F8EC
:1041600000B00CF0D9FEA9F802000CF0CBFE89F8E3
:1041700004000CF0C7FE89F805000CF0C3FE89F8B6
:1041800007000CF0BFFE89F80600D4E7DFF838908E
:1041900009F1400A0CF0C0FEA9F8A8020CF0B2FE2A
:1041A00089F8AA020CF0AEFE09F1040989F8A70209
:1041B000D145EFD180E000BFBC0E0020CE2400200E
:1041C0008623002000240020982700200CF09AFE6F
:1041D0001F2881463FF623ACD8F800305B79082BC6
:1041E0007FF41DAC0CF098FE09F18A0904EB890AF2
:1041F00000F03F00AAF802000CF08EFEBAF8023080
:10420000800100F4FE501843AAF802000CF07AFE78
:10421000000104F829000CF075FE14F8293000F0B4
:104220000F00184304F829000CF06CFE8AF8010016
:1042300009F0E0FA40E0704B012283F835203BE0C2
:104240000CF060FEFF28824622D100238DF81B303F
:104250009DF81B30052B14D89DF81B00674A9DF86C
:104260001B30012102EBC3035B6852F83000994018
:1042700089B2482205F0B6F89DF81B300133DBB255
:10428000E4E75F484FF48051042205F0ABF813E0F7
:1042900005283FF6C4AB00200CF084FE0CF05EFE57
:1042A000D9F8000007F084FC18B9322007F0B1FB00
:1042B000F6E7504605F0A4F800200CF073FEFFF777
:1042C0000FBA504B985907F073FC18B9322007F019
:1042D000A0FBF6E708F0B2F805F05EFF4A4A4B4B48
:1042E000DA60FFF70ABA0C2824D00A282BD1484DEF
:1042F00048480CF0DBFE2846232111F042FA08B1B1
:10430000401B20602368002B40D14148002130220F
:10431000236011F000FA3B787BB93F4B9B68002B80
:1043200067D03E48984764E008F0EEFDFFF7D8B943
:104330000C2804D13A480CF0B9FE3A480DE07F2829
:1043400012D1FFF703B90D28D1D07F2809D1304A07
:10435000013B002134482360D1540CF0A7FEFFF745
:10436000F5B82F2B3FF6F2A8A0F12002D2B25E2AB8
:104370003FF6ECA813B920283FF4E8A85A1C2260A5
:10438000234AD0540CF08AFEFFF7E0B85A1EA95C0D
:10439000202901D11346B6E71D4A00212360D154DC
:1043A000224B234DD3F800A0D5F800B0DFF8609081
:1043B000584611F0F4F9064659463246484611F07F
:1043C000F7F91C4A28B919F8063053445B785907A5
:1043D00003D010359542E7D306E0954204D2701C15
:1043E000EB684844984702E013480CF05FFE002356
:1043F0008BE711B0BDE8F08FE00D0020649F01084D
:1044000000080140002700200400FA0500ED00E04C
:104410006414002080A20108641A0020160E0020F7
:10442000C0930108BB930108E79301084C000020EA
:104430002C780108FC790108CB9301086B4B6C4A7E
:104440002DE9F04F5E8914684FEA062AB4EB0A0A98
:104450009C884FF000054FEA04481C894FF0000B80
:10446000A4FB0A6765EB0B0B04FB0B77F40944EA2A
:10447000476418EB04065C884FF000094FEAE71523
:104480004FEAC438DC8849EB050787B0CDE90467FB
:10449000A4FB0A6704FB0B77340A44EA076418EBB1
:1044A00004064FEA27259C894FF0000949EB0507D0
:1044B000CDE90067AAFB046704FB0B77F40D44EA1F
:1044C000472414F5FA664FEAE75545F10007B6F5BB
:1044D000FA6F77F10003CDE90267964666DADDE907
:1044E0000489A4FB046704FB05F34FF0050C07EBFC
:1044F0004307A6FB0C230CFB07335F104FEA320681
:10450000B8EB06084FEA920646EA837669EB07099C
:104510009F10DDE90023921B63EB0703CDE9002325
:10452000DDE90267334A4FF0FF33964277EB03032E
:10453000CDE9048927DA40F6AC520023A4185D4186
:1045400004FB05F3A4FB04456FF0060205EB4305ED
:10455000664202FB0566A4FB0223334418EB020605
:1045600049EB0307CDE904670B26A4FB062306FBF2
:104570000533DDE900455B104FEA3202A41A65EB12
:104580000305CDE90045DDE902450AFB0BF3AAFB73
:104590000AAB0BEB430B4FEADA7242EA4B02A41A66
:1045A0004FEAEB7365EB0305CDE90245DEF8044005
:1045B000009B019DA4FB032304FB05334FEA5258E3
:1045C00048EAC3284FEA6359DDE90423B8EB020245
:1045D00069EB03039946D30B43EA494300B10360F7
:1045E00009B1029B0B6007B0BDE8F08F901A002064
:1045F000180E002024FAFFFF2DE9F04F87B06C4C15
:1046000002916C4922888E680546C2EB26135B43F3
:104610005200C2EBE602B4F902601B135643B4F930
:104620000420B4F90A0053439B1303EBE62606EB80
:10463000860380331B12B6F5FA384FEAE677049307
:10464000CB6847F1FF39A8FB08AB039308FB09F3DC
:10465000B4F908200BEB430BE389A6610593D3174C
:1046600008FB03F102FB0911A8FB02230B44C1174D
:104670001F030AFB01F300FB0B33AAFB0001160327
:10468000194447EA1257020A42EA016292194FEAB4
:104690002123E6887B410032A2FB060143F500435B
:1046A00006FB03114B100093CB170193DDE90023A8
:1046B0001343B4F810E0B4F80CC06DD00FFA8EF0CC
:1046C000C1170AFB01F1AAFB002300FB0B11BDF986
:1046D00014600B44F71708FB07F106FB0911A8FB50
:1046E00006670F4479047004801841EAD6315941B5
:1046F000039B0FFA8CF8C3F5801E7246D317002275
:1047000012184FEACE764FEAC3774FEAC8034B41FF
:1047100047EA5E07B61A67EB030740F63543A6FB88
:10472000030103FB0711DDE900230EF059F9B4F989
:1047300016204E1302FB06FE470B47EAC147D3176C
:1047400007FB03EEA2FB07235643734407FB0366F4
:10475000A2FB07233344560E46EAC3168219B4F966
:1047600014604FEA636741EB07037143F71700FBDF
:104770000717A6FB00013944C60C46EA41369219D8
:104780004FEAE1474FEA1221B4F912207B4141EA96
:10479000036113010B4400E000230DB11B0A2B60E1
:1047A000029B13B11A46049B136007B0BDE8F08F5B
:1047B000F01A0020180E0020704770472DE9F041D4
:1047C000324C334D62892B8AB4F904809A1A2389BA
:1047D000B4F902E05A43B4F91230D613B4F91420F4
:1047E000DB02324493FBF2F232440A26E261564382
:1047F000A2F57A6202FB02F3B4F90EC002FB0EFED0
:1048000002FB08F2B4F90C801B130CFB03FC03FB46
:1048100008F31B1403EB62320232E388921002F5B4
:10482000004253434CF25032B4F920704FEAEE2E5E
:10483000B4F900400EEBEC2C0CEB8404BC406D6929
:104840000234A5EBA4043A4162434FEAD3384EBF89
:10485000B2FBF8F35400B4FBF8F340F6DE3448BF83
:104860005B001A12524362430A4C08365C4324141C
:1048700004EB224202F6CF62361103EB221300B1A1
:10488000036001B10E60BDE8F08100BFA41A0020F2
:10489000180E002043E3FFFF024B4FF480521A80B2
:1048A000704700BF0C00002013B50C4B04465B683A
:1048B0001B20022101AA984770B19DF804209DF8A1
:1048C000053043EA022303F54E5310334FF48C7244
:1048D00093FBF2F32333238002B010BD7C1A002037
:1048E000054B1A7E02F0FF0122B101220270002264
:1048F0001A76704701707047180E002037B5104BBC
:1049000004465D68187806216A46A847A8B19DF854
:1049100000209DF80130012043EA022323809DF806
:1049200002209DF8033043EA022363809DF80420AF
:104930009DF8053043EA0223A38003B030BD00BFD9
:104940007C1A002013B5104B04465B683B200621FF
:104950006A469847A8B19DF800209DF801300120D3
:1049600043EA022323809DF802209DF8033043EAA6
:10497000022363809DF804209DF8053043EA02235A
:10498000A38002B010BD00BF7C1A0020B0F5807F6C
:104990000ED0BB280ED861280ED829280ED813288F
:1049A0000ED809280ED8002814BF06200020704712
:1049B0000020704701207047022070470320704795
:1049C000042070470520704710B5224C2368998A4F
:1049D00089B211F4706F1EBF1F4A0120507611F486
:1049E000E06F2BD01A8B9A88890522F480624FEAF7
:1049F00002424FEA12429A8020D41A8892051DD4AE
:104A00001A88D0050FD51A88D105FCD41A8892B21D
:104A100042F400721A801A889205FCD40F4B187861
:104A200003F04BF80AE01A8892B242F400721A803E
:104A30009A8822F440721204120C9A802268938A97
:104A400023F470631B041B0C9382054B00221A7025
:104A500010BD00BF48140020180E00204C14002088
:104A600060140020054A08B5138801339BB21380F7
:104A7000034B187803F021F8002008BD3A0E0020FF
:104A80004C14002008B54FF4804006F031FA01289C
:104A900001BF044B4FF480425A61034B08BF987624
:104AA00008BD00BF00040140180E002010B5074CDF
:104AB0002368186906F01CFA30B123681A69044BA0
:104AC0005A61044B01221A7610BD00BF881A0020DB
:104AD00000040140180E0020F8B50E461746084C99
:104AE0004FF48055656140F080000CF0E3FE3846DD
:104AF000002132460CF0A8FE25610120F8BD00BF60
:104B0000000C014070B50E46054C4FF480556561B0
:104B10000CF0D0FE30460CF0CDFE2561012070BDBA
:104B2000000C0140274B37B51A68274B04469A42C0
:104B30000ED14FF40053ADF8043002238DF8073046
:104B4000042322480DEB03018DF8063001F09DFD92
:104B50002046FFF71BFF05461D4C8021A3686B20F4
:104B60009847642006F055FFA368072168209847FE
:104B7000642006F04EFFA36800216B209847642054
:104B800006F047FFA36801216B209847A36818210E
:104B90001B209847A36810211C209847A36829462A
:104BA0001A2098470B4AA368117819209847A368E0
:104BB000122137209847A36801213820984703B075
:104BC00030BD00BF2C000020001BB70000100140CA
:104BD0007C1A0020101B002070B5FFF7D7FE104C88
:104BE0000546192006F015FFA368152000219847F7
:104BF00010B9022006F080FF45F01801A368C9B281
:104C000016209847A368002117209847A368012120
:104C10003D209847A3683E200121BDE87040184719
:104C20007C1A0020F0B5254D85B0EB7E002B43D1DA
:104C3000234C2368002B3FD01A68224E12B1B16971
:104C40000A43B2619A889868ADF8002002228DF874
:104C50000320694604228DF8022001F016FDB36995
:104C6000002743F00103B36123680126197D187BF7
:104C700001F0F6FC144806F089FF2368134A1B690B
:104C80005361029308230DEB03008DF80D308DF86E
:104C90000C708DF80E6006F0FCF8236801A85B7DAF
:104CA0008DF806708DF8043003238DF805308DF8EB
:104CB00007600CF0ABFDEE7605B0F0BD180E0020DD
:104CC000881A002000100240AD4A0008000401408C
:104CD00070B50446FFF7A6FF2046FFF757FE0546CE
:104CE000144C8021A3686B209847642006F091FE45
:104CF000A36803216B2098470F4AA36811781920F5
:104D000098470F2006F085FEA36829461A20984789
:104D1000A36818211B209847A36810211C209847DE
:104D2000A368022137209847A36838200121BDE8F5
:104D3000704018477C1A0020101B002008B5FFF7B0
:104D400071FF074B5B7813B1012B03D008BD4FF403
:104D5000006201E04FF48052024B1A8008BD00BF90
:104D6000781A00200C00002010B54000204CC0B282
:104D700020702048204C0170204800210170012043
:104D800020701F4C23601F4C23601F4B1A701F4A5A
:104D90001F4B107059761F49086811461A4630B3E8
:104DA00083889C0515D40388DB050DD447F2305366
:104DB0000488A40502D5013BFAD112E08BB1038827
:104DC0009BB243F48073038083889BB243F44073A7
:104DD000838047F23053087810B1013BFBD100E0EB
:104DE00013B9BDE810403DE6507E80F0010010BDD3
:104DF00052140020501400204E140020581400209B
:104E0000541400205C140020511400206014002071
:104E1000180E00204814002007B5002101AB032222
:104E20007720FFF7A1FF9DF805309DF804001B02D5
:104E300043EA00439DF80600184303B05DF804FB05
:104E400008B5FFF7E9FF014B586008BD180E0020B8
:104E500008B5FFF7E1FF014B186008BD180E0020F0
:104E600007B5F7216B4606227620FFF77DFF9DF8F8
:104E700000309DF801101B0343EA01139DF8021056
:104E8000094A43EA1113D3609DF803309DF80410DA
:104E90001B0343EA01139DF8051043EA11139360C5
:104EA00003B05DF804FB00BF180E00200F4B13B5D4
:104EB0001B780F4C0BB1A37EB3B1032201AB77205B
:104EC000F621FFF751FF9DF805309DF804201B02E5
:104ED00043EA02439DF806201343064AB2F9202014
:104EE000C2F10802D340636102B010BD320000205D
:104EF000180E0020A41A00200A4B13B51B780A4C88
:104F00000BB1A37E63B1022201AB7720F621FFF73C
:104F10002BFF9DF804209DF8053043EA02232382ED
:104F200002B010BD32000020180E002030B505463A
:104F30000C46134629462246BDE83040682013E758
:104F400013B50622044601211C206B46FFF70CFF17
:104F500008B39DF801309DF80020042143EA0222A5
:104F600042F38D0292FBF1F29DF8023022809DF80F
:104F7000032042EA032242F38D0292FBF1F29DF8F4
:104F8000043062809DF8052042EA032343F38D0339
:104F900093FBF1F3A38002B010BD13B506220446C3
:104FA000022118206B46FFF7DFFEB8B19DF80030F4
:104FB0009DF801209B0803EB022323809DF802301B
:104FC0009DF803209B0803EB022363809DF80430C7
:104FD0009DF805209B0803EB0223A38002B010BDBF
:104FE000314B2DE9F3411B780546002B3BD00024C3
:104FF00026462746A04601345320322108226B461C
:10500000E4B2FFF7B1FE08B9002049E09DF80120A5
:105010009DF80030202C03EB02231BB29DF80320E7
:1050200098449DF8023003EB02231BB21F449DF805
:1050300005209DF8043003EB02231BB21E449DF8AB
:10504000073003F07F0301D0002BD4D198FBF4F894
:1050500097FBF4F796FBF4F6144BA5F800806F80ED
:10506000AE801C771CE05320322106226B46FFF7EE
:105070007BFE0028C8D09DF801209DF8003003EB8E
:1050800002232B809DF803209DF8023003EB0223BE
:105090006B809DF805209DF8043003EB0223AB8064
:1050A00002B0BDE8F08100BF8E1A0020180E00206B
:1050B00013B502AB03F8012D4000214AC0B21070B5
:1050C000204A00201170204901220A701F490870EF
:1050D0001F490B601F490B601F4B20491A700A7053
:1050E0001F4B204A587610681A4630B383889C05B7
:1050F00015D40388DB050DD447F230530488A4058A
:1051000002D5013BFAD112E08BB103889BB243F484
:105110008073038083889BB243F44073838047F29B
:105120003053087810B1013BFBD100E013B9FFF711
:1051300099FC02E0507E80F0010002B010BD00BF7B
:105140005214002050140020581400204E14002047
:105150005C1400205414002051140020601400201E
:10516000180E0020481400207720482101229FE7D4
:105170007720582101229BE77620F421312297E7FE
:10518000064B002193F82020054B9201343299768A
:105190007720F42102F0FC028AE700BFA41A002065
:1051A000180E0020034B00229A767720F4212E223D
:1051B0007EE700BF180E002003460A466820194605
:1051C00076E713B500222A211C20FFF771FF0E217C
:1051D00002221C20FFF76CFF0F2103221C20FFF787
:1051E00067FF2B2112221C20FFF762FF164A0224C0
:1051F0009369164843F0040393612023ADF804300B
:1052000004230DEB03018DF806308DF8074001F003
:105210003CFA22462C211C20FFF74AFF2D210122B7
:105220001C20FFF745FF2E2100221C20FFF740FF26
:105230002A2105221C20FFF73BFF054B4FF480720B
:105240001A8002B010BD00BF0010024000080140EB
:105250000C00002008B50F2108221820FFF728FFB6
:105260000E2218201021FFF723FF024B4FF480522B
:105270001A8008BD0C00002008B5134B53201B7882
:105280002D2108227BB1FFF713FF31210A22532081
:10529000FFF70EFF2C210C225320FFF709FF5320AC
:1052A0003821902209E0FFF703FF31210A22532021
:1052B000FFF7FEFE53202C210A22FFF7F9FE40F2F1
:1052C0000912024B1A8008BD8E1A00200C00002023
:1052D00002F0EEBCFFF778BB02F0EABCFFF774BB4C
:1052E00010B5074C2368186905F002FE30B1236839
:1052F0001A69044B5A61044B01221A7610BD00BF93
:10530000881A002000040140180E00202DE9F04703
:105310004728A0B0044600F0628600F2CE802E2816
:1053200000F0118667D8222800F0C18423D8032812
:1053300000F0378214D8012800F02882022840F0BB
:10534000838604200BF02EFE43200BF0F8FD4C204A
:105350000BF0F5FD46200BF0F2FD4C2000F0C8BD2F
:10536000042800F02882052840F06E861A200BF0F1
:1053700019FE002431E2282800F0828515D824285F
:1053800000F06985262840F05F86E44C06200BF08B
:1053900009FEB4F858010BF008FEB4F85A010BF0FE
:1053A00004FEB4F85C0100F045BD2A2800F07B85BE
:1053B0002C2840F04986D94C0C200BF0F3FD94F8D2
:1053C00090010BF0BCFDB4F89A010BF0EEFDB4F8BF
:1053D00096010BF0EAFDB4F898010BF0E6FD94F8A5
:1053E00091010BF0ACFDB4F89C010BF0DEFDB4F8BC
:1053F0009E0100F01FBD3A2800F0E6821DD8342837
:1054000000F077840DD8302800F0B385322840F0C2
:105410001B8601200BF0C6FDC04B93F8920100F0F3
:1054200067BD362800F07585382840F00D860420C9
:105430000BF0B8FDB94C00F014BD402800F05B85BE
:1054400011D83B2800F02C843D2840F0FD85B34C5A
:1054500002200BF0A7FD94F8E0010BF070FD94F82A
:10546000DF0100F045BD452800F0DB8500F2A68590
:10547000422840F0E985A94C10200BF093FD60799B
:105480000BF05DFDA0680BF099FD94F890010BF016
:1054900056FDB4F858010BF088FDB4F85A010BF032
:1054A00084FDB4F85C010BF080FDB4F880010BF0D2
:1054B0007CFDB4F8820100F0BDBC6F2800F0DE82F4
:1054C00000F2E680662800F0C48100F2BB804D281F
:1054D00000F0EF8415D8492800F0AA824B2840F04C
:1054E000B3858E4C04200BF05DFD94F8D6010BF0D3
:1054F00026FD94F8D7010BF022FDB4F8D80100F096
:1055000099BC642800F08281652840F09D85844C18
:105510000B200BF047FD20880BF047FD608880B220
:105520000BF043FD7F4B1B68C3F3C000C3F3800245
:10553000800040EA4200C3F340021043C3F340122C
:1055400040EAC20003F0100318430BF02EFDA288BE
:10555000A36802F0080103F4475949EA010903F47A
:10556000804149EA010903F4004149EA010903F4D1
:10557000803149EA010903F4003149EA010903F4E1
:10558000802149EA010903F4002149EA010903F4F1
:10559000801149EA010903F0007349EA0303DFF8C7
:1055A000889112F0010F99F8009018BF4FF002088F
:1055B000C9F3800908BF4FF0000843EA090312F05D
:1055C000020F43EA080314BF4FF0040C4FF0000C25
:1055D00012F0040F43EA0C0C14BF4FF0100E4FF002
:1055E000000E12F0400F14BF202700274CEA0E0EC9
:1055F00012F0100F14BF4FF4007600264EEA070792
:1056000012F0200F14BF4FF4806500253E4312F4C2
:10561000807F14BF4FF400600020354312F4007FF8
:1056200014BF4FF400110021284312F4806F41EAA7
:10563000000114BF4FF08063002300201943247B36
:105640000346F3E0692800F0A2810AD8672800F039
:105650002981682840F0F88410200BF0A3FC002476
:105660008DE16D2800F0A68100F2B4816C2840F035
:10567000EB842B4C06200BF095FCB4F868000BF083
:1056800094FCB4F86A000BF090FCB4F86C00D1E321
:10569000772800F0978354D8732800F0B38345D857
:1056A000702800F01D82722840F0CE841B4C16201A
:1056B0000BF078FCB4F896010BF077FCB4F84001DD
:1056C0000BF073FCB4F842010BF06FFCB4F844012A
:1056D0000BF06BFCB4F8D8010BF067FC00200BF06A
:1056E0002EFC00200BF02BFC00200BF028FC94F883
:1056F00085010BF024FC94F892010BF020FC0020B3
:105700000BF01DFC064B0A20DB6CB3F9623093FBF7
:10571000F0F080B20BF049FCA3E300BF9827002013
:10572000380E00200C1B0020BD2F0020742800F034
:105730000583752840F088842F200BF033FCBF4C84
:10574000A6E2A02800F079830AD8782800F0B68075
:105750007B2840F079843C200BF024FC002441E2BB
:10576000F12800F0E680FE2800F05783F02840F092
:105770006B84B34C04200BF015FCE36CB3F86600AB
:105780000BF013FCE36CB3F8640053E303200BF05D
:1057900009FC00200BF0D3FB20460BF0D0FB0D20C2
:1057A000A6E30BF0FFFB01200BF0C9FB0B200BF075
:1057B000C6FB00209CE306200BF0F4FB41200BF01D
:1057C000BEFB46200BF0BBFB4E200BF0B8FB41208C
:1057D0000BF0B5FB9B4B18782CE39B4B185D013409
:1057E0000BF0ADFB0B2CF8D10024984B185D013465
:1057F0000BF0A5FB082CF8D10024954B185D013463
:105800000BF09DFB072CF8D100F01CBC07200BF01F
:10581000C9FBE7200BF093FB8E4B58790BF08FFB05
:1058200000200BF08CFB042000F00ABCA3420AD23B
:10583000894A9D5C012202FA05F50D421CBF9A407F
:1058400010430133F2E70BF0B9FB824B93F8B0073A
:105850004EE312200BF0A6FB804B00251B88B3F50E
:10586000806F8CBF08260126754C04F1280333F99C
:105870001500013590FBF6F080B20BF096FB032D7E
:10588000F2D1E08D0BF091FB208E0BF08EFB608E41
:105890000BF08BFBA08E0BF088FBE08E0BF085FBF2
:1058A000208FC7E210200BF07DFB00246C4B185DAD
:1058B00001340BF044FB102CF8D1C3E370200BF043
:1058C00071FB00260E2474435D4D0136EB6C2344BE
:1058D000B3F825010BF069FBEB6C2344B3F8270107
:1058E0000BF063FBEB6C2344B3F829010BF05DFB79
:1058F000EB6C234493F82B010BF021FBEB6C23445E
:1059000093F82C010BF01BFBEB6C234493F82D0157
:105910000BF015FBEB6C234493F82E010BF00FFBFF
:10592000EB6C1C44D4F82F010BF048FB082EC9D1B6
:1059300088E370200BF036FB464C04F1700594F8B8
:10594000D0000BF0FCFA94F8D1000BF0F8FA94F8C0
:10595000D2000BF0F4FA94F8D3000BF0F0FA94F8BC
:10596000D4000BF0ECFA94F8D5000BF0E8FA073409
:1059700094F8CF000BF0E3FAAC42E0D162E3394B8C
:10598000185D01340BF0DBFA102CF8D15AE3364DD8
:1059900000242878400000F0FE000BF003FB2B7879
:1059A0009C4280F04F83314B33F814000BF0FDFA2A
:1059B0000134F4E7224C06200BF0F4FA206F0BF0D0
:1059C000FDFAB4F8740035E204200BF0EBFA1C4B3E
:1059D000986F35E34FF6FF7507200BF0E3FA244B81
:1059E000174C1888FF28A8BFFF20C0B20BF0A7FAF9
:1059F000204B1868A842A8BF284620EAE07080B271
:105A00000BF0D3FAB4F87C000BF0CFFA114BD4F8BA
:105A1000800093F885313BB10A235843A842A8BFC0
:105A2000284620EAE07001E000F30F0080B201E2B6
:105A300002200BF0B7FA104B1888FBE197730108AE
:105A4000380E0020C12F0020479201085392010810
:105A50002B92010898270020450E00200C00002002
:105A6000720E0020880E0020802F0020DA260020F1
:105A700098170020F0160020141B0020C04C0B20AB
:105A80000BF090FAD4F88430254618780BF057FACA
:105A9000D4F88430002658780BF051FAD5F88430C9
:105AA000B74C3344187901360BF049FA032EF5D17F
:105AB000D4F88430D8790BF042FAD4F8843098784E
:105AC0000BF03DFAD4F88430D8780BF038FAD4F8DB
:105AD000843058890BF069FAD4F88430187A07E2D8
