:020000040800F2
:1000000000A0002069E10008BD94000869CB000849
:10001000BB940008B9940008B794000800000000E1
:10002000000000000000000000000000B59400087F
:10003000B394000800000000B19400081D66000899
:10004000D1E10008D1E10008D1E10008D1E10008C8
:10005000D1E10008D1E10008D1E10008D1E10008B8
:10006000D1E10008D1E10008D1E10008D1E10008A8
:10007000D1E10008014E0008254B0008D1E100083D
:10008000D1E10008D1E10008D1E10008D1E1000888
:1000900039950008D1E10008D1E10008D1E100085C
:1000A000D1E100088D930008D1E100089D9300087C
:1000B0007D9300086D9300085D930008D1E100086E
:1000C000D1E10008D1E10008D1E10008D1E1000848
:1000D000D1E10008AD4A0008D1E10008D1E10008F3
:1000E000F5A30008D1E10008A3940008D1E10008BD
:1000F0003D930008D1E100084D930008D1E10008CC
:10010000000000000000000000000000D1E1000835
:10011000D1E10008D1E10008D1E10008D1E10008F7
:10012000D1E10008D1E10008D1E10008D1E10008E7
:10013000D1E10008D1E1000800000000000000004B
:10014000D1E10008D1E10008D1E100080000000081
:10015000000000000000000000000000000000009F
:100160000000000000000000D1E10008D1E100081B
:10017000D1E10008000000000000000000000000C5
:0801800000000000D1E10008BD
:100188002DE9F04FA44C2378062B9CBFA34A3421B9
:100198002DED0E8B98BF01FB032393B094BF9F6A8C
:1001A80000279F4D9F4EEB680BA898479DF82C3071
:1001B80023B12378062B0CD900230FE005F068FF44
:1001C800994B1B68FB1A1844336864339842E8D388
:1001D800EFE7924A342101FB03239B6AD6ED000A1C
:1001E800924A9FED939A934C934E9BB2F8EE600A15
:1001F80007EE903A138060EE890A904AB8EE670AD3
:1002080020460121C2ED000A07F090FFFCEEC07AFB
:10021800894817EE903AA3816B68984740B9884D92
:10022800DFF834922B6813F0020F40F0CA80DCE349
:1002380025692DB3B71E0020824900F1180301EB90
:10024800000C0B44624605F1FF3E002132F8028F94
:1002580022F8028C1EF9019F9A4218FB0911F5D168
:1002680037F8023FACF8183095F90C201A304E28B0
:1002780013FB02134FF4807293FBF2F33B80DBD144
:100288006D48714F94F862206A4D014605F0B8FC3C
:100298003B8805F1B00A002B6BD06B6E1B7808EE1B
:1002A800103A05F168084FF0000974353988B1F53E
:1002B8007A7F02BF0023C8F800302B61D8F80020ED
:1002C80036F919301A4407EE903A2B69C8F800201D
:1002D8000133012B4FEA490BF8EEE77A2B6106D17F
:1002E8000023C5ED017AC5ED007AAB601BE0D5EDC2
:1002F800006A07EE103A37EEE66AB8EEC77A86EE7D
:10030800077A36EE877AD5ED026A85ED017A77EEBF
:10031800C77A85ED007AE6EE276AF0EE667AC5EDD3
:10032800036AC5ED026A0023012926F80B302AF872
:100338000B302AD12B69012BC3BF03F1FF3300EE29
:10034800103AD5ED037A9FED410AC4BFB8EEC00A52
:1003580087EE800A0FF046FE18EE103A5BB1F8EE11
:10036800C87AB4EEE70AF1EE10FA04DD4FF47A73B6
:100378003B8000231AE0D8F800304FF47A7203F576
:10038800FA7393FBF2F32AF80B3009F10109B9F17A
:10039800030F08F1040805F1140587D138880128EE
:1003A80001D105F027FE3B88013BE1E736F8132031
:1003B8003AF81310521A26F813200133032BF5D1FB
:1003C8002DE7234B1B78002B00F00F8305F060FE10
:1003D800D4F8B830C4F8B800C31A0AEE103A0027A7
:1003E800D4F8BCB0DFF874809BF80010C1B339F9B9
:1003F8001730F8EE4A0A00EE103A164B0C2000FBB4
:100408000730B8EEC00A60EE890A07F08FFEFDEEED
:10041800C07A17EE903A25E086020020900000206E
:10042800F81500203C180020080C00209C1800201B
:10043800BD37863508050020E6140020FC1400208E
:100448008C1800201C0500204C2300200000000010
:1004580034230020C805002004230020DE0B0020E0
:1004680039F8173028F817300137032FB8D1B8F802
:1004780000300593B8F80220BDF81430B8F804101D
:100488002F6812FB02F913FB0399A14B11FB019989
:10049800642000FB09F0B3F8009017F0080709FB87
:1004A80009F99A4690FBF9F9A9F152090DD0994832
:1004B800B0F900703FB1B0F9027027B1B0F904701B
:1004C800003718BF012707F00107B6F90030D4ED4F
:1004D800395A904809920AEE903AB6F90230B0F8C3
:1004E80000C008910BEE903AF8EEEBBAB6F904307A
:1004F80046888088CDF81CC06BEEA5BAF8EEEAAA4B
:100508000BEE103A6AEEA5AA2BEEAB0AB8EECBBA00
:10051800AAEEAA0A0690804DDFED808A2BEE25BA56
:10052800F8EE4A7AABEE0B0A27EE899A0FF05AFDDD
:10053800F7EE009AB0EE40CA0698DDF81CC008999C
:10054800099A002F5BD00FFA8CFC07EE90CA33B2E1
:10055800B8EEE7DA08EE103A2DEE0D0AB8EEC88AC2
:1005680000B207EE900AA8EE080AF8EEE7CADFED37
:100578006C7AACEEAC0AB4EEE70AF1EE10FA3EDDA6
:10058800079206910FF02EFD89EE800AD5ED017ACB
:1005980095ED007A28EE008A2DEE00DA68EE277ACB
:1005A8006CEE80CAE7EE0D7A95ED040A95ED027AB5
:1005B80028EE008AE7EE2C7A95ED037AA7EE0D8AED
:1005C80095ED057AA7EE2C8AB0EE68DA28EE080ACF
:1005D800F0EE68CAA7EEA70A0FF004FDD5ED067A7B
:1005E8000699079A20EE480AA7EE80DAD5ED077A31
:1005F800E7EE80CAD5ED087AE7EE808A03E0F0EEF0
:1006080068CAB0EE68DAB9F1260F3ED8BDF91430E1
:1006180007EE903A12B2B8EEE78A07EE902A28EE73
:10062800080AF8EEE7DA09B207EE901AADEEAD0A5D
:10063800B8EEE7EADFED3A7AAEEE0E0AB4EEE70A74
:10064800F1EE10FA21DD0FF0CDFC89EE800AD5ED30
:10065800076A95ED087A2EEE00EA6DEE80DA66EE0E
:10066800CE7A28EE008AEDEE877A27EE487A3DEEBC
:1006780027DAD5ED067AAEEE277A67EEED7A7CEECC
:1006880087CAE8EE267A78EEA78ADBED017AF5EEDE
:10069800C07AF1EE10FA4FF000031FDD9FED217ACA
:1006A800B4EEC7CAF1EE10FA1ED567EE8D6A94ED66
:1006B8003A7AA6EE897A67EEAC6A84ED3A7A94EDD6
:1006C8003B7AA6EE897A67EEA87A84ED3B7A94EDB8
:1006D8003C7AA7EE897A84ED3C7A05E0C4F8E830E4
:1006E800C4F8EC30C4F8F0300F4EDBED027A337802
:1006F80059071DD40D4B1A6844F61F639A42F7EE4A
:10070800005AB2EE047A98BFF0EE475A12E000BFE2
:1007180000000020020C0020B41700200000000098
:100728000AD7233CC2B8B23E532300204C180020FD
:10073800F7EE005A67EEA55AD4ED3C6A94ED3A7A82
:10074800D4ED3B7ADFF85093C74A99ED004AC74B7E
:10075800D2ED003AC64F0692E5EEA86A0593A5EEDB
:100768008D7AE5EEAC7A3BEE26BAF6EE006A69EED3
:10077800266A7BEEA77A3AEE877A27EEA66A27EEF4
:10078800267A6BEE266A26EE445A24EE260AD3ED24
:10079800007AD7ED004A9FEDB78AA7EEC75AA3EEB5
:1007A800870AF1EE645AA5EEA65AA5EE860A66EE09
:1007B800E75A37EE800AE3EE865A67EE867A33EE1A
:1007C800855AE4EE875AE3EEA67A83ED000A20EE16
:1007D800000A74EE255AA5EE050AE4EE477AA5EE5E
:1007E800A50A74EEA77A82ED005AA7EEA70AC9ED0A
:1007F800005AC7ED007A0FF0F5FB89EE800A069AD9
:10080800059BD2ED007AD7ED009A67EE807AC2EDAB
:10081800007AD3ED007A67EE807AC3ED007AD9EDDD
:10082800007A67EE807A29EE800AC9ED007A87EDB2
:10083800000A09F0DBFFD5ED080A95ED070A8E4F8F
:100848000FF0CEFB20EE080A0FF026FB95ED060A06
:100858003880B1EE400A0FF065FBDFED887A37EE9D
:10086800C00A20EE080A0FF017FBD5ED000A95ED37
:10087800030A78800FF0B4FBD4ED3D7AE0EE487AB5
:10088800B0EE670A0FF008FB83B21A0458BFBB80AA
:10089800D5ED085A7A4BD4ED3E7A1A7895ED010ACF
:1008A80095ED065AF4EEE75A44BF00F56160B8804A
:1008B800F1EE10FACCBF42F0080222F008021A70DA
:1008C800B8F90030D5ED007A06EE103AB8F90230E2
:1008D80007EE103AB8EEC77AB8EEC66AB8F904302F
:1008E80027EE000A06EE903AA7EE860A9BF801303A
:1008F800F8EEE66AD5ED027AA7EEA60A012BD5ED49
:10090800077A67EE277AE5EE067AE5EEA67AD5ED60
:10091800045A27EE257AD5ED035AA5EE867A95ED89
:10092800056AA6EE267AB1EE478A18D133785D07B4
:100938000FD4D4F8FC30402293FBF2F29B1A07EE56
:10094800103AB8EEC77A37EE277ABDEEC77A84ED4B
:100958003F7AD4F8FC30402293FBF2F301E0BAF876
:100968000030D4ED408A07EE103AB8EEC77A77EE39
:10097800C77A94ED417A39EE077A77EEE87A89EE0C
:10098800079AE9EE278AC4ED408A0FF085FAD4F871
:100998000851297807F008FED4F80C31B0EE480A5F
:1009A8001844C4F80C010FF077FA297807F0FCFD19
:1009B800D4F81031B0EE680A1844C4F810010FF0EA
:1009C8006BFA697807F0F0FDD4F814312D4A184411
:1009D8001AEE101A1368C4F814011944D4F818311F
:1009E80011600133C4F8183106E00023A9F800307B
:1009F800A9F80230A9F80430234BB3F90610234BA9
:100A0800D3F800E0BEF80A2091420FDBB1F5FA6F87
:100A18009EF80750BDBF8B1A6B43A2F5FA65C5F166
:100A28006405BCBF93FBF5F5643500E06425184BFD
:100A3800184AB3F894C193F95E31126805929BB2D3
:100A4800164606930022104B33F91280CCEB0803AC
:100A580003F2F31440F2E63084424FEA42091DD80B
:100A6800002BB8BF5B421BE08C000020A8170020B9
:100A7800B01700204C3D0F44E0140020DB0FC93FA5
:100A8800F80C0020382300200C2100201C1800201E
:100A9800F0190020D8130020AC1700204FF4FA7387
:100AA800022A059C4FF064002AD094F81D411CB11D
:100AB800A342CCBF1B1B0023B54C93FBF0F76FF090
:100AC800630B34F817A00BFB073B013734F91740C9
:100AD8000FFA8AF7E41BAF4F04FB0BF494FBF0F416
:100AE800544427F809400EEB020424796343AA4CC6
:100AF80093FBF4F364339BB26B4393FBF0F02CE06D
:100B080094F81E411CB1A342CCBF1B1B0023A34C6D
:100B180093FBF0F06FF0630A0AFB003B04EB40071D
:100B280004EB4000B7F91C71B0F91E01C01B00FBB3
:100B38000BFBBDF818009BFBFAFBC7EB0B0717FB79
:100B480000F7944887809EF80600002BB8BF5B42E8
:100B58004343914893FBF0F064307478904B6427DA
:100B6800444394FBF7F49C5403F1030AF47A444396
:100B780094FBF7F40AF802400633747D022A00FB5E
:100B880004F0844C90FBF7F09854864B0DD1E04567
:100B98009F700DDB844DB5F89621914214DBB1F5B9
:100BA800FA6FA8BF4FF4FA610FE0E0459D5404DAEC
:100BB80034F809305B4224F809300132032A06F17F
:100BC80001067FF440AFE5E71146DFF81CE2714EFD
:100BD800891A4FF47A736FF063005943C2F5FA62C9
:100BE8006423B1FBF2F191FBF3F23EF8127000FBC3
:100BF8000211013238B23EF91220121A514391FB08
:100C0800F3F33B44E380694B1B8858063CD5684B9B
:100C1800DFED687AB3F904309FED670A0A2293FB87
:100C2800F2F35E4AB2F834219B1A1BB208EE103A6E
:100C3800B8EEC88A28EE278A38EE000A07F0C3FC07
:100C4800F0EE408AB0EE480A07F0BDFCB6F9023073
:100C580006EE903AB6F90030F8EEE66A07EE903AFA
:100C680020EE667AF8EEE77AA7EEA87A67EE807A41
:100C7800BDEEC77AE6EEA87A17EE103AFDEEE77AEF
:100C8800338017EE903A738095F89A31002B51D043
:100C9800424B9A89B3F83601B0FBF2F0474A461C3A
:100CA8001278B6B2A3F8386112B3B3F83A910023B8
:100CB8003A4F34F813C007F5A27E07F59E783EF840
:100CC800132038F813102EF813C0C2EB0C0A11FBCE
:100CD80009F132B291FBF2F2524428F813200133A1
:100CE800042BE5D1354BA7F83A0100221A7004E02D
:100CF800B3F83A21013AA3F83A21284AB2F83A015E
:100D080003B2002B4FF0000312DDB2F938612C4911
:100D180031F81320083112FB00F231F8131092FB5E
:100D2800F6F28A1A24F813200133042BEFD101E0DC
:100D3800A2F83A31234B244E1A7812F0040F03D04C
:100D4800224B08221A8560E03168C9075CBF42F06F
:100D580001021A701E4A127812075EBF1A7822F032
:100D680001021A701B4A11881B4A19B11B490968EC
:100D78008F0706D41A49098819B91A4800886428BF
:100D880034D9022111701A7822F001021A7033E066
:100D9800B2100020D81400200CFEFFFF0805002028
:100DA80032060020EC140020F019002076140020F0
:100DB800E014002035FA8E3CDB0FC93F4C0D0020B3
:100DC8004406002053230020E40C002000040048BF
:100DD800F80C0020080D0020741800208C18002042
:100DE8004C230020881800209A1000201B78D80770
:100DF80056BF02231170137005F04AF9AB4B1B68FC
:100E0800C01A002801DB09F015FFA94B9B680BB13C
:100E1800A8489847A84B1B78ABB1A84BB3F9062054
:100E2800B5F896319A420EDCA54B5B79012B01D0BF
:100E3800192B02D195F8E6212AB90E2B03D0082BDD
:100E48001CBF0023A3809F4B1A6892F82471984610
:100E58009FB39D4B1B889B072FD09C4BDFED9C7A43
:100E680093ED080AB4EEE70AF1EE10FA21D90FF073
:100E780059F8984BD3ED547A20EE270A0FF00CF866
:100E8800B0F5617FA8BF4FF4617007EE900AB8EE25
:100E9800E70ADFED917A80EE270A07F094FB07EE68
:100EA800907AF8EEE77A27EE800A0EF0F5FF80B226
:100EB80000E00020E3881844E080884B1B784BB1A1
:100EC800874B00221A605A609A60864B00221A608B
:100ED8005A609A60844BD8F80000B5F86A210093EC
:100EE800824B1F68824B196800F16403B847814B35
:100EF80078491878804B03281BD9D1F85421B2F8C7
:100F080002C0BCF5FA7F14D2B4F904E0B3F9048046
:100F1800BEF1000FB8BFCEF1000ECCF10007CEEB4A
:100F28000702904504DB0CEB0E024245A8BF42467F
:100F38009A80326817010CD5D1F85491B3F802C0E1
:100F4800B3F80080B3F904A06C4E00210A460F469E
:100F58007DE06B4A126812F48052EDD1694ED1F8E7
:100F680054C132705F88E688B3F800E0B3F90480B2
:100F78006549824201F1100180F00E819CF9003030
:100F880051ED045ADFF888915B4208FB03F307EE42
:100F9800903A0FFA8EF306EE903A33B206EE103A14
:100FA8003BB2B8EEE77A07EE903AF8EEE77AB8EE99
:100FB800C66A67EEA57A51ED065AE6EE257AF8EE8E
:100FC800E66A11ED056AE6EE867A51ED036AE7EE08
:100FD800267AFDEEE77A17EE903A29F812300132B8
:100FE800C7E799F9003096ED016A5B420AFB03F303
:100FF80007EE903A0FFA8CF306EE903A0FFA88F360
:10100800B8EEE77A07EE903AF8EEE77AF8EEE66A95
:1010180067EE867A96ED026AE6EE867A0DF12C0E78
:101028000FFA82FBD6ED036AE7EE267AFDEEE77A41
:10103800CDED057ABDF814302EF817300FFA83FE7F
:10104800DE4507DD1A460B4601371036194687423A
:10105800C7D305E00FFA81FBDE45F5DB1346F1E760
:101068002A4B284E1B685F88B3F800E0521ACEEB73
:10107800070189B20BB212B29A424FF0000349DD60
:101088004FF0010C86F800C083420BD20DF12C0CF6
:101098003CF8136016FB01F696FBF2F62CF8136089
:1010A8000133F1E71FFA8EF6BAB23CE07818002057
:1010B800F815002054060020040000200C21002010
:1010C800F0190020D813002076140020B41700204F
:1010D8008FC2753C08050020EFB6B044060000201A
:1010E8000C150020D4150020761B00208802002053
:1010F8001C1800205C1600204815002060060020FF
:101108000821002054230020680600202C17002006
:10111800141600203370022192FBF1F20EEB020349
:10112800BA1A9EB292B2E7880021814234D20BAB40
:1011380033F9113007EE903A3BB206EE903A6B4B1A
:1011480003EB0113B8EEE77AF8EEE66AD3ED007A1E
:1011580033B266EEA76A07EE903AF8EEE77AF4EE55
:10116800E76AF1EE10FA0BD413B207EE903AF8EEF4
:10117800E77AF4EEE76AF1EE10FAD8BFF0EE667A95
:1011880077EE277ADFF878E1FDEEE77A17EE903A06
:101198002EF811300131C8E7554BDFF884E11A7891
:1011A80002F0040202F0FF0312B99EF800207EE06C
:1011B800504B5149DB780693504B186810F0006388
:1011C80005931DD10B68DE0418D44D4A9EF80070B3
:1011D80013880126BE420FFA83FC07D232F9163073
:1011E8006345B8BF63469BB20136F3E7454A1268C8
:1011F8005288944504DD9A1A92B202E0059A00E0FA
:1012080000220B6840499EF800B0B1F906603F49DA
:10121800D1F818C23E4903F480590F68394903F0E0
:1012280010030793364B096803EB4B0B5B4535D02E
:10123800059850B9B9F1000F40F01684B3F800E0F2
:10124800C2EB0E0EA3F800E003E0B9F1000F40F086
:1012580016840698B1F80280B3F900A040B1B1F83D
:1012680004E0F24516DBC245D646A8BFC64611E0E3
:10127800B1F800E0F24503DBC245D646A8BFC64632
:10128800A3F800E0BCF810E0764505DA079818B135
:10129800B1F804E0A3F800E00233C7E71B4890F870
:1012A8001C32013BDBB2182B00F23D8109E093426E
:1012B800F4D2184931F81300114921F81300013309
:1012C800F5E701229A40144B1340002B00F02B81C4
:1012D800124B0D491B8813F4807F23D02388ADF867
:1012E8002C306388ADF82E30A38831E060060020EA
:1012F800532300205018002008210020E40C00206F
:10130800141600202C1700200C21002008050020AE
:101318002817002020180020992098017614002012
:101328005C160020B54B1A88ADF82C205A88ADF809
:101338002E20B34A9B881268ADF83030D40409D502
:10134800D0F81822B1F90640D289944202DA5B42F9
:10135800ADF83030AB4CB4F902304FF47A7203F583
:10136800E16353434FF4616093FBF0F3A3F5FA7321
:10137800ADF84430B4F9003003F5E1635A43A24BA9
:1013880092FBF0F21B88A3F2DC53ADF832309F4B8E
:10139800A2F5FA72D3F81832ADF84620DB890A882C
:1013A800D21AADF834204A88D21AADF836208A8885
:1013B800D21AADF83820CA88D21AADF83A200A896C
:1013C800D21AADF83C204A89D21AADF83E208A8953
:1013D800D21AADF84020CA89D31AADF8423000239A
:1013E8008B4A002122F813100133082BF8D1894ABF
:1013F800894B12680592894A1B78126888490692B7
:10140800884E072202FB031B594572D00B7833B173
:1014180003F1150201239340059A134065D011F892
:1014280006CC069B11F805AC11F8034C11F8018C99
:10143800CCEBCC0E03EB4E0E6420BEF90020BEF9B7
:1014480002309B1A9BB211F9022C4FEA53095A43F6
:101458004FEA4A0792FBF0F212A8C9EB020292B2D5
:10146800074414B937F81C0C0CE0B6F9000037F93A
:101478001C7CB84208DA0444844203DBA74238469D
:10148800A8BF2046308008E007DD041BBC4203DB10
:101498008442A8BF044627463780DEF80A4011F97F
:1014A800047C012000FA0AF02042308812B217FBAF
:1014B80000F014BF4FF0FF340124642790FBF7F0CD
:1014C80090420ADB4FFA88F25A4392FBF7F2C9EBD3
:1014D800020212B28242A8BF02464D4B33F81C905A
:1014E80002FB049423F81C4000E0338002360731E5
:1014F8008AE74A4B4C4FD3F8008000260E2202FBA5
:10150800068237F8023F92F90640F0B214FB03F363
:10151800642493FBF4F43C8009F04EF9013620442E
:10152800082E3880EAD1364B394E1A683B4F12F0F4
:10153800200F984632D0002009F03EF9308004464A
:10154800012009F039F9334B70801B68190625D53D
:101558002E4B2C4AD3F840321B78012B22D1396804
:10156800138891F914E0B2F902201EFB03F34FF03F
:10157800320C93FBFCF31FFA83FE91F906305B42B1
:1015880053436FF0310193FBF1F10EEB0102A11807
:1015980093FBFCF37344318018447080D7F800E063
:1015A800002318E0D7F800E053889EF9061011FBD5
:1015B80003F1322391FBF3F12144318011889EF924
:1015C800142012FB01F292FBF3F21044E5E7013319
:1015D800082B32532AD00E2101FB03E136F9130000
:1015E800B1F90020B1F9021090424FEA4304EEDB52
:1015F8000AB28242A8BF0246E9E700BF48150020A8
:1016080008210020E01400201416002008050020FE
:10161800E40B0020E40C002030170020DC1300202D
:101628003717002026070020E20B0020A54CD4F82D
:1016380054A19AF90830A3B994F81C9209F1FF3320
:10164800182B72D8DFE803F03571714F717171484A
:1016580071717171715971717171714F65717159D0
:101668003500DFF884B24FF00009974B3BF9021FB1
:10167800BAF90620882000FB093008F0C9FE3A684C
:101688000E2380B203FB0922ABF80000B2F9003048
:10169800B2F9022000B2984203DB13B28342A8BF1A
:1016A800034609F10109B9F1080FABF80030DCD1A4
:1016B800C2E79AF8043013B10020718908E0834B1F
:1016C8001B7803F0040303F0FF00002BF4D101465C
:1016D80003F086FB012729E00020F18803F080FB56
:1016E8000120318905E00020318903F079FB7189F7
:1016F800012003F075FB022718E00227B81E36F810
:101708001710C0B2013703F06BFB082FF6D106277C
:101718000CE00327F81E36F81710C0B2013703F0A3
:101728005FFB072FF6D1042700E00027D8F8003028
:101738009A0602D4B9F1050F0AD13846318803F068
:101748004FFB781CC0B2718803F04AFB0237FFB226
:10175800D8F80030DB0205D494F888367BB108F05D
:1017680073FF0CE0DFF884910026B819C0B239F88D
:10177800021F03F035FB0D2EEED00136F5E7544B72
:101788001878002840F09A81D8F800301E0340F1FC
:10179800958194F88936023B052B20D84D4B93F858
:1017A800003733B1012B0AD107F078FCC0F17F0074
:1017B80005E0444BD3F88C0603689B689847D4F837
:1017C800903694F894261344B3F5807FA8BF4FF45D
:1017D80080738342D4BFC4F89036C4F8900694F856
:1017E8008936023B082B00F22E81DFE813F009004E
:1017F8003F002C012C0158008100F0000E011B0154
:10180800354B1A68D4F89C3664339A4240F21B81EF
:10181800402009F091FF002840F0158140272F4B08
:10182800D4F89826274E985C1D4670B105F00AF842
:10183800D6F89036013BC6F89036D6F89836013F70
:1018480003F10103C6F89836E9D1D4F898261D4B60
:10185800AA5C002A40F0F780C3F898264FF0FF32C0
:10186800C3F89C26032283F88926ECE025230093FD
:101878001B4B019303F10C0202924920A3F10A02C7
:101888005021023305F03CF9002840F0DC804FF08D
:10189800FF33C4F89C36C4F898060623CCE0114AF6
:1018A80005230021009301910291532002F10803BE
:1018B80005F026F9002840F0C680C4F898060723EA
:1018C800BAE000BF0805002050070020532300207D
:1018D80050230020F01900204C1800207007010840
:1018E800DA0701088C090108E20B00201221002008
:1018F800402009F021FF002840F0A580D4F8983650
:101908000C2B00F2A780DFE803F0070B0E12182358
:10191800282D3135434D51006B480EF06BF850E0DF
:101928006A486B4911E06B486B496C4A47E06C4860
:1019380095F8FE1695F8FF2641E095F8D8366948DF
:101948000C2202FB035595F8DA160EF053F838E02E
:10195800654B6648B3F84011F7E7634B6448B3F842
:101968004211F2E7634B64481969EEE7634B644838
:101978001988EAE7D4F8A036D80404D55A4B614848
:1019880093F87811E1E7604B0B22C3F8982618E02A
:101998005E4895F87C1195F87D2195F87B310EF01D
:1019A80029F80EE05A48B4F8A416CEE7D8F8003063
:1019B800190506D55748B5F88011B5F97E210EF0FE
:1019C80019F8D4F898360133C4F898363BE0524BEE
:1019D8001B689A0116D5B4F8A8364B4D93B9D5F8BB
:1019E800AC360B934D4B0E201B680C930BA904F0DF
:1019F80051FF4FF48053A5F8A636092385F8893698
:101A080005F096F904F0AAFE1DE094F8B036002B14
:101A1800F6D0414B1B689B01F2D43B4B082283F85C
:101A28008926EFE73E4B1A68D4F89C36C8339A42A9
:101A380005D909F0C7FE012384F8893603E009F0C7
:101A4800DBFE0028F5D109F0A7FEB8B3012384F81E
:101A5800893633E009F0D0FE0028F4D04FF48053E3
:101A6800A4F8A6360923E7E7BCF80E80B7F806E025
:101A7800CEEB080A564502DDC644764516DBBCF8AF
:101A88000EE0B3F900807645CBBFB7F802E0B1F8B5
:101A980004E0B1F802A0B7F800A0F045FFF6FAABF1
:101AA800D045C646A8BFD646FFF7F4BB4645CCBFCF
:101AB800B7F802E0B7F800E0FFF7ECBB13B0BDECF5
:101AC8000E8BBDE8F08F00BF8C250108A625010804
:101AD800BB250108C3250108D7250108E32501080E
:101AE800EC250108FD250108F0190020072601084A
:101AF80016260108F81500202526010800000020F8
:101B0800352601083F260108080500204C26010853
:101B18006526010870260108E40C0020080C002046
:101B28004C1800202DE9F04FB14D2DED028B2C788B
:101B3800A3B0002C00F08280AE4F3B68002B01F070
:101B48000585386803685B689847002801F0FE84BB
:101B5800A84BA94C18680368DB689847092801D086
:101B68003F2854D14FF0000AD4F80090A34ED04635
:101B7800B9F1000F05D0A24831684A460DF0CAFFF6
:101B880020B9B246B8F1000F00D1B0469D4B1036CF
:101B98009E42EDD3B8F1000F18D0D8F800E0DAF87B
:101BA80000C023681EF803601CF80300B0420DD182
:101BB8005A1C934938B92D2B05D88F4E32602026F0
:101BC800CE54885402E0CE542260EAE723680BB171
:101BD800D04511D08C4809F03FF9D04507D858F8BE
:101BE800100B09F039F9092009F02EF9F5E78748B3
:101BF80009F032F94FF0000923689945A1D2804BCA
:101C080013F8090009F020F909F10109F4E723683C
:101C1800002B41F02084042841F07D84784805F0A9
:101C280009FC01F093BC08F05FFD06F055FD784B08
:101C3800784ADA604C34982C01F08884764AA318E4
:101C480093F84A100129F5D1744FA2583B60744BA0
:101C5800B9461A609846D8F80000DFF8C4B103689E
:101C68005B689847002800F03D87DBF800000368B0
:101C7800DB689847D9F8003093F8482006461AB927
:101C880024283AD1012205E0012A06D14D2814BFA3
:101C98000022022283F8482057E0022A04D13C2877
:101CA80014BF00220322F5E7032A0AD140284FF087
:101CB80000029FBF1A71DA715871987198BF042297
:101CC800E8E7042A06D19A7983F8490056409E71BC
:101CD8000522DFE7052A38D159791A79914299798D
:101CE80006D941409971511C1971134418722CE09E
:101CF80081420CBF06220022CCE7DFF840A19AF807
:101D080000305B0721D42328DBF8003011D10122F1
:101D18002A70384A43481360434A136009F09CF814
:101D28003A4809F099F89AF8003043F002038AF823
:101D380000303E4B1B681B78B34201BF3C4B3D4A09
:101D48001A60334B04BF334ADA60D9F8002092F89E
:101D5800480006287FF47FAF92F84930492B00F0FD
:101D6800098400F20781322B00F0548600F28D803E
:101D7800222B00F0198522D8032B00F0C78113D835
:101D8800012B00F0B881022B40F0D586042008F022
:101D9800C7FF422008F093FF542008F090FF462028
:101DA80008F08DFF4C20BBE1042B00F0BD81052B12
:101DB80040F0C1861A2008F0B3FF0026C5E1282BA1
:101DC80000F0E8853CD8242B00F0CA85262B40F08B
:101DD800B286194E062008F0A3FFB6F8580108F09D
:101DE800A2FFB6F85A0108F09EFFB6F85C01BEE201
:101DF8005023002084180020D4130020DC0B010895
:101E0800A41300208C0D0108342701083927010884
:101E180000ED00E00400FA05581900207C180020A5
:101E28008018002069270108BC0B002094100020AE
:101E3800FC9F0020EFBEADDEF019002053230020E8
:101E48002A2B00F0BA852C2B40F07586D34E0C2037
:101E580008F066FF96F88E0108F031FFB6F8980191
:101E680008F061FFB6F8940108F05DFFB6F8960136
:101E780008F059FF96F88F0108F021FFB6F89C0189
:101E880008F051FFB6F89E0171E23D2B00F0678320
:101E980023D8382B00F06A8512D8342B00F0A6849A
:101EA800362B40F04886BE4BBC4E93F83800C0EB4A
:101EB800C000C0B208F034FF06F1100700F0C7BD3B
:101EC8003A2B00F0F5823B2B40F03586012008F0D4
:101ED80027FFB44B1B68187822E1452B00F0D98501
:101EE80026D8402B00F09E85422B40F02486AB4E2E
:101EF800102008F015FF707908F0E1FEB06808F0CE
:101F08001BFF96F88E0108F0DAFEB6F8580108F0C3
:101F18000AFFB6F85A0108F006FFB6F85C0108F0A7
:101F280002FFB6F87E0108F0FEFEB6F880011EE258
:101F3800462B00F09585472B40F0FD8508F0B6FE4E
:101F48000746842008F0ECFE384608F0F5FE964B6C
:101F5800DE6807F18003B3428CBFF61B802604F0CD
:101F68001BFC3846324602A907F0BAF90026074694
:101F780000F087BD6F2B00F0038346D8672B00F075
:101F8800F98127D8642B00F0F98011D84B2B00F089
:101F98001B854D2B40F0CF85844E854F307800EB64
:101FA8004000C0B208F0BCFE4FF0000800F01BBDB6
:101FB800652B00F00981662B40F0BD85122008F0E2
:101FC800AFFE7C4B1B88B3F5806F8CBF08270127B9
:101FD8000026B0E16C2B00F055820ED8682B00F07B
:101FE8003A82692B40F0A785704F3878400000F09E
:101FF800FE0008F095FE002639E26D2B00F05182B4
:102008006E2B00F0598200F096BD772B00F06884A3
:102018004CD8732B00F086843DD8702B00F0DD82FD
:10202800722B40F088855D4E162008F079FEB6F8D0
:10203800940108F078FEB6F8400108F074FEB6F88E
:10204800420108F070FEB6F8440108F06CFEB6F8DC
:10205800D80108F068FE002008F031FE002008F0E2
:102068002EFE002008F02BFE96F8830108F027FECC
:1020780096F8900108F023FE002008F020FE494B56
:102088001B680A20B3F9623093FBF0F080B208F0C5
:102098004AFE00F06FBC742B00F0CD83752B40F026
:1020A8004A852F2008F03CFE434E75E3A02B00F034
:1020B80049840AD8782B00F069817B2B40F03B8556
:1020C8003C2008F02DFE002610E3F12B00F09D8146
:1020D800FE2B00F03284F02B40F02D85314E042089
:1020E80008F01EFE3368B3F8660008F01CFE33687B
:1020F800B3F864003BE1032008F012FE002008F06A
:10210800DEFD012008F0DBFD0D2009E0184608F08F
:1021180007FE022008F0D3FD022008F0D0FD0020C1
:1021280008F0CDFD00F0D5BC062008F0F9FD4320ED
:1021380008F0C5FD432008F0C2FD332008F0BFFDBC
:10214800442008F0BCFD012011E11C4B985D0136CC
:1021580008F0B5FD0B2EF8D10026194B985D013615
:1021680008F0ADFD082EF8D10026164B985D013613
:1021780008F0A5FD072EF8D100F0ABBC072008F049
:10218800CFFDE72008F09BFD044B587908F097FD38
:10219800002008F094FD042000F08ABCF01900200B
:1021A800BC0B0020D8130020600000200021002074
:1021B800901B002000000020B3090108D725010862
:1021C800E3250108BB2501080B2008F0A9FDCF4B2A
:1021D800188808F0A8FD002008F0A5FDCC4B1B6866
:1021E800C3F3C000C3F38002800040EA4200C3F397
:1021F80040021043C3F3401240EAC20003F0100348
:10220800184308F090FDC34B1A88C34B1B6812F0A3
:10221800010F02F0080103F4475B14BF4FF00209F5
:102228004FF000094BEA010B12F0020F03F4804152
:1022380014BF4FF004084FF000084BEA010B12F0EE
:10224800040F03F4004114BF4FF0100C4FF0000CC2
:102258004BEA010B12F0400F03F4803114BF4FF02A
:10226800200E4FF0000E4BEA010B12F0100F03F492
:10227800003103F4802A14BF4FF4007700274BEA9B
:10228800010B12F0200F4BEA0A0B14BF4FF48066C3
:10229800002603F4002112F4807F4BEA010114BFE9
:1022A8004FF40060002003F4801B12F4007F41EA21
:1022B8000B0B14BF4FF4001100210191974903F053
:1022C800007A097803F000634BEA0A0A4AEA030A2B
:1022D800C1F380014AEA010A4AEA090949EA0808F9
:1022E80048EA0C0C4CEA0E0E4EEA07073E43019BE7
:1022F80012F4806F40EA060040EA030018BF4FF06E
:102308008062874B08BF0022024300201E790346E3
:10231800B3420AD283495F5C012101FA07F71742E9
:102328001CBF994008430133F2E708F005FD7E4BD6
:1023380093F8D806F4E67D4B33F9160090FBF7F0D6
:10234800013680B208F0EFFC032EF4D1784E3088C5
:1023580008F0E9FC708808F0E6FCB08808F0E3FCB7
:10236800002008F0E0FC002008F0DDFC002008F068
:10237800DAFCAEE3102008F0D3FC00266D4B985D24
:10238800013608F09CFC102EF8D1A2E3702008F06A
:10239800C7FC4FF00008684F0E263B6806FB08F69E
:1023A800334408F10108B3F8250108F0BCFC3B6888
:1023B8003344B3F8270108F0B6FC3B683344B3F85C
:1023C800290108F0B0FC3B68334493F82B0108F06E
:1023D80076FC3B68334493F82C0108F070FC3B68AA
:1023E800334493F82D0108F06AFC3B68334493F8B2
:1023F8002E0108F064FC3B681E44D6F82F0108F053
:102408009BFCB8F1080FC6D163E37020464E08F074
:1024180087FC06F1700796F8D00008F050FC96F893
:10242800D10008F04CFC96F8D20008F048FC96F869
:10243800D30008F044FC96F8D40008F040FC96F865
:10244800D50008F03CFC073696F8CF0008F037FCBA
:10245800BE42E0D13DE3102008F062FC0026374B75
:10246800985D013608F02BFC102EF8D131E33B784B
:102478009E4280F02E83324B33F8160008F053FC4E
:102488000136F4E72F4E08F04BFC308808F04BFC7F
:10249800708808F048FCB6F904300A2093FBF0F085
:1024A80032E0062008F03CFC002008F045FC5DE71F
:1024B800042008F035FCFAE2072008F031FC224B32
:1024C8001888FF28A8BFFF20C0B208F0F8FB1F4BF0
:1024D80018684FF6FF76B042A8BF304620EAE07091
:1024E80080B208F020FC1A4B188808F01CFC0E4B30
:1024F80093F88321174B186872B30A235843B042E4
:10250800A8BF304620EAE07080B230E79C1800206F
:102518008C18002076140020E40C0020532300209F
:10252800BC0B0020C10B0020F0190020DE0B00209E
:10253800E6140020E40B0020D81300201416002015
:102548000C210020E01400209010002058210020C9
:10255800E80C00204C21002000F30F00D4E7CA4EFD
:10256800022008F0DDFB96F8E00108F0A8FB96F8D9
:10257800DF01D5E5022008F0D3FBC44B1888F6E646
:10258800C34E0B2008F0CCFB3368187808F097FB93
:102598003368587808F093FB4FF0000837463B68DB
:1025A800BB4E434408F10108187908F088FBB8F1DC
:1025B800030FF4D13368D87908F081FB3368987831
:1025C80008F07DFB3368D87808F079FB33685889C0
:1025D80008F0A9FB3368187AA2E5AE4E1E2008F071
:1025E8009FFB33681B78022B4FF000076BD13368D1
:1025F80003EB870393ED080AB2EE048A20EE080A7B
:102608000DF04AFC80F30800C0B208F058FB3368AC
:10261800DFEDA17A03EB870393ED0B0A20EE270A7F
:102628000DF03AFC80F30800C0B208F048FB3368AC
:10263800DFED9A7A03EB870393ED0E0A20EE270A63
:102648000DF02AFC80F30800C0B2013708F037FB10
:10265800032FCCD1072F336823D193ED110A20EE35
:10266800080A0DF019FC80F30800C0B208F027FB37
:10267800336893ED120A20EE080A0DF00DFC80F382
:102688000800C0B208F01BFB336893F84C3000EE2A
:10269800103AB8EE400A0DF0FFFB80F30800C0B214
:1026A8000BE03B44587808F00AFB33683B44D87A7F
:1026B80008F005FB33683B44587D013708F0FFFA02
:1026C8000A2FC7D105E233683B44587808F0F7FA77
:1026D80033683B44D87A08F0F2FA33683B44013750
:1026E800587D08F0ECFA0A2FEDD1F2E1694F9FED21
:1026F8006B8A3B6803EB860393ED080A20EE080A11
:102708000DF0CAFB80B208F00EFB3B6803EB8603B2
:1027180093ED0B0A20EE080A0DF0BEFB80B208F01C
:1027280002FB3B6803EB860393ED0E0A20EE080AD2
:102738000DF0B2FB013680B208F0F5FA032ED5D1C0
:10274800072E3B6816D193ED110A20EE080A0DF00A
:10275800A3FB80B208F0E7FA3B6893ED120A20EE7B
:10276800080A0DF099FB80B208F0DDFA3B6893F88F
:102778004C000BE03344587808F0D5FA3B683344F2
:10278800D87A08F0D0FA3B683344587D013608F00F
:10279800CAFA0A2ED4D19CE116F8010F002800F0DD
:1027A800988108F08CFAF7E7502008F0B9FA00276A
:1027B800384B1E683A4B06EB87060C2196F88520A5
:1027C80001FB0233013793F8380008F078FA96F8DD
:1027D800860008F074FA96F8870008F070FA96F800
:1027E800880008F06CFA142FE2D172E1482008F052
:1027F80097FA0027274B1E68062303FB0766013755
:1028080096F8DA0008F05BFA96F8D50008F057FA5F
:1028180096F8D60008F053FA96F8D70008F04FFA61
:1028280096F8D80008F04BFA96F8D90008F047FA5D
:102838000C2FDFD14DE100264FF001094FF0000ABF
:10284800184B1A79924541DA05334FF0000B1AF804
:102858000310134A0C2302F1300003FB0BF39046DC
:10286800185C884209D11344586B0DF04AF90246A6
:10287800B9F1000F18D14F4618E00BF1010BBBF16D
:102888001D0FE6D11FE000BFF01900203C18002002
:102898001C180020D81300200000C84200007A4409
:1028A800B4090108BC0B002006440CE097420ADA80
:1028B8000C2303FB0B8301925B6BD85D08F0FFF9D7
:1028C8000137019AF2E70AF1010AB9E7B9F1000FF5
:1028D80000F0FF80F0B208F023FA4FF00009ADE7EE
:1028E800C54F387908F01CFA00263B799E4280F0E3
:1028F800F080C24B16F803E00021C1480C2200F119
:10290800300C02FB01F313F80C20724505D1034487
:1029180093F8380008F0D3F902E001311D29ECD111
:102928000136E2E7082008F0FBF90126F0B201368B
:1029380008F0C5F9092EF9D1CBE0082008F0F0F924
:1029480000200BE50C2008F0EBF9AE4B186808F0F6
:10295800F3F9AD4B186808F0EFF9AC4B1868A7E02D
:10296800042008F0DDF9AA4B9868A1E0042008F0DB
:10297800D7F9A74E96F8780108F0A1F996F87C01E6
:1029880008F09DF996F87B0108F099F996F87D0111
:10299800FFF7C6BB9E4E072008F0C2F9B6F87E01C5
:1029A80008F0C1F9B6F8800108F0BDF996F882017F
:1029B80008F085F9B6F88401D9E4012008F0B0F9E7
:1029C800934B5879FFF7ACBB914E042008F0A8F957
:1029D80096F8D60108F073F996F8D70108F06FF960
:1029E800B6F8D801C3E43378984507F1020770D2E6
:1029F80017F8020C08F063F917F8010C00EB8000D7
:102A080000EB800000F2EE2080B208F08CF908F1AB
:102A18000108E8E7012008F083F97D4B93F890015D
:102A2800FFF77EBB082008F07BF90026784B33447B
:102A3800013693F8860108F042F9082EF6D148E0ED
:102A480092F90C209A425FD00836BE4241D0714AB2
:102A580096F8F00192F9001043B29942F0D153E090
:102A68006D4E0D2008F05CF906F028FB08F027F9F8
:102A7800308808F061F9F06808F05EF904F080FB2E
:102A880016E0BE4225DA02AB985D08F018F9013667
:102A9800F7E7132008F044F90026604B985D0136EB
:102AA80008F00DF90B2EF8D1002008F045F90020A8
:102AB80008F042F90DE0D42B00F0B483D22B40F09B
:102AC800C684574B1B785F0740F1F183002008F05C
:102AD80027F9544E3368987908F0F1F833680022E2
:102AE80083F84820444B93F83C30002B3FF4A2A8CD
:102AF8004D4BE658304607F085FC00287FF493A834
:102B08000A2003F0ECFAF5E708F0D9F8B6F8F20174
:102B180008F009F996F8F40108F0D1F896F8F501EB
:102B280008F0CDF896F8F70108F0C9F896F8F6011C
:102B380008F0C5F888E74A2BC8D000F29C81352BED
:102B480027D108F09DF80B28074602D909F078FA32
:102B5800BCE7364B1E6808F093F80328F6D806231E
:102B680003FB076686F8DA0008F08AF886F8D500CD
:102B780008F086F886F8D60008F082F886F8D700BC
:102B880008F07EF886F8D80008F07AF886F8D900B8
:102B98009CE700F2C480292B11D108F07DF81C4E67
:102BA800A6F87E0108F078F8A6F8800108F068F821
:102BB80086F8820108F070F8A6F8840186E779D8CB
:102BC800252B08D1124E0023B36008F06FF8B368C4
:102BD8001843B0607AE7272B2AD108F05DF80C4E2D
:102BE800A6F8580108F058F8A6F85A0108F054F861
:102BF800A6F85C016AE700BFBC0B0020C10B0020EF
:102C0800B4090108ACF7FF1FB0F7FF1FB4F7FF1FA7
:102C1800F0190020EC22002060000020D7250108D0
:102C2800532300207C18002058190020D8130020B6
:102C3800232B40F00C8408F023F81328074685D886
:102C4800DFF88483D8F8006008F01AF800210C2215
:102C5800DFF894E302FB01F30EEB030292F838204D
:102C6800824223D173443FB206EB870693F8303093
:102C780086F8853008F004F886F8860008F000F831
:102C880086F8870007F0FCFFCA4BCB4A1A6086F823
:102C98008800CA4BD8F8000018600021853003F07E
:102CA80041F9C74B80F0010018700FE701311D2969
:102CB800CDD14BE72D2B22D107F0E2FFC14E86F88C
:102CC8008E0107F0E9FFA6F8980107F0E5FFA6F8DE
:102CD800940107F0E1FFA6F8960107F0D1FF3B68E1
:102CE80086F88F015B79082B7FF6F0AE07F0D4FFEA
:102CF800A6F89C0107F0D0FFA6F89E01E6E6332B64
:102D080005D107F0BDFFAF4B83F89001DEE62B2B12
:102D180040F09D8307F0B4FFAA4B5871D6E63E2BCE
:102D280009D107F0ADFFA74E86F8E00107F0A8FF2C
:102D380086F8DF01CAE65CD8392B11D107F0A0FF6D
:102D4800A04E86F8780107F09BFF86F87C0107F013
:102D580097FF86F87B0107F093FF86F87D01B5E6BB
:102D68003C2B13D1984E376807F08AFF18B1022818
:102D7800A8BF022000E00120387033681B78022BBE
:102D8800924B14BF924A934A1A609FE6372B40F041
:102D98005E8353790726B3FBF6F2C2EBC2029A1A96
:102DA80012F0FF0F7FF4D2AEB3FBF6F6013EF6B297
:102DB800FF2E3FF48BAE07F063FF5FFA80F84FFAFF
:102DC80088F002F0E1FF074600283FF4BFAE80F824
:102DD800008007F061FF788007F052FF387107F034
:102DE8004FFF787107F04CFFF87107F049FFB87191
:102DF800DCE7432B23D107F043FF724E0023B36077
:102E0800707107F053FFB3681843B06007F038FFDC
:102E180086F88E0107F040FFA6F8580107F03CFF3E
:102E2800A6F85A0107F038FFA6F85C0107F034FF4E
:102E3800A6F87E0107F030FFA6F8800146E60DD817
:102E4800412B40F00483002607F01AFF5D4B334402
:102E58000136082E83F88601F6D137E6442B04D1D3
:102E68005D4B012283F83C2030E6482B40F0EF828E
:102E780006F00AFA2AE6D02B0BD1584B1B785807D4
:102E88003FF524AE08F00EFA05F050FC05F00CFDF5
:102E98001CE600F2B281CA2B40F0A8804A4E336883
:102EA8001B78022B4FF000076AD1D6F8008007F094
:102EB800E7FE07EE900AF8EE677AB2EE048AC7EEEC
:102EC800887A08EB8708C8ED087AD6F8008007F0FA
:102ED800D7FE07EE900A9FED427AF8EE677A08EB84
:102EE8008708C7EE877AC8ED0B7AD6F8008007F016
:102EF800C7FE07EE900A9FED3B7AF8EE677A08EB7B
:102F08008708C7EE877A0137032FC8ED0E7ACCD130
:102F1800072FD6F800801CD107F0B2FE07EE900A02
:102F2800F8EE677AC7EE887AC8ED117AD6F800808D
:102F380007F0A6FE07EE900AF8EE677AC7EE887AE1
:102F4800C8ED127AD6F8008007F09AFE88F84C008F
:102F580012E007F095FEB84488F80100D6F8008022
:102F680007F08EFEB84488F80B00D6F8008007F00A
:102F780087FEB84488F8150001370A2FC8D1A5E59F
:102F8800D6F8008007F07CFEB84488F80100D6F82F
:102F9800008007F075FEB84488F80B00D6F800806A
:102FA80007F06EFEB84401370A2F88F81500E7D1FC
:102FB8008CE500BF440D0020301B0020480D002088
:102FC80004000020F0190020D813002088020020F7
:102FD800A59C0008A59F0008BC0B002053230020D7
:102FE8000000C84200007A44B409010865D84E2B95
:102FF80029D153790326B3FBF6F6122E3FF6A6AD78
:10300800B84F4FF00008B045BFF460AD07F038FE88
:1030180087F8A00107F040FE40F2ED23984205DD55
:1030280040F6CA039842A8BF184601E040F2EE20D5
:10303800A0F2EE20192308F1010890FBF3F0023703
:1030480087F89F01DFE7C82B26D156797608122E1C
:103058003FF67CAD0027B74206D207F01DFE02AB53
:1030680023F817000137F6E732460023B34207DAA0
:1030780002A931F813009C4921F813000133F5E740
:10308800122A05D0984B002123F812100132F7E7D5
:10309800964B01221A7019E54C2B40F0D88107F0A5
:1030A800EFFD904E86F8D60107F0EAFD86F8D701C5
:1030B80007F0F2FDA6F8D80108E5CD2B09D18C4B15
:1030C8001B7859073FF502AD8A4B4FF4C8721A8036
:1030D800FCE44BD8CC2B40F0BA815379092B7FF60E
:1030E80035AD854ED6F8008007F0CAFD88F8000097
:1030F800D6F8008007F0C4FD88F8010007F0C0FD8D
:1031080033686428A8BF6420187107F0B9FD3368D4
:103118006428A8BF6420587107F0B2FD3368FF28FF
:10312800A8BFFF20987107F0ABFDD6F8008064288F
:1031380028BF642088F8070007F0A2FD88F802007D
:10314800D6F8008007F09CFD88F80300D6F80080C8
:1031580007F0A2FD3B68A8F80A005B790A2B7FF606
:10316800B5AC366807F08CFD3072AFE4CE2B0AD1CF
:103178005F4B1B785A073FF5A9AC604A137843F0B8
:1031880004031370A2E4CF2B40F0618107F084FDA3
:103198006FF4AF6683199BB2524EC62B98BFA6F840
:1031A800940107F079FDA6F8400107F075FDA6F82F
:1031B800420107F071FDA6F8440107F06DFDA6F87D
:1031C800D80107F05DFD07F05BFD07F059FD07F03A
:1031D80057FD86F8830107F053FD86F8900107F044
:1031E8004FFD474B1F6807F057FD00EB800040007C
:1031F800A7F8620007F044FDA3E5D62B09D1002605
:1032080007F04AFD3F4B23F816000136082EF7D188
:103218005CE458D8D32B7FF44EAC07F03DFD3A4B15
:10322800588753E453790F2B7FF490AC07F028FDAF
:10323800072806463FF68AAC314FD7F8008007F0DA
:103248002BFD0E235E43B044A8F82501D7F8008073
:1032580007F022FDB044A8F82701D7F8008007F04E
:103268001BFDB044A8F82901D7F8008007F008FD35
:10327800B04488F82B01D7F8008007F001FDB0446E
:1032880088F82C01D7F8008007F0FAFCB04488F8D9
:103298002D01D7F8008007F0F3FCB0443F6888F8A8
:1032A8002E0107F003FD3E44C6F82F010EE407F097
:1032B800E7FC0C4B022883F8D8067FF6E5AD002220
:1032C80083F8D826E0E5EF2B20D10D4E376807F0BC
:1032D800E3FCA7F86600366807F0DEFCA6F8640091
:1032E800FFF7F4BBF0190020DC170020352100207F
:1032F80053230020080D00201C180020F80C002083
:10330800D813002020180020BC0B00206CD8D82B24
:1033180040F09D800026904F9FED908AD7F800805E
:1033280007F0BAFC07EE900AF8EE677A08EB860811
:10333800C7EE887AC8ED087AD7F8008007F0ACFCA9
:1033480007EE900AF8EE677A08EB8608C7EE887AE7
:10335800C8ED0B7AD7F8008007F09EFC07EE900ABC
:10336800F8EE677A08EB8608C7EE887A0136032EEE
:10337800C8ED0E7ACFD1072ED7F800801CD107F000
:103388008BFC07EE900AF8EE677AC7EE887AC8EDEC
:10339800117AD7F8008007F07FFC07EE900AF8EE64
:1033A800677AC7EE887AC8ED127AD7F8008007F0F6
:1033B80073FC88F84C0012E007F06EFCB04488F803
:1033C8000100D7F8008007F067FCB04488F80B00CC
:1033D800D7F8008007F060FCB04488F81500013683
:1033E8000A2EC8D1FFF772BBF22B29D107F048FC8F
:1033F8000F2806463FF6AAAB07F042FC584BC6EB2F
:10340800C6061E4486F8D00007F03AFC86F8D100BC
:1034180007F036FC86F8D20007F032FC86F8D300B5
:1034280007F02EFC86F8D40007F02AFC86F8D500B1
:1034380007F026FC86F8D60007F096F9FFF746BB9A
:10344800FA2B04D1474B1B785B077FF51DAD08F0BD
:10345800F7FDFFF73EBB0C2803D1434807F0FCFCFF
:103468004BE00A2801D00D2849D1404E404807F0CA
:10347800F3FC304623210CF036FB08B1801B20609A
:10348800236893B35A1EB15C202901D11346F8E78B
:10349800364A23600021D154364B374ED3F800A06A
:1034A800D6F800B0DFF8C49058460CF02AFB8046E6
:1034B8004246484659460CF02DFB304A28B919F8BF
:1034C800083053445B78590703D010369642E7D347
:1034D80007E0964205D208F10100F368484498478E
:1034E80002E0274807F0B8FC0023204823600021A9
:1034F80030220CF0C2FA2B7843B3224807E07F2829
:103508000FD1013B194A204823600021D15407F00C
:10351800A3FCFEF716BB0C289FD07F2804D1FEF72A
:1035280010BB2F2B3EF60DABA0F12002D2B25E2AC3
:103538003EF607AB13B920283EF403AB5A1C2260B1
:103548000A4AD05407F080FCFEF7FBBA23B0BDEC62
:10355800028BBDE8F08F00BFD813002000007A442A
:10356800F0190020532300203E270108A41300204F
:10357800CB32010894020020DC0B01088C0D0108F5
:103588004927010839270108652701082DE9F04F67
:10359800864C226802F59C432DED028B2033636034
:1035A800834B1E7887B0C6B1824909688A4240F2C7
:1035B8002081013E1E701CE17F4F80483B68072D2B
:1035C80098BF595D7E4B88BF29461B689847032DD5
:1035D80009D904EB45050136288107F0CBFAF5B285
:1035E8008542E9D31FE03A6805F10E0302EB830335
:1035F800D9881A890028ECD04FF47A73401A5843B6
:10360800531A90FBF3F040F6C90300F57A7098421C
:1036180005DC40F2EE239842B8BF184601E040F6B8
:10362800CA0080B2D5E7674B674F1B68D7F80080A0
:1036380042F2010903EA0909B9FA89F94FEA591965
:10364800B9F1000F06D194F82D3084F82C305F4B77
:103658005A781A7094F82C601EB15C4B1E7886F06C
:1036680001060F23DFF878A184F82E30002507F033
:1036780081FA854264DA4FEA450B1EB1544B33F8A0
:10368800150000E030464C4BDFF858E11968CB8A4A
:1036980083424FEA85024F4B02D8098B814219D2E7
:1036A8005EF802204149904502D233F80B0015E03C
:1036B800E8B28DE80A0007F071FA032D019B0DDCD2
:1036C8000099012291F82EE0AA402EEA020281F820
:1036D8002E2003E008F596714EF80210B9F1000F9C
:1036E80028D194F8C0100322B1FBF2F202EB420297
:1036F8008A1A0BEB050E5EFA82F204EB4202108680
:1037080094F8C1202AB9022914D9284A012182F83B
:10371800C110BAF800203AF8020C1044BAF8022096
:1037280010442D4A80B222F80B0000B2032290FB0D
:10373800F2F080B223F80B0001350AF1060A96E789
:1037480094F82E20254BA2F10F067242724184F89C
:10375800DA2072B1154AD2F8DC20550109D43A684A
:10376800D9689A60521AC82A3ED9012283F82120C2
:103778003AE0164A0121517011703A689968DA6086
:103788005B68521A9A4282BF144B002283F82120A8
:10379800002507F0EFF9854226DAE8B207F0FEF9CE
:1037A8000C4B23F815000135F3E700BF080C002087
:1037B800481800204418002040180020002100204C
:1037C80068020020082100204C1800200200002078
:1037D800100C00200C210020CA0C002050180020DA
:1037E8003A0C0020800C002094F8C030013384F893
:1037F800C030AD4F3B68D80405D5D4F8DC30D907C4
:1038080001D409F077F9A94B1A68937A2BB3013BD5
:10381800A749127B31F813301AB1C3F53B6308335B
:103828009BB21BB2A3F57A73B3F57A7FA8BF4FF4A6
:103838007A7323EAE37307EE903A9FED9E7AF8EEE7
:10384800E77AC7EE877A9FED9C7A67EE877AFCEE77
:10385800E77A17EE903AA4F8E0303B68974E13F4F5
:10386800807F00F0E9802268954B964D9A4203D9F3
:10387800AB780BB90123AB70AB78002B00F0DC8080
:10388800904B96F8009093F82180D4F8DC3008F13A
:10389800FF32D2F1000848EB0208B8F1000FC9F373
:1038A8008009C3F3806A14BF4FF0000B4FF0030B7D
:1038B80095F82030052B00F2B980DFE803F0034DBE
:1038C800537986A2B9F1000F39D0D4F8E400B4F8DE
:1038D800E81002F038FB012808D17B4A7B4B1268BC
:1038E8001B68D288642101FB02332B61BAF1000FF7
:1038F8000CD0754B1B681B7943B106F0D7FF032327
:1039080085F820304FF47A73EB61D1E7B8F1000FF6
:1039180040F08C806D4B2A6919686A4B91420AD92C
:10392800009306F0C3FF009B032283F8202040F693
:10393800B832DA61BCE7012283F82020B8E74FF4F7
:103948008060BAF1000F02D004F0AEFE01E004F08E
:103958009BFE00232B6169E0B8F1000F48D106F007
:10396800A5FFA5E7B8F1000F04D0052385F820309E
:10397800012100E04146B9F1000F0CD0D4F8E43041
:10398800DA894B4B1A805A809A804F4A12685288BB
:10399800DA804FF0020B4D4B1A686B699A4202D8D5
:1039A800B9F1000F3FD147F23053EB61032320E018
:1039B800337843F00203337009F09CF8434BEA690B
:1039C8001B681344AB61042313E0404BB8F1000FAC
:1039D80012D01A68AB699A4228D93D4B9B781BB91B
:1039E800D4F8DC30DB0721D4337823F002033370BA
:1039F800052385F820305BE71B68EA691344AB614F
:103A080014E0314A314B12681B68D288642101FBEB
:103A180002332B614FF48060002385F82030EB706F
:103A280004F032FE44E700297FF442AFBBF1000FF7
:103A380002D0584602F0DEFA264DDFF89480B5F839
:103A48004E1105F5C37002F07EFA8246002845D172
:103A5800D4F8DC3013F0006909D098F8033033B992
:103A680008F0CEFA1C4B012818BF002018703378D4
:103A7800580709D53B68D90606D4B9F1000F03D019
:103A880098F80330002B4BD0104B1B6803F57A7362
:103A98000122C4F8EC30104B88F8042088F8032081
:103AA80000221A703CE000BF0821002040180020C6
:103AB8000C21002000007A4400C07F4453230020DA
:103AC800404B4C0050180020D81700204C180020FC
:103AD80002000020F0190020552300203B68DA0678
:103AE80018D433785B0715D5D4F8DC30180111D514
:103AF80098F8033073B1AE4B1A68AE4BD3F8EC307C
:103B08009A420AD908F07CFA38B9AB4B88F8030016
:103B1800187002E0A84B00221A70002388F80430BD
:103B2800337859073AD53B68DA0637D594F8F03038
:103B3800DFF88092DB0631D498F8023043B395F869
:103B4800E031BAF1000F11D15BB1994B1A68D9F87D
:103B5800F4309B1A002B04DA08F0CCFF89F8F8A09F
:103B68001CE0102002F046FA01230EE03BB1904A17
:103B780012684FF47A7101FB0323C9F8F43094F802
:103B8800F8305BB102F024FA002384F8F83005E03D
:103B9800BAF1000FE5D099F8F830F2E7002295F86D
:103BA800DE9195F8DF11B5F896E1B5F898C113469E
:103BB800DFF810B2CDF808B03BF912009B08704549
:103BC800C4BF63F07F03DBB201326045B8BF43F086
:103BD8004003042AECD194F8F92076489A4205D19A
:103BE80090F8FA20F92A04D8013200E0002280F87F
:103BF800FA2084F8F93098F802306E4A33BBD2F8CC
:103C0800DC00C0070AD582F8FB30BAF1000F1DD1DD
:103C18003378DB071AD508F077FD17E033785807B3
:103C280014D592F82C308BB1644BDB7873B992F8C9
:103C3800FB300133DBB2032B82F8FB3006D911B11C
:103C480008F058FF02E0BAF1000FF9D094F8FA3002
:103C5800DFF860B1DFF870A1142B7BD198F802303F
:103C680019F1000918BF4FF001094BB39BF8F9305F
:103C78005F2B0FD1337803F0040303F0FF0213B175
:103C880008F038FF06E00B20009202F0B3F9009A22
:103C98008BF8FA20B9F1000F12D094F8F9307D2B87
:103CA8000ED1337803F0040303F0FF0B13B108F0CF
:103CB80021FF05E00B2002F09DF93E4B83F8FAB096
:103CC800337803F0040303F0FF02002B42D194F889
:103CD800F9B0384BBBF1570F04D1394B4FF47A7216
:103CE8001A8037E03968490718D5BBF15A0F15D142
:103CF80093F8FC1029B183F8FC20012283F8FD20F9
:103D080028E093F8FE2082F0010283F8FE200AB131
:103D18000C2000E00D2002F06DF91BE0BBF15D0FF7
:103D280000F02D84BBF15B0F00F02B84BBF15E0F1C
:103D380000F02984BBF1560F01D104F069FF98F80F
:103D48000230002B00F0EC83BBF16F0F40F0E183F1
:103D580008F0DAFC3B68580746D594F8FE30154A57
:103D68009BB13378590710D5029BB3F90610B5F803
:103D78009631994209DDD2F8DC3013F0010302BF15
:103D88003221A2F8021182F8FE30D4F8DC20094B67
:103D9800D2031BD593F804212AB993F8FC2012B951
:103DA8003222A3F80221012384F804311CE000BF69
:103DB8004C180020080C0020552300205018002023
:103DC8004C2300200C210020D813002093F8FC205D
:103DD80052B1327802F0040202F0FF0122B9012246
:103DE80083F8FC1083F8FD20DAF800800023C4F87B
:103DF800DC3008F1870608F1D7093278737816F8AD
:103E0800010C9A420DD2314602F052F848B116F828
:103E1800022C012303FA02F2D4F8DC301343C4F86D
:103E2800DC3004364E45E8D1CB4B1B7833B1D4F89F
:103E3800DC8018F0020F40F02D8325E308F1D60648
:103E480008F58F783278737816F8010C9A4225D2E3
:103E5800314602F02DF808B3B37896F804C0BF4A8B
:103E680096F80390BE480C21013B01FB0C4103EB83
:103E780043031344D1F80C219A420FD0C1F80C31F6
:103E8800002390F83821C1F81031012303FA0CF30C
:103E980022EA030381F8089180F83831063646454E
:103EA800D0D1B04BDFF8C4B21E68AF4B1B6801938A
:103EB80094F82C30039300230093DBF80020002AA9
:103EC80000F0D98292F80090B9F1000F00F0D38287
:103ED800DBF804300199CB1A002B0CDB01F5FA73DF
:103EE8000099CBF8043001238B4094F8381121EA6B
:103EF800030384F83831039B002B00F0BC821BF8C5
:103F0800043C51780433DBB2002940F073820299F3
:103F180031F91310B5F8943103F1C800814202DD7C
:103F280092F802A015E0C83B994203DA9178C1F1F2
:103F3800000A0EE0009A0123934094F8382122EAFF
:103F4800030384F83831019B03F5FA73CBF8043086
:103F580091E294F83831009A1341D80700F18B8226
:103F6800BAF1000FCCBF0220012002F079F809F164
:103F7800FF33DFF8EC81132B00F27582DFE813F0D2
:103F88001400250037004B0064006B00CE0043018D
:103F9800AA01D801080273024B005A006B00CE0038
:103FA8004301A00015017A0196F80080D044B8F1C9
:103FB800FA0FA8BF4FF0FA0828EAE878304686F8E2
:103FC800008001F05BFF01200FE096F80180D044EB
:103FD800B8F1640FA8BF4FF0640828EAE8783046C3
:103FE80086F8018001F04AFF02204146CDE196F8AB
:103FF8000390D144B9F1640FA8BF4FF0640929EACE
:10400800E97986F803903046D8F83C1101F0ECFEC7
:1040180003204946B9E1717951446429A8BF642154
:1040280021EAE17171710D2001F0BEFFB9F10D0FA8
:1040380000F01982317951446429A8BF642121EA2A
:10404800E17131710E20A0E1B179514481F3080189
:10405800B171052099E1D8F840311A78022A20D1A7
:1040680007EE90AAB8EEE70ADFED427A93ED097AF7
:1040780080EE270A30EE070AB5EEC00AF1EE10FA14
:1040880007D4B4EE670AF1EE10FAC8BFB0EE670ABB
:1040980001E09FED390A83ED090A0F2001F06EFF58
:1040A8000AE099785144C829A8BFC82121EAE171DA
:1040B80099700F2001F078FFB9F10F0F00F0D3814C
:1040C800D8F840311A78022A1ED107EE90AAB8EE25
:1040D800E78ADFED287A93ED080A88EE278A38EE1A
:1040E800000AB5EEC00AF1EE10FA07D4B4EE670A7A
:1040F800F1EE10FAC8BFB0EE670A01E09FED1E0AA4
:1041080083ED080A122068E159785144C829A8BFEC
:10411800C82121EAE1715970122036E1D8F84031FE
:104128001A78022A32D107EE90AAB8EEE70ADFED34
:10413800117A93ED0C7A80EE270A30EE070AB5EE75
:10414800C00AF1EE10FA19D4B4EE670AF1EE10FACB
:10415800C8BFB0EE670A13E050230020400B0108E7
:10416800080C00201C1800204C180020140D0020FA
:1041780000007A440000C842000000001FED020A57
:1041880083ED0C0A102001F0F9FE0AE0197B514476
:10419800C829A8BFC82121EAE1711973102001F0CC
:1041A80003FFB9F1100F00F05E81D8F840311A789A
:1041B800022A1ED107EE90AAB8EEE78A5FED137ABD
:1041C80093ED0B0A88EE278A38EE000AB5EEC00A8E
:1041D800F1EE10FA07D4B4EE670AF1EE10FAC8BF90
:1041E800B0EE670A01E01FED1C0A83ED0B0A1320ED
:1041F800F3E0D97A5144C829A8BFC82121EAE1715E
:10420800D9721320C1E0D8F840311A78022A22D195
:1042180007EE90AA1FED2A0AF8EEE77A87EE800AE1
:10422800D3ED0F7A30EE270AB5EEC00AF1EE10FA98
:1042380009D45FED307AB4EE670AF1EE10FAC8BF20
:10424800B0EE670A01E01FED340A83ED0F0A112072
:1042580001F094FE0AE0997D5144C829A8BFC821FD
:1042680021EAE1719975112001F09EFEB9F1110F53
:1042780000F0F980D8F840311A78022A20D107EEE8
:1042880090AA1FED450AB8EEE78A88EE008A93EDFA
:104298000E0A38EE000AB5EEC00AF1EE10FA09D49B
:1042A8005FED4C7AB4EE670AF1EE10FAC8BFB0EED3
:1042B800670A01E01FED500A83ED0E0A14208CE016
:1042C800597D5144C829A8BFC82121EAE17159750F
:1042D80014205AE0D8F840311A78022A1ED107EE85
:1042E80090AAB8EEE78A5FED5D7A93ED0A0A88EE48
:1042F800278A38EE000AB5EEC00AF1EE10FA07D4A4
:10430800B4EE670AF1EE10FAC8BFB0EE670A01E032
:104318001FED670A83ED0A0A09205EE0D978514447
:10432800C829A8BFC82121EAE171D97009202CE069
:10433800D8F840311A78022A1ED107EE90AAB8EEB2
:10434800E78A5FED747A93ED0D0A88EE278A38EED6
:10435800000AB5EEC00AF1EE10FA07D4B4EE670A07
:10436800F1EE10FAC8BFB0EE670A01E01FED7E0A51
:1043780083ED0D0A0A2030E0597B5144C829A8BFB3
:10438800C82121EAE17159730A2001F00DFE6AE0A3
:10439800D8F840311A78022A22D107EE90AA1FEDE8
:1043A8008C0AB8EEE78A88EE008A93ED100A38EE98
:1043B800000AB5EEC00AF1EE10FA09D45FED937A5F
:1043C800B4EE670AF1EE10FAC8BFB0EE670A01E072
:1043D8001FED970A83ED100A0B2001F0CFFD42E094
:1043E800D97D5144C829A8BFC82121EAE171D975EE
:1043F8000B20CAE7012936D19078029A32F9138046
:10440800B8F5617F05DB40F633039845A8BF9846A9
:1044180001E04FF46178B9F10C0F24D1704A4FF4E0
:10442800966393FBF0F01378A8F5617898FBF0F8A1
:104438005FFA88F8434516D0B8F1040F34BF4346F5
:1044480002231370674A09FB035303F2DA6313600C
:1044580004F006FA4846414601F0A6FD08F10100BD
:10446800C0B201F0FDFD009A0123934094F8382171
:10447800134384F83831009B0133042B00930BF16C
:104488000C0B7FF41AADD2E43B68D9050FD5564B17
:10449800DB7863B1554B1B689A0708D5544B1B88CA
:1044A80013F0010608D1012004F0FEF804E0012011
:1044B80004F0EAF8012300E0002318F0040F0BD001
:1044C80053B1012004F0E0F8494B1B889B0706D440
:1044D800022004F0E9F802E0022004F0D5F818F40C
:1044E800006F4FF4807002D004F0DEF801E004F0B1
:1044F800CBF86B79082B01D00E2B02D1402004F0A9
:10450800C3F8012384F8443107B0BDEC028BBDE841
:10451800F08FB9F1000F03D0BBF17E0F3FF418AC58
:10452800BBF1970F04D14FF4C873A4F8003111E41C
:10453800BBF1A70F06D194F8F03043F0040384F8D8
:10454800F03007E40023BBF1BB0F059301D1022330
:1045580004E0BBF1B70F04D14FF6FE73ADF8163087
:1045680021E0BBF1BE0F01D1022305E0BBF1BD0F75
:104578007FF4F0AB4FF6FE73ADF8143013E0012072
:1045880002E0022000E003205FFA80F808F1FF3320
:1045980085F8D83604F0CAF804F086F9404601F0E8
:1045A8005FFDFFF7D7BBDAF80030BDF81410B3F899
:1045B80064200A44A3F86420BDF81610B3F86620F6
:1045C8000A44A3F8662004F0B1F804F06DF901205C
:1045D80001F046FD002384F8FA30FFF7BBBB00BFAB
:1045E800181800201C180020501800208C180020D3
:1045F80076140020026BC168034610B5406942B1C9
:104608001A6C8C1A013A005D08BF0A46C0B21A64D7
:1046180010BD1A6A805C01328A4228BF0022C0B2EB
:104628001A6210BD436B13B190F844007047836A57
:10463800406A1B1A584258417047426A816A0369A6
:104648008A4238BFD218521A416B21B149680A44CC
:10465800591E8A4203D2013B981AC0B27047002003
:104668007047036B13B15B68016C01E0C369016AB1
:104678008B423CBFC2689B18581AC0B27047836A05
:104688008169426B1944D160416A99429DBF0169B1
:10469800CB1A5360CB1A96BF0023536083624FF046
:1046A800000380F84430136888BF816243F0010337
:1046B80013607047436A8269D154436A02690133BF
:1046C800934228BF00234362436B1BB11B68DB077F
:1046D80005D4D4E7026D136843F080031360704774
:1046E80010F80A3C0133DBB20A2B84BF10F8131C04
:1046F800044A00F80A3C82BF002322F8113000F86F
:104708000A3C704700180020334A136C906819441B
:10471800081A40F68C23984270B513469160D06011
:1047280051603BD9127893F945108A4210460BD153
:10473800111F082908D893F84610182901D8013103
:1047480003E083F8442002E0002183F8461093F93F
:1047580044402149A24219D191F84740B4B10C31E3
:104768000024944206DA1D4D51F8046F25F81460B0
:104778000134F6E70C2805D01849002421F8104028
:104788000130F7E7164801780131017083F84520B8
:10479800002201211A7083F8471070BD92F8471063
:1047A800C9B1A0F2EF2440F2DA518C4208D811784E
:1047B8000B2905D80B1D0131117042F8230070BD7B
:1047C800002283F84720074B03F13002002143F809
:1047D800041F9342FAD170BD8803002000180020FE
:1047E8003621002094030020024A136C0133194437
:1047F8001164704788030020024B53F820301B686F
:10480800196070472C160020064B53F820301A68A0
:104818001B89A1F57A7159434FF47A7391FBF3F12F
:10482800116070472C1600200B4B984201D10B4A9F
:1048380003E00B4B984207D10A4A138801339BB215
:1048480013804FF0FF307047074A138801339BB23B
:104858001380108880B27047003001400C1400208B
:10486800003800400E140020500D00202DE9F041C2
:104878000369C76805460E461F40002F35D0B7FAB2
:1048880087F24FF00043D340DB432B611F40A2F176
:104898001B03042BF1D8DFE803F0221F1C190300C7
:1048A800746A24B1013C0023A4B2736201E0EC6A8B
:1048B800A4B2D6F82080B8F1000FDED0D8F80030C6
:1048C800404621469847D8F80480F4E73068696B79
:1048D80007E07068A96B04E0B068E96B01E0F06874
:1048E800296C036889B29847C7E7BDE8F081234B74
:1048F80010B5234C5A43234BB3FBF2F2038801391A
:10490800013AA04289B292B29BB20ED004F500647B
:10491800A0420AD0B0F1804F07D0A4F59834A04245
:1049280003D004F58064A04202D123F070039BB247
:10493800154CA04206D004F58064A0421CBF23F4A5
:1049480040739BB203800E4BC162984202850FD020
:1049580003F5006398420BD003F54063984207D0F3
:1049680003F58063984203D003F58063984201D130
:10497800002303860123436110BD00BF40420F009E
:10498800002C014000A24A040010004007B5012392
:104998008DF80400002201A88DF805308DF8062056
:1049A8008DF8073007F000FA03B05DF804FB0E4BF2
:1049B800800A984212D007D8B0F5801F0CD0013B6E
:1049C80098420DD102207047084B98420AD0023312
:1049D800984205D104207047012070470320704792
:1049E800FE20704700207047020010004B001000A6
:1049F800F8B50468064620460F461546FFF7D7FF68
:104A080004284BD8B27A910847B902238B40D4F8CE
:104A18000CE0DB439BB203EA0E03E3600A23204A5F
:104A280003FB001342F82370043342F82350154661
:104A38003FB1B17AE268890802238B409BB21343E5
:104A4800E360282202FB00522032EFF31286502343
:104A580083F3128803B203EB8303DB0003F10C0139
:104A68001C3329442B4451F8047F17B117600A6896
:104A780004329942F7D100231360F3B283F311880B
:104A8800282303FB0050036A1BB1E36843F00103CA
:104A980003E0E2684FF6FE731340E360F8BD00BF21
:104AA80060160020F8B51C4C226D236BD5699BB9A4
:104AB800A90611D5E36A1BB1908C80B298470BE028
:104AC800E169928C60694E1CD2B2E6614254E16998
:104AD800E268914228BFE361616B0F4BA9B92A06CE
:104AE80013D59A6A586A82420AD0561C9F699E62F8
:104AF800186DBA5C02851A69964206D3996204E079
:104B08001A6D136823F0800313602B0742BF236DCF
:104B180008221A62F8BD00BFD41000200C4B0D48C3
:104B28004FF400525A600C4A11684FF6FE730B405E
:104B38001360426B11684FF6FE730B401360426AB4
:104B4800836A9A4200D09AE5012380F8443070477E
:104B580000000240D410002044000240F0B5046D6B
:104B68008668236823F0010323608379054613F0E0
:104B7800020F40790CBF4FF0000E4FF4005E13F0A7
:104B8800040F14BF4FF48067002710F0010F14BF03
:104B9800042100218307206820F00100206062685A
:104BA80022F440524EEA02026260226822F4B053B4
:104BB80023F00C0348BF41F008013B430B4323603B
:104BC800A36895B023F44073A360684600F06EFEB6
:104BD800284B9C4201D10C9B0EE0274B9C4201D1F3
:104BE8000D9B09E0254B9C4201D10E9B04E0244B10
:104BF8009C420CBF0F9B109B2268A879170448BFE2
:104C08005B00B3FBF6F206FB1233B3EB560F2368D7
:104C180028BF01321E0441BF4FF6F073C2F34201B0
:104C2800134041EA03026B7992B213F0020FA2819A
:104C380000F0010114BF4FF400320022DC0748BF26
:104C480042F480322B6D11B159680A4302E0596869
:104C580021EA02025A609A6801074CBF42F0080232
:104C680022F008029A601A6842F001021A6015B030
:104C7800F0BD00BF0038014000440040004800403B
:104C8800004C0040417169E7816067E73D4B1B7844
:104C9800012B30B514BF00240324B1B9036A23F0F3
:104CA800010303628169036A21F0F30123F00A0317
:104CB80041F0010142F001021A4341EA0411816105
:104CC8000262836923F00C031BE004291DD1016AE9
:104CD8004FF6EF730B4003628169056A120121F4F4
:104CE80073414FF65F7342F0100241F480712B401C
:104CF80092B2134341EA043181610362836923F468
:104D0800406383618369836130BD0829016A1AD1D0
:104D18004FF6FF630B400362C169036A9BB289B215
:104D280023F4206343F4807321F0F30143EA022261
:104D380041F0010192B241EA0411C1610262C26903
:104D48004FF6F37319E04EF6FF730B400362C36925
:104D5800056A40F6FF41194045F6FF732B4043F4BE
:104D6800805343EA023241F4807192B241EA04313D
:104D7800C1610262C2694FF2FF331340C361C36964
:104D8800C36130BD2003002038B510F80E2C50F850
:104D9800043C044652B9012200F80E2C20F80C1CE1
:104DA800997A18680222BDE838406FE730F80C2C71
:104DB80020F80A1C891A89B220F8081C074A10F83A
:104DC8000F0C002522F8101004F80E5C1868997A68
:104DD8002A46FFF75BFF04F8065C38BD0018002080
:104DE800044B53F820301BB107289CBF1B6819607F
:104DF800704700BFB0040020084A13689B050BD514
:104E0800074B00211970074908684FF6FE730340E5
:104E18000B604FF400735360704700BF00000240FE
:104E28004F2300203000024073B506460D4600248B
:104E380001232A88A34013421AD0AA78009302F0CB
:104E480003038DF80430EB78022B03D0032B0CBF3F
:104E5800032301238DF805303046C2F30113694658
:104E6800C2F381028DF806308DF8072000F08CFE21
:104E78000134102CDCD102B070BD2DE9F743DFF806
:104E8800149299F8024005468E4600681146164667
:104E980098467246631C89F80230FFF728FD2B8973
:104EA800ADF8043001A9022368688DF806308DF842
:104EB8000730FFF7B9FFAB7A2A6809F10407240124
:104EC800274449460C2B00F2B780DFE803F007B50A
:104ED800B5B53EB5B5B56AB5B5B59300136ADFF893
:104EE800B8C123F001031362136AD2F804E0906991
:104EF80020F4803020F07300624540F0700012D03A
:104F08000CF5006C62450ED00CF5406C62450AD079
:104F18000CF5806C624506D00CF5806C624502D0B9
:104F280043F0030307E023F00E032EF4407E43F022
:104F380003034EF4807EC2F804E09061C2F8348026
:104F48001362936943F0080329E0136ADFF848C144
:104F580023F010031362136AD2F804E0906920F07A
:104F6800807020F4E640624540F4E04006D00CF53D
:104F7800006C624502D043F0300307E023F0E00301
:104F88002EF4406E43F030034EF4806EC2F804E015
:104F98009061C2F838801362936943F400639361A7
:104FA8004AE0136ADFF8F0C023F480731362106AD2
:104FB800D2F804E0D369624523F0730343F0700329
:104FC80006D00CF5006C624502D040F4407007E052
:104FD80020F460602EF4405E40F440704EF4805E31
:104FE800C2F804E0D361C2F83C801062D36943F090
:104FF800080320E0136ADFF8A0C023F4805313628B
:10500800106AD2F804E0D369624523F4E64343F416
:10501800E04340F4405003D00CF5006C624501D1E8
:105028004EF4804EC2F804E0D361C2F840801062AA
:10503800D36943F40063D3612B7B1BB1536C43F4F6
:105048000043536413889BB243F001031380AB7A87
:105058000C2B18D8DFE803F0071717170B171717CB
:105068000F17171713000B1902F134000AE00B1978
:1050780002F1380006E00B1902F13C0002E00B19BE
:1050880002F1400058600C443846A681A26003B083
:10509800BDE8F083500D0020002C014070B58489D4
:1050A8004FF47A74F3B112B11578013207E0FF2595
:1050B80005E0013CA4B24FF6FF76B4420CD0068955
:1050C800B607F6D505730589ED070DD4013CA4B2E2
:1050D8004FF6FF75AC42F6D1FFF7A6FB003018BFBC
:1050E800012070BD012070BD057B09B10D70013133
:1050F800013BD7E708B540F2E9330289920704D4A7
:10510800013B9BB2002BF8D109E0017340F2E9336F
:105118000289D20706D4013B9BB2002BF8D1FFF7D6
:1051280083FB00E0007BC0B208BD00BF10B5214A78
:1051380018B9136802221A8210BD1F481468002388
:105148000380217811F07F0102460DD1637A990618
:1051580044BF0221017013F0400F037814BF43F0DD
:10516800010323F0010315E0012921D002291ED1F2
:10517800637913F0800F03F00F034FEA830303F101
:10518800804303F5B8431B6806D003F03003102BA7
:1051980007D10123137004E003F44053B3F5805F93
:1051A800F6E7064B1B681B699847034810BD18466D
:1051B80010BD00BF38190020400E002064140020E4
:1051C80010B5064C18B9236801221A8210BD044B89
:1051D8001B689B68984720680C3010BD3819002060
:1051E8006414002010B5064C18B9236801221A82ED
:1051F80010BD044B1B681B68984720680A3010BD17
:10520800381900206414002003788B4283BF034BB5
:1052180003EB410148880020704700BF400E002082
:1052280070B500221346244914180C44A47E83EA5E
:105238000423082413F4004F4FEA430318BF83F4F0
:10524800815304F1FF3418BF83F0010314F0FF0405
:105258009BB2EFD10132192AE5D100F1190200F110
:105268001A050A440D44967EAA7E02EB062292B2E3
:105278009A421FD1104B93F83B50E2B2AA4216D281
:10528800431C03EB4203DBB2CA1801330B44927E82
:105298009B7E03EB02239BB24FF4AF6253431B1375
:1052A800064A03F5487322F814300134E5E7012370
:1052B80081F83C3070BD00BF400E0020420E002037
:1052C80003788B420BD9074B1A78074B890019448E
:1052D800086C02B1400800F5777080B27047002072
:1052E800704700BF04210020400E002007299DBF01
:1052F800034B03EB8101B1F870000020704700BF39
:10530800400E0020034B03EB4101B1F89000C008A8
:10531800704700BF400E00200A4BDFED0B7A03EB0D
:10532800810191ED2C7AB8EE477AF6EE046AE7EE41
:10533800267A82B0FCEEE77ACDED017ABDF804005A
:1053480002B07047400E002000005C4470B5334C3A
:10535800054600F09DFED4F8F830C4F8F800C31AEA
:10536800B3F5FA5FC4F8FC3082BF002384F800313B
:1053780084F8013194F800312BB9A12D02BF274AD6
:10538800012182F8011194F80111244A29B1D11898
:10539800EDB201338D7682F8003194F8005194F81B
:1053A8000231AB4239D11D4B93F80331052B02D0A2
:1053B800062B03D02CE00020FFF732FFE37E1E2BE4
:1053C80026D100200246C1B26B1E994219DA214447
:1053D8008B7E0821DBB283EA0206F60744BF83F01E
:1053E8001803C3F3460301F1FF3154BF5B0843F0D0
:1053F800800311F0FF01C2F34702ECD101301A46D5
:10540800E1E723449B7E9A4202D10320FFF708FF7D
:10541800002384F8013184F8003170BD400E00206B
:1054280010B5044600F034FE114BD3F80421C3F83C
:105438000401821A41F288318A42C3F8082184BFE4
:10544800002283F80C2193F80C31094A0F2B0DD850
:10545800591CC9B213441029E4B283F80D4114BF92
:105468000023012382F80C1182F81D3110BD00BF02
:10547800400E002010B5044600F00AFE0F4BD3F88A
:105488002021C3F82001821A41F288318A42C3F8E8
:10549800242184BF002283F8282193F82821074972
:1054A8001344142A18BF013283F8294112BF81F826
:1054B8002821012381F83E3110BD00BF400E002095
:1054C80038B5044600F0E4FD274A2749D2F84031B0
:1054D800C2F84001C31AB3F57A6F84BF002382F87B
:1054E800443192F8443133B9A82C3BD181F8453185
:1054F800A1F8463106E0022B02D181F8484101E0CB
:10550800242B02D8D11881F8494192F84811164D38
:1055180001330231DBB249008B4282F8443118DA98
:10552800B5F84631E0B283EA0020082310F4004FB2
:105538004FEA400018BF80F4815003F1FF3318BFD1
:1055480080F0010013F0FF0380B2EFD1A2F846010A
:1055580038BD01318B4201BF002385F84431012356
:1055680085F8453138BD00BF400E002010B504460F
:1055780000F08EFD124BD3F8702140F6AC51821A20
:105588008A42C4BF002283F8742193F874212AB98F
:105598000F2C13D10A49C1F8700101E0182A0DD85F
:1055A800511CC9B283F8741113441929044883F8AB
:1055B800754114BF0023012380F88E3110BD00BF50
:1055C800400E002008B50C4B002093F82C1003F077
:1055D80072FF0A4B1B68187A082801BF084B4FF462
:1055E80080521A80074B04BF10221A80A0F10903C9
:1055F8005842584108BD00BF380200203819002021
:105608005E140020601400202DE9F843324F3D68F5
:105618002A8A2E7AB2B9042E14D1304C3048237815
:10562800012B0BD12F4B19682F4B89B20B445B0010
:1056380019681A6030230380227048E01023038021
:10564800072644E0AC8AAB69A24294BF042602262E
:10565800944228BF14461FFA84F840469847214AC6
:1056680013689BB203F1005303F540535B0004F148
:10567800010E1B689BB203F1005303F540534FEA38
:105688006E0E5B000021714500F1020009D010F890
:10569800019C10F802CC4CEA092C23F821C00131F6
:1056A800F1E71268104B92B213445B001A681C6051
:1056B8002B8AC8EB03032B826B8A9844084BA5F806
:1056C800128030221A80094B4FF440521A803B68EE
:1056D8001E72BDE8F88300BF38190020512300204E
:1056E80060140020505C0040023000205E1400204E
:1056F8002DE9F0414D880E88CB880C894A89B1F88C
:105708000C80B1F80EE08F88B5F5827F1BD11E435F
:1057180046F4827646EA0405B0F800C045EA020479
:1057280044EA080242EA0E030CF4415C4CEA030323
:105738009BB20380828822F470631B041B0C3B43DA
:105748009BB283801CE0B0F804C02CF4706C4FEA64
:105758000C4C4FEA1C4C4CEA07072E43BFB23343AC
:10576800878023430788134343EA080307F4415714
:1057780043EA0E0347EA030E1FFA8EFEA0F800E084
:10578800838B23F400631B041B0C83830B8A038223
:10579800BDE8F081084BDA68D10709D4DA68D20687
:1057A80008D4DB6813F0040F14BF032004207047EB
:1057B80001207047022070470020024002684FF61F
:1057C800FE73134003600023036043608360C3607B
:1057D800284B984201D1284A27E0284B984201D10A
:1057E800254A2AE0264B984201D1234A2DE0254B31
:1057F800984201D1204A30E0234B984201D11E4AF9
:1058080033E0224B984204D11B4A536843F4700397
:105818002EE01F4B984204D1174A536843F0706337
:1058280026E01C4B984204D11B4A536843F00F03EF
:105838001EE01A4B984204D1174A536843F0F0030C
:1058480016E0174B984204D1134A536843F4706327
:105858000EE0144B984204D10F4A536843F4704346
:1058680006E0114B984204D10B4A536843F4702365
:105878005360704708000240000002401C000240CC
:105888003000024044000240580002406C000240D0
:105898008000024008040240000402401C04024048
:1058A800300402404404024058040240994A5368B4
:1058B80003F00C03042B2DE9F04105D0082B06D08A
:1058C80095490160B3B916E0934B036012E0536841
:1058D8005468C3F38343991CE30349BFD36A8F4BCE
:1058E8008D4C03F00F0344BF0133B4FBF3F34B4378
:1058F800036000E000235168894FC1F303117D5C08
:105908000168EDB221FA05F444605668C6F3022630
:10591800BE5D24FA06FEC0F808E05668C6F3C22643
:10592800BE5DF6B2F440C460D2F82C80C8F3041807
:1059380008F00F0C07EB4C0C18F0100FBCF810C057
:105948001FFA8CFC07D0BCF1000F04D0B3FBFCFCA1
:10595800C0F810C000E00161D2F82CC0CCF3442C90
:105968000CF00F0807EB48071CF0100F3F8ABFB276
:1059780004D01FB1B3FBF7F7476100E04161176B33
:10598800FF065ABF644F87618161176BBF065ABF14
:10599800614FC761C161176B7F065ABF5E4F0762CF
:1059A8000162176BFF0506D5994204D1AE4202D1B8
:1059B8004F00476200E04462176BFF0406D5994226
:1059C80004D1AE4202D14F00876200E08462176BB7
:1059D800BF0506D5994204D1AE4202D14F00C76235
:1059E80000E0C462176B7F0506D5994204D1AE4228
:1059F80002D14F00476400E04464176B3F0506D5A9
:105A0800994204D1AE4202D14F00876400E0846419
:105A1800176BBF0406D5994204D1AE4202D14B00A0
:105A2800C36400E08464156B3A4BAD0701D104638D
:105A380015E01C6B04F00304012C01D101630EE096
:105A48001C6B04F00304022C02D14FF4004305E060
:105A58001B6B03F00303032B01D12F4B0363146B60
:105A68002C4B14F4403F02D1C0F834E018E01C6B12
:105A780004F44034B4F5803F01D1416310E01C6B5D
:105A880004F44034B4F5003F02D14FF4004306E07B
:105A98001B6B03F44033B3F5403F01D11E4B436306
:105AA800146B1C4B14F4402F02D1C0F838E018E0F6
:105AB8001C6B04F44024B4F5802F01D1816310E0FD
:105AC8001C6B04F44024B4F5002F02D14FF40043BA
