:020000040800F2
:1000000000500020F955010899560108E13F010808
:1000100099560108995601089956010800000000F8
:1000200000000000000000000000000099560108D8
:10003000995601080000000099560108270C010894
:1000400099560108995601089956010899560108D0
:100050009956010899560108D99F0008D59F0008B4
:1000600099560108995601089956010899560108B0
:1000700099560108995601085DA90008995601088A
:10008000B1CF000899560108995601089956010800
:10009000995601089956010899560108D19F000800
:1000A000995601088DB80008995601089DB80008B6
:1000B0007DB800086DB800085DB80008D564000878
:1000C000D9640008CD640008D1640008995601087D
:1000D0009956010855A900084DA9000845A900082E
:1000E000350C0108995601089956010800000000D6
:1000F0000000000000000000000000000000000000
:0C01000000000000000000005FF808F1A3
:100110002DE9F04F724B734EA3B033600023736030
:1001200011F015FF18B911F033FF08F0BFFF09F007
:1001300087F86D4A6D4C137843F001031370002368
:100140000A930B930C934FF4E0130D93236843F43D
:1001500080332360A36943F01003A361236803F491
:1001600000330B930A9B01330A930B9B1BB90A9B29
:10017000B3F5A06FF2D123685C4913F4003301D0CA
:10018000022315E00A6842F001020A600A9323681C
:1001900003F002030B930A9B01330A930B9B1BB9D9
:1001A0000A9BB3F5A06FF2D123689D0739D50123CF
:1001B0000C934F4B4F491A6842F010021A601A68AC
:1001C00022F003021A601A6842F002021A606368A1
:1001D000636063686360636843F480636360464B95
:1001E0001A68043B22F070425A60444A1160616808
:1001F00021F47C116160596841F000415960D9686F
:1002000021F40041D9609B68180449BF3C4B4FF46E
:10021000E01313604FF480130D930C9B012B01D15D
:1002200016E0FEE7022B17D10D9BB3F5801F02D11C
:100230004FF4A01305E00D9BB3F5E01F02D14FF47E
:1002400000130D930D9963680B4343F4803302E070
:10025000636843F460136360236843F08073236032
:100260002168224B8901FBD5596821F003015960AF
:10027000596841F00201596063681C4903F00C039E
:10028000082BF9D14B681F4D03F00C03042B03D04E
:10029000082B03D0174B12E0136810E04B68486836
:1002A000C3F38343C70303F1020301D4164905E0F6
:1002B000496811F4003F116818BF49084B432B608F
:1002C00063681249C3F303130B44187E2B6805912E
:1002D000C3402B601368074A934219D101221BE0E7
:1002E00023890008C0000020C43300200010024011
:1002F0000020024000127A0004100140300000206B
:10030000001BB7004C00002000093D009C91010833
:10031000884A934202D10222874B1A70DFF8789202
:10032000864BDFF878C2C9F80C30A3690DF1880B51
:1003300043F00103A361636A814FB360636A60465F
:1003400043F080736362A3694FF0000843F01C031D
:10035000A3614FF6FF732BF82C3D5946CDF80CC026
:100360008DF85E800CF02FFF384659460CF02BFFBD
:10037000594674480CF027FF734A584653684FF0AB
:10038000100A43F00073536010F062F86F4A179B35
:100390004146B3FBF2F36E4A6E4813600C2217F02D
:1003A00052FA2B684FF47A72B3FBF2F36A4A013BBC
:1003B0005360F02389F82330684D0723C2F8088082
:1003C0001360AB68DFF8D891DFF8D881C9F8003046
:1003D00098E80F008BE80F00A369179843F0080313
:1003E000A361A36918A943F00803A36108233B6133
:1003F000C7F810A00CF0E7FE19981AA90CF0E3FE5C
:10040000D9F80020100712D595F89021012A0ED8AE
:10041000534A95F89111926812F0805200F0DF85EE
:1004200005E04E4B002283F8912109F0D9F86420B1
:1004300010F0EFFBA0224B48002117F004FAE3690B
:10044000002243F00703E361A36943F4006343F030
:100450000C03A361424B4FF0000803F10C0102F8BA
:10046000018001320E2AF5D1FF229A76DA761A77C8
:100470005A773D4B3D4A41461A603D483C22D9F8E7
:10048000004017F0E0F94146C4F380170523394ACC
:10049000DFF8DCE0885C0C224A4302F80E0047B922
:1004A0001E3801289FBFFF2003F1FF3302F80E0022
:1004B000DBB201310529EAD12F4A95F80590137076
:1004C0002E4B2F4983F800902E4B254A3362C033C0
:1004D0000B602D4BA10603EBC9035B7848BF0123DA
:1004E0005362002340F2DC51284A22F813100133F2
:1004F000082BF7D110A800211C2217F0A4F914F43E
:10050000007A04F400684FD0A3040BD4B8F1000FB4
:100510000AD01F4B95F88411A3F10C02012908BFE2
:10052000134602E01B4B00E0194B0493CDF858B082
:100530003CE000BF001BB700EF3300200005FA05C8
:10054000000C0140001001400000014040420F003B
:10055000C02C0020A428002010E000E09010002013
:10056000C0000020082D0020EC280020821200206E
:10057000F0280020D5BC010845100020C00800204C
:10058000242E0020A01000204CBA0108B00F00203B
:10059000A89101089C91010800ED00E000080140CD
:1005A000D42F0020C4910108CDF810A0B9F10E0F8E
:1005B00004D009F0EF09B9F1080F02D101238DF839
:1005C0005230012007F0FAFA18B14088003018BF05
:1005D0000120C4F340038DF84630C4F3403300F0EB
:1005E00001008DF84030C4F3C0338DF845008DF81C
:1005F00049708DF84330B8F1000F07D095F8848129
:1006000008F1FF37D7F1000848EB0708C4F30043AF
:100610008DF84A301AF1000318BF01238DF84B30D2
:10062000736A04F00101003318BF01238DF84C30C8
:10063000C4F300538DF84D30B5F84631C4F3C00211
:10064000ADF85030B5F85231B5F84471ADF84E30D0
:10065000C4F380438DF8473095F85431ADF85670A7
:10066000181C18BF0120E40448BFAF4C8DF84800A7
:1006700048BFB4F84C41B5F8500148BFADF85640FA
:10068000B0F5FA7F8DF844808DF841108DF8422046
:10069000ADF8540002D90BB9ADF8563095F8D43105
:1006A000A24886F82830002386F8293043709DF848
:1006B0005230002B0CBF0023022301B902B10133D9
:1006C000059A02EB830ADAF838309A1E1A33079338
:1006D000002306920593069B33F8024F06934FF6CC
:1006E000FF739C4200F09E819DF84520E3B2240AEE
:1006F000E5B21AB19A1E012A40F28F819DF8492075
:1007000032B18B491A0189588A4A914200F0858199
:100710009DF84A0030B186491A018958854A9142AC
:1007200000F07B819DF8462052B18149039E01EB88
:1007300003114A68B24203D10A89102A00F06D8180
:100740009DF8432052B17A49039E01EB03114A6898
:10075000B24203D10A89022A00F05F819DF8442049
:1007600052B17349744E01EB03114A68B24203D18E
:100770000A89022A00F05181169E7EB16C4F3268C0
:1007800007EB03177968914208D13A89B188914201
:1007900000F04381F188914200F03F81022C02D1A8
:1007A0009DF8402003E0012C04D19DF84120002A4F
:1007B00000F033819DF84C205D4C1E015AB19DF82C
:1007C000522042B9A3F10802012A04D8A2595B4978
:1007D0008A4208BF04259DF84D20344452B19DF84B
:1007E00052203AB910B10C3B012B01E0043B032B22
:1007F00040F2FB80012D48D1514FDFF834A1FF2397
:1008000087F8703087F871300AEB06035A7B586816
:1008100003F108091B894FF00008ADF85C3017A9F7
:10082000022387F87480C7F880408DF85F308DF818
:100830005E2087F82C80C7F83080C7F83480C7F86E
:100840003880C7F86C8087F8728087F873800CF066
:10085000BAFC5AF8060099F80210424609F009FA63
:10086000204641462A4609F0C9FF364BC7F88C801E
:10087000C7F88430344B2046C7F8883007F184012C
:1008800007F188020AF002F8C7E0022D62D19DF854
:1008900014204FF01C0C0CFB02FC294B002703EB2F
:1008A0000C0808939DF814304FF0010988F8753052
:1008B0001F4B88F876709A19517B506802F1080A2C
:1008C00012898DF85E1088F87E7017A988F87490E8
:1008D000C8F88040CDF824C0ADF85C208DF85F509A
:1008E0000CF071FC124B9AF8021098593A4609F034
:1008F000C0F9204639464A4609F080FF1349089B53
:10090000DDF824C0C8F8841011496344C8F8881081
:1009100003F18401C8F88C7020460A1D09F0B6FF67
:10092000059B4B44059378E090100020E9000020DF
:10093000CCB4010800040040000C0140002C014030
:10094000C0000020E1960008C1970008AD9C000897
:10095000B7960008032D46D19DF84730964D974E27
:10096000D3B19DF84830964F95F82A8053B1954BF6
:10097000BDF854202046B3FBF2F2082192B2BDF834
:10098000563003E020464FF6FF72082109F0C6F901
:1009900046F82800C76020E0BDF8542095F82A707A
:1009A000B2F5FA7FBDF856300BD986492046B1FB27
:1009B000F2F2082192B209F0B1F9834B46F8270010
:1009C0000AE082492046B1FBF2F2012192B209F01D
:1009D000A5F97B4B46F82700C36095F82A30013310
:1009E00085F82A3019E0042D17D1BDF84E20774B39
:1009F000714D93FBF2F22046BDF85030012192B2C6
:100A000095F8296009F08AF995F8293005EB8606F2
:100A10000133C6F8540185F82930069B079A9342A2
:100A20007FF459AE644F6A4E97F82930002487F856
:100A30007431684B34701D78A5F11703022B18D858
:100A40003B6A0021185903EB040813F08DFF10B125
:100A50007B6A5BBB25E0604B04EB030E98E80F005C
:100A60008EE80F00337810340133C02C3370E7D197
:100A7000EEE75A4B13F835C003EBC503D3F80480F7
:100A800086F800C0B8F1000FE2D06445E0DA524ABF
:100A9000230103EB020E43440FCB01348EE80F0019
:100AA000F3E74F4F3B68DB0424D41DE04D4B4E4A27
:100AB00013F8350003EBC5035C681070002CF0D010
:100AC00000238342EDDAC3EBC3016218D2F800C001
:100AD000DFF83CE1013341F80EC001EB0E079188CD
:100AE000B9809279BA71ECE705F0EF03082B3F4B20
:100AF00024D125E03378012BF6D93D4C04EB0313C8
:100B000003F110061034B442EED054F8100C4FF03C
:100B10007C5113F095FD4FF07C5144F8100C54F8C3
:100B2000140C13F08DFD4FF07C5144F8140C54F864
:100B30000C0C13F085FD44F80C0CE3E70E2D08D1E6
:100B40001A78182D42F010021A7008D110F004FB28
:100B500005E01A78192D22F010021A70F5E710F04E
:100B6000DFFA3B68234D5E035EBF234B01221A7000
:100B7000224A234E1378234843F0040313702B7842
:100B80004FF48052022B34BF142310238DF85E30B3
:100B90004FF002038DF85F30B369ADF85C2043F08D
:100BA0000403B36134BF0024012417A90CF00BFB2C
:100BB000154B7CB3154A2EE0C0000020D42C002039
:100BC000D197000800127A00E197000840420F0018
:100BD000042D0020C0080020FC0700204CBA0108AA
:100BE000D42F0020C0A30108B02D002090180020B1
:100BF00004080020EF330020280D0020C43300201B
:100C00000010024000080140D4330020A909010867
:100C1000B12D0020BD4A00201A6010F019F8BC4B1D
:100C2000BC4C93E80300B3698BE8030043F008036E
:100C3000B361179818A90CF0C6FAF3694FF00309CD
:100C400043F48043F3613369204643F480433361C6
:100C500018238DF85E3059464FF42043ADF85C30D0
:100C60004FF0040A8DF85F900CF0ADFA4FF480431A
:100C7000204659464FF48058ADF85C308DF85EA0A0
:100C80000CF0A1FA1023204659468DF85E30ADF8DD
:100C90005C800CF098FA3369322043F4804333616E
:100CA000336923F4804333619B4B1A8802F4415229
:100CB00042F4457242EA09021A80998B072221F414
:100CC00000610904090C99831A821A8892B242F0D1
:100CD00040021A809F23C4F810808DF83C30002316
:100CE0008DF83D308DF83E308DF83F300FF091FF9C
:100CF0005246C4F8148058460FA912F0E1F8C4F81F
:100D000010809DF85E309DF85D201B0243EA02438F
:100D10009DF85F201343814A934214D032200FF094
:100D200078FFC4F81480F52012F000F9FF2012F0CB
:100D3000FDF87028C4F8108005D12B78022B04BF71
:100D4000774B83F800902B78032B0CBF1F200220D9
:100D500006F0B7FE2B78032B03D001200CF084FCA7
:100D600007E0022006F02AFF0028F6D04388002B77
:100D7000F3D095F800906B4D4FF0100B28460021F2
:100D80005A463C6816F05FFD4FF6FF73ADF83C30F5
:100D9000022304F4004804F400674FF0000A1C40EA
:100DA0008DF83E308DF83FA00DD05F480FA9ADF80B
:100DB0003CB00FF097FB04232B700124072385F828
:100DC00001A0AC70EB70B8F1000F0ED002235648B2
:100DD0000FA9ADF83C300FF085FB0123E2182B7111
:100DE000AB7107236C71EB71D4B2B9F1010F0FD95C
:100DF00020234D480FA9ADF83C300FF073FB0523BD
:100E000001222B72AA72631C07226C72EA72DCB296
:100E10007FB102233F480FA9ADF83C300FF062FBD1
:100E2000092301222B73AA73631C07226C73EA73D4
:100E3000DCB273683D4843F44043736073693B4FD1
:100E400043F001037361B36943F40073B3610FF0BE
:100E500003FC374B00261793364B012C189394BF95
:100E6000334680231C934FF480731D934FF48063AB
:100E70001E93202317A91F9338464FF400531A944A
:100E8000209319961B9621960FF0C8FB3B682A4ABF
:100E900043F001033B605368012C23F4702394BF9B
:100EA0000021012123F4807343EA012353609168F8
:100EB000224B013C0B40314643F4602343F00203D4
:100EC0009360D36AE4B223F4700343EA0454D46217
:100ED00001236A18907800286CD06C5C581C092C8F
:100EE000C0B2D278144F2BD9A4F10A06D7F80CC09F
:100EF00006EB46064FF0070E0EFA06FE2CEA0E0E23
:100F0000B2404EEA0202FA6027E000BFBD090108C4
:100F1000E4910108000C0140003800401520200039
:100F2000EF330020F02B00200008014008000240B1
:100F30004C240140002C002000240140FDF7F1FF6B
:100F40003E6904EB440C4FF0070E0EFA0CFE26EA45
:100F50000E0602FA0CF232433A61062B3A4E0CD8D6
:100F60005A1E776B02EB82021F23934027EA030786
:100F700004FA02F33B4373631BE00C2B0CD8DA1F1B
:100F8000376B02EB82021F23934027EA030704FA20
:100F900002F33B4333630CE0A3F10D02F76A02EB6B
:100FA00082021F23934027EA030704FA02F33B431C
:100FB000F3620346043110298BD1234B9A6842F423
:100FC00080729A609A6842F001029A609A6842F0D0
:100FD00008029A6099681C4A0D0739D5FAE7013969
:100FE00009293FF624AAD8F82C0004925946C7F8DC
:100FF00014A0CBF8000003980CF0E5F8039B3C200C
:101000001A46082313610FF004FE049AC7F810A0D3
:10101000174695F891319F42BFF603AA039BDFF86C
:101020002CA04FF00808CAF810807820C3F814806C
:101030000FF0E4FD039BCAF814807820C3F81080F9
:101040000FF0DCFD0137E4E700240140000C014013
:10105000936843F004039360AC4B9A6812F0040267
:101060000392F9D19A6842F4A0029A60A84BB3F8AF
:101070005801002840F0A686B3F95A21002A40F012
:10108000A186B3F95C31002B40F09C86A14D2B6802
:101090009C0320D5C8200FF0BCFDAE200CF04FFA09
:1010A00008B10CF051FA9C4C84F87501C8200FF07F
:1010B000B0FD9A4B0021C4F87831994C0C2220469F
:1010C00016F0C1FB0223E3700BF05FFB0FF07AFD1B
:1010D000944B0344A360944E8D4C336894F85F01A5
:1010E00094F8691194F86A21B3F956300AF0C8FCF3
:1010F000059610B901200FF0FFFD8C4A0A261378DF
:1011000043F0020313708A4B10225A6108221A61BD
:10111000874F1920FB68013E83F01003FB60FB68DA
:1011200083F00803FB600FF074FD01200FF090FDC9
:1011300019200FF06EFD00200FF08AFD16F0FF065B
:10114000E6D108233B6110267A4B3E611B681807E5
:1011500007D5794B7E611B689847784B01223E6129
:101160001A70774B00271E68DFF80C82307B13F073
:1011700013FA744913F064FA07F03CFF724B1860DD
:10118000724B188813F008FA01464FF07E5013F0A6
:101190000BFB6F4B6B4918606E4B186913F050FADC
:1011A0006D4B1860307813F0F7F901464FF07E5020
:1011B00013F0FAFA694B014618604FF07E5013F0B5
:1011C00035F9674B4FF07E521860664B38469A608F
:1011D0001F605F60644B9A601F605F6007F00AFFEA
:1011E0000646384607F094FE31460746304613F06F
:1011F00027FA39468246384613F022FA31468146AC
:10120000504613F01DFA39468346484613F018FA43
:101210000146584613F00CF93146C8F8000038462C
:1012200013F00EFA3146069013F00AFA069B834635
:101230003946184613F004FA0346584619460693F1
:1012400013F0F4F8069BC8F804001946584613F04A
:10125000EFF83946C8F80800504613F0F1F9314666
:101260000746484613F0ECF90146384613F0DEF81D
:101270003E4F3F4B0026C8F80C00FF2138461B228A
:101280001E7016F0E0FA38463E702A4E394B32682E
:10129000012112F0020F18BF797019701FBF0321CE
:1012A00019700221B970510741BF19784F1C1F7086
:1012B000032748BF475412F00A0F0CD01A780421B4
:1012C0008154511CC9B205274754D11C02321970F0
:1012D000D2B2062181542A68970641BF19784F1C63
:1012E0001F70072748BF4754110608D519780927EA
:1012F00047548F1C01311F70C9B20A2747546779C0
:10130000082F3BD00E2F42D138E000BF002401400F
:1013100090100020D42F0020C000002018120020C0
:1013200080290020404B4C00C00F0020C433002017
:10133000000C01408C180020DC280020E40500206F
:10134000582B002035FA8E3C542B0020180000202A
:101350000C2B002034280020102B00206C2B0020A8
:101360005C2B0020702B0020602B0020890F0020B8
:10137000CA2A0020880F0020442B0020197801F190
:10138000010E83F800E04FF00B0E00F801E0197831
:1013900012F4803F4FF00C0C00F801C001F1010E77
:1013A0001CBFDFF874C202315FFA8EFE83F800E0E2
:1013B0001FBF8CF8001097494FF00E0C01F80EC0BB
:1013C000510748BF19784FF0120C41BF01F1010ECF
:1013D00083F800E0102343548F4912F4806F0B7898
:1013E00003F1010E5FFA8EFE81F800E000F803C001
:1013F0000BD094F81CC2BCF1000F06D002330B7066
:10140000844B4FF0130C03F80EC00B7812F4007FDE
:101410004FF0140C00F803C003F1010E1CBFDFF8FD
:10142000F8C102335FFA8EFE81F800E01FBF8CF82E
:101430000030784B4FF0150C03F80EC0182F13D165
:101440000B784FF0160E00F803E003F1010E5FFA7F
:101450008EFE4FF0170C00F80EC003F1030E02339E
:10146000DBB281F800E0C754110341BF6A490B7831
:101470005F1C0F7044BF1921C154D30541BF664A98
:101480001378591C117044BF1A22C25400219822AB
:10149000624816F0D8F90AF026FA614A614BB4F8AE
:1014A0004E111A60604BB4F8960119805F49002311
:1014B0000B808B705E490A605E4A81B213705E4A8F
:1014C00022F813100133122BF9D12B68DF0458BF17
:1014D000B4F89C111B07D18040F1028194F890313F
:1014E000062B00F2F780DFE803F004070E3955768B
:1014F000760045F2F05201E042F6F8224F4B1A8096
:101500000AF07AFAE5E042F6F8224C4B1A8013F022
:1015100043F84B4913F094F84A4912F087FF13F04F
:101520007BFA0023484A42F823000133122BF9D1F9
:10153000464A474940201160464A13700FF062FA4C
:10154000002800F0C78001234FF0070990F9000040
:1015500040218DE80802404A404BB5E042F6F822AF
:10156000364B40201A803E4A384B1A60394B1022C5
:101570001A700FF047FA002800F0AC8001234FF0FA
:10158000000890F9000040218DE80801354A4FF429
:10159000E13399E042F6F822284B40201A80324A83
:1015A0002A4B1A602B4B08221A700FF02BFA0028D6
:1015B00000F0908001234FF0000C90F900004021D2
:1015C0008DE80810294A4FF4E13306F0A7FA284BBA
:1015D000C3F87C017AE042F6F821184A062B118004
:1015E0001C494FF00C02DFF8A0E0224F22480A709D
:1015F0004CD000233B708EF8003003701F4B1B2132
:1016000019701F4B4FF4E1371A701E4B05221A70E8
:1016100049E000BF890F0020880F002084270020A8
:1016200018120020600E0020640E00208833002075
:101630007C330020E30D0020103000206A070020DA
:10164000CDCCCC3F0000B044683200201C0000200C
:101650002938010820280020D1390108A08601007E
:10166000153801082539010801380108D938010861
:10167000C0000020A12B0020A02B0020C32B0020A5
:1016800077330020C42B00207833002000213970EC
:1016900001708EF800103C49212008703B493C4FF6
:1016A0000A703C4A13703C4A3C4B40201A600FF0D1
:1016B000A9F978B101234FF0000E90F900008DE8F0
:1016C00008403B46364A402106F028FA003018BF51
:1016D000012028B9082007F0B7FC324A2F4B1A60C6
:1016E0002B68314A13F4804F1FBF122111702F480D
:1016F0002A4918BF086042F20101194099B144F625
:1017000020602B490880980441BF082111702948A6
:10171000224948BF0860D90741BF0C2111702648F3
:101720001E4948BF086011781F06A1F104015170DD
:1017300040F185802148DFF890A04FF00008204F4D
:1017400041461522C0F880A1DFF8809000F5C270F4
:1017500087F80180C7F80480C7F8088016F073F88E
:10176000AAF105034046C9F8003009F0B8FD154B51
:1017700002201B68FB600FF045F9CE4640BB80207D
:1017800007F062FC53E000BFC32B0020773300203A
:1017900090D00300C42B00203D0101081C00002054
:1017A0005101010889380108202800205938010812
:1017B0006A0700207938010869380108C000002054
:1017C00018070020F82F0020821200203807002080
:1017D00090F805C07B78C5490C2202FB03125278B1
:1017E000624504D00133DBB2042BF4D900237B70B3
:1017F000DEF800307A781B7890F90000002B4FF06B
:101800000C0303FB021314BF4FF0030E4FF0010E45
:1018100000225B78CDF800E00192022106F07EF90B
:10182000B34B18600028AAD0012009F058FD059B91
:101830001868B04B00F5C5721A6009F0F7FD2B6807
:10184000980553D5AC4AAD4F049B4FF010083B6050
:101850009369AB4843F001039361049B0EA91B8875
:101860008DF83A80ADF8383002238DF83B300BF01C
:10187000AAFC3B68A2485B880EA9ADF83830042367
:101880008DF83A300BF09FFC3B680120197A0BF081
:1018900085FC3B689B4A5B684FF00009536117A8C1
:1018A0008DF861804FF0010817938DF860908DF8E6
:1018B00062800EF076FE3B680FA85B7A8DF83E9052
:1018C0008DF83C3003238DF83D308DF83F8011F0CA
:1018D000D9FA8D4B8D4A1B683C3B136033684FF03F
:1018E000FF3243F010033360894B1A60894B8A4AF8
:1018F0008A4E13608A4A803313602B680027D9030D
:10190000377040F1B28040F22A39DFF84CA2DFF89C
:10191000E8B10FF03DFD4FF001084A465046394608
:1019200086F8008015F08FFFDBF818307D4843F013
:101930000403CBF818304023ADF8383018238DF865
:101940003B300EA903238DF83A300EF0CBFDDBF8C7
:101950001C30754A43F00203CBF81C30734B744EB5
:101960001B68ABF6947BB3FBF2F33288013B22F4A5
:101970005C721204120C32809BB21D22B285338538
:10198000A6F81480338C23F001031B041B0C338452
:10199000338CB188328B23F0020322F073021204DD
:1019A0001B04120C1B0C89B242F0600243EA0803CC
:1019B000B1803283B7863384338B23F008031B0452
:1019C0001B0C43F008033383B6F844306FEA4343FB
:1019D0006FEA53439BB2A6F84430DBF8A83F43EAD2
:1019E0000803CBF8A83F58460EF036FE514BCDF811
:1019F00060A0179380231C934FF480734FF0100A5C
:101A00001D9358464FF4005317A920931B971E9718
:101A10001F972197CDF864A0CDF868900EF0FEFDD9
:101A2000B3890FA89BB243F40073B381DBF8003095
:101A300043F00203CBF800308DF83CA08DF83D80D8
:101A40008DF83E708DF83F8011F01CFA3A4B0399E7
:101A50001A683A4B43F821200B460133202B03939D
:101A6000F4D10BF0BDFA0BF0BBFA2B685A0540F12C
:101A70009080334E334BD6F8C4840420C3F80080E2
:101A80000EF0C0FF0421C6F8C80406F04DF92E4B35
:101A900086F8CC040820C3F800800EF0B3FF2B4B6F
:101AA0000821186006F040F9294F86F8CD0400217E
:101AB00038462C2215F0C7FE8E237B704FF07C0A2F
:101AC000E0234FF07D09FB7087F800A087F82B908A
:101AD000204F2C220021384615F0B5FE8A237B705A
:101AE0001020A023FB7087F800A037E06092010867
:101AF0007C290020B40E00200010024014070020B2
:101B0000000C014000040140F82F002010070020C5
:101B1000E00F0020BC12002058190020290D0020E1
:101B2000C02900200008014000366E014C00002052
:101B30000004004034040040EC9101082A0D00200C
:101B4000C000002080180020D81800202419002090
:101B5000A8180020DD1800205902002087F82B90DB
:101B6000C6F8D0840EF04EFF1021C6F8D40406F05B
:101B7000DBF886F8D8042020C6F8DC840EF042FF9B
:101B80002021C6F8E00406F0CFF886F8E4040AF055
:101B9000D3FC734B734E1B78022B67D1724A00271C
:101BA0001388322023F040031B041B0C138013887E
:101BB0004FF4805823F038031B041B0C1380138848
:101BC0009BB243F0400313809F238DF83C308DF887
:101BD0003D708DF83E708DF83F700FF01AF88DF85B
:101BE0005D70624F0422C7F8148017A80FA911F086
:101BF00067F9C7F810809DF85E309DF85D201B02E4
:101C000043EA02429DF85F301343594A934219D088
:101C10000AD8A2F51A42033A93420CD002F51A42AE
:101C20000232934209D01CE0524A934205D001325D
:101C3000934207D015E0202300E0802333804FF447
:101C4000807302E04FF4807333807380B3883288EE
:101C50001B02B3605343F360474B012283F8E52432
:101C600004E0002333807380B360F360F66826B32A
:101C7000F60AB0464FF00009B1450BDA09EB06074A
:101C80007F100DF15C0AF802514610220BF008FC9F
:101C90000F2807DC09F07CFD374B4FEAC822C3F858
:101CA000E8240AE000235AF82320013254D10133FA
:101CB000042BF8D1B8463E46DEE72B682F4A13F4D2
:101CC000002318BF012313700EF07CFF2C4B2D490D
:101CD00018606379052B02BF2B4B4FF4C8721A8032
:101CE0002A4B4FF47A721A80294BC8221A80294A4B
:101CF000137843F008031370274A137823F0020384
:101D0000137040F602030A6813406BB12348244B5A
:101D10001860244B03201870234B012018702348AF
:101D20000023038022480380930341BF214B0422F8
:101D30001A71DA7844BF42F00102DA701E4B0122B8
:101D40009B680B601D4B1A701D4A137863F07F036C
:101D5000137023B0BDE8F08F07F101093746AAE7F9
:101D6000EF3300200800002000380040000C014044
:101D700018BA20001740EF00C000002034300020C7
:101D80003C070020D42F0020DE2A0020EA33002068
:101D9000E433002090180020ED3300200A120020C8
:101DA00078180020DC18002040000020580F002088
:101DB0005A0F00208029002090100020280D0020BC
:101DC000C4330020424B00221A7000B212F0E4FB30
:101DD000404912F035FC404C0646B4F95A0112F065
:101DE000DBFB3C4912F02CFC0546B4F95C0112F017
:101DF000D3FB384912F024FC0446304607F0FAF8C9
:101E00008046304607F084F80646284607F0F2F888
:101E10000746284607F07CF80546204607F0EAF812
:101E20008246204607F074F841468146504612F03B
:101E300007FC41468346484612F002FC5146059095
:101E4000304612F0FDFB49460690304612F0F8FB92
:101E500039460790504612F0F3FB204C494620606B
:101E600007F1004012F0ECFB29466060A56006987F
:101E700012F0E6FB0146059812F0DAFA2946E06016
:101E8000079812F0DDFB0146584612F0CFFA3946AA
:101E9000206106F1004012F0D3FB294660615846EC
:101EA00012F0CEFB0146079812F0C0FA2946A06155
:101EB000059812F0C5FB0146069812F0B9FA4146A2
:101EC000E061384612F0BCFB2062FFF7DFB800BFCC
:101ED0003400002035FA8E3C90100020CC2B0020DE
:101EE00093492DE9F04F0A68924C02F59C43203348
:101EF0002360914B89B01E788946DFF86882C6B1AD
:101F00008E4909688A4240F2EA80013E1E70E6E08E
:101F1000D8F80030072D98BF595D894B88BF2946F6
:101F20001B6888489847032D0AD904EB4505A8800B
:101F30000136844BF5B21A78AA421A46E8D820E056
:101F4000D8F8002005F10E0302EB83039988DA88A4
:101F50000028EAD04FF47A73401A5843531A90FB82
:101F6000F3F040F6C90300F57A70984205DC40F2C0
:101F7000EE239842B8BF184601E040F6CA0080B28E
:101F8000D3E742F20107704B1B681F40B7FA87F78F
:101F900094F828307F0923B92FB1664B93F8293084
:101FA00002E0012300E03B4692F800A094F82B20C9
:101FB0000326B2FBF6F60F2106EB460684F82A103C
:101FC000961BD8F80010DFF8A0B1F6B200255545F1
:101FD0004DDA1BB15D4830F8150000E01846B1F845
:101FE00014E0864503D8B1F816E0864515D2E8B26C
:101FF00003920291019311F05FFD032DDFBF4FF0BB
:10200000010E94F82AC00EFA05FE2CEA0E0E019B72
:102010000299039AD8BF84F82AE007BB94F874E0C9
:102020002BF81600BEF1000F06D1022A17D941483D
:102030004FF0010E80F874E0BBF800E0BBF802003E
:102040007044BBF804E07044DFF820E180B22EF861
:10205000150000B24FF0030E90FBFEF080B2DFF8E7
:10206000FCE00BF1060B2EF815000135AFE794F8F4
:102070002A203748A2F10F077A427A4184F88E204D
:10208000344B6AB1344A1268560109D40268D968DF
:102090009A60521AC82A1DD9012283F8212019E01A
:1020A00002689868DA605B68121A9A4288BF294B06
:1020B0004FF0000184F8281088BF83F82110002514
:1020C000554507DAE8B211F0F7FC244B23F8150068
:1020D0000135F5E794F82B30013384F82B301A4E94
:1020E0003368DD0405D51C4B1B68D80701D411F0FB
:1020F0003FFBD8F80020D9F80070907A002837D03C
:102100001649137B013831F810001BB1C0F53B6054
:10211000083080B200B2A0F57A70B0F57A7FA8BF1F
:102120004FF47A7020EAE07012F036FA0C4954E06D
:10213000D0330020B80D00208433002080330020ED
:102140001C00002020280020D42F0020BC0D0020DF
:10215000F82F002088330020840F0020103000204A
:1021600000007A447C330020E40D00202E0E002075
:10217000336819043AD5D4F89030904DFB1A002BEF
:1021800034DB07F59C432033C5F890308C4BD27A72
:1021900059798C4B33F8113095F894109BB293FB1E
:1021A000F2F3013101F00F0285F894202A4482F8FD
:1021B00095300346844A825C0130134410289BB258
:1021C000F8D11BB293FBF0F000B26428A8BF6420E2
:1021D00020EAE07012F0E0F97C4912F0E5FA7C495F
:1021E00012F02EFA12F018FC7A4B188033687A4DF0
:1021F00013F4807F00F00981784BDFF8F0919F4263
:1022000005D999F8022012B9012289F8022099F81B
:102210000220002A00F0F980714A94F82870924652
:10222000116895F80080002FC1F38063C8F380081F
:10223000019314BF4FF0000B4FF0030B99F82020CF
:10224000052A00F2DC80DFE802F0034E537988A50E
:10225000B8F1000F3AD0D4F8A800B4F8AC100EF0E2
:102260006EFC012809D15F495F4A09681268C98874
:10227000642000FB0122C9F81020019B6BB1594A70
:10228000126812794AB111F08DFE032289F82020DC
:102290004FF47A72C9F81C20D0E7002F40F0AF80CD
:1022A000514AD9F810101068504A88420AD902924F
:1022B00011F078FE029A032182F8201040F6B8311E
:1022C000D161BBE7012182F82010B7E7019B4FF4F1
:1022D000806013B106F0A8FE01E006F095FE002232
:1022E000C9F810208BE0002F49D111F05BFEA5E763
:1022F00027B1052289F82020012000E03846B8F1F6
:10230000000F0CD0D4F8A8204FF0020BD189384A26
:10231000118051809180334909684988D180324ABF
:102320001168D9F81420914202D8B8F1000F63D196
:1023300047F23052C9F81C20032221E02A7842F0EB
:1023400002022A7011F014FA274AD9F81C101268F8
:102350000A44C9F81820042212E0234A9FB11168E8
:10236000D9F8182091424AD9224A12781AB9DAF8D3
:102370000020D30743D42A7822F002022A700522D3
:1023800089F820205AE71268D9F81C100A44C9F8C5
:10239000182034E01349144A09681268C988642077
:1023A00000FB01224FF48060C9F81020002289F858
:1023B000202089F8032006F027FE3FE7B80D002013
:1023C000F02B0020002C00204D0E00200000C84201
:1023D00000C07F44E40F0020ED330020404B4C0050
:1023E000840F0020C0330020F82F00208833002005
:1023F000103000200600002000287FF41FAFBBF142
:10240000000F02D058460EF03DFC924F07F5C47005
:10241000B7F84E110EF093FB0197834668B911F09F
:10242000B3FD8D4B0022C3F800B0C3F804B0C3F86D
:1024300008B08A4B1A605A609A602B785F0736D5CD
:102440003368D80633D5864B1B78D9062FD4854BF5
:102450001B789BB1019B93F8E031BBF1000F15D1C4
:102460007BB1814B1A68D4F8B0309B1A002B08DA84
:1024700011F07EF97D4B83F8B4B018E0BBF1000F8A
:102480000DD110200EF0FEFB01230EE03BB1764A89
:102490004FF47A71126801FB0323C4F8B03094F84A
:1024A000B43023B10EF0DAFB002384F8B430019B82
:1024B00093F8DEA193F8DF11B3F898E1B3F89AC16D
:1024C000002318466A4F800837F9132001337245FC
:1024D000C4BF60F07F00C0B26245B8BF40F04000AA
:1024E000042BB946EED194F8B530604A834205D149
:1024F00092F8B630F92B04D8013300E0002382F8BB
:10250000B630584B84F8B5001A785A4F9846E2B95D
:102510003B68DA0708D5BBF1000F16D12B78DB0733
:1025200013D510F075FF10E02B7858070DD54F4BE1
:1025300093F828304BB1504BDB7833B911B111F01F
:1025400017F902E0BBF1000FF9D094F8B630474A12
:10255000142BDFF840B140F0AF8098F800301AF14A
:10256000000A18BF4FF0010A6BB392F8B5305F2B29
:1025700011D12B7803F0040303F0FF0113B111F024
:10258000F7F808E00B20039102920EF07BFB029A11
:10259000039982F8B610BAF1000F14D094F8B53050
:1025A0007D2B10D12B7803F0040303F0FF0213B14D
:1025B00011F0DEF807E00B2002920EF063FB2B4BCC
:1025C000029A83F8B6202B7803F0040303F0FF018E
:1025D000002B71D194F8B530244A572B15D1274BD5
:1025E0004FF47A721A803368190601D508F06EFF2D
:1025F000234B1B685A0742BF224A0A21118013F05D
:10260000080359D1204A138056E03068400716D598
:102610005A2B14D11D4B187820B119701C4B012274
:102620001A7049E092F8B73083F0010382F8B730AE
:102630000BB10C2000E00D200EF024FB3CE05D2BE4
:1026400000F01D855B2B00F01C855E2B24D1032040
:1026500000F018BD901000201C2A0020D029002076
:102660009018002006000020F82F0020B80D002050
:1026700010300020840F002088330020EA3300202F
:102680008C180020E433002080100020092B00204B
:102690000A2B0020C00F0020562B01D106F0A0FF0E
:1026A00098F80030002B00F0038594F8B5306F2BBC
:1026B00040F0F88410F0ACFE3368580732D594F837
:1026C000B730A3B12B78590711D5019BB9F9062072
:1026D000B3F898319A420ADD3B6813F0010301BF59
:1026E000AC4A32211180AC4A08BF82F8B7303B684F
:1026F000DA030AD5A94B1A782AB9A94A127812B96D
:10270000A44A3221118001220BE0A54A13784BB173
:102710002B7803F0040303F0FF011BB9A14B1170E8
:1027200001221A70DBF8009000233B6009F17B085E
:1027300009F1CB0A98F8002098F8013018F8010C3C
:102740009A420BD241460EF0C5F938B118F8022C66
:10275000012303FA02F23B6813433B6008F10408CB
:10276000D045E7D1904B1B7853B1904B904F1A68EE
:10277000984612F0020FDFF8509240F0388330E3B1
:1027800009F1CA0709F589783A787B7817F8010CBE
:102790009A4225D239460EF09DF908B397F804E025
:1027A0000C21BB7801FB0E41824A013B03EB430342
:1027B0001344D1F8BC2097F803909A4276480FD082
:1027C000C1F8BC30002390F8E820C1F8C0300123E4
:1027D00003FA0EF322EA030381F8B89080F8E83098
:1027E00006374745D0D1744BDFF8E0A1D3F800801D
:1027F000724B4FF0000B1B68029394F82830039340
:10280000DAF80030002B00F0E38293F80090B9F181
:10281000000F00F0DD82DAF8042002998A1A002AFB
:102820000CDB01F5FA72CAF8042094F8E8100122D2
:1028300002FA0BF221EA020284F8E820039A002A45
:1028400000F0C6821AF8042C59780432D2B200295A
:1028500040F07F825A4931F912105A4AB2F8962153
:1028600002F1C800814201DD9F7814E0C83A91422C
:1028700002DA99784F420EE094F8E820012303FA37
:102880000BF322EA030384F8E830029B03F5FA73A2
:10289000CAF804309CE294F8E83043FA0BF3DB0703
:1028A00000F19682002FCCBF022001200EF00CFA1E
:1028B00009F1FF32384B132A00F28282DFE812F06E
:1028C000140023003200440061008800ED00520132
:1028D000B701EA0119028002440055008800ED00AA
:1028E0005201BF002401890198F8001040460F44AE
:1028F000FA2FA8BFFA2727EAE77788F800700EF0CA
:10290000CFF801201EE098F8011040460F44642FD4
:10291000A8BF642727EAE77788F801700EF0C0F8AF
:1029200002200FE098F8031040460F44642FA8BF20
:10293000642727EAE77788F80370D3F8EC100EF0E5
:1029400067F803203946D1E198F805100D20394485
:102950006429A8BF642121EAE17188F805100EF00E
:102960001DF9B9F10D0F00F02B8298F804100E201C
:1029700039446429A8BF642121EAE17188F8041070
:10298000B4E198F806100520394481F3080188F86D
:102990000610ABE1F02A0020B80D0020082B002023
:1029A000092B00200A2B0020F2330020840F002086
:1029B0008C18002068960108E80F0020F82F0020EE
:1029C000103000209010002054190020740E0020B8
:1029D000D3F8F0301A78022A22D13846049311F045
:1029E000DBFDA94911F0E0FE049B596A059311F043
:1029F0001FFD0021049011F0C1FF059B48B9049A06
:102A0000A149104611F0D8FF049A059B10B19E4AC7
:102A100000E000225A620F2011460EF0ABF80AE0E7
:102A200099780F203944C829A8BFC82121EAE1714B
:102A300099700EF0B3F8B9F10F0F00F0C181934B0C
:102A4000D3F8F09099F80030022B1AD1384611F0E3
:102A5000A3FD8D4911F0A8FED9F8201011F0E8FC73
:102A60000021074611F08AFF30B93846864911F037
:102A7000A3FF10B1844F00E00027C9F82070122096
:102A800057E199F8011012203944C829A8BFC8217C
:102A900021EAE17189F8011028E1D3F8F0301A78C1
:102AA000022A22D13846049311F076FD764911F0BE
:102AB0007BFE049B196B059311F0BAFC0021049076
:102AC00011F05CFF059B48B9049A6F49104611F05C
:102AD00073FF049A059B10B16B4A00E000221A6351
:102AE000102011460EF046F80AE0197B10203944F8
:102AF000C829A8BFC82121EAE17119730EF04EF868
:102B0000B9F1100F00F05C81604BD3F8F09099F8A8
:102B10000030022B1AD1384611F03EFD5A4911F00F
:102B200043FED9F82C1011F083FC0021074611F068
:102B300025FF30B93846544911F03EFF10B1524FCD
:102B400000E00027C9F82C701320F2E099F80B1070
:102B500013203944C829A8BFC82121EAE17189F8A6
:102B60000B10C3E0D3F8F0301A78022A22D138468D
:102B7000049311F011FD464911F016FE049BD96B28
:102B8000059311F055FC0021049011F0F7FE059B10
:102B900048B9049A3C49104611F00EFF049A059B6F
:102BA00010B1394A00E00022DA63112011460DF01D
:102BB000E1FF0AE0997D11203944C829A8BFC82146
:102BC00021EAE17199750DF0E9FFB9F1110F00F0FB
:102BD000F7802E4BD3F8F09099F80030022B1AD1E1
:102BE000384611F0D9FC2A4911F0DEFDD9F8381029
:102BF00011F01EFC0021074611F0C0FE30B9384626
:102C0000214911F0D9FE10B11F4F00E00027C9F88B
:102C1000387014208DE099F8151014203944C82913
:102C2000A8BFC82121EAE17189F815105EE0D3F848
:102C3000F09099F80030022B1AD1384611F0ACFC14
:102C4000114911F0B1FDD9F8281011F0F1FB002164
:102C5000074611F093FE30B938460B4911F0ACFE2F
:102C600010B1094F00E00027C9F82870092060E082
:102C700099F8031009203944C829A8BFC82121EABE
:102C8000E17189F8031031E00000C842B80D00205E
:102C900000007A44D3F8F09099F80030022B1AD152
:102CA000384611F079FCB44911F07EFDD9F83410A2
:102CB00011F0BEFB0021074611F060FE30B9384626
:102CC000AD4911F079FE10B1AB4F00E00027C9F813
:102CD00034700A202DE099F80D100A203944C829D3
:102CE000A8BFC82121EAE17189F80D100DF056FF47
:102CF00066E0D3F8F09099F80030022B1DD13846E9
:102D000011F04AFC9D4911F04FFDD9F8401011F027
:102D10008FFB0021074611F031FE30B93846964945
:102D200011F04AFE10B1944F00E00027C9F840703E
:102D30000B2039460DF01EFF42E099F817100B20CA
:102D40003944C829A8BFC82121EAE17189F81710C0
:102D5000CCE7012934D19878894B33F91230B3F597
:102D6000617F05DB40F633029342A8BF134601E0C2
:102D70004FF46173B9F10C0F22D14FF4966292FBBC
:102D8000F0F0A3F5617393FBF0F37E4ADFB21378A2
:102D9000BB4215D0042F34BF3B4602231370019A67
:102DA00009FB0323784A03F2B673136006F024FA92
:102DB000484639460DF0F2FE781CC0B20DF084FF93
:102DC00094F8E820012303FA0BF3134384F8E83066
:102DD0000BF1010BBBF1040F0AF10C0A7FF410ADEB
:102DE000C3E43368D80510D5684BDB786BB13B681A
:102DF00099070AD5B9F8003013F0010A0AD111F089
:102E0000C3F8012006F010F904E0012006F0FCF8F8
:102E1000012300E00023D8F8002052070DD563B14C
:102E2000012006F0F1F8B9F800309B0708D411F042
:102E3000ABF8022006F0F8F802E0022006F0E4F811
:102E4000B9F80030524A13F0030F4FF0100114BFCD
:102E5000516111613A6812F00A0F27D0D8F80020AA
:102E6000D00609D559070AD4042006F0DDF8494BED
:102E70001B88A4F8F43002E0042006F0C5F8D8F866
:102E800000309A0607D5B9F800305B0606D440201A
:102E900006F0CAF802E0402006F0B6F8D8F8003094
:102EA000580642BF3B4B1B88A4F8F6303B68990696
:102EB00009D4D8F800301A0540F1B0804FF4807082
:102EC00006F0B2F8AEE0344B1B789B076ED5334B5F
:102ED0001B78042B6AD9D8F8003013F4007A0FD08D
:102EE000B9F80030DF063AD4102006F09DF8202013
:102EF00006F08AF82A48011D08F052FA02232AE057
:102F0000B9F8007007F01007BFB22FB1102006F01B
:102F10007BF8012784F8F8A0D8F80030580512D5BE
:102F2000D4F8FC301F495A89B1F90030002BB8BFE2
:102F30005B42934207DAB1F90230002BB8BF5B4223
:102F40009342C0F20781B9F80030990608D52020D5
:102F500006F05AF8002384F8F830012700E0002733
:102F600094F800319BBB0E200DF08CFE0E4B01221D
:102F700083F800212BE000BF0000C84200007A4423
:102F8000103000208C2F0020E80F00208833002014
:102F9000000C01408010002090180020961800209E
:102FA000F00F002088100020B80D0020B9F8003084
:102FB00003F03003002B3FF47CAF102006F024F820
:102FC000202006F021F8002384F8F83002E0002FDA
:102FD0003FF46FAF002214466B4B002023F814001F
:102FE0006A4B191D03F10A0721F814000021D15181
:102FF00017447860B96023F8140003F132075A339C
:10300000D151D150174413447860B9605860996029
:103010001432002C7FF44DAF0124DDE74FF48070B3
:1030200005F0F2FF5A4B5A791C46082A01D00E2AA5
:1030300002D1402005F0E8FF33685A0540F1A08036
:1030400094F81C321BB92B7813F0040F03E0D8F866
:10305000003013F4002F0BD04E4B00221A703C208E
:1030600009F052F9002800F08B800FF03FFCF6E7E2
:1030700009F062FA09B0BDE8F04F08F034BC012055
:1030800000E002205FFA80F8019A08F1FF3382F82D
:10309000B43706F00BF806F0D3F840460DF014FEF6
:1030A000FFF70ABBBAF1000F02D07E2B3FF402AB50
:1030B00094F8B530972B05D1374B4FF4C8721A806E
:1030C000FFF7FABAA72B06D1344A137843F004036A
:1030D0001370FFF7F1BA0022BB2B079201D1022334
:1030E00003E0B72B04D14FF6FE73ADF81E3009E0B4
:1030F000BE2B01D1022303E0BD2B1AD14FF6FE7384
:10310000ADF81C30DBF80030BDF81C10B3F85820C7
:103110000A44A3F85820BDF81E10B3F85A200A44F8
:10312000A3F85A2006F05CFA002384F8B630FFF7C3
:10313000C3BA792B04D11A4AD37823F0010306E0ED
:103140007A2B7FF4B9AA164AD37843F00103D370DF
:10315000FFF7B2BAB9F800309B063FF501AF202067
:1031600005F062FF0F4B10481A685B68011D436051
:10317000026008F015F90D4B012783F8F870EFE6AF
:1031800009B0BDE8F08F00BFE6330020BA0E002082
:1031900090100020E8280020DE2A0020901800204F
:1031A0008029002098180020F80F0020B80D00207A
:1031B000BA4B2DE9F04FB3F90610B94B91B01F6827
:1031C00001937A8991420EDBB1F5FA6FFC79BFBFAA
:1031D0008B1A6343A2F5FA6493FBF4F4ACBFC4F119
:1031E0006404643400E06424AE4BAF4A1868B2F85B
:1031F00096A1054692F95E21049092B2059202933F
:10320000002240F2E630A54B4FEA420B33F9123070
:103210000393CAEB030303F2F316864203D8002B91
:10322000B8BF5B4201E04FF4FA73022A049E4FF0EC
:1032300064002FD096F811E1BEF1000F04D0734561
:10324000CCBFCEEB0303002393FBF0FCDFF8A0E23E
:103250006FF063093EF81C8009FB0C390CF1010C7E
:103260003EF91CE00FFA88FCCCEB0E0E0EFB09FEBB
:103270009EFBF0FE8D4EC64426F80BE0BE18367954
:1032800073438B4E93FBF6F364339BB2634393FB20
:10329000F0F02DE096F812E1BEF1000F04D0734576
:1032A000CCBFCEEB0303002393FBF0F0DFF82C82BE
:1032B0006FF0630C0CFB003938F910E0013038F97D
:1032C0001000002BCEEB000000FB09F999FBFCF984
:1032D0000598CEEB090909FB00F97448B8BF5B42B9
:1032E000A0F80490B8794343714893FBF0F0643040
:1032F0006B784FF0640E434393FBFEF36D4E022A4E
:10330000B354EB7A6C4E00FB03F393FBFEF3B35420
:103310006B7D664E00FB03F090FBFEF0674B98540C
:10332000674B0FD183F802E0039B53450EDB5E4CE5
:10333000B4F89821914215DBB1F5FA6FA8BF4FF4AC
:10334000FA6110E09C54039B534504DA36F80B30C5
:103350005B4226F80B300132032A05F101057FF4A8
:1033600050AFE4E71146891A4FF47A735943C2F516
:10337000FA62B1FBF2F1642791FBF7F2DFF874E136
:103380006FF063033EF8120003FB021101323EF9B5
:10339000122003B2D21A514391FBF7F30344F38096
:1033A000484B424D1B885A063BD5474A474B10882D
:1033B0001B88181A00B211F0EFF8454911F040F9D6
:1033C000074605F017FE8046384605F0A1FD074682
:1033D000B5F9020011F0E0F88146B5F9000011F0EE
:1033E000DBF84146824611F02BF9394683464846C0
:1033F00011F026F90146584611F018F811F0E6FAD6
:1034000041462880484611F01BF93946804650460F
:1034100011F016F90146404611F00AF811F0D6FAFB
:1034200068802C4F3B689B0740F19F8045F2072145
:10343000294B2A4D1A686B69D31A8B4240F3958049
:103440006A610DF097FA264BDFF8AC901A7898462F
:10345000032AB9F8003051D10A2B59D9002328206A
:1034600088F800300DF0D5FB0DF084FA1D4B18885C
:103470000DF06AFA1C4B1A68D37890FBF3F0013018
:1034800008281A4BA8BF08201870537980B243430C
:103490002B831379584368833AE000BF1030002033
:1034A000E80F0020C00F002090100020881000209E
:1034B0000CFEFFFFDC2900204E0F0020F029002029
:1034C0000C2A002054190020AE0E0020801000208D
:1034D00035FA8E3CD42F0020D0330020400F00203E
:1034E000DC180020082C0020781800204000002064
:1034F000B22C00209A2C00207C1800200A2B07D820
:1035000003239D4A88F80030002313702B836B83BC
:1035100098F80030994A012B0CD002D3022B1BD013
:1035200023E02A8BB9F800309A421EDD012388F887
:1035300000300FE0B9F800106B8B8B4202DD0223E4
:1035400013700FE08E4B1B8B0133994202DD002379
:1035500013700AE0082006E06B8BB9F800200133F5
:103560009A42E3DC07200DF08DFB3D682F0573D5F3
:10357000844B834F1B68FA69C2EB030845F20722AC
:10358000904569DDFB61804BB6F906B0D3F8009039
:10359000B4F84E1199F80A30ABF57A7B012B7B4ECB
:1035A00003D042D3022B20D041E0794B396A5A7BB9
:1035B000784B082033F8122091FBF0F392B2C91A2D
:1035C0008B183B6293FBF0F3BA8440F6E4429BB263
:1035D0005343B9F80820C2EB13334FF47A725343C4
:1035E000B9F9062093FBF2F320E06B4BB9F808A081
:1035F0001B78C6F800A0580719D568480DF09FFA47
:1036000020B915F0100F18BF4FF0000B0BFB0BF398
:10361000322293FBF2F3B9F906205B445A434FF48C
:103620007A7392FBF3F3534400E000233360336872
:10363000D7E90A0103FB08F84FF47A7398FBF3F813
:1036400010EB080041EBE8710023C7E90A01544A76
:1036500011F002FA534B1860534E3368D90427D542
:103660002A0622D5514B1B789B071ED5504B187844
:1036700004281AD900224F4B0521D718951C4FF06A
:103680000A0E122AD154E9B287F801E004D0B0EB57
:10369000510F2A46EFD800E014215A18322002F8C0
:1036A000010CFF225A540F2000E00A200DF0EAFA24
:1036B000414D2A68002A56D0404B414F186839685E
:1036C000984681424FD83F4BDFF8049118785168F3
:1036D00008BB01201870B9F80030CB5C5BB31378DD
:1036E000013B00FA03F2D4F8E0371A4201D10DF0A1
:1036F000AFFA354B01221A7010F030FAB9F80030E9
:10370000CBB92B681B78053B012B14D80DF05AFA66
:103710002E4B18600FE04FF0000A83F800A0B9F8B4
:103720000030CB5C3BB150460DF092FA264B83F84B
:1037300000A010F013FA2B68B9F800205B68244948
:103740009B5CFE2B02D100230B800CE0FF2B02D1EF
:103750000DF084FA07E0D8F800000A2505FB030302
:1037600001323B600A800C4D2B785F0734D5194B32
:1037700008225A616EE000BF40000020DC180020E3
:10378000400F0020D033002078180020841800203B
:10379000F02B0020002C0020ED3300201812002018
:1037A000407E050088180020840F0020901800201B
:1037B00096180020AC2F0020D02C0020F82F0020DD
:1037C000C82C0020C42C0020AC330020E83100209D
:1037D000CC2C0020000C01403268D0075CBF43F0C5
:1037E00001032B70984B1B7819075EBF2B7823F0D1
:1037F00001032B70D30248BF2B78944A44BF23F0B7
:1038000001032B70924B1B6813F0040F02D09149F7
:10381000098851B99049098809B19F0705D48F4B90
:103820001B88003318BF012333B1022313702B7898
:1038300023F001032B7004E02978CE0758BF022340
:1038400013700DF0BFF9864B1B68C01A002801DB0E
:1038500010F084F908F070FE824B1E780393002E5E
:1038600000F0AA80804F3B68002B00F04E8738683C
:103870000DF0AAFA002800F048877B4B7B4C1868B3
:103880000DF09FFA092801D03F2852D14FF00009CE
:103890004D462668DFF8F88136B17548D8F8001033
:1038A000324614F01DF810B9C14605B94546714BB2
:1038B00008F110089845EFD3EDB1D5F800C0D9F85C
:1038C000008023681CF803E018F80300704512D14B
:1038D0005A1C674958B92D2B09D8DFF890E1CEF86A
:1038E00000204FF0200E01F803E0885403E001F8B7
:1038F00003E02260E5E723680BB14D4510D05E4838
:103900000FF0EAF84D4507D855F8100B0FF0E4F822
:1039100009200FF0D9F8F5E758480FF0DDF8002638
:1039200023689E42A3D2524B985D0FF0CDF801362A
:10393000F6E72368002B40F0CD86042840F0098785
:103940004B480AF02DF900F0E0BED8F80000DFF88F
:103950003CA10DF039FA28B3DAF800000DF031FA85
:10396000D9F80030834693F848209ABB242840F0C9
:103970009180012283F84820D9F80030DFF808A1AF
:1039800093F848B0BBF1060FDFD193F8490000F07F
:1039900071FF002800F0A7800EF0F6FF3B680022C0
:1039A00083F84820364B93F83530002B40F0808662
:1039B0004C36982E00F0A986324BF21892F84A1035
:1039C0000129F5D1304FF3583A60304AB9461360B7
:1039D0009046BAE7012A04D14D2814BF00220222E2
:1039E000C8E7022A04D13C2814BF00220322C1E701
:1039F000032A0AD140284FF000029FBF1A71DA71E2
:103A00005871987198BF0422B4E7042A08D19A79B2
:103A100083F8490080EA020B83F806B00522A9E783
:103A2000052AA9D159791A799142997906D9414043
:103A30009971511C1971134418729DE781420CBF92
:103A40000622002296E700BF90180020AC33002029
:103A50008C180020E4330020DE2A0020EA33002006
:103A6000B0330020F2330020A82F0020BC29002012
:103A70008C29002000A30108D8B80108DDB801088E
:103A8000400F00208427002034190020381900201E
:103A900020A101082B78B64A59073FF56DAF2328BE
:103AA000DAF8003012D10492039A01211170B14961
:103AB000B1480B60B1490B630FF00EF8B0480FF03E
:103AC0000BF8049A137843F002031370AD4B1B6894
:103AD0001B785B4501BFAC4AAC4B1A60AC4A04BFD3
:103AE000AC4BDA6048E7DAF8002092F849304C2B0A
:103AF00000F0B28400F28E80352B00F0878239D836
:103B00002B2B00F0818420D8252B00F0588404D87A
:103B1000232B00F0428200F018BE272B00F05684C1
:103B2000292B40F012860EF00BFFA4F880010EF056
:103B300007FFA4F882010EF0F9FE84F884010EF06C
:103B4000FFFEA4F8860100F0AEBD2F2B00F021850A
:103B500004D82D2B00F05C8400F0F7BD312B00F071
:103B60002D85332B40F0F1850EF0E0FE84F89201B4
:103B700000F099BD412B00F0AA8418D8392B00F031
:103B8000328404D8372B00F0CB8400F0DEBD3C2B10
:103B900000F0DE803E2B40F0D8850EF0C7FE84F8A2
:103BA000E0010EF0C3FE84F8DF0100F07CBD442B81
:103BB00000F0388526D8432B40F0C7850EF0B6FEBE
:103BC0000023A36060710EF0C5FEA3681843A060D7
:103BD0000EF0ACFE84F890010EF0B2FEA4F858018D
:103BE0000EF0AEFEA4F85A010EF0AAFEA4F85C0195
:103BF0000EF0A6FEA4F880010EF0A2FEA4F8820149
:103C000000F051BD482B00F06F834A2B00F04B852C
:103C100000F09BBDD12B00F0918320D8CC2B00F07D
:103C20001C820FD8C82B62D004D84E2B00F0218400
:103C300000F08BBDC92B00F05A83CA2B00F0B48072
:103C400000F083BDCE2B00F04283C0F03783CF2B32
:103C500000F06C82D02B00F0268300F076BDD82BCC
:103C600000F031810BD8D32B3BD027D3D42B00F0DD
:103C7000A182D62B40F069854FF000088FE2F22B2D
:103C800000F0E68212D8EF2B40F05F85DFF8148158
:103C9000D8F800900EF054FEA9F85A00D8F8008029
:103CA0000EF04EFEA8F8580000F0FDBCF32B00F01B
:103CB000BE84FA2B00F0148300F047BD2B7803F08C
:103CC000040303F0FF08002B40F0ED840EF02EFEFD
:103CD000022884F8B40740F2EC822F4B83F8B487B3
:103CE000E7E20EF02DFE2D4B188000F0DCBC92F8C0
:103CF00005804FEA5808B8F1120F03D908F000FB0D
:103D000000F0D1BC4FF00009C14507D20EF018FEFB
:103D100007AB23F8190009F10109F5E74246002332
:103D2000434507DA07A931F813001D4921F81300AC
:103D30000133F5E7122A05D0194B002123F81210A0
:103D40000132F7E70D4B012283F8342000F0ABBCC1
:103D5000DFF85080D8F800900EF0E8FD89F80000F8
:103D6000D8F8003018780CF0B1F900F09CBC00BF16
:103D7000ED330020A82F00200DB90108400F0020CE
:103D8000DDB80108EC280020EFBEADDEF04F0020CA
:103D90000400FA0500ED00E090100020AC0E0020B9
:103DA000B0320020C00F0020D64B1A689846127817
:103DB000022A6BD14FF00008DFF8489308F1080B96
:103DC000D9F800A00EF0B2FD10F0E2FBCE4910F0E1
:103DD000EBFC4AF82B00D9F800A00EF0A7FD08F183
:103DE0000A030AEB830A10F0D3FBC84910F0DCFC8D
:103DF000CAF80400D9F800A00EF098FD10F0C8FB36
:103E0000C34910F0D1FC08F10E0B08F10108B8F11C
:103E1000030F4AF82B00CFD1B8F1070FD9F800A053
:103E20001AD10EF083FD10F0B3FBB74910F0BCFCC3
:103E3000CAF84400D9F800A00EF078FD10F0A8FBF5
:103E4000B14910F0B1FCCAF84800D9F800A00EF052
:103E50006DFD8AF84C0012E00EF068FDC2448AF84D
:103E60000100D9F800A00EF061FDC2448AF80B00F1
:103E7000D9F800A00EF05AFDC2448AF8150008F1E6
:103E80000108B8F10A0FC7D100F00DBC4FF00009CE
:103E9000D8F800A00EF04AFDCA448AF80100D8F80C
:103EA00000A00EF043FDCA448AF80B00D8F800A029
:103EB0000EF03CFDCA4409F10109B9F10A0F8AF874
:103EC0001500E5D1EFE38046DFF8389208F1080BE2
:103ED000D9F800A00EF034FD10F05AFB8C4910F018
:103EE00063FC4AF82B00D9F800A00EF029FD08F178
:103EF0000A030AEB830A10F04BFB854910F054FCCF
:103F0000CAF80400D9F800A00EF01AFD10F040FB2A
:103F10007F4910F049FC08F10E0B08F10108B8F1D7
:103F2000030F4AF82B00CFD1B8F1070FD9F800A042
:103F30001AD10EF005FD10F02BFB754910F034FC82
:103F4000CAF84400D9F800A00EF0FAFC10F020FBEB
:103F50006F4910F029FCCAF84800D9F800A00EF00B
:103F6000EFFC8AF84C0012E00EF0EAFCC2448AF83A
:103F70000100D9F800A00EF0E3FCC2448AF80B005F
:103F8000D9F800A00EF0DCFCC2448AF8150008F154
:103F90000108B8F10A0FC7D185E30EF0C7FC13285A
:103FA00082463FF6ABAEDFF85C91D9F800800EF0A8
:103FB000BDFC002357490C2202FB0312117A8142F7
:103FC00020D1137808EB8A0888F879300EF0AEFC1F
:103FD00088F87A000EF0AAFC88F87B000EF0A6FCA8
:103FE0004D4A4E4B88F87C001A60D9F800004C4BC3
:103FF0000021186079300CF091FD4A4B80F00100EF
:10400000187050E301331C2BD4D177E60EF08EFCF0
:104010000B2880463FF672AE3A4BD3F800900EF074
:1040200085FC03283FF66AAE0BFB089B8BF8CE009D
:104030000EF07CFC8BF8C9000EF078FC8BF8CA00FF
:104040000EF074FC8BF8CB000EF070FC8BF8CC00FB
:104050000EF06CFC8BF8CD0025E35379092B7FF62D
:104060004DAE019BD3F800800EF060FC019B88F8F8
:104070000000D3F800800EF059FC88F801000EF023
:1040800055FC019B64281B68A8BF642018710EF0C2
:104090004DFC019B64281B68A8BF642058710EF07A
:1040A00045FC019BFF281B68A8BFFF2098710EF0FC
:1040B0003DFC019B6428D3F8008028BF642088F869
:1040C00007000EF033FC019B88F80200D3F8008053
:1040D0000EF02CFC019B88F80300D3F800800EF052
:1040E0002FFCDAF80030A8F80A005B790A2B40F2BE
:1040F000DA820D4BD3F800800EF018FC88F8080027
:10410000D1E200BFC00F0020000020410000C842E3
:1041100000007A44D4960108D0110020A40E00209B
:10412000A80E002006000020E80F00200EF008FC7A
:104130006FF4AF6283189BB2C62B98BFA4F89601A8
:104140000EF0FEFBA4F840010EF0FAFBA4F84201C9
:104150000EF0F6FBA4F844010EF0F2FBA4F8D8012F
:104160000EF0E4FB84F8ED010EF0E0FB0EF0DEFB58
:1041700084F8EE010EF0DAFB84F885010EF0D6FB30
:1041800084F892010EF0D2FBD74BD3F800800EF0EA
:10419000D7FB00EB80004000A8F8560023E10EF0AA
:1041A000CFFBD24B23F8180008F10108B8F1080F33
:1041B000F5D178E253790F2B7FF4A0AD0EF0B6FB6A
:1041C000072880463FF69AAD029BD3F800900EF088
:1041D000B7FB0E2303FB08F8029BC144A9F81901A1
:1041E000D3F800900EF0ACFBC144029BA9F81B0170
:1041F000D3F800900EF0A4FBC144029BA9F81D0166
:10420000D3F800900EF092FBC144029B89F81F0185
:10421000D3F800900EF08AFBC144029B89F820017C
:10422000D3F800900EF082FBC144029B89F8210173
:10423000D3F800900EF07AFBC144029B89F822016A
:10424000D3F800900EF086FBC844C8F823012AE298
:104250000EF06CFB0F2880463FF650AD0EF066FB6B
:10426000C8EBC80804EB080383F8D00003F1D008BA
:104270000EF05CFB88F801000EF058FB88F8020095
:104280000EF054FB88F803000EF050FB88F8040091
:104290000EF04CFB88F805000EF048FB88F806008D
:1042A0000CF05AFFFFE12B785B0700F1FC810DF069
:1042B0006FFE04F0FBFE04F0C3FFF4E12B78580717
:1042C00000F1F1818A4B4FF4C8721A80EBE12B7830
:1042D000590700F1E881874A137843F004032BE083
:1042E0002B785A07E5D530E207F090FADBE10EF0C3
:1042F0001DFB804B1A7810B142F0020201E022F05F
:1043000002021A700EF012FB7B4BDFF80C82187061
:104310000EF020FBC8F800000EF01CFBC8F80400EB
:104320000EF00EFB754B18800EF00AFB744B754AAD
:104330001880137843F002031370B4E10EF0F6FA1C
:1043400083460EF007FB82460EF004FB81460EF01A
:1043500001FB80460EF0F4FA0EF0F2FA0EF0E6FAE7
:10436000BBF1000F14D1684B1020C3F800A0C3F8B4
:10437000049004F049FE5F4A137843F00103137080
:10438000B8F1000F00F08F81604BC3F800808AE124
:10439000BBF1100F40F087815D4BC3F800A0C3F85C
:1043A0000490B8F1000F02D0584BC3F80080584871
:1043B000584B0222011D1A7006F0F2FF73E1A06053
:1043C0000EF0C8FAA3681843A0606CE10EF0B8FACA
:1043D000A4F858010EF0B4FAA4F85A010EF0B0FA9D
:1043E000A4F85C015FE10EF0A1FA84F87A010EF006
:1043F0009DFA84F87E010EF099FA84F87D010EF0A2
:1044000095FA84F87F014EE10EF090FA60714AE16E
:104410000EF08CFA84F890010EF092FAA4F89A014A
:104420000EF08EFAA4F896010EF08AFAA4F898011C
:104430000EF07CFA3B6884F891015B79DFF8DC8050
:10444000082B40F230810EF07BFAA8F89C010EF0A8
:1044500077FAA8F89E0126E10EF068FA84F8D601F2
:104460000EF064FA84F8D7010EF06AFAA4F8D801C5
:1044700019E192F805800323B8FBF3F8B8F1120FA5
:104480003FF63CACDFF894904FF0000AC24580F054
:104490000A810EF04BFA89F8A0010EF051FA40F2B1
:1044A000ED23984205DD40F6CA039842A8BF18469E
:1044B00001E040F2EE20A0F2EE20192390FBF3F091
:1044C0000AF1010A89F8A10109F10209DEE7804633
:1044D0000EF02CFA04EB080308F10108B8F1080FFC
:1044E00083F88801F4D1DEE0C00F00208E2F002079
:1044F000DE2A002090180020961800209418002032
:1045000092180020EE0F0020F00F00200010002075
:10451000F80F0020B00E0020981800209010002006
:1045200053794FF00709B3FBF9F9C9EBC9029B1A9C
:1045300013F0FF0F7FF4E2AB5FFA89F909F1FF395D
:104540005FFA89F9B9F1FF0F00F0AD800EF0EEF9D6
:104550005FFA80FA4FFA8AF003F030FB80460028B9
:104560003FF4CCAB80F800A00EF0EAF9A8F8020006
:104570000EF0DCF988F804000EF0D8F988F8050090
:104580000EF0D4F988F807000EF0D0F988F806008C
:10459000D4E7DFF8DC8208F140090EF0D1F9A8F881
:1045A000AC020EF0C3F988F8AE020EF0BFF908F1C4
:1045B000040888F8AB02C845EFD174E00EF0B6F9F4
:1045C0001F2880463FF69AAB3B685B79082B7FF447
:1045D00095AB0EF0B5F908F18A0804EB880800F0F5
:1045E0003F00A8F806000EF0ABF9B8F806308001DD
:1045F00000F4FE501843A8F806000EF097F90001E9
:1046000088F804000EF092F998F8043000F00F00DA
:10461000184388F804000EF089F988F805000CF0BA
:10462000B7FE40E07D4B012283F835203BE00EF0E1
:104630007DF9FF28814622D100238DF81B309DF89B
:104640001B30052B14D89DF81B00754A9DF81B30B4
:10465000012102EBC3035B6852F83000994089B234
:10466000482203F083F99DF81B300133DBB2E4E705
:104670006C484FF48051042203F078F913E00528C8
:104680003FF63CAB00200EF0A3F90EF07DF9D8F810
:1046900000000CF090FB18B932200CF0BAFAF6E7E3
:1046A000484603F071F900200EF092F9FFF774B953
:1046B0005D4B98590CF07FFB18B932200CF0A9FA29
:1046C000F6E70CF009FD04F0C7FC584A584BDA60D5
:1046D000FFF76EB90C283ED00A2845D1554D5648F3
:1046E0000EF0FAF92846232113F0E3F808B1401B35
:1046F00020602368002B5AD14E48002130222360CD
:1047000013F0A1F8039B1B7843BB4C4B1B689B0623
:1047100014D54B4B41491B688A6B9A1A002A0DDB52
:10472000484A1278042A09D903F5123303F5F873BD
:10473000454A8B63D36883F01003D360434B9B6877
:10474000002B67D04248984764E007F0D9FDFFF797
:1047500023B90C2804D13F480EF0BEF93E480DE0C5
:104760007F2812D1FFF783B80D28B7D07F2809D151
:10477000304A013B002139482360D1540EF0ACF996
:10478000FFF775B82F2B3FF672A8A0F12002D2B226
:104790005E2A3FF66CA813B920283FF468A85A1C7B
:1047A0002260244AD0540EF08FF9FFF760B85A1EE9
:1047B000A95C202901D113469CE71E4A00212360F1
:1047C000D154274B274DD3F80090D5F800A0DFF83F
:1047D0006480504613F07BF8064651463246404608
:1047E00013F07EF8204A28B918F806304B445B785D
:1047F000580703D010359542E7D306E0954204D21E
:10480000701CEB684044984702E018480EF064F9C9
:10481000002371E711B0BDE8F08F00BF400F00200A
:1048200040BC010800080140842700200400FA056C
:1048300000ED00E08C2900202AC801088C18002017
:10484000D033002096180020000C014034280020AE
:104850007C0F0020E2B80108DDB8010809B90108A1
:104860005400002020A1010800A30108EDB80108B0
:10487000901000202DE9F0474B28A0B0044600F02E
:104880003F8600F2B280302800F0CA8651D8222834
:1048900000F08B8423D8032800F05E8114D801280F
:1048A00000F04E81022840F0268704200EF090F898
:1048B00043200EF058F84C200EF055F846200EF02C
:1048C00052F84C2000F050BE042800F04F8105281B
:1048D00040F011871A200EF07BF8002459E12828B7
:1048E00000F0DC8515D8242800F0C385262840F088
:1048F0000287B44C06200EF06BF8B4F858010EF0A5
:104900006AF8B4F85A010EF066F8B4F85C0100F0E9
:10491000ADBD2C2800F0D5852E2800F050862A2821
:1049200040F0E98601200EF053F8A64B587900F0CC
:104930001BBE3D2800F0F8821ED8362800F02586E0
:104940000BD8322800F00A86342840F0D48648205C
:104950000EF03EF8002500F04ABC3A2800F0B8827C
:104960003B2800F01B84382840F0C58604200EF058
:104970002FF8944C00F083BD452800F0A98627D875
:10498000402800F0F485422840F0B5868D4C102078
:104990000EF01EF860790DF0E6FFA0680EF024F826
:1049A00094F890010DF0DFFFB4F858010EF013F801
:1049B000B4F85A010EF00FF8B4F85C010EF00BF8E1
:1049C000B4F880010EF007F8B4F8820100F04EBD93
:1049D000472800F05B86C0F04886492840F08B8667
:1049E00002200DF0F5FF784BCAE2702800F0F28249
:1049F00058D8692800F04D822AD8652800F0008137
:104A000015D84D2800F08B85642840F07486072067
:104A10000DF0DEFFE7200DF0A6FF6A4B58790DF090
:104A2000A2FF00200DF09FFF042000F060BE672869
:104A300000F0B28100F2208212200DF0C9FF634B1A
:104A400000241B88B3F5806F8CBF0825012586E103
:104A50006C2800F0318217D86A2800F08D846B280A
:104A600040F0498605200DF0B3FF594B18880DF032
:104A7000B2FF584B18880DF0AEFF574B93F86E00FD
:104A800000F0010000F070BD6E28534D00F0278249
:104A900000F2788206200DF09BFFE86D0DF0A4FF78
:104AA0004E4B6DE2782800F0848119D8742800F00C
:104AB000BF830BD8722800F01F84732840F01B8638
:104AC00008200DF085FF012400F04FBC762800F08F
:104AD000738400F2F1832F200DF07AFF404C55E3F0
:104AE000A42800F08F8414D87B2800F0F582A02839
:104AF00040F001860C200DF06BFF3A4B18680DF06A
:104B000073FF394B18680DF06FFF384B186800F0D1
:104B1000EEBDF12800F08981FE2800F09A84F0288B
:104B200040F0E9852C4C04200DF052FF236CB3F8C3
:104B30005A000DF050FF236CB3F8580000F096BCFB
:104B400003200DF045FF00200DF00DFF20460DF075
:104B50000AFF0D2000F008BD0DF03AFF01200DF016
:104B600002FF0A200DF0FFFE00F04ABC06200DF007
:104B70002FFF41200DF0F7FE46200DF0F4FE4E20F1
:104B80000DF0F1FE41200DF0EEFE194B187800F00B
:104B90006DBC184B185D01340DF0E5FE0B2CF8D1FF
:104BA0000024154B185D01340DF0DDFE082CF8D102
:104BB0000024124B185D01340DF0D5FE072CF8D1FE
:104BC00000F097BD90100020D4280020180000208D
:104BD0000A1900200C190020800F002078100020F6
:104BE000A3960108E8F7FF1FECF7FF1FF0F7FF1F80
:104BF000EF33002004B6010810B60108E5B501083E
:104C0000CF4C0B200DF0E4FE20880DF0E4FE608810
:104C100080B20DF0E0FECB4B1B68C3F3C000C3F3C2
:104C20008002800040EA4200C3F340021043C3F315
:104C3000401240EAC20003F0100318430DF0CBFE0F
:104C4000C14B1A88636802F0080103F4475949EA26
:104C5000010903F4804149EA010903F4004149EAEA
:104C6000010903F4803149EA010903F4003149EAFA
:104C7000010903F4802149EA010903F4002149EA0A
:104C8000010903F4801149EA010903F0007349EABC
:104C90000303DFF8E89212F0010F99F8009018BFB3
:104CA0004FF00208C9F3800908BF4FF0000843EA3B
:104CB000090312F0020F43EA080314BF4FF0040C7B
:104CC0004FF0000C12F0040F43EA0C0C14BF4FF02D
:104CD000100E4FF0000E12F0400F14BF20270027D7
:104CE0004CEA0E0E12F0100F14BF4FF4007600269F
:104CF0004EEA070712F0200F14BF4FF4806500251D
:104D00003E4312F4807F14BF4FF40060002035430F
:104D100012F4007F14BF4FF400110021284312F455
:104D2000806F41EA000114BF4FF080630023002030
:104D300019430346247AA3420AD2844A9D5C012285
:104D400002FA05F50D421CBF9A4010430133F2E709
:104D50000DF04AFE7E4B93F8B40700F005BC7D4B86
:104D600033F91400013490FBF5F080B20DF033FEFE
:104D7000032CF4D1724CA08C0DF02DFEE08C0DF0C4
:104D80002AFE208D0DF027FE608D0DF024FEA08DF3
:104D90000DF021FEE08D69E310200DF019FE0024D6
:104DA0006D4B185D01340DF0DEFD102CF8D100F0D4
:104DB000A0BC70200DF00CFE00260E247443604D44
:104DC00001362B6C2344B3F819010DF004FE2B6C53
:104DD0002344B3F81B010DF0FEFD2B6C2344B3F804
:104DE0001D010DF0F8FD2B6C234493F81F010DF00D
:104DF000BAFD2B6C234493F820010DF0B4FD2B6C0D
:104E0000234493F821010DF0AEFD2B6C234493F85D
:104E100022010DF0A8FD2B6C1C44D4F823010DF0E9
:104E2000E3FD082EC9D100F064BC70200DF0D0FD68
:104E3000474C04F1700594F8D0000DF094FD94F8FF
:104E4000D1000DF090FD94F8D2000DF08CFD94F897
:104E5000D3000DF088FD94F8D4000DF084FD94F893
:104E6000D5000DF080FD073494F8CF000DF07BFDE8
:104E7000AC42E0D100F03DBC10200DF0A9FD0024B3
:104E8000364B185D01340DF06EFD102CF8D100F09A
:104E900030BC334D00242878400000F0FE000DF0B7
:104EA00097FD2B789C4280F024842E4B33F814001D
:104EB0000DF091FD0134F4E72B4C06200DF088FD38
:104EC00020880DF088FD60880DF085FD274B57E0A8
:104ED00004200DF07DFD1A4B186E00F008BC072071
:104EE0000DF076FD224B1888FF28A8BFFF20C0B226
:104EF0000DF039FD1F4B186880F3100080B20DF0E3
:104F00006AFDB5F864000DF066FD114B93F885213C
:104F1000194B186822B10A23584380F3100001E0AE
:104F200000F30F0080B2A1E2094C02200DF050FD09
:104F300094F8E0010DF017FD94F8DF0114E300BFD1
:104F4000800F00208C18002054190020890F0020A9
:104F50009010002072100020B00F0020C40F00201D
:104F60002028002010300020CC2F002080100020AE
:104F70007C1800208818002084180020ED330020C1
:104F8000188873E20B200DF023FDAB6E0026187815
:104F90000DF0E9FCAB6E58780DF0E5FCAB6EC14C42
:104FA0003344187901360DF0DEFC032EF6D1A36EE2
:104FB000D8790DF0D8FCA36E98780DF0D4FCA36ED0
:104FC000D8780DF0D0FCA36E58890DF004FDA36EC7
:104FD000187AC9E2B34C1E200DF0FAFC236C0025B0
:104FE0001B78022B65D1236C05F1080253F82200CF
:104FF000AD490FF025FB12F033FE80F30800C0B27C
:105000000DF0B1FC236CA94903EB8503D86A0FF0BE
:1050100017FB12F025FE80F30800C0B20DF0A3FCD0
:10502000236C05F10E0253F82200A1490FF008FB92
:1050300012F016FE80F30800C0B201350DF093FCAB
:10504000032DD0D1072D236C21D1586C96490FF038
:10505000F7FA12F005FE80F30800C0B20DF083FCF1
:10506000236C9149986C0FF0EBFA12F0F9FD80F384
:105070000800C0B20DF077FC236C93F84C000FF0E1
:1050800087FA12F0EDFD80F30800C0B20BE02B446C
:1050900058780DF068FC236C2B44D87A0DF063FC33
:1050A000236C2B44587D01350DF05DFC0A2DC9D1D0
:1050B0001FE3236C2B4458780DF055FC236C2B44D4
:1050C000D87A0DF050FC236C2B44587D01350DF03F
:1050D0004AFC0A2DEDD10CE33C200DF079FC0024B4
:1050E000704D04F108022B6C714953F822000FF047
:1050F000A7FA12F0B5FD80B20DF06DFC2B6C6C4977
:1051000003EB8403D86A0FF09BFA12F0A9FD80B27A
:105110000DF061FC2B6C04F10E0253F8220064497F
:105120000FF08EFA12F09CFD013480B20DF053FCAA
:10513000032CD5D1072C2B6C16D1586C5C490FF081
:105140007FFA12F08DFD80B20DF045FC2B6C5849B2
:10515000986C0FF075FA12F083FD80B20DF03BFCF5
:105160002B6C93F84C000BE0234458780DF033FC83
:105170002B6C2344D87A0DF02EFC2B6C2344587DE5
:1051800001340DF028FC0A2CD4D1B2E214F8010F3E
:10519000002800F0AE820DF0E6FBF7E701200DF0ED
:1051A00017FC404B1B6C1878DEE150200DF010FC12
:1051B00000253C4B0C211C6C3E4B04EB850494F801
:1051C0007920013501FB023393F838000DF0CBFB59
:1051D00094F87A000DF0C7FB94F87B000DF0C3FB48
:1051E00094F87C000DF0BFFB142DE2D181E22D4B31
:1051F0001C6C062303FB054494F8CE000DF0B3FBB2
:1052000094F8C9000DF0AFFB94F8CA000DF0ABFBA9
:1052100094F8CB000DF0A7FB94F8CC000DF0A3FBA5
:10522000013594F8CD000DF09EFB0C2DDFD160E22E
:105230004FF00008012600271A4B1A7A974227DA06
:105240000933FA5C00240C2363431A4D05F1300145
:10525000595C914207D12B44586B12F038FB8246BF
:105260002EB9B14605E001341C2CECD10EE080448F
:105270000CE0D1450ADA0C2303FB04535B6B13F8F3
:1052800009000DF070FB09F10109F2E70137D3E7DE
:10529000002E00F02E825FFA88F00DF099FB0026B8
:1052A000C9E700BF800F0020000020410000C84275
:1052B00000007A44A4960108CC4D0024287A0DF011
:1052C00087FB2B7A9C4280F01482C94B0021E65C5C
:1052D0000C2202FB01F3C74800F13007DA5DB2424D
:1052E00005D1034493F838000DF03DFB02E0013195
:1052F0001C29EDD10134E4E7BF4C16200DF068FB0A
:10530000B4F896010DF067FBB4F840010DF063FBB3
:10531000B4F842010DF05FFBB4F844010DF05BFB03
:10532000B4F8D8010DF057FB94F8ED010DF01BFB1C
:1053300000200DF018FB94F8EE010DF014FB94F82A
:1053400085010DF010FB94F892010DF00CFB00208C
:105350000DF009FBA54B0A201B6CB3F9563093FBEB
:10536000F0F080B20DF037FB89E0E0B201340DF0CF
:10537000FAFA092CF9D1BCE110200DF029FB9F4B62
:105380009F4C187800F002000DF0EDFA9D4B187854
:105390000DF0E9FA20680DF027FB60680DF024FBA2
:1053A000994B18880DF017FB984B18880DF013FBDC
:1053B0008E4BB3F86C0059E00DF0B8FA0746122096
:1053C0000DF006FB894C17B9266F656F05E0102FAD
:1053D00019BF00252E46A66FE56F38460DF0C3FABB
:1053E00030460DF001FB28460DF0FEFAD4F880009F
:1053F0000DF0FAFA00200DF0EEFA00200DF0EBFAB5
:105400000020B1E0794D002495F884002E468000FC
:105410000130C0B20DF0DCFA95F884000DF0A3FA6B
:1054200096F884309C4280F06481794D285D0DF0BF
:105430009AFA05F11003185D0DF095FA05F12003B5
:10544000185D30350DF08FFA285D0DF08CFA0134BF
:10545000E6E708200DF0BCFA00200DF0BCFA0020B1
:105460000DF0B9FA00200DF0B6FA00200DF0B3FAF5
:105470003FE104200DF0ACFA5F4B986837E194F8F7
:105480007A010DF070FA94F87E010DF06CFA94F840
:105490007D010DF068FA94F87F0165E0564C072015
:1054A0000DF096FAB4F880010DF095FAB4F8820187
:1054B0000DF091FA94F884010DF055FAB4F88601D4
:1054C000D4E74D4C0C200DF083FA94F890010DF0C8
:1054D0004AFAB4F89A010DF07EFAB4F896010DF08C
:1054E0007AFAB4F898010DF076FA94F891010DF07B
:1054F0003AFAB4F89C010DF06EFAB4F89E01B5E7E3
:105500003D4C04200DF064FA94F8D6010DF02BFA0E
:1055100094F8D7010DF027FAB4F8D801A6E73D4C6E
:105520003D4D2078002600EB4000C0B20DF050FA4F
:10553000237802359E4280F0DC8015F8020C0DF0D5
:1055400012FA15F8010C013600EB800000EB800028
:1055500000F2EE2080B20DF03EFAE9E701200DF0F6
:1055600037FA254B93F892010DF0FDF9C1E00820C0
:105570000DF02EFA0024204B234493F888010134C7
:105580000DF0F1F9082CF6D1B3E0184B1A4C93F852
:10559000C50004F12805C0EBC000C0B20DF018FA38
:1055A00094F8F40100231D4AD25C904200F0A580DB
:1055B0000C333C2BF7D10834AC42F1D199E04020B8
:1055C0000DF006FA0C4C04F14005B4F8AC020DF0F5
:1055D00002FA94F8AE020DF0C6F9043494F8AB0266
:1055E0000DF0C1F9AC42F0D183E000BF800F002084
:1055F000890F0020A4960108901000209018002028
:105600009818002096180020941800209218002066
:10561000051000202028002030120020F028002053
:10562000E0200DF0D5F9424C04F18005B4F82E02CB
:10563000043400F03F000DF0CEF9B4F82A02C0F3B4
:1056400086100DF0C8F994F8280200090DF08BF9C6
:1056500094F8280200F00F000DF085F994F8290263
:105660000DF081F9AC42E1D143E0324C0D200DF058
:10567000AFF907F0E1FE0DF076F920880DF0B4F9EE
:10568000E0680DF0B1F905F0C9FF30E00DF062F906
:10569000054684200DF09CF928460DF0A5F9254B10
:1056A000DC6805F18003A3428CBF641B802406F0F4
:1056B0006FF828462246694607F0F2FE05460024A8
:1056C000AC4216DA1DF804000DF04DF90134F7E78D
:1056D00013200DF07DF90024174B185D01340DF0F7
:1056E00042F90B2CF8D100200DF07EF900200DF0CE
:1056F0007BF9012018E0002016E00DF034F9B4F831
:10570000F6010DF068F994F8F8010DF02CF994F811
:10571000F9010DF028F994F8FB010DF024F994F843
:10572000FA010DF020F946E720B0BDE8F08700BF90
:10573000901000200800002004B601086B4B6C4A52
:105740002DE9F04F5E8914684FEA062AB4EB0A0A85
:105750009C884FF000054FEA04481C894FF0000B6D
:10576000A4FB0A6765EB0B0B04FB0B77F40944EA17
:10577000476418EB04065C884FF000094FEAE71510
:105780004FEAC438DC8849EB050787B0CDE90467E8
:10579000A4FB0A6704FB0B77340A44EA076418EB9E
:1057A00004064FEA27259C894FF0000949EB0507BD
:1057B000CDE90067AAFB046704FB0B77F40D44EA0C
:1057C000472414F5FA664FEAE75545F10007B6F5A8
:1057D000FA6F77F10003CDE90267964666DADDE9F4
:1057E0000489A4FB046704FB05F34FF0050C07EBE9
:1057F0004307A6FB0C230CFB07335F104FEA32066E
:10580000B8EB06084FEA920646EA837669EB070989
:105810009F10DDE90023921B63EB0703CDE9002312
:10582000DDE90267334A4FF0FF33964277EB03031B
:10583000CDE9048927DA40F6AC520023A4185D4173
:1058400004FB05F3A4FB04456FF0060205EB4305DA
:10585000664202FB0566A4FB0223334418EB0206F2
:1058600049EB0307CDE904670B26A4FB062306FBDF
:105870000533DDE900455B104FEA3202A41A65EBFF
:105880000305CDE90045DDE902450AFB0BF3AAFB60
:105890000AAB0BEB430B4FEADA7242EA4B02A41A53
:1058A0004FEAEB7365EB0305CDE90245DEF80440F2
:1058B000009B019DA4FB032304FB05334FEA5258D0
:1058C00048EAC3284FEA6359DDE90423B8EB020232
:1058D00069EB03039946D30B43EA494300B10360E4
:1058E00009B1029B0B6007B0BDE8F08F542800207F
:1058F0004810002024FAFFFF2DE9F04FDFF85892FE
:1059000085B00746D9F808000E460EF045FE8E4CCD
:10591000804620880EF03CFE4FF05C510546404624
:105920000EF08EFE4FF06451824628460EF088FE3F
:10593000014650460EF07AFD4FF0625182464046D5
:105940000EF07EFE4FF06A51804628460EF078FE3B
:10595000014640460EF06AFD0546B4F902000EF01D
:105960001BFE014628460EF06BFE5146054650468A
:105970000EF066FE8046B4F904000EF00DFE0146FE
:1059800040460EF05DFE014628460EF051FD804671
:105990000FF01CF86D490546A06140460EF004FF6B
:1059A000D9F80C308046284601930EF0F5FD4FF0F3
:1059B0007C510EF045FE66490EF038FD0546E38940
:1059C000B4F90A0002930EF0E7FD29460EF038FE06
:1059D00029460EF035FE4FF058510EF031FE81464B
:1059E000B4F90800B4F810B0B4F80CA00EF0D4FD6F
:1059F00029460EF025FE014648460EF019FD4FF0EF
:105A000058510EF01DFE4FF060510EF019FE4FF090
:105A10007E510EF00DFD8146E0880EF0B9FD014685
:105A200048460EF00DFE002181460EF09DFF002835
:105A30007BD1294628460EF003FE03900FFA8BF027
:105A40000EF0AAFD039B014618460EF0F9FD4FF03B
:105A500060510EF0F5FD8346BDF908000EF09CFD87
:105A6000014628460EF0ECFD01460EF0E1FC014631
:105A700058460EF0DDFC4FF07A510EF0E1FD834602
:105A800001980EF089FD01464FF093400EF0CEFCD8
:105A900005460FFA8AF00EF07FFD4FF08F410EF0B1
:105AA000CFFD014658460EF0C3FC4FF066510EF094
:105AB000C7FD014628460EF0B9FC26490EF0C0FD90
:105AC00049460EF071FE0546B4F916000EF064FD6D
:105AD00029460EF0B5FD29460EF0B2FD4FF04051BB
