:020000040800F2
:1000000000A0002001D70008098F000835C70008AC
:10001000078F0008058F0008038F0008000000000C
:10002000000000000000000000000000018F000838
:10003000FF8E000800000000FD8E000835A40008B7
:1000400069D7000869D7000869D7000869D7000890
:1000500069D7000869D7000869D7000869D7000880
:1000600069D70008CB3A000869D7000869D70008AB
:1000700069D70008294000084D3D000869D70008ED
:1000800069D7000869D7000869D7000869D7000850
:10009000858F000869D7000869D7000869D700086C
:1000A00069D70008293B000869D70008393B0008D8
:1000B0001D3B00080D3B0008FD3A000869D7000809
:1000C00069D7000869D7000869D7000869D7000810
:1000D00069D70008D53C000869D7000869D700082F
:1000E00045A4000869D70008EF8E000869D700080A
:1000F00069D7000869D7000869D7000869D70008E0
:1001000000000000000000000000000069D70008A7
:1001100069D7000869D7000869D7000869D70008BF
:1001200069D7000869D7000869D7000869D70008AF
:1001300069D7000869D7000800000000000000002F
:1001400069D7000869D7000869D7000800000000D7
:10015000000000000000000000000000000000009F
:10016000000000000000000069D7000869D70008FF
:1001700069D7000800000000000000000000000037
:080180000000000069D700082F
:100188002DE9F04FC04BB3F90610C04B2DED028B93
:100198001E687289A9B09142039311DBB1F5FA6F19
:1001A80096F807B0BDBF8B1A03FB0BF3A2F5FA6BE9
:1001B800CBF1640BBCBF93FBFBFB0BF1640B01E0C1
:1001C8004FF0640BB24DB34B2A68059293F95E2148
:1001D800B3F896A1059C029392B2079200225300AD
:1001E8000693A94B33F912300493CAEB030303F2C5
:1001F800F31740F2E630874203D8002BB8BF5B42C2
:1002080001E04FF4FA73022A01934FF06400059B52
:10021800A14F34D093F811E1BEF1000F06D0019B35
:100228007345CCBFCEEB030300230193019BDFF89A
:10023800B0E293FBF0FC6FF063093EF81C8009FB09
:100248000C390CF1010C069B3EF91CE00FFA88FCF6
:10025800CCEB0E0E0EFB09FE9EFBF0FEC64427F803
:1002680003E0B718019B3F797B438C4F93FBF7F36F
:1002780064339BB20BFB03F393FBF0F031E093F88C
:1002880012E1BEF1000F06D0019B7345CCBFCEEB47
:10029800030300230193019BDFF8308293FBF0F006
:1002A8006FF0630C38F910E00CFB00390130BDF831
:1002B8001C3038F91000CEEB000000FB09F999FB5F
:1002C800FCF9CEEB090919FB03F9019BA7F8049087
:1002D800B079002BB8BF5B424343704893FBF0F002
:1002E800643063786E4F4FF0640E434393FBFEF324
:1002F800BB546C4FE37A434393FBFEF3BB54637DDB
:10030800654F5843684B90FBFEF0022A9854674BA0
:100318000FD183F802E0049B53450FDB5D4CB4F822
:100328009821914216DBB1F5FA6FA8BF4FF4FA6134
:1003380011E003F802B0049B534504DA069B0698C3
:10034800FB5A5B423B520132032A04F101047FF459
:1003580046AFE3E71146891A4FF47A735943544B71
:100368004D4E6FF0630CC2F5FA624FF0640EB1FBAC
:10037800F2F191FBFEF233F812000CFB021101328C
:1003880033F9122003B2D21A514391FBFEF303440E
:10039800FB80484B1B88580635D5474B474A1B8876
:1003A8001288DFED477A9B1A1BB208EE103AB8EEB6
:1003B800C88A28EE278AB0EE480A07F02DFEF0EE2C
:1003C800408AB0EE480A07F0C7FDB6F9023006EEDB
:1003D800903AB6F90030F8EEE66A07EE903A20EE69
:1003E800667AF8EEE77AA7EEA87A67EE807ABDEE2D
:1003F800C77AE6EEA87A17EE103AFDEEE77A338070
:1004080017EE903A73802F4E3368990740F1A88011
:100418002D4B2E491A684B6945F20720D31A83429F
:10042800884640F39D804A6104F0F2FD284BDFF8CE
:10043800B4A01A78032A9946BAF8003054D10A2B86
:100448005ED90023282089F8003009F0A6FF04F0BF
:10045800DFFD204B188804F0C5FD1F4B1A68D378C0
:1004680090FBF3F0013008281C4BA8BF0820187037
:10047800537980B213FB00F3A8F81830137913FBF3
:1004880000F0A8F81A003BE0D01300201014002058
:10049800F80F0020441500209E1000200CFEFFFFDE
:1004A800840F00209E070020980F0020B010002025
:1004B8004A0F00209C1000204A120020AC1C00208B
:1004C80035FA8E3C30140020441E0020900700208E
:1004D80078140020500C00204C0C0020AC000020A8
:1004E800620F0020E00C00200A2B09D803239E4A43
:1004F80089F8003000231370A8F81830A8F81A30CB
:1005080099F80030994A012B0DD002D3022B1DD047
:1005180026E0B8F81820BAF800309A4220DD012306
:1005280089F8003010E0BAF80010B8F81A308B4299
:1005380002DD0223137010E08D4B1B8B01339942AF
:1005480002DD002313700BE0082007E0B8F81A302A
:10055800BAF8002001339A42E1DC072009F0BCFE1A
:10056800D6F800B0834E1BF4006F78D0824B8049D8
:100578001A68CB69C3EB020945F2072399458846F7
:100588006DDD7E4BB7F90670D3F800A0CA619AF802
:100598000A30B4F84E11012B4FF47A72A7F57A7726
:1005A80099FBF2F903D03FD3022B1DD03FE0D8F8D6
:1005B8002010082091FBF0F3CB1A0021C8F8203056
:1005C800A8F8241093FBF0F340F6E4419BB24B43A8
:1005D800BAF80810C1EB13335A43BAF9063092FB44
:1005E800F3F2C8F8282022E03278BAF80830C8F8C0
:1005F800283052071BD56248019305F0A2F9019BE8
:1006080018B91BF0100F18BF002707FB07F232219B
:1006180092FBF1F21744BAF9062057434FF47A7265
:1006280097FBF2F73B4400E00023C8F82830D8E9EC
:100638000C01D8F82830534A03FB09F34FF47A79B0
:1006480093FBF9F310EB030A41EBE37BC8E90CAB2E
:100658005046594600230CF08BFAC8F838004A4B2C
:100668001A6812F4805F984602D00A2009F034FE16
:10067800464F3A68002A48D0DFF83CE1444BDEF8A0
:10068800000019688142F24699463ED8414BDFF88E
:1006980010B118785168B0B901221A70BBF800304F
:1006A800CB5CD3B13C4B1A700AF078FABBF8003037
:1006B8009BB93B681B78053B012B0ED809F046FE19
:1006C800364B186009E000221A70BBF80030CB5C8A
:1006D8001BB1314B1A700AF061FA3A68BBF8003066
:1006E80052682F48D25CFE2A01D100230CE0FF2A71
:1006F80002D109F0E1FD08E0DAF800700A2111FBE7
:100708000272C9F800200133038033785F0703D5EC
:10071800244B08221A855FE0D8F80020D0075EBF76
:10072800144943F001030B701F4B1B7819075EBF78
:10073800337823F001033370D30242BF337823F0B8
:1007480001033370194B1A88134B1AB1184A1268EF
:10075800970702D4174A128882B302221A70337894
:1007680023F0010333702EE0AC0000207814002041
:1007780090070020611E0020441E00204C0C002021
:10078800CC160020407E0500A81C0020581200202E
:10079800501200204D12002064140020301E00204A
:1007A8005412002000040048201200209E1100204E
:1007B8007C140020581E00203C1400203178C80703
:1007C80058BF02221A7009F0C1FDAF4B1B68C01A4E
:1007D800002801DB0AF0E2F9AC4F3E78002E00F069
:1007E800E280AB4B1A689846002A01F02580D8F8B9
:1007F800000003685B689847002801F01D80A44B3F
:10080800A44C186803689B689847092801D03F28BA
:1008180052D14FF0000A2668DFF8C492554636B127
:100828009D48D9F8001032460FF0DCF810B9CA46D6
:1008380005B94D46994B09F110099945EFD3EDB12A
:10084800D5F800C0DAF8009023681CF803E019F81E
:100858000300704512D15A1C8F4958B92D2B09D85D
:10086800DFF830E2CEF800204FF0200E01F803E068
:10087800885403E001F803E02260E5E723680BB140
:10088800554510D086480AF089FA554507D855F8D5
:10089800100B0AF083FA09200AF078FAF5E7814884
:1008A8000AF07CFA002623689E42A0D27A4B985D13
:1008B8000AF06CFA0136F6E72368002B40F09D87B2
:1008C800042841F07B84744806F052FA00F0B4BF63
:1008D800D8F80000DFF8E8B103685B68984700289B
:1008E80057D0DBF8000003689B689847D9F80030B8
:1008F80093F848208246002A63D1242840F09B8040
:10090800012283F84820D9F8002092F848000628E8
:10091800DED192F849304B2B00F0D38600F2A48147
:10092800322B00F0008700F23281222B00F069851B
:1009380000F2ED80032B00F0468240F2D380042BB6
:1009480000F04D82052B40F0BB871A200AF09CF975
:100958000027554BD85D01370AF065F90B2FF8D100
:100968000027524BD85D01370AF05DF9082FF8D1FE
:1009780000274F4BD85D01370AF055F9072FF8D1FA
:100988004C4F3B6898790AF04EF93B68002283F88F
:100998004820494B93F87C30002B40F01C874C369C
:1009A800982E00F04987454AB31893F84A10012950
:1009B800F5D1404FB2583B60414BB9461A60984652
:1009C80086E7012A04D14D2814BF0022022298E7A5
:1009D800022A04D13C2814BF0022032291E7032AEB
:1009E8000AD140284FF000029FBF1A71DA7158717E
:1009F800987198BF042284E7042A08D19A7983F869
:100A0800490080EA020A83F806A0052279E7052A48
:100A18007FF479AF59791A799142997906D9414089
:100A28009971511C1971134418726CE781420CBFFB
:100A38000622002265E7234B1A7852073FF563AF79
:100A48002328DBF8002012D11049019301200870F7
:100A58000F491D480A601849CA630AF09FF91148EE
:100A68000AF09CF9019B1A7842F002021A70174B9F
:100A78001B681B78534501BF154B164A1A60164B65
:100A880004BF164ADA603EE7681400205C1E0020A6
:100A980074140020F40F0020C40F0020140D010866
:100AA800292401082E240108AF220108BB220108CD
:100AB800902201086C14002090070020AC1400203C
:100AC80070140020611E00205E240108440F0020DD
:100AD800FC9F0020EFBEADDE00ED00E00400FA054B
:100AE800740B0108012B00F06281022B40F0E886AC
:100AF80004200AF0C9F843200AF095F84C200AF0BF
:100B080092F846200AF08FF84C2000F0B2BE282B4D
:100B180000F0BE8515D8242B00F0A185262B40F0C7
:100B2800CF86B84F06200AF0AFF8B7F858010AF098
:100B3800AEF8B7F85A010AF0AAF8B7F85C0100F065
:100B480008BE2A2B00F0B7852C2B40F0B986AD4F94
:100B58000C200AF099F897F890010AF064F8B7F8B1
:100B68009A010AF094F8B7F896010AF090F8B7F8E5
:100B780098010AF08CF897F891010AF054F8B7F840
:100B88009C010AF084F8B7F89E0100F0E2BD3D2B05
:100B980000F0EB8219D8382B00F0678507D8342B82
:100BA80000F05284362B00F0D88500F089BE3A2B2D
:100BB80000F0AB823B2B40F0838601200AF064F8FA
:100BC800914B1B68187800F054BE452B00F0F08557
:100BD80027D8402B00F0AE85422B40F07186894F14
:100BE80010200AF051F878790AF01DF8B8680AF070
:100BF80057F897F890010AF016F8B7F858010AF074
:100C080046F8B7F85A010AF042F8B7F85C010AF05A
:100C18003EF8B7F880010AF03AF8B7F8820100F018
:100C280098BD462B00F0AA85472B40F0498609F06D
:100C3800F1FF804684200AF027F840460AF030F891
:100C4800724BDF6808F18003BB428CBFC8EB070713
:100C5800802707F027FD40463A4608A90AF008FC15
:100C68000027804600F09BBD702B00F0C88256D844
:100C7800682B00F0228224D8652B00F0D78015D885
:100C88004D2B00F02D85642B40F01A86072009F0C3
:100C9800FBFFE72009F0C7FF5A4B587909F0C3FF5B
:100CA800002009F0C0FF042000F091BD662B00F081
:100CB8007781672B40F00486102009F0E5FF0027B4
:100CC8008FE16D2B00F01B8213D8692B00F0018295
:100CD8006C2B40F0F5854E4F062009F0D5FF38887B
:100CE80009F0D5FF788809F0D2FF4A4B188800F040
:100CF80030BD6E2B00F00D826F2B40F0E185464F22
:100D08000B2009F0C1FF3B68187809F08CFF3B689D
:100D1800587809F088FF4FF00009B84650E2782B60
:100D280000F067811ED8742B00F0B7830BD8722BA4
:100D380000F02784732B40F0C385082009F0A4FF36
:100D4800012700F06DBC752B00F04F83772B40F026
:100D5800B785DFF8D48098F8400009F095FF0027A0
:100D680000F005BCF02B00F06D8414D87B2B00F04C
:100D7800D882A02B40F0A4850C2009F085FF274BD2
:100D8800186809F08DFF264B186809F089FF254B74
:100D9800186800F01CBDF12B00F06981FE2B40F0B3
:100DA8008F85082009F070FF002000F041BC032067
:100DB80009F06AFF002009F036FF012009F033FF2F
:100DC8000D2000F056BD184609F05EFF012009F01D
:100DD8002AFF0A2009F027FF002000F04ABD06205C
:100DE80009F052FF432009F01EFF432009F01BFFC2
:100DF800332009F018FF442009F015FF012000F006
:100E0800A8BC00BF44150020F80F002034000020C3
:100E1800A61000204A12002010140020ACF7FF1F73
:100E2800B0F7FF1FB4F7FF1F900700200B2009F051
:100E38002BFFD34B188809F02AFF002009F027FF61
:100E4800D04B1B68C3F3C000C3F38002800040EAA4
:100E58004200C3F340021043C3F3401240EAC20009
:100E680003F01003184309F012FFC74B1A88C74B49
:100E780012F0010F14BF4FF002084FF0000812F0F3
:100E8800020F14BF4FF0040C4FF0000C12F0040FC7
:100E980014BF4FF0100E4FF0000E12F0400F14BFA9
:100EA8002027002712F0100F14BF4FF40070002005
:100EB80012F0200F1B6814BF4FF4806B4FF0000B2B
:100EC80012F4807F14BF4FF400610021019102F0F9
:100ED800080903F4475141EA090903F4804149EA42
:100EE800010903F4004149EA010903F4803149EAA0
:100EF800010903F4003149EA010903F4802A49EAA7
:100F08000A0903F4002149EA010103F4801941EABE
:100F1800090903F0007349EA0303DFF89C9299F882
:100F28000090C9F3800943EA090343EA080343EA46
:100F38000C0C4CEA0E0E4EEA07073843019B12F4DC
:100F4800007F40EA0B0B4BEA030B14BF4FF4001170
:100F580000218F4B12F4806F4BEA01014FF0000023
:100F680014BF4FF0806B4FF0000B93F8407041EACC
:100F78000B010346BB420CD2864A13F802E0012259
:100F880002FA0EFE1EEA010F1CBF9A4010430133FD
:100F9800F0E709F085FE804B93F8AC0600F069BCD9
:100FA800122009F071FE7D4B1B88B3F5806F8CBF52
:100FB8004FF008084FF001080027794B33F9170064
:100FC80090FBF8F0013780B209F061FE032FF4D1ED
:100FD800744F388809F05BFE788809F058FEB888A5
:100FE80026E3714BD85D013709F01DFE102FF8D1AB
:100FF800C6E4702009F048FE4FF000082B680E2761
:1010080007FB08F73B4408F10108B3F8190109F098
:101018003EFE2B683B44B3F81B0109F038FE2B68F1
:101028003B44B3F81D0109F032FE2B683B4493F8AA
:101038001F0109F0F8FD2B683B4493F8200109F0E3
:10104800F2FD2B683B4493F8210109F0ECFD2B6875
:101058003B4493F8220109F0E6FD2B681F44D7F8BA
:10106800230109F01DFEB8F1080FC7D188E47020EC
:10107800494F09F009FE07F1700897F8D00009F008
:10108800D2FD97F8D10009F0CEFD97F8D20009F00B
:10109800CAFD97F8D30009F0C6FD97F8D40009F007
:1010A800C2FD97F8D50009F0BEFD073797F8CF00C5
:1010B80009F0B9FD4745E0D162E4102009F0E4FDEC
:1010C80000273A4BD85D013709F0ADFD102FF8D154
:1010D80056E4DFF8E88098F80000400000F0FE00D1
:1010E80009F0D2FD002798F800309F42BFF448ACC1
:1010F8002F4B33F8170009F0CAFD0137F3E709F061
:10110800C3FD002009F0CCFD9AE2042009F0BCFDE3
:101118005CE3072009F0B8FD264B1D4F1888FF280F
:10112800A8BFFF20C0B209F07EFDB86B4FF6FF786C
:101138004045A8BF404620EAE07080B209F0A7FD0C
:10114800B7F86C0009F0A3FD134BB86A93F8853122
:101158003BB10A2358434045A8BF404620EAE07007
:1011680001E000F30F0080B2F3E20B4F022009F018
:101178008BFD97F8E00109F056FD97F8DF0178E359
:101188008C1400207C1400209C100020A81C002037
:1011980090070020D10700204415002044000020BB
:1011A800EC110020AA100020EC0700206412002097
:1011B800D0130020E00C0020611E0020201C00201D
:1011C800D8F80030D24F4B4409F10109187909F0D9
:1011D8002AFDB9F1030FF3D13B68D87909F023FD53
:1011E8003B68987809F01FFD3B68D87809F01BFD2B
:1011F8003B68588909F04BFD3B68187A39E3C54FBD
:101208001E2009F041FD3B681B78022B4FF00008B7
:1012180071D13B6803EB880393ED080AB2EE048AA8
:1012280020EE080A0EF0A0FD80F30800C0B209F015
:10123800FAFC3B68DFEDB87A03EB880393ED0B0A01
:1012480020EE270A0EF090FD80F30800C0B209F0E6
:10125800EAFC3B68DFEDB17A03EB880393ED0E0AF5
:1012680020EE270A0EF080FD80F30800C0B208F1D6
:10127800010809F0D8FCB8F1030FCAD1B8F1070F7B
:101288003B6823D193ED110A20EE080A0EF06CFD9D
:1012980080F30800C0B209F0C6FC3B6893ED120A5F
:1012A80020EE080A0EF060FD80F30800C0B209F0D5
:1012B800BAFC3B6893F84C3000EE103AB8EE400A9E
:1012C8000EF052FD80F30800C0B20BE0434458789A
:1012D80009F0A9FC3B684344D87A09F0A4FC3B68B0
:1012E8004344587D08F1010809F09DFCB8F10A0F44
:1012F800C4D1FFF745BB3B684344587809F093FCD9
:101308003B684344D87A09F08EFC3B68434408F1B3
:101318000108587D09F087FCB8F10A0FEBD1FFF7F7
:101328002FBB3C2009F0B0FC0027DFF8E8819FEDD7
:101338007B8AD8F8003003EB870393ED080A20EE88
:10134800080A0EF011FD80B209F0A1FCD8F80030AF
:1013580003EB870393ED0B0A20EE080A0EF004FD59
:1013680080B209F094FCD8F8003003EB870393EDC2
:101378000E0A20EE080A0EF0F7FC013780B209F0D9
:1013880086FC032FD1D1072FD8F8003018D193ED60
:10139800110A20EE080A0EF0E7FC80B209F077FC8B
:1013A800D8F8003093ED120A20EE080A0EF0DCFCA3
:1013B80080B209F06CFCD8F8003093F84C000DE0CE
:1013C8003B44587809F063FCD8F800303B44D87A9D
:1013D80009F05DFCD8F800303B44587D013709F02E
:1013E80056FC0A2FCFD1FFF7CBBA2F2009F04CFCBF
:1013F8004B4F17F8010F00283FF4C2AA09F013FC5D
:10140800F7E7502009F040FC0027424B1B6803EB2C
:101418008708444B98F879200C2101FB02330137E7
:1014280093F8380009F0FFFB98F87A0009F0FBFB05
:1014380098F87B0009F0F7FB98F87C0009F0F3FBBB
:10144800142FE2D1FFF79CBA482009F01DFC4FF099
:101458000008304B1F68062303FB087708F10108D2
:1014680097F8CE0009F0DFFB97F8C90009F0DBFB1D
:1014780097F8CA0009F0D7FB97F8CB0009F0D3FB1F
:1014880097F8CC0009F0CFFB97F8CD0009F0CBFB1B
:10149800B8F10C0FDDD1FFF773BA4FF000084FF029
:1014A80001094FF0000A204B93F84020924540DA9A
:1014B80041334FF0000B1AF803201A4F0C2307F1A1
:1014C800300103FB0BF3595C914209D13B44586B43
:1014D8000EF07FFA0246B9F1000F07D14B4607E03C
:1014E8000BF1010BBBF11C0FE7D11FE080441DE09D
:1014F80093421BDA0C2101FB0B710492496B019397
:10150800C85C09F090FB019B049A0133F0E700BF27
:1015180010140020F80F00200000C84200007A4490
:101528007309010874090108900700200AF1010AEB
:10153800B9E7B9F1000F3FF423AA5FFA88F009F080
:10154800A3FB4FF00009ACE701311C290ED0CB48B2
:101558000C2200F1300C02FB01F313F80C20724549
:10156800F2D1034493F8380009F05DFB013798F88D
:1015780040309F42BFF404AAC14B002117F803E092
:10158800E5E7162009F080FB029BB3F8960109F005
:101598007EFB029BB3F8400109F079FB029BB3F88C
:1015A800420109F074FB029BB3F8440109F06FFB98
:1015B800029BB3F8D80109F06AFB002009F033FB5D
:1015C800002009F030FB002009F02DFB029B93F866
:1015D800850109F028FB029B93F8920109F023FB8F
:1015E800002009F020FBA74B1B680A20B3F95630EE
:1015F80093FBF0F080B209F04AFB029B93F87A0162
:1016080009F011FB029B93F87E0109F00CFB029B89
:1016180093F87D0109F007FB029B93F87F0128E10D
:10162800F8B2013709F0FFFA092FF9D1FFF7A8B985
:1016380009F02DFB002009F02AFB002009F027FB08
:10164800002086E08F4F042009F01EFB3B68B3F8AA
:101658005A0009F01CFB3B68B3F8580079E00420F5
:1016680009F012FB884B9868B1E0874F042009F015
:101678000BFB97F87A0109F0D6FA97F87E0109F082
:10168800D2FA97F87D0109F0CEFA97F87F01F0E0D9
:101698007D4F072009F0F8FAB7F8800109F0F7FA4A
:1016A800B7F8820109F0F3FA97F8840109F0BBFA58
:1016B800B7F886014DE0012009F0E6FA724B587937
:1016C800D7E0714F042009F0DFFA97F8D60109F046
:1016D800AAFA97F8D70109F0A6FAB7F8D80138E0BE
:1016E8006A4FDFF8D881387800EB4000C0B209F0C3
:1016F800CBFA4FF000093B78994508F10208BFF48E
:101708003FA918F8020C09F08EFA18F8010C00EB42
:10171800800000EB800000F2EE2080B209F0B7FAFA
:1017280009F10109E7E7012009F0AEFA564B93F8F1
:1017380092019EE0082009F0A7FA0027524B3B448B
:10174800013793F8880109F06EFA082FF6D1FFF7F0
:1017580017B909F09CFAFFF713B94D4B4A4F93F8A4
:101768006E00C0EBC000C0B209F08EFA494B187881
:1017780097F8F03198427FF403A966E0464F0D20B0
:1017880009F082FA09F062FD09F04DFA388809F08B
:1017980087FAF86809F084FA07F01AFB17E047455A
:1017A800BFF6EEA808ABD85D09F03DFA0137F6E7B9
:1017B800132009F069FA0027384BD85D013709F082
:1017C80032FA0B2FF8D1002009F06AFA002009F04C
:1017D80067FAFFF7D5B8324BF05808F037FE18B95A
:1017E800322008F0DAFDF6E708F09CFF06F044FC2A
:1017F8002C4B2D4ADA60FFF7D2B80C2800F0E084B1
:101808000A2840F0E184294D294809F0C7FA2846FA
:1018180023210EF0D0F808B1401B20602368002B6C
:1018280040F0D68421482360002130220EF08DF844
:101838003B78002B40F001851E4B9B68002B00F085
:1018480023851D48984700F01FBD09F0ECF9B7F84B
:10185800F20109F01CFA97F8F40109F0E4F997F895
:10186800F50109F0E0F997F8F70109F0DCF997F8C4
:10187800F60109F0D8F9FFF783B800BF7409010829
:10188800D1070020F80F002044150020201C00205C
:1018980090070020E40C002034000020AF2201084B
:1018A800AC14002000ED00E00400FA05C40F00208D
:1018B8000A310108201100200E080020E41600203B
:1018C8004C2B1DD109F090F9D34F87F8D60109F0B8
:1018D8008BF987F8D70109F093F9A7F8D8010AE03E
:1018E800D42B00F04D83D22B40F06484CB4B1B7873
:1018F8005B0740F18C83002009F0C6F9FFF740B878
:1019080000F27B81352B27D109F06EF90B28804630
:1019180002D90AF033F9EEE7C14B1F6809F064F900
:101928000328F6D8062303FB087787F8CE0009F0CA
:101938005BF987F8C90009F057F987F8CA0009F078
:1019480053F987F8CB0009F04FF987F8CC0009F074
:101958004BF987F8CD00CEE700F2A680292B11D1EC
:1019680009F04EF9AC4FA7F8800109F049F9A7F83A
:10197800820109F039F987F8840109F041F9A7F8DB
:101988008601B8E75AD8252B08D1A34F0023BB609E
:1019980009F040F9BB681843B860ACE7272B0DD1B4
:1019A80009F02EF99C4FA7F8580109F029F9A7F872
:1019B8005A0109F025F9A7F85C019CE7232B40F0B0
:1019C800F98309F011F913288146A2D8DFF850826B
:1019D800D8F8007009F008F9002292490C23534303
:1019E80001EB030E9EF838E0864523D10B440FFA2D
:1019F80089F907EB890793F8303087F8793009F0CF
:101A0800F3F887F87A0009F0EFF887F87B0009F017
:101A1800EBF8854B87F87C00D8F800009867834A74
:101A28005A677930002103F07BFF814B80F0010079
:101A3800187060E701321C2ACFD16AE72D2B23D119
:101A480009F0D2F8DFF8D08188F8900109F0D8F8C9
:101A5800A8F89A0109F0D4F8A8F8960109F0D0F886
:101A6800A8F8980109F0C0F83B6888F891015B79FB
:101A7800082B7FF640AF09F0C3F8A8F89C0109F0DD
:101A8800BFF8A8F89E0136E7332B05D109F0ACF86A
:101A9800614B83F892012EE72B2B40F08B8309F0E2
:101AA800A3F85D4B587126E73E2B09D109F09CF845
:101AB800594F87F8E00109F097F887F8DF011AE72E
:101AC80059D8392B11D109F08FF8534F87F87A017B
:101AD80009F08AF887F87E0109F086F887F87D0111
:101AE80009F082F887F87F0105E73C2B0BD14C4FB2
:101AF800D7F8008009F078F888F800003B68187873
:101B080008F06AFBF7E6372B40F054835379072730
:101B1800B3FBF7F2C2EBC2029A1A12F0FF0F7FF47E
:101B2800F8AEB3FBF7F7013FFFB2FF2F3FF4E3AE88
:101B380009F05AF85FFA80F94FFA89F003F0A4FD2A
:101B4800804600283FF4E5AE80F8009009F058F888
:101B5800A8F8020009F048F888F8040009F044F8E9
:101B680088F8050009F040F888F8070009F03CF803
:101B780088F80600D7E7432B23D109F035F8264F1C
:101B88000023BB60787109F045F8BB681843B8605A
:101B980009F02AF887F8900109F032F8A7F85801F7
:101BA80009F02EF8A7F85A0109F02AF8A7F85C01FD
:101BB80009F026F8A7F8800109F022F8A7F88201B1
:101BC80099E60DD8412B40F0F582002709F00CF872
:101BD800114B3B440137082F83F88801F6D18AE678
:101BE800442B04D1104B012283F87C2083E6482B38
:101BF80040F0E08209F010FC7DE6D02B1AD1074BAB
:101C08001B7858073FF577AE09F0F6FF06F05EFA45
:101C180006F01AFB6FE600BF44150020611E002085
:101C2800F80F00207409010890070020841600208E
:101C38000000002000F28E81CC2B50D15379092B63
:101C48007FF667AE039BD3F8008008F0CDFF039BB7
:101C580088F80000D3F8008008F0C6FF88F8010073
:101C680008F0C2FF039B64281B68A8BF6420187192
:101C780008F0BAFF039B64281B68A8BF642058714A
:101C880008F0B2FF039BFF281B68A8BFFF209871CC
:101C980008F0AAFF039B6428D3F8008028BF6420BB
:101CA80088F8070008F0A0FF039B88F80200D3F823
:101CB800008008F099FF039B88F80300D3F80080A0
:101CC80008F09EFF3B68A8F80A005B790A2B7FF6AC
:101CD80012AEDC4B1F6808F087FF38720BE600F283
:101CE800DC80C82B15D157797F08122F3FF611AE2B
:101CF8004FF00008B84507D208F082FFD24B23F80E
:101D0800180008F10108F5E7D04B012283F872208A
:101D1800F1E5CA2B40F09280CD4F3B681B78022B2F
:101D28004FF000086FD1D7F8009008F05DFF07EE7C
:101D3800900AF8EE677AB2EE048AC7EE887A09EB61
:101D48008809C9ED087AD7F8009008F04DFF07EE2A
:101D5800900A9FEDC07AF8EE677A09EB8809C7EE1A
:101D6800877AC9ED0B7AD7F8009008F03DFF07EEA7
:101D7800900A9FEDB97AF8EE677A09EB8809C7EE01
:101D8800877A08F10108B8F1030FC9ED0E7ACAD1B4
:101D9800B8F1070FD7F800901CD108F025FF07EE1F
:101DA800900AF8EE677AC7EE887AC9ED117AD7F803
:101DB800009008F019FF07EE900AF8EE677AC7EE70
:101DC800887AC9ED127AD7F8009008F00DFF89F8E3
:101DD8004C0012E008F008FFC14489F80100D7F868
:101DE800009008F001FFC14489F80B00D7F8009073
:101DF80008F0FAFEC14489F8150008F10108B8F1A5
:101E08000A0FC5D177E5D7F8009008F0EDFEC14478
:101E180089F80100D7F8009008F0E6FEC14489F877
:101E28000B00D7F8009008F0DFFEC14408F1010864
:101E3800B8F10A0F89F81500E5D15CE54E2B40F0A2
:101E4800B98157790323B7FBF3F7122F3FF661AD3A
:101E5800DFF810824FF00009B945BFF44CAD08F027
:101E6800C3FE88F8A00108F0CBFE40F2ED239842AB
:101E780005DD40F6CA039842A8BF184601E040F2C3
:101E8800EE20A0F2EE20192309F1010990FBF3F0EE
:101E980008F1020888F89F01DEE7CE2B0AD16F4BC4
:101EA8001B785A073FF527AD6D4A137843F00403B2
:101EB800137020E544D908F0A3FE6FF4AF67C31987
:101EC8009BB2C62B9CBF674BA3F8960108F098FEFF
:101ED800A4F8400108F094FEA4F8420108F090FE2E
:101EE800A4F8440108F08CFEA4F8D80108F07CFEA0
:101EF80008F07AFE08F078FE08F076FE84F885018E
:101F080008F072FE84F8920108F06EFE504B1F68CC
:101F180008F076FE00EB80004000A7F8560008F0B5
:101F280063FE84F87A0108F05FFE84F87E0108F009
:101F38005BFE84F87D0108F057FE84F87F01DAE43F
:101F4800464B1B7859073FF5D6AC474B4FF4C87240
:101F58001A80D0E4D62B09D1002708F051FE434B54
:101F680023F817000137082FF7D1C4E45BD8D32B27
:101F78007FF4B6AC08F044FE344BA3F87000BAE422
:101F880053790F2B7FF4C5AC08F02EFE07280746BF
:101F98003FF6BFACDFF8B880D8F8009008F030FE04
:101FA8000E235F43B944A9F81901D8F8009008F046
:101FB80027FEB944A9F81B01D8F8009008F020FEC4
:101FC800B944A9F81D01D8F8009008F00DFEB944ED
:101FD80089F81F01D8F8009008F006FEB94489F87E
:101FE8002001D8F8009008F0FFFDB94489F82101D4
:101FF800D8F8009008F0F8FDB944D8F8008089F8BE
:10200800220108F007FE4744C7F8230173E408F0EB
:10201800EBFD144B022883F8AC067FF6F7AD0022DF
:1020280083F8AC26F2E5EF2B22D1094FD7F80080D0
:1020380008F0E6FDA8F85A003F6808F0E1FDA7F8A7
:10204800580058E410140020D013002090070020F6
:10205800F80F00200000C84200007A44611E0020EA
:1020680020120020441500209E1100201414002086
:102078006DD8D82B40F09E800027DFF844829FED72
:10208800858AD8F8009008F0BBFD07EE900AF8EEB4
:10209800677A09EB8709C7EE887AC9ED087AD8F814
:1020A800009008F0ADFD07EE900AF8EE677A09EBAC
:1020B8008709C7EE887AC9ED0B7AD8F8009008F03E
:1020C8009FFD07EE900AF8EE677A09EB8709C7EEDD
:1020D800887A0137032FC9ED0E7ACED1072FD8F8A9
:1020E80000901CD108F08CFD07EE900AF8EE677A94
:1020F800C7EE887AC9ED117AD8F8009008F080FD0B
:1021080007EE900AF8EE677AC7EE887AC9ED127A78
:10211800D8F8009008F074FD89F84C0012E008F037
:102128006FFDB94489F80100D8F8009008F068FDFF
:10213800B94489F80B00D8F8009008F061FDB9445B
:1021480089F8150001370A2FC8D1FFF7D4BBF22B45
:1021580029D108F049FD0F2807463FF6DAAB08F009
:1021680043FD4D4BC7EBC7071F4487F8D00008F065
:102178003BFD87F8D10008F037FD87F8D20008F05A
:1021880033FD87F8D30008F02FFD87F8D40008F056
:102198002BFD87F8D50008F027FD87F8D60008F052
:1021A80001FBFFF7A8BBFA2B04D13C4B1B785B075C
:1021B8007FF52CAD09F0E2FCFEF7E2BB0C284AD112
:1021C800374808F0EBFD38E00D2838D1FFF71BBB86
:1021D8005A1EA95C202902D11346FFF720BB314AB9
:1021E80023600021D154304B304DD3F800A0D5F8EE
:1021F80000B0DFF8B09058460DF0EBFB06463246CB
:10220800484659460DF0EEFB294A28B919F8063018
:1022180053445B78590703D010359542E7D306E05D
:10222800954204D2701CEB684844984702E0214864
:1022380008F0B4FD0023FFF7F5BA1F4807E07F2830
:102248000DD1013B174A1D4823600021D15408F0E5
:10225800A5FDFEF7CCBA7F2804D1FEF7C8BA2F2B0C
:102268003EF6C5AAA0F12002D2B25E2A3EF6BFAA67
:1022780013B920283EF4BBAA5A1C2260094AD0543C
:1022880008F084FDFEF7B3BA29B0BDEC028BBDE8B7
:10229800F08F00BF00007A4444150020611E002022
:1022A80033240108C40F0020B0000020740B01087B
:1022B800140D01083E2401082E2401085A2401089F
:1022C800F80F00202DE9F04F2DED068B6E4D6F4B6A
:1022D8002B60A7B000236B6009F06BFC18B909F0FC
:1022E8008BFC05F0F3FE05F0AFFF694A694C1378E3
:1022F80043F001031370684B4FF47002C3F8882051
:10230800002309930A93236843F4803323602368E6
:1023180003F400330A93099B013309930A9B1BB901
:10232800099BB3F5A04FF2D1236813F4003318BF0B
:1023380001230A930A9B012B7CD0574F574BFB6014
:10234800636AAB60636ADFF88CB1DFF88C91DFF801
:102358008C8143F080736362636943F4FC0326AEA7
:10236800636103238DF84A3041F6FF7326F8503D28
:102378004FF09040314601F06BFE4FF6FF73584620
:102388003146ADF8483001F063FE4548314601F06A
:102398005FFE4448314601F05BFE4348314601F098
:1023A80057FE3146414801F053FE304602F0D4FB57
:1023B800129B3F4AB3FBF2F33E4A13603E4B3F4A3F
:1023C8004FF0000AC3F800A03D4B5A60F02287F88E
:1023D800232007223B4FC3F808A01A60D9F8083019
:1023E800C8F8003097E80300636986E8030043F4FF
:1023F800802363610823CBF8183013A9129801F0E1
:1024080027FE642007F0C9FFA0222F4851460DF08F
:102418009CFAE3692D4A43F00703E361A36943F497
:102428000063A361636943F4C023636102F1700E22
:10243800039755E0264B12221A606368636063684D
:102448006360636843F480636360636823F47C13A8
:102458006360636843F4E8136360236843F0807340
:10246800236022680B4B9601FBD55A6822F00302C1
:102478005A605A6842F002025A60636803F00C031B
:10248800082BFAD159E700BF10080020F579000899
:10249800421E00200010024000ED00E00005FA0591
:1024A80000080048000C00480010004800140048CC
:1024B80040420F005C120020601200203F1901000A
:1024C80010E000E0F40A0108B01200207C250108A1
:1024D8000020024000040048441500203014002069
:1024E800937BD17B03F00700800001FA00FC516860
:1024F800DB0801EB83034FF00F0A196A0AFA00F0B0
:1025080021EA00011962196A10324CEA0101724588
:102518001962E5D10023DFF87CA30AF10C0200213F
:1025280099540133072BF6D1FF238AF813308AF820
:1025380014308AF815308AF81630C44BC44FC54A8F
:102548001F6001231370C44804930C220DF0FDF999
:10255800C24A99F805B082F800B0C149D8F800809D
:10256800049BA7F5EF72CAF81820A7F58F720A60C6
:10257800BC4A02EBCB0218F0200F5278CAF81C2094
:1025880018BFCAF81C300023B74A40F2DC5122F8C1
:1025980013100133082BF7D1304600211C220DF00F
:1025A800D4F9BBF10E0F04D00BF0EF0BBBF1080F01
:1025B80002D101238DF85830022003F065F818B1D4
:1025C8004088003018BF0120C8F340038DF84E3012
:1025D800C8F380138DF85030C8F340338DF8483075
:1025E800C8F3C03300F001008DF84B3018F40063D5
:1025F8008DF84D0004D099F88431581E4342434168
:102608008DF84C30C8F300438DF85130EB69B9F8B8
:102618004401ADF85C00003318BF01238DF8523037
:10262800C8F300538DF85330B9F84631ADF8563039
:1026380018F4805FB9F8523118BF8C48ADF854309F
:10264800C8F380438DF84F30B9F850311CBFB0F84B
:102658004C01ADF85C00B3F5FA7FADF85A3084BF91
:102668000023ADF85C30824899F8D43185F82030E1
:10267800002385F8213043709DF8583008F0010197
:10268800002BC8F3C0028DF849108DF84A200CBF02
:102698000023022301B902B10133039A02EB830735
:1026A8004FF00009BB68A3F1020B0C3304933BF80D
:1026B800023F4FF6FF72934200F032811A0A022A53
:1026C80002D19DF8481003E0012A04D19DF8491071
:1026D800002900F02181DFF8ACA19DF85300DBB29E
:1026E8001F010AEB0706514630B19DF8580018B98A
:1026F800043B032B40F2F980012AD0B24FD19DF858
:102708004F3023B9BDF85A30B3F5FA7F07D95AF8D4
:102718000730584A934204BF032385F82330FF2328
:1027280085F8683085F86930CB194FF0000803F157
:102738000802597B58681B89ADF834308DF836107B
:1027480002230DA985F86C80AE678DF837300392A7
:1027580085F82480C5F82880C5F82C80C5F8308015
:10276800C5F8648085F86A8085F86B8001F070FC94
:10277800039A5AF807009178424601F09BFB3046CD
:1027880009F0D8F83C4B3D49EB673D4BC5F8803024
:10279800C5F8848030460A1D01F03EFABCE00228E4
:1027A80046D15FFA89F34FF01C0A0AFB03F305EBE5
:1027B80003080393334B88F86D90012188F86C1057
:1027C800D9194FF0000AD1F804C091F80DE08DF83E
:1027D800370001F108020989ADF8341060460DA9E7
:1027E80088F86EA088F876A0C8F878608DF836E08A
:1027F8000693059201F02CFC069B059AD85991780E
:10280800524601F057FB304609F094F81E49C8F8C3
:102818007C101E49C8F88010039B1849C8F884A08A
:10282800194430460A1D01F0F7F909F1010973E06E
:10283800032858D19DF84F30154F6BB395F8228077
:10284800304608214FF6FF72002340E0440F002075
:1028580032170020FE070020E40C00201C03002093
:10286800CC13002094260108EC0700204415002012
:102878003108002000080040D93800088C080020E2
:10288800C53900087C250108B93F0008B13800089F
:102898007C12002010080020BDF85A2095F82280EC
:1028A800BDF85C30B2F5FA7F0BD96B49B1FBF2F297
:1028B8003046082192B201F019FC684B47F828000D
:1028C8000AE06749B1FBF2F23046012192B201F009
:1028D8000DFC644B47F82800C36095F8223001339B
:1028E80085F8223018E0042816D195F82170BDF833
:1028F80054205B4B93FBF2F23046BDF85630012171
:1029080092B201F0F3FB95F8213005EB870701330C
:10291800C7F84C0185F82130049B9B457FF4C7AE6E
:1029280095F8212085F86C214F4A504B1778A7F16C
:1029380017020026022A1E709E461AD8AB69334435
:10294800D3ED007AF5EE407AF1EE10FA02D1EB6998
:1029580063BB26E0464A06EB020C0FCB8CE80F005F
:102968009EF8003010360133C02E8EF80030E5D1C5
:10297800EDE7404B13F837C08EF800C003EBC703F0
:10298800D3F80480B8F1000FE1D06645DFDA384AA1
:10299800330103EB020943440FCB013689E80F00EA
:1029A800F3E7354D2B68D90424D41DE0334B344A62
:1029B80013F83700107003EBC7035D68002DF0D0E3
:1029C80000238342EDDAC3EBC3016A18DFF8BCC009
:1029D800D2F8008041F80C8001EB0C069188B18098
:1029E8009279B2710133ECE707F0EF03082B254B1E
:1029F80020D121E09EF80020012AF5D9224B03EBD3
:102A08000212103210339342EED053ED047AB6EE30
:102A1800007A67EE877A43ED047A53ED057A67EE1C
:102A2800877A43ED057A53ED037A67EE877A43EDAB
:102A3800037AE7E70E2F08D11A7842F010021A70CD
:102A4800182F25D107F0AEFE22E01A7822F01002E6
:102A58001A70192FF5E700BF00127A00E53900084F
:102A680040420F00D53900081C030020AC1200209A
:102A7800580200209426010830140020D40D0108C3
:102A88005813002020120020600200205913002053
:102A980007F06CFE2B68AC4E5A035EBFAB4B0122AD
:102AA8001A70337843F004033370A36943F48053F6
:102AB800A361E36843F48053E36063694FF0904592
:102AC80043F4003363612B6A23F470032B622B6A8F
:102AD80043F4A0032B622B6A23F070632B622B6AEA
:102AE80043F0A0632B622B6A23F070432B622B6A9E
:102AF80043F0A0432B622B6A23F470232B622B6ACA
:102B080043F4A02300272B624FF0020A4FF0030B77
:102B1800E02328460BA94FF001090B938DF830A04C
:102B28008DF831B08DF832708DF8337002F082F97B
:102B3800102328460BA90B938DF830908DF831B0EF
:102B48008DF832708DF8337002F074F9E268804DB8
:102B580042F48052E260E2684FF4E06322F480526B
:102B6800E260ADF838304FF40073ADF83E3007231B
:102B78004FF4827CADF8443004934FF01003ADF865
:102B880036C0ADF84030ADF83470ADF84270ADF8ED
:102B98003AA0ADF83C90AA88CDF814C022F480522F
:102BA8001204120CAA80AA8892B242F480520DF143
:102BB8003408AA802846414601F0F0FE2A8892B2DD
:102BC80042F040022A80E269624D42F48042E261AA
:102BD800226942F480422261626942F48022626181
:102BE8006A6A22F470026A626A6A42F4A0026A623D
:102BF8006A6A22F070626A626A6A42F0A0626A6275
:102C08006A6A22F070426A626A6A42F0A0426A62A4
:102C18006A6A22F470226A626A6A42F4A0226A62CC
:102C280028464FF460420BA90B928DF830A08DF81E
:102C380031B08DF832708DF8337002F0FBF84FF434
:102C4800805228460BA90B9203928DF830908DF88C
:102C580031B08DF832708DF8337002F0EBF82169DD
:102C6800DDF814C041F48041216121694FF4E0632B
:102C780021F480412161ADF838304FF40073ADF88C
:102C88003E304FF01003344CADF84030049BADF8A3
:102C98003470ADF836C0ADF83AA0ADF83C90ADF858
:102CA8004270ADF84430A38823F480531B041B0CF6
:102CB800A380A3889BB243F48053A3802046414657
:102CC80001F06CFE2388039A9BB243F040032380F3
:102CD800224CAA61B4F85831002B40F0F484B4F9BE
:102CE8005A21002A40F0EF84B4F95C21002A40F010
:102CF800EA841B4B1B481B681B4DB3F856300393E3
:102D080000210C2294F85FB10CF01FFE1422174822
:102D180000210CF01AFE164A95F8747100231370FE
:102D2800144BC5F870319146049337B10023A5F8C8
:102D380076310FBB08F0C6FB1EE008F019FC00282E
:102D480000F00A81F2E700BF421E00208807002039
:102D580000300140000400480038004044150020BD
:102D6800F80F0020801400201008002020110020F7
:102D7800341100200C0B0108684A138823F0400323
:102D88001B041B0C1380138823F038031B041B0C33
:102D980043F03003138013889BB243F04003138041
:102DA80095F87811192001F013FB012007F0EAFAD1
:102DB80001211A2001F00CFB012007F0E3FA40463C
:102DC80008F0E8F99DF93630013303D19DF9343024
:102DD800013303D0B5F876319BB21BB10023A5F8B7
:102DE8007631B9E04E4F4F4B3B604F4B7B604F4BBA
:102DF800FB6064204E4B3B6107F0CFFA04234D493A
:102E080089F8003006230B704B4B05971A6842F07F
:102E180001021A608A465A461F46484B0021092A71
:102E280019709B4601D90A46F7E70123934040F2FF
:102E38000231194051BB13F0FD0F27D0049BC5F890
:102E4800703195F8743133B10022A5F8762153B961
:102E580008F038FB07E00793069208F089FB069A0A
:102E6800079B98B1F0E7364B364A1A606420364A19
:102E78005A6007F092FA04238BF8003007238AF887
:102E880001303B6843F002033B6003E0012A01D9AB
:102E98000022C2E73B689B0702D5294B1B6898476D
:102EA8002A4BC8221A60059B4FF0000A1B6885F858
:102EB80078A19847264B94F8542183F800A00AB1CA
:102EC80089F8002094F855210AB11C490A7094F831
:102ED800562102B11A703B6818071AD5BDF90C10B3
:102EE800DFED1C6A642291FBF2F302FB131212B2AB
:102EF80007EE902AB8EEE77A07EE903AF8EEE77A0E
:102F0800E7EE267AB2EE047A67EE877AC5ED5F7A45
:102F180025E00023C5F87C3121E000BF00300140E6
:102F28002011002019B200089DB100081DB1000849
:102F380090C1793DA80000207C1400205F1E00206D
:102F48008014002005B2000835B10008C010002028
:102F58005A1E00208988883C012007F028FA337817
:102F680043F002033370BE4B08229A610A27DFF848
:102F7800F092B9F814309BB283F00803A9F8143022
:102F8800192007F00AFA013F192007F006FA17F08E
:102F9800FF07ECD10823C9F81830B24B9FEDB28A6D
:102FA800D3F80090DFEDB18A99F80C3000EE103AB2
:102FB800B8EEC00A20EE080A05F02EF8AC4B83EDF7
:102FC800000AAC4B1B8807EE903AF8EEE77AB7EEAA
:102FD800007AC7EE277AA84BB0EE680AC3ED007AEC
:102FE800A64BD3ED047AA64B67EE887AC3ED007A38
:102FF80099F8003007EE903AF8EEE77AA14BC7EE61
:10300800277AC3ED007A77EE677A9F4BC3ED007A93
:103018009E4B83ED027AC3ED008AC3ED018A9C4B77
:1030280083ED027AC3ED008AC3ED018A04F0F4FF50
:10303800B0EE408AB0EE680A04F08EFF20EE006A17
:1030480068EE086A66EE007A924BE6EE887AFF210F
:103058001B2220EE087AC3ED007A67EE007AF0EEC4
:10306800675AD7EE085AE7EE087A28EE468AC3ED83
:10307800015AA6EE808AC3ED027A83ED038A864B55
:103088001F70864B18460CF060FC854ADFF838E262
:1030980012680770012112F0020F8EF800101FBF8E
:1030A800417003218EF80010022118BF817051076A
:1030B80041BF9EF800104F1C8EF80070032748BFD0
:1030C800475412F00A0F73460ED09EF800200421D0
:1030D8008154511CC9B205274754D11C0232D2B2BF
:1030E8008EF80010062181546E4A11688A0641BF85
:1030F8001A78571C1F70072748BF87546779082F0D
:1031080001D00E2F08D11A7802F1010E83F800E0E1
:103118004FF00B0E00F802E01A7811F0040F4FF090
:103128000C0C00F802C002F1010E1CBFDFF898C1B8
:1031380002325FFA8EFE83F800E01FBF8CF8002091
:10314800564A4FF0100C02F80EC01A7802F1010E20
:103158005FFA8EFE4FF0120C11F4806F83F800E0D6
:1031680000F802C00ED094F8F8C1BCF1000F09D0E5
:10317800DFF854C102328CF80020484A4FF0130C93
:1031880002F80EC08A0541BF1A7802F1010E83F8D1
:1031980000E04FF0150E48BF00F802E0182F13D1D9
:1031A8001A784FF0160E00F802E002F1010E5FFAED
:1031B8008EFE4FF0170C00F80EC002F1030E02321B
:1031C800D2B283F800E087540A0341BF1A78571C2B
:1031D8001F70192748BF8754CF0541BF1A78511C63
:1031E80019701A2348BF8354002198222E480CF0E6
:1031F800ACFB08F0E8FB2D4B2D4A1A602D4BB4F8B8
:103208004E1119802C4900230B808B702B490A60C2
:10321800B4F8962190B22A4921F813000133122BF1
:10322800F9D1204F3B68D8045CBFB4F89C010880F2
:103238001B0740F1FF8094F89031062B00F2F480D0
:10324800DFE803F00407467590AEAE0045F2F05291
:1032580001E042F6F8221B4B1A8008F04EFCE2E02F
:10326800000400482412002035FA8E3C00000000BB
:103278001C12002044000020CC1100202011002046
:10328800D011002038120020281200203C12002003
:103298002C1200200C1200208A110020D1070020D7
:1032A8007C14002030140020AC140020C001002041
:1032B800CC160020C4010020401400202C1400204B
:1032C800D013002032020020D0070020CDCCCC3F04
:1032D80007EE902A5FED036AB94BB8EEE77ADFEDA7
:1032E800B97AE7EE267A42F6F82119800023FCEE37
:1032F800E77AB54A17EE901A42F823100133122BD9
:10330800F7D1B24AB2491160B24A4020137002F0B4
:1033180075FA002800F0888001234FF0070C90F917
:103328000000AD4A8DE808104021AC4B76E0A44B74
:1033380042F6F8221A80A54BA94A1A60A54B10221A
:1033480040201A7002F05AFA00286DD001234FF07D
:10335800000E90F90000A34A8DE8084040214FF480
:10336800E1335BE0964B42F6F8221A80974B9E4A6F
:103378001A60984B082240201A7002F03FFA002881
:1033880052D00121002390F90000984A8DE80A00E4
:1033980040214FF4E13302F04DF8C5F880013FE0D9
:1033A800874ADFF884C2DFF884E2914842F6F821C0
:1033B800118088490C22062B0A7010D000238CF843
:1033C80000308EF8003003708A4B1B2119708A4B2D
:1033D8001A708A4B05221A704FF4E1390EE0002169
:1033E80001708CF800108EF800108249DFF84092C6
:1033F8002120087080490A70804A1370734B804AF4
:103408001A60402002F0FAF970B10122002390F905
:1034180000008DE80C007B4A40214B4602F00AF878
:10342800003018BF012028B9082004F01DFE674BA2
:10343800754A1A603A68674B12F4804F1FBF08211B
:1034480019706249714818BF086042F201011140C1
:1034580002F0010002F4005E89B1594A44F6206185
:103468001180BEF1000F04D008221A70574A68492B
:10347800116020B10C221A70544A664911601A78FA
:10348800DFF8B091043A5A70B9F8003023F04003DD
:103498001B041B0CA9F80030B9F8003023F03803DE
:1034A8001B041B0CA9F80030B9F800309BB243F09C
:1034B8004003A9F800304FF0000A9F2332208DF80E
:1034C8002C308DF82DA08DF82EA08DF82FA006F0A9
:1034D80064FF8DF835A0DFF860A14FF4805B0BAA7C
:1034E8000423AAF828B04846414600F011FFCAF85C
:1034F80018B09DF836209DF83530120242EA034292
:103508009DF837301A43444B9A42444B17D008D899
:1035180043498A420CD001F51A4102318A4209D046
:103528001BE040498A4205D001318A4207D014E0A5
:10353800202200E080221A804FF4807202E04FF4CB
:1035480080721A805A809A88198812029A604A43AF
:10355800DA60012285F8842104E000221A805A806A
:103568009A60DA60DB68002B68D04FEAD32AD3462A
:103578004FF0000CD4450FDA0CEB0A094FEA690941
:103588004FEAC92041461022CDF80CC007F070FF61
:103598000F28DDF80CC006DC05F084F84FEACB23D1
:1035A800C5F888314AE0002358F82320013240F05A
:1035B80086800133042BF7D1CA46CB46DAE700BF31
:1035C800320200200000B0C4400B0020840000201C
:1035D800ED450008201C002039480008A08601009D
:1035E800D94500088D470008C14500084147000833
:1035F800900B0020920B0020CB0A0020930B002098
:10360800DD44000821460008F5A80008C9A80008FC
:10361800E5A80008D5A8000818BA20003400002042
:10362800152020001740EF00CC0A0020910B002045
:1036380090D0030000380040000400483B68594A15
:1036480013F4002318BF0123137006F07FFE564BB6
:1036580018606379052B02BF544B4FF4C8721A8067
:10366800534B4FF47A721A80524A137843F0080386
:103678001370514A137823F0020313703A6840F626
:10368800020313406BB14D4B4D4A1A604D4B032258
:103698001A704D4B01221A704C4A002313804C4A71
:1036A8001380A3683B604B4B01221A70337863F098
:1036B8007F03337027B0BDEC068BBDE8F08F09F1AE
:1036C800010CD94679E71BB208EE103AB4F95A3121
:1036D800DFED417A414A09EE103AB4F95C31B8EEAF
:1036E800C88A08EE903A28EE278AB8EEC99AF8EE0A
:1036F800E88A0021B0EE480A29EE279A68EEA78AE0
:10370800117004F089FCF0EE409AB0EE480A04F01B
:1037180023FCB0EE408AB0EE490A04F07DFCB0EE1E
:1037280040AAB0EE490A04F017FCF0EE40AAB0EE49
:10373800680A04F071FCB0EE409AB0EE680A04F032
:103748000BFC60EE296A68EE097AF0EE665AE7EE3D
:10375800AA5A234B29EE296A28EE007AC3ED035AA8
:10376800F0EE465A2AEE400AE7EE6A5AE6EEAA7AE0
:10377800A6EE6A7A29EE0A9A83ED010A28EE4A8AA9
:103788002AEE290A83ED009AC3ED02AAC3ED045A72
:1037980083ED058A83ED067AC3ED077A83ED080A7F
:1037A800FFF7A7BA4C120020040200209E11002047
:1037B800581E002020120020611E00204C0C002002
:1037C800BE16002078140020AC000020A8070020B6
:1037D800AA0700208807002035FA8E3C3200002016
:1037E800280C0020026BC168034610B5406942B13D
:1037F8001A6C8C1A013A005D08BF0A46C0B21A64F6
:1038080010BD1A6A805C01328A4228BF0022C0B209
:103818001A6210BD436B13B190F844007047836A75
:10382800406A1B1A584258417047036B13B15B68D2
:10383800016C01E0C369016A8B423CBFC2689B18F6
:10384800581AC0B27047836A8169426B1944D160C3
:10385800416A99429DBF0169CB1A5360CB1A96BF42
:103868000023536083624FF0000380F844301368EC
:1038780088BF816243F0010313607047436A82691D
:10388800D154436A02690133934228BF002343623B
:10389800436B1BB11B68DB0705D4D4E7026D1368C3
:1038A80043F080031360704710F80A3C0133DBB221
:1038B8000A2B84BF10F8131C044A00F80A3C82BF84
:1038C800002322F8113000F80A3C7047F413002056
:1038D800354A70B5136C90681944344B1B78D9403D
:1038E800081A40F68C2398429160D06051601346C4
:1038F8003BD9127893F945108A4210460BD1111F13
:10390800082908D893F84610182901D8013103E08E
:1039180083F8442002E0002183F8461093F94440DC
:103928002149A24219D191F84740B4B10C31002481
:10393800944206DA1E4D51F8046F25F814600134DC
:10394800F6E70C2805D01A49002421F81040013068
:10395800F7E7184801780131017083F84520002203
:1039680001211A7083F8471070BD92F84710C9B149
:10397800A0F2EF2440F2DA518C4208D811780B29D2
:1039880005D80B1D0131117042F8230070BD0022CB
:1039980083F84720084B03F13002002143F8041F45
:1039A8009342FAD170BD00BF3408002033080020CC
:1039B800F41300202901002040080020024A136C5B
:1039C800013319441164704734080020024B53F83E
:1039D80020301B68196070477C120020064B53F892
:1039E80020301A681B89A1F57A7159434FF47A730C
:1039F80091FBF3F1116070477C1200200B4B984249
:103A080001D10B4A03E00B4B984207D10A4A1388AD
:103A180001339BB213804FF0FF307047074A138879
:103A280001339BB21380108880B270470030014088
:103A380086090020003800409C090020A0090020C9
:103A48002DE9F0410369C76805460E461F40002F5F
:103A580035D0B7FA87F24FF00043D340DB432B61F0
:103A68001F40A2F11B03042BF1D8DFE803F0221F4B
:103A78001C190300746A24B1013C0023A4B27362C8
:103A880001E0EC6AA4B2D6F82080B8F1000FDED0CD
:103A9800D8F80030404621469847D8F80480F4E723
:103AA8003068696B07E07068A96B04E0B068E96B7F
:103AB80001E0F068296C036889B29847C7E7BDE858
:103AC800F081094B09491B681B6923F01F0010B5D9
:103AD8000122445803F01F0302FA03F31C421EBFDD
:103AE8004350034B1A7010BD800900201404014094
:103AF800A414002001480249A2E700BF00080040C2
:103B080028130020014802499AE700BF000400403A
:103B1800001300204FF08040004991E7D8120020A0
:103B2800014802498CE700BF002C0140B012002078
:103B38000148024984E700BF002C0140B012002070
:103B4800224B10B5224C5A43224BB3FBF2F20388A6
:103B58000139013AA04289B292B29BB20ED004F563
:103B68000064A0420AD0B0F1804F07D0A4F5983481
:103B7800A04203D004F58064A04202D123F0700370
:103B88009BB2154CA04206D004F58064A0421CBF2D
:103B980023F440739BB203800D4BC16298420285A7
:103BA8000FD003F5006398420BD003F540639842A9
:103BB80007D003F58063984203D003F580639842E9
:103BC80001D1002303860123436110BD40420F0049
:103BD800002C014000A24A04001000400C4B800A4F
:103BE80098420CD004D8B0F5801F0CD10120704742
:103BF800084B984205D04933984206D003E002208A
:103C0800704703207047FE2070470020704700BFB0
:103C18000100100002001000F8B5046806462046AE
:103C28000F461546FFF7DAFF03284BD8B27A9108FA
:103C380047B902238B40D4F80CE0DB439BB203EA7C
:103C48000E03E3600A23204A03FB001342F82370A3
:103C5800043342F8235015463FB1B17AE268890827
:103C680002238B409BB21343E360282202FB0052DD
:103C78002032EFF31286502383F3128803B203EB4A
:103C88008303DB0003F10C011C3329442B4451F856
:103C9800047F17B117600A6804329942F7D10023EC
:103CA8001360F3B283F31188282303FB0050036ADF
:103CB8001BB1E36843F0010303E0E2684FF6FE73CB
:103CC8001340E360F8BD00BFB0120020F8B51C4CEB
:103CD800226D236BD5699BB9A90611D5E36A1BB17F
:103CE800908C80B298470BE0E169928C60694E1C19
:103CF800D2B2E6614254E169E268914228BFE361C9
:103D0800616B0F4BA9B92A0613D59A6A586A824281
:103D18000AD0561C9F699E62186DBA5C02851A69A2
:103D2800964206D3996204E01A6D136823F0800363
:103D380013602B0742BF236D08221A62F8BD00BF2B
:103D4800F00C00200C4B0D484FF400525A600C4AFE
:103D580011684FF6FE730B401360426B11684FF603
:103D6800FE730B401360426A836A9A4200D06AE588
:103D7800012380F84430704700000240F00C002016
:103D880044000240F0B5046D8668236823F00103FF
:103D980023608379054613F0020F40790CBF4FF07A
:103DA800000E4FF4005E13F0040F14BF4FF4806749
:103DB800002710F0010F14BF042100218307206899
:103DC80020F001002060626822F440524EEA0202AC
:103DD8006260226822F4B05323F00C0348BF41F01C
:103DE80008013B430B432360A36895B023F4407359
:103DF800A360684600F0B0FE284B9C4201D10C9BA2
:103E08000EE0274B9C4201D10D9B09E0254B9C42BB
:103E180001D10E9B04E0244B9C420CBF0F9B109BCE
:103E28002268A879170448BF5B00B3FBF6F206FBCB
:103E38001233B3EB560F236828BF01321E0441BF6B
:103E48004FF6F073C2F34201134041EA03026B7963
:103E580092B213F0020FA28100F0010114BF4FF4D7
:103E680000320022DC0748BF42F480322B6D11B1CA
:103E780059680A4302E0596821EA02025A609A68BE
:103E880001074CBF42F0080222F008029A601A6843
:103E980042F001021A6015B0F0BD00BF00380140C1
:103EA8000044004000480040004C0040417169E770
:103EB800816067E73D4B1B78012B30B514BF0024A8
:103EC8000324B1B9036A23F0010303628169036A19
:103ED80021F0F30123F00A0341F0010142F001024D
:103EE8001A4341EA041181610262836923F00C03D9
:103EF8001BE004291DD1016A4FF6EF730B400362E2
:103F08008169056A120121F473414FF65F7342F02B
:103F1800100241F480712B4092B2134341EA0431FC
:103F280081610362836923F44063836183698361E8
:103F380030BD0829016A1AD14FF6FF630B400362AE
:103F4800C169036A9BB289B223F4206343F4807386
:103F580021F0F30143EA022241F0010192B241EA61
:103F68000411C1610262C2694FF6F37319E04EF69B
:103F7800FF730B400362C369056A40F6FF411940AD
:103F880045F6FF732B4043F4805343EA023241F471
:103F9800807192B241EA0431C1610262C2694FF292
:103FA800FF331340C361C369C36130BD30080020CB
:103FB80038B510F80E2C50F8043C044652B90122CA
:103FC80000F80E2C20F80C1C997A18680222BDE81B
:103FD80038406FE730F80C2C20F80A1C891A89B28F
:103FE80020F8081C074A10F80F0C002522F81010BA
:103FF80004F80E5C1868997A2A46FFF75BFF04F804
:10400800065C38BDF4130020044B53F820301BB174
:1040180007289CBF1B681960704700BF5C09002017
:10402800084A13689B050BD5074B002119700749EF
:1040380008684FF6FE7303400B604FF4007353603B
:10404800704700BF000002405B1E002030000240A5
:1040580073B506460D46002401232A88A34013425F
:104068001AD0AA78009302F003038DF80430EB7895
:10407800022B03D0032B0CBF032301238DF805303B
:104088003046C2F301136946C2F381028DF8063047
:104098008DF8072000F0CEFE0134102CDCD102B0E0
:1040A80070BD0F4B9A7813B51C46BAB90D4B1B68F7
:1040B800A3B11A681AB10C49486902434A619A883F
:1040C800ADF8042002228DF807209868002201A983
:1040D8008DF80620FFF7BCFF0123A37002B010BDC6
:1040E800A009002080090020001002402DE9F743B4
:1040F800DFF8149299F8034005468E460068114689
:10410800164698467246631C89F80330FFF718FD77
:104118002B89ADF8043001A9022368688DF80630B0
:104128008DF80730FFF794FFAB7A2A6809F1040786
:104138002401274449460C2B00F2B780DFE803F03E
:1041480007B5B5B53EB5B5B56AB5B5B59300136A4B
:10415800DFF8B8C123F001031362136AD2F804E050
:10416800906920F4803020F07300624540F07000C0
:1041780012D00CF5006C62450ED00CF5406C62450F
:104188000AD00CF5806C624506D00CF5806C62454F
:1041980002D043F0030307E023F00E032EF4407E21
:1041A80043F003034EF4807EC2F804E09061C2F845
:1041B80034801362936943F0080329E0136ADFF837
:1041C8004CC123F010031362136AD2F804E090691B
:1041D80020F0807020F4E640624540F4E04006D0CC
:1041E8000CF5006C624502D043F0300307E023F081
:1041F800E0032EF4406E43F030034EF4806EC2F8B4
:1042080004E09061C2F838801362936943F4006354
:1042180093614AE0136ADFF8F4C023F480731362F1
:10422800106AD2F804E0D369624523F0730343F0BF
:10423800700306D00CF5006C624502D040F4407063
:1042480007E020F460602EF4405E40F440704EF4C5
:10425800805EC2F804E0D361C2F83C801062D36982
:1042680043F0080320E0136ADFF8A0C023F480536A
:104278001362106AD2F804E0D369624523F4E64376
:1042880043F4E04340F4405003D00CF5006C624521
:1042980001D14EF4804EC2F804E0D361C2F84080E8
:1042A8001062D36943F40063D3612B7B1BB1536C59
:1042B80043F40043536413889BB243F00103138013
:1042C800AB7A0C2B18D8DFE803F0071717170B1772
:1042D80017170F17171713000B1902F134000AE00C
:1042E8000B1902F1380006E00B1902F13C0002E05C
:1042F8000B1902F1400058600C443846A681A260B0
:1043080003B0BDE8F08300BFA0090020002C0140E5
:1043180070B584894FF47A74F3B112B1157801320B
:1043280007E0FF2505E0013CA4B24FF6FF76B44252
:104338000CD00689B607F6D505730589ED070DD4A7
:10434800013CA4B24FF6FF75AC42F6D1FFF756FB1D
:10435800003018BF012070BD012070BD057B09B178
:104368000D700131013BD7E708B540F2E933028906
:10437800920704D4013B9BB2002BF8D109E00173EA
:1043880040F2E9330289D20706D4013B9BB2002BE5
:10439800F8D1FFF733FB00E0007BC0B208BD2DE980
:1043A800F0414FF09044094E102517468846258560
:1043B80040F080013046FFF7D7FF304641460022E3
:1043C8003B46FFF7A5FFA561BDE8F081003001403D
:1043D800F8B54FF09044074E034610250F46258543
:1043E80019463046FFF7C0FF30463946FFF7BCFF95
:1043F800A561F8BD0030014010B5214A18B913680D
:1044080002221A8210BD1F481468002303802178F5
:1044180011F07F0102460DD1637A990644BF02214B
:10442800017013F0400F037814BF43F0010323F029
:10443800010315E0012921D002291ED1637913F067
:10444800800F03F00F034FEA830303F1804303F562
:10445800B8431B6806D003F03003102B07D10123A3
:10446800137004E003F44053B3F5805FF6E7064B9E
:104478001B681B699847034810BD184610BD00BF4C
:10448800A8140020900A00208C10002010B5064CBB
:1044980018B9236801221A8210BD044B1B689B6857
:1044A800984720680C3010BDA81400208C100020FC
:1044B80010B5064C18B9236801221A8210BD044BA6
:1044C8001B681B68984720680A3010BDA814002094
:1044D8008C10002003788B4283BF034B03EB410110
:1044E80048880020704700BF900A002070B500225D
:1044F8001346244914180C44A47E83EA0423082490
:1045080013F4004F4FEA430318BF83F4815304F1B7
:10451800FF3418BF83F0010314F0FF049BB2EFD1FE
:104528000132192AE5D100F1190200F11A050A44ED
:104538000D44967EAA7E02EB062292B29A421FD1C1
:10454800104B93F83B50E2B2AA4216D2431C03EB3D
:104558004203DBB2CA1801330B44927E9B7E03EB05
:1045680002239BB24FF4AF6253431B13064A03F571
:10457800487322F814300134E5E7012381F83C3010
:1045880070BD00BF900A0020920A002003788B4279
:104598000BD9074B1A78074B89001944086C02B1EC
:1045A800400800F5777080B270470020704700BF60
:1045B800241C0020900A002007299DBF034B03EB11
:1045C8008101B1F870000020704700BF900A0020F8
:1045D800034B03EB4101B1F89000C008704700BFDE
:1045E800900A00200A4BDFED0B7A03EB810191ED75
:1045F8002C7AB8EE477AF6EE046AE7EE267A82B0AD
:10460800FCEEE77ACDED017ABDF8040002B0704700
:10461800900A002000005C4470B5334C054605F054
:1046280095FED4F8F830C4F8F800C31AB3F5FA5F69
:10463800C4F8FC3082BF002384F8003184F80131CB
:1046480094F800312BB9A12D02BF274A012182F825
:10465800011194F80111244A29B1D118EDB201339E
:104668008D7682F8003194F8005194F80231AB420B
:1046780039D11D4B93F80331052B02D0062B03D0FB
:104688002CE00020FFF732FFE37E1E2B26D100200E
:104698000246C1B26B1E994219DA21448B7E082169
:1046A800DBB283EA0206F60744BF83F01803C3F3BC
:1046B800460301F1FF3154BF5B0843F0800311F05A
:1046C800FF01C2F34702ECD101301A46E1E7234467
:1046D8009B7E9A4202D10320FFF708FF002384F84B
:1046E800013184F8003170BD900A002010B50446ED
:1046F80005F02CFE0F4BD3F80421C3F80401821AED
:1047080041F288318A42C3F8082184BF002283F825
:104718000C2193F80C21074913440F2AE4B218BF5F
:10472800013283F80D4112BF81F80C21012381F871
:104738001D3110BD900A002010B5044605F006FE94
:104748000F4BD3F82021C3F82001821A41F2883197
:104758008A42C3F8242184BF002283F8282193F8D1
:10476800282107491344142A18BF013283F8294124
:1047780012BF81F82821012381F83E3110BD00BF06
:10478800900A002038B5044605F0E0FD274A27497D
:10479800D2F84031C2F84001C31AB3F57A6F84BF2A
:1047A800002382F8443192F8443133B9A82C3BD124
:1047B80081F84531A1F8463106E0022B02D181F893
:1047C800484101E0242B02D8D11881F8494192F8D8
:1047D8004811164D01330231DBB249008B4282F891
:1047E800443118DAB5F84631E0B283EA00200823EC
:1047F80010F4004F4FEA400018BF80F4815003F1D5
:10480800FF3318BF80F0010013F0FF0380B2EFD12F
:10481800A2F8460138BD01318B4201BF002385F85B
:104828004431012385F8453138BD00BF900A002086
:1048380010B5044605F08AFD104AD2F8703140F6EA
:10484800AC51C31A8B42C4BF002382F8743192F86A
:104858007431D11881F8754123B90F2C0DD107494E
:10486800C1F870010133DBB2192B044982F87431A5
:104878000CBF0123002381F88E3110BD900A00205F
:1048880008B50020402104F03CFB094B1B68187A4E
:10489800082801BF074B4FF480521A80064B04BF0B
:1048A80010221A80A0F109035842584108BD00BFE0
:1048B800A81400208610002088100020314B2DE914
:1048C800F0411C68228A267AB2B9042E14D12E4DE2
:1048D8002E482B78012B0BD12D4B19682D4B89B203
:1048E8000B445B0019681A60302303802A7045E086
:1048F80010230380072641E0A58AA369AA4294BF32
:1049080004260226954228BF1546AFB23846984776
:104918001F4A13689BB203F1005303F540535B0031
:1049280005F1010E1B689BB203F1005303F54053D8
:104938004FEA6E0E5B000021714500F1020009D0BC
:1049480010F8018C10F802CC4CEA082C23F821C08E
:104958000131F1E712680F4B92B213445B001A68F9
:104968001D60238ADB1B2382638A1F44074B6782EF
:1049780030221A80084B4FF440521A802672BDE844
:10498800F08100BFA81400205D1E002088100020C0
:10499800505C004002300020861000202DE9F041D4
:1049A8004D880E88CB880C894A89B1F80C80B1F8FB
:1049B8000EE08F88B5F5827F1BD11E4346F48276C0
:1049C80046EA0405B0F800C045EA020444EA0802D1
:1049D80042EA0E030CF4415C4CEA03039BB20380E9
:1049E800828822F470631B041B0C3B439BB28380B8
:1049F8001CE0B0F804C02CF4706C4FEA0C4C4FEA81
:104A08001C4C4CEA07072E43BFB23343878023432D
:104A18000788134343EA080307F4415743EA0E03A0
:104A280047EA030E1FFA8EFEA0F800E0838B23F4FA
:104A380000631B041B0C83830B8A0382BDE8F0818F
:104A4800084BDA68D10709D4DA68D20608D4DB68DB
:104A580013F0040F14BF032004207047012070478F
:104A6800022070470020024002684FF6FE73134090
:104A780003600023036043608360C360284B98424F
:104A880001D1284A27E0284B984201D1254A2AE03B
:104A9800264B984201D1234A2DE0254B984201D15B
:104AA800204A30E0234B984201D11E4A33E0224B82
:104AB800984204D11B4A536843F470032EE01F4BFD
:104AC800984204D1174A536843F0706326E01C4BA0
:104AD800984204D11B4A536843F00F031EE01A4B57
:104AE800984204D1174A536843F0F00316E0174B75
:104AF800984204D1134A536843F470630EE0144B90
:104B0800984204D10F4A536843F4704306E0114BAE
:104B1800984204D10B4A536843F47023536070479A
:104B280008000240000002401C0002403000024021
:104B380044000240580002406C00024080000240DD
:104B480008040240000402401C04024030040240F1
:104B58004404024058040240994A536803F00C0385
:104B6800042B2DE9F04105D0082B06D095490160AA
:104B7800B3B916E0934B036012E053685468C3F36B
:104B88008343991CE30349BFD36A8F4B8D4C03F0D1
:104B98000F0344BF0133B4FBF3F34B43036000E05E
:104BA80000235168894FC1F303117D5C0168EDB2A0
:104BB80021FA05F444605668C6F30226BE5D24FA5D
:104BC80006FEC0F808E05668C6F3C226BE5DF6B217
:104BD800F440C460D2F82C80C8F3041808F00F0C15
:104BE80007EB4C0C18F0100FBCF810C01FFA8CFC27
:104BF80007D0BCF1000F04D0B3FBFCFCC0F810C018
:104C080000E00161D2F82CC0CCF3442C0CF00F0862
:104C180007EB48071CF0100F3F8ABFB204D01FB142
:104C2800B3FBF7F7476100E04161176BFF065ABF16
:104C3800644F87618161176BBF065ABF614FC761B7
:104C4800C161176B7F065ABF5E4F07620162176B1F
:104C5800FF0506D5994204D1AE4202D14F00476202
:104C680000E04462176BFF0406D5994204D1AE42B6
:104C780002D14F00876200E08462176BBF0506D53A
:104C8800994204D1AE4202D14F00C76200E0C4622B
:104C9800176B7F0506D5994204D1AE4202D14F0069
:104CA800476400E04464176B3F0506D5994204D178
:104CB800AE4202D14F00876400E08464176BBF04E2
:104CC80006D5994204D1AE4202D14B00C36400E03C
:104CD8008464156B3A4BAD0701D1046315E01C6B76
:104CE80004F00304012C01D101630EE01C6B04F0F5
:104CF8000304022C02D14FF4004305E01B6B03F0C0
:104D08000303032B01D12F4B0363146B2C4B14F4B7
:104D1800403F02D1C0F834E018E01C6B04F4403482
:104D2800B4F5803F01D1416310E01C6B04F44034BA
:104D3800B4F5003F02D14FF4004306E01B6B03F4C7
:104D48004033B3F5403F01D11E4B4363146B1C4BFA
:104D580014F4402F02D1C0F838E018E01C6B04F4BA
:104D68004024B4F5802F01D1816310E01C6B04F45A
:104D78004024B4F5002F02D14FF4004306E01B6B2A
:104D880003F44023B3F5402F01D10E4B8363146B1A
:104D98000B4B14F4401F02D1C0F83CE020E01C6B20
:104DA80004F44014B4F5801F01D1C16318E01C6BF2
:104DB80004F44014B4F5001F0AD14FF400430EE088
:104DC8000010024000127A0000093D000200002095
:104DD8001B6B03F44013B3F5401F01D1134BC3639E
:104DE800126B134B12F4400F03D1C0F840E0BDE83A
:104DF800F0811A6B02F44002B2F5800F02D101640F
:104E0800BDE8F0811A6B02F44002B2F5000F02D13E
:104E18004FF4004306E01B6B03F44003B3F5400F67
:104E280001D1024B0364BDE8F08100BF00127A0093
:104E380000100240F0B500230E681C460125A5406D
:104E480005EA060EAE452BD10F797A1E012A15D830
:104E5800856803229A4025EA020282604D798268B9
:104E68009D4015438560828892B222EA0E028280B4
:104E78008A798588A2402A4392B2828003220568F3
:104E88009A40D2431540056005689F402F4307604C
:104E9800C7681740CA7902FA03F547EA0502C260F3
:104EA8000134102C03F10203C8D1F0BD38B52DED43
:104EB800048B4A4C0368C4F890318388A4F8943171
:104EC800013A0D46072A42D8DFE802F0040A101812
:104ED80022292F35B4F890310B80B4F8923113E0C1
:104EE800B4F892310B80B4F8903105E0B4F8903101
:104EF8005B420B80B4F892315B4205E0B4F8923122
:104F08005B420B80B4F890316B80B4F894311DE0AB
:104F1800B4F890315B420B80B4F8923112E0B4F8E7
:104F280092310B80B4F890310CE0B4F890310B80DA
:104F3800B4F8923105E0B4F892315B420B80B4F8D2
:104F480090315B426B80B4F894315B42AB80244B68
:104F580093F83030002B3ED1B5F9003094ED690A52
:104F6800D4ED667A09EE103AB5F9023008EE103A37
:104F7800B8EEC88AB5F90430B8EEC99A28EE000A26
:104F880008EE903AA7EE890AF8EEE88AD4ED6C7A32
:104F9800A7EEA80A0AF0E8FE94ED6A0AD4ED677A4B
:104FA800288028EE000AA7EE890AD4ED6D7AA7EECC
:104FB800A80A0AF0D9FE94ED6B0AD4ED687A6880E5
:104FC80028EE000AA7EE890AD4ED6E7AA7EEA80AA1
:104FD8000AF0CAFEA880BDEC048B38BD900A0020F8
:104FE80002000020094BD3F8BC21137844F6FB716A
:104FF80003EB431300FB03135078C0EB0030B3FB03
:10500800F0F39078B3FBF0F080B27047900A00207C
:1050180010B5074C00210A2204F5E470A4F8C01169
:1050280005F01AFA80B2FFF7DDFFA4F8500210BDB0
:10503800900A0020F8B504460E461746002520467B
:1050480020210AF0B8FC0446D0B1013420460AF009
:1050580017FDB0F5617F05DB40F634039842A8BF21
:10506800184601E04FF46170A0F56170192390FBB8
:10507800F3F00DB9307000E070703B7801333B708D
:105088000DB90125DBE72046F8BD7FB50478064653
:10509800E4B9364B1B6803EB8403192193F87B00B2
:1050A80093F87C6093F8792093F87A304FF461751F
:1050B80011FB005011FB0651009001912C4821462C
:1050C800013402F0B8FE142CE3D14CE00AF0D8FC0D
:1050D8001328054641DC254B701C1C682021002341
:1050E8008DF80F300AF067FC1E35064670B10136A0
:1050F80030460AF0C5FC1A289FBF04EB8503587098
:105108009DF80F30013398BF8DF80F3030462021BD
:105118000AF051FC064670B1013630460AF0B0FC80
:105128000D289FBF04EB850398709DF80F3001335D
:1051380098BF8DF80F3004EB85043046E11C0DF163
:105148000F02FFF777FF9DF80F30042B0BD0601C80
:10515800002104220AF0F9FB05E00648064900226E
:10516800132302F068FE04B070BD00BFF80F0020E2
:10517800EC2501080126010820260108014805F050
:105188000DBE00BF26260108F0B5047887B0064694
:105198001CBB524B1968062303FB0411192091F814
:1051A800CA5091F8CB7091F8CE2091F8C9304FF4DD
:1051B800617610FB056510FB07600095019091F87A
:1051C800CC000290C8314648497903912146013400
:1051D80002F031FE0C2CDCD17DE00AF051FC0B28EA
:1051E800044672DC3D4B701C1D68202100238DF89D
:1051F80017300AF0E0FB064680B1013630460AF067
:105208003FFC03289FBF062303FB045383F8CE000B
:105218009DF817309CBF01338DF817303046202198
:105228000AF0C9FB074680B1013738460AF028FC66
:105238000D289FBF062303FB045383F8C9009DF87C
:1052480017309CBF01338DF8173006266643A9191D
:105258003846CA310DF11702FFF7ECFE20210AF09B
:10526800AAFB074670B1013738460AF009FC142832
:105278009FBF9DF817307619013386F8CC0098BF88
:105288008DF81730384620210AF095FB78B10130A7
:105298000AF0F6FB0D289FBF062303FB045383F88F
:1052A800CD009DF817309CBF01338DF817309DF85D
:1052B8001730062B0FD0062202FB04500021C930FC
:1052C8000AF043FBFFF75AFF05E0064806490022AB
:1052D8000B2302F0B0FD07B0F0BD00BFF80F0020AF
:1052E8003426010801260108202601082DE9F34784
:1052F800047807464CB9204601A906F0EDFB0134B5
:10530800FFF7F4FF122CF6D178E00AF0B9FBC5B22A
:10531800112D6DD8781C20210AF04DFB394C3A4FDD
:1053280005F1D006034614F8168030B9A8F1020238
:10533800D2F1000848EB020843E000F1010A59786D
:1053480038460AF038FB60B1032D8CBF03230023D5
:10535800C01B3B4453FA80F090F80490B9F1030F56
:1053680002D1FFF70BFF49E0A9F10203D3F10008CE
:1053780050464FF0200148EB03080AF01CFBD8B157
:10538800B8F1000FEDD001300AF07AFB40F2ED23BE
:1053980080B2984205DD40F6CA039842A8BF184675
:1053A80001E040F2EE2004EB4603A0F2EE201922C1
:1053B80090FBF2F0587002E0B8F1000FD1D104F878
:1053C800169014F81630FA5CB8F1000F0BD00D4B9C
:1053D8000E4803EB46062946737840F2EE24192559
:1053E80005FB034308E02946094802F024FD05E0CF
:1053F800084809490022112302F01DFD02B0BDE84A
:10540800F08700BF44150020480B01085426010806
:10541800662601080126010830320108044B596844
:10542800814201BF0022CA621A725A60704700BFE7
:10543800E40C00202DE9F04F984689B08D4B02927C
:1054480093F90020019182429DF848709DF84C50D4
:105458001C4601D1187A08B1002007E1002A40F063
:105468000581854BE36004F16003236204F5B073A2
:1054780063624FF48073A361E361804BE363143B81
:1054880023647F4BE3652433A3650433636503F525
:105498005743D833C4F81480996941F4804199611D
:1054A800596941F00101596102238DF81C308DF8CA
:1054B8001E20032315F001028DF81D3014BF0223AE
:1054C800012315F0080F8DF81F3007F0020907F0C7
:1054D800010B1BD04FF090464FF4007ACDF818A07E
:1054E800716A039282F0010321F0F0018DF81E30F9
:1054F8007162716A41F070017162304606A9FFF766
:1055080099FC039A52BBC6F818A027E0B9F1000F1E
:1055180010D008A94FF4007341F8083D4FF09040AF
:10552800436A23F0F0034362436A43F07003436223
:10553800FFF780FCBBF1000F10D008A94FF480637F
:1055480041F8083D4FF09040436A23F4706343628A
:10555800436A43F4E0634362FFF76CFC454E002264
:105568000E234FF0010A05A88DF814308DF8162087
:1055780003928DF815A08DF817A006F0BDF9039ACF
:10558800029B84F850A006F10C00E262A2626263FA
:105598002263A3636774C4F81480A574FEF7F2FB52
:1055A800BBF1000F29D0F06B00B3D6F85880B5696D
:1055B800376AFFF759FAF26BF06D116821F4FF4171
:1055C80021F0700141F48551ADB211605560C2F807
:1055D8000880D760116841EA0A011160816841F0CA
:1055E80040018160526892B2F26406E0F36D2022B5
:1055F8001A621A6842F020021A60B9F1000F29D025
:10560800206C1C4D08B3D5F85480EF69FFF72CFACD
:105618002B6C1A6822F4FF4222F0700242F4845282
:1056280042F010021A60BFB200225F60C3F808801F
:10563800DA60196841F0020119605A605A60EA6D2F
:10564800936843F08003936004E0EA6D136843F0C5
:1056580080031360E26D0B48136843F00103136085
:10566800002323749DF804302372606009B0BDE8FC
:10567800F08F00BFE40C0020540B010858000240D2
:1056880000380140F00C0020044BD3F8603293F945
:10569800022082420CBF981C00207047E40C0020B6
:1056A800F0B5027887B00ABB444B454A93F9F0112C
:1056B80092F9002091427FD1424C93F8F50193F87A
:1056C800F45154F82000B3F8F221009093F8F70150
:1056D80054F82000019093F8F6313B4854F82330F1
:1056E800029354F8253002F0A6FB65E000220492EC
:1056F8000592451C0AF0C4F9C4B260B2FFF7C4FFB2
:10570800074618B18DF81040012400E004462846E9
:1057180020210AF050F9054638B1013528460AF02B
:10572800AFF90134ADF81200E4B200262846202172
:105738000AF041F9B0B3451C28460AF0A1F9002245
:10574800204951F8223083425FFA82FE04D00132A8
:10575800082AF5D1002300E0734651F8232082423D
:1057680020D1022E0FD0032E12D05A1E012ED2B2F3
:1057780004D0042A13D88DF814300EE0042A0ED869
:105788008DF8153009E0052B09D88DF8173004E09D
:105798009A1E052A03D88DF816300134E4B2013672
:1057A800042EC3D1052C03D807B0BDE8F040E5E4CA
:1057B80004AB03CB3860796007B0F0BD4415002016
:1057C800E40C00206C2101087526010810B50A496F
:1057D80091F86432D1F860220C4643B99388184294
:1057E8004FF0010303D081F86432901C10BD84F897
:1057F8006432002010BD00BFE40C0020024B0022E0
:1058080083F86422E2E700BFE40C00202DE9F047AA
:10581800877890F803C0214DBBB2C7F1640E03EB43
:1058280083065C42C3F178005FFA8EFE7600CCF105
:105838006408A4B280B2A3B20FFA83F9B9F1000FD9
:1058480005DC002B14BFBA464FF0010A00E0F2460F
:1058580013FB03F303FB0CF21AFB0AF392FBF3F3BB
:10586800434403FB09F30A2293FBF2F333449BB24C
:1058780025F8023FB1F800904A880A34C9EB020AB9
:10588800A4B21AB202FB0AF24FF47A73844292FB72
:10589800F3F34B442B80CED1BDE8F087480F0020AE
:1058A80010B544780078002202FB02F3193B6343E9
:1058B80003F6C413534340F6C411434393FBF1F377
:1058C800034921F812300132072AEDD110BD00BF7B
:1058D800620F00200430114B33F91000B0F5617FDE
:1058E80010B506DB40F6330398420246A8BF1A46B5
:1058F80001E04FF461720C78192340F2833013FBF6
:105908000404944207DA497813FB01039342B4BFB5
:105918000020012010BD002010BD00BFD0130020C2
:1059280010B500F1500302788A4203D18478C27816
:10593800944204D304309842F5D1002010BD0120D0
:1059480010BD0B4B1B6813F4805F0A4BB3F906308C
:1059580005D0C089421A934207DD084400E0008A56
:105968008342B4BF0020012070470120704700BF68
:1059780030140020D01300202DE9F04F2DED0A8BB4
:10598800054690F8500087B018B13228A8BF3220D9
:1059980000E0012007EE900AB8EEE7BADFEDDB7A07
:1059A800DB48DFEDDCBA0088DFF8B8A387EE8BBAF6
:1059B800002808BF012007EE900AF8EEE79AD648BB
:1059C80069EEABBA04883BEE2BBA14F0020F8BEEEB
:1059D8008BBA844626D0BAF90000BAF9024080EAA8
:1059E800E07684EAE477A6EBE076A7EBE477B742C3
:1059F800BE46B8BFB646BEF5E17F16DAB742DFED60
:105A0800C7AA05DD002CD8BF644207EE904A04E01F
:105A18000028D8BF404207EE900AF8EEE77AC7EEB2
:105A2800AAAA04E0DFEDBEAA01E0F7EE00AA9FED06
:105A3800BCCABC4EAB460024B0EE4CAABA48BCF86F
:105A480000E030F8147038B207EE900AF8EEE77A02
:105A5800B5EE047A67EE877A3AF914009FEDB37AC7
:105A6800FDEEE77A1EF0030FF8EEE77A4FEA4408F6
:105A780067EE877A07EE100AB8EEC77A6CD077EE31
:105A8800076A5042FDEEE66A16EE909A814504DBFD
:105A9800914516EE900AA8BF1046DFF8CC929FED0C
:105AA800A45A38F90990C9EB000933F9140048449D
:105AB80006EE900A287F0AEE100A287AB8EEE66AFF
:105AC80006EE900AF8EE666AB8EE4AAA66EE266A0C
