:020000040800F2
:1000000000A0002091DD000849A30008E1CC000811
:1000100047A3000845A3000843A300080000000010
:1000200000000000000000000000000041A30008E4
:100030003FA30008000000003DA300081996000837
:10004000F9DD0008F9DD0008F9DD0008F9DD000838
:10005000F9DD0008F9DD0008F9DD0008F9DD000828
:10006000F9DD0008F9DD0008F9DD0008F9DD000818
:10007000F9DD0008ED4D0008114B0008F9DD00081E
:10008000F9DD0008F9DD0008F9DD0008F9DD0008F8
:10009000C5A30008F9DD0008F9DD0008F9DD000856
:1000A000F9DD000819A20008F9DD000829A20008FE
:1000B00009A20008F9A10008E9A10008F9DD00087B
:1000C000F9DD0008F9DD0008F9DD0008F9DD0008B8
:1000D000F9DD0008994A0008F9DD0008F9DD00089B
:1000E00029960008F9DD00082FA30008F9DD0008B3
:1000F000C9A10008F9DD0008D9A10008F9DD000850
:10010000000000000000000000000000F9DD000811
:10011000F9DD0008F9DD0008F9DD0008F9DD000867
:10012000F9DD0008F9DD0008F9DD0008F9DD000857
:10013000F9DD0008F9DD0008000000000000000003
:10014000F9DD0008F9DD0008F9DD00080000000015
:10015000000000000000000000000000000000009F
:100160000000000000000000F9DD0008F9DD0008D3
:10017000F9DD0008000000000000000000000000A1
:0801800000000000F9DD000899
:100188002DE9F04FA44C2378062B9CBFA34A3421B9
:100198002DED0E8B98BF01FB032393B094BF9F6A8C
:1001A80000279F4D9F4EEB680BA898479DF82C3071
:1001B80023B12378062B0CD900230FE009F0B8F9F6
:1001C800994B1B68FB1A1844336864339842E8D388
:1001D800EFE7924A342101FB03239B6AD6ED000A1C
:1001E800924A9FED939A934C934E9BB2F8EE600A15
:1001F80007EE903A138060EE890A904AB8EE670AD3
:1002080020460121C2ED000A07F0F6FFFCEEC07A95
:10021800894817EE903AA3816B68984740B9884D92
:10022800DFF834922B6813F0020F40F0CA80DCE349
:1002380025692DB3B71E0020824900F1180301EB90
:10024800000C0B44624605F1FF3E002132F8028F94
:1002580022F8028C1EF9019F9A4218FB0911F5D168
:1002680037F8023FACF8183095F90C201A304E28B0
:1002780013FB02134FF4807293FBF2F33B80DBD144
:100288006D48714F94F862206A4D014605F0A6FC4E
:100298003B8805F1B00A002B6BD06B6E1B7808EE1B
:1002A800103A05F168084FF0000974353988B1F53E
:1002B8007A7F02BF0023C8F800302B61D8F80020ED
:1002C80036F919301A4407EE903A2B69C8F800201D
:1002D8000133012B4FEA490BF8EEE77A2B6106D17F
:1002E8000023C5ED017AC5ED007AAB601BE0D5EDC2
:1002F800006A07EE103A37EEE66AB8EEC77A86EE7D
:10030800077A36EE877AD5ED026A85ED017A77EEBF
:10031800C77A85ED007AE6EE276AF0EE667AC5EDD3
:10032800036AC5ED026A0023012926F80B302AF872
:100338000B302AD12B69012BC3BF03F1FF3300EE29
:10034800103AD5ED037A9FED410AC4BFB8EEC00A52
:1003580087EE800A0FF050FC18EE103A5BB1F8EE09
:10036800C87AB4EEE70AF1EE10FA04DD4FF47A73B6
:100378003B8000231AE0D8F800304FF47A7203F576
:10038800FA7393FBF2F32AF80B3009F10109B9F17A
:10039800030F08F1040805F1140587D138880128EE
:1003A80001D109F073F83B88013BE1E736F81320E7
:1003B8003AF81310521A26F813200133032BF5D1FB
:1003C8002DE7234B1B78002B00F00F8309F0B0F8C2
:1003D800D4F8B830C4F8B800C31A0AEE103A0027A7
:1003E800D4F8BCB0DFF874809BF80010C1B339F9B9
:1003F8001730F8EE4A0A00EE103A164B0C2000FBB4
:100408000730B8EEC00A60EE890A07F0F5FEFDEE87
:10041800C07A17EE903A25E0320200206C000020E6
:10042800E4140020A8170020B80B002008180020AA
:10043800BD378635B8040020D2130020E813002009
:10044800F8170020CC0400207C22002000000000C7
:100458006422002078050020342200208E0B002022
:1004680039F8173028F817300137032FB8D1B8F802
:1004780000300593B8F80220BDF81430B8F804101D
:100488002F6812FB02F913FB0399A14B11FB019989
:10049800642000FB09F0B3F8009017F0080709FB87
:1004A80009F99A4690FBF9F9A9F152090DD0994832
:1004B800B0F900703FB1B0F9027027B1B0F904701B
:1004C800003718BF012707F00107B6F90030D4ED4F
:1004D800395A904809920AEE903AB6F90230B0F8C3
:1004E80000C008910BEE903AF8EEEBBAB6F904307A
:1004F80046888088CDF81CC06BEEA5BAF8EEEAAA4B
:100508000BEE103A6AEEA5AA2BEEAB0AB8EECBBA00
:10051800AAEEAA0A0690804DDFED808A2BEE25BA56
:10052800F8EE4A7AABEE0B0A27EE899A0FF064FBD5
:10053800F7EE009AB0EE40CA0698DDF81CC008999C
:10054800099A002F5BD00FFA8CFC07EE90CA33B2E1
:10055800B8EEE7DA08EE103A2DEE0D0AB8EEC88AC2
:1005680000B207EE900AA8EE080AF8EEE7CADFED37
:100578006C7AACEEAC0AB4EEE70AF1EE10FA3EDDA6
:10058800079206910FF038FB89EE800AD5ED017AC3
:1005980095ED007A28EE008A2DEE00DA68EE277ACB
:1005A8006CEE80CAE7EE0D7A95ED040A95ED027AB5
:1005B80028EE008AE7EE2C7A95ED037AA7EE0D8AED
:1005C80095ED057AA7EE2C8AB0EE68DA28EE080ACF
:1005D800F0EE68CAA7EEA70A0FF00EFBD5ED067A73
:1005E8000699079A20EE480AA7EE80DAD5ED077A31
:1005F800E7EE80CAD5ED087AE7EE808A03E0F0EEF0
:1006080068CAB0EE68DAB9F1260F3ED8BDF91430E1
:1006180007EE903A12B2B8EEE78A07EE902A28EE73
:10062800080AF8EEE7DA09B207EE901AADEEAD0A5D
:10063800B8EEE7EADFED3A7AAEEE0E0AB4EEE70A74
:10064800F1EE10FA21DD0FF0D7FA89EE800AD5ED28
:10065800076A95ED087A2EEE00EA6DEE80DA66EE0E
:10066800CE7A28EE008AEDEE877A27EE487A3DEEBC
:1006780027DAD5ED067AAEEE277A67EEED7A7CEECC
:1006880087CAE8EE267A78EEA78ADBED017AF5EEDE
:10069800C07AF1EE10FA4FF000031FDD9FED217ACA
:1006A800B4EEC7CAF1EE10FA1ED567EE8D6A94ED66
:1006B8003A7AA6EE897A67EEAC6A84ED3A7A94EDD6
:1006C8003B7AA6EE897A67EEA87A84ED3B7A94EDB8
:1006D8003C7AA7EE897A84ED3C7A05E0C4F8E830E4
:1006E800C4F8EC30C4F8F0300F4EDBED027A337802
:1006F80059071DD40D4B1A6844F61F639A42F7EE4A
:10070800005AB2EE047A98BFF0EE475A12E000BFE2
:1007180000000020B20B0020B416002000000000EA
:100728000AD7233CC2B8B23E81220020B817002065
:10073800F7EE005A67EEA55AD4ED3C6A94ED3A7A82
:10074800D4ED3B7ADFF85093C74A99ED004AC74B7E
:10075800D2ED003AC64F0692E5EEA86A0593A5EEDB
:100768008D7AE5EEAC7A3BEE26BAF6EE006A69EED3
:10077800266A7BEEA77A3AEE877A27EEA66A27EEF4
:10078800267A6BEE266A26EE445A24EE260AD3ED24
:10079800007AD7ED004A9FEDB78AA7EEC75AA3EEB5
:1007A800870AF1EE645AA5EEA65AA5EE860A66EE09
:1007B800E75A37EE800AE3EE865A67EE867A33EE1A
:1007C800855AE4EE875AE3EEA67A83ED000A20EE16
:1007D800000A74EE255AA5EE050AE4EE477AA5EE5E
:1007E800A50A74EEA77A82ED005AA7EEA70AC9ED0A
:1007F800005AC7ED007A0FF0FFF989EE800A069AD1
:10080800059BD2ED007AD7ED009A67EE807AC2EDAB
:10081800007AD3ED007A67EE807AC3ED007AD9EDDD
:10082800007A67EE807A29EE800AC9ED007A87EDB2
:10083800000A09F0F5F8D5ED080A95ED070A8E4F7C
:100848000FF0D8F920EE080A0FF030F995ED060AF6
:100858003880B1EE400A0FF06FF9DFED887A37EE95
:10086800C00A20EE080A0FF021F9D5ED000A95ED2F
:10087800030A78800FF0BEF9D4ED3D7AE0EE487AAD
:10088800B0EE670A0FF012F983B21A0458BFBB80A2
:10089800D5ED085A7A4BD4ED3E7A1A7895ED010ACF
:1008A80095ED065AF4EEE75A44BF00F56160B8804A
:1008B800F1EE10FACCBF42F0080222F008021A70DA
:1008C800B8F90030D5ED007A06EE103AB8F90230E2
:1008D80007EE103AB8EEC77AB8EEC66AB8F904302F
:1008E80027EE000A06EE903AA7EE860A9BF801303A
:1008F800F8EEE66AD5ED027AA7EEA60A012BD5ED49
:10090800077A67EE277AE5EE067AE5EEA67AD5ED60
:10091800045A27EE257AD5ED035AA5EE867A95ED89
:10092800056AA6EE267AB1EE478A18D133785D07B4
:100938000FD4D4F8FC30402293FBF2F29B1A07EE56
:10094800103AB8EEC77A37EE277ABDEEC77A84ED4B
:100958003F7AD4F8FC30402293FBF2F301E0BAF876
:100968000030D4ED408A07EE103AB8EEC77A77EE39
:10097800C77A94ED417A39EE077A77EEE87A89EE0C
:10098800079AE9EE278AC4ED408A0FF08FF8D4F869
:100998000851297807F06EFED4F80C31B0EE480AF9
:1009A8001844C4F80C010FF081F8297807F062FEAA
:1009B800D4F81031B0EE680A1844C4F810010FF0EA
:1009C80075F8697807F056FED4F814312D4A1844A2
:1009D8001AEE101A1368C4F814011944D4F818311F
:1009E80011600133C4F8183106E00023A9F800307B
:1009F800A9F80230A9F80430234BB3F90610234BA9
:100A0800D3F800E0BEF80A2091420FDBB1F5FA6F87
:100A18009EF80750BDBF8B1A6B43A2F5FA65C5F166
:100A28006405BCBF93FBF5F5643500E06425184BFD
:100A3800184AB3F894C193F95E31126805929BB2D3
:100A4800164606930022104B33F91280CCEB0803AC
:100A580003F2F31440F2E63084424FEA42091DD80B
:100A6800002BB8BF5B421BE068000020A8160020DE
:100A7800B01600204C3D0F44CC130020DB0FC93FBB
:100A8800A80C00206822002054200020881700208D
:100A98004019002030130020AC1600204FF4FA73E0
:100AA800022A059C4FF064002AD094F81D411CB11D
:100AB800A342CCBF1B1B0023B54C93FBF0F76FF090
:100AC800630B34F817A00BFB073B013734F91740C9
:100AD8000FFA8AF7E41BAF4F04FB0BF494FBF0F416
:100AE800544427F809400EEB020424796343AA4CC6
:100AF80093FBF4F364339BB26B4393FBF0F02CE06D
:100B080094F81E411CB1A342CCBF1B1B0023A34C6D
:100B180093FBF0F06FF0630A0AFB003B04EB40071D
:100B280004EB4000B7F91C71B0F91E01C01B00FBB3
:100B38000BFBBDF818009BFBFAFBC7EB0B0717FB79
:100B480000F7944887809EF80600002BB8BF5B42E8
:100B58004343914893FBF0F064307478904B6427DA
:100B6800444394FBF7F49C5403F1030AF47A444396
:100B780094FBF7F40AF802400633747D022A00FB5E
:100B880004F0844C90FBF7F09854864B0DD1E04567
:100B98009F700DDB844DB5F89621914214DBB1F5B9
:100BA800FA6FA8BF4FF4FA610FE0E0459D5404DAEC
:100BB80034F809305B4224F809300132032A06F17F
:100BC80001067FF440AFE5E71146DFF81CE2714EFD
:100BD800891A4FF47A736FF063005943C2F5FA62C9
:100BE8006423B1FBF2F191FBF3F23EF8127000FBC3
:100BF8000211013238B23EF91220121A514391FB08
:100C0800F3F33B44E380694B1B8858063CD5684B9B
:100C1800DFED687AB3F904309FED670A0A2293FB87
:100C2800F2F35E4AB2F834219B1A1BB208EE103A6E
:100C3800B8EEC88A28EE278A38EE000A07F029FDA0
:100C4800F0EE408AB0EE480A07F023FDB6F902300C
:100C580006EE903AB6F90030F8EEE66A07EE903AFA
:100C680020EE667AF8EEE77AA7EEA87A67EE807A41
:100C7800BDEEC77AE6EEA87A17EE103AFDEEE77AEF
:100C8800338017EE903A738095F89A31002B51D043
:100C9800424B9A89B3F83601B0FBF2F0474A461C3A
:100CA8001278B6B2A3F8386112B3B3F83A910023B8
:100CB8003A4F34F813C007F5A27E07F59E783EF840
:100CC800132038F813102EF813C0C2EB0C0A11FBCE
:100CD80009F132B291FBF2F2524428F813200133A1
:100CE800042BE5D1354BA7F83A0100221A7004E02D
:100CF800B3F83A21013AA3F83A21284AB2F83A015E
:100D080003B2002B4FF0000312DDB2F938612C4911
:100D180031F81320083112FB00F231F8131092FB5E
:100D2800F6F28A1A24F813200133042BEFD101E0DC
:100D3800A2F83A31234B244E1A7812F0040F03D04C
:100D4800224B08221A8560E03168C9075CBF42F06F
:100D580001021A701E4A127812075EBF1A7822F032
:100D680001021A701B4A11881B4A19B11B490968EC
:100D78008F0706D41A49098819B91A4800886428BF
:100D880034D9022111701A7822F001021A7033E066
:100D9800C2120020C41300200CFEFFFFB80400207C
:100DA800E2050020D813002040190020621300201B
:100DB800CC13002035FA8E3CDB0FC93FFC0C002019
:100DC800F405002081220020940C00200004004833
:100DD800A80C0020B80C0020E0170020F81700200D
:100DE8007C220020F4170020AA1200201B78D807C4
:100DF80056BF02231170137008F09AFBAB4B1B68A7
:100E0800C01A002801DB0AF01BF8A94B9B680BB13C
:100E1800A8489847A84B1B78ABB1A84BB3F9062054
:100E2800B5F896319A420EDCA54B5B79012B01D0BF
:100E3800192B02D195F8E6212AB90E2B03D0082BDD
:100E48001CBF0023A3809F4B1A6892F82471984610
:100E58009FB39D4B1B889B072FD09C4BDFED9C7A43
:100E680093ED080AB4EEE70AF1EE10FA21D90EF074
:100E780063FE984BD3ED547A20EE270A0EF016FE47
:100E8800B0F5617FA8BF4FF4617007EE900AB8EE25
:100E9800E70ADFED917A80EE270A07F0FAFB07EE02
:100EA800907AF8EEE77A27EE800A0EF0FFFD80B21E
:100EB80000E00020E3881844E080884B1B784BB1A1
:100EC800874B00221A605A609A60864B00221A608B
:100ED8005A609A60844BD8F80000B5F86A210093EC
:100EE800824B1F68824B196800F16403B847814B35
:100EF80078491878804B03281BD9D1F85421B2F8C7
:100F080002C0BCF5FA7F14D2B4F904E0B3F9048046
:100F1800BEF1000FB8BFCEF1000ECCF10007CEEB4A
:100F28000702904504DB0CEB0E024245A8BF42467F
:100F38009A80326817010CD5D1F85491B3F802C0E1
:100F4800B3F80080B3F904A06C4E00210A460F469E
:100F58007DE06B4A126812F48052EDD1694ED1F8E7
:100F680054C132705F88E688B3F800E0B3F90480B2
:100F78006549824201F1100180F00E819CF9003030
:100F880051ED045ADFF888915B4208FB03F307EE42
:100F9800903A0FFA8EF306EE903A33B206EE103A14
:100FA8003BB2B8EEE77A07EE903AF8EEE77AB8EE99
:100FB800C66A67EEA57A51ED065AE6EE257AF8EE8E
:100FC800E66A11ED056AE6EE867A51ED036AE7EE08
:100FD800267AFDEEE77A17EE903A29F812300132B8
:100FE800C7E799F9003096ED016A5B420AFB03F303
:100FF80007EE903A0FFA8CF306EE903A0FFA88F360
:10100800B8EEE77A07EE903AF8EEE77AF8EEE66A95
:1010180067EE867A96ED026AE6EE867A0DF12C0E78
:101028000FFA82FBD6ED036AE7EE267AFDEEE77A41
:10103800CDED057ABDF814302EF817300FFA83FE7F
:10104800DE4507DD1A460B4601371036194687423A
:10105800C7D305E00FFA81FBDE45F5DB1346F1E760
:101068002A4B284E1B685F88B3F800E0521ACEEB73
:10107800070189B20BB212B29A424FF0000349DD60
:101088004FF0010C86F800C083420BD20DF12C0CF6
:101098003CF8136016FB01F696FBF2F62CF8136089
:1010A8000133F1E71FFA8EF6BAB23CE0E4170020EC
:1010B800E41400200406002004000020542000202E
:1010C800401900203013002062130020B4160020BD
:1010D8008FC2753CB8040020EFB6B044060000206B
:1010E800F8130020C0140020C61A00203402002083
:1010F800881700205C1500203414002010060020FA
:101108005020002082220020180600202C160020E3
:10111800141500203370022192FBF1F20EEB02034A
:10112800BA1A9EB292B2E7880021814234D20BAB40
:1011380033F9113007EE903A3BB206EE903A6B4B1A
:1011480003EB0113B8EEE77AF8EEE66AD3ED007A1E
:1011580033B266EEA76A07EE903AF8EEE77AF4EE55
:10116800E76AF1EE10FA0BD413B207EE903AF8EEF4
:10117800E77AF4EEE76AF1EE10FAD8BFF0EE667A95
:1011880077EE277ADFF878E1FDEEE77A17EE903A06
:101198002EF811300131C8E7554BDFF884E11A7891
:1011A80002F0040202F0FF0312B99EF800207EE06C
:1011B800504B5149DB780693504B186810F0006388
:1011C80005931DD10B68DE0418D44D4A9EF80070B3
:1011D80013880126BE420FFA83FC07D232F9163073
:1011E8006345B8BF63469BB20136F3E7454A1268C8
:1011F8005288944504DD9A1A92B202E0059A00E0FA
:1012080000220B6840499EF800B0B1F906603F49DA
:10121800D1F818C23E4903F480590F68394903F0E0
:1012280010030793364B096803EB4B0B5B4535D02E
:10123800059850B9B9F1000F40F01684B3F800E0F2
:10124800C2EB0E0EA3F800E003E0B9F1000F40F086
:1012580016840698B1F80280B3F900A040B1B1F83D
:1012680004E0F24516DBC245D646A8BFC64611E0E3
:10127800B1F800E0F24503DBC245D646A8BFC64632
:10128800A3F800E0BCF810E0764505DA079818B135
:10129800B1F804E0A3F800E00233C7E71B4890F870
:1012A8001C32013BDBB2182B00F23D8109E093426E
:1012B800F4D2184931F81300114921F81300013309
:1012C800F5E701229A40144B1340002B00F02B81C4
:1012D800124B0D491B8813F4807F23D02388ADF867
:1012E8002C306388ADF82E30A38831E0100600203A
:1012F80081220020BC17002050200020940C0020E0
:10130800141500202C16002054200020B8040020BA
:10131800281600208C1700209920980162130020BD
:101328005C150020B54B1A88ADF82C205A88ADF80A
:101338002E20B34A9B881268ADF83030D40409D502
:10134800D0F81822B1F90640D289944202DA5B42F9
:10135800ADF83030AB4CB4F902304FF47A7203F583
:10136800E16353434FF4616093FBF0F3A3F5FA7321
:10137800ADF84430B4F9003003F5E1635A43A24BA9
:1013880092FBF0F21B88A3F2DC53ADF832309F4B8E
:10139800A2F5FA72D3F81832ADF84620DB890A882C
:1013A800D21AADF834204A88D21AADF836208A8885
:1013B800D21AADF83820CA88D21AADF83A200A896C
:1013C800D21AADF83C204A89D21AADF83E208A8953
:1013D800D21AADF84020CA89D31AADF8423000239A
:1013E8008B4A002122F813100133082BF8D1894ABF
:1013F800894B12680592894A1B78126888490692B7
:10140800884E072202FB031B594572D00B7833B173
:1014180003F1150201239340059A134065D011F892
:1014280006CC069B11F805AC11F8034C11F8018C99
:10143800CCEBCC0E03EB4E0E6420BEF90020BEF9B7
:1014480002309B1A9BB211F9022C4FEA53095A43F6
:101458004FEA4A0792FBF0F212A8C9EB020292B2D5
:10146800074414B937F81C0C0CE0B6F9000037F93A
:101478001C7CB84208DA0444844203DBA74238469D
:10148800A8BF2046308008E007DD041BBC4203DB10
:101498008442A8BF044627463780DEF80A4011F97F
:1014A800047C012000FA0AF02042308812B217FBAF
:1014B80000F014BF4FF0FF340124642790FBF7F0CD
:1014C80090420ADB4FFA88F25A4392FBF7F2C9EBD3
:1014D800020212B28242A8BF02464D4B33F81C905A
:1014E80002FB049423F81C4000E0338002360731E5
:1014F8008AE74A4B4C4FD3F8008000260E2202FBA5
:10150800068237F8023F92F90640F0B214FB03F363
:10151800642493FBF4F43C8008F068FA0136204414
:10152800082E3880EAD1364B394E1A683B4F12F0F4
:10153800200F984632D0002008F058FA3080044630
:10154800012008F053FA334B70801B68190625D523
:101558002E4B2C4AD3F840321B78012B22D1396804
:10156800138891F914E0B2F902201EFB03F34FF03F
:10157800320C93FBFCF31FFA83FE91F906305B42B1
:1015880053436FF0310193FBF1F10EEB0102A11807
:1015980093FBFCF37344318018447080D7F800E063
:1015A800002318E0D7F800E053889EF9061011FBD5
:1015B80003F1322391FBF3F12144318011889EF924
:1015C800142012FB01F292FBF3F21044E5E7013319
:1015D800082B32532AD00E2101FB03E136F9130000
:1015E800B1F90020B1F9021090424FEA4304EEDB52
:1015F8000AB28242A8BF0246E9E700BF34140020BD
:1016080050200020CC13002014150020B80400201E
:10161800940B0020940C0020301600203413002076
:1016280037160020D6060020920B0020A54CD4F8CF
:1016380054A19AF90830A3B994F81C9209F1FF3320
:10164800182B72D8DFE803F03571714F717171484A
:1016580071717171715971717171714F65717159D0
:101668003500DFF884B24FF00009974B3BF9021FB1
:10167800BAF90620882000FB093007F0E3FF3A6832
:101688000E2380B203FB0922ABF80000B2F9003048
:10169800B2F9022000B2984203DB13B28342A8BF1A
:1016A800034609F10109B9F1080FABF80030DCD1A4
:1016B800C2E79AF8043013B10020718908E0834B1F
:1016C8001B7803F0040303F0FF00002BF4D101465C
:1016D80003F07CFB012729E00020F18803F076FB6A
:1016E8000120318905E00020318903F06FFB718901
:1016F800012003F06BFB022718E00227B81E36F81A
:101708001710C0B2013703F061FB082FF6D1062786
:101718000CE00327F81E36F81710C0B2013703F0A3
:1017280055FB072FF6D1042700E00027D8F8003032
:101738009A0602D4B9F1050F0AD13846318803F068
:1017480045FB781CC0B2718803F040FB0237FFB23A
:10175800D8F80030DB0205D494F888367BB108F05D
:101768008DF80CE0DFF884910026B819C0B239F87A
:10177800021F03F02BFB0D2EEED00136F5E7544B7C
:101788001878002840F09A81D8F800301E0340F1FC
:10179800958194F88936023B052B20D84D4B93F858
:1017A800F83633B1012B0AD108F0BEFBC0F17F0037
:1017B80005E0444BD3F88C0603689B689847D4F837
:1017C800903694F894261344B3F5807FA8BF4FF45D
:1017D80080738342D4BFC4F89036C4F8900694F856
:1017E8008936023B082B00F22E81DFE813F009004E
:1017F8003F002C012C0158008100F0000E011B0154
:10180800354B1A68D4F89C3664339A4240F21B81EF
:1018180040200AF097F8002840F0158140272F4B08
:10182800D4F89826274E985C1D4670B105F070F8DC
:10183800D6F89036013BC6F89036D6F89836013F70
:1018480003F10103C6F89836E9D1D4F898261D4B60
:10185800AA5C002A40F0F780C3F898264FF0FF32C0
:10186800C3F89C26032283F88926ECE025230093FD
:101878001B4B019303F10C0202924920A3F10A02C7
:101888005021023305F0A2F9002840F0DC804FF027
:10189800FF33C4F89C36C4F898060623CCE0114AF6
:1018A80005230021009301910291532002F10803BE
:1018B80005F08CF9002840F0C680C4F89806072384
:1018C800BAE000BFB80400200007002081220020F1
:1018D8008022002040190020B8170020800301084A
:1018E800EA0301089C050108920B00205A200020F9
:1018F80040200AF027F8002840F0A580D4F8983650
:101908000C2B00F2A780DFE803F0070B0E12182358
:10191800282D3135434D51006B480DF075FE50E0D0
:101928006A486B4911E06B486B496C4A47E06C4860
:1019380095F8F61695F8F72641E095F8D0366948F7
:101948000C2202FB035595F8D2160DF05DFE38E027
:10195800654B6648B3F84011F7E7634B6448B3F842
:101968004211F2E7634B64481969EEE7634B644838
:101978001988EAE7D4F8A036D80404D55A4B614848
:1019880093F87811E1E7604B0B22C3F8982618E02A
:101998005E4895F87C1195F87D2195F87B310DF01E
:1019A80033FE0EE05A48B4F8A416CEE7D8F8003053
:1019B800190506D55748B5F88011B5F97E210DF0FF
:1019C80023FED4F898360133C4F898363BE0524BDE
:1019D8001B689A0116D5B4F8A8364B4D93B9D5F8BB
:1019E800AC360B934D4B0E201B680C930BA904F0DF
:1019F800B7FF4FF48053A5F8A636092385F8893632
:101A080005F0FCF904F010FF1DE094F8B036002B47
:101A1800F6D0414B1B689B01F2D43B4B082283F85C
:101A28008926EFE73E4B1A68D4F89C36C8339A42A9
:101A380005D909F0CDFF012384F8893603E009F0C0
:101A4800E1FF0028F5D109F0ADFFB8B3012384F810
:101A5800893633E009F0D6FF0028F4D04FF48053DC
:101A6800A4F8A6360923E7E7BCF80E80B7F806E025
:101A7800CEEB080A564502DDC644764516DBBCF8AF
:101A88000EE0B3F900807645CBBFB7F802E0B1F8B5
:101A980004E0B1F802A0B7F800A0F045FFF6FAABF1
:101AA800D045C646A8BFD646FFF7F4BB4645CCBFCF
:101AB800B7F802E0B7F800E0FFF7ECBB13B0BDECF5
:101AC8000E8BBDE8F08F00BFA8210108C2210108D4
:101AD800D7210108DF210108F3210108FF210108AE
:101AE80008220108192201084019002023220108B0
:101AF80032220108E41400204122010800000020DD
:101B0800512201085B220108B8040020682201085C
:101B1800812201088C220108940C0020B80B0020B7
:101B2800B81700202DE9F04FB24D2DED028B2C781F
:101B3800A3B0002C00F08280AF4F3B68002B01F06F
:101B4800FB84386803685B689847002801F0F484D0
:101B5800A94BAA4C18680368DB689847092801D084
:101B68003F2854D14FF0000AD4F80090A44ED04634
:101B7800B9F1000F05D0A34831684A460DF0D4FDED
:101B880020B9B246B8F1000F00D1B0469E4B1036CE
:101B98009E42EDD3B8F1000F18D0D8F800E0DAF87B
:101BA80000C023681EF803601CF80300B0420DD182
:101BB8005A1C944938B92D2B05D8904E32602026EE
:101BC800CE54885402E0CE542260EAE723680BB171
:101BD800D04511D08D4809F045FAD04507D858F8B6
:101BE800100B09F03FFA092009F034FAF5E78848A4
:101BF80009F038FA4FF0000923689945A1D2814BC2
:101C080013F8090009F026FA09F10109F4E7236835
:101C1800002B41F01684042841F07384794805F0BC
:101C28006FFC01F089BC07F079FE06F0BBFD794B2B
:101C3800794ADA604C34982C01F07E84774AA318EC
:101C480093F84A100129F5D1754FA2583B60754B9E
:101C5800B9461A609846D8F80000DFF8C8B103689A
:101C68005B689847002800F03487DBF800000368B9
:101C7800DB689847D9F8003093F8482006461AB927
:101C880024283AD1012205E0012A06D14D2814BFA3
:101C98000022022283F8482057E0022A04D13C2877
:101CA80014BF00220322F5E7032A0AD140284FF087
:101CB80000029FBF1A71DA715871987198BF042297
:101CC800E8E7042A06D19A7983F8490056409E71BC
:101CD8000522DFE7052A38D159791A79914299798D
:101CE80006D941409971511C1971134418722CE09E
:101CF80081420CBF06220022CCE7DFF844A19AF803
:101D080000305B0721D42328DBF8003011D10122F1
:101D18002A70394A44481360444A136009F0A2F90A
:101D28003B4809F09FF99AF8003043F002038AF81B
:101D380000303F4B1B681B78B34201BF3D4B3E4A06
:101D48001A60344B04BF344ADA60D9F8002092F89C
:101D5800480006287FF47FAF92F84930492B00F0FD
:101D6800F88300F20181322B00F0498600F290805E
:101D7800222B00F0088523D8032B00F0C38114D848
:101D8800012B00F0B381022B40F0CC86042009F02F
:101D9800CDF8422009F099F8542009F096F8462029
:101DA80009F093F84C2000F0BABE042B00F0B6817D
:101DB800052B40F0B7861A2009F0B8F80026BFE1D5
:101DC800282B00F0DD853DD8242B00F0C085262B7C
:101DD80040F0A886194E062009F0A8F8B6F8580170
:101DE80009F0A7F8B6F85A0109F0A3F8B6F85C01AB
:101DF80000F01ABE80220020F01700202C130020CB
:101E0800D4070108FC1200208409010850230108A6
:101E18005523010800ED00E00400FA05A818002089
:101E2800E8170020EC170020852301086C0B002020
:101E3800A4120020FC9F0020EFBEADDE4019002058
:101E4800812200202A2B00F0AE852C2B40F06A86D8
:101E5800D04E0C2009F06AF896F88E0109F035F892
:101E6800B6F8980109F065F8B6F8940109F061F838
:101E7800B6F8960109F05DF896F88F0109F025F893
:101E8800B6F89C0109F055F8B6F89E0100F0CCBDF3
:101E98003D2B00F0538319D8382B00F05E8507D806
:101EA800342B00F09284362B00F0C18500F03ABE46
:101EB8003A2B00F0EC823B2B40F03486012009F0ED
:101EC80035F8B54B1B68187800F029BE452B00F093
:101ED800D78527D8402B00F09985422B40F02286E1
:101EE800AC4E102009F022F8707908F0EEFFB068C7
:101EF80009F028F896F88E0108F0E7FFB6F85801BF
:101F080009F017F8B6F85A0109F013F8B6F85C01A9
:101F180009F00FF8B6F87E0109F00BF8B6F8800161
:101F280000F082BD462B00F09285472B40F0FA85E1
:101F380008F0C2FF0746842008F0F8FF384609F089
:101F480001F8964BDE6807F18003B3428CBFF61B9D
:101F5800802604F087FC3846324602A908F006F9C4
:101F68000026074600F084BD6F2B00F0F88246D8A3
:101F7800672B00F0EE8127D8642B00F0FA8011D887
:101F88004B2B00F016854D2B40F0CC85844E854FA9
:101F9800307800EB4000C0B208F0C8FF4FF00008EE
:101FA80000F016BD652B00F00981662B40F0BA855C
:101FB800122008F0BBFF7C4B1B88B3F5806F8CBFE9
:101FC800082701270026B0E16C2B00F04A820ED8C2
:101FD800682B00F02F82692B40F0A485704F387869
:101FE800400000F0FE0008F0A1FF00262EE26D2B55
:101FF80000F046826E2B00F04E8200F093BD772BE6
:1020080000F05C844CD8732B00F07A843DD8702B98
:1020180000F0D282722B40F085855E4E162008F0C3
:1020280085FFB6F8940108F084FFB6F8400108F07F
:1020380080FFB6F8420108F07CFFB6F8440108F0CA
:1020480078FFB6F8D80108F074FF002008F03DFFCB
:10205800002008F03AFF002008F037FF96F88301C7
:1020680008F033FF96F8900108F02FFF002008F0E1
:102078002CFF494B1B680A20B3F9623093FBF0F040
:1020880080B208F056FF00F06CBC742B00F0C283DD
:10209800752B40F047852F2008F048FF434E6AE330
:1020A800A02B00F046840AD8782B00F05E817B2BA9
:1020B80040F038853C2008F039FF002605E3F12B75
:1020C80000F09281FE2B00F02684F02B40F02A8548
:1020D800314E042008F02AFF3368B3F8660008F090
:1020E80028FF3368B3F8640000F09EBC032008F0B2
:1020F8001DFF002008F0E9FE012008F0E6FE0D2093
:1021080000F00DBD184608F011FF022008F0DDFEB2
:10211800022008F0DAFE002000F001BD062008F0D9
:1021280005FF432008F0D1FE432008F0CEFE3320FF
:1021380008F0CBFE442008F0C8FE012000F074BC73
:102148001B4B985D013608F0C0FE0B2EF8D1002617
:10215800184B985D013608F0B8FE082EF8D1002615
:10216800154B985D013608F0B0FE072EF8D100F047
:10217800A7BC072008F0DAFEE72008F0A6FE054B0A
:10218800587908F0A2FE002008F09FFE042000F015
:1021980086BC00BF40190020301300203C000020FE
:1021A80048200020E01A002000000020C305010894
:1021B800F3210108FF210108D72101080B2008F0AD
:1021C800B5FECB4B188808F0B4FE002008F0B1FE2D
:1021D800C84B1B68C3F3C000C3F38002800040EA09
:1021E8004200C3F340021043C3F3401240EAC20066
:1021F80003F01003184308F09CFEBF4B1A88BF4B2E
:102208001B6812F0010F02F0080103F4475B14BFCA
:102218004FF002094FF000094BEA010B12F0020FD0
:1022280003F4804114BF4FF004084FF000084BEA54
:10223800010B12F0040F03F4004114BF4FF0100C0F
:102248004FF0000C4BEA010B12F0400F03F4803101
:1022580014BF4FF0200E4FF0000E4BEA010B12F0A6
:10226800100F03F4003103F4802A14BF4FF40077F1
:1022780000274BEA010B12F0200F4BEA0A0B14BFA0
:102288004FF48066002603F4002112F4807F4BEAA5
:10229800010114BF4FF40060002003F4801B12F406
:1022A800007F41EA0B0B14BF4FF40011002101918C
:1022B800934903F0007A097803F000634BEA0A0AAD
:1022C8004AEA030AC1F380014AEA010A4AEA09090B
:1022D80049EA080848EA0C0C4CEA0E0E4EEA0707D1
:1022E8003E43019B12F4806F40EA060040EA030077
:1022F80018BF4FF08062834B08BF002202430020C2
:102308001E790346B3420AD27F495F5C012101FA74
:1023180007F717421CBF994008430133F2E708F05A
:1023280011FE7A4B93F8D006F9E3794B33F916008E
:1023380090FBF7F0013680B208F0FBFD032EF4D1D4
:10234800744E308808F0F5FD708808F0F2FDB0880A
:10235800E5E2102008F0EAFD00266F4B985D013693
:1023680008F0B3FD102EF8D1AAE3702008F0DEFDC6
:102378004FF00008694F0E263B6806FB08F6334409
:1023880008F10108B3F8250108F0D3FD3B68334490
:10239800B3F8270108F0CDFD3B683344B3F82901B1
:1023A80008F0C7FD3B68334493F82B0108F08DFD16
:1023B8003B68334493F82C0108F087FD3B683344AD
:1023C80093F82D0108F081FD3B68334493F82E0102
:1023D80008F07BFD3B681E44D6F82F0108F0B2FDDB
:1023E800B8F1080FC6D16BE37020484E08F09EFD87
:1023F80006F1700796F8D00008F067FD96F8D1004E
:1024080008F063FD96F8D20008F05FFD96F8D30057
:1024180008F05BFD96F8D40008F057FD96F8D50053
:1024280008F053FD073696F8CF0008F04EFDBE427F
:10243800E0D145E3102008F079FD0026384B985D7F
:10244800013608F042FD102EF8D139E33B789E4260
:1024580080F03683334B33F8160008F06AFD0136F6
:10246800F4E7314E08F062FD308808F062FD7088AC
:1024780008F05FFDB6F904300A2093FBF0F032E073
:10248800062008F053FD002008F05CFD4FE2042010
:1024980008F04CFD02E3072008F048FD234B18889C
:1024A800FF28A8BFFF20C0B208F00FFD204B186816
:1024B8004FF6FF76B042A8BF304620EAE07080B2FF
:1024C80008F037FD1B4B188808F033FD0F4B93F8C5
:1024D8008321194B186842B10A235843B042A8BF58
:1024E800304620EAE07080B29EE200F30F00FAE77F
:1024F80008180020F817002062130020940C002010
:10250800812200206C0B0020710B00204019002054
:102518008E0B0020D2130020940B002030130020D3
:102528001415002054200020CC1300204010002057
:10253800A0200020980C002094200020C94E0220E2
:1025480008F0F4FC96F8E00108F0BFFC96F8DF010B
:10255800E5E2022008F0EAFCC34B188864E2C34EA7
:102568000B2008F0E3FC3368187808F0AEFC3368F9
:10257800587808F0AAFC4FF0000837463B68BB4E75
:10258800434408F10108187908F09FFCB8F1030FDB
:10259800F4D13368D87908F098FC3368987808F053
:1025A80094FC3368D87808F090FC3368588908F0B0
:1025B800C0FC3368187AB2E2AD4E1E2008F0B6FCB3
:1025C80033681B78022B4FF000076BD1336803EB9D
:1025D800870393ED080AB2EE048A20EE080A0DF08C
:1025E80065FA80F30800C0B208F06FFC3368DFEDCD
:1025F800A17A03EB870393ED0B0A20EE270A0DF06F
:1026080055FA80F30800C0B208F05FFC3368DFEDCC
:102618009A7A03EB870393ED0E0A20EE270A0DF052
:1026280045FA80F30800C0B2013708F04EFC032FCA
:10263800CCD1072F336823D193ED110A20EE080A75
:102648000DF034FA80F30800C0B208F03EFC33689D
:1026580093ED120A20EE080A0DF028FA80F308001C
:10266800C0B208F032FC336893F84C3000EE103AF0
:10267800B8EE400A0DF01AFA80F30800C0B20BE079
:102688003B44587808F021FC33683B44D87A08F07A
:102698001CFC33683B44587D013708F016FC0A2FB0
:1026A800C7D10DE233683B44587808F00EFC336814
:1026B8003B44D87A08F009FC33683B440137587D1D
:1026C80008F003FC0A2FEDD1FAE1694F9FED6A8A01
:1026D8003B6803EB860393ED080A20EE080A0DF029
:1026E800E5F980B208F025FC3B6803EB860393ED1F
:1026F8000B0A20EE080A0DF0D9F980B208F019FC8F
:102708003B6803EB860393ED0E0A20EE080A0DF0F2
:10271800CDF9013680B208F00CFC032ED5D1072E76
:102728003B6816D193ED110A20EE080A0DF0BEF9A8
:1027380080B208F0FEFB3B6893ED120A20EE080A0F
:102748000DF0B4F980B208F0F4FB3B6893F84C0044
:102758000BE03344587808F0ECFB3B683344D87AF4
:1027680008F0E7FB3B683344587D013608F0E1FB8D
:102778000A2ED4D1A4E116F8010F002800F0A08198
:1027880008F0A3FBF7E7502008F0D0FB0027384BF0
:102798001E683A4B06EB87060C2196F8852001FB4C
:1027A8000233013793F8380008F08FFB96F886005B
:1027B80008F08BFB96F8870008F087FB96F88800EE
:1027C80008F083FB142FE2D17AE1482008F0AEFB31
:1027D8000027274B1E68062303FB0766013796F878
:1027E800DA0008F072FB96F8D50008F06EFB96F850
:1027F800D60008F06AFB96F8D70008F066FB96F852
:10280800D80008F062FB96F8D90008F05EFB0C2FA0
:10281800DFD155E100264FF001094FF0000A184BAF
:102828001A79924540DA05334FF0000B1AF8031075
:10283800124A0C2302F1300003FB0BF39046185C9C
:10284800884209D11344586B0CF065FF0246B9F170
:10285800000F17D14F4617E00BF1010BBBF11D0F0D
:10286800E6D11EE040190020A81700208817002094
:10287800301300200000C84200007A44C405010853
:102888006C0B002006440CE097420ADA0C2303FB89
:102898000B8301925B6BD85D08F017FB0137019A37
:1028A800F2E70AF1010ABAE7B9F1000F00F008816E
:1028B800F0B208F03BFB4FF00009AEE7C94F38799A
:1028C80008F034FB00263B799E4280F0F980C64B25
:1028D80016F803E00021C5480C2200F1300C02FB79
:1028E80001F313F80C20724505D1034493F838001E
:1028F80008F0EBFA02E001311D29ECD10136E2E7DC
:10290800082008F013FB0126F0B2013608F0DDFAC2
:10291800092EF9D1D4E0082008F008FB002008F0BF
:1029280008FB002008F005FB002008F002FB00204F
:102938007AE00C2008F0FAFAAD4B186808F002FBB0
:10294800AC4B186808F0FEFAAB4B1868A7E00420F7
:1029580008F0ECFAA94B9868A1E0042008F0E6FA20
:10296800A64E96F8780108F0B0FA96F87C0108F0BF
:10297800ACFA96F87B0108F0A8FA96F87D01CEE04B
:102988009E4E072008F0D2FAB6F87E0108F0D1FA78
:10299800B6F8800108F0CDFA96F8820108F095FAA9
:1029A800B6F8840140E0012008F0C0FA934B58794A
:1029B800B5E0924E042008F0B9FA96F8D60108F06E
:1029C80084FA96F8D70108F080FAB6F8D8012BE017
:1029D8003378984507F1020772D217F8020C08F00D
:1029E80074FA17F8010C00EB800000EB800000F28D
:1029F800EE2080B208F09DFA08F10108E8E701200E
:102A080008F094FA7D4B93F8900188E0082008F0CC
:102A18008DFA0026794B3344013693F8860108F085
:102A280054FA082EF6D14BE008F083FA48E06D4BD3
:102A3800724E93F83800C0EBC000C0B208F076FAC6
:102A48006F4B187896F8F031984239D153E06D4EB3
:102A58000D2008F06BFA07F077FA08F036FA30889C
:102A680008F070FAF06808F06DFA04F0EFFB16E071
:102A7800BE4225DA02AB985D08F027FA0136F7E77F
:102A8800132008F053FA00265F4B985D013608F0D2
:102A98001CFA0B2EF8D1002008F054FA002008F098
:102AA80051FA0DE0D42B00F0B383D22B40F0C5844B
:102AB800564B1B785F0740F1F083002008F036FA88
:102AC800534E3368987908F000FA3368002283F887
:102AD8004820444B93F83C30002B3FF4ABA84D4BB7
:102AE800E658304606F0A8FD00287FF49CA80A2086
:102AF80006F045FDF5E708F0E8F9B6F8F20108F048
:102B080018FA96F8F40108F0E0F996F8F50108F0DB
:102B1800DCF996F8F70108F0D8F996F8F60108F00C
:102B2800D4F9CDE74A2BC8D000F29B81352B27D1A9
:102B380008F0ACF90B28074602D909F069FBBCE795
:102B4800354B1E6808F0A2F90328F6D8062303FBC4
:102B5800076686F8DA0008F099F986F8D50008F0D3
:102B680095F986F8D60008F091F986F8D70008F0AC
:102B78008DF986F8D80008F089F986F8D9009CE71D
:102B880000F2C380292B11D108F08CF91B4EA6F84E
:102B98007E0108F087F9A6F8800108F077F986F831
:102BA800820108F07FF9A6F8840186E778D8252BFA
:102BB80008D1124E0023B36008F07EF9B3681843B9
:102BC800B0607AE7272B29D108F06CF90B4EA6F8EC
:102BD800580108F067F9A6F85A0108F063F9A6F851
:102BE8005C016AE76C0B0020710B0020C40501082A
:102BF800ACF7FF1FB0F7FF1FB4F7FF1F4019002005
:102C0800441000203C000020F3210108812200200C
:102C1800E8170020A818002030130020232B40F0CC
:102C28000C8408F033F91328074686D8DFF8848324
:102C3800D8F8006008F02AF900210C22DFF894E3A4
:102C480002FB01F30EEB030292F83820824223D1F3
:102C580073443FB206EB870693F8303086F8853028
:102C680008F014F986F8860008F010F986F887004D
:102C780008F00CF9CA4BCB4A1A6086F88800CA4B90
:102C8800D8F8000018600021853003F005FDC74B17
:102C980080F00100187010E701311D29CDD14CE7F3
:102CA8002D2B22D108F0F2F8C14E86F88E0108F0DB
:102CB800F9F8A6F8980108F0F5F8A6F8940108F0D4
:102CC800F1F8A6F8960108F0E1F83B6886F88F015C
:102CD8005B79082B7FF6F1AE08F0E4F8A6F89C01C2
:102CE80008F0E0F8A6F89E01E7E6332B05D108F0D6
:102CF800CDF8AF4B83F89001DFE62B2B40F09D8396
:102D080008F0C4F8AA4B5871D7E63E2B09D108F051
:102D1800BDF8A74E86F8E00108F0B8F886F8DF019C
:102D2800CBE65CD8392B11D108F0B0F8A04E86F864
:102D3800780108F0ABF886F87C0108F0A7F886F867
:102D48007B0108F0A3F886F87D01B6E63C2B13D189
:102D5800984E376808F09AF818B10228A8BF0220E0
:102D680000E00120387033681B78022B924B14BFA7
:102D7800924A934A1A60A0E6372B40F05E83537953
:102D88000726B3FBF6F2C2EBC2029A1A12F0FF0F43
:102D98007FF4D3AEB3FBF6F6013EF6B2FF2E3FF456
:102DA8008CAE08F073F85FFA80F84FFA88F003F0F9
:102DB80013FB074600283FF4C0AE80F8008008F0F7
:102DC80071F8788008F062F8387108F05FF8787167
:102DD80008F05CF8F87108F059F8B871DCE7432B93
:102DE80023D108F053F8724E0023B360707108F0D5
:102DF80063F8B3681843B06008F048F886F88E01A5
:102E080008F050F8A6F8580108F04CF8A6F85A014E
:102E180008F048F8A6F85C0108F044F8A6F87E0126
:102E280008F040F8A6F8800147E60DD8412B40F09D
:102E38000483002608F02AF85D4B33440136082E37
:102E480083F88601F6D138E6442B04D15D4B012284
:102E580083F83C2031E6482B40F0EF8207F05AF91E
:102E68002BE6D02B0BD1584B1B7858073FF525AED6
:102E780008F01EFB05F0C0FC05F07CFD1DE600F225
:102E8800B281CA2B40F0A8804A4E33681B78022BC7
:102E98004FF000076AD1D6F8008007F0F7FF07EE79
:102EA800900AF8EE677AB2EE048AC7EE887A08EBE1
:102EB8008708C8ED087AD6F8008007F0E7FF07EE24
:102EC800900A9FED427AF8EE677A08EB8708C7EE1A
:102ED800877AC8ED0B7AD6F8008007F0D7FF07EE9F
:102EE800900A9FED3B7AF8EE677A08EB8708C7EE01
:102EF800877A0137032FC8ED0E7ACCD1072FD6F881
:102F080000801CD107F0C2FF07EE900AF8EE677A3E
:102F1800C7EE887AC8ED117AD6F8008007F0B6FFB8
:102F280007EE900AF8EE677AC7EE887AC8ED127A4B
:102F3800D6F8008007F0AAFF88F84C0012E007F0E6
:102F4800A5FFB84488F80100D6F8008007F09EFF76
:102F5800B84488F80B00D6F8008007F097FFB8440B
:102F680088F8150001370A2FC8D1A6E5D6F80080E1
:102F780007F08CFFB84488F80100D6F8008007F005
:102F880085FFB84488F80B00D6F8008007F07EFF6C
:102F9800B84401370A2F88F81500E7D18DE500BF3E
:102FA800F40C0020801A0020F80C002004000020F7
:102FB800401900203013002034020020C98C00087A
:102FC800C98F00086C0B0020812200200000C84235
:102FD80000007A44C405010865D84E2B29D15379DD
:102FE8000326B3FBF6F6122E3FF6A7ADB84F4FF007
:102FF8000008B045BFF461AD07F048FF87F8A001AD
:1030080007F050FF40F2ED23984205DD40F6CA0371
:103018009842A8BF184601E040F2EE20A0F2EE2048
:10302800192308F1010890FBF3F0023787F89F0194
:10303800DFE7C82B26D156797608122E3FF67DADEC
:103048000027B74206D207F02DFF02AB23F817007E
:103058000137F6E732460023B34207DA02A931F80E
:1030680013009C4921F813000133F5E7122A05D013
:10307800984B002123F812100132F7E7964B0122F2
:103088001A701AE54C2B40F0D88107F0FFFE904EDD
:1030980086F8D60107F0FAFE86F8D70107F002FF96
:1030A800A6F8D80109E5CD2B09D18C4B1B78590717
:1030B8003FF503AD8A4B4FF4C8721A80FDE44BD834
:1030C800CC2B40F0BA815379092B7FF636AD854E6B
:1030D800D6F8008007F0DAFE88F80000D6F80080FD
:1030E80007F0D4FE88F8010007F0D0FE33686428A2
:1030F800A8BF6420187107F0C9FE33686428A8BF08
:103108006420587107F0C2FE3368FF28A8BFFF206B
:10311800987107F0BBFED6F80080642828BF6420A9
:1031280088F8070007F0B2FE88F80200D6F8008099
:1031380007F0ACFE88F80300D6F8008007F0B2FE6E
:103148003B68A8F80A005B790A2B7FF6B6AC3668AC
:1031580007F09CFE3072B0E4CE2B0AD15F4B1B788F
:103168005A073FF5AAAC604A137843F0040313707A
:10317800A3E4CF2B40F0618107F094FE6FF4AF66B3
:1031880083199BB2524EC62B98BFA6F8940107F03C
:1031980089FEA6F8400107F085FEA6F8420107F06F
:1031A80081FEA6F8440107F07DFEA6F8D80107F0D5
:1031B8006DFE07F06BFE07F069FE07F067FE86F804
:1031C800830107F063FE86F8900107F05FFE474B26
:1031D8001F6807F067FE00EB80004000A7F8620058
:1031E80007F054FEA3E5D62B09D1002607F05AFEB6
:1031F8003F4B23F816000136082EF7D15DE458D866
:10320800D32B7FF44FAC07F04DFE3A4B588754E46C
:1032180053790F2B7FF491AC07F038FE0728064648
:103228003FF68BAC314FD7F8008007F03BFE0E23FA
:103238005E43B044A8F82501D7F8008007F032FEB5
:10324800B044A8F82701D7F8008007F02BFEB04457
:10325800A8F82901D7F8008007F018FEB04488F8CC
:103268002B01D7F8008007F011FEB04488F82C0134
:10327800D7F8008007F00AFEB04488F82D01D7F887
:10328800008007F003FEB0443F6888F82E0107F07D
:1032980013FE3E44C6F82F010FE407F0F7FD0C4B70
:1032A800022883F8D0067FF6E5AD002283F8D02601
:1032B800E0E5EF2B20D10D4E376807F0F3FDA7F8B6
:1032C8006600366807F0EEFDA6F86400FFF7F5BB68
:1032D80040190020481700207D200020812200206E
:1032E800B80C002088170020A80C002030130020FC
:1032F8008C1700206C0B00206CD8D82B40F09D80D8
:103308000026904F9FED908AD7F8008007F0CAFDFD
:1033180007EE900AF8EE677A08EB8608C7EE887A17
:10332800C8ED087AD7F8008007F0BCFD07EE900AD0
:10333800F8EE677A08EB8608C7EE887AC8ED0B7A4C
:10334800D7F8008007F0AEFD07EE900AF8EE677A2E
:1033580008EB8608C7EE887A0136032EC8ED0E7A88
:10336800CFD1072ED7F800801CD107F09BFD07EEC0
:10337800900AF8EE677AC7EE887AC8ED117AD7F81E
:10338800008007F08FFD07EE900AF8EE677AC7EE27
:10339800887AC8ED127AD7F8008007F083FD88F89C
:1033A8004C0012E007F07EFDB04488F80100D7F821
:1033B800008007F077FDB04488F80B00D7F800804C
:1033C80007F070FDB04488F8150001360A2EC8D100
:1033D800FFF773BBF22B29D107F058FD0F280646DB
:1033E8003FF6ABAB07F052FD584BC6EBC6061E4482
:1033F80086F8D00007F04AFD86F8D10007F046FDB0
:1034080086F8D20007F042FD86F8D30007F03EFDAB
:1034180086F8D40007F03AFD86F8D50007F036FDA7
:1034280086F8D60006F0BAFAFFF747BBFA2B04D1A4
:10343800474B1B785B077FF51DAD08F0E9FEFFF7EA
:103448003FBB0C2803D1434807F00CFE4BE00A2889
:1034580001D00D2849D1404E404807F003FE3046C0
:1034680023210CF04AF908B1801B2060236893B32C
:103478005A1EB15C202901D11346F8E7364A236069
:103488000021D154364B374ED3F800A0D6F800B0FF
:10349800DFF8C49058460CF03EF98046424648464C
:1034A80059460CF041F9304A28B919F80830534404
:1034B8005B78590703D010369642E7D307E0964267
:1034C80005D208F10100F3684844984702E027480C
:1034D80007F0C8FD002320482360002130220CF0AB
:1034E800D6F82B7843B3224807E07F280FD1013B59
:1034F800194A204823600021D15407F0B3FDFEF794
:1035080020BB0C289FD07F2804D1FEF71ABB2F2B95
:103518003EF617ABA0F12002D2B25E2A3EF611ABFE
:1035280013B920283EF40DAB5A1C22600A4AD05425
:1035380007F090FDFEF705BB23B0BDEC028BBDE89C
:10354800F08F00BF3013002000007A44401900209B
:10355800812200205A230108FC1200206A2F01084A
:1035680040020020D40701088409010865230108E6
:1035780055230108812301082DE9F04F864C226864
:1035880002F59C432DED028B20336360834B1E783C
:1035980087B0C6B1824909688A4240F22081013E5B
:1035A8001E701CE17F4F80483B68072D98BF595D0E
:1035B8007E4B88BF29461B689847032D09D904EB21
:1035C80045050136288107F0DBFBF5B28542E9D3D2
:1035D8001FE03A6805F10E0302EB8303D9881A89C4
:1035E8000028ECD04FF47A73401A5843531A90FBD2
:1035F800F3F040F6C90300F57A70984205DC40F212
:10360800EE239842B8BF184601E040F6CA0080B2DF
:10361800D5E7674B674F1B68D7F8008042F201096E
:1036280003EA0909B9FA89F94FEA5919B9F1000FFA
:1036380006D194F82D3084F82C305F4B5A781A70E4
:1036480094F82C601EB15C4B1E7886F001060F239F
:10365800DFF878A184F82E30002507F091FB854229
:1036680064DA4FEA450B1EB1544B33F8150000E0FD
:1036780030464C4BDFF858E11968CB8A83424FEA51
:1036880085024F4B02D8098B814219D25EF802207D
:103698004149904502D233F80B0015E0E8B28DE8B5
:1036A8000A0007F081FB032D019B0DDC0099012224
:1036B80091F82EE0AA402EEA020281F82E2003E0BB
:1036C80008F596714EF80210B9F1000F28D194F858
:1036D800C0100322B1FBF2F202EB42028A1A0BEB92
:1036E800050E5EFA82F204EB4202108694F8C120BD
:1036F8002AB9022914D9284A012182F8C110BAF836
:1037080000203AF8020C1044BAF8022010442D4A5E
:1037180080B222F80B0000B2032290FBF2F080B2D4
:1037280023F80B0001350AF1060A96E794F82E20D3
:10373800254BA2F10F067242724184F8DA2072B169
:10374800154AD2F8DC20550109D43A68D9689A603C
:10375800521AC82A3ED9012283F821203AE0164A93
:103768000121517011703A689968DA605B68521AE1
:103778009A4282BF144B002283F82120002507F0CB
:10378800FFFA854226DAE8B207F00EFB0C4B23F865
:1037980015000135F3E700BFB80B0020B41700206F
:1037A800B0170020AC170020482000201402002089
:1037B80050200020B817002002000020C00B002075
:1037C800542000207A0C0020BC170020EA0B0020AF
:1037D800300C002094F8C030013384F8C030AD4F6D
:1037E8003B68D80405D5D4F8DC30D90701D409F0F2
:1037F8003DFAA94B1A68937A2BB3013BA749127B70
:1038080031F813301AB1C3F53B6308339BB21BB2CE
:10381800A3F57A73B3F57A7FA8BF4FF47A7323EAD6
:10382800E37307EE903A9FED9E7AF8EEE77AC7EEDB
:10383800877A9FED9C7A67EE877AFCEEE77A17EE37
:10384800903AA4F8E0303B68974E13F4807F00F07C
:10385800E9802268954B964D9A4203D9AB780BB90B
:103868000123AB70AB78002B00F0DC80904B96F80E
:10387800009093F82180D4F8DC3008F1FF32D2F1BF
:10388800000848EB0208B8F1000FC9F38009C3F338
:10389800806A14BF4FF0000B4FF0030B95F82030EF
:1038A800052B00F2B980DFE803F0034D537986A2B7
:1038B800B9F1000F39D0D4F8E400B4F8E81002F0F8
:1038C800FCFE012808D17B4A7B4B12681B68D28812
:1038D800642101FB02332B61BAF1000F0CD0754B48
:1038E8001B681B7943B106F0FBF8032385F82030E9
:1038F8004FF47A73EB61D1E7B8F1000F40F08C8098
:103908006D4B2A6919686A4B91420AD9009306F0EF
:10391800E7F8009B032283F8202040F6B832DA61EA
:10392800BCE7012283F82020B8E74FF48060BAF1A1
:10393800000F02D004F01EFF01E004F00BFF00238B
:103948002B6169E0B8F1000F48D106F0C9F8A5E786
:10395800B8F1000F04D0052385F82030012100E0DC
:103968004146B9F1000F0CD0D4F8E430DA894B4B5A
:103978001A805A809A804F4A12685288DA804FF02B
:10398800020B4D4B1A686B699A4202D8B9F1000FC5
:103998003FD147F23053EB61032320E0337843F003
:1039A8000203337009F062F9434BEA691B68134458
:1039B800AB61042313E0404BB8F1000F12D01A6832
:1039C800AB699A4228D93D4B9B781BB9D4F8DC30B7
:1039D800DB0721D4337823F002033370052385F8FD
:1039E80020305BE71B68EA691344AB6114E0314A95
:1039F800314B12681B68D288642101FB02332B61AA
:103A08004FF48060002385F82030EB7004F0A2FEAC
:103A180044E700297FF442AFBBF1000F02D05846BB
:103A280005F034FD264DDFF89480B5F84E1105F504
:103A3800C37002F042FE8246002845D1D4F8DC303B
:103A480013F0006909D098F8033033B908F0C0FBC7
:103A58001C4B012818BF002018703378580709D567
:103A68003B68D90606D4B9F1000F03D098F80330A3
:103A7800002B4BD0104B1B6803F57A730122C4F856
:103A8800EC30104B88F8042088F8032000221A70C4
:103A98003CE000BF50200020AC170020542000203C
:103AA80000007A4400C07F4481220020404B4C0033
:103AB800BC170020D8160020B817002002000020EC
:103AC80040190020832200203B68DA0618D4337896
:103AD8005B0715D5D4F8DC30180111D598F80330F8
:103AE80073B1AE4B1A68AE4BD3F8EC309A420AD990
:103AF80008F06EFB38B9AB4B88F80300187002E089
:103B0800A84B00221A70002388F80430337859072C
:103B18003AD53B68DA0637D594F8F030DFF880926A
:103B2800DB0631D498F8023043B395F8E031BAF1A6
:103B3800000F11D15BB1994B1A68D9F8F4309B1A70
:103B4800002B04DA09F092F889F8F8A01CE010209C
:103B580005F09CFC01230EE03BB1904A12684FF43B
:103B68007A7101FB0323C9F8F43094F8F8305BB19B
:103B780005F078FC002384F8F83005E0BAF1000F6E
:103B8800E5D099F8F830F2E7002295F8DE9195F83B
:103B9800DF11B5F896E1B5F898C11346DFF810B211
:103BA800CDF808B03BF912009B087045C4BF63F01C
:103BB8007F03DBB201326045B8BF43F04003042AFB
:103BC800ECD194F8F92076489A4205D190F8FA2079
:103BD800F92A04D8013200E0002280F8FA2084F89B
:103BE800F93098F802306E4A33BBD2F8DC00C007CF
:103BF8000AD582F8FB30BAF1000F1DD13378DB0704
:103C08001AD508F061FE17E03378580714D592F8F2
:103C18002C308BB1644BDB7873B992F8FB300133ED
:103C2800DBB2032B82F8FB3006D911B109F01EF87C
:103C380002E0BAF1000FF9D094F8FA30DFF860B179
:103C4800DFF870A1142B7BD198F8023019F1000924
:103C580018BF4FF001094BB39BF8F9305F2B0FD118
:103C6800337803F0040303F0FF0213B108F0FEFFFA
:103C780006E00B20009205F009FC009A8BF8FA2068
:103C8800B9F1000F12D094F8F9307D2B0ED13378AA
:103C980003F0040303F0FF0B13B108F0E7FF05E09E
:103CA8000B2005F0F3FB3E4B83F8FAB0337803F0B2
:103CB800040303F0FF02002B42D194F8F9B0384B0B
:103CC800BBF1570F04D1394B4FF47A721A8037E0A1
:103CD8003968490718D5BBF15A0F15D193F8FC106C
:103CE80029B183F8FC20012283F8FD2028E093F80D
:103CF800FE2082F0010283F8FE200AB10C2000E0C9
:103D08000D2005F0C3FB1BE0BBF15D0F00F02D8417
:103D1800BBF15B0F00F02B84BBF15E0F00F0298430
:103D2800BBF1560F01D104F0C1FF98F80230002B07
:103D380000F0EC83BBF16F0F40F0E18308F0C4FDA5
:103D48003B68580746D594F8FE30154A9BB133783E
:103D5800590710D5029BB3F90610B5F89631994268
:103D680009DDD2F8DC3013F0010302BF3221A2F8DA
:103D7800021182F8FE30D4F8DC20094BD2031BD59F
:103D880093F804212AB993F8FC2012B93222A3F837
:103D98000221012384F804311CE000BFB817002079
:103DA800B80B002083220020BC1700207C220020B2
:103DB800542000203013002093F8FC2052B13278B0
:103DC80002F0040202F0FF0122B9012283F8FC107C
:103DD80083F8FD20DAF800800023C4F8DC3008F10D
:103DE800870608F1D7093278737816F8010C9A42D9
:103DF8000DD2314602F016FC48B116F8022C012308
:103E080003FA02F2D4F8DC301343C4F8DC30043689
:103E18004E45E8D1CB4B1B7833B1D4F8DC8018F091
:103E2800020F40F02D8325E308F1D60608F58F78B8
:103E38003278737816F8010C9A4225D2314602F08E
:103E4800F1FB08B3B37896F804C0BF4A96F803901C
:103E5800BE480C21013B01FB0C4103EB4303134417
:103E6800D1F80C219A420FD0C1F80C31002390F8F8
:103E78003821C1F81031012303FA0CF322EA0303B5
:103E880081F8089180F8383106364645D0D1B04BD4
:103E9800DFF8C4B21E68AF4B1B68019394F82C304E
:103EA800039300230093DBF80020002A00F0D98256
:103EB80092F80090B9F1000F00F0D382DBF80430DB
:103EC8000199CB1A002B0CDB01F5FA730099CBF89A
:103ED800043001238B4094F8381121EA030384F855
:103EE8003831039B002B00F0BC821BF8043C51784E
:103EF8000433DBB2002940F07382029931F91310C0
:103F0800B5F8943103F1C800814202DD92F802A0AD
:103F180015E0C83B994203DA9178C1F1000A0EE036
:103F2800009A0123934094F8382122EA030384F885
:103F38003831019B03F5FA73CBF8043091E294F819
:103F48003831009A1341D80700F18B82BAF1000F7B
:103F5800CCBF0220012005F0D3FA09F1FF33DFF8C6
:103F6800EC81132B00F27582DFE813F014002500B2
:103F780037004B0064006B00CE004301AA01D80152
:103F8800080273024B005A006B00CE004301A000E8
:103F980015017A0196F80080D044B8F1FA0FA8BF4D
:103FA8004FF0FA0828EAE878304686F8008002F0F0
:103FB8001FFB01200FE096F80180D044B8F1640F90
:103FC800A8BF4FF0640828EAE878304686F80180F0
:103FD80002F00EFB02204146CDE196F80390D14451
:103FE800B9F1640FA8BF4FF0640929EAE97986F8A6
:103FF80003903046D8F83C1102F0B0FA0320494645
:10400800B9E1717951446429A8BF642121EAE171B9
:1040180071710D2005F012FAB9F10D0F00F0198237
:10402800317951446429A8BF642121EAE1713171D1
:104038000E20A0E1B179514481F30801B171052046
:1040480099E1D8F840311A78022A20D107EE90AACF
:10405800B8EEE70ADFED427A93ED097A80EE270A97
:1040680030EE070AB5EEC00AF1EE10FA07D4B4EE46
:10407800670AF1EE10FAC8BFB0EE670A01E09FEDDB
:10408800390A83ED090A0F2005F0C2F90AE0997888
:104098005144C829A8BFC82121EAE17199700F20AD
:1040A80005F0CCF9B9F10F0F00F0D381D8F8403101
:1040B8001A78022A1ED107EE90AAB8EEE78ADFED39
:1040C800287A93ED080A88EE278A38EE000AB5EEBA
:1040D800C00AF1EE10FA07D4B4EE670AF1EE10FA4E
:1040E800C8BFB0EE670A01E09FED1E0A83ED080A1B
:1040F800122068E159785144C829A8BFC82121EA8B
:10410800E1715970122036E1D8F840311A78022A44
:1041180032D107EE90AAB8EEE70ADFED117A93EDF7
:104128000C7A80EE270A30EE070AB5EEC00AF1EEE7
:1041380010FA19D4B4EE670AF1EE10FAC8BFB0EE5F
:10414800670A13E08022002050070108B80B0020FE
:1041580088170020B8170020C40C002000007A44FB
:104168000000C842000000001FED020A83ED0C0A9F
:10417800102005F04DF90AE0197B5144C829A8BF61
:10418800C82121EAE1711973102005F057F9B9F136
:10419800100F00F05E81D8F840311A78022A1ED13B
:1041A80007EE90AAB8EEE78A5FED137A93ED0B0A53
:1041B80088EE278A38EE000AB5EEC00AF1EE10FA4A
:1041C80007D4B4EE670AF1EE10FAC8BFB0EE670A7A
:1041D80001E01FED1C0A83ED0B0A1320F3E0D97AE6
:1041E8005144C829A8BFC82121EAE171D972132016
:1041F800C1E0D8F840311A78022A22D107EE90AAF5
:104208001FED2A0AF8EEE77A87EE800AD3ED0F7AD7
:1042180030EE270AB5EEC00AF1EE10FA09D45FEDC8
:10422800307AB4EE670AF1EE10FAC8BFB0EE670A4A
:1042380001E01FED340A83ED0F0A112005F0E8F8BC
:104248000AE0997D5144C829A8BFC82121EAE17133
:104258009975112005F0F2F8B9F1110F00F0F98005
:10426800D8F840311A78022A20D107EE90AA1FED1B
:10427800450AB8EEE78A88EE008A93ED0E0A38EE12
:10428800000AB5EEC00AF1EE10FA09D45FED4C7AD7
:10429800B4EE670AF1EE10FAC8BFB0EE670A01E0A3
:1042A8001FED500A83ED0E0A14208CE0597D51440D
:1042B800C829A8BFC82121EAE171597514205AE01C
:1042C800D8F840311A78022A1ED107EE90AAB8EE23
:1042D800E78A5FED5D7A93ED0A0A88EE278A38EE61
:1042E800000AB5EEC00AF1EE10FA07D4B4EE670A78
:1042F800F1EE10FAC8BFB0EE670A01E01FED670AD9
:1043080083ED0A0A09205EE0D9785144C829A8BF7C
:10431800C82121EAE171D97009202CE0D8F8403190
:104328001A78022A1ED107EE90AAB8EEE78A5FED46
:10433800747A93ED0D0A88EE278A38EE000AB5EEF6
:10434800C00AF1EE10FA07D4B4EE670AF1EE10FADB
:10435800C8BFB0EE670A01E01FED7E0A83ED0D0AC3
:104368000A2030E0597B5144C829A8BFC82121EA56
:10437800E17159730A2005F061F86AE0D8F8403114
:104388001A78022A22D107EE90AA1FED8C0AB8EEFD
:10439800E78A88EE008A93ED100A38EE000AB5EE37
:1043A800C00AF1EE10FA09D45FED937AB4EE670A09
:1043B800F1EE10FAC8BFB0EE670A01E01FED970AE8
:1043C80083ED100A0B2005F023F842E0D97D514413
:1043D800C829A8BFC82121EAE171D9750B20CAE70D
:1043E800012936D19078029A32F91380B8F5617FA5
:1043F80005DB40F633039845A8BF984601E04FF423
:104408006178B9F10C0F24D1704A4FF4966393FB8D
:10441800F0F01378A8F5617898FBF0F85FFA88F85F
:10442800434516D0B8F1040F34BF43460223137036
:10443800674A09FB035303F2D263136004F076FA68
:104448004846414604F0FAFF08F10100C0B205F001
:1044580057F8009A0123934094F83821134384F8BD
:104468003831009B0133042B00930BF10C0B7FF4C4
:104478001AADD2E43B68D9050FD5564BDB7863B14A
:10448800554B1B689A0708D5544B1B8813F0010637
:1044980008D1012004F06EF904E0012004F05AF973
:1044A800012300E0002318F0040F0BD053B10120C2
:1044B80004F050F9494B1B889B0706D4022004F0EE
:1044C80059F902E0022004F045F918F4006F4FF49E
:1044D800807002D004F04EF901E004F03BF96B79EA
:1044E800082B01D00E2B02D1402004F033F9012310
:1044F80084F8443107B0BDEC028BBDE8F08FB9F108
:10450800000F03D0BBF17E0F3FF418ACBBF1970F3F
:1045180004D14FF4C873A4F8003111E4BBF1A70F1C
:1045280006D194F8F03043F0040384F8F03007E43F
:104538000023BBF1BB0F059301D1022304E0BBF1BB
:10454800B70F04D14FF6FE73ADF8163021E0BBF17A
:10455800BE0F01D1022305E0BBF1BD0F7FF4F0AB24
:104568004FF6FE73ADF8143013E0012002E002208C
:1045780000E003205FFA80F808F1FF3385F8D036B1
:1045880004F03AF904F0F6F9404604F0B9FFFFF7F1
:10459800D7BBDAF80030BDF81410B3F864200A4429
:1045A800A3F86420BDF81610B3F866200A44A3F8EF
:1045B800662004F021F904F0DDF9012004F0A0FFE1
:1045C800002384F8FA30FFF7BBBB00BF8417002034
:1045D80088170020BC170020F8170020621300205D
:1045E800026BC168034610B5406942B11A6C8C1A57
:1045F800013A005D08BF0A46C0B21A6410BD1A6AC3
:10460800805C01328A4228BF0022C0B21A6210BD03
:10461800436B13B190F844007047836A406A1B1AD1
:10462800584258417047426A816A03698A4238BFD2
:10463800D218521A416B21B149680A44591E8A425C
:1046480003D2013B981AC0B2704700207047036B31
:1046580013B15B68016C01E0C369016A8B423CBF1E
:10466800C2689B18581AC0B27047836A8169426B46
:104678001944D160416A99429DBF0169CB1A5360C0
:10468800CB1A96BF0023536083624FF0000380F873
:104698004430136888BF816243F001031360704798
:1046A800436A8269D154436A02690133934228BF3D
:1046B80000234362436B1BB11B68DB0705D4D4E7B7
:1046C800026D136843F080031360704710F80A3CCA
:1046D8000133DBB20A2B84BF10F8131C044A00F81C
:1046E8000A3C82BF002322F8113000F80A3C7047C8
:1046F8006C170020334A136C90681944081A40F666
:104708008C23984270B513469160D06051603BD9B4
:10471800127893F945108A4210460BD1111F0829C7
:1047280008D893F84610182901D8013103E083F816
:10473800442002E0002183F8461093F944402149BF
:10474800A24219D191F84740B4B10C3100249442E7
:1047580006DA1D4D51F8046F25F814600134F6E7A8
:104768000C2805D01849002421F810400130F7E73B
:10477800164801780131017083F845200022012193
:104788001A7083F8471070BD92F84710C9B1A0F2AB
:10479800EF2440F2DA518C4208D811780B2905D859
:1047A8000B1D0131117042F8230070BD002283F8FF
:1047B8004720074B03F13002002143F8041F9342BE
:1047C800FAD170BD380300206C1700207E2000202D
:1047D80044030020024A136C0133194411647047E2
:1047E80038030020024B53F820301B6819607047CB
:1047F8002C150020064B53F820301A681B89A1F5A8
:104808007A7159434FF47A7391FBF3F11160704751
:104818002C1500200B4B984201D10B4A03E00B4B9F
:10482800984207D10A4A138801339BB213804FF08C
:10483800FF307047074A138801339BB213801088F2
:1048480080B2704700300140E01600200038004078
:10485800E2160020000D00202DE9F0410369C76829
:1048680005460E461F40002F35D0B7FA87F24FF0A5
:104878000043D340DB432B611F40A2F11B03042BF1
:10488800F1D8DFE803F0221F1C190300746A24B171
:10489800013C0023A4B2736201E0EC6AA4B2D6F82A
:1048A8002080B8F1000FDED0D8F80030404621460D
:1048B8009847D8F80480F4E73068696B07E07068B7
:1048C800A96B04E0B068E96B01E0F068296C036843
:1048D80089B29847C7E7BDE8F081234B10B5234C50
:1048E8005A43234BB3FBF2F203880139013AA04241
:1048F80089B292B29BB20ED004F50064A0420AD0ED
:10490800B0F1804F07D0A4F59834A04203D004F545
:104918008064A04202D123F070039BB2154CA042E0
:1049280006D004F58064A0421CBF23F440739BB2F8
:1049380003800E4BC162984202850FD003F50063D5
:1049480098420BD003F54063984207D003F5806383
:10495800984203D003F58063984201D1002303866F
:104968000123436110BD00BF40420F00002C0140ED
:1049780000A24A040010004007B501238DF8040086
:10498800002201A88DF805308DF806208DF8073033
:1049980007F0FAFA03B05DF804FB0E4B800A984260
:1049A80012D007D8B0F5801F0CD0013B98420DD12A
:1049B80002207047084B98420AD00233984205D12A
:1049C800042070470120704703207047FE2070477D
:1049D80000207047020010004B001000F8B5046872
:1049E800064620460F461546FFF7D7FF04284BD842
:1049F800B27A910847B902238B40D4F80CE0DB4324
:104A08009BB203EA0E03E3600A23204A03FB001368
:104A180042F82370043342F8235015463FB1B17A67
:104A2800E268890802238B409BB21343E360282283
:104A380002FB00522032EFF31286502383F31288D0
:104A480003B203EB8303DB0003F10C011C3329449D
:104A58002B4451F8047F17B117600A680432994251
:104A6800F7D100231360F3B283F31188282303FBE3
:104A78000050036A1BB1E36843F0010303E0E268F6
:104A88004FF6FE731340E360F8BD00BF60150020C9
:104A9800F8B51C4C226D236BD5699BB9A90611D5B5
:104AA800E36A1BB1908C80B298470BE0E169928C65
:104AB80060694E1CD2B2E6614254E169E2689142F3
:104AC80028BFE361616B0F4BA9B92A0613D59A6A0F
:104AD800586A82420AD0561C9F699E62186DBA5C59
:104AE80002851A69964206D3996204E01A6D136822
:104AF80023F0800313602B0742BF236D08221A623C
:104B0800F8BD00BF501000200C4B0D484FF4005268
:104B18005A600C4A11684FF6FE730B401360426BE3
:104B280011684FF6FE730B401360426A836A9A421B
:104B380000D09AE5012380F8443070470000024015
:104B48005010002044000240F0B5046D86682368C8
:104B580023F0010323608379054613F0020F40799F
:104B68000CBF4FF0000E4FF4005E13F0040F14BF9B
:104B78004FF48067002710F0010F14BF04210021B3
:104B88008307206820F001002060626822F4405208
:104B98004EEA02026260226822F4B05323F00C034A
:104BA80048BF41F008013B430B432360A36895B01D
:104BB80023F44073A360684600F066FE284B9C42CD
:104BC80001D10C9B0EE0274B9C4201D10D9B09E0C3
:104BD800254B9C4201D10E9B04E0244B9C420CBF08
:104BE8000F9B109B2268A879170448BF5B00B3FB92
:104BF800F6F206FB1233B3EB560F236828BF0132D7
:104C08001E0441BF4FF6F073C2F34201134041EA5C
:104C180003026B7992B213F0020FA28100F0010136
:104C280014BF4FF400320022DC0748BF42F4803240
:104C38002B6D11B159680A4302E0596821EA020252
:104C48005A609A6801074CBF42F0080222F0080235
:104C58009A601A6842F001021A6015B0F0BD00BFF0
:104C6800003801400044004000480040004C00402B
:104C7800417169E7816067E73D4B1B78012B30B5CF
:104C880014BF00240324B1B9036A23F001030362AB
:104C98008169036A21F0F30123F00A0341F001015D
:104CA80042F001021A4341EA0411816102628369F8
:104CB80023F00C031BE004291DD1016A4FF6EF73A2
:104CC8000B4003628169056A120121F473414FF6B2
:104CD8005F7342F0100241F480712B4092B213438B
:104CE80041EA043181610362836923F4406383618B
:104CF8008369836130BD0829016A1AD14FF6FF63C1
:104D08000B400362C169036A9BB289B223F4206332
:104D180043F4807321F0F30143EA022241F00101D8
:104D280092B241EA0411C1610262C2694FF6F3739B
:104D380019E04EF6FF730B400362C369056A40F63B
:104D4800FF41194045F6FF732B4043F4805343EA73
:104D5800023241F4807192B241EA0431C1610262C7
:104D6800C2694FF2FF331340C361C369C36130BDE9
:104D7800D002002038B510F80E2C50F8043C044638
:104D880052B9012200F80E2C20F80C1C997A1868E8
:104D98000222BDE838406FE730F80C2C20F80A1CD6
:104DA800891A89B220F8081C074A10F80F0C002548
:104DB80022F8101004F80E5C1868997A2A46FFF752
:104DC8005BFF04F8065C38BD6C170020044B53F8F1
:104DD80020301BB107289CBF1B681960704700BFB3
:104DE80060040020084A13689B050BD5074B002177
:104DF8001970074908684FF6FE7303400B604FF4BB
:104E080000735360704700BF000002407F220020FB
:104E18003000024073B506460D46002401232A8857
:104E2800A34013421AD0AA78009302F003038DF826
:104E38000430EB78022B03D0032B0CBF0323012390
:104E48008DF805303046C2F301136946C2F381027A
:104E58008DF806308DF8072000F084FE0134102C00
:104E6800DCD102B070BD2DE9F743DFF8149299F850
:104E7800024005468E460068114616469846724618
:104E8800631C89F80230FFF728FD2B89ADF8043040
:104E980001A9022368688DF806308DF80730FFF7FE
:104EA800B9FFAB7A2A6809F1040724012744494667
:104EB8000C2B00F2B780DFE803F007B5B5B53EB5B7
:104EC800B5B56AB5B5B59300136ADFF8B8C123F074
:104ED80001031362136AD2F804E0906920F4803069
:104EE80020F07300624540F0700012D00CF5006CA1
:104EF80062450ED00CF5406C62450AD00CF5806C0A
:104F0800624506D00CF5806C624502D043F003037D
:104F180007E023F00E032EF4407E43F003034EF423
:104F2800807EC2F804E09061C2F83480136293690D
:104F380043F0080329E0136ADFF848C123F010039F
:104F48001362136AD2F804E0906920F0807020F4AC
:104F5800E640624540F4E04006D00CF5006C62453E
:104F680002D043F0300307E023F0E0032EF4406E54
:104F780043F030034EF4806EC2F804E09061C2F84A
:104F880038801362936943F4006393614AE0136ABB
:104F9800DFF8F0C023F480731362106AD2F804E0DB
:104FA800D369624523F0730343F0700306D00CF510
:104FB800006C624502D040F4407007E020F4606065
:104FC8002EF4405E40F440704EF4805EC2F804E077
:104FD800D361C2F83C801062D36943F0080320E033
:104FE800136ADFF8A0C023F480531362106AD2F862
:104FF80004E0D369624523F4E64343F4E04340F414
:10500800405003D00CF5006C624501D14EF4804E3F
:10501800C2F804E0D361C2F840801062D36943F457
:105028000063D3612B7B1BB1536C43F4004353647F
:1050380013889BB243F001031380AB7A0C2B18D86A
:10504800DFE803F0071717170B1717170F171717AE
:1050580013000B1902F134000AE00B1902F13800B1
:1050680006E00B1902F13C0002E00B1902F14000C6
:1050780058600C443846A681A26003B0BDE8F083AE
:10508800000D0020002C014070B584894FF47A741B
:10509800F3B112B11578013207E0FF2505E0013CB4
:1050A800A4B24FF6FF76B4420CD00689B607F6D5FF
:1050B80005730589ED070DD4013CA4B24FF6FF75C1
:1050C800AC42F6D1FFF7A6FB003018BF012070BD37
:1050D800012070BD057B09B10D700131013BD7E797
:1050E80008B540F2E9330289920704D4013B9BB228
:1050F800002BF8D109E0017340F2E9330289D207A5
:1051080006D4013B9BB2002BF8D1FFF783FB00E0EC
:10511800007BC0B208BD00BF10B5214A18B913689A
:1051280002221A8210BD1F481468002303802178C8
:1051380011F07F0102460DD1637A990644BF02211E
:10514800017013F0400F037814BF43F0010323F0FC
:10515800010315E0012921D002291ED1637913F03A
:10516800800F03F00F034FEA830303F1804303F535
:10517800B8431B6806D003F03003102B07D1012376
:10518800137004E003F44053B3F5805FF6E7064B71
:105198001B681B699847034810BD184610BD00BF1F
:1051A800A4180020F00D00203817002010B5064C78
:1051B80018B9236801221A8210BD044B1B689B682A
:1051C800984720680C3010BDA4180020381700201C
:1051D80010B5064C18B9236801221A8210BD044B79
:1051E8001B681B68984720680A3010BDA418002067
:1051F8003817002003788B4283BF034B03EB410130
:1052080048880020704700BFF00D002070B50022CC
:105218001346244914180C44A47E83EA0423082462
:1052280013F4004F4FEA430318BF83F4815304F18A
:10523800FF3418BF83F0010314F0FF049BB2EFD1D1
:105248000132192AE5D100F1190200F11A050A44C0
:105258000D44967EAA7E02EB062292B29A421FD194
:10526800104B93F83B50E2B2AA4216D2431C03EB10
:105278004203DBB2CA1801330B44927E9B7E03EBD8
:1052880002239BB24FF4AF6253431B13064A03F544
:10529800487322F814300134E5E7012381F83C30E3
:1052A80070BD00BFF00D0020F20D002003788B4286
:1052B8000BD9074B1A78074B89001944086C02B1BF
:1052C800400800F5777080B270470020704700BF33
:1052D8004C200020F00D002007299DBF034B03EB55
:1052E8008101B1F870000020704700BFF00D002068
:1052F800034B03EB4101B1F89000C008704700BFB1
:10530800F00D00200A4BDFED0B7A03EB810191EDE4
:105318002C7AB8EE477AF6EE046AE7EE267A82B07F
:10532800FCEEE77ACDED017ABDF8040002B07047D3
:10533800F00D002000005C4470B5334C054604F0C5
:10534800F7F8D4F8F830C4F8F800C31AB3F5FA5FE0
:10535800C4F8FC3082BF002384F8003184F801319E
:1053680094F800312BB9A12D02BF274A012182F8F8
:10537800011194F80111244A29B1D118EDB2013371
:105388008D7682F8003194F8005194F80231AB42DE
:1053980039D11D4B93F80331052B02D0062B03D0CE
:1053A8002CE00020FFF732FFE37E1E2B26D10020E1
:1053B8000246C1B26B1E994219DA21448B7E08213C
:1053C800DBB283EA0206F60744BF83F01803C3F38F
:1053D800460301F1FF3154BF5B0843F0800311F02D
:1053E800FF01C2F34702ECD101301A46E1E723443A
:1053F8009B7E9A4202D10320FFF708FF002384F81E
:10540800013184F8003170BDF00D002010B504465C
:1054180004F08EF8114BD3F80421C3F80401821A62
:1054280041F288318A42C3F8082184BF002283F8F8
:105438000C2193F80C31094A0F2B0DD8591CC9B20D
:1054480013441029E4B283F80D4114BF002301234B
:1054580082F80C1182F81D3110BD00BFF00D00203C
:1054680010B5044604F064F80F4BD3F82021C3F8B4
:105478002001821A41F288318A42C3F8242184BF6C
:10548800002283F8282193F8282107491344142A75
:1054980018BF013283F8294112BF81F8282101235E
:1054A80081F83E3110BD00BFF00D002038B504462C
:1054B80004F03EF8274A2749D2F84031C2F84001A3
:1054C800C31AB3F57A6F84BF002382F8443192F887
:1054D800443133B9A82C3BD181F84531A1F8463184
:1054E80006E0022B02D181F8484101E0242B02D8C2
:1054F800D11881F8494192F84811164D013302310B
:10550800DBB249008B4282F8443118DAB5F84631EB
:10551800E0B283EA0020082310F4004F4FEA40006D
:1055280018BF80F4815003F1FF3318BF80F00100E9
:1055380013F0FF0380B2EFD1A2F8460138BD013164
:105548008B4201BF002385F84431012385F845319A
:1055580038BD00BFF00D002010B5044603F0E8FF89
:10556800124BD3F8702140F6AC51821A8A42C4BF5C
:10557800002283F8742193F874212AB90F2C13D1CF
:105588000A49C1F8700101E0182A0DD8511CC9B2A6
:1055980083F8741113441929044883F8754114BF1A
:1055A8000023012380F88E3110BD00BFF00D0020CC
:1055B80008B50020402104F0C4FE094B1B68187A86
:1055C800082801BF074B4FF480521A80064B04BFCE
:1055D80010221A80A0F109035842584108BD00BFA3
:1055E800A41800203217002034170020314B2DE971
:1055F800F0411C68228A267AB2B9042E14D12E4DA5
:105608002E482B78012B0BD12D4B19682D4B89B2C5
:105618000B445B0019681A60302303802A7045E048
:1056280010230380072641E0A58AA369AA4294BFF4
:1056380004260226954228BF1546AFB23846984739
:105648001F4A13689BB203F1005303F540535B00F4
:1056580005F1010E1B689BB203F1005303F540539B
:105668004FEA6E0E5B000021714500F1020009D07F
:1056780010F8018C10F802CC4CEA082C23F821C051
:105688000131F1E712680F4B92B213445B001A68BC
:105698001D60238ADB1B2382638A1F44074B6782B2
:1056A80030221A80084B4FF440521A802672BDE807
:1056B800F08100BFA41800208422002034170020A5
:1056C800505C004002300020321700202DE9F041E4
:1056D8004D880E88CB880C894A89B1F80C80B1F8BE
:1056E8000EE08F88B5F5827F1BD11E4346F4827683
:1056F80046EA0405B0F800C045EA020444EA080294
:1057080042EA0E030CF4415C4CEA03039BB20380AB
:10571800828822F470631B041B0C3B439BB283807A
:105728001CE0B0F804C02CF4706C4FEA0C4C4FEA43
:105738001C4C4CEA07072E43BFB2334387802343F0
:105748000788134343EA080307F4415743EA0E0363
:1057580047EA030E1FFA8EFEA0F800E0838B23F4BD
:1057680000631B041B0C83830B8A0382BDE8F08152
:10577800084BDA68D10709D4DA68D20608D4DB689E
:1057880013F0040F14BF0320042070470120704752
:10579800022070470020024002684FF6FE73134053
:1057A80003600023036043608360C360284B984212
:1057B80001D1284A27E0284B984201D1254A2AE0FE
:1057C800264B984201D1234A2DE0254B984201D11E
:1057D800204A30E0234B984201D11E4A33E0224B45
:1057E800984204D11B4A536843F470032EE01F4BC0
:1057F800984204D1174A536843F0706326E01C4B63
:10580800984204D11B4A536843F00F031EE01A4B19
:10581800984204D1174A536843F0F00316E0174B37
:10582800984204D1134A536843F470630EE0144B52
:10583800984204D10F4A536843F4704306E0114B71
:10584800984204D10B4A536843F47023536070475D
:1058580008000240000002401C00024030000240E4
:1058680044000240580002406C00024080000240A0
:1058780008040240000402401C04024030040240B4
:105888004404024058040240994A536803F00C0348
:10589800042B2DE9F04105D0082B06D0954901606D
:1058A800B3B916E0934B036012E053685468C3F32E
:1058B8008343991CE30349BFD36A8F4B8D4C03F094
:1058C8000F0344BF0133B4FBF3F34B43036000E021
:1058D80000235168894FC1F303117D5C0168EDB263
:1058E80021FA05F444605668C6F30226BE5D24FA20
:1058F80006FEC0F808E05668C6F3C226BE5DF6B2DA
:10590800F440C460D2F82C80C8F3041808F00F0CD7
:1059180007EB4C0C18F0100FBCF810C01FFA8CFCE9
:1059280007D0BCF1000F04D0B3FBFCFCC0F810C0DA
:1059380000E00161D2F82CC0CCF3442C0CF00F0825
:1059480007EB48071CF0100F3F8ABFB204D01FB105
:10595800B3FBF7F7476100E04161176BFF065ABFD9
:10596800644F87618161176BBF065ABF614FC7617A
:10597800C161176B7F065ABF5E4F07620162176BE2
:10598800FF0506D5994204D1AE4202D14F004762C5
:1059980000E04462176BFF0406D5994204D1AE4279
:1059A80002D14F00876200E08462176BBF0506D5FD
:1059B800994204D1AE4202D14F00C76200E0C462EE
:1059C800176B7F0506D5994204D1AE4202D14F002C
:1059D800476400E04464176B3F0506D5994204D13B
:1059E800AE4202D14F00876400E08464176BBF04A5
:1059F80006D5994204D1AE4202D14B00C36400E0FF
:105A08008464156B3A4BAD0701D1046315E01C6B38
:105A180004F00304012C01D101630EE01C6B04F0B7
:105A28000304022C02D14FF4004305E01B6B03F082
:105A38000303032B01D12F4B0363146B2C4B14F47A
:105A4800403F02D1C0F834E018E01C6B04F4403445
:105A5800B4F5803F01D1416310E01C6B04F440347D
:105A6800B4F5003F02D14FF4004306E01B6B03F48A
:105A78004033B3F5403F01D11E4B4363146B1C4BBD
:105A880014F4402F02D1C0F838E018E01C6B04F47D
:105A98004024B4F5802F01D1816310E01C6B04F41D
:105AA8004024B4F5002F02D14FF4004306E01B6BED
:105AB80003F44023B3F5402F01D10E4B8363146BDD
:105AC8000B4B14F4401F02D1C0F83CE020E01C6BE3
