:020000040800F2
:1000000000A00020A95A0108115B0108E5080108B9
:10001000115B0108115B0108115B01080000000081
:10002000000000000000000000000000115B01085B
:10003000115B010800000000115B01083B0D010885
:10004000115B0108115B0108115B0108115B0108DC
:10005000115B0108115B0108E7270108E52701088A
:10006000115B0108115B0108115B0108115B0108BC
:10007000ED790008115B01082DD30008115B010820
:10008000115B0108115B0108115B0108115B01089C
:10009000115B0108115B0108115B0108E3270108EE
:1000A000B1A10008EDA10008A3A1000811A2000859
:1000B000E1A10008D1A10008C1A10008115B01085D
:1000C000115B0108115B0108115B0108115B01085C
:1000D000115B010825D300081DD3000815D30008C3
:1000E000490D0108115B0108115B0108115B010852
:1000F000115B0108115B0108115B0108115B01082C
:10010000000000000000000000000000115B01087A
:10011000115B0108115B0108115B0108115B01080B
:10012000115B0108115B0108115B0108115B0108FB
:10013000115B0108115B01080000000000000000D5
:10014000115B0108115B0108115B01080000000050
:10015000000000000000000000000000000000009F
:100160000000000000000000115B0108115B0108A5
:10017000115B01080000000000000000000000000A
:0801800000000000115B010802
:100188002DE9F04F2DED068B6A4F6B4B3B60B1B0FC
:1001980000237B6011F0DFFC18B911F0FFFC0AF0B6
:1001A8008FFC0AF04BFD654B654C1A7842F0010252
:1001B8001A70644A4FF47001C2F8881000220B923A
:1001C8000C92226842F4803222600593236803F47B
:1001D80000330C930B9B01330B930C9B1BB90B9BAC
:1001E800B3F5A04FF2D1236813F4003318BF0123ED
:1001F8000C930C9B012B66D0524E534BF360636AF1
:10020800BB60636ADFF87491DFF86CA1DFF870B146
:1002180043F080736362636943F4FC0330AD636148
:1002280003238DF8723041F6FF7325F8503D4FF0E7
:100238009040294607F0CAFC4FF6FF734846294606
:10024800ADF8703007F0C2FC4048294607F0BEFC04
:100258003F48294607F0BAFC3E48294607F0B6FC55
:1002680029463D4807F0B2FC28460EF0C7FB3B4A3A
:100278001C9BB3FBF2F33A4A3A4813600021102260
:1002880015F065FD384B394A5A60F02286F823206C
:1002980000229A6007221A60354EDAF80830336077
:1002A8009BE80300636985E8030043F480236361E6
:1002B8000823C9F818301C981DA907F087FC336873
:1002C8001B0729D464E02B4B12221A606368636011
:1002D80063686360636843F480636360636823F4FE
:1002E8007C136360636843F4E8136360236843F036
:1002F800807323602268124B9001FBD55A6822F064
:1003080003025A605A6842F002025A60636803F0B6
:100318000C03082BFAD16FE79AF88E31012B37D8E6
:10032800044A9AF88F31926812F0805800F01286C9
:100338002EE000BF180400206FA40008B02500209C
:100348000010024000ED00E00005FA050008004832
:10035800000C0048001000480014004840420F00FC
:10036800B4260020B826002010E000E03F19010064
:10037800FC31002000200240A4290020000400488D
:100388005C750108BE4B002283F88F210AF02EFE0F
:10039800642010F0C4FC4FF48C72BA48002115F0A8
:1003A800D6FCE369B84A43F00703E361A36943F461
:1003B800E123A361636943F4C023636102F5887E86
:1003C800937BD17B03F00700800001FA00FC5168A1
:1003D800DB0801EB83034FF00F08196A08FA00F0F5
:1003E80021EA00011962196A10324CEA01017245CA
:1003F8001962E5D10022A549002353540132112A7C
:10040800F9D1A34AFF2199540133072BF9D1A14B04
:100418003668A14A1A60A1483C22002115F097FCD1
:10042800C6F38019052300229D49DFF870E2505C6D
:100438000C21514301F80E00B9F1000F08D11E3804
:1004480001289FBFFF2003F1FF3301F80E00DBB244
:100458000132052AE8D1934A9AF805B01370924BF5
:10046800924983F800B0924B7B62C0330B60914B8A
:10047800914A03EBCB03B1065B7848BF0123936233
:1004880000238E4A40F2DC5122F813100133082B66
:10049800F7D115A800211C2215F059FCDFF830828D
:1004A80016F400731ABF1B95CDF80C800393BBF1AB
:1004B8000E0F04D00BF0EF0BBBF1080F02D1012295
:1004C8008DF86620022004930BF08CFA049B18B177
:1004D8004088003018BF0120C6F340028DF85A202A
:1004E800C6F340328DF85420C6F3C03200F0010044
:1004F8008DF8572016F400628DF859008DF85D903C
:1005080007D09AF8822102F1FF3EDEF1000242EBA9
:100518000E02003318BF01238DF85F30BB6A8DF8D7
:100528005820003318BF01238DF86030C6F30053FC
:100538008DF86130BAF84631ADF86430BAF8523106
:10054800ADF862309AF854315D48003318BF012382
:10055800C6F300428DF85C30BAF850318DF85E2051
:1005680006F0010BC6F3C009ADF8683000219AF80F
:10057800D43187F82C30C6F3804664228DF855B004
:100588008DF856908DF85B60ADF86A1015F0DFFBBA
:100598009DF86630002B0CBF00230223BBF1000F2F
:1005A80002D1B9F1000F00D0013308EB83084FF0F6
:1005B800000BD8F814309A1E203304920693049B3B
:1005C80033F8022F04934FF6FF739A4200F0EF813D
:1005D8009DF85910D3B2120AD7B279B12A48394EC8
:1005E80000EB03104168B14208D10189B1F5806F71
:1005F80000F0D881B1F5006F00F0D4819DF85D104E
:1006080031B11901204840582F49884200F0CA8169
:100618009DF85E1079B119011B4E701876582B4958
:100628008E4200F0BF814168B1F1904F03D1817BC8
:10063800082900F0B7819DF85A1051B1124800EB13
:1006480003104168B1F1904F03D10189102900F0DE
:10065800A9819DF8571051B10B481A4E00EB0310B1
:100668004168B14203D10189042900F09B819DF8BA
:100678005810B1B3044800EB031041682AE000BFEA
:10068800A42900200C270020A09A01082404002097
:1006980035040020BC310020962B0020C0310020FA
:1006A8001CAB0108B11300206C0B0020A02800200F
:1006B800B4290020347B010818040020F812002017
:1006C8004C1200200004004800040040002C0140A7
:1006D80050750108B1F1904F03D10189202900F02C
:1006E80061811B9E8EB1C14901EB031E3168DEF8A2
:1006F8000400884209D1BEF80810B088884200F08A
:100708005181F088884200F04D81022A02D19DF87B
:10071800542003E0012A04D19DF85520002A00F056
:1007280041819DF86020B14E4FEA031862B19DF8EF
:1007380066204AB9A3F10E02012A05D856F8082006
:10074800AB498A4208BF04279DF86120464432B16C
:100758009DF866201AB9043B032B40F20081012F53
:100768004CD1A24ADFF89492089202EB0801FF23C9
:1007780091F80DE089F8743089F875304868C9F83F
:10078800846001F108030989ADF870104FF0000A80
:1007980002218DF8731089F878A01CA98DF872E0F1
:1007A800079389F830A0C9F834A0C9F838A0C9F867
:1007B8003CA0C9F870A089F876A089F877A007F05E
:1007C80005FA079B089A997852F80800524607F0EC
:1007D800B3F8304651463A4609F078FD854BC9F8DA
:1007E8008830854BC9F88C30C9F890A0304609F19B
:1007F800880109F18C0209F00FFDD3E0022F4DD1D9
:100808005FFA8BF31C2101FB03FC7C4BCDF824C061
:1008180003EB0C0A01238AF878300893734B8AF8A3
:1008280079B003EB08014FF0000991F80DE0486832
:100838008AF87A9001F108020989ADF870108AF8EF
:1008480082901CA9CAF884608DF872E007928DF82E
:10085800737007F0BBF9654B079A53F80800917855
:100868004A4607F069F8089B30461A46494609F097
:100878002DFD624BDDF824C0614ACAF8882003EBDD
:100888000C01604ACAF88C208831CAF8909030462A
:100898000A1D09F0C1FC0BF1010B83E0032F5CD1A9
:1008A8009DF85B30584F03B39DF85C30DFF86481E6
:1008B80097F8019053B1554BBDF86820B3FBF2F29D
:1008C8003046082192B2BDF86A3003E0304608216C
:1008D8004FF6FF7207F0A3F94D4B48F82900C360A3
:1008E800BB78192207EBC3032DE0BDF8682097F801
:1008F8000180B2F5FA7F13D9444BB3FBF2F23046CC
:1009080092B2BDF86A30082107F089F9414B43F8E3
:100918002800414BC360BB780D2207EBC30312E0EC
:100928003E4BB3FBF2F2304692B2BDF86A30012179
:1009380007F075F9374B43F82800354BC360BB788F
:10094800092207EBC3035A71BB787A7807EBC30116
:100958000A7101328E607A7022E0042F22D12A4F68
:10096800BDF86220BB7897F8008007EBC30301212C
:1009780083F804803046294B93FBF2F2BDF86430CB
:1009880092B207F04CF91D4B03EB8808BB78C8F806
:10099800580107EBC3020A2151713A7801323A70C3
:1009A8000133BB70049B069A93427FF408AE164944
:1009B800124A097882F8781119491A4B0F78A7F169
:1009C8001701002602291E7090469E463BD8D8F88B
:1009D80024303344D3ED007AF5EE407AF1EE10FA84
:1009E80022D1D8F82830002B4CD144E0A09A010835
:1009F80000400140D5760008B577000818040020AB
:100A08007D790008AD7600084C12002000127A00AB
:100A1800C5770008D8260020D577000840420F0087
:100A28006C0B002008270020424A06EB020C0FCB73
:100A38008CE80F009EF8003010360133C02E8EF877
:100A48000030C4D1CDE73C4B13F837908EF80090B6
:100A580003EBC703D3F804A0BAF1000FC1D04E4589
:100A6800BFDA344A330103EB020C53440FCB01368F
:100A78008CE80F00F3E7314B1A6812F4805F984650
:100A880026D11FE02E4B2F4A13F83700107003EBC6
:100A9800C7035E68002EEED000238342EBDAC3EB77
:100AA800C3017218DFF8A880D2F8009041F80890C6
:100AB80001EB080C9188ACF8041092798CF80620A8
:100AC8000133EAE707F0EF03082B1F4B20D121E0A1
:100AD8009EF80020012AF5D91C4B03EB02121032B4
:100AE80010339342EED053ED047AB6EE007A67EEF7
:100AF800877A43ED047A53ED057A67EE877A43EDFA
:100B0800057A53ED037A67EE877A43ED037AE7E7D0
:100B18000E2F08D11A7842F010021A70182F19D126
:100B280010F0B2FB16E01A7822F010021A70192F92
:100B3800F5E700BFA80A0020347B0108FC3100203B
:100B4800CC8301082C28002044130020B00A002080
:100B58002D28002010F07CFBD8F80030A84E580350
:100B680058BFA84BA8485CBF01221A70059B059A7C
:100B78001B7843F0040313704FF40043ADF8703052
:100B88006369022743F400234FF0010A8DF873705C
:100B980029468DF872A0636107F018F89B4B9C4AB0
:100BA8001A60002010F0E4F8E36943F48043E3613D
:100BB800236943F480432361636943F480236361B9
:100BC800736A23F470037362736A43F4A003736255
:100BD800736A23F070637362736A43F0A06373628D
:100BE800736A23F070437362736A43F0A0437362BD
:100BF800736A23F470237362736A43F4A0237362E5
:100C08004FF0030B4FF460438DF8747030460027A3
:100C180029461C934FF480598DF875B08DF876707D
:100C28008DF877700EF058F830462946CDF8709058
:100C38008DF874A08DF875B08DF876708DF8777092
:100C48000EF04AF8236943F480432361236923F4AF
:100C5800804323616F4B9A8822F480521204120C4D
:100C68009A809A8892B242EA09029A801A8802F413
:100C7800415242F4457242EA0B021A809A8822F4E1
:100C880070621204120C42F4E0629A809A8B22F489
:100C980000621204120C9A8307221A821A8892B2EE
:100CA80042F040021A80C6F81890D8F8003003F4D1
:100CB8001073B3F5107F00F09080574E574B584C87
:100CC8001C607369DFF8388143F480237361F3692A
:100CD80043F40013F361336B23F010033363336B76
:100CE80043F010033363D8F8203023F07063C8F85A
:100CF8002030D8F8203043F08063C8F82030D8F886
:100D0800203023F07043C8F82030D8F8203043F062
:100D18008043C8F8203000274FF0020C4FF001093B
:100D28004022404629464FF0030B8DF874C0CDF899
:100D380018C01C928DF877708DF875B08DF8769084
:100D48000DF0CAFF8022404629461C920DF0C4FFD0
:100D58002268DFF8E480334D22F001022260216826
:100D6800314A0A402260314A2261226842EA090275
:100D78002260A760E760A760A26842F40042A26010
:100D880022682260626822F0784222F4004262609F
:100D9800226842EA09022260D8F800404FF0100A9F
:100DA80004F400430493524604F400632846394689
:100DB800059314F0CCFF4FF6FF72DDF818C01092BF
:100DC80014F002048DF845C08DF846708DF8477010
:100DD8008DF844B032D1A1463EE0154A1378154942
:100DE80078561F2802BFFF20785403F1FF3307F11C
:100DF8000C0708BFDBB23C2FF1D113705DE700BFD1
:100E080000040048D80F0020000800484C39002092
:100E1800010901080038004000100240B412002007
:100E2800005400403C210020FFE0CF00300E50006D
:100E3800B1130020C0310020FC31002030A94FF050
:100E4800904041F880AD0DF047FF072385F80090EA
:100E58006F70EB7085F80290049B8BB130A9042366
:100E680041F8803D8F480DF037FF0C232B71072385
:100E7800EB71012385F805909944AB715FFA89F904
:100E8800059B93B130A9202341F8803D4FF0904055
:100E98000DF022FF02232B730723EB73012385F840
:100EA8000D909944AB735FFA89F9F36A7E487E4CDA
:100EB80023F4F873F362F36A43F4D873F362736943
:100EC80043F0805343F0020373610DF01EFD1CA82C
:100ED8000DF0F0FC754B1C93754B1D93B9F1010F88
:100EE8004FF0000394BF1A46802221924FF480727B
:100EF80022924FF4806223922022204624921CA939
:100F08004FF400521E93209325922693ADF87C90BF
:100F18000DF0DDFC236843F001032360654CA368F2
:100F280023F04053A360A36843F08053A3600A20D2
:100F38000FF0F5FEA36823F08043A360A368A360C5
:100F4800A36843F00043A36023469968594A0029DF
:100F58002FDAFAE7013B092B3FF61AAADBF84C0017
:100F680028602946484606F031FE4FF40063C9F868
:100F780018303C200FF0D3FE9AF88F319845BFF611
:100F880001AADFF8209108234FF4006BC9F8183044
:100F980078200393A9F828B00FF0B6FE039BA9F8B0
:100FA80028307820C9F818B00FF0AEFE08F1010813
:100FB800E2E79368404923F040539360936843F015
:100FC8000053936088683D4B034043F468338B605B
:100FD800D1683B4B0B4043F40053D360146B09F1C9
:100FE800FF3924F00F0449EA0404146301230024A0
:100FF80029198A78002A75D05E1C042B2A5DC878C6
:101008002C4FF6B20ED803EB4303396B5B004FF05D
:101018001F0E0EFA03FE21EA0E0102FA03F30B4338
:101028003B632CE0092B0DD80621053B4B43D7F831
:1010380034E01F2199402EEA010102FA03F30B4321
:101048007B631CE00E2B4FF006010CD80A3B4B4388
:10105800D7F838E01F2199402EEA010102FA03F37C
:101068000B43BB630BE00F3B4B43D7F83CE01F211E
:1010780099402EEA010102FA03F30B43FB63092AA4
:101088000C4B1FD90A3A99699F6902EB4202072162
:10109800914027EA01019961996990400843986154
:1010A8001FE000BF0004004808040240400100504F
:1010B8004C2100200001005000030050E010FCFF0C
:1010C80007C0FFFD013A59695F6902EB4202382106
:1010D800914027EA01015961596903329040084358
:1010E800586133460434102C82D19D4B9A6842F0E3
:1010F80001029A601A461168994BC907FBD5DA684C
:10110800984C22F00202DA60DA6842F00202DA60F1
:10111800DA6842F00102DA609A6842F004029A60E2
:10112800B4F85831002B41F0C380B4F95A21002A91
:1011380041F0BE80B4F95C21002A41F0B980D8F8AA
:101148000030894F13F4003F1FD0C8200FF0E7FD8F
:10115800AE2009F01DF808B111F084FC834D87F822
:101168007901C8200FF0DBFD814BC7F87C310021E5
:101178000C22284614F0EBFD0223EB700EF08DF9DB
:101188000FF0A6FD7B4B0344AB607B4B7B481B6891
:10119800754DB3F86230049300210C2294F85FB1C6
:1011A80094F8676194F8689194F861A114F0CFFD00
:1011B80000211422724814F0CAFD002387F88031F8
:1011C800194685F881310C2205F5C270059314F093
:1011D800BEFD6C4AC7F8902123200FF0A0FD7520B2
:1011E80001210DAA08F068FD059B002863D0664A16
:1011F800C5F88821654AC5F88C21432285F88421E1
:10120800184601210EAA08F057FD9DF8383003F062
:101218007E038DF8383040B1682B06D1012385F85C
:1012280080311D2385F8843145E09DF8343003F082
:101238007E03682B8DF8343038D10223062087F8D6
:1012480080310146D7F888311CAA98479DF8751057
:1012580001F001029DF8731001F001014B0043EA0F
:1012680082019DF8712002F001030B430BD05BB2A1
:10127800012B01D1002202E0022B10D101223A4BAE
:1012880083F8812117E0384B0C20D3F888310121ED
:1012980010AA98479DF8403013F00F0303D103209C
:1012A8000FF0D6FD07E0042BE8D1E3E7702B04BF6D
:1012B800042387F880312C4D354995F88021002387
:1012C800022A0B7012D12E4B3248186032485860EF
:1012D8003248D8603248186104230B70314B3248C9
:1012E8001968027041F001021A6003E001200FF052
:1012F800AFFDCDE15A460A2A28BF002201239340B8
:1013080040F2B23E03EA0E0EBEF1000F18D113F000
:101318004D0F15D0194B254A1A60254A5A60124AB2
:1013280092F88121002A0CBF6F226E221A72214B7B
:1013380004221A700323194343701A4B196006E0FC
:10134800012A4FF0000BD5D81A4B83F800B0B9F139
:10135800040F00F2D780DFE809F02FE09E2F9E00EF
:1013680000010050A429002018040020F81E0020C5
:101378002A2B0020404B4C00081300202438002062
:10138800F838002074750108C19C0008F39A000819
:10139800BA090020699E0008459A0008299A0008A1
:1013A80090C1793DBC120020A3030020CD9E000807
:1013B8008D9A00086B3900200A200FF0B0FC7720C6
:1013C800A021012210AB06F017FD002863D01E21D2
:1013D8000122772006F08CFD4FF42F600FF094FC6B
:1013E8004FF0000BABF160014FF00009C9B20222C7
:1013F8001CAB77208DF870908DF8719006F0FCFC8E
:101408009DF871309DF8702043EA0222714B03F574
:10141800CA712BF801200BF1020BBBF1100FE1D1BF
:10142800B3F8A22102F00F0C02F47F42A3F8A22124
:1014380001204B464946DFF89C9121F0010ECE442D
:10144800BEF894E1BEF1000F18BF002011F0010FA3
:1014580006D05FFA8EFE83EA0E034FF0080E02E014
:1014680083EA1E23F9E713F4004F18BF83F4C0532F
:10147800BEF1010E4FEA4303F5D101311029DAD14B
:10148800544942EA0C02A1F8A22120B9C3F303335C
:101498009C4500F0E886DFF83C9199F8A4B1BBF1CF
:1014A800000F40F0F38614200FF039FC09F2A51361
:1014B8007620D021012206F09FFC99F8A531582BFF
:1014C8002BD109F5D47388211822762006F094FCD4
:1014D80031227620F42106F00BFD012389F8A4318E
:1014E8003D4B3E4A9A603E4A5A6045F6D8125A80A9
:1014F8003C4ADA603C4A1A613C4AA3F800B05A6197
:1015080000F0C4BEB9F1010F07D0394B394A83F84E
:101518000290136843F004031360364B1A6812F004
:10152800020F994602D0344B1B689847BAF1000F56
:10153800DFF8A0B00BBF032200227D234FF47A739B
:1015480002FB03338BF8C4212C4A13602C4B504602
:101558001B689847DA462B4A0023022E137004D0E2
:10156800032E1DD0002E40F0958600238DF8703094
:10157800254BCAF8C8311E200A2101221CAB06F0EF
:101588003BFC68B19DF87030482B09D11F4B204AAD
:101598001A60204A5A601B4B04221A7002233FE04B
:1015A8004FF0000B0C20594601221CAB8DF870B08F
:1015B80006F022FC58B19DF87030482B40F0E786C1
:1015C800124B154A1A60154A5A60032328E08346CD
:1015D80000F0DDBE180400205C2200206598000899
:1015E80067980008D59A0008999B0008A1960008FA
:1015F800A3030020BC12002024380020E42100208E
:10160800F8380020673900208C750108B4230020C1
:10161800F99E0008FF9A0008D79C0008E59B00087F
:10162800C64AD370D9F8003043F00803C9F800302F
:1016380094F855310BB1C24A137094F856310BB176
:10164800C04A137094F857310BB1BF4A1370D9F8D8
:101658000030BE4913F0080F00F02286BDF91000D3
:10166800DFEDBB6A642290FBF2F302FB130212B2B5
:1016780007EE902AB8EEE77A07EE903AF8EEE77AA6
:10168800E7EE267AB2EE047A67EE877AC1ED007A41
:10169800B04A137843F002031370AF4B08229A61E3
:1016A8000A26DFF8B492B9F814309BB283F0080325
:1016B800A9F8143019200FF032FB01200FF058FB65
:1016C80019200FF02CFB013E00200FF051FB16F003
:1016D800FF06E6D10823A14EC9F818303368190768
:1016E80005D59F4B1B6898479E4B01221A709E4B4D
:1016F8009FED9E8A1B681B7B00EE103AB8EEC00A6D
:1017080020EE080A09F07AF9994B9FED9A7A83ED51
:10171800000A994BD3ED047A984B67EE887AC3EDAB
:10172800007A974B1B8807EE903AF8EEE77A954BCC
:10173800C7EE277A9FED947AC7EE877AC3ED007AD1
:101748000FF0E4FD914BFF2118461C2214F0FFFA1C
:101758000346D6F800E08E4900201870184601228A
:101768001EF0020F0A701FBF427003220A70022285
:1017780018BF82700A781EF0040F4FF01B0C00F897
:1017880002C00B4618BFDFF808C202F10101C9B256
:1017980018BF023219701FBF8CF800207B4A4FF027
:1017A800030C02F801C01EF00A0F0ED01A780421AB
:1017B8008154511CC9B24FF0050E00F801E0D11C4C
:1017C8000232D2B2197006218154D8F800108A0664
:1017D80041BF1A7802F1010E83F800E04FF0070EBE
:1017E80048BF00F802E00A060ED51A784FF0090E35
:1017F80000F802E002F1020E0132D2B283F800E0F2
:101808004FF00A0E00F802E094F805E0BEF1080F68
:1018180002D0BEF10E0F08D11A7802F1010C83F83C
:1018280000C04FF00B0C00F802C01A7811F4803F8A
:101838004FF00C0800F8028002F1010C1CBFDFF821
:10184800508102325FFA8CFC83F800C01FBF88F811
:1018580000204E4A4FF00E0802F80C804A0741BF9C
:101868001A7802F1010C83F800C04FF0100C48BF41
:1018780000F802C01A7802F1010C5FFA8CFC4FF0F4
:10188800120811F4806F83F800C000F802800ED0AF
:1018980094F81C82B8F1000F09D0DFF8F480023206
:1018A80088F80020394A4FF0130802F80C808A059E
:1018B80041BF1A7802F1010C83F800C04FF0150CF3
:1018C80048BF00F802C0BEF1180F14D11A784FF0C3
:1018D800160C00F802C002F1010C5FFA8CFC4FF004
:1018E800170800F80C8002F1030C0232D2B283F818
:1018F80000C000F802E00A0341BF1A7802F1010EA5
:1019080083F800E04FF0190E48BF00F802E0CA055E
:1019180041BF1A78511C19701A2148BF81541A788E
:10192800511C19701423835400219822194814F06B
:101938000EFA0FF0ECFE184B184931E0A303002013
:10194800BA0900206B390020673900204C0A0020B2
:101958008988883CB025002000040048BC1200207B
:10196800B4230020CC230020140A002035FA8E3C32
:10197800500A00200AE81C41F83800203C0A0020E0
:10198800080000208823002000401C46C9120020BF
:10199800C81200200C290020F41000202A2B002057
:1019A800DFF858C31960B44BB4F84E21B348CCF8EB
:1019B8000010B3491A800023B24AD0F800E00B7037
:1019C800B4F89411138093701FFA81F80EF1850210
:1019D8008246DFF82C93DFF82CC3D9F80000DFF833
:1019E80028B32CF8138000F596704BF823000133C8
:1019F800122B6046EDD1A44B0493D3F800C01CF41D
:101A0800805F08BFB4F89C81A0F806800EF1D50E5F
:101A18001378E3B9937892F80380434517D23BB122
:101A2800013B03EB830303EB830303F5617307E0D7
:101A380008F1010808EB880808EB880808F56173C5
:101A480092F8018008F104089BB220F8183004329B
:101A58007245DDD11CF0080F00F0BC8094F88E317F
:101A6800062B00F2B180DFE803F004070E35507052
:101A7800700045F2F05201E042F6F822834B1A80DA
:101A88000FF0F5FE9FE0814B42F6F8221A8009011B
:101A98000A2391FBF3F10023A1F5B0617C4A42F8D7
:101AA80023100133122BF9D17A4A7B4911607B4A02
:101AB800402013700AF070F8002800F08580012398
:101AC8004FF0070B90F90000754A8DE8080840218F
:101AD800744B73E06D4B42F6F8221A806D4B724AD4
:101AE8001A606E4B102240201A700AF055F8002830
:101AF8006AD001234FF0000890F900006B4A8DE886
:101B0800080140214FF4E13358E0604B42F6F822D7
:101B18001A80604B664A1A60604B082240201A708F
:101B28000AF03AF800284FD001234FF0000C90F942
:101B38000000604A8DE8081040214FF4E13309F0B5
:101B480001FF5D4BC3F8CC013AE0504A5B4C5C485E
:101B580042F6F821118051490C22062B0A700FD049
:101B68005849002323700B700370574B1B211970C1
:101B7800564B1A70564B05221A704FF4E1340CE09C
:101B8800002101704F48217001704F49514C2120AC
:101B980008704E490A704E4A13703E4B4E4A1A60FE
:101BA800402009F0F9FF78B101234FF0000E4B4AAD
:101BB80090F9000040218DE80840234609F0C2FE54
:101BC800003018BF012028B9082008F03FFF314B2A
:101BD800434A1A602C4A1368904613F4804F2F4AE0
:101BE8001FBF4048122111702A4918BF086042F2ED
:101BF8000101194003F0010003F4005481B12349A5
:101C080044F6206EA1F800E024B1082111702149A2
:101C1800354C0C6020B10C2111701E493348086006
:101C280011781806A1F10401517040F1A480DFF881
:101C3800DCB02F4CC7F8D0B10027394615222D4803
:101C480067706760A76014F082F82B4A0592ABF1C1
:101C58000503384613600AF051FED9F80030E360F6
:101C6800022009F099FF059A1746002850D18020D4
:101C780008F0ECFE77E000BFF81000200813002001
:101C8800C0100020F8210020FC3100207C0A002030
:101C9800EC1F0020840000209DE50008B4310020DE
:101CA80025E80008A086010089E5000879E7000812
:101CB80071E500082DE70008180400207A1F0020AD
:101CC80079200020782000207A200020791F002029
:101CD8007B20002090D0030099E4000805E6000866
:101CE80001E60008D1E50008F1E50008E1E5000893
:101CF800D0230020EC050020F0230020E82100205C
:101D0800F4210020E628002078100020962B0020DF
:101D180090F805E06378C84A0C2101FB0321497853
:101D2800714504D00133DBB2042BF4D9002363706E
:101D38003B6890F900001B78002B63784FF00C0487
:101D480004FB032214BF03210121537800910022D0
:101D58000192022109F0F6FDB84B1860002886D0E0
:101D680001200AF0CBFDDAF80000B54B00F5CB7284
:101D78001A600AF0DBFED8F8003013F4007F1CAFBD
:101D880057D0B04C039B2360AF4BB0485A6942F41C
:101D980080225A619A6942F001029A61039B1B886A
:101DA800ADF838304FF0010A02230EA98DF83B3008
:101DB8008DF83AA005F00AFF2368A4485B88ADF8BF
:101DC80038304FF0000B0EA98DF83AB005F0FEFE42
:101DD80023685046197A0FF0A5FE236858680CF05E
:101DE8005DFD23685B681C93384610238DF87530B9
:101DF8008DF874B08DF876A00FF064FB23685B7AD9
:101E08008DF8403010A803238DF841308DF842B08A
:101E18008DF843A00FF038FBD9F800308C4A3C3BD2
:101E28001360336843F0100333608A4B4FF0FF327E
:101E38001A60894A894B1360894A8A4E8033136035
:101E4800D8F800300024D903347040F1AF8010F086
:101E580055FFDFF838C2DFF8F0A1CDF818C040F21E
:101E68002A334FF001091A4660462146059386F841
:101E7800009013F06CFFDAF814207B4E4FF090407E
:101E880042F40032CAF81420426A22F00F02426279
:101E9800426A032142F0060242624FF4807B02222A
:101EA8008DF83D100EA98DF83C2003928DF83E4028
:101EB800CDF838B08DF83F900CF00EFFDAF8181016
:101EC800039A41F40061CAF81810318821F45C7152
:101ED8000904090C31801D21F1623046328510A9B0
:101EE80034866022C6F814901092ADF846401294D9
:101EF800ADF84C40ADF84E40ADF85040ADF852400A
:101F0800ADF844900FF0D1FDB26942F00802B26119
:101F1800726C42F400427264DAF8142042EA090250
:101F2800CAF81420AAF6E47A50460CF0EEFC3846BB
:101F38000CF0C0FC059B4D4AADF87C3080231C9208
:101F4800DDF818C0219310224FF40053504639464B
:101F58002593CDF874C01E922094CDF888B02394B0
:101F6800249426940CF0B3FCF36843F40073F360F4
:101F7800DAF8003043F00203CAF800300DA80C2349
:101F88008DF834308DF835908DF836408DF83790CF
:101F98000FF07AFA364B1A68364B43F8242001348E
:101FA800202CF7D105F034FD05F032FDD8F80030CB
:101FB8005A0540F18180304BD5F814651E60042025
:101FC80009F0EAFD0421C5F8180509F0C1FD2B4BFD
:101FD80085F81C0508201E6009F0DEFD284B294CF9
:101FE8001860082109F0B4FD002185F81D052C2290
:101FF800204613F0ACFE8E2363704FF07C0AE0237A
:102008004FF07D09E37084F800A084F82B901E4CF3
:102018002C220021204613F09AFE8A236370102098
:10202800A023E37084F800A084F82B90C5F82065FD
:1020380009F0B2FD10212BE080850108F41E002074
:1020480058110020AC230020001002400004004872
:10205800A8230020341300208C150020D02B00204A
:10206800381F0020B8150020002C0140342C0140F6
:10207800A4750108BA150020AC140020E81400204B
:1020880030150020B8140020EC14002001060020B0
:10209800C5F8240509F05CFD85F828052020C5F859
:1020A8002C6509F079FD2021C5F8300509F050FDAF
:1020B80085F834050DF0C8F8B94A138823F04003B1
:1020C8001B041B0C1380138823F038031B041B0C00
:1020D800138013889BB243F04003138000249F238E
:1020E80032208DF840308DF841408DF842408DF80F
:1020F80043400EF014FE8DF87140AA4C4FF4805501
:1021080004222585384610A90FF088F9A5619DF8A5
:1021180072209DF87130120242EA03429DF8733032
:102128001A43A14B9A42A14B17D008D8A0498A421A
:102138000CD001F51A4102318A4209D01CE09D49B0
:102148008A4205D001318A4207D015E0202200E0FA
:1021580080221A804FF4807202E04FF480721A8055
:102168005A809A88198812029A604A43DA60924A19
:10217800012182F8351504E000221A805A809A60FD
:10218800DA60DC680CB3E40A26464FF00009A14582
:1021980009DA09EB04056D10E8023946102210F03F
:1021A8003BFC0F2806DC0AF025FF834BF602C3F838
:1021B80038650AE0002357F82320013274D101332F
:1021C800042BF8D12E462C46E1E7D8F800307B4A9C
:1021D80013F4002118BF01211170794A517905299A
:1021E800104602BF774A4FF4C8711180764A4FF4FF
:1021F8007A711180754AC821118075490A7842F0B0
:1022080008020A7073490A7822F002020A7040F63E
:1022180002021A406AB1704A70491160704A03217B
:102228001170704A012111706F4900220A806F49AC
:102238000A809B0341BF6E4B04221A71DA7844BFAF
:1022480042F00102DA70049A83681360694B012234
:102258001A70694A137863F07F03137031B0BDECCC
:10226800068BBDE8F08F654B42F210721A805A80D7
:10227800634A5A60634A9A60634ADA60634A1A6139
:10228800634A5A614FF00309FFF73FB94FF0040959
:10229800FFF73BB9012E7FF6CBA91E46FFF75BB9C6
:1022A80000230B60FFF7F4B905F1010925468AE719
:1022B8001BB208EE103AB4F95A31DFED567A564A95
:1022C80009EE103AB4F95C31B8EEC88A08EE903AD3
:1022D80028EE278AB8EEC99AF8EEE88A0021B0EE0F
:1022E800480A29EE279A68EEA78A117008F086FB3B
:1022F800F0EE409AB0EE480A08F01FFBB0EE408AB4
:10230800B0EE490A08F07AFBB0EE40AAB0EE490AEE
:1023180008F013FBF0EE40AAB0EE680A08F06EFB76
:10232800B0EE409AB0EE680A08F007FB60EE296A42
:1023380068EE097AF0EE665AE7EEAA5A374B29EEAC
:10234800296A28EE007AC3ED035AF0EE465A2AEEBF
:10235800400AE7EE6A5AE6EEAA7AA6EE6A7A29EE0B
:102368000A9A83ED010A28EE4A8A2AEE290A83EDA1
:10237800009AC3ED02AAC3ED045A83ED058A83EDE2
:10238800067AC3ED077A83ED080AFEF7D8BE012E58
:102398007FF64EA9224B002683F800B0FFF7E5B878
:1023A800003800400004004818BA20000C00002043
:1023B800152020001740EF0018040020D90F002036
:1023C800A42900200C1100205C3900205E3900206F
:1023D8004413002064390020342100201C2B0020E5
:1023E80022380020A7030020543800205638002047
:1023F800F81E0020D80F0020B02500205C22002005
:10240800E99A0008B19C0008DF9A0008A19C00081E
:102418006998000835FA8E3C7800002010210020C9
:10242800673900202DE9F04FA34D2B780E2B9CBF68
:10243800A24A34212DED0E8B98BF01FB032391B0E6
:1024480094BF9F6A00279E4C9E4EE36809A8984750
:102458009DF8243023B12B780E2B0CD900220FE0E5
:102468000EF036FC984B1B68FB1A1844336864332B
:102478009842E8D3EFE7914A342101FB03239A6A93
:10248800D6ED000A914BDFED928A924D92B2F8EEAA
:10249800600A07EE902A1A8060EEA80A8E4BB8EE02
:1024A800670A28460121C3ED000A07F0E3FFFCEEA6
:1024B800C07A8A4817EE903AAB816368874C984790
:1024C800AB4648B9864A874E116811F0020F90460C
:1024D80040F0C78000F02EBC2E692EB3A71E002541
:1024E800814805F1180200EB050C0244614606F12B
:1024F800FF3E002031F8028F21F8028C1EF9019F5F
:10250800914218FB0900F5D137F8022FACF81820D2
:1025180096F90C101A354E2D12FB01024FF48071FA
:1025280092FBF1F23A80DBD16C48704E9BF8622046
:10253800684D01460CF00CFC328805F1B009002A00
:1025480068D06A6E137808EE103A05F168074FF004
:10255800000874353088B0F57A7F02BF00223A60EF
:102568002A61396834F91820114407EE902A2A693B
:1025780039600132012A4FEA480AF8EEE77A2A61FF
:1025880006D10022C5ED017AC5ED007AAA601BE0EC
:10259800D5ED006A07EE102A37EEE66AB8EEC77A7C
:1025A80086EE077A36EE877AD5ED026A85ED017AEE
:1025B80077EEC77A85ED007AE6EE276AF0EE667A5E
:1025C800C5ED036AC5ED026A0022012824F80A2035
:1025D80029F80A2029D12A69012AC3BF02F1FF3349
:1025E80000EE103AD5ED037A9FED410AC4BFB8EE6C
:1025F800C00A87EE800A14F001F818EE103A5BB1B1
:10260800F8EEC87AB4EEE70AF1EE10FA04DD4FF4FA
:102618007A723280002219E03A684FF47A7102F532
:10262800FA7292FBF1F229F80A2008F10108B8F1D0
:10263800030F07F1040705F114058BD13088012831
:1026480001D10EF0B3FB3288013AE2E734F81210F8
:1026580039F81200091A24F812100132032AF5D1A8
:1026680030E7244A1278002A00F064830EF030FB29
:10267800DBF8B820CBF8B800831A09EE103A002529
:10268800DBF8BC3004931978DFF870A0C1B336F9D1
:102698001530194A00EE103AF8EE490A0C2000FBF2
:1026A8000520B8EEC00A60EEA80A07F0E3FEFDEECA
:1026B800C07A17EE902A25E0A20300208C000020A3
:1026C800F8380020E42100205C230020B01200200C
:1026D800BD378635580900203C260020EC12002022
:1026E800BC120020103900206C0900205C39002041
:1026F8000000000040390020180A0020E6120020DF
:1027080036F815202AF815200135032DB8D1BAF866
:102718000260BAF80050BAF8047016FB06F215FB0E
:10272800052217FB072264215143C64A12885243E7
:1027380091FBF2F2D8F80010A2F1520307930B07AD
:1027480009D5C14AB2F9000028B1B2F9020010B1A6
:10275800B2F904207ABBBD4A107800F010027AB3AF
:1027680011F020022CD000F0020149B3B84A1278C7
:10277800042A25D9B74A1288B2F5967F20D3B64ADB
:10278800B2F90430B54A07EE903A1388B8EEE77A02
:1027980007EE903AF8EEE77AB2EE048A87EE888A76
:1027A8004FF001094FF0000877EE487A9FEDAC8AA8
:1027B80027EE888A09E04FF000094FF0010802E08F
:1027C8004FF00009C8469FEDA78AB4F90030DBED49
:1027D800395A9D480AEE903AB4F902300BEE903A15
:1027E800F8EEEBBAB4F9043044886BEEA5BAF8EE0B
:1027F800EAAA0BEE103A6AEEA5AA2BEEAB0AB8EEDF
:10280800CBBAAAEEAA0A038805932BEE25BAF8EEEE
:10281800497A83880693ABEE0B0A67EEA88A13F011
:10282800EDFEF0EE40CAB9F1000F22D0DFED8E7A4E
:10283800B4EEE78AF1EE10FA04DDDFED8C7A38EEBB
:10284800678AF3E7DFED8A7AB4EEE78AF1EE10FAE9
:1028580004D5DFED867A38EE278AF3E7B6EE000A6C
:1028680028EE000A08F069F89FED7ECA30EE0CCA1F
:1028780001E09FED7CCA9FED7BAADFF80892F7EE96
:10288800009AB8F1000F56D0BDF91430DFED797A0F
:1028980007EE103A23B208EE103ABDF91830F8EEF8
:1028A800C7DA00EE103AB8EEC88AB8EEC0DA2DEEF4
:1028B800AD0AA8EE080AADEE0D0AB4EEE70AF1EE8D
:1028C80010FA38DD13F09AFE89EE800AD9ED017A04
:1028D800D9ED006A28EE008A2DEE807A68EE277A14
:1028E8002DEE000AE6EE877AD9ED026AE6EE807AE6
:1028F800D9ED046A28EE268AD9ED036AA6EE878AFE
:1029080099ED057AA7EE008AB0EE4ADA28EE080AB1
:10291800A7EEA70A13F072FED9ED067A20EE480A50
:10292800A7EE80DAD9ED077AA7EE80AAD9ED087A62
:10293800A7EE80CA01E0B0EE4ADA079B262B3DD805
:102948002DB207EE905A36B2B8EEE78A07EE906AD3
:1029580028EE080AF8EEE7DA3FB207EE907AADEE15
:10296800AD0AB8EEE7EADFED437AAEEE0E0AB4EE52
:10297800E70AF1EE10FA21DD13F040FE89EE800A35
:10298800D9ED076A99ED087A2EEE00EA6DEE80DA45
:1029980066EECE7A28EE008AEDEE877A27EE487A40
:1029A8003DEE27DAD9ED067AAEEE277A67EEED7AB4
:1029B8003AEE07AAE8EE267A3CEE27CA049BD3ED46
:1029C800017AF5EEC07AF1EE10FA4FF000011FDD42
:1029D8009FED297AF4EEC7CAF1EE10FA1ED567EE1C
:1029E8008D6A9BED3A7AA6EEA87A67EE8A6A8BED35
:1029F8003A7A9BED3B7AA6EEA87A67EE8C7A8BED55
:102A08003B7A9BED3C7AA7EEA87A8BED3C7A05E001
:102A1800CBF8E810CBF8EC10CBF8F010174C049B6F
:102A28002178D3ED027A4F072ED41549086844F669
:102A38001F618842F7EE005AB2EE047A98BFF0EEB2
:102A4800475A23E008000020F21200204413002017
:102A58004513002052130020241300205413002093
:102A680035FA8E3C00000000DB0F4940DB0FC940FF
:102A7800DB0F49C00AD7233CC2B8B23E64390020F4
:102A8800F4210020B0280020F7EE005A67EEA55A7E
:102A9800DBED3C6A9BED3A7ADBED3B7AC34EDFF81F
:102AA800488396ED004AC24FD8ED003AC14D9FEDDC
:102AB800C28AD5ED004AE5EE8C6AA5EE8D7AE5EE80
:102AC8008A7A3BEE26BAF6EE006A68EEA66A7BEED4
:102AD800A77A3AEE877A27EEA66A27EE267A6BEE71
:102AE800266A26EE445A24EE260AD7ED007AA3EE8B
:102AF800870AA7EEC75AF1EE645AA5EEA65AA5EEC4
:102B0800860A66EEE75A37EE800AE3EE865A67EEE3
:102B1800867A33EE855AE4EE875AE3EEA67A87ED95
:102B2800000A20EE000A74EE255AA5EE050AE4EE26
:102B3800477AA5EEA50A74EEA77AC6ED005AA7EE65
:102B4800A70A88ED005AC5ED007A13F057FD89EE03
:102B5800800AD8ED007AD5ED009A67EE807AC8ED44
:102B6800007AD7ED007A67EE807AC7ED007AD6ED65
:102B7800007A67EE807A29EE800AC6ED007A85ED44
:102B8800000A0EF0C3FBD9ED080A99ED070A8B4D30
:102B980013F090FB20EE080A13F0E8FA99ED060A04
:102BA8002880B1EE400A13F027FBDFED857A37EE77
:102BB800C00A20EE080A13F0D9FAD9ED000A99EDF7
:102BC800030A688013F076FBDBED3D7AE0EE487A85
:102BD800B0EE670A13F0CAFABAF90030D9ED085A0C
:102BE800DBED3E7A99ED010A99ED065A06EE103AA8
:102BF800BAF9023007EE103AB8EEC77AB8EEC66AEC
:102C0800F4EEE75ABAF90430D9ED007A27EE000A53
:102C180006EE903AA7EE860A81B20E04F8EEE66A4E
:102C2800D9ED027A58BFA980A7EEA60A48BF00F5D9
:102C380061606449D9ED077A049B48BFA88067EEB4
:102C4800277A08785A78E5EE067AF1EE10FAE5EE7A
:102C5800A67ACCBF40F0080020F00800D9ED045A4D
:102C6800087027EE257AD9ED035AA5EE867A012A4F
:102C780099ED056AA6EE267AF1EE479A1AD12278DE
:102C880054070FD4DBF8FC20402192FBF1F1531AD2
:102C980007EE103AB8EEC77A37EE277ABDEEC77A54
:102CA8008BED3F7ADBF8FC20402192FBF1F207EE36
:102CB800102A03E0444A138807EE103AB8EEC77AA0
:102CC8009BED408A414C77EEC77A9BED417A38EE0E
:102CD800877A77EEC87AC8EE878AA8EEA78A8BED3E
:102CE800408A13F043FADBF80851297807F016FEFA
:102CF8002368B0EE690A1844206013F037FA29787F
:102D080007F00CFE6368B0EE480A1844606013F0E0
:102D18002DFA697807F002FEA3682D4A184419EEC7
:102D2800101A1368A060194411602A4A1368013305
:102D3800136003E0002333807380B380264BB3F91C
:102D48000610264BD3F800E0BEF80A2091420FDBAC
:102D5800B1F5FA6F9EF80750BDBF8B1A6B43A2F509
:102D6800FA65C5F16405BCBF93FBF5F5643500E071
:102D780064251B4B1B4AB3F894C193F95E31126862
:102D880004929BB2164605930022134B33F9128026
:102D9800CCEB080303F2F31440F2E63084424FEA26
:102DA800420923D8002BB8BF5B4221E0A8280020A5
:102DB800A4280020AC2800204C3D0F4424130020F8
:102DC800DB0FC93F44130020080000207C230020AB
:102DD8004439002078230020E628002040130020F2
:102DE800A429002008130020800000204FF4FA7363
:102DF800022A049C4FF064002AD094F81D411CB1AB
:102E0800A342CCBF1B1B0023BA4C93FBF0F76FF017
:102E1800630B34F817A00BFB073B013734F9174055
:102E28000FFA8AF7E41BB44F04FB0BF494FBF0F49D
:102E3800544427F809400EEB020424796343AF4C4D
:102E480093FBF4F364339BB26B4393FBF0F02CE0F9
:102E580094F81E411CB1A342CCBF1B1B0023A84CF5
:102E680093FBF0F06FF0630A0AFB003B04EB4007AA
:102E780004EB4000B7F90C71B0F90E01C01B00FB60
:102E88000BFBBDF814009BFBFAFBC7EB0B0717FB0A
:102E980000F7994887809EF80600002BB8BF5B4270
:102EA8004343964893FBF0F064307478954B64275D
:102EB800444394FBF7F49C5403F1030AF47A444323
:102EC80094FBF7F40AF802400633747D022A00FBEB
:102ED80004F0894C90FBF7F098548B4B0DD1E045EA
:102EE8009F700DDB894EB6F89621914214DBB1F53F
:102EF800FA6FA8BF4FF4FA610FE0E0459D5404DA79
:102F080034F809305B4224F809300132032A06F10B
:102F180001067FF43AAFE5E71146DFF834E2764D73
:102F2800891A4FF47A736FF063005943C2F5FA6255
:102F38006423B1FBF2F191FBF3F23EF8127000FB4F
:102F48000211013238B23EF91220121A514391FB94
:102F5800F3F33B44E3806E4B1B88580639D56D4B21
:102F6800DFED6D7AB3F904300A2293FBF2F36B4A72
:102F780012889B1A1BB208EE103AB8EEC88A28EEDF
:102F8800278AB0EE480A07F039FDF0EE408AB0EE25
:102F9800480A07F0D2FCB5F9023006EE903AB5F9C6
:102FA8000030F8EEE66A07EE903A20EE667AF8EE20
:102FB800E77AA7EEA87A67EE807ABDEEC77AE6EEE2
:102FC800A87A17EE103AFDEEE77A2B8017EE903AC2
:102FD8006B8096F89A31002B55D0494BB3F82401F1
:102FE8009B89B0FBF3F0464B451CADB2A3F82651C4
:102FF8004B4B1B781BB3424BB3F828910023404F2F
:1030080034F813C007F5997E07F595783EF8132034
:1030180038F813102EF813C0C2EB0C0A11FB09F193
:103028002AB291FBF2F2524428F813200133042B00
:10303800E5D13B4BA7F8280100221A7006E0304B77
:103048002F4AB3F82831013BA2F828312C4AB2F8AC
:10305800280103B2002B4FF0000312DDB2F926510C
:10306800304931F81320083112FB00F231F81310FF
:1030780092FBF5F28A1A24F813200133042BEFD1BE
:1030880001E0A2F82831284A284D137813F0040FDC
:1030980003D0274B08221A856AE026490968C90720
:1030A8005CBF43F001031370234B24491B781F07AF
:1030B8005EBF137823F0010313702B6813F0040F1D
:1030C80002D01F48008870B91E48008808B19807C8
:1030D80009D41D4B1B88003318BF01231BB91B489B
:1030E8000088642836D902230B70137823F0010373
:1030F800137034E0AA150020242600200CFEFFFFE0
:1031080058090020720A00202C260020A42900203B
:10311800C01200202413002035FA8E3C52110020E2
:10312800E0110020820A002064390020BC1200202F
:1031380000040048C4120020441300201C22002070
:103148005E3900200C1100205C3900202038002056
:10315800921500201278D20758BF02230B700DF089
:10316800B7FDB14B1B68C01A002801DB0BF04AFF02
:10317800AE4B9B680BB1AE489847AE4BDFF810B327
:1031880001221A702A6812F0080F3BD0A188AA48B9
:1031980001F10E039BB21C2BA84BB3F904302DD8B8
:1031A800A74F3F887F0729D500880A2793FBF7F3A5
:1031B8001B1A9BB29FB238B2B330BCBF03F5B473CD
:1031C8009FB23BB2B32BC4BFA7F5B4739FB29D4B5C
:1031D80096F85E011B781B0714D540B2404217FBD6
:1031E80000F3DBF80000407A9BB213FB00F36FF0AA
:1031F8001D0093FBF0F31944A18003E00A2193FB1F
:10320800F1F3038012F0140F8F4F6DD08C4B1B8895
:1032180003F40273002B67D08A4B1B7803F010036A
:1032280003F0FF0E4BB1894B96F9EC21B3F900106E
:10323800638801FB0233638056E0D7F83C21844B56
:10324800D17884489278B0F90000B3F9063001B318
:10325800191A0029B8BF4942914210DD7E498342BC
:10326800C1F800E04FF00101C8BF534287F8401190
:10327800E188CCBF9BB293B20B44E38034E097F86B
:1032880040311BB3754B87F840E11A68744B1A60DC
:103298001CE01B1A83EAE37EAEEBE37E96450ADD6B
:1032A800022293FBF2F36F4A13606F4A01231370F3
:1032B80087F840310AE097F840313BB1674B87F80F
:1032C80040111A68664B1A60674B19705F4BD7F844
:1032D80044111B680A8849880344934203DB8B42E4
:1032E800A8BF0B461A46E280604B1B78ABB1584B1F
:1032F800B3F90620B6F896319A420EDC5C4B5B793E
:10330800012B01D0192B02D196F8E6212AB90E2BF0
:1033180003D0082B1CBF0023A380DBF8003093F8F0
:103328002481B8F1000F33D0454B1B889B072FD061
:10333800504BDFED517A93ED080AB4EEE70AF1EE4F
:1033480010FA21D912F058FF3F4BD3ED527A20EEF4
:10335800270A12F00BFFB0F5617FA8BF4FF4617028
:1033680007EE900AB8EEE70ADFED447A80EE270A06
:1033780007F0E3FA07EE908AF8EEE77A27EE800A7C
:1033880012F0F4FE80B200E00020E3881844E080E8
:103398002B68980640F1DA80294B1B8803F030032C
:1033A800002B00F0D380274B1B78D90740F1CE8043
:1033B800224BDFED337AB3F904300A2293FBF2F3A0
:1033C80008EE103AB8EEC88A28EE278AB0EE480A06
:1033D80007F0B3FAF0EE408AB0EE480A07F00EFBA9
:1033E800284B29491B68294A93F803A0B0EE409A54
:1033F800B2EE048ABAF1000F00F08680DFF89490EC
:10340800B1F90200B9F8025005922BB2C01A049122
:1034180009F030FBCAF1000398420499059A3BDB96
:103428005045A8BF504638E020220020F838002038
:10343800920A0020E11100205011002024130020DE
:10344800C01200204413002058090020A0230020A7
:10345800E6280020E21100209C2300202C130020E5
:103468006C13002048390020A4230020020000200B
:10347800A4290020B02800208FC2753CEFB6B044C4
:1034880035FA8E3C58110020DC11002060390020EC
:1034980008130020D8110020184600EB0508B9F8D9
:1034A8000050B1F90000059229B21FFA88F8401AB5
:1034B8000493A9F8028009F0DDFA049B059A984262
:1034C80003DB50450346A8BF53461D44ADB2A9F8D7
:1034D80000502DB207EE105A0FFA88F8B8EEC70A56
:1034E80007EE908A28EEC07AF8EEE77A20EE090A0D
:1034F800A7EE897AA7EEA80A87EE087ABDEEC77A02
:1035080017EE103A13801AE0B1F9023007EE103ABC
:10351800B1F9003000EE103AB8EEC00AB8EEC77A3A
:1035280068EEC07A20EE090AE7EE097AA7EE280AC3
:10353800C7EE887AFDEEE77A17EE903A138080EEB0
:10354800080AFDEEC07A17EE903A5380B64B1B7806
:103558004BB1B64B00221A605A609A60B44B0022F5
:103568001A605A609A60B34BDBF80000B6F86A211B
:103578000093B14B1D68B14B196800F16403A8476B
:10358800AF4B1878AF4B032818D9D7F84C21B2F8AD
:1035980002E0BEF5FA7F11D2B4F90450B3F904C0C1
:1035A800002DB8BF6D42CEF100014A1B944504DBE3
:1035B8000EEB05026245A8BF62469A80A24A1268CD
:1035C80012010CD50021D7F84C91B3F802C0B3F81A
:1035D8000080B3F904A09D4D0A460F467FE09C4A3F
:1035E800126812F48052EDD19A49E5880A70B3F84E
:1035F80002E0B3F800C0D7F84C71B3F904809649DB
:10360800824201F1100180F0DB8097F9003051ED22
:10361800045ADFF854925B4208FB03F307EE903A32
:103628000FFA8CF306EE903A2BB206EE103A0FFA28
:103638008EF3B8EEE77A07EE903AF8EEE77AB8EE4E
:10364800C66A67EEA57A51ED065AE6EE257AF8EED7
:10365800E66A11ED056AE6EE867A51ED036AE7EE51
:10366800267AFDEEE77A17EE903A29F81230013201
:10367800C6E799F9003095ED016A5B420AFB03F34E
:1036880007EE903A0FFA8CF306EE903A0FFA88F3A9
:10369800B8EEE77A07EE903AF8EEE77AF8EEE66ADF
:1036A80067EE867A95ED026AE6EE867A0DF1240ECB
:1036B8000FFA82FBD5ED036AE7EE267AFDEEE77A8C
:1036C800CDED047ABDF810302EF817300FFA83FECE
:1036D800DE4507DD1A460B46013710351946874285
:1036E800C7D305E00FFA81FBDE45F5DB1346F1E7AA
:1036F8005A4B584D1B685F88B3F800E0521ACEEB5E
:10370800070189B20BB212B29A424FF0000315DDDD
:103718004FF0010C85F800C083420BD20DF1240C48
:103728003CF8135015FB01F595FBF2F52CF81350F6
:103738000133F1E71FFA8EF5BAB208E02B700221C7
:1037480092FBF1F20EEB0203BA1A9DB292B2E7882D
:103758000021814234D209AB33F9113007EE903A97
:103768003BB206EE903A394B03EB0113B8EEE77A19
:10377800F8EEE66AD3ED007A2BB266EEA76A07EE9A
:10378800903AF8EEE77AF4EEE76AF1EE10FA0BD425
:1037980013B207EE903AF8EEE77AF4EEE76AF1EE44
:1037A80010FAD8BFF0EE667A77EE277ADFF8B8E03D
:1037B800FDEEE77A17EE903A2EF811300131C8E79E
:1037C800274BDFF87CE01A7802F0040202F0FF03CE
:1037D80012B99EF80020A0E0224B1D49DB78059322
:1037E800194B186810F0006304933FD10B68DD048F
:1037F80018D41D4A9EF8007013880125BD420FFA9F
:1038080083FC07D232F915306345B8BF63469BB2D3
:103818000135F3E7114A12685288944526DD9A1A51
:1038280092B224E0049A22E0040000204C260020F2
:10383800D43800202A2B00209C03002040130020AD
:103848000827002088260020C4120020A80A00208B
:10385800FC31002068390020B00A00202828002008
:1038680064390020F82100200C13002000220B6886
:10387800AD499EF800B0B1F90650AC49D1F810C274
:10388800AB4903F480590F68AA4903F01003069363
:10389800A94B096803EB4B0B5B4535D0049850B92D
:1038A800B9F1000F40F07784B3F800E0C2EB0E0ED8
:1038B800A3F800E003E0B9F1000F40F07784059821
:1038C800B1F80280B3F900A040B1B1F804E0F245C4
:1038D80016DBC245D646A8BFC64611E0B1F800E0DF
:1038E800F24503DBC245D646A8BFC646A3F800E0AA
:1038F800BCF810E0754505DA069818B1B1F804E08F
:10390800A3F800E00233C7E7884890F81432013B77
:10391800DBB2182B00F2448109E09342F4D28749C4
:1039280031F81300844921F813000133F5E7012227
:103938009A40834B1340002B00F03281814B7A4927
:103948001B8813F4807F07D02388ADF82430638860
:10395800ADF82630A38815E07B4B1A88ADF82420F3
:103968005A88ADF82620794A9B881268ADF8283025
:10397800D40409D5D0F81022B1F90640D28994426E
:1039880002DA5B42ADF82830714CB4F902304FF4DA
:103998007A7203F5E16353434FF4616093FBF0F3EC
:1039A800A3F5FA73ADF83C30B4F9003003F5E163E0
:1039B8005A43614B92FBF0F21B88A3F2DC53ADF83B
:1039C8002A305A4BA2F5FA72D3F81032ADF83E20DD
:1039D800DB890A88D21AADF82C204A88D21AADF8A9
:1039E8002E208A88D21AADF83020CA88D21AADF8AB
:1039F80032200A89D21AADF834204A89D21AADF891
:103A080036208A89D21AADF83820CA89D31AADF877
:103A18003A3000234F4A002122F813100133082BB3
:103A2800F8D14D4A4D4B126804924D4A1B781268E2
:103A38004C4905924C4D072202FB031B594500F0E7
:103A480095800B7833B103F1150201239340049A52
:103A5800134065D011F806CC059B11F805AC11F898
:103A6800034C11F8018CCCEBCC0E03EB4E0E64200A
:103A7800BEF90020BEF902309B1A9BB211F9022C44
:103A88004FEA53095A434FEA4A0792FBF0F210A84B
:103A9800C9EB020292B2074414B937F81C0C0CE0C7
:103AA800B5F9000037F91C7CB84208DA04448442AE
:103AB80003DBA7423846A8BF2046288008E007DD78
:103AC800041BBC4203DB8442A8BF044627462F8060
:103AD800DEF80A4011F9047C012000FA0AF02042BD
:103AE800288812B217FB00F014BF4FF0FF340124EE
:103AF800642790FBF7F090420ADB4FFA88F25A43AA
:103B080092FBF7F2C9EB020212B28242A8BF024648
:103B1800104B33F81C9002FB049423F81C4000E07F
:103B28002B800235073189E7E62800205809002054
:103B380024280020282800200C130020FA37002011
:103B480099209801C012002088260020FC3100200E
:103B580024130020F8120020C41200202C28002072
:103B68003C1F0020332800206E0B0020A34BA44FDD
:103B7800D3F8008000250E2202FB058237F8023FA9
:103B880092F90640E8B214FB03F3642493FBF4F4BF
:103B98003C800DF0A1FB01352044082D3880EAD186
:103BA800984B994D1A68954F12F0200F984632D0CD
:103BB80000200DF091FB2880044601200DF08CFBBD
:103BC800924B68801B68190625D5914B914AD3F80A
:103BD80038321B78012B22D13968138891F914E007
:103BE800B2F902201EFB03F34FF0320C93FBFCF3F7
:103BF8001FFA83FE91F906305B4253436FF031019F
:103C080093FBF1F10EEB0102A11893FBFCF3734453
:103C1800298018446880D7F800E0002318E0D7F816
:103C280000E053889EF9061011FB03F1322391FB43
:103C3800F3F12144298011889EF9142012FB01F226
:103C480092FBF3F21044E5E70133082B2A5311D015
:103C58000E2101FB03E135F91300B1F90020B1F998
:103C6800021090424FEA4304EEDB0AB28242A8BF38
:103C78000246E9E7664CD4F84CA19AF90830A3B992
:103C880094F8149209F1FF33182B72D8DFE803F087
:103C98003571714F717171487171717171597171AB
:103CA8007171714F657171593500DFF854B14FF07A
:103CB8000009594B3BF9021FBAF90620882000FB7E
:103CC80009300DF037F93A680E2380B203FB092258
:103CD800ABF80000B2F90030B2F9022000B2984205
:103CE80003DB13B28342A8BF034609F10109B9F106
:103CF800080FABF80030DCD1C2E79AF8043013B1F2
:103D08000020698908E0454B1B7803F0040303F0A1
:103D1800FF00002BF4D1014603F058FE012729E0EB
:103D28000020E98803F052FE0120298905E00020DF
:103D3800298903F04BFE6989012003F047FE022719
:103D480018E00227B81E35F81710C0B2013703F083
:103D58003DFE082FF6D106270CE00327F81E35F89C
:103D68001710C0B2013703F031FE072FF6D1042730
:103D780000E00027D8F800309A0602D4B9F1050F00
:103D88000AD13846298803F021FE781CC0B2698818
:103D980003F01CFE0237FFB2D8F80030DB0205D46E
:103DA80094F880367BB10DF0DDF90CE0DFF87890FF
:103DB80000257819C0B239F8021F03F007FE0D2D4F
:103DC800EED00135F5E7164B1878002840F00D8243
:103DD800D8F800301D0340F1088294F88136023B80
:103DE800052B39D80F4B93F80038FBB1012B23D1A1
:103DF80009F03EF9C0F17F001EE000BF3C1F002023
:103E0800F6120020FC310020F8120020C412002015
:103E18005809002024130020980B00206439002042
:103E280066390020A4290020EC280020AC4BD3F8E8
:103E3800840603689B689847D4F8883694F88C26DB
:103E48001344B3F5807FA8BF4FF480738342D4BF77
:103E5800C4F88836C4F8880694F88136023B082BE3
:103E680000F29281DFE813F009003F006200780059
:103E78009100A3001E01740181019A4B1A68D4F8BD
:103E8800943664339A4240F27F8140200EF060F904
:103E9800002840F079814027934BD4F89026904E23
:103EA800985C1D4670B104F023FFD6F88836013BB4
:103EB800C6F88836D6F89036013F03F10103C6F8F4
:103EC8009036E9D1D4F89026854BAA5C002A40F0B8
:103ED8005B81C3F890264FF0FF32C3F89426032283
:103EE80083F8812650E12A230093804B019303F144
:103EF8000C0202924920A3F10A025021023305F074
:103F0800E9FA002840F04081D8F8003013F0800327
:103F18004FF0FF3205D0C4F89006C4F89426042365
:103F2800BDE0C4F89036C4F894262CE0704A022309
:103F38000021009301910291482002F1080305F045
:103F4800C9FA002840F020814FF0FF33C4F89436B6
:103F5800C4F890060523A2E007230093654B01935C
:103F680003F10C0202924720A3F108020021043356
:103F780005F0B0FA002840F007814FF0FF33C4F88D
:103F88009006C4F89436062389E05B4A052300218D
:103F9800009301910291532002F1080305F09AFA67
:103FA800002840F0F180C4F89006072377E040200D
:103FB8000EF0CEF8002840F0E780D4F890360C2BAD
:103FC80064D8DFE803F0070B0E121823282D3135CB
:103FD800434D510049480EF049FA51E048484949D3
:103FE80011E0494849494A4A48E04A4896F8FE17C4
:103FF80096F8FF2742E096F8D83747480C2202FB8C
:10400800036696F8DA170EF031FA39E0434B444864
:10401800B3F84011F7E7414B4248B3F84211F2E7D1
:10402800414B42481969EEE7414B42481988EAE793
:10403800D4F89836D80404D5384B3F4893F878110B
:10404800E1E7274B0B22C3F8902619E03B4896F886
:104058007C1196F87D2196F87B310EF007FA0FE077
:104068003748B4F89C16CEE7D8F80030190507D5BC
:104078002A4B3448B3F88011B3F97E210EF0F6F9D3
:10408800D4F890360133C4F890367DE00EF0C0F8CD
:10409800002879D04FF48053A4F89E36092384F879
:1040A800813671E0284B1B689A0116D5B4F8A03602
:1040B8000B4D93B9D5F8A4360993244B0E201B68F1
:1040C8000A9309A904F0FEFE4FF48053A5F89E3622
:1040D800092385F8813604F04DFF04F0D5FE53E03E
:1040E80058090020F421002028760108927601085A
:1040F8008078010898780108E4780108B09B0108E5
:10410800CA9B0108DF9B0108E79B0108FB9B01088C
:10411800079C0108109C0108219C0108A429002083
:104128002B9C01083A9C0108F8380020499C01089A
:1041380008000020599C0108639C0108709C010834
:10414800899C0108949C0108C41200205C2300206B
:1041580094F8A836002BBED0264B1B689B01BAD416
:10416800254B082283F88126B7E7244B1A68D4F830
:104178009436C8339A4203D90EF030F801238EE7FB
:104188000EF046F80028F7D10EF012F868B30123B4
:1041980084F8813629E0BCF80E80B7F806E0CEEB4B
:1041A800080A554502DDC644754516DBBCF80EE025
:1041B800B3F900807545CBBFB7F802E0B1F804E069
:1041C800B1F802A0B7F800A0F045FFF699ABD045CA
:1041D800C646A8BFD646FFF793BB4545CCBFB7F840
:1041E80002E0B7F800E0FFF78BBB11B0BDEC0E8B17
:1041F800BDE8F08FC412002058090020F4210020E7
:104208002DE9F04FA34FA44C3A6802F59C432DEDDD
:10421800028B20332360A14B1E7887B0D6B1A0490A
:1042280009688A4240F20881013E1E7004E1DFF805
:1042380090829C48D8F80030072D98BF595D9A4B5A
:1042480088BF29461B689847032D09D904EB450503
:104258000136A8800AF06CFEF5B28542E7D320E06B
:10426800D8F8002005F10E0302EB8303D9881A89D8
:104278000028EBD04FF47A73401A5843531A90FB36
:10428800F3F040F6C90300F57A70984205DC40F275
:10429800EE239842B8BF184601E040F6CA0080B243
:1042A800D4E7824B824E1B68D6F8008042F2010A9E
:1042B80003EA0A0ABAFA8AFA4FEA5A1A7D4BBAF19D
:1042C800000F05D194F828201A707B4A5178117094
:1042D8001B782BB1784B93F8009089F0010900E026
:1042E80099460F23DFF8F0B184F8293000250AF049
:1042F8001FFE854267DA6B00B9F1000F03D06F4AE1
:1043080032F8150000E048466D4ADFF8D0C1116860
:10431800CA8A82424FEA850E6A4A02D8098B8142CC
:104328001CD25CF80E005C49804501D2D05A19E0D5
:10433800E8B202928DE80A000AF010FE032D019BF4
:10434800029A0FDC00994FF0010E91F829C00EFA7D
:1043580005FE2CEA0E0E81F829E003E008F59671B7
:104368004CF80E10BAF1000F28D194F8BC100322B3
:10437800B1FBF2F202EB42028A1A03EB050E5EFA77
:1043880082F204EB4202508594F8BD202AB9022932
:1043980013D9414A012182F8BD10BBF800203BF82F
:1043A800020C1044BBF802201044474A80B2D05295
:1043B80000B2032290FBF2F080B2424AD05201359B
:1043C8000BF1060B93E794F82920404BA2F10F015B
:1043D8004A424A4184F8D6206AB13D4A12685201DD
:1043E80009D43268D9689A60521AC82A1FD901229A
:1043F80083F821201BE0304A012151701170326886
:104408009968DA605B68521A9A4282BF2F4B002281
:1044180083F8212000250AF08BFD854207DAE8B2EF
:104428000AF09CFD274B23F815000135F3E794F8B3
:10443800BC30013384F8BC301C4B1A6812F4805F1E
:10444800984605D0224B1B68DE0701D40CF010FA01
:104458001B4B39681868837A002B41D0013B194DF2
:10446800027B35F813301AB1C3F53B6308339BB2AE
:104478001BB2A3F57A73B3F57A7FA8BF4FF47A73AA
:1044880023EAE37307EE903A9FED127AF8EEE77AA3
:104498005FE000BF5C23002004100020F021002012
:1044A800EC210020B431002084000020FC310020E1
:1044B800F42100204C1600200000002008100020E5
:1044C800E8210020E6280020C2100020F821002062
:1044D800C412002000007A44301000207810002018
:1044E800D8F80020150440D5D4F8D820934E8A1A5D
:1044F800002A3ADB01F59C422032C6F8D820904ABF
:10450800C07A55798F4A32F8152096F8DC50013573
:1045180092B292FBF0F205F00F0086F8DC0030440E
:1045280080F8DD201A468848185C01330244102BB5
:1045380092B2F8D112B292FBF3F31BB2642BA8BF6C
:10454800642323EAE37307EE903A9FED807AF8EE4E
:10455800E77AC7EE877A7E4A9FED7E7A67EE877A9A
:10456800FCEEE77A17EE903A1380D8F800307A4DCF
:1045780013F4807F00F00981784BDFF8E4919942C9
:1045880005D999F8022012B9012289F8022099F870
:104598000220002A00F0F980714A2F7892F82160F1
:1045A800721E564256416F4A1168002EC1F380634D
:1045B800C7F380070093924614BF4FF0000B4FF0EB
:1045C800030B99F82020052A00F2D980DFE802F0D1
:1045D800034D527584A1002F3AD0D4F8F000B4F8F6
:1045E800F4100CF031FB012809D15F495F4A0968D2
:1045F8001268C988642000FB0122C9F81020009BBA
:104608006BB1594A126812794AB110F05DF9032268
:1046180089F820204FF47A72C9F81C20D1E7002EBF
:1046280040F0AD80514AD9F8101010684C4A8842C1
:104638000AD9019210F048F9019A032182F8201052
:1046480040F6B831D161BCE7012182F82010B8E703
:10465800009B4FF4806013B106F0E8F901E006F022
:10466800D5F90022C9F8102089E0002E46D110F0B3
:104678002BF9A6E726B1052289F82020012000E0C1
:10468800304667B1D4F8F020D189394A1180518079
:104698009180354909684988D1804FF0020B334A27
:1046A8001168D9F81420914201D8002F64D147F23B
:1046B8003052C9F81C20032221E02A7842F0020275
:1046C8002A700CF0D5F8294AD9F81C1012680A4447
:1046D800C9F81820042212E0244A9EB11168D9F8BA
:1046E800182091424BD9234A92781AB9DAF8002057
:1046F800D30744D42A7822F002022A70052289F8C6
:1047080020205EE71268D9F81C100A44C9F818205E
:1047180035E01549154A09681268C988642000FB04
:104728000122C9F810204FF48060002289F8202067
:1047380089F8032006F06AF943E700BF0410002057
:104748003C2100204C210020E11000200000C8423C
:104758003813002000C07F4464390020404B4C00CF
:10476800F8210020C41200200C390020F421002078
:10477800E62800200000002000287FF422AFBBF1CB
:10478800000F02D058460CF011FBA64EA64FB6F803
:104798004E1106F5C3700CF057FA824630BBA34B96
:1047A8001B6813F0006908D0FB7833B90DF0D4F812
:1047B8009F4B012818BF002018702B78580708D580
:1047C800D8F80030D90604D4B9F1000F01D0FB782D
:1047D8005BB3984B1B6803F57A730122C4F8F83071
:1047E800934B3A71FA7000221A701EE0D8F8003024
:1047F800DA0615D42B785B0712D58C4B1B68180189
:104808000ED5FB7863B18B4B1A68D4F8F8309A420E
:1048180009D90DF0A1F830B9854BF870187002E08D
:10482800834B00221A7000233B712B78590735D52A
:10483800D8F80030DA0631D57F4B1B78DB062DD44B
:10484800BB7893B196F8E031BAF1000F15D17BB17E
:10485800784B1A68D4F8FC309B1A002B08DA0CF055
:1048680007F8764B83F800A118E0BAF1000F0DD1D4
:1048780010200CF09BFA01230EE03BB16D4A126840
:104888004FF47A7101FB0323C4F8FC3094F800312B
:1048980023B10CF073FA002384F80031002296F853
:1048A800DEB196F8DF11B6F896E1B6F898C113466E
:1048B800DFF8A091CDF8009039F912009B087045F7
:1048C800C4BF63F07F03DBB201326045B8BF43F079
:1048D8004003042AECD194F8012158489A4205D1A2
:1048E80090F80221F92A04D8013200E0002280F869
:1048F800022184F80131BB78504ADFF8309133BB8C
:10490800D9F80000C0070AD582F80331BAF1000FC0
:104918001DD12B78DB071AD50BF0E0FD17E02B78BB
:10492800580714D5464B1B788BB1464BDB7873B9C7
:1049380092F803310133DBB2032B82F8033106D935
:1049480011B10BF095FF02E0BAF1000FF9D094F81D
:1049580002313A4ADFF800A1142B40F0A680BB7858
:104968001BF1000B18BF4FF0010B6BB392F801312C
:104978005F2B11D12B7803F0040303F0FF0113B16F
:104988000BF076FF08E00B20029101920CF00EFA72
:10499800019A029982F80211BBF1000F14D094F821
:1049A80001317D2B10D12B7803F0040303F0FF02B3
:1049B80013B10BF05DFF07E00B2001920CF0F6F944
:1049C8001E4B019A83F802212B7803F0040303F0AD
:1049D800FF01002B69D194F80131184A572B11D1E6
:1049E800194B4FF47A721A80D8F800301B0601D59B
:1049F80008F0FEF8154B1B685F0756D5144B0A22C2
:104A08001A8052E0D8F80000400734D55A2B32D12A
:104A180092F8043113B3012382F8041182F80531A6
:104A280043E000BFA429002000000020C412002099
:104A380069390020F42100204413002004100020CC
:104A48004C160020F82100205C390020BC12002000
:104A58005E390020E62800200813002092F806316D
:104A680083F0010382F806310BB10C2000E00D2021
:104A78000CF09CF919E05D2B00F05D855B2B00F0D4
:104A88005C855E2B02D1032000F058BD562B01D166
:104A980006F0ACFABB78002B00F0638594F801317E
:104AA8006F2B40F058850BF019FDD8F800305807E7
:104AB80038D594F80631B94A9BB12B78590710D5E7
:104AC800009BB3F90610B6F89631994209DDD9F87A
:104AD800003013F0010302BF3221A2F80A1182F854
:104AE8000631D9F80030DA030DD594F80C21AB4B18
:104AF8002AB993F8042112B93222A3F80A21012312
:104B080084F80C310EE094F80431A44A53B12B78A0
:104B180003F0040303F0FF0123B9012382F8041111
:104B280082F80531DAF800A00023C9F800300AF14C
:104B380087070AF1D70B3A787B7817F8010C9A4265
:104B48000DD2394607F092F848B117F8022C012324
:104B580003FA02F2D9F800301343C9F800300437D9
:104B68005F45E8D18E4B1B784BB18E4BDFF850A2D6
:104B78001A6812F0020F994640F03A8331E30AF1BD
:104B8800D6070AF58F793A787B7817F8010C9A429C
:104B980025D2394607F06AF808B3BB7897F804C0FD
:104BA800814A97F803A07D480C21013B01FB0C4189
:104BB80003EB43031344D1F814219A420FD0C1F8F0
:104BC8001431002390F84021C1F81831012303FA69
:104BD8000CF322EA030381F810A180F8403106376C
:104BE8004F45D0D1714B1F68714B1B680293714BB5
:104BF8001B780393704B019300230093019B1B6860
:104C0800002B00F0E38293F800A0BAF1000F00F047
:104C1800DD82019A029952688A1A002A0CDB01F592
:104C2800FA7201994A60009901228A4094F8401169
:104C380021EA020284F84021039A002A00F0C68281
:104C4800019A597812F8042C0432D2B2002940F0A3
:104C58007C825A4931F91210B6F8942102F1C80041
:104C6800814202DD93F802B015E0C83A914203DAB6
:104C78009978C1F1000B0EE0009A0123934094F853
:104C8800402122EA030384F84031029B019A03F58C
:104C9800FA7353609AE294F84031009A1341DB07A3
:104CA80000F19482BBF1000FCCBF022001200CF070
:104CB800B7F80AF1FF33DFF8E490132B00F27E8295
:104CC800DFE813F01400250037004B00640086006D
:104CD800E9004C01B301E10111027C024B005A00CA
:104CE8008600E9004C01BB001E01830197F8009083
:104CF800D944B9F1FA0FA8BF4FF0FA0929EAE979BE
:104D0800384687F8009006F097FF01200FE097F8E3
:104D18000190D944B9F1640FA8BF4FF0640929EA9A
:104D2800E979384687F8019006F086FF022049465F
:104D3800D6E197F803A0DA44BAF1640FA8BF4FF0A0
:104D4800640A2AEAEA7A87F803A03846D9F84411AF
:104D580006F028FF03205146C2E1797959446429B5
:104D6800A8BF642121EAE17179710D200BF09CFF45
:104D7800BAF10D0F00F02282397959446429A8BF8D
:104D8800642121EAE17139710E20A9E1B979594408
:104D980081F30801B9710520A2E100BF04100020C9
:104DA80066390020C41200200C7901084013002045
:104DB800F42100204C16002018110020E6280020BD
:104DC800BC12002000007A440000C8420000000025
:104DD800D9F848311A78022A20D107EE90BAB8EEED
:104DE800E70A5FED077A93ED097A80EE270A30EE3D
:104DF800070AB5EEC00AF1EE10FA07D4B4EE670A56
:104E0800F1EE10FAC8BFB0EE670A01E01FED110A13
:104E180083ED090A0F200BF031FF0AE09978594415
:104E2800C829A8BFC82121EAE17199700F200BF0A9
:104E38003BFFBAF10F0F00F0C181D9F848311A7859
:104E4800022A1ED107EE90BAB8EEE78A5FED227A01
:104E580093ED080A88EE278A38EE000AB5EEC00AF4
:104E6800F1EE10FA07D4B4EE670AF1EE10FAC8BFF3
:104E7800B0EE670A01E01FED2B0A83ED080A122045
:104E880056E159785944C829A8BFC82121EAE171D7
:104E98005970122024E1D9F848311A78022A20D111
:104EA80007EE90BAB8EEE70A5FED397A93ED0C7A1F
:104EB80080EE270A30EE070AB5EEC00AF1EE10FAC6
:104EC80007D4B4EE670AF1EE10FAC8BFB0EE670A6D
:104ED80001E01FED420A83ED0C0A10200BF0CEFE14
:104EE8000AE0197B5944C829A8BFC82121EAE17101
:104EF800197310200BF0D8FEBAF1100F00F05E8184
:104F0800D9F848311A78022A1ED107EE90BAB8EEBD
:104F1800E78A5FED537A93ED0B0A88EE278A38EE1D
:104F2800000AB5EEC00AF1EE10FA07D4B4EE670A2B
:104F3800F1EE10FAC8BFB0EE670A01E01FED5D0A96
:104F480083ED0B0A1320F3E0D97A5944C829A8BF86
:104F5800C82121EAE171D9721320C1E0D9F848319A
:104F68001A78022A22D107EE90BA1FED6A0AF8EEE3
:104F7800E77A87EE800AD3ED0F7A30EE270AB5EE8E
:104F8800C00AF1EE10FA09D45FED717AB4EE670A3F
:104F9800F1EE10FAC8BFB0EE670A01E01FED750A1E
:104FA80083ED0F0A11200BF069FE0AE0997D594440
:104FB800C829A8BFC82121EAE171997511200BF011
:104FC80073FEBAF1110F00F0F980D9F848311A7858
:104FD800022A20D107EE90BA1FED860AB8EEE78ABA
:104FE80088EE008A93ED0E0A38EE000AB5EEC00A84
:104FF800F1EE10FA09D45FED8C7AB4EE670AF1EE9F
:1050080010FAC8BFB0EE670A01E01FED900A83ED01
:105018000E0A14208CE0597D5944C829A8BFC8211C
:1050280021EAE171597514205AE0D9F848311A7803
:10503800022A1ED107EE90BAB8EEE78A5FED9E7A93
:1050480093ED0A0A88EE278A38EE000AB5EEC00A00
:10505800F1EE10FA07D4B4EE670AF1EE10FAC8BF01
:10506800B0EE670A01E01FEDA70A83ED0A0A0920DE
:105078005EE0D9785944C829A8BFC82121EAE1715E
:10508800D97009202CE0D9F848311A78022A1ED1A3
:1050980007EE90BAB8EEE78A5FEDB57A93ED0D0AA0
:1050A80088EE278A38EE000AB5EEC00AF1EE10FA4B
:1050B80007D4B4EE670AF1EE10FAC8BFB0EE670A7B
:1050C80001E01FEDBE0A83ED0D0A0A2030E0597B8E
:1050D8005944C829A8BFC82121EAE17159730A2097
:1050E8000BF0E2FD6AE0D9F848311A78022A22D199
:1050F80007EE90BA1FEDCD0AB8EEE78A88EE008A6F
:1051080093ED100A38EE000AB5EEC00AF1EE10FA77
:1051180009D45FEDD37AB4EE670AF1EE10FAC8BF8E
:10512800B0EE670A01E01FEDD70A83ED100A0B20E5
:105138000BF0A4FD42E0D97D5944C829A8BFC82175
:1051480021EAE171D9750B20CAE7012936D198788F
:10515800BB4B33F91230B3F5617F05DB40F6330200
:105168009342A8BF134601E04FF46173BAF10C0FE4
:1051780024D14FF4966292FBF0F0B24AA3F5617322
:1051880093FBF0F35FFA83F913784B4516D0B9F126
:10519800040F34BF4B4602231370AB4A0AFB036368
:1051A80003F2DA73136005F025FD504649460BF00B
:1051B8007BFD09F10100C0B20BF032FE009A012319
:1051C800934094F84021134384F84031009B013305
:1051D8000093019B0C330193009B042B7FF40EADCD
:1051E800C3E4D8F80030D8050FD5984BDB7863B105
:1051F800DAF80030990708D5954B1B8813F001079A
:1052080008D1012005F012FC04E0012005F0FEFBA6
:10521800012300E00023D9F8002052070BD553B131
:10522800012005F0F3FB8A4B1B889B0706D402205C
:1052380005F0FCFB02E0022005F0E8FBDAF800309C
:1052480013F00A0F32D0D9F80030DF060FD5804BA3
:105258001B8858070ED4042005F0E8FB7D4B0A2272
:10526800B3F9043093FBF2F3A4F84C3102E00420C4
:1052780005F0CCFBD9F80030990607D5744B1B888C
:105288005A0606D4402005F0D1FB02E0402005F084
:10529800BDFBD9F800305B0641BF6E4BB3F9043053
:1052A8000A2293FBF2F348BFA4F84E31DAF8003033
:1052B8009F0609D4D9F80030180540F19A804FF4B8
:1052C800807005F0B3FB98E0634BDFF884B11B787E
:1052D80013F0020F55D0614B1B78042B51D9D9F824
:1052E800003013F400730FD0BBF80030D9063CD45B
:1052F800102005F09BFB202005F088FB5848011D75
:1053080007F0CAFB02232CE0BBF8007007F0100777
:10531800BFB23FB11020009305F078FB009B84F8E2
:1053280050310127D9F800305A0512D5D4F8543134
:105338004C495A89B1F90030002BB8BF5B429342FF
:1053480007DAB1F90230002BB8BF5B429342C0F2D2
:105358005B81BBF800309B0608D5202005F056FB82
:10536800002384F85031012700E0002794F85831D1
:10537800BBB90E200BF01AFD3B4B012283F85821D4
:105388000FE0BBF8003003F03003002B92D0102060
:1053980005F03CFB202005F039FB002384F8503150
:1053A80001E0002F86D0314B002003F1280E03F1D5
:1053B80050072F4A002122F810102E4A596022F86F
:1053C80010100432CEF8041022F8101000221A60CF
:1053D8009A60CEF80020CEF808203A607960BA606A
:1053E80014330EF1140E143700287FF463AF012034
:1053F800DFE74FF4807005F009FB7379082B01D0C3
:105408000E2B02D1402005F001FBD8F800305F05D3
:1054180038D596F81C321BB92B7813F0040F03E02B
:10542800D9F8003013F4002F28D0134B00221A703B
:105438003C200CF05DFA28B30EF05AF9F8E700BFEB
:10544800E6280020F837002040130020F82100202B
:10545800C01200202413002044130020451300200C
:105468005C13002024260020041000206011002076
:1054780060390020D8110020B931002009F0E4FE7D
:105488000CF045F9012384F8DC3194F8DD310BB3D5
:10549800DAF800305D071DD5D9F80030180703D4B5
:1054A800082005F0B3FA15E0654B1D8805F00805DE
:1054B800ADB27DB9082005F0B9FA624B1A68624BA3
:1054C8001A60624BDA88624BA3F8DE21614B1D60DB
:1054D800614B1D6094F8DD31002B00F0AB80DAF8E9
:1054E8000030D90640F1A680D9F800309A0208D4D5
:1054F8004FF4007007B0BDEC028BBDE8F04F05F02B
:1055080085BA4F4B1C8804F40074A4B2002C40F0F8
:1055180091804FF4007005F089FA4A4B1A684A4B9B
:105528001A604A4BDA884A4BA3F8DE21494B1C60C3
:10553800494B1C607EE0012000E00220C7B27B1EC0
:1055480086F8D83705F0BCFA05F078FB38460BF03A
:1055580067FCFFF7AABABBF1000F02D07E2B3FF41D
:10556800A2AA94F80131972B06D1394B4FF4C8728F
:10557800A3F80821FFF799BAA72B06D1374A137861
:1055880043F004031370FFF790BA0022BB2B059277
:1055980001D1022303E0B72B04D14FF6FE73ADF817
:1055A800163009E0BE2B01D1022303E0BD2B1AD12E
:1055B8004FF6FE73ADF81430DAF80030BDF8141069
:1055C800B3F864200A44A3F86420BDF81610B3F8B1
:1055D80066200A44A3F8662005F008FD002384F835
:1055E8000231FFF762BA792B04D11D4AD37823F030
:1055F800010306E07A2B7FF458AA194AD37843F0BE
:105608000103D370FFF751BABBF800309B063FF592
:10561800ADAE202005F00AFA1248134B011D1A6896
:105628005B684360026007F037FA094B012783F88B
:1056380050719BE607B0BDEC028BBDE8F08F00BF50
:10564800C01200202C1300206C130020E628002034
:10565800041000209C230020A023002044130020D5
:10566800F81E002064130020481300202DE9F04F95
:105678002DED028BB44E8DB034780196002C00F0DD
:10568800AB80B24B1A689846002A01F08C80D8F893
:1056980000000BF049FC002801F08580AB4BAC4CB6
:1056A80018680BF03EFC092801D03F284AD14FF07A
:1056B800000A2668A74D57462EB1A74829683246E2
:1056C80010F092FB10B9AA4607B92F46A34B103524
:1056D8009D42F1D3C7B1D7F800E0DAF800C02368DB
:1056E8001EF803501CF80300A8420DD15A1C9A4911
:1056F80038B92D2B05D8964D2A602025CD548854CD
:1057080002E0CD542260EAE723680BB1574510D078
:1057180093480EF0F7F8574507D857F8100B0EF0D6
:10572800F1F809200EF0E6F8F5E78E480EF0EAF8F1
:10573800002623689E42AAD2874B985D0EF0DAF8BD
:105748000136F6E72368002B40F09F87042841F0D4
:105758000F80814808F0D2F901F025B8DFF834A2AB
:10576800DAF800000BF0E0FB28B3DAF800000BF0E1
:10577800D8FBD9F8003093F848208346002A3AD15C
:10578800242871D1012283F84820D9F80030DFF8A5
:10579800E8A193F848B0BBF1060FDFD193F84900B0
:1057A80001F00EF8002800F085800DF0EDFF2B6861
:1057B800002283F848206C4B1B794BB1385906F00E
:1057C800A3F80BF021FD05F051F9684B684ADA603F
:1057D8004C34982C00F0E787664FE31993F84A2079
:1057E800012AF5D1644DDFF8AC812B60E359C8F884
:1057F8000030A946B2E7012A04D14D2814BF00227F
:105808000222C0E7022A04D13C2814BF0022032246
:10581800B9E7032A0AD140284FF000029FBF1A7146
:10582800DA715871987198BF0422ACE7042A08D13C
:105838009A7983F8490080EA020B83F806B00522BA
:10584800A1E7052AA1D159791A799142997906D9FE
:1058580041409971511C19711344187295E781429E
:105868000CBF062200228EE7444E327853078CD4B0
:105878002328DAF8002010D1019B41480121197032
:1058880032490A6038490A600EF03CF835480EF093
:1058980039F8327842F0020232703A4B1B681B78B2
:1058A8005B4501BF384B394A1A60304B04BF304A58
:1058B800DA606AE7DAF8002092F849304C2B00F0F9
:1058C800E38400F2BA80352B00F0CB8264D82B2B0E
:1058D80000F0B28421D8252B00F0878404D8232B2C
:1058E80000F0838200F0CDBE272B00F08584292BA1
:1058F80040F0C7860DF026FF254EA6F87E010DF074
:1059080021FFA6F880010DF013FF86F882010DF043
:1059180019FFA6F8840100F0AFBE2F2B00F02F85E9
:1059280004D82D2B00F08D8400F0ABBE312B00F095
:105938005385332B40F0A5860DF0FAFE144B83F8FF
:10594800900100F099BE00BF663900201C38002085
:10595800341F00202C810108041F00200C8301083B
:10596800B79D0108BC9D0108E411002000ED00E08E
:105978000400FA050C29002014380020643900209E
:10598800EC9D0108BC310020FC9F0020EFBEADDE7D
:10599800A429002018380020412B00F0AF8419D822
:1059A800392B00F0378404D8372B00F0B48400F08A
:1059B80068BE3C2B00F0DD803E2B40F062860DF087
:1059C800B7FEC54E86F8E0010DF0B2FE86F8DF019D
:1059D80000F052BE442B00F0348526D8432B40F00B
:1059E80050860DF0A5FEBC4E0023B36070710DF01B
:1059F800B3FE05F033F80DF09BFE86F88E010DF02E
:105A0800A1FEA6F858010DF09DFEA6F85A010DF06A
:105A180099FEA6F85C010DF095FEA6F87E010DF042
:105A280091FEA6F8800100F027BE482B00F07A838B
:105A38004A2B00F0218600F024BED12B00F0998378
:105A480020D8CC2B00F033820FD8C82B61D004D8D3
:105A58004E2B00F0278400F014BEC92B00F065839C
:105A6800CA2B00F09D8000F00CBECE2B00F04B83BB
:105A7800C0F03F83CF2B00F06482D02B00F02D8341
:105A880000F0FFBDD82B00F03D810BD8D32B3AD0C6
:105A980025D3D42B00F09D82D62B40F0F2854FF011
:105AA80000088BE2F22B00F0EF8210D8EF2B40F0C9
:105AB800E8858A4ED6F800900DF044FEA9F86600F5
:105AC80036680DF03FFEA6F8640000F0D5BDF32B54
