:020000040800F2
:1000000000A000203D040108A504010889F20008B1
:10001000A5040108A5040108A504010800000000CA
:10002000000000000000000000000000A50401081E
:10003000A504010800000000A5040108DDB10008C6
:10004000A5040108A5040108A5040108A5040108E8
:10005000A5040108A5040108E98E0008E58E000842
:10006000A5040108A5040108A5040108A5040108C8
:10007000FDBF0008A5040108E5E80008A504010883
:10008000A5040108A5040108A5040108A5040108A8
:10009000A5040108A5040108A5040108E18E0008D3
:1000A00061BF0008A1BF000851BF0008C9BF000818
:1000B00091BF000881BF000871BF0008A5040108B6
:1000C000A5040108A5040108A5040108A504010868
:1000D000A5040108DDE80008D5E80008CDE800081F
:1000E000EDB10008A5040108A5040108A504010854
:1000F000A5040108A5040108A5040108A504010838
:10010000000000000000000000000000A50401083D
:10011000A5040108A5040108A5040108A504010817
:10012000A5040108A5040108A5040108A504010807
:10013000A5040108A504010800000000000000005B
:10014000A5040108A5040108A50401080000000099
:10015000000000000000000000000000000000009F
:100160000000000000000000A5040108A50401082B
:10017000A5040108000000000000000000000000CD
:0801800000000000A5040108C5
:100188002DE9F04FA44C23780B2B9CBFA34A3421B4
:100198002DED0E8B98BF01FB032393B094BF9F6A8C
:1001A80000279F4D9F4EEB680BA898479DF82C3071
:1001B80023B123780B2B0CD900230FE005F040FB6B
:1001C800994B1B68FB1A1844336864339842E8D388
:1001D800EFE7924A342101FB03239B6AD6ED000A1C
:1001E800924A9FED939A934C934E9BB2F8EE600A15
:1001F80007EE903A138060EE890A904AB8EE670AD3
:1002080020460121C2ED000A07F0E2FBFCEEC07AAD
:10021800894817EE903AA3816B68984740B9884D92
:10022800DFF834922B6813F0020F40F0CA80D6E34F
:1002380025692DB3B71E0020824900F1180301EB90
:10024800000C0B44624605F1FF3E002132F8028F94
:1002580022F8028C1EF9019F9A4218FB0911F5D168
:1002680037F8023FACF8183095F90C201A304E28B0
:1002780013FB02134FF4807293FBF2F33B80DBD144
:100288006D48714F94F862206A4D014609F08AFA68
:100298003B8805F1B00A002B6BD06B6E1B7808EE1B
:1002A800103A05F168084FF0000974353988B1F53E
:1002B8007A7F02BF0023C8F800302B61D8F80020ED
:1002C80036F919301A4407EE903A2B69C8F800201D
:1002D8000133012B4FEA490BF8EEE77A2B6106D17F
:1002E8000023C5ED017AC5ED007AAB601BE0D5EDC2
:1002F800006A07EE103A37EEE66AB8EEC77A86EE7D
:10030800077A36EE877AD5ED026A85ED017A77EEBF
:10031800C77A85ED007AE6EE276AF0EE667AC5EDD3
:10032800036AC5ED026A0023012926F80B302AF872
:100338000B302AD12B69012BC3BF03F1FF3300EE29
:10034800103AD5ED037A9FED410AC4BFB8EEC00A52
:1003580087EE800A12F056FD18EE103A5BB1F8EEFF
:10036800C87AB4EEE70AF1EE10FA04DD4FF47A73B6
:100378003B8000231AE0D8F800304FF47A7203F576
:10038800FA7393FBF2F32AF80B3009F10109B9F17A
:10039800030F08F1040805F1140587D138880128EE
:1003A80001D105F0FFF93B88013BE1E736F813205E
:1003B8003AF81310521A26F813200133032BF5D1FB
:1003C8002DE7234B1B78002B00F0098305F038FA42
:1003D800D4F8B830C4F8B800C31A0AEE103A0027A7
:1003E800D4F8BCB0DFF874809BF80010C1B339F9B9
:1003F8001730F8EE4A0A00EE103A164B0C2000FBB4
:100408000730B8EEC00A60EE890A07F0E1FAFDEE9F
:10041800C07A17EE903A25E0F5020020740000201B
:10042800541E002004160020FC3100204C1100202E
:10043800BD3786358008002088110020581D00200F
:1004480058110020940800204434002000000000C7
:100458002834002040090020F833002082110020B1
:1004680039F8173028F817300137032FB8D1B8F802
:1004780000300593B8F80220BDF81430B8F804101D
:100488002F6812FB02F913FB0399A14B11FB019989
:10049800642000FB09F0B3F8009017F0080709FB87
:1004A80009F99A4690FBF9F9A9F152090DD0994832
:1004B800B0F900703FB1B0F9027027B1B0F904701B
:1004C800003718BF012707F00107B6F90030D4ED4F
:1004D800395A904809920AEE903AB6F90230B0F8C3
:1004E80000C008910BEE903AF8EEEBBAB6F904307A
:1004F80046888088CDF81CC06BEEA5BAF8EEEAAA4B
:100508000BEE103A6AEEA5AA2BEEAB0AB8EECBBA00
:10051800AAEEAA0A0690804DDFED808A2BEE25BA56
:10052800F8EE4A7AABEE0B0A27EE899A12F06AFCCB
:10053800F7EE009AB0EE40CA0698DDF81CC008999C
:10054800099A002F5BD00FFA8CFC07EE90CA33B2E1
:10055800B8EEE7DA08EE103A2DEE0D0AB8EEC88AC2
:1005680000B207EE900AA8EE080AF8EEE7CADFED37
:100578006C7AACEEAC0AB4EEE70AF1EE10FA3EDDA6
:100588000792069112F03EFC89EE800AD5ED017AB9
:1005980095ED007A28EE008A2DEE00DA68EE277ACB
:1005A8006CEE80CAE7EE0D7A95ED040A95ED027AB5
:1005B80028EE008AE7EE2C7A95ED037AA7EE0D8AED
:1005C80095ED057AA7EE2C8AB0EE68DA28EE080ACF
:1005D800F0EE68CAA7EEA70A12F014FCD5ED067A69
:1005E8000699079A20EE480AA7EE80DAD5ED077A31
:1005F800E7EE80CAD5ED087AE7EE808A03E0F0EEF0
:1006080068CAB0EE68DAB9F1260F3ED8BDF91430E1
:1006180007EE903A12B2B8EEE78A07EE902A28EE73
:10062800080AF8EEE7DA09B207EE901AADEEAD0A5D
:10063800B8EEE7EADFED3A7AAEEE0E0AB4EEE70A74
:10064800F1EE10FA21DD12F0DDFB89EE800AD5ED1E
:10065800076A95ED087A2EEE00EA6DEE80DA66EE0E
:10066800CE7A28EE008AEDEE877A27EE487A3DEEBC
:1006780027DAD5ED067AAEEE277A67EEED7A7CEECC
:1006880087CAE8EE267A78EEA78ADBED017AF5EEDE
:10069800C07AF1EE10FA4FF000031FDD9FED217ACA
:1006A800B4EEC7CAF1EE10FA1ED567EE8D6A94ED66
:1006B8003A7AA6EE897A67EEAC6A84ED3A7A94EDD6
:1006C8003B7AA6EE897A67EEA87A84ED3B7A94EDB8
:1006D8003C7AA7EE897A84ED3C7A05E0C4F8E830E4
:1006E800C4F8EC30C4F8F0300F4EDBED027A337802
:1006F80059071DD40D4B1A6844F61F639A42F7EE4A
:10070800005AB2EE047A98BFF0EE475A12E000BFE2
:1007180008000020EA1100205020002000000000FE
:100728000AD7233CC2B8B23E493400201416002030
:10073800F7EE005A67EEA55AD4ED3C6A94ED3A7A82
:10074800D4ED3B7ADFF84C93C44A99ED004AC44B88
:10075800D2ED003AC34F0692E5EEA86A0593A5EEDE
:100768008D7AE5EEAC7A3BEE26BAF6EE006A69EED3
:10077800266A7BEEA77A3AEE877A27EEA66A27EEF4
:10078800267A6BEE266A26EE445A24EE260AD3ED24
:10079800007AD7ED004A9FEDB48AA7EEC75AA3EEB8
:1007A800870AF1EE645AA5EEA65AA5EE860A66EE09
:1007B800E75A37EE800AE3EE865A67EE867A33EE1A
:1007C800855AE4EE875AE3EEA67A83ED000A20EE16
:1007D800000A74EE255AA5EE050AE4EE477AA5EE5E
:1007E800A50A74EEA77A82ED005AA7EEA70AC9ED0A
:1007F800005AC7ED007A12F005FB89EE800A069AC6
:10080800059BD2ED007AD7ED009A67EE807AC2EDAB
:10081800007AD3ED007A67EE807AC3ED007AD9EDDD
:10082800007A67EE807A29EE800AC9ED007A87EDB2
:10083800000A0AF0F3FED5ED080A95ED070A8B4F7A
:1008480012F03CF920EE080A12F094F895ED060A29
:100858003880B1EE400A12F0D3F8DFED857A37EE32
:10086800C00A20EE080A12F085F8D5ED000A95EDC9
:10087800030A788012F022F9D4ED3D7AE0EE487A46
:10088800B0EE670A12F076F883B21A0458BFBB803C
:10089800D5ED085A774BD4ED3E7A1A7895ED010AD2
:1008A80095ED065AF4EEE75A44BF00F56160B8804A
:1008B800F1EE10FACCBF42F0080222F008021A70DA
:1008C800B8F90030D5ED007A06EE103AB8F90230E2
:1008D80007EE103AB8EEC77AB8EEC66AB8F904302F
:1008E80027EE000A06EE903AA7EE860A9BF801303A
:1008F800F8EEE66AD5ED027AA7EEA60A012BD5ED49
:10090800077A67EE277AE5EE067AE5EEA67AD5ED60
:10091800045A27EE257AD5ED035AA5EE867A95ED89
:10092800056AA6EE267AB1EE478A18D133785D07B4
:100938000FD4D4F8FC30402293FBF2F29B1A07EE56
:10094800103AB8EEC77A37EE277ABDEEC77A84ED4B
:100958003F7AD4F8FC30402293FBF2F301E0BAF876
:100968000030D4ED408A07EE103AB8EEC77A77EE39
:10097800C77A94ED417A39EE077A77EEE87A89EE0C
:10098800079AE9EE278AC4ED408A11F0F3FFD4F8FC
:100998000851394C297807F059FA2368B0EE480A0B
:1009A8001844206011F0E6FF297807F04FFA6368D1
:1009B800B0EE680A1844606011F0DCFF697807F04F
:1009C80045FAA3682D4A18441AEE101A1368A06055
:1009D800194411602A4A13680133136006E00023A2
:1009E800A9F80030A9F80230A9F80430254BB3F96A
:1009F8000610254BD3F800E0BEF80A2091420FDB21
:100A0800B1F5FA6F9EF80750BDBF8B1A6B43A2F57C
:100A1800FA65C5F16405BCBF93FBF5F5643500E0E4
:100A280064251A4B1A4AB3F894C193F95E311268D7
:100A380005929BB2164606930022124B33F9128098
:100A4800CCEB080303F2F31440F2E63084424FEA99
:100A5800420921D8002BB8BF5B421FE06C00002080
:100A6800442000204C2000204C3D0F44BC110020A5
:100A7800DB0FC93F281000201C3200203034002032
:100A880018320020542F0020DC11002020270020DD
:100A9800A0110020482000204FF4FA73022A059C78
:100AA8004FF064002AD094F81D411CB1A342CCBF7A
:100AB8001B1B0023BA4C93FBF0F76FF0630B34F861
:100AC80017A00BFB073B013734F917400FFA8AF7D9
:100AD800E41BB44F04FB0BF494FBF0F4544427F8E4
:100AE80009400EEB020424796343AF4C93FBF4F303
:100AF80064339BB26B4393FBF0F02CE094F81E41F7
:100B08001CB1A342CCBF1B1B0023A84C93FBF0F0E5
:100B18006FF0630A0AFB003B04EB400704EB40005C
:100B2800B7F90C71B0F90E01C01B00FB0BFBBDF847
:100B380018009BFBFAFBC7EB0B0717FB00F799485C
:100B480087809EF80600002BB8BF5B424343964857
:100B580093FBF0F064307478954B6427444394FB1E
:100B6800F7F49C5403F1030AF47A444394FBF7F432
:100B78000AF802400633747D022A00FB04F0894C0F
:100B880090FBF7F098548B4B0DD1E0459F700DDB2F
:100B9800894DB5F89621914214DBB1F5FA6FA8BFDB
:100BA8004FF4FA610FE0E0459D5404DA34F8093057
:100BB8005B4224F809300132032A06F101067FF46A
:100BC8003CAFE5E71146DFF834E2764E891A4FF478
:100BD8007A736FF063005943C2F5FA626423B1FB7C
:100BE800F2F191FBF3F23EF8127000FB02110132B0
:100BF80038B23EF91220121A514391FBF3F33B44E9
:100C0800E3806E4B1B8858063CD56D4BDFED6D7A43
:100C1800B3F904309FED6C0A0A2293FBF2F3634A9E
:100C2800B2F824219B1A1BB208EE103AB8EEC88A13
:100C380028EE278A38EE000A07F017F9F0EE408A06
:100C4800B0EE480A07F011F9B6F9023006EE903A0C
:100C5800B6F90030F8EEE66A07EE903A20EE667ACA
:100C6800F8EEE77AA7EEA87A67EE807ABDEEC77A43
:100C7800E6EEA87A17EE103AFDEEE77A338017EE23
:100C8800903A738095F89A31002B51D0474B9A8946
:100C9800B3F82601B0FBF2F04C4A461C1278B6B203
:100CA800A3F8286112B3B3F82A9100233F4F34F810
:100CB80013C007F59A7E07F596783EF8132038F8A2
:100CC80013102EF813C0C2EB0C0A11FB09F132B253
:100CD80091FBF2F2524428F813200133042BE5D19A
:100CE8003A4BA7F82A0100221A7004E0B3F82A2127
:100CF800013AA3F82A212D4AB2F82A0103B2002B9F
:100D08004FF0000312DDB2F92861314931F81320A0
:100D1800083112FB00F231F8131092FBF6F28A1A2E
:100D280024F813200133042BEFD101E0A2F82A3173
:100D3800284A294E1378294F13F0040F03D0284B63
:100D480008221A856AE03968C9075CBF43F00103C5
:100D58001370244B24491B781B075EBF137823F0BC
:100D680001031370336813F0040F02D01F48008882
:100D780070B91F48008808B1980709D41D4B1B8813
:100D8800003318BF01231BB91B480088642837D9D2
:100D980002230B70137823F00103137035E000BFB2
:100DA8000A120020401D00200CFEFFFF80080020D2
:100DB8009A090020481D0020202700205C110020EF
:100DC800BC11002035FA8E3CDB0FC93F7C10002097
:100DD800AC0900204934002058110020601100207F
:100DE80000040048281000203C160020463400204B
:100DF8003810002044340020A42F0020F2110020D5
:100E08001278D20758BF02230B7004F019FDB64BB5
:100E18001B68C01A002801DB08F0F8FDB34B9B687B
:100E28000BB1B3489847B34B012119703368B24EE0
:100E380013F0140F6DD0B14B1B8803F40273002B11
:100E480067D0AF4B1B7803F0100303F0FF0C4BB1D6
:100E5800AC4B95F9EC21B3F90010638801FB023320
:100E6800638056E0D6F84021A74BD078DFF8F8E247
:100E78009278BEF900E0B3F90630F8B1CEEB030082
:100E88000028B8BF404290420EDD7345C8BF5342A8
:100E980086F84411E1889D48CCBF9BB293B20B44BD
:100EA800C0F800C0E38034E096F844311BB3984B97
:100EB80086F844C11A68974B1A601CE0CEEB03030E
:100EC80083EAE37CACEBE37C944509DD022293FBE7
:100ED800F2F3914A86F844111360904B19700AE0B6
:100EE80096F844313BB18A4B86F844011A68894B1D
:100EF8001A608A4B1870834BD6F848111B680A8809
:100F080049887344934203DB8B42A8BF0B461A46B9
:100F1800E280834B1B78ABB17B4BB3F90620B5F865
:100F280096319A420EDC7F4B5B79012B01D0192B4D
:100F380002D195F8E6212AB90E2B03D0082B1CBF45
:100F48000023A380784B1A6892F824819946B8F157
:100F5800000F33D0694B1B889B072FD0734BDFEDF5
:100F6800747A93ED080AB4EEE70AF1EE10FA21D983
:100F780011F046FD604BD3ED537A20EE270A11F0AD
:100F8800F9FCB0F5617FA8BF4FF4617007EE900AD5
:100F9800B8EEE70ADFED677A80EE270A06F065FF0C
:100FA80007EE908AF8EEE77A27EE800A11F0E2FC65
:100FB80080B200E00020E3881844E0805E4B1B7894
:100FC8004BB15E4B00221A605A609A605C4B00225B
:100FD8001A605A609A605B4BD9F80000B5F86A212C
:100FE8000093594BD3F800C0584B196800F16403BB
:100FF800E047574B1878574B03281BD9D6F8502190
:10100800B2F802C0BCF5FA7F14D2B4F904E0B3F91F
:101018000480BEF1000FB8BFCEF1000ECCF1000184
:10102800CEEB0102904504DB0CEB0E024245A8BF53
:1010380042469A803A6817010CD50021D6F850919B
:10104800B3F802C0B3F80080B3F904A0424E0A46D0
:101058000F46C3E0414A126812F48052EDD140496C
:10106800E7880A70B3F802E0B3F800C0D6F8506118
:10107800B3F904803B49824201F1100180F01F81DD
:1010880096F9003051ED045ADFF8E0905B4208FB16
:1010980003F307EE903A0FFA8CF306EE903A3BB260
:1010A80006EE103A0FFA8EF3B8EEE77A07EE903AAA
:1010B800F8EEE77AB8EEC66A67EEA57A51ED065AF9
:1010C800E6EE257AF8EEE66A11ED056AE6EE867A2E
:1010D80051ED036AE7EE267AFDEEE77A17EE903ACD
:1010E80029F812300132C6E740160020541E0020AD
:1010F800BC0900207D100020800800205C11002021
:101108002810002044320020542F002040320020B4
:10111800C411002038320020343400204832002026
:101128000200002020270020A011002050200020CD
:101138008FC2753CEFB6B04404000020681D002043
:10114800301E0020A6280020EC020020DC11002020
:10115800A81E0020A41D0020D4090020502F002024
:101168004C340020DC0900207E100020A41100204F
:1011780099F9003096ED016A5B420AFB03F307EE2A
:10118800903A0FFA8CF306EE903A0FFA88F3B8EE1D
:10119800E77A07EE903AF8EEE77AF8EEE66A67EE55
:1011A800867A96ED026AE6EE867A0DF12C0E0FFA33
:1011B80082FBD6ED036AE7EE267AFDEEE77ACDEDFF
:1011C800057ABDF814302EF817300FFA83FEDE4585
:1011D80007DD1A460B460137103619468742C7D332
:1011E80005E00FFA81FBDE45F5DB1346F1E7894B95
:1011F800894E1B685F88B3F800E0521ACEEB0701EE
:1012080089B20BB212B29A424FF0000315DD4FF0CB
:10121800010C86F800C083420BD20DF12C0C3CF86F
:10122800136016FB01F696FBF2F62CF813600133F7
:10123800F1E71FFA8EF6BAB208E03370022192FB8A
:10124800F1F20EEB0203BA1A9EB292B2E7880021BD
:10125800814234D20BAB33F9113007EE903A3BB2EE
:1012680006EE903A6D4B03EB0113B8EEE77AF8EE11
:10127800E66AD3ED007A33B266EEA76A07EE903AD3
:10128800F8EEE77AF4EEE76AF1EE10FA0BD413B24F
:1012980007EE903AF8EEE77AF4EEE76AF1EE10FA24
:1012A800D8BFF0EE667A77EE277ADFF884E1FDEEB4
:1012B800E77A17EE903A2EF811300131C8E7584B0B
:1012C800DFF888E11A7802F0040202F0FF0312B98D
:1012D8009EF800207EE0534B5349DB780693534B2E
:1012E800186810F0006305931DD10B68DE0418D44C
:1012F8004F4A9EF8007013880126BE420FFA83FCFD
:1013080007D232F916306345B8BF63469BB201363F
:10131800F3E7404A12685288944504DD9A1A92B25B
:1013280002E0059A00E000220B6842499EF800B0EE
:10133800B1F906604049D1F814C2404903F4805914
:101348000F68344903F010030793394B096803EB1E
:101358004B0B5B4535D0059850B9B9F1000F40F0FB
:101368001984B3F800E0C2EB0E0EA3F800E003E026
:10137800B9F1000F40F019840698B1F80280B3F96A
:1013880000A040B1B1F804E0F24516DBC245D646EC
:10139800A8BFC64611E0B1F800E0F24503DBC2453C
:1013A800D646A8BFC646A3F800E0BCF810E07645CC
:1013B80005DA079818B1B1F804E0A3F800E00233A1
:1013C800C7E71D4890F81832013BDBB2182B00F232
:1013D800408109E09342F4D2194931F813001449C5
:1013E80021F813000133F5E701229A40154B134009
:1013F800002B00F02E81144B0E491B8813F4807FBC
:1014080026D02388ADF82C306388ADF82E30A38819
:1014180034E000BFC81F00204C340020D40900204D
:101428004934002018160020502F00206011002099
:10143800A4110020542F002080080020C41F002081
:101448007E2F0020992098015C110020A81E002002
:10145800B54B1A88ADF82C205A88ADF82E20B34A1F
:101468009B881268ADF83030D40409D5D0F814221E
:10147800B1F90640D289944202DA5B42ADF83030C5
:10148800AB4CB4F902304FF47A7203F5E16353437D
:101498004FF4616093FBF0F3A3F5FA73ADF84430B1
:1014A800B4F9003003F5E1635A43A24B92FBF0F222
:1014B8001B88A3F2DC53ADF832309F4BA2F5FA72C9
:1014C800D3F81432ADF84620DB890A88D21AADF871
:1014D80034204A88D21AADF836208A88D21AADF854
:1014E8003820CA88D21AADF83A200A89D21AADF83B
:1014F8003C204A89D21AADF83E208A89D21AADF822
:101508004020CA89D31AADF8423000238B4A002103
:1015180022F813100133082BF8D1894A894B126835
:101528000592894A1B78126888490692884E0722D4
:1015380002FB031B594572D00B7833B103F1150236
:1015480001239340059A134065D011F806CC069BF9
:1015580011F805AC11F8034C11F8018CCCEBCC0E4A
:1015680003EB4E0E6420BEF90020BEF902309B1A30
:101578009BB211F9022C4FEA53095A434FEA4A0722
:1015880092FBF0F212A8C9EB020292B2074414B916
:1015980037F81C0C0CE0B6F9000037F91C7CB8428F
:1015A80008DA0444844203DBA7423846A8BF204631
:1015B800308008E007DD041BBC4203DB8442A8BF7F
:1015C800044627463780DEF80A4011F9047C0120DA
:1015D80000FA0AF02042308812B217FB00F014BF5C
:1015E8004FF0FF340124642790FBF7F090420ADBA8
:1015F8004FFA88F25A4392FBF7F2C9EB020212B291
:101608008242A8BF02464D4B33F81C9002FB04945B
:1016180023F81C4000E03380023607318AE74A4B42
:101628004C4FD3F8008000260E2202FB068237F8C2
:10163800023F92F90640F0B214FB03F3642493FBD3
:10164800F4F43C8009F0D0FF01362044082E38809D
:10165800EAD1364B394E1A683B4F12F0200F9846A4
:1016680032D0002009F0C0FF30800446012009F084
:10167800BBFF334B70801B68190625D52E4B2C4AAF
:10168800D3F83C321B78012B22D13968138891F9A1
:1016980014E0B2F902201EFB03F34FF0320C93FB67
:1016A800FCF31FFA83FE91F906305B4253436FF057
:1016B800310193FBF1F10EEB0102A11893FBFCF34E
:1016C8007344318018447080D7F800E0002318E094
:1016D800D7F800E053889EF9061011FB03F1322376
:1016E80091FBF3F12144318011889EF9142012FBFB
:1016F80001F292FBF3F21044E5E70133082B325371
:101708002AD00E2101FB03E136F91300B1F90020BC
:10171800B1F9021090424FEA4304EEDB0AB282426A
:10172800A8BF0246E9E700BFA41D0020502F0020F3
:10173800BC110020A4110020800800208E11002078
:1017480060110020CC1F002068120020D31F002049
:101758009A0A00208C110020A54CD4F850A19AF9BF
:101768000830A3B994F8189209F1FF33182B72D8EE
:10177800DFE803F03571714F7171714871717171E2
:10178800715971717171714F657171593500DFF857
:1017980084B24FF00009974B3BF9021FBAF90620B3
:1017A800882000FB093009F04AFD3A680E2380B210
:1017B80003FB0922ABF80000B2F90030B2F90220AD
:1017C80000B2984203DB13B28342A8BF034609F173
:1017D8000109B9F1080FABF80030DCD1C2E79AF87B
:1017E800043013B10020718908E0834B1B7803F0A3
:1017F800040303F0FF00002BF4D1014608F0DEFCDF
:10180800012729E00020F18808F0D8FC012031895F
:1018180005E00020318908F0D1FC7189012008F029
:10182800CDFC022718E00227B81E36F81710C0B200
:10183800013708F0C3FC082FF6D106270CE0032770
:10184800F81E36F81710C0B2013708F0B7FC072F9A
:10185800F6D1042700E00027D8F800309A0602D411
:10186800B9F1050F0AD13846318808F0A7FC781C71
:10187800C0B2718808F0A2FC0237FFB2D8F8003075
:10188800DB0205D494F880367BB109F0F3FD0CE057
:10189800DFF884910026B819C0B239F8021F08F0A1
:1018A8008DFC0D2EEED00136F5E7544B1878002844
:1018B80040F09A81D8F800301E0340F1958194F8E1
:1018C8008136023B052B20D84D4B93F8D83733B1DE
:1018D800012B0AD107F0C8FAC0F17F0005E0444B9C
:1018E800D3F8840603689B689847D4F8883694F838
:1018F8008C261344B3F5807FA8BF4FF480738342CE
:10190800D4BFC4F88836C4F8880694F88136023BF8
:10191800082B00F22E81DFE813F009003F002C01AC
:101928002C0158008100F0000E011B01354B1A688C
:10193800D4F8943664339A4240F21B8140200BF06D
:1019480031F9002840F0158140272F4BD4F8902614
:10195800274E985C1D4670B104F0F6FFD6F888361D
:10196800013BC6F88836D6F89036013F03F10103EB
:10197800C6F89036E9D1D4F890261D4BAA5C002A07
:1019880040F0F780C3F890264FF0FF32C3F8942652
:10199800032283F88126ECE0272300931B4B019355
:1019A80003F10C0202924920A3F10A0250210233EA
:1019B80005F00EFB002840F0DC804FF0FF33C4F840
:1019C8009436C4F890060623CCE0114A052300217A
:1019D800009301910291532002F1080305F0F8FAEF
:1019E800002840F0C680C4F890060723BAE000BF7C
:1019F80080080020C00A0020493400204A34002012
:101A08002027002014160020183E0108823E0108F5
:101A18004C4001088C1100205A2F002040200BF068
:101A2800C1F8002840F0A580D4F890360C2B00F2BD
:101A3800A780DFE803F0070B0E121823282D313595
:101A4800434D51006B480BF03BFA50E06A486B4934
:101A580011E06B486B496C4A47E06C4895F8D6171B
:101A680095F8D72741E095F8B03769480C2202FB72
:101A7800035595F8B2170BF023FA38E0654B664822
:101A8800B3F84011F7E7634B6448B3F84211F2E743
:101A9800634B64481969EEE7634B64481988EAE7C1
:101AA800D4F89836D80404D55A4B614893F878117D
:101AB800E1E7604B0B22C3F8902618E05E4895F8E2
:101AC8007C1195F87D2195F87B310BF0F9F90EE042
:101AD8005A48B4F89C16CEE7D8F80030190506D550
:101AE8005748B5F88011B5F97E210BF0E9F9D4F81B
:101AF80090360133C4F890363BE0524B1B689A018C
:101B080016D5B4F8A0364B4D93B9D5F8A4360B9337
:101B18004D4B0E201B680C930BA904F0B9FF4FF432
:101B28008053A5F89E36092385F8813605F008F814
:101B380004F090FF1DE094F8A836002BF6D0414B36
:101B48001B689B01F2D43B4B082283F88126EFE700
:101B58003E4B1A68D4F89436C8339A4205D90BF02C
:101B680067F8012384F8813603E00BF07BF800283E
:101B7800F5D10BF047F8B8B3012384F8813633E088
:101B88000BF070F80028F4D04FF48053A4F89E3678
:101B98000923E7E7BCF80E80B7F806E0CEEB080AA1
:101BA800564502DDC644764516DBBCF80EE0B3F9AF
:101BB80000807645CBBFB7F802E0B1F804E0B1F891
:101BC80002A0B7F800A0F045FFF6F7ABD045C6462F
:101BD800A8BFD646FFF7F1BB4645CCBFB7F802E031
:101BE800B7F800E0FFF7E9BB13B0BDEC0E8BBDE81A
:101BF800F08F00BF585D0108725D0108875D01081C
:101C08008F5D0108A35D0108AF5D0108B85D01089B
:101C1800C95D010820270020D35D0108E25D0108A5
:101C2800541E0020F15D010808000020015E010833
:101C38000B5E010880080020185E0108315E01086B
:101C48003C5E010860110020FC31002014160020C1
:101C58002DE9F04FA34FA44C3A6802F59C432DEDB3
:101C6800028B20332360A14B1E7887B0D6B1A049E0
:101C780009688A4240F20881013E1E7004E1DFF8DB
:101C880090829C48D8F80030072D98BF595D9A4B30
:101C980088BF29461B689847032D09D904EB4505D9
:101CA8000136A88007F048FEF5B28542E7D320E068
:101CB800D8F8002005F10E0302EB8303D9881A89AE
:101CC8000028EBD04FF47A73401A5843531A90FB0C
:101CD800F3F040F6C90300F57A70984205DC40F24B
:101CE800EE239842B8BF184601E040F6CA0080B219
:101CF800D4E7824B824E1B68D6F8008042F2010A74
:101D080003EA0A0ABAFA8AFA4FEA5A1A7D4BBAF172
:101D1800000F05D194F828201A707B4A5178117069
:101D28001B782BB1784B93F8009089F0010900E0FB
:101D380099460F23DFF8F0B184F82930002507F021
:101D4800FBFD854267DA6B00B9F1000F03D06F4ADB
:101D580032F8150000E048466D4ADFF8D0C1116836
:101D6800CA8A82424FEA850E6A4A02D8098B8142A2
:101D78001CD25CF80E005C49804501D2D05A19E0AB
:101D8800E8B202928DE80A0007F0ECFD032D019BF2
:101D9800029A0FDC00994FF0010E91F829C00EFA53
:101DA80005FE2CEA0E0E81F829E003E008F596718D
:101DB8004CF80E10BAF1000F28D194F8BC10032289
:101DC800B1FBF2F202EB42028A1A03EB050E5EFA4D
:101DD80082F204EB4202508594F8BD202AB9022908
:101DE80013D9414A012182F8BD10BBF800203BF805
:101DF800020C1044BBF802201044474A80B2D0526B
:101E080000B2032290FBF2F080B2424AD052013570
:101E18000BF1060B93E794F82920404BA2F10F0130
:101E28004A424A4184F8D6206AB13D4A12685201B2
:101E380009D43268D9689A60521AC82A1FD901226F
:101E480083F821201BE0304A01215170117032685B
:101E58009968DA605B68521A9A4282BF2F4B002257
:101E680083F82120002507F067FD854207DAE8B2EC
:101E780007F078FD274B23F815000135F3E794F8B0
:101E8800BC30013384F8BC301C4B1A6812F4805FF4
:101E9800984605D0224B1B68DD0701D40DF0BAF92E
:101EA8001B4B39681F68BB7A002B41D0013B19488E
:101EB8003A7B30F813301AB1C3F53B6308339BB251
:101EC8001BB2A3F57A73B3F57A7FA8BF4FF47A7380
:101ED80023EAE37307EE903A9FED127AF8EEE77A79
:101EE8005FE000BFFC3100202C0F002010160020FE
:101EF8000C160020082F002070000020502F002012
:101F0800141600200C13002000000020300F0020C1
:101F180008160020542F0020EA0F00201816002071
:101F28006011002000007A44580F0020A00F002004
:101F3800D8F80020100440D5D4F8D820934E8A1A37
:101F4800002A3ADB01F59C422032C6F8D820904A94
:101F58005079904A32F81050A8B2FD7A90FBF5F506
:101F680096F8DC00013000F00F0286F8DC203244DD
:101F780082F8DD501A468848185C01330244102B59
:101F880092B2F8D112B292FBF3F31BB2642BA8BF42
:101F9800642323EAE37307EE903A9FED807AF8EE24
:101FA800E77AC7EE877A7E4A9FED7E7A67EE877A70
:101FB800FCEEE77A17EE903A1380D8F800307A4DA5
:101FC80013F4807F00F00981784BDFF8E49199429F
:101FD80005D999F8022012B9012289F8022099F846
:101FE8000220002A00F0F980714A2F7892F82160C7
:101FF800721E564256416F4A1168002EC1F3806323
:10200800C7F380070093924614BF4FF0000B4FF0C0
:10201800030B99F82020052A00F2D980DFE802F0A6
:10202800034D527584A1002F3AD0D4F8F000B4F8CB
:10203800F41003F05EFB012809D15F495F4A096883
:102048001268C988642000FB0122C9F81020009B8F
:102058006BB1594A126812794AB109F03FFB032261
:1020680089F820204FF47A72C9F81C20D1E7002E95
:1020780040F0AD80514AD9F8101010684C4A884297
:102088000AD9019209F02AFB019A032182F820104B
:1020980040F6B831D161BCE7012182F82010B8E7D9
:1020A800009B4FF4806013B105F050FF01E005F08C
:1020B8003DFF0022C9F8102089E0002E46D109F022
:1020C8000DFBA6E726B1052289F82020012000E0B3
:1020D800304667B1D4F8F020D189394A118051804F
:1020E8009180354909684988D1804FF0020B334AFD
:1020F8001168D9F81420914201D8002F64D147F211
:102108003052C9F81C20032221E02A7842F002024A
:102118002A700DF07FF8294AD9F81C1012680A4471
:10212800C9F81820042212E0244A9EB11168D9F88F
:10213800182091424BD9234A92781AB9DAF800202C
:10214800D30744D42A7822F002022A70052289F89B
:1021580020205EE71268D9F81C100A44C9F8182034
:1021680035E01549154A09681268C988642000FBDA
:102178000122C9F810204FF48060002289F820203D
:1021880089F8032005F0D2FE43E700BF2C0F00209A
:102198005815002068150020091000200000C842CA
:1021A800D411002000C07F4449340020404B4C002B
:1021B800181600206011002074200020141600203A
:1021C800542F00200000002000287FF422AFBBF12C
:1021D800000F02D0584603F0E5FAA54EA54FB6F811
:1021E8004E1106F5C37003F084FA824630BBA24B49
:1021F8001B6813F0006908D0FB7833B90BF0CAF8F4
:102208009E4B012818BF002018702B78580708D556
:10221800D8F80030D90604D4B9F1000F01D0FB7802
:102228005BB3974B1B6803F57A730122C4F8F83047
:10223800924B3A71FA7000221A701EE0D8F80030FA
:10224800DA0615D42B785B0712D58B4B1B6818015F
:102258000ED5FB7863B18A4B1A68D4F8F8309A42E5
:1022680009D90BF097F830B9844BF870187002E070
:10227800824B00221A7000233B712B7859073AD5FC
:10228800D8F80030DA0636D594F8FC30DFF8F49147
:10229800DB0630D4BB7843B396F8E031BAF1000FCF
:1022A80011D15BB1764B1A68D9F800319B1A002B13
:1022B80004DA0CF0AFFF89F804A11CE0102003F049
:1022C80071FA01230EE03BB16D4A12684FF47A713E
:1022D80001FB0323C9F8003194F804315BB103F022
:1022E8004DFA002384F8043105E0BAF1000FE5D077
:1022F80099F80431F2E7002296F8DEB196F8DF117A
:10230800B6F896E1B6F898C11346DFF89091CDF883
:10231800009039F912009B087045C4BF63F07F0331
:10232800DBB201326045B8BF43F04003042AECD168
:1023380094F8052153489A4205D190F80621F92AC4
:1023480004D8013200E0002280F8062184F8053123
:10235800BB784C4ADFF8209133BBD9F80000C0079E
:102368000AD582F80731BAF1000F1DD12B78DA07A8
:102378001AD50CF0A3FD17E02B785B0714D5424B58
:102388001B788BB1414BDB7873B992F80731013375
:10239800DBB2032B82F8073106D911B10CF03AFFF2
:1023A80002E0BAF1000FF9D094F80631354ADFF8A7
:1023B800F0A0142B40F09D80BB781BF1000B18BFD8
:1023C8004FF0010B6BB392F805315F2B11D12B78CD
:1023D80003F0040303F0FF0113B10CF01BFF08E046
:1023E8000B200291019203F0DDF9019A029982F81B
:1023F8000611BBF1000F14D094F805317D2B10D1D4
:102408002B7803F0040303F0FF0213B10CF002FF72
:1024180007E00B20019203F0C5F91A4B019A83F8E3
:1024280006212B7803F0040303F0FF01002B60D191
:1024380094F80531134A572B0BD1154B4FF47A7288
:102448001A80144B1B685F0753D5134B0A221A8056
:102458004FE0D8F80000400731D55A2B2FD192F819
:102468000831FBB1012382F8081182F8093140E0F4
:102478002027002000000020601100204D3400209B
:10248800141600202C0F00200C1300201816002012
:10249800443400205811002046340020542F0020D6
:1024A800A011002092F80A3183F0010382F80A3162
:1024B8000BB10C2000E00D2003F074F919E05D2B3E
:1024C80000F062845B2B00F061845E2B02D1032054
:1024D80000F05DBC562B01D106F00AF8BB78002B42
:1024E80000F0688494F805316F2B40F05D840CF09F
:1024F800E5FCD8F80030580738D594F80A31B74ABF
:102508009BB12B78590710D5009BB3F90610B6F884
:102518009631994209DDD9F8003013F0010302BF62
:102528003221A2F80E1182F80A31D9F80030DA0304
:102538000DD594F81021A94B2AB993F8082112B99E
:102548003222A3F80E21012384F810310EE094F80A
:102558000831A24A53B12B7803F0040303F0FF01BA
:1025680023B9012382F8081182F80931DAF800A0AA
:102578000023C9F800300AF187070AF1D70B3A7827
:102588007B7817F8010C9A420DD2394603F066F8A9
:1025980048B117F8022C012303FA02F2D9F80030E7
:1025A8001343C9F8003004375F45E8D18C4B1B78DA
:1025B8003BB18C4B1A6812F0020F994640F03683F3
:1025C8002DE30AF1D6070AF58F793A787B7817F860
:1025D800010C9A4225D2394603F040F808B3BB787B
:1025E80097F804C0804A97F803A07C480C21013B67
:1025F80001FB0C4103EB43031344D1F818219A4221
:102608000FD0C1F81831002390F84421C1F81C31CB
:10261800012303FA0CF322EA030381F814A180F8DA
:10262800443106374F45D0D1704B1F68704B1B683B
:102638000293704B1B7803936F4B01930023009315
:10264800019B1A68002A00F0DF8292F800A0BAF114
:10265800000F00F0D9825B680299CB1A002B0CDBC3
:1026680001F5FA7301994B60009901238B4094F8A6
:10267800441121EA030384F84431039B002B00F042
:10268800C382019B517813F8043C0433DBB2002960
:1026980040F07982594931F91310B6F8943103F1B1
:1026A800C800814202DD92F802B015E0C83B9942A9
:1026B80003DA9178C1F1000B0EE0009A01239340F0
:1026C80094F8442122EA030384F84431029B019AD6
:1026D80003F5FA73536097E294F84431009A134172
:1026E800DB0700F19182BBF1000FCCBF0220012073
:1026F80003F08EF80AF1FF33DFF8E090132B00F2B5
:102708007B82DFE813F01400250037004B006400DB
:102718008300E6004901B001DE010E0279024B0098
:102728005A008300E6004901B8001B01800197F8B0
:102738000090D944B9F1FA0FA8BF4FF0FA0929EA75
:10274800E979384687F8009002F06EFF01200FE023
:1027580097F80190D944B9F1640FA8BF4FF0640904
:1027680029EAE979384687F8019002F05DFF0220EE
:102778004946D3E197F803A0DA44BAF1640FA8BF39
:102788004FF0640A2AEAEA7A87F803A03846D9F8AB
:10279800481102F0FFFE03205146BFE17979594400
:1027A8006429A8BF642121EAE17179710D2002F042
:1027B800D1FFBAF10D0F00F01F823979594464290D
:1027C800A8BF642121EAE17139710E20A6E1B97927
:1027D800594481F30801B97105209FE12C0F0020AD
:1027E8004A3400206011002074400108DC110020E8
:1027F800141600200C13002044100020542F002031
:1028080000007A440000C84200000000D9F84C31AA
:102818001A78022A20D107EE90BAB8EEE70A5FEDDF
:10282800077A93ED097A80EE270A30EE070AB5EEAB
:10283800C00AF1EE10FA07D4B4EE670AF1EE10FA06
:10284800C8BFB0EE670A01E01FED110A83ED090A5F
:102858000F2002F069FF0AE099785944C829A8BFF7
:10286800C82121EAE17199700F2002F073FFBAF1D3
:102878000F0F00F0C181D9F84C311A78022A1ED105
:1028880007EE90BAB8EEE78A5FED227A93ED080A70
:1028980088EE278A38EE000AB5EEC00AF1EE10FA83
:1028A80007D4B4EE670AF1EE10FAC8BFB0EE670AB3
:1028B80001E01FED2B0A83ED080A122056E1597832
:1028C8005944C829A8BFC82121EAE17159701220CA
:1028D80024E1D9F84C311A78022A20D107EE90BAAF
:1028E800B8EEE70A5FED397A93ED0C7A80EE270AA5
:1028F80030EE070AB5EEC00AF1EE10FA07D4B4EECE
:10290800670AF1EE10FAC8BFB0EE670A01E01FEDE2
:10291800420A83ED0C0A102002F006FF0AE0197B38
:102928005944C829A8BFC82121EAE17119731020A8
:1029380002F010FFBAF1100F00F05E81D9F84C31A7
:102948001A78022A1ED107EE90BAB8EEE78A5FED30
:10295800537A93ED0B0A88EE278A38EE000AB5EE13
:10296800C00AF1EE10FA07D4B4EE670AF1EE10FAD5
:10297800C8BFB0EE670A01E01FED5D0A83ED0B0AE0
:102988001320F3E0D97A5944C829A8BFC82121EAFD
:10299800E171D9721320C1E0D9F84C311A78022AB2
:1029A80022D107EE90BA1FED6A0AF8EEE77A87EEB1
:1029B800800AD3ED0F7A30EE270AB5EEC00AF1EEA1
:1029C80010FA09D45FED717AB4EE670AF1EE10FAE5
:1029D800C8BFB0EE670A01E01FED750A83ED0F0A64
:1029E800112002F0A1FE0AE0997D5944C829A8BF28
:1029F800C82121EAE1719975112002F0ABFEBAF104
:102A0800110F00F0F980D9F84C311A78022A20D138
:102A180007EE90BA1FED860AB8EEE78A88EE008ABC
:102A280093ED0E0A38EE000AB5EEC00AF1EE10FA80
:102A380009D45FED8C7AB4EE670AF1EE10FAC8BFDC
:102A4800B0EE670A01E01FED900A83ED0E0A14202C
:102A58008CE0597D5944C829A8BFC82121EAE171F1
:102A6800597514205AE0D9F84C311A78022A1ED127
:102A780007EE90BAB8EEE78A5FED9E7A93ED0A0A00
:102A880088EE278A38EE000AB5EEC00AF1EE10FA91
:102A980007D4B4EE670AF1EE10FAC8BFB0EE670AC1
:102AA80001E01FEDA70A83ED0A0A09205EE0D97844
:102AB8005944C829A8BFC82121EAE171D970092061
:102AC8002CE0D9F84C311A78022A1ED107EE90BAB8
:102AD800B8EEE78A5FEDB57A93ED0D0A88EE278A9E
:102AE80038EE000AB5EEC00AF1EE10FA07D4B4EEDB
:102AF800670AF1EE10FAC8BFB0EE670A01E01FEDF1
:102B0800BE0A83ED0D0A0A2030E0597B5944C829D2
:102B1800A8BFC82121EAE17159730A2002F01AFE00
:102B28006AE0D9F84C311A78022A22D107EE90BA15
:102B38001FEDCD0AB8EEE78A88EE008A93ED100AF9
:102B480038EE000AB5EEC00AF1EE10FA09D45FEDCE
:102B5800D37AB4EE670AF1EE10FAC8BFB0EE670A8E
:102B680001E01FEDD70A83ED100A0B2002F0DCFD0F
:102B780042E0D97D5944C829A8BFC82121EAE1719A
:102B8800D9750B20CAE7012936D19078AE4A32F9B7
:102B98001390B9F5617F05DB40F633039945A8BF6B
:102BA800994601E04FF46179BAF10C0F24D1A74A94
:102BB8004FF4966393FBF0F01378A9F5617999FBCC
:102BC800F0F95FFA89F94B4516D0B9F1040F34BF13
:102BD8004B46022313709E4A0AFB036303F2B27347
:102BE800136005F097FA5046494602F0B3FD09F123
:102BF8000100C0B202F00CFE009A0123934094F841
:102C08004421134384F84431009B01330093019B12
:102C18000C330193009B042B7FF412ADC9E4D8F860
:102C28000030DF050FD58B4BDB7863B18A4B1B680F
:102C3800980708D5894B1B8813F0010708D1012094
:102C480005F084F904E0012005F070F9012300E0A3
:102C58000023D9F8002051070BD553B1012005F006
:102C680065F97E4B1B889A0706D4022005F06EF999
:102C780002E0022005F05AF9D9F800301B054FF49C
:102C8800807002D505F062F901E005F04FF973791B
:102C9800082B01D00E2B02D1402005F047F9D8F8B7
:102CA80000305F0519D596F818321BB92B7813F048
:102CB800040F03E0D9F8003013F4002F09D0684B53
:102CC80000221A703C200AF031FB30B10AF084FD72
:102CD800F8E705F0F9FC0AF03AFA012384F85031D4
:102CE80094F851310BB35C4B1B6858071DD5D9F8C4
:102CF8000030190703D4082005F018F915E0574BE0
:102D08001D8805F00805ADB27DB9082005F01EF94B
:102D1800544B1A68544B1A604B4BDA88534BA3F840
:102D28005221534B1D60534B1D6094F85131002BB9
:102D380000F08480484B1B68DA067FD5D9F800304C
:102D48009B0208D44FF4007007B0BDEC028BBDE8BD
:102D5800F04F05F0EBB8414B1C8804F40074A4B2A2
:102D6800002C6BD14FF4007005F0F0F83D4B1A6859
:102D78003D4B1A60344BDA883C4BA3F852213C4B4C
:102D88001C603C4B1C6059E0012000E00220C7B2E7
:102D98007B1E86F8B03705F023F905F0DFF93846D1
:102DA80002F036FDFFF7A5BBBBF1000F02D07E2B6A
:102DB8003FF49DAB94F805312C4A972B05D14FF47D
:102DC800C873A2F80C31FFF794BBA72B07D192F870
:102DD800FC3043F0040382F8FC30FFF78ABB002282
:102DE800BB2B059201D1022303E0B72B04D14FF688
:102DF800FE73ADF816300AE0BE2B01D1022304E0C1
:102E0800BD2B7FF476AB4FF6FE73ADF81430DAF8CD
:102E18000030BDF81410B3F864200A44A3F8642005
:102E2800BDF81610B3F866200A44A3F8662005F02A
:102E38005FFB002384F80631FFF75BBB07B0BDECEE
:102E4800028BBDE8F08F00BF542F00207C2F00209C
:102E5800DC11002018160020581100205C110020F9
:102E68000D2F0020C4110020383200202C0F002024
:102E780040320020443200202DE9F04F2DED028B26
:102E8800AF4F8DB03D780097002D00F0A980AD4B75
:102E98001A689846002A00F0CD87D8F8000008F094
:102EA800C8F9002800F0C687A64BA74D186808F097
:102EB800BDF9092801D03F284AD14FF0000A2F68F0
:102EC800A24C56462FB1A24821683A460FF090FB13
:102ED80010B9A24606B926469E4B10349C42F1D33F
:102EE800C6B1D6F800E0DAF800C02B681EF8034037
:102EF8001CF80300A0420DD15A1C954938B92D2B56
:102F080005D8914C22602024CC54885402E0CC543B
:102F18002A60EAE72B680BB1564510D08E480AF0B4
:102F280065FD564507D856F8100B0AF05FFD0920D5
:102F38000AF054FDF5E789480AF058FD00272B6888
:102F48009F42AAD2824BD85D0AF048FD0137F6E7C6
:102F58002B68002B40F0F586042840F050877C4809
:102F680002F034FE00F066BFDBF80000DFF818A2BC
:102F780008F05FF910B3DAF8000008F057F9236891
:102F880093F84810074600293DD1242875D101221D
:102F980083F848202368724F93F84820062AE3D123
:102FA80093F8490000F060FF0446002800F08D8087
:102FB8000AF05EFC3368002283F84820694B9B794D
:102FC80053B158F8050002F06CFC08F0A5FA04F0BB
:102FD800DDFF654B654ADA604C35982D00F02A878D
:102FE800DFF8A88105EB080393F84A20012AF3D1FA
:102FF8005B4EDFF89491336055F80830C9F800301B
:103008003446CB46B0E7012904D14D2814BF00222D
:103018000222BDE7022904D13C2814BF0022032262
:10302800B6E703290CD140284FF0000102D983F8F4
:103038004810AFE758711971D97198710422A7E740
:10304800042907D1997983F8490080EA01029A7125
:1030580005229DE705299DD15879197988429879E3
:1030680006D978409871481C18710B441F7291E773
:10307800B8420CBF062200228AE73D4B19784A075E
:1030880088D42328DAF8001012D10193009B01207C
:1030980018702C4801603348016036480AF0A6FCD5
:1030A8002E480AF0A3FC019B197841F0020119701F
:1030B800314B1B681B78BB4201BF304B304A1A604A
:1030C800294B04BF294ADA6064E73A6892F8493024
:1030D8004A2B00F02D8676D8332B00F0608422D856
:1030E800292B00F0FD8309D8252B00F0B783272B67
:1030F80000F0D683232B40F0208675E22D2B00F0BC
:10310800018408D82B2B40F018860AF085FB1D4B4C
:10311800587100F00DBE2F2B00F0A384312B00F066
:10312800B38400F00ABE3E2B00F0298138D8372B33
:1031380000F067842CD8352B00F08E8200F0FDBD9E
:103148004A340020A02F00205C120020E447010828
:103158002C120020B4490108115F0108165F01080C
:10316800982F00208010002000ED00E00400FA05F0
:1031780049340020465F0108102F0020FC9F0020E2
:10318800EFBEADDE202700209C2F002088260020DF
:10319800392B00F093833C2B00F0FC8000F0CDBD70
:1031A800432B00F00C8404D8412B40F0C685002442
:1031B800FBE3442B00F09C84482B40F0BE8505F0CF
:1031C80063FE00F0B5BDD02B00F0228361D8CA2B76
:1031D80000F0F58017D84E2B00F0B783C82B00F00D
:1031E800A1804C2B40F0A9850AF016FBBD4C84F851
:1031F800D6010AF011FB84F8D7010AF017FBA4F8EE
:10320800D80100F095BDCD2B00F00E8304D8CC2B4F
:1032180000F0498200F091BDCE2B00F00F83CF2B38
:1032280040F08B850AF002FB6FF4AF67C3199BB2BD
:10323800AC4CC62B98BFA4F894010AF0F7FAA4F88E
:1032480040010AF0F3FAA4F842010AF0EFFAA4F8F0
:1032580044010AF0EBFAA4F8D8010AF0DDFA0AF002
:10326800DBFA0AF0D9FA0AF0D7FA84F883010AF0EF
:10327800D3FA84F890010AF0CFFA9B4B1F680AF042
:10328800D5FA00EB80004000A7F862000AF0C4FA03
:1032980017E3D82B00F03C810ED8D32B3CD003D8B1
:1032A800D22B25D000F049BDD42B00F04382D62B79
:1032B80040F04385002434E2F22B00F080820FD8DE
:1032C800EF2B40F03A85884C27680AF0AFFAA7F848
:1032D800660024680AF0AAFAA4F8640000F028BD81
:1032E800F32B00F00984FA2B00F0B38200F025BD1F
:1032F8007E4B1B7803F0040303F0FF04002B40F01F
:1033080017850AF089FA774B022883F8B00740F24C
:10331800868283F8B04782E20AF088FA744B988074
:1033280000F006BD54796408122C03D90AF052F84B
:1033380000F0FEBC4FF00009A14507D20AF076FA6A
:1033480003AB23F8190009F10109F5E72246002328
:10335800A34207DA03A931F81300664921F81300DC
:103368000133F5E7122A05D0624B002123F8121029
:103378000132F7E7604B01221A7000F0D9BC0AF05D
:103388004BFA584C84F8E0010AF046FA84F8DF0159
:1033980000F0CEBC544C27680AF03EFA18B1022857
:1033A800A8BF022000E00120387023681B78022B98
:1033B800524B14BF524A534A1A6000F0B9BC4A4BE8
:1033C8001A681278022A99466ED1D9F800700AF064
:1033D80023FA07EE900AF8EE677AB2EE048AC7EE8F
:1033E800887A07EB840AD9F80070CAED087A0AF0DF
:1033F80013FA07EE900A9FED447AF8EE677A07EB26
:10340800840AC7EE877AD9F80070CAED0B7A0AF0F9
:1034180003FA07EE900A9FED3D7AF8EE677A07EB1C
:10342800840AC7EE877A0134032CCAED0E7ACCD110
:10343800072CD9F800701CD10AF0EEF907EE900AB3
:10344800F8EE677AC7EE887AC7ED117AD9F8007076
:103458000AF0E2F907EE900AF8EE677AC7EE887A82
:10346800C7ED127AD9F800700AF0D6F987F84C003F
:1034780015E00AF0D1F907EB040A8AF80100D9F837
:1034880000700AF0C9F907EB040AD9F800708AF845
:103498000B000AF0C1F907EB040A8AF81500013499
:1034A8000A2CC5D100F044BCD9F800700AF0B4F970
:1034B80007EB040A8AF80100D9F800700AF0ACF9A1
:1034C80007EB040AD9F800708AF80B000AF0A4F98F
:1034D80007EB040A01340A2C8AF81500E4D100F03D
:1034E80027BC00BF20270020A0110020493400205D
:1034F8008010002054140020D52F0020EC0200205A
:1035080075AA000881AD00080000C84200007A448E
:10351800D64F9FEDD78AD7F800A00AF087F907EEB3
:10352800900AF8EE677A0AEB840AC7EE887AB946F9
:10353800CAED087AD7F800A00AF078F907EE900AE1
:10354800F8EE677A0AEB840AC7EE887ACAED0B7A36
:10355800D7F800A00AF06AF907EE900AF8EE677A41
:103568000AEB840AC7EE887A0134032CCAED0E7A76
:10357800CED1072CD9F800701CD10AF057F907EE04
:10358800900AF8EE677AC7EE887AC7ED117AD9F80B
:1035980000700AF04BF907EE900AF8EE677AC7EE6A
:1035A800887AC7ED127AD9F800700AF03FF987F8DF
:1035B8004C0015E00AF03AF907EB040A8AF8010012
:1035C800D9F800700AF032F907EB040AD9F800704C
:1035D8008AF80B000AF02AF907EB040A8AF81500A2
:1035E80001340A2CC5D1A3E30AF016F91328814641
:1035F8003FF69CAE9D4F3C680AF00EF900239D49AA
:103608000C2202FB0312117A814221D10FFA89F9A7
:1036180004EB8904137884F885300AF0FDF884F8FF
:1036280086000AF0F9F884F887000AF0F5F8924B5A
:10363800924A1A6084F88800914B38681860002113
:10364800853002F045F88F4B80F0010018706FE369
:1036580001331D2BD3D169E60AF0DEF80B28814629
:103668003FF664AE814B1C680AF0D6F803283FF693
:103678005DAE062303FB094484F8DA000AF0CCF8AF
:1036880084F8D5000AF0C8F884F8D6000AF0C4F81F
:1036980084F8D7000AF0C0F884F8D8000AF0BCF81B
:1036A80084F8D90044E35379092B7FF63FAE764C72
:1036B80027680AF0B1F8387027680AF0ADF8787012
:1036C8000AF0AAF823686428A8BF642018710AF0D1
:1036D800A3F823686428A8BF642058710AF09CF8EE
:1036E8002368FF28A8BFFF2098710AF095F827687B
:1036F800642828BF6420F8710AF08EF8B87027682B
:103708000AF08AF8F87027680AF090F83368788128
:103718005B790A2B40F20C8324680AF07DF820724A
:1037280006E30AF083F8594B23F814000134082CF7
:10373800F7D1FDE253790F2B7FF4F8AD0AF06CF85E
:10374800072804463FF6F2AD484FD7F800A00AF024
:103758006DF80E235C43A244AAF82501D7F800A00F
:103768000AF064F8A244AAF82701D7F800A00AF0E2
:103778005DF8A244AAF82901D7F800A00AF04CF88D
:10378800A2448AF82B01D7F800A00AF045F8A24411
:103798008AF82C01D7F800A00AF03EF8A2448AF86B
:1037A8002D01D7F800A00AF037F8A2443F688AF83C
:1037B8002E010AF045F83B19C3F82F01B8E20AF0C8
:1037C8002BF80F2804463FF6B1AD0AF025F8304B28
:1037D800C4EBC4041C4484F8D0000AF01DF884F833
:1037E800D1000AF019F884F8D2000AF015F884F824
:1037F800D3000AF011F884F8D4000AF00DF884F820
:10380800D5000AF009F884F8D60007F0C5FE8FE263
:10381800204B1B785C0700F18B8208F005FF04F051
:10382800DFFB04F09BFC83E21A4B1B78580700F17E
:103838007F82194B4FF4C8721A8079E2154B1B78B6
:10384800590700F17582154A137843F00403137081
:103858006EE2104B1B785A07E1D56EE20C4B98606C
:1038680009F0EEFF04F08AFB62E200BFA01100201D
:1038780000007A44E040010874100020602800200D
:103888007810002002000020DC1100207E2F00208C
:10389800202700204934002038100020281000205C
:1038A80009F0C4FFCB4CA4F8580109F0BFFFA4F8F5
:1038B8005A0109F0BBFFA4F85C0139E209F0ACFF3A
:1038C800C44C84F8780109F0A7FF84F87C0109F05A
:1038D800A3FF84F87B0109F09FFF84F87D0127E2AC
:1038E80009F0A4FFBB4CA4F87E0109F09FFFA4F8DF
:1038F800800109F091FF84F8820109F097FFA4F88C
:10390800840115E209F088FFB24C84F88E0109F0B1
:103918008DFFA4F8980109F089FFA4F8940109F033
:1039280085FFA4F8960109F077FF3B6884F88F01BA
:103938005B79082B40F2FC8109F078FFA4F89C0120
:1039480009F074FFA4F89E01F2E154790323B4FB53
:10395800F3F4122C3FF6EAAC9E4F4FF0000AA24552
:1039680080F0E68109F058FF87F8A00109F05EFFB2
:1039780040F2ED23984205DD40F6CA039842A8BFFD
:10398800184601E040F2EE20A0F2EE2019230AF1D9
:10399800010A90FBF3F0023787F89F01DFE709F08F
:1039A8003BFF8C4B83F89001C2E109F035FF894B4E
:1039B80023440134082C83F88601F6D1B8E109F0D4
:1039C8002BFF844F7871BC6009F03AFF04F0D6FAF7
:1039D80009F022FF87F88E0109F028FFA7F858019F
:1039E80009F024FFA7F85A0109F020FFA7F85C01A5
:1039F80009F01CFFA7F87E0109F018FFA7F880015D
:103A080096E153790724B3FBF4F2C2EBC2029A1A87
:103A180012F0FF0F7FF48AACB3FBF4F4013CE4B27C
:103A2800FF2C00F0858109F0F7FE5FFA80FA4FFA63
:103A38008AF001F0CFFC074600283FF477AC80F805
:103A480000A009F0F3FE788009F0E6FE387109F06D
:103A5800E3FE787109F0E0FEF87109F0DDFEB87157
:103A6800DCE75C4C04F1400909F0E0FEA4F8A80288
:103A780009F0D2FE84F8AA0209F0CEFE043484F8D4
:103A8800A7024C45F0D153E109F0C6FE1F280446B1
:103A98003FF64CAC33685B79082B7FF447AC09F0F0
:103AA800C5FE4C4F8A3407EB840900F03F00A9F8A3
:103AB800020009F0BBFEB9F80230800100F4FE50A4
:103AC8001843A9F8020009F0A7FE000107F824002E
:103AD80009F0A2FE17F8243000F00F00184307F889
:103AE800240009F099FE89F8010004F05DFF1FE148
:103AF800394B01229A711BE109F08EFEFF2882469C
:103B0800354C6DD14FF0000904F108004946602298
:103B180084F807900EF01FFD8DF80B909DF80B3080
:103B280094F86A202C4F9A424BD99DF80B3007EB3A
:103B3800C30393F86D30DB073CD59DF80B3007EBDA
:103B4800C30393F86C20254B33F91230002B31DD79
:103B58009DF80B3097F8079007EBC3034FEAC90E9F
:103B68001B6F58689DF80B3007EBC30A07EB0E0173
:103B7800DAF8703088601A89CA8192B2002101236C
:103B88008B40134003D101311029F8D100E00B46D6
:103B980004EB0E0109F101098B8104238DF80E3025
:103BA80003A90123ADF80C208DF80F3008F016FB9F
:103BB80084F807909DF80B300133DBB28DF80B3099
:103BC800ACE7012009F078FEF87909F042FEFFF72A
:103BD800EFB900BF2027002080100020A41100208A
:103BE800E3799842BFF4A2AB002009F065FE09F022
:103BF8003FFE3368186801F054FED9F8000009F058
:103C0800EBFD01F0BBFD72B64FF0904B4FF48063B3
:103C18004FF40077ABF828304FF00109ABF8287063
:103C28005846ADF80C3003A904238DF80E308DF8F2
:103C38000F904FEACA0A08F0D1FA584603A9ADF81E
:103C48000C708DF80E908DF80F9008F0C7FA04EB01
:103C58000A00816883890A6803FA09F309FA03F3F9
:103C680013430B60C3898B61CBF818704FF09043F6
:103C78001B8A5805FAD404EB0A0301229868B3F8A2
:103C88000CE001684FEA4E0E02FA0EF20A43026097
:103C98009A68DB8913854FF090424FF400711185C3
:103CA8000821C2F8181440F605594FF0904BBBF89C
:103CB8001020510505D4B9F1000FF6D009F1FF39EC
:103CC800F3E78361ADF80C3004238DF80E3003A9B7
:103CD80001238DF80F3008F081FAB9F1000F16D0E2
:103CE8004FF090431A8A5205C5D504EB0A014FF4E8
:103CF80000708A68C989128A1142514A18BF9861AE
:103D08004FF008010ABF188591611185E8E74FF463
:103D18000073CBF818304A4B08229A6162B60A2021
:103D280001F0B5FD09F013FA3368F32283F849204E
:103D3800002009F0C1FDFFF73BB909F04BFBFFF785
:103D480037B90C2803D13F4809F050FE49E00A284A
:103D580001D00D2847D13C4C3C4809F047FE20468D
:103D680023210EF02EFC08B1001B28602B687BB3C2
:103D78005A1EA15C202901D11346F8E7324A2B606C
:103D88000021D154324B334CD3F800A0D4F800B002
:103D98002D4F58460EF023FC064632463846594603
:103DA8000EF026FC2C4A20B9BB5D53445B785907BA
:103DB80003D010349442E9D306E0944204D2701C34
:103DC800E3683844984702E0244809F00FFE0023CE
:103DD8001D482B60002130220EF0BDFB009B1B7894
:103DE80043B31F4807E07F280FD1013B164A1D48FF
:103DF8002B600021D15409F0F9FDFFF74EB80C28CB
:103E0800A1D07F2804D1FFF748B82F2B3FF645A84B
:103E1800A0F12002D2B25E2A3FF63FA813B92028AB
:103E28003FF43BA85A1C2A60074AD05409F0D6FD33
:103E3800FFF733B80DB0BDEC028BBDE8F08F00BFC3
:103E4800000400481B5F01082C120020E16B0108E8
:103E5800F8020020E4470108B4490108265F010878
:103E6800165F0108425F01082DE9F04F2DED028B26
:103E78004728A1B0044600F0678600F2CE802E28BD
:103E880000F0168667D8222800F0C08423D80328BB
:103E980000F0408214D8012800F03182022840F056
:103EA8008886042009F008FD422009F0D2FC54203D
:103EB80009F0CFFC462009F0CCFC4C2000F0CABD2C
:103EC800042800F03182052840F073861A2009F092
:103ED800F3FC002438E2282800F0838515D824282C
:103EE80000F06A85262840F06486C64C062009F052
:103EF800E3FCB4F8580109F0E2FCB4F85A0109F0FF
:103F0800DEFCB4F85C0100F0B6BD2A2800F07C8520
:103F18002C2840F04E86BB4C0C2009F0CDFC94F8C0
:103F28008E0109F096FCB4F8980109F0C8FCB4F8C1
:103F3800940109F0C4FCB4F8960109F0C0FC94F8A7
:103F48008F0109F086FCB4F89C0109F0B8FCB4F8BC
:103F58009E0100F090BD3A2800F0E5821DD8342873
:103F680000F076840DD8302800F0B885322840F06B
:103F78002086012009F0A0FCA24B93F8900100F0E4
:103F880069BD362800F07A85382840F0128604206A
:103F980009F092FC9B4C00F015BD402800F05D85AF
:103FA80011D83B2800F02B843D2840F00286954C20
:103FB800022009F081FC94F8E00109F04AFC94F829
:103FC800DF0100F047BD452800F0E08500F2AB8531
:103FD800422840F0EE858B4C102009F06DFC60798A
:103FE80009F037FCA06809F073FC94F88E0109F019
:103FF80030FCB4F8580109F062FCB4F85A0109F031
:104008005EFCB4F85C0109F05AFCB4F87E0109F0D2
:1040180056FCB4F8800100F02EBD6F2800F0D6825F
:1040280000F2F880662800F0CB8100F2C2804D28AB
:1040380000F0F08415D8492800F0C2824B2840F0DF
:10404800B885704C042009F037FC94F8D60109F0C3
:1040580000FC94F8D70109F0FCFBB4F8D80100F093
:104068000ABD642800F08981652840F0A285664C65
:104078000B2009F021FC208809F021FC6268634BC1
:104088009A420CBF2089608980B209F018FCE36865
:10409800C3F3C000C3F38002800040EA4200C3F3C8
:1040A80040021043C3F3401240EAC20003F0100379
:1040B800184309F004FC218A6369247E01F0080290
:1040C80003F4475A4AEA020A03F480424AEA020A17
:1040D80003F400424AEA020A03F480324AEA020A76
:1040E80003F400324AEA020A03F480224AEA020A86
:1040F80003F400224AEA020A03F480124AEA020A96
:10410800434A03F0007B12784AEA0B0A03F0006383
:1041180011F0010FC2F380024AEA030314BF4FF003
:1041280002094FF00009134311F0020F14BF4FF0BA
:1041380004084FF0000843EA090911F0040F14BFFE
:104148004FF0100C4FF0000C49EA080811F0400F2E
:1041580014BF4FF0200E4FF0000E48EA0C0C11F07F
:10416800100F14BF4FF4007700274CEA0E0E11F021
:10417800200F14BF4FF4806600264EEA070711F49B
:10418800807F14BF4FF4006500253E4311F4007F83
:1041980014BF4FF400100020354311F4806F40EA3B
:1041A800050014BF4FF08061002101430020034641
:1041B800F3E0692800F09A810AD8672800F0218185
:1041C800682840F0F684102009F076FB002485E189
:1041D8006D2800F09E8100F2C5816C2840F0E984CA
:1041E800094C062009F068FBB4F8700009F067FB79
:1041F800B4F8720009F063FBB4F974300A2093FB39
:10420800F0F0DBE1202700204C1100200054004092
:1042180049340020772800F088834BD8732800F0B1
:10422800A4833CD8702800F00382722840F0C1842F
:10423800C04C162009F040FBB4F8940109F03FFB8C
:10424800B4F8400109F03BFBB4F8420109F037FB30
:10425800B4F8440109F033FBB4F8D80109F02FFB96
:10426800002009F0F6FA002009F0F3FA002009F01E
:10427800F0FA94F8830109F0ECFA94F8900109F047
:10428800E8FA002009F0E5FAAB4B5B6D0A20B3F9B8
:10429800623093FBF0F080B209F011FB92E37428CE
:1042A80000F00A83752840F084842F2009F004FB6D
:1042B800A24C9CE2A02800F071830AD8782800F06C
:1042C800AC807B2840F075843C2009F0F5FA002486
:1042D80037E2F12800F0DC80FE2800F05183F02856
:1042E80040F06784944C042009F0E6FA636DB3F853
:1042F800660009F0E4FA636DB3F86400BBE30320D9
:1043080009F0DAFA002009F0A4FA204609F0A1FA27
:104318000D209FE309F0D0FA022009F09AFA022052
:1043280009F097FA002095E3062009F0C5FA522013
:1043380009F08FFA4D2009F08CFA442009F089FA27
:104348004F2009F086FA27E37D4B185D013409F008
:1043580080FA0B2CF8D100247A4B185D013409F04F
:1043680078FA082CF8D10024774B185D013409F04D
:1043780070FA072CF8D100F01ABC072009F09CFA53
:10438800E72009F066FA6B4B587909F062FA0020C9
:1043980009F05FFA042000F008BCA3420AD26B4A75
:1043A8009D5C012202FA05F50D421CBF9A4010439C
:1043B8000133F2E709F08CFA5E4B93F8B00749E352
:1043C800122009F079FA624B1B88B3F5806F8CBF15
:1043D800082601260025584C04F1360333F9150048
:1043E80090FBF6F0013580B209F069FA032DF2D19D
:1043F800A08F09F064FAE08F09F061FAB4F8400080
:10440800C2E2102009F058FA0024524B185D01341A
:1044180009F01FFA102CF8D1C9E3702009F04CFA02
:104428000026454D0E246B6D744323440136B3F8C2
:10443800250109F044FA6B6D2344B3F8270109F00C
:104448003EFA6B6D2344B3F8290109F038FA6B6D15
:10445800234493F82B0109F0FCF96B6D234493F87E
:104468002C0109F0F6F96B6D234493F82D0109F03E
:10447800F0F96B6D234493F82E0109F0EAF96B6D9E
:104488001C44D4F82F0109F023FA082EC9D18EE371
:104498007020284C09F010FA04F1700594F8D00047
:1044A80009F0D7F994F8D10009F0D3F994F8D200BB
:1044B80009F0CFF994F8D30009F0CBF994F8D400B7
:1044C80009F0C7F994F8D50009F0C3F9073494F84E
:1044D800CF0009F0BEF9AC42E0D168E31E4B185D8D
:1044E800013409F0B6F9102CF8D160E31B4D287897
:1044F800400000F0FE0009F0DFF900242B789C4210
:1045080080F05583164B33F8140009F0D8F90134BC
:10451800F4E7094C062009F0CFF9A06F09F0D8F9A3
:10452800B4F87C00A7E2042009F0C6F9024BD3F8DE
:1045380080003AE3202700204C110020AF400108FA
:10454800A35D0108AF5D0108875D010865110020C2
:10455800080000208E110020A4110020082F002040
:10456800542F0020072009F0A7F9CC4BCC4C188811
:10457800FF28A8BFFF20C0B209F06BF9D4F8840067
:104588004FF6FF75A842A8BF284620EAE07080B21F
:1045980009F095F9B4F8880009F091F9C14BD4F8FD
:1045A8008C0093F883313BB10A235843A842A8BF33
:1045B800284620EAE07001E000F30F0080B25AE2DA
:1045C800022009F079F9B84B188854E2B44C0B2052
:1045D80009F072F9D4F89030187809F03AF9D4F85B
:1045E8009030587809F035F900262546D5F89030EE
:1045F800AB4C33440136187909F02BF9032EF5D169
:10460800D4F89030D87909F024F9D4F89030987813
:1046180009F01FF9D4F89030D87809F01AF9D4F8CD
:104628009030588909F04BF9D4F89030187A11E293
:104638009B4C1E2009F040F9636D1B78022B4FF04C
:1046480000056BD1636D03EB850393ED080AB2EEA9
:10465800048A20EE080A0EF08DF980F30800C0B233
:1046680009F0F7F8636DDFED917A03EB850393EDBD
:104678000B0A20EE270A0EF07DF980F30800C0B27D
:1046880009F0E7F8636DDFED8A7A03EB850393EDB4
:104698000E0A20EE270A0EF06DF980F30800C0B26A
:1046A800013509F0D6F8032DCCD1072D636D23D140
:1046B80093ED110A20EE080A0EF05CF980F3080069
:1046C800C0B209F0C6F8636D93ED120A20EE080A2D
:1046D8000EF050F980F30800C0B209F0BAF8636D23
:1046E80093F84C3000EE103AB8EE400A0EF042F95A
:1046F80080F30800C0B20BE02B44587809F0A9F801
:10470800636D2B44D87A09F0A4F8636D2B44587D67
:10471800013509F09EF80A2DC7D148E2636D2B4494
:10472800587809F096F8636D2B44D87A09F091F817
:10473800636D2B440135587D09F08BF80A2DEDD1B6
:1047480035E2574D9FED5A8A6B6D03EB840393ED69
:10475800080A20EE080A0EF00DF980B209F0AFF849
:104768006B6D03EB840393ED0B0A20EE080A0EF041
:1047780001F980B209F0A3F86B6D03EB840393EDA4
:104788000E0A20EE080A0EF0F5F8013480B209F09E
:1047980096F8032CD5D1072C6B6D16D193ED110A21
:1047A80020EE080A0EF0E6F880B209F088F86B6D82
:1047B80093ED120A20EE080A0EF0DCF880B209F038
:1047C8007EF86B6D93F84C000BE02344587809F0A1
:1047D80076F86B6D2344D87A09F071F86B6D234431
:1047E800587D013409F06BF80A2CD4D1DFE114F8B4
:1047F800010F002800F0DB8109F02BF8F7E7012012
:1048080009F05AF8264B5B6D187823E1502009F01F
:1048180053F80025224B5C6D264B04EB85040C21D4
:1048280094F8852001FB0233013593F8380009F02C
:1048380010F894F8860009F00CF894F8870009F04D
:1048480008F894F8880009F004F8142DE2D1AEE1D4
:10485800482009F031F80025114B5C6D062303FB55
:104868000544013594F8DA0008F0F3FF94F8D50010
:1048780008F0EFFF94F8D60008F0EBFF94F8D700A3
:1048880008F0E7FF94F8D80008F0E3FF94F8D9009F
:1048980008F0DFFF0C2DDFD189E100BF00160020F2
:1048A8004C11002020270020041600200000C842D8
:1048B80000007A44B04001084FF0000801260027A4
:1048C800CB4B1A7E974227DA19330024FA5CC94D7C
:1048D8000C2305F130016343595C914207D12B4405
:1048E800586B0DF07CFE82462EB9B14605E00134C6
:1048F8001D2CECD10EE080440CE0D1450ADA0C23E3
:1049080003FB04535B6B13F8090008F0A2FF09F1DD
:104918000109F2E70137D3E7002E00F048815FFA7A
:1049280088F008F0C9FF0026C9E7B14D287E08F0D5
:10493800C3FF00242B7E9C4280F03981AE4BE65C9D
:104948000021AC480C2200F1300702FB01F3DA5DCC
:10495800B24205D1034493F8380008F07AFF02E028
:1049680001311D29EDD10134E4E7082008F0A4FF46
:104978000124E0B2013408F06CFF092CF9D116E1EA
:10498800082008F099FF002008F099FF002008F09F
:1049980096FF002008F093FF00206CE00C2008F040
:1049A8008BFF964B186808F093FF954B186808F032
:1049B8008FFF944B1868F8E0042008F07DFF924BB5
:1049C8009868F2E094F8780108F043FF94F87C01C5
:1049D80008F03FFF94F87B0108F03BFF94F87D0155
:1049E80038E0894C072008F067FFB4F87E0108F02A
:1049F80066FFB4F8800108F062FF94F8820108F0BD
:104A080028FFB4F8840136E0012008F055FF7E4BFA
:104A180058791FE07D4C7E4D207800EB4000C0B2F5
:104A280008F04AFF002623789E4205F1020580F02F
:104A3800BE8015F8020C08F00CFF15F8010C00EB0D
:104A4800800000EB800000F2EE2080B208F037FF13
:104A58000136E8E708F0FDFEA9E0082008F02CFF81
:104A68000024694B2344013493F8860108F0F1FED1
:104A7800082CF6D19BE008F022FF98E05C4B624CD2
:104A880093F89400C0EBC000C0B208F015FF04F121
:104A9800280594F8F00100235E4AD25C904200F0A9
:104AA8008A800C333C2BF7D10834AC42F1D17EE03C
:104AB8004020554C08F000FF04F14005B4F8A80266
:104AC80008F0FDFE94F8AA0208F0C3FE043494F836
:104AD800A70208F0BEFEAC42F0D168E0E0204A4CE4
:104AE80008F0EAFE04F18005B4F82A0200F03F005D
:104AF80008F0E5FEB4F82A02C0F3861008F0DFFEDD
:104B080094F82802000908F0A4FE94F8280200F09E
:104B18000F0008F09EFE043494F8250208F099FE70
:104B2800AC42E1D143E03C4C0D2008F0C5FE07F053
:104B3800B1F908F08EFEA08808F0CAFE206908F0D6
:104B4800C7FE04F09BF830E008F07AFE05468420A2
:104B580008F0B2FE284608F0BBFE2F4B1C6905F191
:104B68008003A3428CBF641B802404F03FF92846CD
:104B78002246694607F0C2F900240546AC4216DA17
:104B88001DF8040008F065FE0134F7E7132008F06B
:104B980093FE0024214B185D013408F05AFE0B2CBB
:104BA800F8D1002008F094FE002008F091FE0120C2
:104BB80018E0002016E008F04CFEB4F8F20108F006
:104BC8007EFE94F8F40108F044FE94F8F50108F02C
:104BD80040FE94F8F70108F03CFE94F8F60108F05E
:104BE80038FE61E721B0BDEC028BBDE8F08F00BF55
:104BF8004C110020B040010865110020ACF7FF1FE0
:104C0800B0F7FF1FB4F7FF1F20270020082F002050
:104C1800C0280020142F002008000020A35D0108F0
:104C2800F8B504460E4617460025204620210DF00B
:104C3800C8FC0446D0B1013420460DF027FDB0F57C
:104C4800617F05DB40F634039842A8BF184601E0AF
:104C58004FF46170A0F56170192390FBF3F00DB962
:104C6800307000E070703B7801333B700DB901255E
:104C7800DBE72046F8BD30B505460C461346294605
:104C880022460248BDE8304003F0C1B86A60010816
:104C98007FB504780646E4B9354B1B6803EB8403FB
:104CA800192193F8870093F8886093F8852093F882
:104CB80086304FF4617511FB005011FB06510090CE
:104CC80001912C482146013403F0A1F8142CE3D1BA
:104CD8004BE00DF0DBFC1328054641DC244B701C2F
:104CE8001C68202100238DF80F300DF06AFC203558
:104CF800064670B1013630460DF0C8FC1B289FBF30
:104D080004EB850358719DF80F30013398BF8DF877
:104D18000F30304620210DF054FC064670B10136A4
:104D280030460DF0B3FC0D289FBF04EB8503987146
:104D38009DF80F30013398BF8DF80F3004EB8504D0
:104D48003046E11D0DF10F02FFF76AFF9DF80F30A5
:104D5800042B0AD0601D002104220DF0FCFB04E0A6
:104D6800054800211322FFF786FF04B070BD00BF7D
:104D7800A0110020896001089E600108014808F020
:104D880035BE00BFA4600108F8B50478064674B9BA
:104D9800304DB5F8C421B5F8C6312F482146013445
:104DA80003F035F8042C05F10405F2D1F8BD2B49C0
:104DB8000DF0DAFBA8B9274B4FF47A714FF4FA6279
:104DC800A3F8C411A3F8C621A3F8C811A3F8CA21EF
:104DD800A3F8CC11A3F8CE21A3F8D011A3F8D221BF
:104DE800F8BD30460DF052FC032805462BD8304656
:104DF80020210DF0E6FB044630B1013420460DF0C9
:104E080045FC0126074600E00646204620210DF015
:104E1800D8FB10B9BDE8F840B0E701300DF036FC1A
:104E2800012EF7D1A7F2EE2240F2DC539A42F1D8D4
:104E3800A0F2EE229A42EDD8064B6E3503EB8503BD
:104E48009F81D881F8BD064800210322BDE8F840BB
:104E580011E700BF20270020B2600108C5600108E3
:104E6800C76D01082DE9FF4104780546002C39D1AA
:104E78007348744D08F0BAFDD5ED047AF5EE407A22
:104E8800F1EE10FA00F0D88021466F4802F0BFFF1B
:104E980095ED040A684602F04FFE01466B4802F0A1
:104EA800B6FF95ED050A684602F046FE01466748DA
:104EB80002F0ADFF95ED060A684602F03DFE014698
:104EC800624802F0A4FF95ED070A684602F034FE36
:104ED800013401465E4802F09AFF0C2C05F11005DA
:104EE800CAD1A9E05B4905220DF082FB40B9554BB8
:104EF80003F1C002002143F8101F9342FAD19BE04E
:104F08002846554904220DF073FB04462846002C18
:104F180040D120210DF055FB002800F08D80451C64
:104F280028460DF05CFB07464C4B53F824601EB92D
:104F38004B4808F05BFD7FE028463146FAB20DF099
:104F480057FB01340028EFD13E4B03F1C0029E46C7
:104F5800002143F8101F9342FAD1424B03EBC402DD
:104F68009846D2F804C0BCF1000F04D131463E483F
:104F780002F04DFF57E0002718F834309F42F5DA69
:104F88003B010EEB030563440FCB103585E80F009A
:104F98000137F1E70DF07AFB0B28064647DC284677
:104FA80020210DF00EFB054650B10135284602F0D0
:104FB80039FD244B03EB061383ED040A012400E0BA
:104FC8000446284620210DF0FCFA054648B1013573
:104FD800284602F027FD1B4B03EB061383ED050A59
:104FE8000134284620210DF0ECFA054648B1013578
:104FF800284602F017FD134B03EB061383ED060A50
:105008000134284620210DF0DCFA10B9FFF7B6FE6E
:1050180012E0013002F006FD0A4B032C03EB0616E2
:1050280086ED070AF2D11148FFF71CFF04E010488B
:1050380001210C22FFF71FFE04B0BDE8F08100BF7C
:10504800CB60010820270020E6600108EC60010819
:105058000D6B0108C5600108F0600108B44901083A
:10506800F56001084842010804610108455F01082C
:105078009E600108F0B5047887B006461CBB514B0A
:105088001968062303FB0411192091F8D65091F8EA
:10509800D77091F8DA2091F8D5304FF4617610FB8B
:1050A800056510FB07600095019091F8D800029003
:1050B800D0314548497A03912146013402F0A7FED0
:1050C8000C2CDCD17CE00DF0E1FA0B28044672DCF4
:1050D8003C4B701C1D68202100238DF817300DF003
:1050E80070FA064680B1013630460DF0CFFA032833
:1050F8009FBF062303FB045383F8DA009DF817309B
:105108009CBF01338DF81730304620210DF059FA35
:10511800074680B1013738460DF0B8FA0D289FBF11
:10512800062303FB045383F8D5009DF817309CBF72
:1051380001338DF8173006266643A9193846D6314B
:105148000DF11702FFF76CFD20210DF03AFA074622
:1051580070B1013738460DF099FA14289FBF9DF8B1
:1051680017307619013386F8D80098BF8DF81730B4
:10517800384620210DF025FA78B101300DF086FA75
:105188000D289FBF062303FB045383F8D9009DF81D
:1051980017309CBF01338DF817309DF81730062B58
:1051A8000ED0062202FB04500021D5300DF0D3F9B1
:1051B800FFF7E4FD04E0054800210B22FFF75BFD43
:1051C80007B0F0BDA0110020106101089E60010821
:1051D8002DE9F347047806464CB9204601A908F0A2
:1051E80053F80134FFF7F4FF122CF6D180E00DF0EC
:1051F8004DFAC5B2112D76D83F4C05F1CC0704EB1A
:105208004703701C202193F808803C4E0DF0D9F913
:10521800034630B9A8F10202D2F1000848EB0208AF
:1052280048E006F1D00800F1010A597840460DF02F
:10523800C8F968B1032D8CBF03230023C8EB000015
:10524800334453FA80F090F8D490B9F1030F02D1A7
:10525800FFF794FD4CE0A9F10203D3F10008504692
:105268004FF0200148EB03080DF0ABF9D8B1B8F1C5
:10527800000FEDD001300DF009FA40F2ED2380B2B5
:10528800984205DD40F6CA039842A8BF184601E0D7
:1052980040F2EE2004EB4703A0F2EE20192290FB27
:1052A800F2F0587202E0B8F1000FD1D104EB4703D5
:1052B80083F8089004EB4704237A1E4496F8D0201C
:1052C800B8F1000F0AD0637A0D48294640F2EE245F
:1052D800192505FB034302F09AFD09E02946094810
:1052E80002F095FD04E0084800211122FFF7C3FCF5
:1052F80002B0BDE8F08700BF20270020484201081F
:105308003061010842610108C76D0108002208499F
:105318000C2303FB02135968814204D10022C262A4
:105328001A725A6070470132052AF0D1704700BFDF
:10533800142F00202DE9F74389469DF8288011464F
:105348001A469DF82C30064600250C2068431D4F50
:10535800C419C057B04202D1207A20B12BE00135E0
:10536800052DF2D127E0022E0FD005DC56B1012E13
:1053780021D1009314480AE01E2E0DD01F2E1AD1F9
:10538800012009E00093114801E0114800934346C9
:1053980004F09AFC044605E006F0C3FC41460446C6
:1053A80005F03EFF4CB10C2303FB0575267185F80B
:1053B80008906C6001E0002000E0204603B0BDE8E2
:1053C800F08300BF142F0020004400400038014043
:1053D8000048004010B5084B1968002201EBC203D1
:1053E80093F90240844201D1981C10BD0132052A6C
:1053F800F4D1002010BD00BF102F0020F0B50278B6
:1054080087B08AB94A4C04F1280694F8F0210023A1
:105418004849595650B281426DD00C333C2BF7D1D4
:105428000834B442F1D180E0002204920592451C70
:105438000DF02CF9C4B260B2FFF7CCFF074618B1E3
:105448008DF81040012400E00446284620210DF084
:10545800B8F8054638B1013528460DF017F901347A
:10546800ADF81200E4B20026284620210DF0A9F874
:10547800B0B3451C28460DF009F900222E4951F811
:10548800223083425FFA82FE04D00132082AF5D125
:10549800002300E0734651F82320824220D1022ED7
:1054A8000FD0032E12D05A1E012ED2B204D0042AD5
:1054B80013D88DF814300EE0042A0ED88DF8153064
:1054C80009E0052B09D88DF8173004E09A1E052A43
:1054D80003D88DF816300134E4B20136042EC3D156
:1054E800052C03D807B0BDE8F04047E404AB03CB74
:1054F8003860796019E094F8F5010F4B94F8F4518D
:1055080053F82000B4F8F221009094F8F70153F80A
:105518002000019094F8F60153F82000029053F807
:105528002530064802F073FC7AE707B0F0BD00BFEB
:1055380020270020142F00208C4D010851610108FC
:1055480038B1438811EA030003D08B420CBF012015
:105558000220704730B50A4B0A491C680A78042AA9
:105568000AD8134604EBC303551CEAB29D882842A7
:10557800F5D00A70981C30BD0A70002030BD00BFFD
:10558800102F0020F0110020014B00221A70E1E7D3
:10559800F01100202DE9F047877890F803C0214DDD
:1055A800BBB2C7F1640E03EB83065C42C3F178001B
:1055B8005FFA8EFE7600CCF16408A4B280B2A3B282
:1055C8000FFA83F9B9F1000F05DC002B14BFBA46B6
:1055D8004FF0010A00E0F24613FB03F303FB0CF261
:1055E8001AFB0AF392FBF3F3434403FB09F30A2281
:1055F80093FBF2F333449BB225F8023FB1F80090D5
:105608004A880A34C9EB020AA4B21AB202FB0AF2A7
:105618004FF47A73844292FBF3F34B442B80CED140
:10562800BDE8F087F011002010B54478007800221A
:1056380002FB02F3193B634303F6C413534340F6DA
:10564800C411434393FBF1F3034921F812300132AB
:10565800072AEDD110BD00BF0A1200200430114BFB
:1056680033F91000B0F5617F10B506DB40F633035F
:1056780098420246A8BF1A4601E04FF461720C78BE
:10568800192340F2833013FB0404944207DA497863
:1056980013FB01039342B4BF0020012010BD00207A
:1056A80010BD00BF542F0020084B33F91000411AD9
:1056B80001F2F31240F2E6339A429ABF81EAE170AE
:1056C800A0EBE1704FF4FA70704700BF542F002030
:1056D80010B500F1500302788A4203D18478C27869
:1056E800944204D304309842F5D1002010BD012023
:1056F80010BD0B4B1B6813F4805F0A4BB3F90630DF
:1057080005D0C089421A934207DD084400E0008AA8
:105718008342B4BF0020012070470120704700BFBA
:10572800502F0020542F00201FB5094B1B681B0366
:105738000AD58DF8040001230D2001A98DED030A77
:105748008DF8053001F0A4F905B05DF804FB00BF41
:10575800502F00201FB5084B1B681B0309D58DF877
:105768000400029100230D2001A98DF8053001F0F5
:105778008FF905B05DF804FB502F002010B500200C
:1057880005F048FD054B00241C7004F03FF9044B5C
:1057980083F82840DC621C865C6310BD3C16002040
:1057A800F011002010B570B1144BD3F8DC3713F4A6
:1057B80080730CD0124B1B6813F0020307D0114BF7
:1057C8001B78012B02D8BDE81040D7E700230C2234
:1057D8005A430D4C1119125D824203D00133102B2C
:1057E800F5D110BD094B586B18B14A784078824200
:1057F80003D2002259631A86DA6210BD20270020DE
:10580800502F0020F4020020AC4D0108F0110020B8
:1058180010B540001428A8BF14200023074A02210D
:1058280099540B4499181424834201F8014CF5DB70
:10583800FF21D1540F20BDE81040B3E7B42F00205A
:1058480010B50A4A0A4B11689B6800BF126891425A
:10585800F7D1084A946B4FF47A7000FB04F2D31A1C
:10586800B3FBF4F300FB013010BD00BF1416002099
:1058780010E000E0F011002038B50446FFF7E0FF23
:105888000546FFF7DDFF401BA042FAD338BD10B52F
:1058980004462CB14FF47A70FFF7EEFF013CF8E7AD
:1058A80010BD10B50446204605F0BDFC18B90A2005
:1058B800FFF7EDFFF7E710BD2DE9F84307460B2486
:1058C800013C35D01D4B08229A617D1C32264FF0D1
:1058D8000508DFF86890B9F814309BB283F0080324
:1058E800A9F81430012005F095FC3046FFF7CFFFEA
:1058F800B9F814309BB283F008030020A9F81430DB
:1059080005F088FC3046FFF7C2FFB8F1000F08D059
:10591800B8F10108DDD14FF4FA70FFF7B8FFFA26A5
:10592800D7E7013DD5D14FF47A70FFF7B0FFC7E74D
:10593800034B044ADA60BDE8F88300BF000400485E
:1059480000ED00E00400FA0538B500240B4D60595D
:10595800254408F04BF8696811B1094802F057FA74
:10596800A96811B1074802F052FA0748103408F044
:105978003DF8B4F5E87FE9D138BD00BFE447010838
:105988007061010876610108E16B010870B5054690
:1059980028460CF024FE064658B91A4B1A485A797C
:1059A8001A4B03EB8203BDE87040D3F8CC1102F028
:1059B8002EBA2846164932460CF01AFE60B9154828
:1059C800154C08F013F854F8041F19B1134802F0E5
:1059D8001EFAF8E7124805E00024124B53F8241089
:1059E80021B91148BDE8704008F000B82846324691
:1059F8000CF0FEFD01340028EFD1024B0B4D5C7119
:105A0800C6E700BF202700207C610108E4470108A1
:105A1800886101088D610108B0490108A061010889
:105A2800E16B0108B4490108F5600108455F010808
:105A3800F0B585B004460CF0D2FD082826D1621EC8
:105A4800E01D1F4912F8013F09681944497801F01F
:105A58000301022908BF203B82421370F1D1254679
:105A680004F1080715F8016B164831460CF0A9FD3A
:105A780020B1284631460CF0A4FD10B1FFF77EF99D
:105A88001CE0BD42EED1204607F0E0FB0E4807F0CF
:105A9800ADFF00230D4A1A4404A992F886210A444E
:105AA8000849595C02F80C1C0133082BF2D1002379
:105AB80007488DF80C3001A902F0A9F905B0F0BD2E
:105AC800F80200203C6A0108A46101082027002090
