:020000040800F2
:1000000000A0002001DD0008B1A0000835CD0008E7
:10001000AFA00008ADA00008ABA0000800000000E1
:10002000000000000000000000000000A9A000087F
:10003000A7A0000800000000A5A00008A1C80008B3
:1000400069DD000869DD000869DD000869DD000878
:1000500069DD000869DD000869DD000869DD000868
:1000600069DD00089978000869DD000869DD00088D
:1000700069DD0008094000082D3D000869DD000821
:1000800069DD000869DD000869DD000869DD000838
:1000900055A1000869DD000869DD000869DD000878
:1000A00069DD00081D79000869DD00082D79000868
:1000B0000D790008FD780008ED78000869DD00087A
:1000C00069DD000869DD000869DD000869DD0008F8
:1000D00069DD0008B53C000869DD000869DD00083D
:1000E000B1C8000869DD000897A0000869DD0008B4
:1000F000CD78000869DD0008DD78000869DD0008BA
:1001000000000000000000000000000069DD0008A1
:1001100069DD000869DD000869DD000869DD0008A7
:1001200069DD000869DD000869DD000869DD000897
:1001300069DD000869DD0008000000000000000023
:1001400069DD000869DD000869DD000800000000C5
:10015000000000000000000000000000000000009F
:10016000000000000000000069DD000869DD0008F3
:1001700069DD000800000000000000000000000031
:080180000000000069DD000829
:10018800C14B2DE9F04FB3F90610C04BD3F800E08E
:100198002DED028BBEF80A209142A7B00FDBB1F516
:1001A800FA6F9EF80750BDBF8B1A6B43A2F5FA652C
:1001B800C5F16405BCBF93FBF5F5643500E0642523
:1001C800B34CB44B2268039293F95E21B3F896B10D
:1001D800039E019392B20592002253000493AA4B06
:1001E80033F912300293CBEB030303F2F31740F217
:1001F800E630874203D8002BB8BF5B4201E04FF4DA
:10020800FA73022A00934FF06400039BA24F34D084
:1002180093F81DC1BCF1000F06D0009B6345CCBF0D
:10022800CCEB030300230093009BDFF8B0C293FBE1
:10023800F0F86FF0630A3CF818900AFB083A08F1E6
:100248000108049B3CF918C00FFA89F8C8EB0C0C9C
:100258000CFB0AFC9CFBF0FCCC4427F803C00EEB1B
:100268000207009B3F797B438C4F93FBF7F3643382
:100278009BB26B4393FBF0F032E093F81EC1BCF1E4
:10028800000F06D0009B6345CCBFCCEB03030023D3
:100298000093009BDFF8309293FBF0F06FF0630857
:1002A80039F910C008FB003A0130BDF8143039F9AB
:1002B8001000CCEB000000FB0AFA9AFBF8FACCEB32
:1002C8000A0A1AFB03FA009BA7F804A09EF8060086
:1002D800002BB8BF5B424343704893FBF0F0643097
:1002E80073786F4F4FF0640C434393FBFCF3BB549C
:1002F8006C4FF37A434393FBFCF3BB54737D664F17
:100308005843694B90FBFCF0022A9854674B0FD175
:1003180083F802C0029B5B450EDB5E4DB5F8982161
:10032800914215DBB1F5FA6FA8BF4FF4FA6110E0FE
:100338009D54029B5B4504DA049B0498FB5A5B427C
:100348003B520132032A06F101067FF446AFE4E787
:100358001146891A4FF47A73DFF884C14E4E594317
:100368006FF06303C2F5FA624FF0640EB1FBF2F16D
:1003780091FBFEF23CF8120003FB0211013203B2BA
:100388003CF91220D21A514391FBFEF30344FB803F
:10039800474B1B885A0635D5464B474A1B88128857
:1003A800DFED467A9B1A1BB208EE103AB8EEC88AFF
:1003B80028EE278AB0EE480A07F04AFEF0EE408A97
:1003C800B0EE480A07F0E4FDB6F9023006EE903ABE
:1003D800B6F90030F8EEE66A07EE903A20EE667A53
:1003E800F8EEE77AA7EEA87A67EE807ABDEEC77ACC
:1003F800E6EEA87A17EE103AFDEEE77A338017EEAC
:10040800903A73802E4E33689B0740F1A9802D4B9C
:100418002D491A684B6945F20720D31A834288464A
:1004280040F39E804A6105F02DFA284BDFF8B4A00E
:100438001A78032A9946BAF8003055D10A2B5FD9A1
:100448000023282089F800300CF0DDF905F01AFAAD
:100458001F4B188805F000FA1E4B1A68D37890FBDA
:10046800F3F0013008281C4BA8BF082018705379F6
:1004780080B213FB00F3A8F81830137913FB00F0CF
:10048800A8F81A003CE000BF78120020541200209F
:10049800980F0020A4150020321000200CFEFFFF4A
:1004A80000100020B607002014100020441000207F
:1004B80030100020DE1100202013002035FA8E3C79
:1004C80074120020E41E0020A8070020E01200207B
:1004D800D40E0020D00E0020B00000202A0D0020ED
:1004E800120D0020600F00200A2B09D80323984A18
:1004F80089F8003000231370A8F81830A8F81A30CB
:1005080099F80030934A012B0DD002D3022B1DD04D
:1005180026E0B8F81820BAF800309A4220DD012306
:1005280089F8003010E0BAF80010B8F81A308B4299
:1005380002DD0223137010E0874B1B8B01339942B5
:1005480002DD002313700BE0082007E0B8F81A302A
:10055800BAF8002001339A42E1DC07200CF0F2F8E7
:1005680032687E4E12F4006F72D07B497C4BC869AA
:100578001B68C0EB030945F207208145884667DD03
:10058800CB61B7F90630B5F84E11A3F57A7B754BF8
:100598001F68BB7A012B03D03FD3022B1CD03FE04E
:1005A800D8F82020082192FBF1F3D31A0022C8F8CA
:1005B8002030A8F8242093FBF1F340F6E4429BB2E4
:1005C80053433A89C2EB13334FF47A725343B7F962
:1005D800062093FBF2F321E03378B7F808A0C8F8B7
:1005E80028A058071CD56048009204F02AFB009AFE
:1005F80020B912F0100F18BF4FF0000BB7F9062002
:100608000BFB0BF1322391FBF3F35B445A434FF49A
:100618007A7392FBF3F3534400E00023C8F82830C0
:10062800D8E90C01D8F82830504A03FB09F34FF4F5
:100638007A7993FBF9F310EB030A41EBE37BC8E902
:100648000CAB5046594600230CF092FDC8F8380010
:10065800474B1A6812F4805F984602D00A200CF0C3
:1006680071F8444F3A68002A48D0DFF834E1424B29
:10067800DEF8000019688142F24699463ED83F4BA1
:10068800DFF804B118785168B0B901221A70BBF8C4
:100698000030CB5CD3B13A4B1A700AF06BFABBF856
:1006A80000309BB93B681B78053B012B0ED80CF03A
:1006B80083F8344B186009E000221A70BBF8003048
:1006C800CB5C1BB12E4B1A700AF054FA3A68BBF88F
:1006D800003052682C48D25CFE2A01D100230CE07D
:1006E800FF2A02D10CF01EF808E0DAF800700A219F
:1006F80011FB0272C9F800200133038033785907CF
:1007080003D5224B08221A855AE0D8F80020D207D0
:100718005EBF124A43F0010313701D4B1B781B0781
:100728005EBF337823F0010333701A4B1A88144BD9
:100738001AB1194A1268970702D4184A12888AB35C
:1007480002221A70337823F0010333702FE000BFC0
:10075800B0000020E0120020A8070020FE1E0020A4
:10076800E41E0020D00E00202C170020407E05003B
:100778001C130020401D0020381D0020341D0020BF
:10078800CC120020A81400203C1D002000040048C2
:10079800B411002032110020E4120020F81E0020BD
:1007A800A41200203178CE0758BF02221A700CF02C
:1007B80003F8AF4B1B68C01A002801DB0AF0DAF90E
:1007C800AC4F3E78002E00F0E280AB4E3368002B31
:1007D80001F02980306803685B689847002801F0B9
:1007E8002280A54BA54C186803689B689847092880
:1007F80001D03F2854D14FF0000AD4F80090A04D02
:10080800D046B9F1000F05D09E4829684A460FF036
:10081800A1FC20B9AA46B8F1000F00D1A8469A4B0E
:1008280010359D42EDD3B8F1000F18D0D8F800E08C
:10083800DAF800C023681EF803501CF80300A84229
:100848000DD15A1C8F4938B92D2B05D88B4D2A60EC
:100858002025CD54885402E0CD542260EAE723686D
:100868000BB1D04511D089480AF084FAD04507D891
:1008780058F8100B0AF07EFA09200AF073FAF5E727
:1008880083480AF077FA4FF0000923689945A1D206
:100898007C4B13F809000AF065FA09F10109F4E73D
:1008A8002368002B40F0A087042841F09A847548FB
:1008B80005F044F900F0B7BFD8F80000DFF8ECB154
:1008C80003685B689847002857D0DBF80000036886
:1008D8009B689847D9F8003093F848208246002A48
:1008E80063D1242840F09B80012283F84820D9F85E
:1008F800002092F848000628DED192F84930492BAA
:1009080000F0908400F2A481322B00F0038700F2FB
:100918003281222B00F0B68500F2ED80032B00F027
:10092800828240F2D380042B00F08982052B40F0AC
:100938009B871A200AF094F90027564BD85D013797
:100948000AF05DF90B2FF8D10027534BD85D01371A
:100958000AF055F9082FF8D10027504BD85D013718
:100968000AF04DF9072FF8D14D4F3B6898790AF0F6
:1009780046F93B68002283F848204A4B93F87C30BC
:10098800002B40F01F874C36982E00F04C87464AC3
:10099800B31893F84A100129F5D1414FB2583B607A
:1009A800424BB9461A60984686E7012A04D14D2879
:1009B80014BF0022022298E7022A04D13C2814BF5F
:1009C8000022032291E7032A0AD140284FF00002AF
:1009D8009FBF1A71DA715871987198BF042284E721
:1009E800042A08D19A7983F8490080EA020A83F830
:1009F80006A0052279E7052A7FF479AF59791A7993
:100A08009142997906D941409971511C1971134441
:100A180018726CE781420CBF0622002265E7244A5F
:100A2800137859073FF563AF2328DBF8003012D15C
:100A380010490092012008700F491E480B6019499F
:100A4800CB630AF097F912480AF094F9009A1378E0
:100A580043F002031370184B1B681B78534501BF02
:100A6800164B174A1A60174B04BF174ADA603EE75D
:100A7800D0120020FC1E0020DC120020940F002061
:100A8800E4120108640F002084140108842C010872
:100A9800892C01080F2B01081B2B0108F02A0108DB
:100AA800D4120020A80700200C150020D81200201E
:100AB800FE1E0020B92C01080C0D0020FC9F002010
:100AC800EFBEADDE00ED00E00400FA05012B00F0FA
:100AD8009E81022B40F0C88604200AF0C1F843200A
:100AE8000AF08DF84C200AF08AF846200AF087F8B8
:100AF8004C2000F0B5BE282B00F0CC8515D8242B4F
:100B080000F0AF85262B40F0AF86DE4F06200AF0B6
:100B1800A7F8B7F858010AF0A6F8B7F85A010AF08A
:100B2800A2F8B7F85C0100F00BBE2A2B00F0C585CF
:100B38002C2B40F09986D34F0C200AF091F897F8A7
:100B480090010AF05CF8B7F89A010AF08CF8B7F847
:100B580096010AF088F8B7F898010AF084F897F82F
:100B680091010AF04CF8B7F89C010AF07CF8B7F844
:100B78009E0100F0E5BD3D2B00F0298319D8382BE4
:100B880000F0758507D8342B00F09F84362B00F0D1
:100B9800DB8500F069BE3A2B00F0E9823B2B40F080
:100BA800638601200AF05CF8B74B1B68187800F0E0
:100BB80057BE452B00F0F38527D8402B00F0B185B0
:100BC800422B40F05186AF4F10200AF049F878794F
:100BD8000AF015F8B8680AF04FF897F890010AF08B
:100BE8000EF8B7F858010AF03EF8B7F85A010AF0BB
:100BF8003AF8B7F85C010AF036F8B7F880010AF05D
:100C080032F8B7F8820100F09BBD462B00F0AD85A5
:100C1800472B40F0298609F0E9FF804684200AF036
:100C28001FF840460AF028F8984BDF6808F180035F
:100C3800BB428CBFC8EB0707802705F0F3FD404691
:100C48003A4606A906F0FAFD0027804600F09EBD48
:100C58006F2B00F0ED824BD8672B00F0EE812AD87D
:100C6800642B00F0FE8012D84B2B00F02C854D2B06
:100C780040F0FA85864FDFF82482387800EB400090
:100C8800C0B209F0EDFF4FF0000900F02BBD652B55
:100C980000F00681662B40F0E785122009F0E0FF9E
:100CA8007C4B1B88B3F5806F8CBF4FF008084FF062
:100CB80001080027ADE16C2B00F0478210D8682BA3
:100CC80000F02B82692B40F0CF85DFF8C48198F8BB
:100CD8000000400000F0FE0009F0C2FF002728E2F3
:100CE8006D2B00F03D826E2B00F0458200F0BCBDFC
:100CF800772B00F0698464D8732B00F08A8455D868
:100D0800702B00F0C382722B40F0AE85162009F0DC
:100D1800A7FF019BB3F8960109F0A5FF019BB3F863
:100D2800400109F0A0FF019BB3F8420109F09BFFC5
:100D3800019BB3F8440109F096FF019BB3F8D80171
:100D480009F091FF002009F05AFF002009F057FF31
:100D5800002009F054FF019B93F8850109F04FFF2B
:100D6800019B93F8920109F04AFF002009F047FF20
:100D7800454B1B680A20B3F9623093FBF0F080B250
:100D880009F071FF019B93F87A0109F038FF019B84
:100D980093F87E0109F033FF019B93F87D0109F078
:100DA8002EFF019B93F87F0100F05ABD742B00F0D1
:100DB800B583752B40F058852F2009F051FF364F29
:100DC80058E3A02B00F03F840AD8782B00F041812B
:100DD8007B2B40F049853C2009F042FF0027E9E2DF
:100DE800F12B00F07481FE2B00F01F84F02B40F0F3
:100DF8003B85254F042009F033FF3B68B3F86600B4
:100E080009F031FF3B68B3F8640000F099BC032097
:100E180009F026FF002009F0F2FE012009F0EFFE9C
:100E28000D2000F01DBD184609F01AFF012009F039
:100E3800E6FE0B2009F0E3FE002000F011BD0620BD
:100E480009F00EFF432009F0DAFE432009F0D7FE2F
:100E5800332009F0D4FE442009F0D1FE012000F02F
:100E68006FBC072009F0FCFEE72009F0C8FE054B1F
:100E7800587909F0C4FE002009F0C1FE042000F0F2
:100E88009DBC00BFA4150020980F0020380000204A
:100E9800AC1C002048000020E31001084417002083
:100EA8000B2009F0DDFECF4B188809F0DCFE00208E
:100EB80009F0D9FECC4B1B68C3F3C000C3F3800212
:100EC800800040EA4200C3F340021043C3F34012DB
:100ED80040EAC20003F01003184309F0C4FEC34BF4
:100EE8001A88C34B12F0010F14BF4FF002094FF0DC
:100EF800000912F0020F14BF4FF004084FF0000869
:100F080012F0040F14BF4FF0100C4FF0000C12F049
:100F1800400F14BF4FF0200E4FF0000E12F0100FCC
:100F280014BF4FF40077002712F0200F1B6814BF7E
:100F38004FF48060002012F4807F14BF4FF40061EA
:100F48000021009102F0080A03F4475141EA0A0A15
:100F580003F480414AEA010A03F400414AEA010A1B
:100F680003F480314AEA010A03F400314AEA010A2B
:100F780003F4802B4AEA0B0A03F400214AEA010130
:100F880003F4801A41EA0A0A03F000734AEA0303E9
:100F9800DFF88CA29AF800A0CAF3800A43EA0A0391
:100FA80043EA090949EA080848EA0C0C4CEA0E0E1B
:100FB800009B4EEA070712F4007F40EA070040EA68
:100FC800030014BF4FF40011002112F4806F41EAAE
:100FD800000114BF4FF0806300231943854B0020A4
:100FE80093F840700346BB420CD2834A13F802E0E0
:100FF800012202FA0EFE1EEA010F1CBF9A4010439E
:101008000133F0E709F038FE7C4B93F8D00600F086
:1010180027BC7B4B33F9170090FBF8F0013780B2FF
:1010280009F021FE032FF4D1764F388809F01BFE12
:10103800788809F018FEB888FBE2102009F010FE45
:101048000027714BD85D013709F0D9FD102FF8D171
:101058008AE4702009F004FE4FF0000823680E2788
:1010680007FB08F73B4408F10108B3F8250109F02C
:10107800FAFD23683B44B3F8270109F0F4FD23681F
:101088003B44B3F8290109F0EEFD23683B4493F88B
:101098002B0109F0B4FD23683B4493F82C0109F0B7
:1010A800AEFD23683B4493F82D0109F0A8FD2368A1
:1010B8003B4493F82E0109F0A2FD23681F44D7F89A
:1010C8002F0109F0D9FDB8F1080FC7D14CE4702001
:1010D8004A4F09F0C5FD07F1700897F8D00009F0EC
:1010E8008EFD97F8D10009F08AFD97F8D20009F033
:1010F80086FD97F8D30009F082FD97F8D40009F02F
:101108007EFD97F8D50009F07AFD073797F8CF00EC
:1011180009F075FD4745E0D126E4102009F0A0FD4F
:1011280000273A4BD85D013709F069FD102FF8D137
:101138001AE498F800309F42BFF416AC344B33F8E9
:10114800170009F090FD0137F3E7324F09F088FDE9
:10115800388809F088FD788809F085FD2E4B65E010
:10116800062009F07DFD002009F086FD69E20420D3
:1011780009F076FD21E3072009F072FD274B1D4F8A
:101188001888FF28A8BFFF20C0B209F038FDB86B47
:101198004FF6FF784045A8BF404620EAE07080B28D
:1011A80009F061FDB7F86C0009F05DFD134BB86AF2
:1011B80093F885313BB10A2358434045A8BF4046C0
:1011C80020EAE07001E000F30F0080B2B8E20B4FB4
:1011D800022009F045FD97F8E00109F010FD97F8A5
:1011E800DF013DE3F4120020E4120020301000205B
:1011F8001C130020A8070020E9070020A4150020E0
:10120800801100203E100020040800204C1D002002
:10121800781200203A100020DE110020600F002014
:10122800FE1E0020022009F01BFDD24B188887E221
:10123800D14F0B2009F014FD3B68187809F0DFFC4A
:101248003B68587809F0DBFC4FF00009B846D8F83D
:101258000030C94F4B4409F10109187909F0CFFC56
:10126800B9F1030FF3D13B68D87909F0C8FC3B68A2
:10127800987809F0C4FC3B68D87809F0C0FC3B6852
:10128800588909F0F0FC3B68187AE9E21E2009F059
:10129800E7FCBA4B1A681278022A4FF00007984602
:1012A80071D1236803EB870393ED080AB2EE048A31
:1012B80020EE080A0FF010F980F30800C0B209F018
:1012C8009EFC2368DFEDAE7A03EB870393ED0B0AF0
:1012D80020EE270A0FF000F980F30800C0B209F0E9
:1012E8008EFC2368DFEDA77A03EB870393ED0E0AE4
:1012F80020EE270A0FF0F0F880F30800C0B201379B
:1013080009F07DFC032FCCD1072FD8F8003025D168
:1013180093ED110A20EE080A0FF0DEF880F30800BA
:10132800C0B209F06CFCD8F8003093ED120A20EE38
:10133800080A0FF0D1F880F30800C0B209F05FFC8A
:10134800D8F8003093F84C3000EE103AB8EE400A66
:101358000FF0C2F880F30800C0B20DE03B445878A3
:1013680009F04DFCD8F800303B44D87A09F047FC26
:10137800D8F800303B44587D013709F040FC0A2F6B
:10138800C2D1FFF7F1BAD8F800303B44587809F0D9
:1013980036FCD8F800303B44D87A09F030FCD8F84D
:1013A80000303B440137587D09F029FC0A2FEAD167
:1013B800FFF7DABADFF8C4819FED728AD8F80030F7
:1013C80003EB870393ED080A20EE080A0FF084F870
:1013D80080B209F048FCD8F8003003EB870393ED9E
:1013E8000B0A20EE080A0FF077F880B209F03BFCF0
:1013F800D8F8003003EB870393ED0E0A20EE080AB5
:101408000FF06AF8013780B209F02DFC032FD1D113
:10141800072FD8F8003018D193ED110A20EE080AEA
:101428000FF05AF880B209F01EFCD8F8003093ED9E
:10143800120A20EE080A0FF04FF880B209F013FCE8
:10144800D8F8003093F84C000DE03B44587809F088
:101458000AFCD8F800303B44D87A09F004FCD8F8E4
:1014680000303B44587D013709F0FDFB0A2FCFD1EE
:10147800FFF77ABA17F8010F00283FF475AA09F0A8
:10148800BEFBF7E7502009F0EBFB00273B4B1B683E
:1014980003EB87083C4B98F885200C2101FB0233AD
:1014A800013793F8380009F0AAFB98F8860009F08C
:1014B800A6FB98F8870009F0A2FB98F8880009F0C5
:1014C8009EFB142FE2D1FFF74FBA482009F0C8FB62
:1014D8004FF00008294B1F68062303FB087708F123
:1014E800010897F8DA0009F08AFB97F8D50009F0A7
:1014F80086FB97F8D60009F082FB97F8D70009F029
:101508007EFB97F8D80009F07AFB97F8D90009F024
:1015180076FBB8F10C0FDDD1FFF726BA00274FF0A4
:1015280001094FF0000A194B93F84020924541DA1F
:1015380041334FF0000B1AF80310134A0C2302F141
:10154800300003FB0BF39046185C884209D1134422
:10155800586B0EF0F6FD0146B9F1000F07D14B4666
:1015680016E00BF1010BBBF11C0FE6D11FE007449D
:101578001DE000BF5410002054120020980F0020D6
:101588000000C84200007A44E4100108A8070020BF
:101598008B420CDA0C2202FB0B820291526B0093F5
:1015A800D05C09F02CFB009B02990133F0E70AF1AB
:1015B800010AB8E7B9F1000F3FF4D6A9F8B209F06B
:1015C8004FFB4FF00009ACE7DFF8608398F8400064
:1015D80009F046FB002798F840309F42BFF4C4A9A1
:1015E800CC4B17F803E00021CB480C2200F1300C5B
:1015F80002FB01F313F80C20724505D1034493F85C
:10160800380009F0FCFA02E001311C29ECD101375D
:10161800E1E7082009F024FB0127F8B2013709F0B7
:10162800EEFA092FF9D1FFF79FB9082009F018FB46
:10163800002009F018FB002009F015FB002009F034
:1016480012FB00207CE00C2009F00AFBB34B186861
:1016580009F012FBB24B186809F00EFBB14B186881
:10166800ACE0042009F0FCFAAF4B9868A6E0AE4F56
:10167800042009F0F5FA97F87A0109F0C0FA97F80A
:101688007E0109F0BCFA97F87D0109F0B8FA97F8DD
:101698007F01E5E0A44F072009F0E2FAB7F88001DE
:1016A80009F0E1FAB7F8820109F0DDFA97F8840148
:1016B80009F0A5FAB7F8860142E0012009F0D0FA4E
:1016C800994B5879CCE0984F042009F0C9FA97F85B
:1016D800D60109F094FA97F8D70109F090FAB7F80B
:1016E800D8012DE03B78994508F10208BFF43CA9E0
:1016F80018F8020C09F083FA18F8010C00EB8000C6
:1017080000EB800000F2EE2080B209F0ACFA09F19B
:101718000109E7E7012009F0A3FA834B93F8920146
:101728009EE0082009F09CFA00277F4B3B440137D4
:1017380093F8880109F063FA082FF6D1FFF714B976
:1017480009F091FAFFF710B9784B774F93F86E00CC
:10175800C0EBC000C0B209F083FA754B187897F84F
:10176800F03198427FF400A966E0724F0D2009F02D
:1017780077FA05F051FF09F042FA388809F07CFA47
:10178800F86809F079FA05F02BFD17E04745BFF630
:10179800EBA806ABD85D09F032FA0137F6E713205B
:1017A80009F05EFA0027644BD85D013709F027FA83
:1017B8000B2FF8D1002009F05FFA002009F05CFA3D
:1017C800FFF7D2B85D4BF0580BF076F818B9322015
:1017D8000BF019F8F6E70BF0DBF906F069FC584B4B
:1017E800584ADA60FFF7CFB80C2800F0FC840A28C2
:1017F80040F00285544D554809F0BCFA284623218B
:101808000EF091FC08B1401B20602368002B40F0CB
:1018180017854D482360002130220EF04EFC3B789E
:10182800002B40F0E3844A4B9B68002B00F03E8578
:101838004848984700F03ABD09F0E1F9B7F8F201D5
:1018480009F011FA97F8F40109F0D9F997F8F501B8
:1018580009F0D5F997F8F70109F0D1F997F8F601E9
:1018680009F0CDF9FFF780B84A2B04D1002009F020
:10187800F7F9FFF779B800F2A181352B27D109F0E4
:101888009FF90B28804602D90AF020FBEEE7324B7D
:101898001F6809F095F90328F6D8062303FB087793
:1018A80087F8DA0009F08CF987F8D50009F088F98B
:1018B80087F8D60009F084F987F8D70009F080F98D
:1018C80087F8D80009F07CF987F8D900CEE700F24C
:1018D800CC80292B11D109F07FF9134FA7F880018B
:1018E80009F07AF9A7F8820109F06AF987F8840102
:1018F80009F072F9A7F88601B8E700F28080252B75
:101908002CD1094F0023BB6009F070F9BB6818435C
:10191800B860ABE7E9070020E4100108ACF7FF1F47
:10192800B0F7FF1FB4F7FF1FA4150020A807002079
:10193800AC0A0020380000200F2B01080C150020ED
:1019480000ED00E00400FA05640F00206E3901087C
:10195800B410002026080020980F0020272B0DD156
:1019680009F03AF9DB4FA7F8580109F035F9A7F85B
:101978005A0109F031F9A7F85C0177E7232B40F009
:101988002C8409F01DF9132881463FF67DAFDFF856
:101998005883D8F8007009F013F90023CE490C22B7
:1019A8005A4301EB020E9EF838E0864523D18B1886
:1019B8000FFA89F907EB890793F8303087F88530F3
:1019C80009F0FEF887F8860009F0FAF887F887002A
:1019D80009F0F6F8C14B87F88800D8F80000986736
:1019E800BF4A5A678530002103F01AF9BD4B80F0D1
:1019F800010018703AE701331C2BCFD144E72D2B97
:101A080023D109F0DDF8DFF8CC8288F8900109F0DD
:101A1800E3F8A8F89A0109F0DFF8A8F8960109F0A8
:101A2800DBF8A8F8980109F0CBF83B6888F8910131
:101A38005B79082B7FF61AAF09F0CEF8A8F89C015D
:101A480009F0CAF8A8F89E0110E7332B05D109F070
:101A5800B7F8A04B83F8920108E72B2B40F0BD8321
:101A680009F0AEF89B4B587100E73E2B09D109F0FD
:101A7800A7F8984F87F8E00109F0A2F887F8DF0186
:101A8800F4E659D8392B11D109F09AF8914F87F813
:101A98007A0109F095F887F87E0109F091F887F83E
:101AA8007D0109F08DF887F87F01DFE63C2B0BD12B
:101AB8008D4FD7F8008009F083F888F800003B685C
:101AC800187808F0BFFAD1E6372B40F086835379AF
:101AD8000727B3FBF7F2C2EBC2029A1A12F0FF0F04
:101AE8007FF4D2AEB3FBF7F7013FFFB2FF2F3FF40D
:101AF800BDAE09F065F85FFA80F94FFA89F002F097
:101B080043FF804600283FF4BFAE80F8009009F0FC
:101B180063F8A8F8020009F053F888F8040009F0FF
:101B28004FF888F8050009F04BF888F8070009F025
:101B380047F888F80600D7E7432B23D109F040F887
:101B4800644F0023BB60787109F050F8BB681843F4
:101B5800B86009F035F887F8900109F03DF8A7F862
:101B6800580109F039F8A7F85A0109F035F8A7F82B
:101B78005C0109F031F8A7F8800109F02DF8A7F801
:101B8800820173E60DD8412B40F02783002709F026
:101B980017F8504B3B440137082F83F88801F6D1DA
:101BA80064E6442B04D14D4B012283F87C205DE68A
:101BB800482B40F0128305F015FE57E6D02B0BD1C9
:101BC8004A4B1B7858073FF551AE0AF0BDF906F0AD
:101BD80099FA06F055FB49E600F2C881CA2B40F095
:101BE800A680414F3B681B78022B4FF0000840F05D
:101BF8008380D7F8009008F0E3FF07EE900AF8EE2C
:101C0800677AB2EE048AC7EE887A09EB8809C9EDCB
:101C1800087AD7F8009008F0D3FF07EE900A9FEDF6
:101C2800347AF8EE677A09EB8809C7EE877AC9ED46
:101C38000B7AD7F8009008F0C3FF07EE900A9FEDE3
:101C48002D7AF8EE677A09EB8809C7EE877A08F1EA
:101C58000108B8F1030FC9ED0E7ACAD1B8F1070F20
:101C6800D7F800901CD108F0ABFF07EE900AF8EE09
:101C7800677AC7EE887AC9ED117AD7F8009008F02C
:101C88009FFF07EE900AF8EE677AC7EE887AC9EDEB
:101C9800127AD7F8009008F093FF89F84C0012E008
:101CA80008F08EFFC14489F80100D7F8009008F0C9
:101CB80087FFC14489F80B00D7F8009008F080FF2F
:101CC800C14489F8150008F10108B8F10A0FC5D117
:101CD800CCE500BFA4150020E4100108A8070020E7
:101CE800E416002002000020980F0020FE1E0020AD
:101CF8000000C84200007A44D7F8009008F060FF5E
:101D0800C14489F80100D7F8009008F059FFC14490
:101D180089F80B00D7F8009008F052FFC14408F189
:101D28000108B8F10A0F89F81500E5D19EE56AD8CF
:101D38004E2B2BD157790323B7FBF3F7122F3FF61E
:101D4800A3ADDFF8E0834FF00009B945BFF48EADCD
:101D580008F036FF88F8A00108F03EFF40F2ED23B6
:101D6800984205DD40F6CA039842A8BF184601E02C
:101D780040F2EE20A0F2EE20192309F1010990FBB0
:101D8800F3F008F1020888F89F01DEE7C82B29D193
:101D980057797F08122F3FF677AD4FF00008B84506
:101DA80007D208F019FF06AB23F8180008F101085C
:101DB800F5E73A460023BB4207DA06A931F81300D3
:101DC800D64921F813000133F5E7122A05D0D34B81
:101DD800002123F812100132F7E7D14B012283F8D2
:101DE800722043E54C2B40F0F88108F0E9FECD4F16
:101DF80087F8D60108F0E4FE87F8D70108F0ECFE72
:101E0800A7F8D80132E5CD2B09D1C74B1B78590764
:101E18003FF52CADC54B4FF4C8721A8026E550D853
:101E2800CC2B40F0DA815379092B7FF62DADDFF802
:101E38001083D8F8009008F0C3FE89F80000D8F89D
:101E4800009008F0BDFE89F8010008F0B9FED8F846
:101E580000306428A8BF6420187108F0B1FED8F8D3
:101E680000306428A8BF6420587108F0A9FED8F88B
:101E78000030FF28A8BFFF20987108F0A1FED8F80D
:101E88000090642828BF642089F8070008F098FEAD
:101E980089F80200D8F8009008F092FE89F803004B
:101EA800D8F8009008F098FE3B68A9F80A005B791A
:101EB8000A2B7FF6DBACD8F8007008F081FE387288
:101EC800D4E4CE2B0AD1984B1B785A073FF5CEACF9
:101ED800974A137843F004031370C7E4CF2B40F0FC
:101EE8007C8108F079FE6FF4AF67C3199BB2C62BEB
:101EF8009CBF8C4BA3F8960108F06EFEA5F8400134
:101F080008F06AFEA5F8420108F066FEA5F844014B
:101F180008F062FEA5F8D80108F052FE08F050FE5D
:101F280008F04EFE08F04CFE85F8850108F048FEE2
:101F380085F8920108F044FE7E4B1F6808F04CFEBD
:101F480000EB80004000A7F8620008F039FE85F831
:101F58007A0108F035FE85F87E0108F031FE85F833
:101F68007D0108F02DFE85F87F017FE4D62B09D18D
:101F7800002708F031FE704B23F817000137082FAF
:101F8800F7D173E462D8D32B05D108F025FE644B52
:101F9800A3F870006AE4D42B44D153790F2B7FF453
:101FA80073AC08F00DFE072807463FF66DACD4F871
:101FB800008008F011FE0E235F43B844A8F82501FD
:101FC800D4F8008008F008FEB844A8F82701D4F82F
:101FD800008008F001FEB844A8F82901D4F8008070
:101FE80008F0EEFDB84488F82B01D4F8008008F01A
:101FF800E7FDB84488F82C01D4F8008008F0E0FD2B
:10200800B84488F82D01D4F8008008F0D9FDB84408
:1020180088F82E01D4F8008008F0E8FD4744C7F896
:102028002F0123E4D22B40F0D8803F4B1B785B076D
:102038003FF51CAC08F0C4FD3A4B022883F8D006E3
:102048007FF6C5AD002283F8D026C0E5EF2B0CD172
:10205800384FD7F8008008F0BFFDA8F866003F6841
:1020680008F0BAFDA7F8640000E400F28380D82BDA
:1020780040F0B3800027DFF8BC809FED308AD8F8A5
:10208800009008F0A9FD07EE900AF8EE677A09EBD0
:102098008709C7EE887AC9ED087AD8F8009008F061
:1020A8009BFD07EE900AF8EE677A09EB8709C7EE01
:1020B800887AC9ED0B7AD8F8009008F08DFD07EE04
:1020C800900AF8EE677A09EB8709C7EE887A013734
:1020D800032FC9ED0E7ACED1072FD8F8009031D151
:1020E80008F07AFD07EE900AF8EE677AC7EE887A6C
:1020F800C9ED117AD8F8009008F06EFD07EE900A45
:10210800F8EE677AC7EE887AC9ED127AD8F80090A7
:1021180008F062FD89F84C0027E000BFF8110020A4
:10212800A8070020A4150020FE1E00203211002060
:10213800B4110020980F00205812002000007A44A3
:102148005412002008F048FDB94489F80100D8F875
:10215800009008F041FDB94489F80B00D8F80090C8
:1021680008F03AFDB94489F8150001370A2FB3D1B0
:10217800FFF77CBBF22B29D108F022FD0F28074678
:102188003FF682AB08F01CFD4B4BC7EBC7071F445B
:1021980087F8D00008F014FD87F8D10008F010FD8A
:1021A80087F8D20008F00CFD87F8D30008F008FD86
:1021B80087F8D40008F004FD87F8D50008F000FD82
:1021C80087F8D6000AF024FDFFF750BBFA2B04D19C
:1021D8003A4B1B785B077FF5FAAC09F077FEFEF700
:1021E800C3BB0C2804D1364808F0C4FD35480EE0BE
:1021F8007F2813D1FEF7EEBA0D283FF4FBAA7F28FB
:1022080009D1013B304A314823600021D15408F0FC
:10221800B1FDFEF7DFBA2F2B3EF6DCAAA0F12002B3
:10222800D2B25E2A3EF6D6AA13B920283EF4D2AA24
:102238005A1C2260244AD05408F094FDFEF7CABA0A
:102248005A1EA95C202902D11346FFF7DFBA1E4A9D
:1022580023600021D1541E4B1E4DD3F800A0D5F8A1
:1022680000B0DFF8649058460DF06BFF8046424698
:10227800484659460DF06EFF174A28B919F8083034
:1022880053445B78580703D010359542E7D307E0ED
:10229800954205D208F10100EB684844984702E0EE
:1022A8000E4808F067FD0023FFF7B3BA27B0BDEC6E
:1022B800028BBDE8F08F00BFA4150020FE1E002091
:1022C8008E2C0108892C0108640F0020B52C010808
:1022D800B4000020E412010884140108992C0108B4
:1022E8002DE9F04F2DED068B6E4D6F4B2B60A5B091
:1022F80000236B6009F005FE18B909F025FE05F00A
:1023080001FF05F0BDFF694A694C137843F00103EA
:102318001370684B4FF47002C3F8882000230793AA
:102328000893236843F480332360236803F400335D
:102338000893079B01330793089B1BB9079BB3F5C9
:10234800A04FF2D1236813F4003318BF0123089378
:10235800089B012B7CD0574F574BFB60636AAB60DF
:10236800636ADFF88CB1DFF88C91DFF88C8143F079
:1023780080736362636943F4FC0324AE63610323DF
:102388008DF8423041F6FF7326F8503D4FF09040EB
:10239800314601F04DFE4FF6FF7358463146ADF811
:1023A800403001F045FE4548314601F041FE4448C1
:1023B800314601F03DFE4348314601F039FE3146D1
:1023C800414801F035FE304603F000F8109B3F4AC3
:1023D800B3FBF2F33E4A13603E4B3F4A4FF0000A0C
:1023E800C3F800A03D4B5A60F02287F8232007224B
:1023F8003B4FC3F808A01A60D9F80830C8F8003075
:1024080097E80300636986E8030043F48023636167
:102418000823CBF8183011A9109801F009FE6420A0
:102428000AF0F1F9C8222F4851460DF046FEE3693B
:102438002D4A43F00703E361A36943F42053A361E2
:10244800636943F4C023636102F1700E029755E09B
:10245800264B12221A60636863606368636063686E
:1024680043F480636360636823F47C136360636888
:1024780043F4E8136360236843F0807323602268A1
:102488000B4B9601FBD55A6822F003025A605A6832
:1024980042F002025A60636803F00C03082BFAD179
:1024A80059E700BF280800202D7A0008E01E002008
:1024B8000010024000ED00E00005FA0500080048A1
:1024C800000C0048001000480014004840420F006B
:1024D800441D0020481D00203F19010010E000E0C5
:1024E80064120108981D0020D42D01080020024024
:1024F80000040048A415002074120020937BD17BAF
:1025080003F00700800001FA00FC5168DB0801EBCA
:1025180083034FF00F0A196A0AFA00F021EA000152
:102528001962196A10324CEA010172451962E5D143
:102538000023DFF890A30AF10C020021995401331B
:10254800072BF6D1FF238AF813308AF814308AF85B
:1025580015308AF816308AF81730C84BC84FC94A60
:102568001F6001231370C84803930C220DF0A5FDCA
:10257800C64A99F805B082F800B0C549D8F8008075
:10258800039BA7F5EF72CAF81820A7F58F720A60A7
:10259800C04A02EBCB0218F0200F5278CAF81C2070
:1025A80018BFCAF81C300023BB4A40F2DC5122F89D
:1025B80013100133082BF7D1304600211C220DF0EF
:1025C8007CFDBBF10E0F03D00BF0EF03082B02D1FB
:1025D80001238DF85230022002F0D6F918B1408854
:1025E800003018BF0120C8F340038DF84630C8F307
:1025F80080138DF84930C8F340338DF84030C8F364
:10260800C03300F001008DF8433018F400638DF8F2
:10261800450004D099F88431581E434243418DF84F
:102628004430C8F300438DF84A30EB69B9F8446187
:10263800ADF85660003318BF01238DF84B30C8F34E
:1026480000538DF84C30B9F84631ADF85030B9F830
:102658005231ADF84E30C8F380438DF8473099F8C1
:102668005431181C18BF012018F4805F18BF8B4E16
:102678008DF84800B9F850011CBFB6F84C61ADF8A8
:10268800566008F00101C8F3C002B0F5FA7F8DF872
:1026980041108DF84220ADF8540002D90BB9ADF8BD
:1026A800563099F8D4317E4885F82030002385F8D3
:1026B800213043709DF85230002B0CBF00230223B9
:1026C80001B902B10133029A02EB83074FF0000906
:1026D800BB68A3F1020B0C3303933BF8023F4FF6A0
:1026E800FF72934200F036811A0A022A02D19DF83D
:1026F800401003E0012A04D19DF84110002900F0A0
:102708002581DFF8ACA19DF84C00DBB24FEA031835
:102718000AEB0806514630B19DF8520018B9043B3F
:10272800032B40F2FC80012AD0B23BD1FF2385F86D
:10273800683085F8693001EB0803002703F10802C7
:10274800597B58681B89ADF82C308DF82E10022360
:102758000BA985F86C70AE678DF82F30029285F85A
:102768002470AF62EF622F636F6685F86A7085F830
:102778006B7001F05DFC029A5AF8080091783A46AD
:1027880001F088FB304609F08BFA464B4649EB6767
:10279800464BC5F88030C5F8847030460A1D01F0F4
:1027A8002BFAD3E0022845D15FFA89F34FF01C0ACF
:1027B8000AFB03F3EF1802933D4B87F86D90012154
:1027C80087F86C1003EB08014FF0000AD1F804C039
:1027D80091F80DE08DF82F0001F108020989ADF894
:1027E8002C1060460BA987F86EA087F876A0BE6704
:1027F8008DF82EE00593049201F01AFC059B049ACB
:1028080053F808009178524601F044FB304609F02D
:1028180047FA2849F9672849C7F88010029B2249D6
:10282800C7F884A0194430460A1D01F0E5F909F1FA
:1028380001098BE0032870D19DF847301F4F002B0A
:1028480044D09DF84830DFF8808095F822A053B135
:102858001B4BBDF85420B3FBF2F23046082192B26C
:10286800BDF8563003E0304608214FF6FF7201F0FC
:1028780008FC47F82A00C0F80C8048E00C0D00203E
:102888009217002016080020AC0A00203803002008
:10289800DC1E0020EC2E010804080020A4150020EE
:1028A8004908002019390008A4080020F93900084F
:1028B800D42D0108993F0008F1380008641D002054
:1028C80000127A0028080020093A0008BDF85420B0
:1028D80095F82280BDF85630B2F5FA7F0BD96B49CE
:1028E800B1FBF2F23046082192B201F0CAFB684B04
:1028F80047F828000AE06749B1FBF2F230460121A7
:1029080092B201F0BEFB644B47F82800C36095F80B
:102918002230013385F8223018E0042816D195F8C2
:102928002170BDF84E205B4B93FBF2F23046BDF8A8
:102938005030012192B201F0A4FB95F8213005EB4B
:1029480087070133C7F84C0185F82130039B9B4565
:102958007FF4C3AE95F8212085F86C214F4A504B7F
:102968001778A7F117020026022A1E709E461AD869
:10297800AB693344D3ED007AF5EE407AF1EE10FA04
:1029880002D1EB6963BB26E0464A06EB020C0FCB8B
:102998008CE80F009EF8003010360133C02E8EF8F8
:1029A8000030E5D1EDE7404B13F837C08EF800C092
:1029B80003EBC703D3F80480B8F1000FE1D06645F4
:1029C800DFDA384A330103EB020943440FCB0136FF
:1029D80089E80F00F3E7354D2B68D90424D41DE0AE
:1029E800334B344A13F83700107003EBC7035D68A4
:1029F800002DF0D000238342EDDAC3EBC3016A183F
:102A0800DFF8BCC0D2F8008041F80C8001EB0C065E
:102A18009188B1809279B2710133ECE707F0EF0346
:102A2800082B254B20D121E09EF80020012AF5D95A
:102A3800224B03EB0212103210339342EED053EDC7
:102A4800047AB6EE007A67EE877A43ED047A53ED9E
:102A5800057A67EE877A43ED057A53ED037A67EED8
:102A6800877A43ED037AE7E70E2F08D11A7842F008
:102A780010021A70182F25D10AF0CAF822E01A7825
:102A880022F010021A70192FF5E700BF00127A0021
:102A9800193A000840420F00093A0008380300209C
:102AA800941D002074020020EC2E010874120020EE
:102AB80044150108681E0020B41100207C02002083
:102AC800691E00200AF088F82B68BD4F5A035EBFC4
:102AD800BC4B01221A703B7843F004033B70A36996
:102AE80043F48053A361E36843F48053E36063696C
:102AF8004FF0904543F4003363612B6A23F470036D
:102B08002B622B6A43F4A0032B622B6A23F07063B9
:102B18002B622B6A43F0A0632B622B6A23F070436D
:102B28002B622B6A43F0A0432B622B6A23F4702399
:102B38002B622B6A43F4A02300262B624FF0020A73
:102B48004FF0030BE023284609A94FF00109099328
:102B58008DF828A08DF829B08DF82A608DF82B60A3
:102B680002F0A2FD1023284609A909938DF82890A0
:102B78008DF829B08DF82A608DF82B6002F094FD4D
:102B8800E268914D42F48052E260E2684FF4E063FB
:102B980022F48052E260ADF830304FF40073ADF8A3
:102BA800363007234FF4827CADF83C3003934FF066
:102BB8001003ADF82EC0ADF83830ADF82C60ADF884
:102BC8003A60ADF832A0ADF83490AA88CDF810C0BC
:102BD80022F480521204120CAA80AA8892B242F4FB
:102BE80080520DF12C08AA802846414602F004FBC9
:102BF8002A8892B242F040022A80E269734D42F478
:102C08008042E261226942F480422261626942F4B0
:102C1800802262616A6A22F470026A626A6A42F415
:102C2800A0026A626A6A22F070626A626A6A42F0A4
:102C3800A0626A626A6A22F070426A626A6A42F054
:102C4800A0426A626A6A22F470226A626A6A42F47C
:102C5800A0226A6228464FF4604209A909928DF8B9
:102C680028A08DF829B08DF82A608DF82B6002F025
:102C78001BFD4FF48052284609A9099202928DF84B
:102C880028908DF829B08DF82A608DF82B6002F015
:102C98000BFD2169DDF810C041F4804121612169F3
:102CA8004FF4E06321F480412161ADF830304FF4F6
:102CB8000073ADF836304FF01003454CADF838309E
:102CC800039BADF82C60ADF82EC0ADF832A0ADF87E
:102CD8003490ADF83A60ADF83C30A38823F48053C3
:102CE8001B041B0CA380A3889BB243F48053A380CE
:102CF8002046414602F080FA2388029A9BB243F0AC
:102D080040032380334CAA61B4F85831002B40F0BB
:102D1800FA84B4F95A21002A40F0F584B4F95C2108
:102D2800002A40F0F0842C4B2C481B682C4DB3F83B
:102D3800629094F85F6100210C220DF0BEF9002129
:102D4800142228480DF0B9F9002185F86D1185F88D
:102D58006E110C2205F5B8700DF0AFF9224BC5F8CD
:102D68007C31232009F04FFD174A138823F04003D4
:102D78001B041B0C1380138823F038031B041B0C43
:102D880043F03003138013889BB243F04003138051
:102D98006B20802104F0A4FA4FF0060A962009F06F
:102DA80032FD75200121424604F080FA9DF82C304E
:102DB800682B1BD00AF1FF3A1AF0FF0AEED12FE078
:102DC800E01E0020A0070020003001400004004859
:102DD80000380040A4150020980F0020E8120020B9
:102DE80028080020B41000207C1201080C200121C2
:102DF800424604F05BFA9DF82C30142B10D3182BA4
:102E080002D9543B062B0BD8032385F86D31432395
:102E180085F870314A4BC5F874314A4BC5F878319A
:102E2800494B00221A7095F86D21032A9A461AD147
:102E3800464B474A1A60474A5A60474ADA60474A47
:102E48001A61DFF83CE104228AF8002006228EF895
:102E58000020434A106840F0010111609346314652
:102E68001E46734603E0012009F0D7FC8DE00A29CD
:102E78008E464FF0010228BF4FF0000E02FA0EF204
:102E880040F20231114089B912F0FD0F0ED0354AD7
:102E98003549116035495160354A0421117040F0B7
:102EA800030007225A70CBF8000006E0BEF1010FBC
:102EB8004FF00001DBD82E4B1970DBF800309B0770
:102EC80002D5284B1B6898472A4B00224FF47A7189
:102ED80085F880211960BC20336802929847264BF8
:102EE800029A1A7094F855210AB18AF8002094F8C9
:102EF80056210AB11E490A7094F8572102B11A7076
:102F0800DBF8003018073DD50FFA89F9642299FBE0
:102F1800F2F302FB139212B207EE902AB8EEE77AA8
:102F280007EE903ADFED156AF8EEE77AE7EE267AD3
:102F3800B2EE047A67EE877AC5ED617A25E000BFC4
:102F4800B5720008E9720008C8100020B41000200B
:102F58005D740008257200080972000890C1793D67
:102F6800E4120020E8120020497400086D7200087D
:102F7800FD1E002054100020FA1E00208988883C7D
:102F8800AC0000200023C5F884313B7843F00203ED
:102F98003B70C24B08229A610A26DFF80093B9F801
:102FA80014309BB283F00803A9F81430192009F0F3
:102FB8002AFC013E192009F026FC16F0FF06ECD188
:102FC8000823C9F81830B64B9FEDB68AD3F800909D
:102FD800DFEDB58A99F80C3000EE103AB8EEC00A69
:102FE80020EE080A05F034F8B04B83ED000AB04B28
:102FF8001B8807EE903AF8EEE77AB7EE007AC7EE4C
:10300800277AAC4BB0EE680AC3ED007AAA4BD3ED31
:10301800047AAA4B67EE887AC3ED007A99F80030F3
:1030280007EE903AF8EEE77AA54BC7EE277AC3ED9C
:10303800007A77EE677AA34BC3ED007AA24B83ED53
:10304800027AC3ED008AC3ED018AA04B83ED027AB0
:10305800C3ED008AC3ED018A04F0FAFFB0EE408A9E
:10306800B0EE680A04F094FF20EE006A68EE086A81
:1030780066EE007A964BE6EE887AFF211B2220EE58
:10308800087AC3ED007A67EE007AF0EE675AD7EE59
:10309800085AE7EE087A28EE468AC3ED015AA6EEEA
:1030A800808AC3ED027A83ED038A8A4B1E708A4BAD
:1030B80018460DF002F8894ADFF84CE212680670EB
:1030C800012112F0020F8EF800101FBF417003217A
:1030D8008EF80010022118BF8170510741BF9EF879
:1030E80000104E1C8EF80060032648BF465412F0AC
:1030F8000A0F73460ED09EF8002004218154511CFB
:10310800C9B205264654D11C0232D2B28EF800103C
:1031180006218154724A11688A0641BF1A78561CE2
:103128001E70072648BF86546679082E01D00E2ED9
:1031380008D11A7802F1010E83F800E04FF00B0E67
:1031480000F802E01A7811F0040F4FF00C0C00F8A8
:1031580002C002F1010E1CBFDFF8ACC102325FFAF7
:103168008EFE83F800E01FBF8CF800205A4A4FF00B
:10317800100C02F80EC01A7802F1010E5FFA8EFEEA
:103188004FF0120C11F4806F83F800E000F802C0D1
:103198000ED094F8F8C1BCF1000F09D0DFF868C16F
:1031A80002328CF800204C4A4FF0130C02F80EC083
:1031B8008A0541BF1A7802F1010E83F800E04FF04A
:1031C800150E48BF00F802E0182E13D11A784FF0F8
:1031D800160E00F802E002F1010E5FFA8EFE4FF0C3
:1031E800170C00F80EC002F1030E0232D2B283F8B7
:1031F80000E086540E0341BF1A78561C1E7019262B
:1032080048BF8654CA0541BF1A78511C19701A2143
:1032180048BF81541A78511C197014238354002113
:10322800982230480CF049FF08F074FD2E4B2F4AC5
:103238001A602F4BB4F84E1119802E4900230B80C9
:103248008B702D490A602D4A1370B4F8962190B2FC
:103258002B4921F813000133122BF9D1204E336882
:1032680013F4805F08BFB4F89C01C8801B0740F1C5
:10327800018194F89031062B00F2F680DFE803F024
:103288000407487792B0B00045F2F05201E042F6E8
:10329800F8221C4B1A8008F0D8FDE4E0000400482E
:1032A800B811002035FA8E3C00000000B011002053
:1032B8004800002060110020B41000206411002094
:1032C800CC110020BC110020D0110020C01100201A
:1032D800A01100201E110020E9070020E4120020A0
:1032E800741200200C150020C00100202C170020AB
:1032F800C4010020A8120020701200205B010020E9
:103308007812002032020020E8070020CDCCCC3F04
:1033180007EE902A5FED036AB94BB8EEE77ADFED66
:10332800B97AE7EE267A42F6F82119800023FCEEF6
:10333800E77AB54A17EE901A42F823100133122B98
:10334800F7D1B24AB2491160B24A4020137001F075
:10335800D5FB002800F0888001234FF0070C90F976
:103368000000AD4A8DE808104021AC4B76E0A44B34
:1033780042F6F8221A80A54BA94A1A60A54B1022DA
:1033880040201A7001F0BAFB00286DD001234FF0DD
:10339800000E90F90000A34A8DE8084040214FF440
:1033A800E1335BE0964B42F6F8221A80974B9E4A2F
:1033B8001A60984B082240201A7001F09FFB0028E1
:1033C80052D00121002390F90000984A8DE80A00A4
:1033D80040214FF4E13301F0ADF9C5F888013FE031
:1033E800874ADFF884C2DFF884E2914842F6F82180
:1033F800118088490C22062B0A7010D000238CF803
:1034080000308EF8003003708A4B1B2119708A4BEC
:103418001A708A4B05221A704FF4E1390EE0002128
:1034280001708CF800108EF800108249DFF8409285
:103438002120087080490A70804A1370734B804AB3
:103448001A60402001F05AFB70B10122002390F964
:1034580000008DE80C007B4A40214B4601F06AF9D8
:10346800003018BF012028B9082004F019FE674B66
:10347800754A1A603268674B12F4804F1FBF1221D9
:1034880019706249714818BF086042F20101114081
:1034980002F0010002F4005E89B1594A44F6206145
:1034A8001180BEF1000F04D008221A70574A6849EB
:1034B800116020B10C221A70544A664911601A78BA
:1034C800DFF8B091043A5A70B9F8003023F040039D
:1034D8001B041B0CA9F80030B9F8003023F038039E
:1034E8001B041B0CA9F80030B9F800309BB243F05C
:1034F8004003A9F800304FF0000A9F2332208DF8CE
:1035080024308DF825A08DF826A08DF827A009F085
:103518007AF98DF82DA0DFF860A14FF4805B09AA35
:103528000423AAF828B04846414600F0BBFECAF872
:1035380018B09DF82E209DF82D30120242EA034261
:103548009DF82F301A43444B9A42444B17D008D861
:1035580043498A420CD001F51A4102318A4209D006
:103568001BE040498A4205D001318A4207D014E065
:10357800202200E080221A804FF4807202E04FF48B
:1035880080721A805A809A88198812029A604A436F
:10359800DA60012285F88C2104E000221A805A8022
:1035A8009A60DA60DB68002B68D04FEAD32AD346EA
:1035B8004FF0000CD4450FDA0CEB0A094FEA690901
:1035C8004FEAC92041461022CDF808C004F036F968
:1035D8000F28DDF808C006DC03F024F94FEACB23F6
:1035E800C5F890314AE0002358F82320013240F012
:1035F80086800133042BF7D1CA46CB46DAE700BFF1
:10360800320200200000B0C4E80D0020A400002011
:10361800994E0008AC1C00208DA80008A086010067
:10362800854E0008395000086D4E0008ED4F00081F
:10363800380E00203A0E0020730D00203B0E0020AB
:10364800894D0008CD4E000889A800085DA800082B
:1036580079A8000869A8000818BA200038000020D6
:10366800152020001740EF00740D0020390E0020AF
:1036780090D0030000380040000400483368594ADD
:1036880013F4002318BF0123137009F095F8564B63
:1036980018606379052B02BF544B4FF4C8721A8027
:1036A800534B4FF47A721A80524A137843F0080346
:1036B8001370514A137823F002031370326840F6EE
:1036C800020313406BB14D4B4D4A1A604D4B032218
:1036D8001A704D4B01221A704C4A002313804C4A31
:1036E8001380A36833604B4B01221A703B7863F058
:1036F8007F033B7025B0BDEC068BBDE8F08F09F168
:10370800010CD94679E71BB208EE103AB4F95A31E0
:10371800DFED417A414A09EE103AB4F95C31B8EE6E
:10372800C88A08EE903A28EE278AB8EEC99AF8EEC9
:10373800E88A0021B0EE480A29EE279A68EEA78A9F
:10374800117004F085FCF0EE409AB0EE480A04F0DF
:103758001FFCB0EE408AB0EE490A04F079FCB0EEE6
:1037680040AAB0EE490A04F013FCF0EE40AAB0EE0D
:10377800680A04F06DFCB0EE409AB0EE680A04F0F6
:1037880007FC60EE296A68EE097AF0EE665AE7EE01
:10379800AA5A234B29EE296A28EE007AC3ED035A68
:1037A800F0EE465A2AEE400AE7EE6A5AE6EEAA7AA0
:1037B800A6EE6A7A29EE0A9A83ED010A28EE4A8A69
:1037C8002AEE290A83ED009AC3ED02AAC3ED045A32
:1037D80083ED058A83ED067AC3ED077A83ED080A3F
:1037E800FFF7A1BA231300200402002032110020A1
:1037F800F81E0020B4110020FE1E0020D00E00206C
:103808001E170020E0120020B0000020C007002092
:10381800C2070020A007002035FA8E3C34000020A3
:10382800AC0E0020026BC168034610B5406942B176
:103838001A6C8C1A013A005D08BF0A46C0B21A64B5
:1038480010BD1A6A805C01328A4228BF0022C0B2C9
:103858001A6210BD436B13B190F844007047836A35
:10386800406A1B1A584258417047036B13B15B6892
:10387800016C01E0C369016A8B423CBFC2689B18B6
:10388800581AC0B27047836A8169426B1944D16083
:10389800416A99429DBF0169CB1A5360CB1A96BF02
:1038A8000023536083624FF0000380F844301368AC
:1038B80088BF816243F0010313607047436A8269DD
:1038C800D154436A02690133934228BF00234362FB
:1038D800436B1BB11B68DB0705D4D4E7026D136883
:1038E80043F080031360704710F80A3C0133DBB2E1
:1038F8000A2B84BF10F8131C044A00F80A3C82BF44
:10390800002322F8113000F80A3C70471C120020EE
:10391800334A136C90681944081A40F68C2398426D
:1039280070B513469160D06051603BD9127893F915
:1039380045108A4210460BD1111F082908D893F860
:103948004610182901D8013103E083F8442002E029
:10395800002183F8461093F944402149A24219D125
:1039680091F84740B4B10C310024944206DA1D4D59
:1039780051F8046F25F814600134F6E70C2805D0D7
:103988001849002421F810400130F7E7164801785B
:103998000131017083F84520002201211A7083F853
:1039A800471070BD92F84710C9B1A0F2EF2440F259
:1039B800DA518C4208D811780B2905D80B1D013132
:1039C800117042F8230070BD002283F84720074B8E
:1039D80003F13002002143F8041F9342FAD170BD6D
:1039E8004C0800201C1200202A0100205808002042
:1039F800024A136C01331944116470474C080020C3
:103A0800024B53F820301B6819607047641D002072
:103A1800064B53F820301A681B89A1F57A7159436F
:103A28004FF47A7391FBF3F111607047641D002025
:103A38000B4B984201D10B4A03E00B4B984207D13C
:103A48000A4A138801339BB213804FF0FF30704746
:103A5800074A138801339BB21380108880B27047DD
:103A680000300140B80F002000380040BA0F002095
:103A7800BC0900202DE9F0410369C76805460E46D8
:103A88001F40002F35D0B7FA87F24FF00043D340DC
:103A9800DB432B611F40A2F11B03042BF1D8DFE8A5
:103AA80003F0221F1C190300746A24B1013C00238F
:103AB800A4B2736201E0EC6AA4B2D6F82080B8F12F
:103AC800000FDED0D8F80030404621469847D8F895
:103AD8000480F4E73068696B07E07068A96B04E05C
:103AE800B068E96B01E0F068296C036889B298470F
:103AF800C7E7BDE8F081234B10B5234C5A43234B4D
:103B0800B3FBF2F203880139013AA04289B292B2BA
:103B18009BB20ED004F50064A0420AD0B0F1804FE9
:103B280007D0A4F59834A04203D004F58064A042DD
:103B380002D123F070039BB2154CA04206D004F5C5
:103B48008064A0421CBF23F440739BB203800E4BD9
:103B5800C162984202850FD003F5006398420BD0EA
:103B680003F54063984207D003F58063984203D079
:103B780003F58063984201D1002303860123436142
:103B880010BD00BF40420F00002C014000A24A04B3
:103B98000010004007B501238DF80400002201A899
:103BA8008DF805308DF806208DF8073008F05AF8A2
:103BB80003B05DF804FB0E4B800A984212D007D878
:103BC800B0F5801F0CD0013B98420DD10220704700
:103BD800084B98420AD00233984205D10420704716
:103BE8000120704703207047FE207047002070476F
:103BF800020010004B001000F8B504680646204685
:103C08000F461546FFF7D7FF04284BD8B27A91081C
:103C180047B902238B40D4F80CE0DB439BB203EA9C
:103C28000E03E3600A23204A03FB001342F82370C3
:103C3800043342F8235015463FB1B17AE268890847
:103C480002238B409BB21343E360282202FB0052FD
:103C58002032EFF31286502383F3128803B203EB6A
:103C68008303DB0003F10C011C3329442B4451F876
:103C7800047F17B117600A6804329942F7D100230C
:103C88001360F3B283F31188282303FB0050036AFF
:103C98001BB1E36843F0010303E0E2684FF6FE73EB
:103CA8001340E360F8BD00BF981D0020F8B51C4C18
:103CB800226D236BD5699BB9A90611D5E36A1BB19F
:103CC800908C80B298470BE0E169928C60694E1C39
:103CD800D2B2E6614254E169E268914228BFE361E9
:103CE800616B0F4BA9B92A0613D59A6A586A8242A2
:103CF8000AD0561C9F699E62186DBA5C02851A69C3
:103D0800964206D3996204E01A6D136823F0800383
:103D180013602B0742BF236D08221A62F8BD00BF4B
:103D2800B80A00200C4B0D484FF400525A600C4A58
:103D380011684FF6FE730B401360426B11684FF623
:103D4800FE730B401360426A836A9A4200D09AE578
:103D5800012380F84430704700000240B80A002070
:103D680044000240F0B5046D8668236823F001031F
:103D780023608379054613F0020F40790CBF4FF09A
:103D8800000E4FF4005E13F0040F14BF4FF4806769
:103D9800002710F0010F14BF0421002183072068B9
:103DA80020F001002060626822F440524EEA0202CC
:103DB8006260226822F4B05323F00C0348BF41F03C
:103DC80008013B430B432360A36895B023F4407379
:103DD800A360684601F0FAFA284B9C4201D10C9B7B
:103DE8000EE0274B9C4201D10D9B09E0254B9C42DC
:103DF80001D10E9B04E0244B9C420CBF0F9B109BEF
:103E08002268A879170448BF5B00B3FBF6F206FBEB
:103E18001233B3EB560F236828BF01321E0441BF8B
:103E28004FF6F073C2F34201134041EA03026B7983
:103E380092B213F0020FA28100F0010114BF4FF4F7
:103E480000320022DC0748BF42F480322B6D11B1EA
:103E580059680A4302E0596821EA02025A609A68DE
:103E680001074CBF42F0080222F008029A601A6863
:103E780042F001021A6015B0F0BD00BF00380140E1
:103E88000044004000480040004C0040417169E790
:103E9800816067E73D4B1B78012B30B514BF0024C8
:103EA8000324B1B9036A23F0010303628169036A39
:103EB80021F0F30123F00A0341F0010142F001026D
:103EC8001A4341EA041181610262836923F00C03F9
:103ED8001BE004291DD1016A4FF6EF730B40036202
:103EE8008169056A120121F473414FF65F7342F04C
:103EF800100241F480712B4092B2134341EA04311D
:103F080081610362836923F4406383618369836108
:103F180030BD0829016A1AD14FF6FF630B400362CE
:103F2800C169036A9BB289B223F4206343F48073A6
:103F380021F0F30143EA022241F0010192B241EA81
:103F48000411C1610262C2694FF6F37319E04EF6BB
:103F5800FF730B400362C369056A40F6FF411940CD
:103F680045F6FF732B4043F4805343EA023241F491
:103F7800807192B241EA0431C1610262C2694FF2B2
:103F8800FF331340C361C369C36130BD48080020D3
:103F980038B510F80E2C50F8043C044652B90122EA
:103FA80000F80E2C20F80C1C997A18680222BDE83B
:103FB80038406FE730F80C2C20F80A1C891A89B2AF
:103FC80020F8081C074A10F80F0C002522F81010DA
:103FD80004F80E5C1868997A2A46FFF75BFF04F824
:103FE800065C38BD1C120020044B53F820301BB16E
:103FF80007289CBF1B681960704700BF7409002020
:10400800084A13689B050BD5074B0021197007490F
:1040180008684FF6FE7303400B604FF4007353605B
:10402800704700BF00000240FB1E00203000024025
:1040380073B506460D46002401232A88A34013427F
:104048001AD0AA78009302F003038DF80430EB78B5
:10405800022B03D0032B0CBF032301238DF805305B
:104068003046C2F301136946C2F381028DF8063067
:104078008DF8072001F018FB0134102CDCD102B0B8
:1040880070BD2DE9F743DFF8149299F80240054610
:104098008E4600681146164698467246631C89F893
:1040A8000230FFF728FD2B89ADF8043001A902235F
:1040B80068688DF806308DF80730FFF7B9FFAB7ADE
:1040C8002A6809F104072401274449460C2B00F209
:1040D800B780DFE803F007B5B5B53EB5B5B56AB545
:1040E800B5B59300136ADFF8B8C123F00103136272
:1040F800136AD2F804E0906920F4803020F073004D
:10410800624540F0700012D00CF5006C62450ED08C
:104118000CF5406C62450AD00CF5806C624506D0FF
:104128000CF5806C624502D043F0030307E023F0EE
:104138000E032EF4407E43F003034EF4807EC2F853
:1041480004E09061C2F834801362936943F0080375
:1041580029E0136ADFF848C123F010031362136AD9
:10416800D2F804E0906920F0807020F4E6406245BF
:1041780040F4E04006D00CF5006C624502D043F0F4
:10418800300307E023F0E0032EF4406E43F03003E1
:104198004EF4806EC2F804E09061C2F83880136271
:1041A800936943F4006393614AE0136ADFF8F0C04F
:1041B80023F480731362106AD2F804E0D36962456D
:1041C80023F0730343F0700306D00CF5006C6245CE
:1041D80002D040F4407007E020F460602EF4405EA6
:1041E80040F440704EF4805EC2F804E0D361C2F837
:1041F8003C801062D36943F0080320E0136ADFF8BB
:10420800A0C023F480531362106AD2F804E0D36983
:10421800624523F4E64343F4E04340F4405003D0BE
:104228000CF5006C624501D14EF4804EC2F804E0F2
:10423800D361C2F840801062D36943F40063D3614C
:104248002B7B1BB1536C43F40043536413889BB21C
:1042580043F001031380AB7A0C2B18D8DFE803F086
:10426800071717170B1717170F17171713000B191F
:1042780002F134000AE00B1902F1380006E00B19CC
:1042880002F13C0002E00B1902F1400058600C44B6
:104298003846A681A26003B0BDE8F083BC090020BF
:1042A800002C014070B584894FF47A74F3B112B1CF
:1042B8001578013207E0FF2505E0013CA4B24FF66E
:1042C800FF76B4420CD00689B607F6D50573058982
:1042D800ED070DD4013CA4B24FF6FF75AC42F6D100
:1042E800FFF7A6FB003018BF012070BD012070BD8C
:1042F800057B09B10D700131013BD7E708B540F2E4
:10430800E9330289920704D4013B9BB2002BF8D110
:1043180009E0017340F2E9330289D20706D4013B70
:104328009BB2002BF8D1FFF783FB00E0007BC0B203
:1043380008BD00BFF8B504460E46174600252046BE
:1043480020210BF0F0FE0446D0B1013420460BF0DA
:104358004FFFB0F5617F05DB40F634039842A8BFF4
:10436800184601E04FF46170A0F56170192390FBC5
:10437800F3F00DB9307000E070703B7801333B709A
:104388000DB90125DBE72046F8BD7FB50478064660
:10439800E4B9364B1B6803EB8403192193F88700B3
:1043A80093F8886093F8852093F886304FF4617508
:1043B80011FB005011FB0651009001912C48214639
:1043C800013403F054FD142CE3D14CE00BF010FF42
:1043D8001328054641DC254B701C1C68202100234E
:1043E8008DF80F300BF09FFE2035064670B1013670
:1043F80030460BF0FDFE1A289FBF04EB8503587169
:104408009DF80F30013398BF8DF80F3030462021CA
:104418000BF089FE064670B1013630460BF0E8FE17
:104428000D289FBF04EB850398719DF80F30013369
:1044380098BF8DF80F3004EB85043046E11D0DF16F
:104448000F02FFF777FF9DF80F30042B0BD0601D8C
:10445800002104220BF031FE05E00648064900223F
:10446800132303F004FD04B070BD00BF980F0020B3
:10447800442E0108592E0108782E0108014806F03B
:1044880079BC00BF7E2E0108F0B5047887B00646D7
:104498001CBB524B1968062303FB0411192091F821
:1044A800D65091F8D77091F8DA2091F8D5304FF4BA
:1044B800617610FB056510FB07600095019091F887
:1044C800D8000290D0314648497A039121460134F8
:1044D80003F0CDFC0C2CDCD17DE00BF089FE0B2821
:1044E800044672DC3D4B701C1D68202100238DF8AA
:1044F80017300BF018FE064680B1013630460BF037
:1045080077FE03289FBF062303FB045383F8DA00D2
:104518009DF817309CBF01338DF8173030462021A5
:104528000BF001FE074680B1013738460BF060FEFC
:104538000D289FBF062303FB045383F8D5009DF87D
:1045480017309CBF01338DF8173006266643A9192A
:104558003846D6310DF11702FFF7ECFE20210BF09B
:10456800E2FD074670B1013738460BF041FE1428CA
:104578009FBF9DF817307619013386F8D80098BF89
:104588008DF81730384620210BF0CDFD78B1013079
:104598000BF02EFE0D289FBF062303FB045383F860
:1045A800D9009DF817309CBF01338DF817309DF85E
:1045B8001730062B0FD0062202FB04500021D530FD
:1045C8000BF07BFDFFF75AFF05E00648064900227D
:1045D8000B2303F04CFC07B0F0BD00BF980F002080
:1045E8008C2E0108592E0108782E01082DE9F34771
:1045F800047807464CB9204601A907F015FC013498
:10460800FFF7F4FF122CF6D178E00BF0F1FDC5B2FC
:10461800112D6DD8781C20210BF085FD394C3A4FAF
:1046280005F1D006034614F8168030B9A8F1020245
:10463800D2F1000848EB020843E000F1010A59787A
:1046480038460BF070FD60B1032D8CBF03230023A7
:10465800C01B3B4453FA80F090F80490B9F1030F63
:1046680002D1FFF70BFF49E0A9F10203D3F10008DB
:1046780050464FF0200148EB03080BF054FDD8B129
:10468800B8F1000FEDD001300BF0B2FD40F2ED2390
:1046980080B2984205DD40F6CA039842A8BF184682
:1046A80001E040F2EE2004EB4603A0F2EE201922CE
:1046B80090FBF2F0587002E0B8F1000FD1D104F885
:1046C800169014F81630FA5CB8F1000F0BD00D4BA9
:1046D8000E4803EB46062946737840F2EE24192566
:1046E80005FB034308E02946094803F0C0FB05E041
:1046F800084809490022112303F0B9FB02B0BDE8BC
:10470800F08700BFA4150020B8120108AC2E0108DC
:10471800BE2E0108592E0108943A0108044B596825
:10472800814201BF0022CA621A725A60704700BFF4
:10473800AC0A00202DE9F04F984689B08D4B0292C3
:1047480093F90020019182429DF848709DF84C50E1
:104758001C4601D1187A08B1002007E1002A40F070
:104768000581854BE36004F16003236204F5B073AF
:1047780063624FF48073A361E361804BE363143B8E
:1047880023647F4BE3652433A3650433636503F532
:104798005743D833C4F81480996941F4804199612A
:1047A800596941F00101596102238DF81C308DF8D7
:1047B8001E20032315F001028DF81D3014BF0223BB
:1047C800012315F0080F8DF81F3007F0020907F0D4
:1047D800010B1BD04FF090464FF4007ACDF818A08B
:1047E800716A039282F0010321F0F0018DF81E3006
:1047F8007162716A41F070017162304606A900F079
:1048080053FF039A52BBC6F818A027E0B9F1000F6E
:1048180010D008A94FF4007341F8083D4FF09040BC
:10482800436A23F0F0034362436A43F07003436230
:1048380000F03AFFBBF1000F10D008A94FF48063D5
:1048480041F8083D4FF09040436A23F47063436297
:10485800436A43F4E063436200F026FF454E0022BA
:104868000E234FF0010A05A88DF814308DF8162094
:1048780003928DF815A08DF817A007F0F3F9039AA5
:10488800029B84F850A006F10C00E262A262626307
:104898002263A3636774C4F81480A574FFF762FAEF
:1048A800BBF1000F29D0F06B00B3D6F85880B5697A
:1048B800376A00F013FDF26BF06D116821F4FF41C7
:1048C80021F0700141F48551ADB211605560C2F814
:1048D8000880D760116841EA0A011160816841F0D7
:1048E80040018160526892B2F26406E0F36D2022C2
:1048F8001A621A6842F020021A60B9F1000F29D032
:10490800206C1C4D08B3D5F85480EF6900F0E6FC24
:104918002B6C1A6822F4FF4222F0700242F484528F
:1049280042F010021A60BFB200225F60C3F808802C
:10493800DA60196841F0020119605A605A60EA6D3C
:10494800936843F08003936004E0EA6D136843F0D2
:1049580080031360E26D0B48136843F00103136092
:10496800002323749DF804302372606009B0BDE809
:10497800F08F00BFAC0A0020C412010858000240A2
:1049880000380140B80A0020044BD3F8603293F98C
:10499800022082420CBF981C00207047AC0A0020FD
:1049A800F0B5027887B00ABB444B454A93F9F01139
:1049B80092F9002091427FD1424C93F8F50193F887
:1049C800F45154F82000B3F8F221009093F8F7015D
:1049D80054F82000019093F8F6313B4854F82330FE
:1049E800029354F8253003F042FA65E0002204925D
:1049F8000592451C0BF0FCFBC4B260B2FFF7C4FF84
:104A0800074618B18DF81040012400E004462846F6
:104A180020210BF088FB054638B1013528460BF0FC
:104A2800E7FB0134ADF81200E4B200262846202145
:104A38000BF079FBB0B3451C28460BF0D9FB0022DC
:104A4800204951F8223083425FFA82FE04D00132B5
:104A5800082AF5D1002300E0734651F8232082424A
:104A680020D1022E0FD0032E12D05A1E012ED2B200
:104A780004D0042A13D88DF814300EE0042A0ED876
:104A88008DF8153009E0052B09D88DF8173004E0AA
:104A98009A1E052A03D88DF816300134E4B201367F
:104AA800042EC3D1052C03D807B0BDE8F040E5E4D7
:104AB80004AB03CB3860796007B0F0BDA4150020C3
:104AC800AC0A0020CC290108CD2E010810B50A49EE
:104AD80091F86432D1F860220C4643B993881842A1
:104AE8004FF0010303D081F86432901C10BD84F8A4
:104AF8006432002010BD00BFAC0A0020024B002227
:104B080083F86422E2E700BFAC0A00202DE9F047F1
:104B1800877890F803C0214DBBB2C7F1640E03EB50
:104B280083065C42C3F178005FFA8EFE7600CCF112
:104B38006408A4B280B2A3B20FFA83F9B9F1000FE6
:104B480005DC002B14BFBA464FF0010A00E0F2461C
:104B580013FB03F303FB0CF21AFB0AF392FBF3F3C8
:104B6800434403FB09F30A2293FBF2F333449BB259
:104B780025F8023FB1F800904A880A34C9EB020AC6
:104B8800A4B21AB202FB0AF24FF47A73844292FB7F
:104B9800F3F34B442B80CED1BDE8F087100D0020F5
:104BA80010B544780078002202FB02F3193B6343F6
:104BB80003F6C413534340F6C411434393FBF1F384
:104BC800034921F812300132072AEDD110BD00BF88
:104BD8002A0D00200430114B33F91000B0F5617F25
:104BE80010B506DB40F6330398420246A8BF1A46C2
:104BF80001E04FF461720C78192340F2833013FB03
:104C08000404944207DA497813FB01039342B4BFC2
:104C18000020012010BD002010BD00BF7812002028
:104C280010B500F1500302788A4203D18478C27823
:104C3800944204D304309842F5D1002010BD0120DD
:104C480010BD0B4B1B6813F4805F0A4BB3F9063099
:104C580005D0C089421A934207DD084400E0008A63
:104C68008342B4BF0020012070470120704700BF75
:104C780074120020781200201FB5094B1B681B0313
:104C88000AD58DF8040001230D2001A98DED030A32
:104C98008DF8053001F04EFE05B05DF804FB00BF4D
:104CA8007412002010B5214A18B9136802221A821A
:104CB80010BD1F48146800230380217811F07F017C
:104CC80002460DD1637A990644BF0221017013F0A0
:104CD800400F037814BF43F0010323F0010315E0EC
:104CE800012921D002291ED1637913F0800F03F026
:104CF8000F034FEA830303F1804303F5B8431B68AE
:104D080006D003F03003102B07D10123137004E001
:104D180003F44053B3F5805FF6E7064B1B681B6945
:104D28009847034810BD184610BD00BFBC140020AA
:104D3800380D0020E811002010B5064C18B923687A
:104D480001221A8210BD044B1B689B689847206893
:104D58000C3010BDBC140020E811002010B5064C22
:104D680018B9236801221A8210BD044B1B681B68FE
:104D7800984720680A3010BDBC140020E8110020B4
:104D880003788B4283BF034B03EB41014888002023
:104D9800704700BF380D002070B500221346244923
:104DA80014180C44A47E83EA0423082413F4004F47
:104DB8004FEA430318BF83F4815304F1FF3418BF4B
:104DC80083F0010314F0FF049BB2EFD10132192ADA
:104DD800E5D100F1190200F11A050A440D44967E46
:104DE800AA7E02EB062292B29A421FD1104B93F888
:104DF8003B50E2B2AA4216D2431C03EB4203DBB299
:104E0800CA1801330B44927E9B7E03EB02239BB2AC
:104E18004FF4AF6253431B13064A03F5487322F855
:104E280014300134E5E7012381F83C3070BD00BF40
:104E3800380D00203A0D002003788B420BD9074B20
:104E48001A78074B89001944086C02B1400800F52C
:104E5800777080B270470020704700BFB01C0020F8
:104E6800380D002007299DBF034B03EB8101B1F8E2
:104E780070000020704700BF380D0020034B03EB83
:104E88004101B1F89000C008704700BF380D0020FC
:104E98000A4BDFED0B7A03EB810191ED2C7AB8EE2A
:104EA800477AF6EE046AE7EE267A82B0FCEEE77AF5
:104EB800CDED017ABDF8040002B07047380D00202E
:104EC80000005C4470B5334C054607F075FCD4F817
:104ED800F830C4F8F800C31AB3F5FA5FC4F8FC3028
:104EE80082BF002384F8003184F8013194F800313E
:104EF8002BB9A12D02BF274A012182F8011194F88C
:104F08000111244A29B1D118EDB201338D7682F806
:104F1800003194F8005194F80231AB4239D11D4B5D
:104F280093F80331052B02D0062B03D02CE0002088
:104F3800FFF732FFE37E1E2B26D100200246C1B2C6
:104F48006B1E994219DA21448B7E0821DBB283EA71
:104F58000206F60744BF83F01803C3F3460301F1C2
:104F6800FF3154BF5B0843F0800311F0FF01C2F327
:104F78004702ECD101301A46E1E723449B7E9A426E
:104F880002D10320FFF708FF002384F8013184F8D9
:104F9800003170BD380D002010B5044607F00CFC38
:104FA8000F4BD3F80421C3F80401821A41F2883167
:104FB8008A42C3F8082184BF002283F80C2193F8A1
:104FC8000C21074913440F2AE4B218BF013283F8B1
:104FD8000D4112BF81F80C21012381F81D3110BD4C
:104FE800380D002010B5044607F0E6FB0F4BD3F848
:104FF8002021C3F82001821A41F288318A42C3F87D
:10500800242184BF002283F8282193F82821074906
:105018001344142A18BF013283F8294112BF81F8BA
:105028002821012381F83E3110BD00BF380D002032
:1050380038B5044607F0C0FB274A2749D2F8403163
:10504800C2F84001C31AB3F57A6F84BF002382F80F
:10505800443192F8443133B9A82C3BD181F8453119
:10506800A1F8463106E0022B02D181F8484101E05F
:10507800242B02D8D11881F8494192F84811164DCD
:1050880001330231DBB249008B4282F8443118DA2D
:10509800B5F84631E0B283EA0020082310F4004F47
:1050A8004FEA400018BF80F4815003F1FF3318BF66
:1050B80080F0010013F0FF0380B2EFD1A2F846019F
:1050C80038BD01318B4201BF002385F844310123EB
:1050D80085F8453138BD00BF380D002008B50020DF
:1050E800402104F0F6FF094B1B68187A082801BF15
:1050F800074B4FF480521A80064B04BF10221A80C7
:10510800A0F109035842584108BD00BFBC14002053
:10511800E4110020E6110020314B2DE9F0411C6814
:10512800228A267AB2B9042E14D12E4D2E482B7815
:10513800012B0BD12D4B19682D4B89B20B445B0009
:1051480019681A60302303802A7045E01023038011
:10515800072641E0A58AA369AA4294BF042602262D
:10516800954228BF1546AFB2384698471F4A13687C
:105178009BB203F1005303F540535B0005F1010EA8
:105188001B689BB203F1005303F540534FEA6E0EC0
:105198005B000021714500F1020009D010F8018C74
:1051A80010F802CC4CEA082C23F821C00131F1E7B1
:1051B80012680F4B92B213445B001A681D60238A71
:1051C800DB1B2382638A1F44074B678230221A80C5
:1051D800084B4FF440521A802672BDE8F08100BF98
:1051E800BC140020FF1E0020E6110020505C004087
:1051F80002300020E41100202DE9F0414D880E888E
:10520800CB880C894A89B1F80C80B1F80EE08F88F8
:10521800B5F5827F1BD11E4346F4827646EA040523
:10522800B0F800C045EA020444EA080242EA0E0364
:105238000CF4415C4CEA03039BB20380828822F49D
:1052480070631B041B0C3B439BB283801CE0B0F8CB
:1052580004C02CF4706C4FEA0C4C4FEA1C4C4CEA1E
:1052680007072E43BFB2334387802343078813437E
:1052780043EA080307F4415743EA0E0347EA030EDB
:105288001FFA8EFEA0F800E0838B23F400631B0452
:105298001B0C83830B8A0382BDE8F081084BDA6814
:1052A800D10709D4DA68D20608D4DB6813F0040FF2
:1052B80014BF032004207047012070470220704764
:1052C8000020024020F01F01012300F01F00024AC5
:1052D80083408B50704700BF1404014002684FF6AA
:1052E800FE73134003600023036043608360C36060
:1052F800284B984201D1284A27E0284B984201D1EF
:10530800254A2AE0264B984201D1234A2DE0254B15
:10531800984201D1204A30E0234B984201D11E4ADD
:1053280033E0224B984204D11B4A536843F470037C
:105338002EE01F4B984204D1174A536843F070631C
:1053480026E01C4B984204D11B4A536843F00F03D4
:105358001EE01A4B984204D1174A536843F0F003F1
:1053680016E0174B984204D1134A536843F470630C
:105378000EE0144B984204D10F4A536843F470432B
:1053880006E0114B984204D10B4A536843F470234A
:105398005360704708000240000002401C000240B1
:1053A8003000024044000240580002406C000240B5
:1053B8008000024008040240000402401C0402402D
:1053C800300402404404024058040240994A536899
:1053D80003F00C03042B2DE9F04105D0082B06D06F
:1053E80095490160B3B916E0934B036012E0536826
:1053F8005468C3F38343991CE30349BFD36A8F4BB3
:105408008D4C03F00F0344BF0133B4FBF3F34B435C
:10541800036000E000235168894FC1F303117D5CEC
:105428000168EDB221FA05F444605668C6F3022615
:10543800BE5D24FA06FEC0F808E05668C6F3C22628
:10544800BE5DF6B2F440C460D2F82C80C8F30418EC
:1054580008F00F0C07EB4C0C18F0100FBCF810C03C
:105468001FFA8CFC07D0BCF1000F04D0B3FBFCFC86
:10547800C0F810C000E00161D2F82CC0CCF3442C75
:105488000CF00F0807EB48071CF0100F3F8ABFB25B
:1054980004D01FB1B3FBF7F7476100E04161176B18
:1054A800FF065ABF644F87618161176BBF065ABFF9
:1054B800614FC761C161176B7F065ABF5E4F0762B4
:1054C8000162176BFF0506D5994204D1AE4202D19D
:1054D8004F00476200E04462176BFF0406D599420B
:1054E80004D1AE4202D14F00876200E08462176B9C
:1054F800BF0506D5994204D1AE4202D14F00C7621A
:1055080000E0C462176B7F0506D5994204D1AE420C
:1055180002D14F00476400E04464176B3F0506D58D
:10552800994204D1AE4202D14F00876400E08464FE
:10553800176BBF0406D5994204D1AE4202D14B0085
:10554800C36400E08464156B3A4BAD0701D1046372
:1055580015E01C6B04F00304012C01D101630EE07B
:105568001C6B04F00304022C02D14FF4004305E045
:105578001B6B03F00303032B01D12F4B0363146B45
:105588002C4B14F4403F02D1C0F834E018E01C6BF7
:1055980004F44034B4F5803F01D1416310E01C6B42
:1055A80004F44034B4F5003F02D14FF4004306E060
:1055B8001B6B03F44033B3F5403F01D11E4B4363EB
:1055C800146B1C4B14F4402F02D1C0F838E018E0DB
:1055D8001C6B04F44024B4F5802F01D1816310E0E2
:1055E8001C6B04F44024B4F5002F02D14FF400439F
:1055F80006E01B6B03F44023B3F5402F01D10E4B9B
:105608008363146B0B4B14F4401F02D1C0F83CE0C9
:1056180020E01C6B04F44014B4F5801F01D1C16371
:1056280018E01C6B04F44014B4F5001F0AD14FF4C1
:1056380000430EE00010024000127A0000093D000D
:10564800040000201B6B03F44013B3F5401F01D185
:10565800134BC363126B134B12F4400F03D1C0F802
:1056680040E0BDE8F0811A6B02F44002B2F5800F09
:1056780002D10164BDE8F0811A6B02F44002B2F570
:10568800000F02D14FF4004306E01B6B03F4400304
:10569800B3F5400F01D1024B0364BDE8F08100BFB0
:1056A80000127A0000100240F0B500230E681C4674
:1056B8000125A54005EA060EAE452BD10F797A1EC5
:1056C800012A15D8856803229A4025EA02028260D9
:1056D8004D7982689D4015438560828892B222EA9E
:1056E8000E0282808A798588A2402A4392B28280FB
:1056F800032205689A40D2431540056005689F401B
:105708002F430760C7681740CA7902FA03F547EACA
:105718000502C2600134102C03F10203C8D1F0BDA8
:1057280038B52DED048B4A4C0368C4F86E31838874
:10573800A4F87231013A0D46072A42D8DFE802F090
:10574800040A101822292F35B4F86E310B80B4F8EA
:10575800703113E0B4F870310B80B4F86E3105E0A5
:10576800B4F86E315B420B80B4F870315B4205E0EF
:10577800B4F870315B420B80B4F86E316B80B4F8CA
:1057880072311DE0B4F86E315B420B80B4F87031B1
:1057980012E0B4F870310B80B4F86E310CE0B4F854
:1057A8006E310B80B4F8703105E0B4F870315B42AB
:1057B8000B80B4F86E315B426B80B4F872315B4297
:1057C800AB80244B93F83030002B3ED1B5F9003034
:1057D80094ED600AD4ED5D7A09EE103AB5F902301D
:1057E80008EE103AB8EEC88AB5F90430B8EEC99A8E
:1057F80028EE000A08EE903AA7EE890AF8EEE88A41
:10580800D4ED637AA7EEA80A0AF066FE94ED610A61
:10581800D4ED5E7A288028EE000AA7EE890AD4ED36
:10582800647AA7EEA80A0AF057FE94ED620AD4ED4E
:105838005F7A688028EE000AA7EE890AD4ED657AB7
:10584800A7EEA80A0AF048FEA880BDEC048B38BD74
:10585800380D002004000020094BD3F89821137854
:1058680044F6FB7103EB431300FB03135078C0EBC2
:105878000030B3FBF0F39078B3FBF0F080B27047E0
:10588800380D002010B5074C00210A2204F5D0700D
:10589800A4F89C1107F016F880B2FFF7DDFFA4F812
:1058A800280210BD380D002038B500240B4D605972
:1058B800254405F05FFA696811B1094802F0D7FA82
:1058C800A96811B1074802F0D2FA0748103405F068
:1058D80051FAB4F5D07FE9D138BD00BFE412010810
:1058E800BC2F0108C22F01086E39010870B50546A2
:1058F80028460AF026FC064658B91A4B1A485A791F
:105908001A4B03EB8203BDE87040D3F89C1102F0F8
:10591800AEBA2846164932460AF01CFC60B915484A
:10592800154C05F027FA54F8041F19B1134802F072
:105938009EFAF8E7124805E00024124B53F82410A9
:1059480021B91148BDE8704005F014BA284632461E
:105958000AF000FC01340028EFD1024B0B4D5C71BA
:10596800C6E700BFA4150020C82F0108E4120108EB
:10597800D42F0108D92F010880140108EC2F010841
:105988006E39010884140108F02F0108B82C0108A9
:10599800F0B585B004460AF0D4FB082826D1621E6B
:1059A800E01D1F4912F8013F09681944497801F0C0
:1059B8000301022908BF203B82421370F1D125461A
:1059C80004F1080715F8016B164831460AF0ABFBDD
:1059D80020B1284631460AF0A6FB10B1FEF74EFD6D
:1059E8001CE0BD42EED1204606F000FA0E4805F054
:1059F800C1F900230D4A1A4404A992F888210A44DF
:105A08000849595C02F80C1C0133082BF2D1002319
:105A180007488DF80C3001A902F029FA05B0F0BD4D
:105A2800B400002080430108FF2F0108A4150020BE
:105A3800B03801082DE9F04705460AF082FB324EDE
:105A48000446D6F8088090B9304805F093F9304BF1
:105A580053F8241049B10123A34013EA080F02D0D8
:105A68002C4802F004FA0134F1E72B4822E02846DA
:105A78002A4922460AF06EFB58B92948294C05F0F4
:105A880079F954F8041F0029EFD0224802F0EFF901
:105A9800F7E72B782D2B03BF013504F1FF344FF0C6
:105AA800010A4FF0000A4FF00009194B53F829700A
:105AB80027B91D48BDE8F04705F05CB928463946C6
:105AC80022460AF047FBD8B9012000FA09F002067D
