:020000040800F2
:1000000000A0002059CE0008759200089DBF00088E
:1000100073920008719200086F92000800000000BF
:100020000000000000000000000000006D920008C9
:100030006B920008000000006992000891BB000864
:10004000C1CE0008C1CE0008C1CE0008C1CE000854
:10005000C1CE0008C1CE0008C1CE0008C1CE000844
:10006000C1CE0008C1CE0008C1CE0008C1CE000834
:10007000C1CE00080D410008313E0008C1CE000885
:10008000C1CE0008C1CE0008C1CE0008C1CE000814
:1000900019930008C1CE0008C1CE0008C1CE0008E7
:1000A000C1CE0008D57A0008C1CE0008E57A000864
:1000B000C57A0008B57A0008A57A0008C1CE000804
:1000C000C1CE0008C1CE0008C1CE0008C1CE0008D4
:1000D000C1CE0008B93D0008C1CE0008C1CE00085D
:1000E000A1BB0008C1CE00085B920008C1CE000889
:1000F000857A0008C1CE0008957A0008C1CE0008B4
:10010000000000000000000000000000C1CE000858
:10011000C1CE0008C1CE0008C1CE0008C1CE000883
:10012000C1CE0008C1CE0008C1CE0008C1CE000873
:10013000C1CE0008C1CE0008000000000000000091
:10014000C1CE0008C1CE0008C1CE000800000000EA
:10015000000000000000000000000000000000009F
:100160000000000000000000C1CE0008C1CE000861
:10017000C1CE0008000000000000000000000000E8
:0801800000000000C1CE0008E0
:10018800CA4B2DE9F04FB3F90610C94B1F682DED86
:10019800028B7A899142A7B00EDBB1F5FA6FFC7930
:1001A800BDBF8B1A6343A2F5FA64C4F16404BCBFF3
:1001B80093FBF4F4643400E06424BE4EBE4B326812
:1001C800039293F95E21B3F896B1039D019392B21D
:1001D8000592002253000493B44B33F91230029372
:1001E800CBEB030303F2F31E40F2E630864503D857
:1001F800002BB8BF5B4201E04FF4FA73022A009368
:100208004FF06400039BDFF8BCE237D093F819C1C4
:10021800BCF1000F06D0009B6345CCBFCCEB0303B9
:1002280000230093009BDFF8C4C293FBF0F86FF043
:10023800630A3CF818900AFB083A08F10108049B85
:100248003CF918C00FFA89F8C8EB0C0C0CFB0AFC37
:100258009CFBF0FCCC442EF803C007EB020E009B7D
:100268009EF804E003FB0EF3DFF850E293FBFEF385
:1002780064339BB2634393FBF0F031E093F81AC107
:10028800BCF1000F06D0009B6345CCBFCCEB030349
:1002980000230093009BDFF84C9293FBF0F06FF083
:1002A800630839F910C008FB003A0130BDF8143072
:1002B80039F91000CCEB000000FB0AFA9AFBF8FAB7
:1002C800CCEB0A0A1AFB03FA009BAEF804A0B87933
:1002D800002BB8BF5B424343784893FBF0F064308F
:1002E80095F801E0764B4FF0640C00FB0EFE9EFB88
:1002F800FCFE03F802E003F1030895F80BE000FBAD
:100308000EFE9EFBFCFE08F802E0063395F815E0A9
:10031800022A00FB0EF090FBFCF09854694B6A48E7
:100328000FD180F802C0029858450EDB624CB4F831
:100338009801814217DBB1F5FA6FA8BF4FF4FA6153
:1003480012E084540298584506DA0498185AC0F105
:10035800000E049823F800E00132032A05F1010594
:100368007FF438AFE2E70146091A4FF47A72DFF8F2
:1003780080C1544D51436FF06302C0F5FA604FF0ED
:10038800640EB1FBF0F191FBFEF03CF8107002FB3B
:10039800001101303AB23CF91000801A414391FB38
:1003A800FEF23A44DA80494B1B885A063BD5484B43
:1003B800DFED487AB3F904309FED470A0A2293FB30
:1003C800F2F3464A12889B1A1BB208EE103AB8EEAE
:1003D800C88A28EE278A38EE000A08F034FCF0EEC6
:1003E800408AB0EE480A08F02EFCB5F9023006EE55
:1003F800903AB5F90030F8EEE66A07EE903A20EE4A
:10040800667AF8EEE77AA7EEA87A67EE807ABDEE0C
:10041800C77AE6EEA87A17EE103AFDEEE77A2B8057
:1004280017EE903A6B802E4B2E4D1B88DFED2E0A6F
:100438002F8B00EE103A05F11C00B8EE400A01219E
:1004480008F0B4F9BCEEC00A95F826308DED000A24
:10045800BDF80000B7FBF0F0471CBFB2AF84002B1B
:1004680048D0B5F828B000231E49164A01F1320CCD
:1004780001F12A0932F813803CF813E039F8132007
:100488002CF81380CEEB080E12FB0BF20FFA87FA4A
:1004980092FBFAF2964429F813E00133042BE3D1D6
:1004A800002381F82630088527E000BFA812002025
:1004B800841200201C100020781600200CFEFFFF7C
:1004C800C6070020421000205610002040100020CF
:1004D8004A10002035FA8E3CDB0FC93F6C13002010
:1004E80024130020B80700206F12833ADA0F002087
:1004F800C20F00202B8D013B2B85B34A108D03B210
:10050800002B90464FF0000313DDB2F92470AF4979
:1005180031F81320083112FB00F231F8131092FB66
:10052800F7F28A1AAA4921F813200133042BEED1D5
:1005380000E01385A74F3B689B0779D5A64BDFF8EA
:1005480088B21A68D8F83C3045F20721D31A8B4292
:100558006EDDCBF83C2004F083FDA04BDFF8B0A2A1
:100568001A78032A9946BAF8003024D10A2B2ED9D2
:100578000023282089F800300BF0BDFA04F070FD44
:10058800974B188804F056FD964B1A68D37890FB61
:10059800F3F001300828944BA8BF0820187053794D
:1005A80080B213FB00F3A8F84030137913FB00F076
:1005B800A8F842000BE00A2B09D803238A4A89F8D5
:1005C800003000231370ABF84030ABF8423099F894
:1005D8000030824A012B0DD002D3022B1ED027E017
:1005E800B8F84020BAF800309A4221DD012389F892
:1005F800003011E0BAF80010B8F842308B4202DD42
:100608000223137011E0704BB3F840300133994264
:1006180002DD002313700BE0082007E0B8F8423031
:10062800BAF8002001339A42E0DC07200BF002FA06
:100638003A686E4F12F4006F78D0674BD8F84410C0
:100648001B686148C1EB030B45F207218B456DDD43
:1006580043645F4BDFF8BCE1B3F90690614BBEF829
:100668004E11D3F800A09AF80A30012BA9F57A792F
:1006780003D043D3022B1BD042E0826C082192FBAB
:10068800F1F3D31A00228364A0F84C2093FBF1F312
:1006980040F6E4429BB25343BAF80820C2EB133346
:1006A8004FF47A725343BAF9062093FBF2F326E02B
:1006B800BAF8083003653878400721D50EF5C470BC
:1006C8000293009205F065F9009A029B20B912F096
:1006D800100F18BF4FF0000909FB09F2322192FBF5
:1006E800F1F29144BAF9062002FB09F94FF47A7243
:1006F80099FBF2F94B44C8F8503001E00023036538
:10070800D5E916012B6D3A4A03FB0BF34FF47A7BBC
:1007180093FBFBF310EB030841EBE379C5E916897A
:100728004046494600230BF04FFC2866314B1A68B7
:1007380012F4805F984602D00A200BF07BF92E4D08
:100748002A68002A73D0DFF8D0E02C4BDEF80000CE
:1007580019688142F246994669D8294BDFF8ACB04E
:1007680018785168B0B901221A70BBF80030CB5C18
:10077800D3B1244B1A7009F0DBFABBF800309BB9EF
:100788002B681B78053B012B0ED80BF08DF91E4BFF
:10079800186009E000221A70BBF80030CB5C1BB16E
:1007A800184B1A7009F0C4FA2A68BBF8003052686E
:1007B8001648D25CFE2A01D1002337E0FF2A2DD14A
:1007C8000BF028F933E000BFB8070020E20700204B
:1007D80042100020A4120020301F00201013002017
:1007E800CC0C0020C80C0020B40000204E1F0020B4
:1007F800407E050068130020881D0020801D002011
:100808007C1D0020FC120020F8140020841D00200C
:10081800580D002078160020D4120020DAF8005075
:100828000A2111FB0252C9F80020013303803B78EA
:100838005D0703D5AE4B08221A852FE0D8F80020B3
:10084800D0075EBFAB4A43F001031370AA4B1B7875
:1008580019075EBF3B7823F001033B70A74B1A884A
:10086800A74B1AB1A74A1268920702D4A64A12885F
:1008780032B102221A703B7823F001033B7004E086
:100888003978CD0758BF02221A700BF00DF99F4B2B
:100898001B68C01A002801DB09F04AFA9C4F3D7812
:1008A800002D00F0E2809B4E3368002B01F06B8036
:1008B800306803685B689847002801F06480954BAE
:1008C800954C18680368DB689847092801D03F28C9
:1008D80054D14FF0000AD4F80090904DD046B9F1A9
:1008E800000F05D08E4829684A460EF083FC20B9CF
:1008F800AA46B8F1000F00D1A8468A4B10359D4290
:10090800EDD3B8F1000F18D0D8F800E0DAF800C03D
:1009180023681EF803501CF80300A8420DD15A1C86
:100928007F4938B92D2B05D87B4D2A602025CD5419
:10093800885402E0CD542260EAE723680BB1D04521
:1009480011D0794809F0F2FAD04507D858F8100BB9
:1009580009F0ECFA092009F0E1FAF5E7734809F023
:10096800E5FA4FF0000923689945A1D26C4B13F8BA
:10097800090009F0D3FA09F10109F4E72368002B0B
:1009880040F0E287042841F0C884654805F07CF906
:1009980000F0F9BFD8F80000DFF8ACB103685B6875
:1009A8009847002857D0DBF800000368DB689847B1
:1009B800D9F8003093F848208246002A63D12428C9
:1009C80040F0C980012283F84820D9F8002092F825
:1009D80048000628DED192F84930492B00F0B3844C
:1009E80000F2A481322B00F0288700F23281222BFA
:1009F80000F0EA8500F2ED80032B00F0A78240F2B8
:100A0800D380042B00F0AE82052B40F0DD871A203E
:100A180009F004FA0027464BD85D013709F0CDF9F3
:100A28000B2FF8D10027434BD85D013709F0C5F9E2
:100A3800082FF8D10027404BD85D013709F0BDF9E0
:100A4800072FF8D13D4F3B68987909F0B6F93B6814
:100A5800002283F848203A4B93F8A430002B40F04A
:100A680044874C35982D00F08E87364AAB1893F89A
:100A78004A100129F5D1314FAA583B60324BB9468B
:100A88001A60984686E7012A04D14D2814BF00222F
:100A9800022298E7022A04D13C2814BF002203222C
:100AA80091E7032A0AD140284FF000029FBF1A712C
:100AB800DA715871987198BF042284E7042A08D122
:100AC8009A7983F8490080EA020A83F806A0052289
:100AD80079E7052A7FF479AF59791A79914299799A
:100AE80034D941409971511C1971134418726CE73B
:100AF800000400484E1F0020FC1100208C1100202B
:100B0800FC12002014130020481F002000130020AE
:100B18004C1F00200C130020181000205002010860
:100B2800E80F0020F0030108B51B0108BA1B0108F3
:100B38005E1A01086A1A0108421A01080413002003
:100B4800B8070020E01500200813002081420CBFE0
:100B58000622002237E7D24A137859073FF535AF06
:100B68002328DBF8003012D1CE490092012008700A
:100B7800CD49CE480B60CE494B6609F0D7F9CD4830
:100B880009F0D4F9009A137843F002031370CA4BA2
:100B98001B681B78534501BFC84BC94A1A60C94B2B
:100BA80004BFC94ADA6010E7012B00F0C381022BA9
:100BB80040F00A87042009F031F9422009F0FDF8D5
:100BC800542009F0FAF8462009F0F7F84C2000F014
:100BD800F7BE282B00F0F18515D8242B00F0D4851A
:100BE800262B40F0F186B94F062009F017F9B7F81F
:100BF800580109F016F9B7F85A0109F012F9B7F8CF
:100C08005C0100F030BE2A2B00F0EA852C2B40F066
:100C1800DB86AE4F0C2009F001F997F8900109F036
:100C2800CCF8B7F89A0109F0FCF8B7F8960109F082
:100C3800F8F8B7F8980109F0F4F897F8910109F075
:100C4800BCF8B7F89C0109F0ECF8B7F89E0100F081
:100C58000ABE3D2B00F06C8319D8382B00F09A851A
:100C680007D8342B00F0D384362B00F0008600F030
:100C7800ABBE3A2B00F02C833B2B40F0A58601201D
:100C880009F0CCF8924B1B68187800F099BE452BF8
:100C980000F0188627D8402B00F0D685422B40F06C
:100CA80093868A4F102009F0B9F8787909F085F809
:100CB800B86809F0BFF897F8900109F07EF8B7F81E
:100CC800580109F0AEF8B7F85A0109F0AAF8B7F8D0
:100CD8005C0109F0A6F8B7F8800109F0A2F8B7F8A6
:100CE800820100F0C0BD462B00F0D285472B40F0B2
:100CF8006B8609F059F88046842009F08FF8404641
:100D080009F098F8734BDF6808F18003BB428CBF89
:100D1800C8EB0707802705F03BFE40463A4606A980
:100D280006F082FE0027804600F0C3BD6F2B00F05E
:100D380010834BD8672B00F00E822AD8642B00F062
:100D4800238112D84B2B00F051854D2B40F03C8667
:100D5800614FDFF89081387800EB4000C0B209F0AD
:100D68005DF84FF0000900F050BD652B00F01C81C4
:100D7800662B40F02986122009F050F8574B1B8843
:100D8800B3F5806F8CBF4FF008084FF001080027BB
:100D9800C3E16C2B00F0868210D8682B00F04B82E0
:100DA800692B40F01186DFF8308198F80000400088
:100DB80000F0FE0009F032F8002749E26D2B00F040
:100DC80080826E2B00F0888200F0FEBD772B00F049
:100DD8008E8400F28980732B00F0AE8455D8702B76
:100DE80000F0E582722B40F0EF85162009F016F826
:100DF800019BB3F8960109F014F8019BB3F8400180
:100E080009F00FF8019BB3F8420109F00AF8019BB9
:100E1800B3F8440109F005F8019BB3F8D80109F0CB
:100E280000F8002008F0C9FF002008F0C6FF0020E5
:100E380008F0C3FF019B93F8850108F0BEFF019BF2
:100E480093F8920108F0B9FF002008F0B6FF204B94
:100E58001B680A20B3F95E3093FBF0F080B208F00B
:100E6800E0FF019B93F87A0108F0A7FF019B93F834
:100E78007E0108F0A2FF019B93F87D0108F09DFF19
:100E8800019B93F87F0100F09BBD742B00F0E88371
:100E9800752B40F099852F2008F0C0FF104F78E39C
:100EA8004E1F00204C1F00200C130020EA1B0108D5
:100EB800B8070020BA1B0108BC0F0020FC9F0020C7
:100EC800EFBEADDE00ED00E00400FA057816002064
:100ED8001C10002038000020741D00204C00002049
:100EE8004B00010818180020A02B00F03F840AD8F6
:100EF800782B00F03C817B2B40F066853C2008F085
:100F08008DFF0027E5E2F12B00F06F81FE2B00F04A
:100F18001F84F02B40F05885D34F042008F07EFF43
:100F28003B68B3F8620008F07CFF3B68B3F86000E8
:100F380000F099BC032008F071FF002008F03DFF85
:100F4800012008F03AFF0D2000F03ABD184608F0DD
:100F580065FF022008F031FF012008F02EFF012074
:100F680000F02EBD062008F059FF432008F025FFA9
:100F7800432008F022FF332008F01FFF442008F028
:100F88001CFF012000F06FBC072008F047FFE72096
:100F980008F013FFB54B587908F00FFF002008F050
:100FA8000CFF042000F09DBC0B2008F037FFB04B6D
:100FB800188808F036FF002008F033FFAD4B1B6897
:100FC800C3F3C000C3F38002800040EA4200C3F3C9
:100FD80040021043C3F3401240EAC20003F010037A
:100FE800184308F01EFFA44B1A88A44B12F0010FF7
:100FF80014BF4FF002094FF0000912F0020F14BF9E
:101008004FF004084FF0000812F0040F14BF4FF01F
:10101800100C4FF0000C12F0400F14BF4FF0200ED0
:101028004FF0000E12F0100F14BF4FF40077002796
:1010380012F0200F1B6814BF4FF48060002012F4D8
:10104800807F14BF4FF400610021009102F0080A6C
:1010580003F4475141EA0A0A03F480414AEA010AC3
:1010680003F400414AEA010A03F480314AEA010A1A
:1010780003F400314AEA010A03F4802B4AEA0B0A16
:1010880003F400214AEA010103F4801A41EA0A0A3A
:1010980003F000734AEA0303DFF804A29AF800A0F9
:1010A800CAF3800A43EA0A0343EA090949EA080835
:1010B80048EA0C0C4CEA0E0E009B4EEA070712F4A5
:1010C800007F40EA070040EA030014BF4FF4001114
:1010D800002112F4806F41EA000114BF4FF08063D1
:1010E80000231943664B002093F868700346BB42FF
:1010F8000CD2644A13F802E0012202FA0EFE1EEA3C
:10110800010F1CBF9A4010430133F0E708F092FE2C
:10111800564B93F8C40600F053BC5B4B33F91700E9
:1011280090FBF8F0013780B208F07BFE032FF4D172
:10113800564F388808F075FE788808F072FEB8882F
:10114800534F08F06EFE388808F06BFE788808F078
:1011580068FEB88887E3102008F060FE00274D4B32
:10116800D85D013708F029FE102FF8D16AE4702005
:1011780008F054FE4FF0000833680E2707FB08F705
:101188003B4408F10108B3F8210108F04AFE33682E
:101198003B44B3F8230108F044FE33683B44B3F8FA
:1011A800250108F03EFE33683B4493F8270108F018
:1011B80004FE33683B4493F8280108F0FEFD3368C9
:1011C8003B4493F8290108F0F8FD33683B4493F851
:1011D8002A0108F0F2FD33681F44D7F82B0108F004
:1011E80029FEB8F1080FC7D12CE470201F4F08F072
:1011F80015FE07F1700897F8D00008F0DEFD97F8A3
:10120800D10008F0DAFD97F8D20008F0D6FD97F87B
:10121800D30008F0D2FD97F8D40008F0CEFD97F877
:10122800D50008F0CAFD073797F8CF0008F0C5FDCC
:101238004745E0D106E4102008F0F0FD0027164BE2
:10124800D85D013708F0B9FD102FF8D1FFF7FABBC8
:1012580098F800309F42BFF4F5AB104B33F81700F5
:1012680008F0DFFD0137F3E71C1000207816002096
:1012780024130020141300204010002068130020BD
:10128800B807002021080020DC11002050100020A1
:10129800201200203C080020981D0020A8120020E1
:1012A8004E1F0020BF4F08F0B9FD388808F0B9FD7F
:1012B800788808F0B6FDB7F904300A2093FBF0F0FF
:1012C80031E0062008F0AAFD002008F0B3FD4BE24B
:1012D800042008F0A3FD03E3072008F09FFDB24BAC
:1012E800B24F1888FF28A8BFFF20C0B208F065FDDC
:1012F800386E4FF6FF784045A8BF404620EAE070B8
:1013080080B208F08EFDB7F8940008F08AFDA84B6B
:10131800386D93F8853143B10A2358434045A8BF37
:10132800404620EAE07080B29DE200F30F00FAE741
:101338009F4F022008F072FD97F8E00108F03DFD8C
:1013480097F8DF013CE3022008F068FD994B188804
:1013580089E2994F0B2008F061FD3B68187808F086
:101368002CFD3B68587808F028FD4FF00009B84676
:10137800D8F80030904F4B4409F10109187908F06A
:101388001CFDB9F1030FF3D13B68D87908F015FDBE
:101398003B68987808F011FD3B68D87808F00DFD97
:1013A8003B68588908F03DFD3B68187A08E3834F8D
:1013B8001E2008F033FD3B681B78022B4FF0000815
:1013C80071D13B6803EB880393ED080AB2EE048AF7
:1013D80020EE080A0EF0D0F880F30800C0B208F03A
:1013E800ECFC3B68DFED767A03EB880393ED0B0AA0
:1013F80020EE270A0EF0C0F880F30800C0B208F00B
:10140800DCFC3B68DFED6F7A03EB880393ED0E0A93
:1014180020EE270A0EF0B0F880F30800C0B208F1F9
:10142800010808F0CAFCB8F1030FCAD1B8F1070FD8
:101438003B6823D193ED110A20EE080A0EF09CF8C0
:1014480080F30800C0B208F0B8FC3B6893ED120ABC
:1014580020EE080A0EF090F880F30800C0B208F0F9
:10146800ACFC3B6893F84C3000EE103AB8EE400AFA
:101478000EF082F880F30800C0B20BE043445878BD
:1014880008F09BFC3B684344D87A08F096FC3B681C
:101498004344587D08F1010808F08FFCB8F10A0FA1
:1014A800C4D1FFF7CFBA3B684344587808F085FCAD
:1014B8003B684344D87A08F080FC3B68434408F111
:1014C8000108587D08F079FCB8F10A0FEBD1FFF755
:1014D800B9BADFF8E8809FED3B8AD8F8003003EB13
:1014E800870393ED080A20EE080A0EF045F880B24B
:1014F80008F097FCD8F8003003EB870393ED0B0A4C
:1015080020EE080A0EF038F880B208F08AFCD8F805
:10151800003003EB870393ED0E0A20EE080A0EF065
:101528002BF8013780B208F07CFC032FD1D1072FAC
:10153800D8F8003018D193ED110A20EE080A0EF001
:101548001BF880B208F06DFCD8F8003093ED120A51
:1015580020EE080A0EF010F880B208F062FCD8F805
:10156800003093F84C000DE03B44587808F059FCE3
:10157800D8F800303B44D87A08F053FCD8F800304B
:101588003B44587D013708F04CFC0A2FCFD1FFF7B8
:1015980059BA17F8010F00283FF454AA08F00DFCB7
:1015A800F7E700BF4A100020580D0020B8070020B8
:1015B8007816002064100020841200201C100020DF
:1015C8000000C84200007A44502008F027FC002799
:1015D800CF4B1B6803EB8708CE4B98F881200C2172
:1015E80001FB0233013793F8380008F0E6FB98F85E
:1015F800820008F0E2FB98F8830008F0DEFB98F818
:10160800840008F0DAFB142FE2D1FFF71BBA482058
:1016180008F004FC4FF00008BD4B1F68062303FBCD
:10162800087708F1010897F8D60008F0C6FB97F884
:10163800D10008F0C2FB97F8D20008F0BEFB97F87B
:10164800D30008F0BAFB97F8D40008F0B6FB97F877
:10165800D50008F0B2FBB8F10C0FDDD1FFF7F2B9F5
:1016680000274FF001094FF0000AAB4B93F86820B0
:10167800924532DA69334FF0000B1AF80310A54A85
:101688000C2302F1300003FB0BF39046185C8842F0
:1016980009D11344586B0DF0A4FD0146B9F1000FB0
:1016A80007D14B4607E00BF1010BBBF11C0FE6D14C
:1016B80010E007440EE08B420CDA0C2202FB0B828E
:1016C8000291526B0093D05C08F077FB009B029963
:1016D8000133F0E70AF1010AC7E7B9F1000F3FF457
:1016E800B1A9F8B208F09AFB4FF00009BBE7DFF8A0
:1016F800288298F8680008F091FB002798F868306D
:101708009F42BFF49FA9854B17F803E00021814849
:101718000C2200F1300C02FB01F313F80C20724587
:1017280005D1034493F8380008F047FB02E0013183
:101738001C29ECD10137E1E7082008F06FFB0127ED
:10174800F8B2013708F039FB092FF9D1FFF77AB958
:10175800082008F063FB002008F063FB002008F075
:1017680060FB002008F05DFB00207CE00C2008F006
:1017780055FB6B4B186808F05DFB6A4B186808F05E
:1017880059FB694B1868ACE0042008F047FB674B2D
:101798009868A6E0654F042008F040FB97F87A01A6
:1017A80008F00BFB97F87E0108F007FB97F87D011E
:1017B80008F003FB97F87F0102E15C4F072008F06F
:1017C8002DFBB7F8800108F02CFBB7F8820108F070
:1017D80028FB97F8840108F0F0FAB7F8860142E090
:1017E800012008F01BFB514B5879E9E04F4F0420CA
:1017F80008F014FB97F8D60108F0DFFA97F8D7013C
:1018080008F0DBFAB7F8D8012DE03B78994508F1E4
:101818000208BFF417A918F8020C08F0CEFA18F855
:10182800010C00EB800000EB800000F2EE2080B29B
:1018380008F0F7FA09F10109E7E7012008F0EEFAE4
:101848003A4B93F89201BBE0082008F0E7FA00272A
:10185800364B3B44013793F8880108F0AEFA082F5D
:10186800F6D1FFF7EFB808F0DCFAFFF7EBB82A4B30
:101878002E4F93F89600C0EBC000C0B208F0CEFA25
:101888002B4B187897F8F03198427FF4DBA883E067
:10189800284F0D2008F0C2FA05F0B4FF08F08DFAC1
:1018A800388808F0C7FAF86808F0C4FA05F06AFD45
:1018B80017E04745BFF6C6A806ABD85D08F07DFA25
:1018C8000137F6E7132008F0A9FA00271A4BD85D6C
:1018D800013708F072FA0B2FF8D1002008F0AAFAA5
:1018E800002008F0A7FAFFF7ADB8144BE8580AF043
:1018F8005FF918B932200AF0FEF8F6E70AF0C8FADC
:1019080007F02AFA0E4B0F4ADA60FFF7AAB800BFB1
:101918001C1000204C000108B807002021080020F6
:10192800ACF7FF1FB0F7FF1FB4F7FF1F78160020B2
:101938005C0D0020380000205E1A0108E015002028
:1019480000ED00E00400FA050C2800F0E8840A28FD
:1019580040F0EE84C34DC44808F0E8FA2846232135
:101968000DF031FC08B1401B20602368002B40F0CB
:101978000385BC482360002130220DF0EEFB3B7844
:10198800002B40F0CF84B94B9B68002B00F04185B9
:10199800B748984700F03DBD08F00FFAB7F8F201D4
:1019A80008F03FFA97F8F40108F007FA97F8F501FC
:1019B80008F003FA97F8F70108F0FFF997F8F6012D
:1019C80008F0FBF9FFF73EB84A2B04D1002008F0D5
:1019D80025FAFFF737B800F2A181352B27D108F097
:1019E800CDF90B28804602D909F0E8FFEEE7A14BB4
:1019F8001F6808F0C3F90328F6D8062303FB087705
:101A080087F8D60008F0BAF987F8D10008F0B6F9D7
:101A180087F8D20008F0B2F987F8D30008F0AEF9D9
:101A280087F8D40008F0AAF987F8D500CEE700F2C5
:101A3800A880292B11D108F0ADF98F4FA7F88001A4
:101A480008F0A8F9A7F8820108F098F987F8840146
:101A580008F0A0F9A7F88601B8E75CD8252B08D1CB
:101A6800854F0023BB6008F09FF9BB681843B86036
:101A7800ACE7272B0DD108F08DF97F4FA7F8580157
:101A880008F088F9A7F85A0108F084F9A7F85C016A
:101A98009CE7232B40F03D8408F070F91328814619
:101AA800A2D8DFF8D081D8F8007008F067F90023D1
:101AB80072490C225A4301EB020E9EF838E0864523
:101AC80025D18B180FFA89F907EB890793F830307D
:101AD80087F8813008F052F987F8820008F04EF94B
:101AE80087F8830008F04AF9654B87F88400D8F82E
:101AF8000000C3F8A000634AC3F89C20813000218D
:101B080003F036FF604B80F0010018705EE7013388
:101B18001C2BCDD168E72D2B23D108F02FF9DFF846
:101B2800588188F8900108F035F9A8F89A0108F06A
:101B380031F9A8F8960108F02DF9A8F8980108F0ED
:101B48001DF93B6888F891015B79082B7FF63EAF59
:101B580008F020F9A8F89C0108F01CF9A8F89E01E3
:101B680034E7332B05D108F009F9434B83F8920188
:101B78002CE72B2B40F0CD8308F000F93E4B587131
:101B880024E73E2B09D108F0F9F83B4F87F8E0012C
:101B980008F0F4F887F8DF0118E77DD8392B11D160
:101BA80008F0ECF8344F87F87A0108F0E7F887F87E
:101BB8007E0108F0E3F887F87D0108F0DFF887F880
:101BC8007F0103E73C2B15D12A4FD7F8008008F096
:101BD800D5F818B10228A8BF022000E0012088F833
:101BE80000003B681B78022B284B14BF284A294A5F
:101BF8001A60EBE6372B40F08C8353790727B3FB49
:101C0800F7F2C2EBC2029A1A12F0FF0F7FF4ECAEA1
:101C1800B3FBF7F7013FFFB2FF2F3FF4D7AE08F051
:101C2800ADF85FFA80F94FFA89F003F055FD804668
:101C380000283FF4D9AE80F8009008F0ABF8A8F877
:101C4800020008F09BF888F8040008F097F888F874
:101C5800050008F093F888F8070008F08FF888F86E
:101C68000600D7E7E80F0020A8280108F410002094
:101C78005E0800201C100020781600204C00010887
:101C8800B8070020B817002002000020AC00002090
:101C9800F57A000859A30008432B23D108F06EF801
:101CA800D64F0023BB60787108F07EF8BB681843F4
:101CB800B86008F063F887F8900108F06BF8A7F8A7
:101CC800580108F067F8A7F85A0108F063F8A7F870
:101CD8005C0108F05FF8A7F8800108F05BF8A7F846
:101CE800820173E60DD8412B40F01383002708F0DA
:101CF80045F8C24B3B440137082F83F88801F6D1D9
:101D080064E6442B04D1BE4B012283F8A4205DE68F
:101D1800482B40F0FE8205F05BFE57E6D02B0BD136
:101D2800B84B1B7858073FF551AE08F02BFF07F06A
:101D38003DF807F0F9F849E600F2C781CA2B40F0F0
:101D48009280B14F3B681B78022B4FF000086FD18F
:101D5800D7F8009008F012F807EE900AF8EE677AC4
:101D6800B2EE048AC7EE887A09EB8809C9ED087AC9
:101D7800D7F8009008F002F807EE900A9FEDA37AD2
:101D8800F8EE677A09EB8809C7EE877AC9ED0B7A0E
:101D9800D7F8009007F0F2FF07EE900A9FED9C7AC3
:101DA800F8EE677A09EB8809C7EE877A08F1010827
:101DB800B8F1030FC9ED0E7ACAD1B8F1070FD7F8F9
:101DC80000901CD107F0DAFF07EE900AF8EE677A68
:101DD800C7EE887AC9ED117AD7F8009007F0CEFFE0
:101DE80007EE900AF8EE677AC7EE887AC9ED127A9C
:101DF800D7F8009007F0C2FF89F84C0012E007F00E
:101E0800BDFFC14489F80100D7F8009007F0B6FF7C
:101E1800C14489F80B00D7F8009007F0AFFFC14420
:101E280089F8150008F10108B8F10A0FC5D1CDE508
:101E3800D7F8009007F0A2FFC14489F80100D7F84D
:101E4800009007F09BFFC14489F80B00D7F8009079
:101E580007F094FFC14408F10108B8F10A0F89F8A6
:101E68001500E5D1B2E56AD84E2B2BD1577903235B
:101E7800B7FBF3F7122F3FF6B7ADDFF880814FF0CD
:101E88000009B945BFF4A2AD07F078FF88F8A001B2
:101E980007F080FF40F2ED23984205DD40F6CA03C3
:101EA8009842A8BF184601E040F2EE20A0F2EE20CA
:101EB800192309F1010990FBF3F008F1020888F8E9
:101EC8009F01DEE7C82B29D157797F08122F3FF6EB
:101ED8008BAD4FF00008B84507D207F05BFF06ABA3
:101EE80023F8180008F10108F5E73A460023BB4239
:101EF80007DA06A931F81300464921F8130001331F
:101F0800F5E7122A05D0434B002123F812100132BD
:101F1800F7E73B4B012283F89A2057E54C2B40F01A
:101F2800F88107F02BFF354F87F8D60107F026FF19
:101F380087F8D70107F02EFFA7F8D80146E5CD2B83
:101F480009D1304B1B7859073FF540AD324B4FF460
:101F5800C8721A803AE563D8CC2B40F0DA815379FD
:101F6800092B7FF641ADDFF8B480D8F8009007F070
:101F780005FF89F80000D8F8009007F0FFFE89F8FF
:101F8800010007F0FBFED8F800306428A8BF6420E1
:101F9800187107F0F3FED8F800306428A8BF642051
:101FA800587107F0EBFED8F80030FF28A8BFFF20D3
:101FB800987107F0E3FED8F80090642828BF6420E1
:101FC80089F8070007F0DAFE89F80200D8F80090CF
:101FD80007F0D4FE89F80300D8F8009007F0DAFE7D
:101FE8003B68A9F80A005B790A2B7FF6EFACD8F8B2
:101FF800007007F0C3FE3872E8E400BF78160020CE
:10200800B80700204E1F00201C1000200000C84206
:1020180000007A44E00B00208C110020841200207C
:10202800CE2B0AD1D84B1B785A073FF5CFACD74AED
:10203800137843F004031370C8E4CF2B40F0698190
:1020480007F0A8FE6FF4AF67C3199BB2C62B9CBFFD
:10205800CF4BA3F8960107F09DFEA4F8400107F0C6
:1020680099FEA4F8420107F095FEA4F8440107F090
:1020780091FEA4F8D80107F081FE07F07FFE07F073
:102088007DFE07F07BFE84F8850107F077FE84F873
:10209800920107F073FEBF4B1F6807F07BFE00EB51
:1020A80080004000A7F85E0007F068FE84F87A0117
:1020B80007F064FE84F87E0107F060FE84F87D0175
:1020C80007F05CFE84F87F0180E4D62B09D1002755
:1020D80007F060FEB04B23F817000137082FF7D13F
:1020E80074E464D8D32B05D107F054FEAB4BA3F8A6
:1020F80098006BE4D42B46D153790F2B7FF474AC42
:1021080007F03CFE072807463FF66EACDFF88482EE
:10211800D8F8009007F03EFE0E235F43B944A9F8B3
:102128002101D8F8009007F035FEB944A9F8230139
:10213800D8F8009007F02EFEB944A9F82501D8F880
:10214800009007F01BFEB94489F82701D8F80090E1
:1021580007F014FEB94489F82801D8F8009007F070
:102168000DFEB94489F82901D8F8009007F006FE59
:10217800B944D8F8008089F82A0107F015FE4744C9
:10218800C7F82B0122E4D22B40F0C3807E4B1B788A
:102198005B073FF51BAC07F0F1FD7D4B022883F888
:1021A800C4067FF6C4AD002283F8C426BFE5EF2B32
:1021B8000DD1784FD7F8008007F0ECFDA8F8620041
:1021C8003F6807F0E7FDA7F86000FFF7FFBB6DD891
:1021D800D82B40F09E800027DFF8B8819FED708AE9
:1021E800D8F8009007F0D6FD07EE900AF8EE677A67
:1021F80009EB8709C7EE887AC9ED087AD8F8009004
:1022080007F0C8FD07EE900AF8EE677A09EB870930
:10221800C7EE887AC9ED0B7AD8F8009007F0BAFDB6
:1022280007EE900AF8EE677A09EB8709C7EE887A15
:102238000137032FC9ED0E7ACED1072FD8F80090B9
:102248001CD107F0A7FD07EE900AF8EE677AC7EEF3
:10225800887AC9ED117AD8F8009007F09BFD07EE4F
:10226800900AF8EE677AC7EE887AC9ED127AD8F83C
:10227800009007F08FFD89F84C0012E007F08AFD06
:10228800B94489F80100D8F8009007F083FDB944F3
:1022980089F80B00D8F8009007F07CFDB94489F85C
:1022A800150001370A2FC8D1FFF790BBF22B29D1AF
:1022B80007F064FD0F2807463FF696AB07F05EFD72
:1022C800334BC7EBC7071F4487F8D00007F056FD0C
:1022D80087F8D10007F052FD87F8D20007F04EFDCD
:1022E80087F8D30007F04AFD87F8D40007F046FDC9
:1022F80087F8D50007F042FD87F8D60009F008FEF8
:10230800FFF764BBFA2B04D11F4B1B785B077FF5E3
:102318000EAD09F053FBFEF795BB0C2804D12148FC
:1023280007F004FE20480EE07F2813D1FEF7C0BA5C
:102338000D283FF40FAB7F2809D1013B1B4A1C48ED
:1023480023600021D15407F0F1FDFEF7B1BA2F2B1D
:102358003EF6AEAAA0F12002D2B25E2A3EF6A8AAA4
:1023680013B920283EF4A4AA5A1C22600F4AD0545C
:1023780007F0D4FDFEF79CBA5A1EA95C202919D192
:102388001346FFF7F3BA00BF4E1F0020FC110020D0
:10239800781600201C10002088120020B8070020A2
:1023A80000007A44BF1B0108BA1B0108E80F00208F
:1023B800E61B0108194A23600021D154184B194D16
:1023C800D3F800A0D5F800B0DFF8509058460CF0CC
:1023D80008FF80464246484659460CF00BFF124A11
:1023E80028B919F8083053445B78580703D01035DA
:1023F8009542E7D307E0954205D208F10100EB6862
:102408004844984702E0094807F090FD0023FFF789
:10241800B0BA27B0BDEC028BBDE8F08FE80F002002
:10242800B800002050020108F0030108CA1B010887
:102438002DE9F04F2DED088B6F4D704B2B60A5B03B
:1024480000236B6008F07BFB18B908F09BFB06F0D3
:10245800ADFC06F069FD6A4A6A4C137843F0010343
:102468001370694B4FF47002C3F888200023079358
:102478000893236843F480332360236803F400330C
:102488000893079B01330793089B1BB9079BB3F578
:10249800A04FF2D1236813F4003318BF0123089327
:1024A800089B012B7ED0DFF86081584BC8F80C30B0
:1024B800636AAB60636ADFF888B1DFF888A1DFF888
:1024C800889143F080736362636943F4FC0324AE2C
:1024D800636103238DF8423041F6FF7326F8503DBF
:1024E8004FF09040314601F025FE4FF6FF735846F5
:1024F8003146ADF8403001F01DFE4548314601F047
:1025080019FE4448314601F015FE4348314601F0B2
:1025180011FE3146414801F00DFE304602F044FB01
:10252800109B3F4AB3FBF2F33E4A13603E4B3F4ACF
:1025380000271F605F603E4B5A60F02288F8232016
:1025480007229F60DFF804811A60D9F80830C8F8BC
:1025580000309AE80300636986E8030043F48023A7
:1025680063610823CBF8183011A9109801F0E2FD37
:10257800642009F0C0FAC8222E4839460CF0EDFD57
:10258800E3692D4A43F00703E361A36943F4205349
:10259800A361636943F4C023636102F1700ECDF84F
:1025A80008A055E0254B12221A60636863606368CF
:1025B8006360636843F480636360636823F47C1337
:1025C8006360636843F4E8136360236843F08073CF
:1025D800236022680B4B9201FBD55A6822F0030254
:1025E8005A605A6842F002025A60636803F00C03AA
:1025F800082BFAD157E700BF60080020A987000818
:102608002C1F00200010024000ED00E00005FA0534
:1026180000080048000C004800100048001400485A
:1026280040420F008C1D0020901D00203F19010022
:1026380010E000E0E41D0020041D01080020024015
:1026480000040048CC01010878160020A4120020DC
:10265800937BD17B03F00700800001FA00FC5168EE
:10266800DB0801EB83034FF00F0A196A0AFA00F03E
:1026780021EA00011962196A10324CEA0101724517
:102688001962E5D10023DFF890A30AF10C020021BA
:1026980099540133072BF6D1FF238AF813308AF8AF
:1026A80014308AF815308AF816308AF81730C84B73
:1026B800C84FC94A1F6001231370C84803930C22EE
:1026C8000CF04BFDC64A99F805B082F800B0C54930
:1026D800D8F80080039BA7F5EF72CAF81820A7F571
:1026E8008F720A60C04A02EBCB0218F0200F5278B2
:1026F800CAF81C2018BFCAF81C300023BB4A40F295
:10270800DC5122F813100133082BF7D13046002191
:102718001C220CF022FDBBF10E0F03D00BF0EF03CF
:10272800082B02D101238DF85230022002F0D4FF89
:1027380018B14088003018BF0120C8F340038DF855
:102748004630C8F380138DF84930C8F340338DF80C
:102758004030C8F3C03300F001008DF8433018F45E
:1027680000638DF8450004D099F884315F1E7B42E0
:102778007B418DF84430C8F300438DF84A30EB694B
:10278800B9F84461ADF85660003318BF01238DF8DD
:102798004B30C8F300538DF84C30B9F84631ADF8DA
:1027A8005030B9F85231ADF84E30C8F380438DF847
:1027B800473099F85431181C18BF012018F4805F6D
:1027C80018BF8B4E8DF84800B9F850011CBFB6F8F9
:1027D8004C61ADF8566008F00101C8F3C002B0F5CD
:1027E800FA7F8DF841108DF84220ADF8540002D9D7
:1027F8000BB9ADF8563099F8D4317E4885F82030B9
:10280800002385F8213043709DF85230002B0CBF0F
:102818000023022301B902B10133029A02EB8307B4
:102828004FF00009BB68A3F1020B0C3303933BF88C
:10283800023F4FF6FF72934200F036811A0A022ACD
:1028480002D19DF8401003E0012A04D19DF84110FF
:10285800002900F02581DFF8ACA19DF84C00DBB21F
:102868004FEA03180AEB0806514630B19DF85200AA
:1028780018B9043B032B40F2FC80012AD0B23BD1AB
:10288800FF2385F8683085F8693001EB08030027D5
:1028980003F10802597B58681B89ADF82C308DF874
:1028A8002E1002230BA985F86C70AE678DF82F30B7
:1028B800029285F82470AF62EF622F636F6685F825
:1028C8006A7085F86B7001F035FC029A5AF80800B6
:1028D80091783A4601F060FB304608F059FF464BC4
:1028E8004649EB67464BC5F88030C5F884703046DA
:1028F8000A1D01F003FAD3E0022845D15FFA89F3F3
:102908004FF01C0A0AFB03F3EF1802933D4B87F8BC
:102918006D90012187F86C1003EB08014FF0000A55
:10292800D1F804C091F80DE08DF82F0001F10802EC
:102938000989ADF82C1060460BA987F86EA087F8B6
:1029480076A0BE678DF82EE00593049201F0F2FBA5
:10295800059B049A53F808009178524601F01CFB35
:10296800304608F015FF2849F9672849C7F880104C
:10297800029B2249C7F884A0194430460A1D01F079
:10298800BDF909F101098BE0032870D19DF84730A2
:102998001F4F002B44D09DF84830DFF8808095F811
:1029A80022A053B11B4BBDF85420B3FBF2F23046C2
:1029B800082192B2BDF8563003E0304608214FF6A0
:1029C800FF7201F0E0FB47F82A00C0F80C8048E0ED
:1029D800BC0F0020661800204E0800205C0D002067
:1029E80044030020281F00201C1E01083C0800206A
:1029F80078160020810800201D3A0008DC08002015
:102A0800FD3A0008041D01089D400008F53900083A
:102A1800B01D002000127A00600800200D3B00085D
:102A2800BDF8542095F82280BDF85630B2F5FA7FEB
:102A38000BD96B49B1FBF2F23046082192B201F092
:102A4800A2FB684B47F828000AE06749B1FBF2F29D
:102A58003046012192B201F096FB644B47F82800FA
:102A6800C36095F82230013385F8223018E0042835
:102A780016D195F82170BDF84E205B4B93FBF2F20E
:102A88003046BDF85030012192B201F07CFB95F838
:102A9800213005EB87070133C7F84C0185F8213051
:102AA800039B9B457FF4C3AE95F8212085F86C21E4
:102AB8004F4A504B1778A7F117020026022A1E70BA
:102AC8009E461AD8AB693344D3ED007AF5EE407AC6
:102AD800F1EE10FA02D1EB6963BB26E0464A06EB39
:102AE800020C0FCB8CE80F009EF800301036013333
:102AF800C02E8EF80030E5D1EDE7404B13F837C013
:102B08008EF800C003EBC703D3F80480B8F1000FB8
:102B1800E1D06645DFDA384A330103EB0209434462
:102B28000FCB013689E80F00F3E7354D2B68DE043B
:102B380024D41DE0334B344A13F83700107003EBEC
:102B4800C7035D68002DF0D000238342EDDAC3EBA4
:102B5800C3016A18DFF8BCC0D2F8008041F80C80C5
:102B680001EB0C069188B1809279B2710133ECE7E0
:102B780007F0EF03082B254B20D121E09EF8002019
:102B8800012AF5D9224B03EB02121032103393427B
:102B9800EED053ED047AB6EE007A67EE877A43ED0D
:102BA800047A53ED057A67EE877A43ED057A53ED9B
:102BB800037A67EE877A43ED037AE7E70E2F08D1A9
:102BC8001A7842F010021A70182F25D109F0A0F9CE
:102BD80022E01A7822F010021A70192FF5E700BFC8
:102BE80000127A001D3B000840420F000D3B000810
:102BF80044030020E01D0020800200201C1E010864
:102C0800A4120020B0040108B41E0020FC1100200A
:102C180088020020B51E002009F05EF92B68BF4F1E
:102C28005D035EBFBE4B01221A703B7843F004037C
:102C38003B70A36943F48053A361E36843F4805372
:102C4800E36063694FF0904543F4003363612B6A96
:102C580023F470032B622B6A43F4A0032B622B6AC4
:102C680023F070632B622B6A43F0A0632B622B6AFC
:102C780023F070432B622B6A43F0A0432B622B6A2C
:102C880023F470232B622B6A43F4A02300262B62C3
:102C98004FF00209E0234FF0030A284609A94FF034
:102CA800100B4FF0010809938DF828908DF829A092
:102CB8008DF82A608DF82B6002F0E4F8284609A9FF
:102CC800CDF824B08DF828808DF829A08DF82A60D9
:102CD8008DF82B6002F0D6F8E368924D43F48053E8
:102CE800E360E36823F48053E3604FF400734FF428
:102CF800827C4FF4E062ADF836304FF00703ADF850
:102D08002EC0ADF83020ADF82C60ADF83A60ADF8C3
:102D18003C30ADF83290ADF83480ADF838B0AB88BF
:102D2800CDF810C023F4805303FA0BF323FA0BF306
:102D38000392AB80AB889BB243F48053AB802846A8
:102D48000BA901F053FE2B889BB243F040032B8064
:102D5800E369754D43F48043E361236943F4804399
:102D68002361636943F4802363616B6A23F470030E
:102D78006B626B6A43F4A0036B626B6A23F0706347
:102D88006B626B6A43F0A0636B626B6A23F07043FB
:102D98006B626B6A43F0A0436B626B6A23F4702327
:102DA8006B626B6A43F4A0236B6228464FF460435E
:102DB80009A909938DF828908DF829A08DF82A6023
:102DC8008DF82B6002F05EF84FF48053284609A96D
:102DD800099302938DF828808DF829A08DF82A6030
:102DE8008DF82B6002F04EF82169039ADDF810C0C7
:102DF80041F48041216121694FF4007321F480413D
:102E080021614A4CADF836304FF00703ADF83C303D
:102E1800ADF82C60ADF82EC0ADF83020ADF832908A
:102E2800ADF83480ADF838B0ADF83A60A28822F435
:102E3800805202FA0BF222FA0BF2A280A28892B216
:102E480042F48052A28020460BA901F0CFFD2288CF
:102E5800029B92B242F040022280354CAB61B4F83A
:102E68005831002B40F0B584B4F95A21002A40F0BB
:102E7800B084B4F95C21002A40F0AB84DFF8C48048
:102E88002C48D8F800302C4DB3F85E9094F85F6168
:102E980000210C220CF061F90021142227480CF0C3
:102EA8005CF9002185F86D1185F86E110C2205F585
:102EB800B8700CF052F9224BC5F87C31232008F089
:102EC8001AFE184A138823F040031B041B0C1380B6
:102ED800138823F038031B041B0C43F030031380C2
:102EE80013889BB243F0400313806B20802104F0C9
:102EF800E3FA4FF0060A962008F0FDFD752001213F
:102F08000BAA04F0BFFA9DF82C30682B1CD00AF1EC
:102F1800FF3A1AF0FF0AEED130E000BF2C1F002064
:102F2800B00700200030014000040048003800408D
:102F3800781600201813002060080020F4100020E4
:102F4800E40101081C1000200C2001210BAA04F048
:102F580099FA9DF82C30142B10D3182B02D9543B16
:102F6800062B0BD8032385F86D31432385F8703180
:102F78004B4BC5F874314B4BC5F878314A4B00229E
:102F88001A7095F86D21032A9A461AD1474B484A78
:102F98001A60484A5A60484ADA60484A1A61DFF8B3
:102FA80044E104228AF8002006228EF80020444AD0
:102FB800106840F001011160934631461E46734681
:102FC80003E0012008F0A1FD90E00A298E464FF0A9
:102FD800010228BF4FF0000E02FA0EF240F2023151
:102FE800114089B912F0FD0F0ED0364A36491160EA
:102FF80036495160364A0421117040F00300072217
:103008005A70CBF8000006E0BEF1010F4FF0000146
:10301800DBD82F4B1970DBF80030980702D5294B05
:103028001B6898472B4B00224FF47A7185F8802152
:103038001960BC20336802929847274B029A1A708D
:1030480094F855210AB18AF8002094F856210AB15B
:103058001F490A7094F8572102B11A70DBF8003042
:103068001E4913F0080F3FD00FFA89F9642299FB23
:10307800F2F302FB139212B207EE902AB8EEE77A47
:1030880007EE903ADFED166AF8EEE77AE7EE267A71
:10309800B2EE047A67EE877AC1ED007A26E000BFC7
:1030A8008D740008C174000808110020F410002075
:1030B80015760008C9730008AD73000890C1793D02
:1030C800141300201813002001760008117400085A
:1030D8004D1F0020641000204A1F0020F41100201A
:1030E8008988883CB000002000230B603B7843F0BF
:1030F80002033B70AA4B08229A610A26A84FBB8A92
:103108009BB283F00803BB82192008F0F4FC013E4F
:10311800192008F0F0FC16F0FF06EFD10823BB6178
:10312800A04B9FEDA18A1B689FEDA00A1B7BA04FB7
:1031380007EE903AF8EEE77AA7EE880A05F083FDE5
:103148009C4B9FED9D7A83ED000A9C4BD3ED047A4E
:103158009B4B67EE887AC3ED007A9A4B1B8807EE83
:10316800903AF8EEE77AC7EE277A9FED977AC7EE9E
:10317800877AC5ED617A04F0E1FDFF211B2238460C
:103188000BF0EBFF914A924B12683E70012112F04E
:10319800020F19701FBF797003211970022118BF1F
:1031A800B970510741BF19784E1C1E70032648BFDD
:1031B8007E5412F00A0F38460CD01A780421B954FC
:1031C800511CC9B205267E54D11C0232D2B21970E4
:1031D8000621B9547F4A11688A0641BF1A78561CDD
:1031E8001E70072648BF86546679082E01D00E2E19
:1031F80004D11A78571C1F700B2787541A7811F0BE
:10320800040F4FF00C0E00F802E002F101071CBF9A
:10321800DFF8BCE10232FFB21F701FBF8EF800203A
:10322800634A4FF0100E02F807E01A78571CFFB2F5
:103238004FF0120E11F4806F1F7000F802E00ED0EC
:1032480094F8F8E1BEF1000F09D0DFF884E102320A
:103258008EF80020564A4FF0130E02F807E08F054B
:1032680041BF1A78571C1F70152748BF8754182E5E
:103278000DD11A7816278754571CFFB24FF0170E36
:1032880000F807E0D71C0232D2B21F7086540E0332
:1032980041BF1A78561C1E70192648BF8654CA05A5
:1032A80041BF1A78511C19701A2148BF81541A78E5
:1032B800511C1970142383540021982246480BF09E
:1032C8004CFF08F09FFA454B454946481960464B64
:1032D800B4F84E21016045491A800023444AD8F8C1
:1032E80000700B70B4F89611138093701FFA81FC6C
:1032F80007F181023F4E40483668DFF804E120F8C4
:1033080013C006F596764EF823600133122BF1D1DF
:10331800304ED6F800E01EF4805F08BFB4F89CC1B8
:10332800A0F806C0D1371378F3B992F802C0D37861
:103338009C4519D2BCF1000F08D00CF1FF3C0CEBF6
:103348008C0C0CEB8C0C0CF5617306E0013303EB71
:10335800830303EB830303F5617392F801C00CF157
:10336800040C9BB220F81C300432BA42DBD11EF0A8
:10337800080F00F0EE8094F89031062B00F2E380FD
:10338800DFE803F004074067819F9F0045F2F05291
:1033980001E042F6F822194B1A8008F0CEFAD1E083
:1033A80000040048C011002035FA8E3CDB0FC93FED
:1033B80021080020F81100200AE81C41F410002020
:1033C800E41100204C00002000401C46141300208B
:1033D80020080020A4120020E01500201002002080
:1033E80000180020A0120020140200206301002011
:1033F800D8120020D4120020A8120020D0070020E4
:10340800AC010020B14B42F6F8221A8009010A23C8
:1034180091FBF3F10023A1F5B061AD4A42F8231006
:103428000133122BF9D1AB4AAB491160AB4A4020AA
:10343800137002F00BFA002800F0858001234FF08A
:10344800070E90F90000A64A8DE808404021A54BD8
:1034580073E09E4B42F6F8221A809E4BA24A1A60ED
:103468009E4B102240201A7002F0F0F900286AD012
:103478000123002790F900009C4A8DE8880040212C
:103488004FF4E13359E0914B42F6F8221A80914B00
:10349800974A1A60914B082240201A7002F0D6F918
:1034A800002850D00121002390F90000914A8DE8AE
:1034B8000A0040214FF4E13301F0E4FFC5F8880128
:1034C8003DE0824ADFF870C2DFF870E28A4F8B482D
:1034D80042F6F821118081490C22062B0A700FD080
:1034E80000233B708CF800308EF800301B230370EB
:1034F800834B1A70834B05221A704FF4E1370CE0A6
:10350800002139708CF800108EF80010212101700C
:103518007B497D4F0A707B4A13706E4B7B4A1A6059
:10352800402002F093F970B10122002390F90000C5
:103538008DE80C00764A40213B4601F0A3FF00309D
:1035480018BF012028B9082005F0FEFB614B714A1D
:103558001A603268614B12F4804F1FBF1221197034
:103568005C496D4818BF086042F20101114002F041
:10357800010002F4005779B1544A44F620611180E1
:1035880027B108221A70534A6449116020B10C22ED
:103598001A70504A624911601A78DFF8A481043A17
:1035A8005A70B8F8003023F040031B041B0CA8F82D
:1035B8000030B8F8003023F038031B041B0CA8F8BF
:1035C8000030B8F800309BB243F04003A8F8003050
:1035D80000279F2332208DF824308DF825708DF830
:1035E80026708DF8277008F086FA8DF82D704D4FEB
:1035F8004FF4805909AA0423A7F8289040460BA93C
:1036080000F0D2FEC7F818909DF82E209DF82D30B6
:10361800120242EA03429DF82F301A43424B9A4263
:10362800424B17D008D842498A420CD001F51A41BA
:1036380002318A4209D01BE03E498A4205D0013155
:103648008A4207D014E0202200E080221A804FF43A
:10365800807202E04FF480721A805A809A88198822
:1036680012029A604A43DA60012285F88C2104E04C
:1036780000221A805A809A60DA60DB68002B61D0D9
:103688004FEAD328C1464FF0000AC24509DA0AEBCF
:1036980008077F10F8020BA9102204F0C5F90F28BB
:1036A80006DC03F075F94FEAC923C5F8903149E003
:1036B80000230BAA52F82320013240F08680013300
:1036C800042BF6D1B846B946DFE700BFD007002083
:1036D800980B0020A80000202D460008741D00202B
:1036E80089480008A086010019460008DD4700083F
:1036F80001460008914700080C0C00200E0C002021
:10370800230B00200F0C002090D003001D4500085B
:1037180071460008399A0008614600082D9A000889
:10372800219A00080004004818BA20003800002038
:10373800152020001740EF00240B00200D0C00205E
:103748000038004033685B4A13F4002318BF012394
:10375800137008F0A9F9584B18606379052B02BF5C
:10376800564B4FF4C8721A80554B4FF47A721A8030
:10377800544A137843F008031370534A137823F01C
:1037880002031370326840F6020313406BB14F4BCB
:103798004F4A1A604F4B03221A704F4B01221A707E
:1037A8004E4A002313804E4A13804E4B9B68336069
:1037B8004D4B01221A704D4A137863F07F03137042
:1037C80025B0BDEC088BBDE8F08F07F1010A4F4624
:1037D80079E71BB208EE103AB4F95A31DFED447AB2
:1037E800DFED449A444A09EE103AB4F95C31B8EE78
:1037F800C88A08EE903A28EE278AB8EEC99AF8EEF9
:10380800E88A002138EE290A29EE279A68EEA78A65
:10381800117005F018FAB0EE40AAB0EE480A05F0AB
:1038280012FAB0EE40BA39EE290A05F00CFAF0EEB9
:1038380040AAB0EE490A05F006FAB0EE409A38EE12
:10384800A90A05F000FAB0EE408AB0EE680A05F061
:10385800FAF960EE0A6A6BEE087AF0EE665AE7EE5D
:10386800895A264B28EE0A6A2BEE007A2AEEC00AFD
:10387800C3ED035AF0EE465AE7EE495A83ED010AC2
:10388800A6EE497A2BEE6A0AE6EE897A28EE2A8AAB
:1038980083ED050A2AEE8A0A83ED008A83ED029AEF
:1038A800C3ED045A83ED067AC3ED077A83ED080A5F
:1038B800FFF7E4BA6F130020580200208C11002093
:1038C800481F0020FC1100204E1F0020C80C0020BB
:1038D800F217002010130020B4000020F807002081
:1038E800FA07002078160020B00700202C1F0020BF
:1038F80035FA8E3CDB0FC93F34000020A40C0020B1
:10390800026BC168034610B5406942B11A6C8C1A43
:10391800013A005D08BF0A46C0B21A6410BD1A6AAF
:10392800805C01328A4228BF0022C0B21A6210BDF0
:10393800436B13B190F844007047836A406A1B1ABE
:10394800584258417047426A816A03698A4238BFBF
:10395800D218521A416B21B149680A44591E8A4249
:1039680003D2013B981AC0B2704700207047036B1E
:1039780013B15B68016C01E0C369016A8B423CBF0B
:10398800C2689B18581AC0B27047836A8169426B33
:103998001944D160416A99429DBF0169CB1A5360AD
:1039A800CB1A96BF0023536083624FF0000380F860
:1039B8004430136888BF816243F001031360704785
:1039C800436A8269D154436A02690133934228BF2A
:1039D80000234362436B1BB11B68DB0705D4D4E7A4
:1039E800026D136843F080031360704710F80A3CB7
:1039F8000133DBB20A2B84BF10F8131C044A00F809
:103A08000A3C82BF002322F8113000F80A3C7047B4
:103A180068120020334A136C90681944081A40F65B
:103A28008C23984270B513469160D06051603BD9A1
:103A3800127893F945108A4210460BD1111F0829B4
:103A480008D893F84610182901D8013103E083F803
:103A5800442002E0002183F8461093F944402149AC
:103A6800A24219D191F84740B4B10C3100249442D4
:103A780006DA1D4D51F8046F25F814600134F6E795
:103A88000C2805D01849002421F810400130F7E728
:103A9800164801780131017083F845200022012180
:103AA8001A7083F8471070BD92F84710C9B1A0F298
:103AB800EF2440F2DA518C4208D811780B2905D846
:103AC8000B1D0131117042F8230070BD002283F8EC
:103AD8004720074B03F13002002143F8041F9342AB
:103AE800FAD170BD8408002068120020320100203D
:103AF80090080020024A136C01331944116470477E
:103B080084080020024B53F820301B681960704766
:103B1800B01D0020064B53F820301A681B89A1F508
:103B28007A7159434FF47A7391FBF3F1116070473E
:103B3800B01D00200B4B984201D10B4A03E00B4B00
:103B4800984207D10A4A138801339BB213804FF079
:103B5800FF307047074A138801339BB213801088DF
:103B680080B27047003001403C100020003800400F
:103B78003E100020F40900202DE9F0410369C768D0
:103B880005460E461F40002F35D0B7FA87F24FF092
:103B98000043D340DB432B611F40A2F11B03042BDE
:103BA800F1D8DFE803F0221F1C190300746A24B15E
:103BB800013C0023A4B2736201E0EC6AA4B2D6F817
:103BC8002080B8F1000FDED0D8F8003040462146FA
:103BD8009847D8F80480F4E73068696B07E07068A4
:103BE800A96B04E0B068E96B01E0F068296C036830
:103BF80089B29847C7E7BDE8F081234B10B5234C3D
:103C08005A43234BB3FBF2F203880139013AA0422D
:103C180089B292B29BB20ED004F50064A0420AD0D9
:103C2800B0F1804F07D0A4F59834A04203D004F532
:103C38008064A04202D123F070039BB2154CA042CD
:103C480006D004F58064A0421CBF23F440739BB2E5
:103C580003800E4BC162984202850FD003F50063C2
:103C680098420BD003F54063984207D003F5806370
:103C7800984203D003F58063984201D1002303865C
:103C88000123436110BD00BF40420F00002C0140DA
:103C980000A24A040010004007B501238DF8040073
:103CA800002201A88DF805308DF806208DF8073020
:103CB80007F050FD03B05DF804FB0E4B800A9842F4
:103CC80012D007D8B0F5801F0CD0013B98420DD117
:103CD80002207047084B98420AD00233984205D117
:103CE800042070470120704703207047FE2070476A
:103CF80000207047020010004B001000F8B504685F
:103D0800064620460F461546FFF7D7FF04284BD82E
:103D1800B27A910847B902238B40D4F80CE0DB4310
:103D28009BB203EA0E03E3600A23204A03FB001355
:103D380042F82370043342F8235015463FB1B17A54
:103D4800E268890802238B409BB21343E360282270
:103D580002FB00522032EFF31286502383F31288BD
:103D680003B203EB8303DB0003F10C011C3329448A
:103D78002B4451F8047F17B117600A68043299423E
:103D8800F7D100231360F3B283F31188282303FBD0
:103D98000050036A1BB1E36843F0010303E0E268E3
:103DA8004FF6FE731340E360F8BD00BFE41D00202A
:103DB800F8B51C4C226D236BD5699BB9A90611D5A2
:103DC800E36A1BB1908C80B298470BE0E169928C52
:103DD80060694E1CD2B2E6614254E169E2689142E0
:103DE80028BFE361616B0F4BA9B92A0613D59A6AFC
:103DF800586A82420AD0561C9F699E62186DBA5C46
:103E080002851A69964206D3996204E01A6D13680E
:103E180023F0800313602B0742BF236D08221A6228
:103E2800F8BD00BF680D00200C4B0D484FF4005240
:103E38005A600C4A11684FF6FE730B401360426BD0
:103E480011684FF6FE730B401360426A836A9A4208
:103E580000D09AE5012380F8443070470000024002
:103E6800680D002044000240F0B5046D86682368A0
:103E780023F0010323608379054613F0020F40798C
:103E88000CBF4FF0000E4FF4005E13F0040F14BF88
:103E98004FF48067002710F0010F14BF04210021A0
:103EA8008307206820F001002060626822F44052F5
:103EB8004EEA02026260226822F4B05323F00C0337
:103EC80048BF41F008013B430B432360A36895B00A
:103ED80023F44073A360684600F066FE284B9C42BA
:103EE80001D10C9B0EE0274B9C4201D10D9B09E0B0
:103EF800254B9C4201D10E9B04E0244B9C420CBFF5
:103F08000F9B109B2268A879170448BF5B00B3FB7E
:103F1800F6F206FB1233B3EB560F236828BF0132C3
:103F28001E0441BF4FF6F073C2F34201134041EA49
:103F380003026B7992B213F0020FA28100F0010123
:103F480014BF4FF400320022DC0748BF42F480322D
:103F58002B6D11B159680A4302E0596821EA02023F
:103F68005A609A6801074CBF42F0080222F0080222
:103F78009A601A6842F001021A6015B0F0BD00BFDD
:103F8800003801400044004000480040004C004018
:103F9800417169E7816067E73D4B1B78012B30B5BC
:103FA80014BF00240324B1B9036A23F00103036298
:103FB8008169036A21F0F30123F00A0341F001014A
:103FC80042F001021A4341EA0411816102628369E5
:103FD80023F00C031BE004291DD1016A4FF6EF738F
:103FE8000B4003628169056A120121F473414FF69F
:103FF8005F7342F0100241F480712B4092B2134378
:1040080041EA043181610362836923F44063836177
:104018008369836130BD0829016A1AD14FF6FF63AD
:104028000B400362C169036A9BB289B223F420631F
:1040380043F4807321F0F30143EA022241F00101C5
:1040480092B241EA0411C1610262C2694FF6F37388
:1040580019E04EF6FF730B400362C369056A40F628
:10406800FF41194045F6FF732B4043F4805343EA60
:10407800023241F4807192B241EA0431C1610262B4
:10408800C2694FF2FF331340C361C369C36130BDD6
:104098008008002038B510F80E2C50F8043C04466F
:1040A80052B9012200F80E2C20F80C1C997A1868D5
:1040B8000222BDE838406FE730F80C2C20F80A1CC3
:1040C800891A89B220F8081C074A10F80F0C002535
:1040D80022F8101004F80E5C1868997A2A46FFF73F
:1040E8005BFF04F8065C38BD68120020044B53F8E7
:1040F80020301BB107289CBF1B681960704700BFA0
:10410800AC090020084A13689B050BD5074B002112
:104118001970074908684FF6FE7303400B604FF4A7
:1041280000735360704700BF000002404B1F00201F
:104138003000024073B506460D46002401232A8844
:10414800A34013421AD0AA78009302F003038DF813
:104158000430EB78022B03D0032B0CBF032301237D
:104168008DF805303046C2F301136946C2F3810267
:104178008DF806308DF8072000F084FE0134102CED
:10418800DCD102B070BD2DE9F743DFF8149299F83D
:10419800024005468E460068114616469846724605
:1041A800631C89F80230FFF728FD2B89ADF804302D
:1041B80001A9022368688DF806308DF80730FFF7EB
:1041C800B9FFAB7A2A6809F1040724012744494654
:1041D8000C2B00F2B780DFE803F007B5B5B53EB5A4
:1041E800B5B56AB5B5B59300136ADFF8B8C123F061
:1041F80001031362136AD2F804E0906920F4803056
:1042080020F07300624540F0700012D00CF5006C8D
:1042180062450ED00CF5406C62450AD00CF5806CF6
:10422800624506D00CF5806C624502D043F003036A
:1042380007E023F00E032EF4407E43F003034EF410
:10424800807EC2F804E09061C2F8348013629369FA
:1042580043F0080329E0136ADFF848C123F010038C
:104268001362136AD2F804E0906920F0807020F499
:10427800E640624540F4E04006D00CF5006C62452B
:1042880002D043F0300307E023F0E0032EF4406E41
:1042980043F030034EF4806EC2F804E09061C2F837
:1042A80038801362936943F4006393614AE0136AA8
:1042B800DFF8F0C023F480731362106AD2F804E0C8
:1042C800D369624523F0730343F0700306D00CF5FD
:1042D800006C624502D040F4407007E020F4606052
:1042E8002EF4405E40F440704EF4805EC2F804E064
:1042F800D361C2F83C801062D36943F0080320E020
:10430800136ADFF8A0C023F480531362106AD2F84E
:1043180004E0D369624523F4E64343F4E04340F400
:10432800405003D00CF5006C624501D14EF4804E2C
:10433800C2F804E0D361C2F840801062D36943F444
:104348000063D3612B7B1BB1536C43F4004353646C
:1043580013889BB243F001031380AB7A0C2B18D857
:10436800DFE803F0071717170B1717170F1717179B
:1043780013000B1902F134000AE00B1902F138009E
:1043880006E00B1902F13C0002E00B1902F14000B3
:1043980058600C443846A681A26003B0BDE8F0839B
:1043A800F4090020002C014070B584894FF47A7418
:1043B800F3B112B11578013207E0FF2505E0013CA1
:1043C800A4B24FF6FF76B4420CD00689B607F6D5EC
:1043D80005730589ED070DD4013CA4B24FF6FF75AE
:1043E800AC42F6D1FFF7A6FB003018BF012070BD24
:1043F800012070BD057B09B10D700131013BD7E784
:1044080008B540F2E9330289920704D4013B9BB214
:10441800002BF8D109E0017340F2E9330289D20791
:1044280006D4013B9BB2002BF8D1FFF783FB00E0D9
:10443800007BC0B208BD00BF10B5214A18B9136887
:1044480002221A8210BD1F481468002303802178B5
:1044580011F07F0102460DD1637A990644BF02210B
:10446800017013F0400F037814BF43F0010323F0E9
:10447800010315E0012921D002291ED1637913F027
:10448800800F03F00F034FEA830303F1804303F522
:10449800B8431B6806D003F03003102B07D1012363
:1044A800137004E003F44053B3F5805FF6E7064B5E
:1044B8001B681B699847034810BD184610BD00BF0C
:1044C80090150020E80A00205812002010B5064C6C
:1044D80018B9236801221A8210BD044B1B689B6817
:1044E800984720680C3010BD901500205812002005
:1044F80010B5064C18B9236801221A8210BD044B66
:104508001B681B68984720680A3010BD901500206A
:104518005812002003788B4283BF034B03EB410101
:1045280048880020704700BFE80A002070B50022C4
:104538001346244914180C44A47E83EA042308244F
:1045480013F4004F4FEA430318BF83F4815304F177
:10455800FF3418BF83F0010314F0FF049BB2EFD1BE
:104568000132192AE5D100F1190200F11A050A44AD
:104578000D44967EAA7E02EB062292B29A421FD181
:10458800104B93F83B50E2B2AA4216D2431C03EBFD
:104598004203DBB2CA1801330B44927E9B7E03EBC5
:1045A80002239BB24FF4AF6253431B13064A03F531
:1045B800487322F814300134E5E7012381F83C30D0
:1045C80070BD00BFE80A0020EA0A002003788B4289
:1045D8000BD9074B1A78074B89001944086C02B1AC
:1045E800400800F5777080B270470020704700BF20
:1045F800781D0020E80A002007299DBF034B03EB24
:104608008101B1F870000020704700BFE80A00205F
:10461800034B03EB4101B1F89000C008704700BF9D
:10462800E80A00200A4BDFED0B7A03EB810191EDDC
:104638002C7AB8EE477AF6EE046AE7EE267A82B06C
:10464800FCEEE77ACDED017ABDF8040002B07047C0
:10465800E80A002000005C44024B03EB4101B1F87A
:10466800F8007047E80A002070B5334C054607F09B
:104678001BFAD4F81C31C4F81C01C31AB3F5FA5F4D
:10468800C4F8203182BF002384F8243184F825310E
:1046980094F824312BB9A12D02BF274A012182F8B1
:1046A800251194F82511244A29B1D118EDB2013306
:1046B8008D7682F8243194F8245194F82631AB424F
:1046C80039D11D4B93F82731052B02D0062B03D087
:1046D8002CE00020FFF72AFFE37E1E2B26D10020C6
:1046E8000246C1B26B1E994219DA21448B7E082119
:1046F800DBB283EA0206F60744BF83F01803C3F36C
:10470800460301F1FF3154BF5B0843F0800311F009
:10471800FF01C2F34702ECD101301A46E1E7234416
:104728009B7E9A4202D10320FFF700FF002384F802
:10473800253184F8243170BDE80A002010B50446FC
:1047480007F0B2F90F4BD3F82821C3F82801821AD1
:1047580041F288318A42C3F82C2184BF002283F8B1
:10476800302193F83021074913440F2AE4B218BFC7
:10477800013283F8314112BF81F83021012381F8D9
:10478800413110BDE80A002010B5044607F08CF945
:104798000F4BD3F84421C3F84401821A41F28831FF
:1047A8008A42C3F8482184BF002283F84C2193F839
:1047B8004C2107491344142A18BF013283F84D418C
:1047C80012BF81F84C21012381F8623110BD00BF6E
:1047D800E80A002038B5044607F066F9274A274951
:1047E800D2F86431C2F86401C31AB3F57A6F84BF92
:1047F800002382F8683192F8683133B9A82C3BD18C
:1048080081F86931A1F86A3106E0022B02D181F8FA
:104818006C4101E0242B02D8D11881F86D4192F83F
:104828006C11164D01330231DBB249008B4282F81C
:10483800683118DAB5F86A31E0B283EA0020082353
:1048480010F4004F4FEA400018BF80F4815003F184
:10485800FF3318BF80F0010013F0FF0380B2EFD1DF
:10486800A2F86A0138BD01318B4201BF002385F8E7
:104878006831012385F8693138BD00BFE80A002096
:1048880010B5044607F010F9104AD2F8943140F6F2
:10489800AC51C31A8B42C4BF002382F8983192F8F6
:1048A8009831D11881F8994123B90F2C0DD10749B6
:1048B800C1F894010133DBB2192B044982F898310D
:1048C8000CBF0123002381F8B23110BDE80A002093
:1048D80008B50020402104F0DEFC094B1B68187A5B
:1048E800082801BF074B4FF480521A80064B04BFBB
:1048F80010221A80A0F109035842584108BD00BF90
:10490800901500205412002056120020314B2DE93A
:10491800F0411C68228A267AB2B9042E14D12E4D91
:104928002E482B78012B0BD12D4B19682D4B89B2B2
:104938000B445B0019681A60302303802A7045E035
:1049480010230380072641E0A58AA369AA4294BFE1
:1049580004260226954228BF1546AFB23846984726
:104968001F4A13689BB203F1005303F540535B00E1
:1049780005F1010E1B689BB203F1005303F5405388
:104988004FEA6E0E5B000021714500F1020009D06C
:1049980010F8018C10F802CC4CEA082C23F821C03E
:1049A8000131F1E712680F4B92B213445B001A68A9
:1049B8001D60238ADB1B2382638A1F44074B67829F
:1049C80030221A80084B4FF440521A802672BDE8F4
:1049D800F08100BF901500204F1F002056120020C4
:1049E800505C004002300020541200202DE9F041B4
:1049F8004D880E88CB880C894A89B1F80C80B1F8AB
:104A08000EE08F88B5F5827F1BD11E4346F482766F
:104A180046EA0405B0F800C045EA020444EA080280
:104A280042EA0E030CF4415C4CEA03039BB2038098
:104A3800828822F470631B041B0C3B439BB2838067
:104A48001CE0B0F804C02CF4706C4FEA0C4C4FEA30
:104A58001C4C4CEA07072E43BFB2334387802343DD
:104A68000788134343EA080307F4415743EA0E0350
:104A780047EA030E1FFA8EFEA0F800E0838B23F4AA
:104A880000631B041B0C83830B8A0382BDE8F0813F
:104A9800084BDA68D10709D4DA68D20608D4DB688B
:104AA80013F0040F14BF032004207047012070473F
:104AB800022070470020024002684FF6FE73134040
:104AC80003600023036043608360C360284B9842FF
:104AD80001D1284A27E0284B984201D1254A2AE0EB
:104AE800264B984201D1234A2DE0254B984201D10B
:104AF800204A30E0234B984201D11E4A33E0224B32
:104B0800984204D11B4A536843F470032EE01F4BAC
:104B1800984204D1174A536843F0706326E01C4B4F
:104B2800984204D11B4A536843F00F031EE01A4B06
:104B3800984204D1174A536843F0F00316E0174B24
:104B4800984204D1134A536843F470630EE0144B3F
:104B5800984204D10F4A536843F4704306E0114B5E
:104B6800984204D10B4A536843F47023536070474A
:104B780008000240000002401C00024030000240D1
:104B880044000240580002406C000240800002408D
:104B980008040240000402401C04024030040240A1
:104BA8004404024058040240994A536803F00C0335
:104BB800042B2DE9F04105D0082B06D0954901605A
:104BC800B3B916E0934B036012E053685468C3F31B
:104BD8008343991CE30349BFD36A8F4B8D4C03F081
:104BE8000F0344BF0133B4FBF3F34B43036000E00E
:104BF80000235168894FC1F303117D5C0168EDB250
:104C080021FA05F444605668C6F30226BE5D24FA0C
:104C180006FEC0F808E05668C6F3C226BE5DF6B2C6
:104C2800F440C460D2F82C80C8F3041808F00F0CC4
:104C380007EB4C0C18F0100FBCF810C01FFA8CFCD6
:104C480007D0BCF1000F04D0B3FBFCFCC0F810C0C7
:104C580000E00161D2F82CC0CCF3442C0CF00F0812
:104C680007EB48071CF0100F3F8ABFB204D01FB1F2
:104C7800B3FBF7F7476100E04161176BFF065ABFC6
:104C8800644F87618161176BBF065ABF614FC76167
:104C9800C161176B7F065ABF5E4F07620162176BCF
:104CA800FF0506D5994204D1AE4202D14F004762B2
:104CB80000E04462176BFF0406D5994204D1AE4266
:104CC80002D14F00876200E08462176BBF0506D5EA
:104CD800994204D1AE4202D14F00C76200E0C462DB
:104CE800176B7F0506D5994204D1AE4202D14F0019
:104CF800476400E04464176B3F0506D5994204D128
:104D0800AE4202D14F00876400E08464176BBF0491
:104D180006D5994204D1AE4202D14B00C36400E0EB
:104D28008464156B3A4BAD0701D1046315E01C6B25
:104D380004F00304012C01D101630EE01C6B04F0A4
:104D48000304022C02D14FF4004305E01B6B03F06F
:104D58000303032B01D12F4B0363146B2C4B14F467
:104D6800403F02D1C0F834E018E01C6B04F4403432
:104D7800B4F5803F01D1416310E01C6B04F440346A
:104D8800B4F5003F02D14FF4004306E01B6B03F477
:104D98004033B3F5403F01D11E4B4363146B1C4BAA
:104DA80014F4402F02D1C0F838E018E01C6B04F46A
:104DB8004024B4F5802F01D1816310E01C6B04F40A
:104DC8004024B4F5002F02D14FF4004306E01B6BDA
:104DD80003F44023B3F5402F01D10E4B8363146BCA
:104DE8000B4B14F4401F02D1C0F83CE020E01C6BD0
:104DF80004F44014B4F5801F01D1C16318E01C6BA2
:104E080004F44014B4F5001F0AD14FF400430EE037
:104E18000010024000127A0000093D000400002042
:104E28001B6B03F44013B3F5401F01D1134BC3634D
:104E3800126B134B12F4400F03D1C0F840E0BDE8E9
:104E4800F0811A6B02F44002B2F5800F02D10164BE
:104E5800BDE8F0811A6B02F44002B2F5000F02D1EE
:104E68004FF4004306E01B6B03F44003B3F5400F17
:104E780001D1024B0364BDE8F08100BF00127A0043
:104E880000100240F0B500230E681C460125A5401D
:104E980005EA060EAE452BD10F797A1E012A15D8E0
:104EA800856803229A4025EA020282604D79826869
:104EB8009D4015438560828892B222EA0E02828064
:104EC8008A798588A2402A4392B2828003220568A3
:104ED8009A40D2431540056005689F402F430760FC
:104EE800C7681740CA7902FA03F547EA0502C260A3
:104EF8000134102C03F10203C8D1F0BD38B52DEDF3
:104F0800048B4A4C0368C4F8B4318388A4F8B831D8
:104F1800023A0D46062A05D8DFE802F00A101822E0
:104F2800292F3500B4F8B4310B80B4F8B63113E04A
:104F3800B4F8B6310B80B4F8B43105E0B4F8B43144
:104F48005B420B80B4F8B6315B4205E0B4F8B63189
:104F58005B420B80B4F8B4316B80B4F8B8311DE013
:104F6800B4F8B4315B420B80B4F8B63112E0B4F84F
:104F7800B6310B80B4F8B4310CE0B4F8B4310B801E
:104F8800B4F8B63105E0B4F8B6315B420B80B4F83A
:104F9800B4315B426B80B4F8B8315B42AB80244BD0
:104FA80093F83030002B3ED1B5F9003094ED720AF9
:104FB800D4ED6F7A09EE103AB5F9023008EE103ADE
:104FC800B8EEC88AB5F90430B8EEC99A28EE000AD6
:104FD80008EE903AA7EE890AF8EEE88AD4ED757AD9
:104FE800A7EEA80A0AF0C8FA94ED730AD4ED707A0D
:104FF800288028EE000AA7EE890AD4ED767AA7EE73
:10500800A80A0AF0B9FA94ED740AD4ED717A6880A6
:1050180028EE000AA7EE890AD4ED777AA7EEA80A47
:105028000AF0AAFAA880BDEC048B38BDE80A002073
:1050380004000020094BD3F8E021137844F6FB71F3
:1050480003EB431300FB03135078C0EB0030B3FBB2
:10505800F0F39078B3FBF0F080B27047E80A0020D4
:1050680010B5074C00210A2204F5F470A4F8E411E5
:1050780006F0A4FD80B2FFF7DDFFA4F8700210BDB2
:10508800E80A0020F8B504460E46174600252046D3
:1050980020210AF098F80446D0B1013420460AF0DD
:1050A800F7F8B0F5617F05DB40F634039842A8BFF6
:1050B800184601E04FF46170A0F56170192390FB68
:1050C800F3F00DB9307000E070703B7801333B703D
:1050D8000DB90125DBE72046F8BD7FB50478064603
:1050E800E4B9364B1B6803EB8403192193F883005A
:1050F80093F8846093F8812093F882304FF46175B7
:1051080011FB005011FB0651009001912C482146DB
:10511800013403F06AFD142CE3D14CE00AF0B8F82E
:105128001328054641DC254B701C1C6820210023F0
:105138008DF80F300AF047F82035064670B1013671
:1051480030460AF0A5F81A289FBF04EB850358706B
:105158009DF80F30013398BF8DF80F30304620216D
:105168000AF031F8064670B1013630460AF090F878
:105178000D289FBF04EB850398709DF80F3001330D
:1051880098BF8DF80F3004EB85043046E11C0DF113
:105198000F02FFF777FF9DF80F30042B0BD0601C30
:1051A8000021042209F0D9FF05E00648064900223B
:1051B800132303F01AFD04B070BD00BF1C100020BB
:1051C800741D0108891D0108A81D0108014804F083
:1051D800ADBE00BFAE1D0108F0B5047887B0064625
:1051E8001CBB524B1968062303FB0411192091F8C4
:1051F800D25091F8D37091F8D62091F8D1304FF46D
:10520800617610FB056510FB07600095019091F829
:10521800D4000290D031464849790391214601349F
:1052280003F0E3FC0C2CDCD17DE00AF031F80B280C
:10523800044672DC3D4B701C1D68202100238DF84C
:10524800173009F0C0FF064680B1013630460AF033
:105258001FF803289FBF062303FB045383F8D600D7
:105268009DF817309CBF01338DF817303046202148
:1052780009F0A9FF074680B1013738460AF008F857
:105288000D289FBF062303FB045383F8D1009DF824
:1052980017309CBF01338DF8173006266643A919CD
:1052A8003846D2310DF11702FFF7ECFE202109F044
:1052B8008AFF074670B10137384609F0E9FF14281C
:1052C8009FBF9DF817307619013386F8D40098BF30
:1052D8008DF817303846202109F075FF78B1013074
:1052E80009F0D6FF0D289FBF062303FB045383F85C
:1052F800D5009DF817309CBF01338DF817309DF805
:105308001730062B0FD0062202FB04500021D130A3
:1053180009F023FFFFF75AFF05E006480649002277
:105328000B2303F062FC07B0F0BD00BF1C10002087
:10533800BC1D0108891D0108A81D01082DE9F347B6
:10534800047807464CB9204601A906F0E5FA01346D
:10535800FFF7F4FF122CF6D178E009F099FFC5B2F7
:10536800112D6DD8781C202109F02DFF394C3A4FAA
:1053780005F1D006034614F8168030B9A8F10202E8
:10538800D2F1000848EB020843E000F1010A59781D
:10539800384609F018FF60B1032D8CBF03230023A2
:1053A800C01B3B4453FA80F090F80490B9F1030F06
:1053B80002D1FFF70BFF49E0A9F10203D3F100087E
:1053C80050464FF0200148EB030809F0FCFED8B125
:1053D800B8F1000FEDD0013009F05AFF40F2ED238B
:1053E80080B2984205DD40F6CA039842A8BF184625
:1053F80001E040F2EE2004EB4603A0F2EE20192271
:1054080090FBF2F0587002E0B8F1000FD1D104F827
:10541800169014F81630FA5CB8F1000F0BD00D4B4B
:105428000E4803EB46062946737840F2EE24192508
:1054380005FB034308E02946094803F0D6FB05E0CD
:10544800084809490022112303F0CFFB02B0BDE848
:10545800F08700BF7816002020020108DC1D010833
:10546800EE1D0108891D01081B2A0108044B596813
:10547800814201BF0022CA621A725A60704700BF97
:105488005C0D00202DE9F04F984689B08D4B0292B3
:1054980093F90020019182429DF848709DF84C5084
:1054A8001C4601D1187A08B1002007E1002A40F013
:1054B8000581854BE36004F16003236204F5B07352
:1054C80063624FF48073A361E361804BE363143B31
:1054D80023647F4BE3652433A3650433636503F5D5
:1054E8005743D833C4F81480996941F480419961CD
:1054F800596941F00101596102238DF81C308DF87A
:105508001E20032315F001028DF81D3014BF02235D
:10551800012315F0080F8DF81F3007F0020907F076
:10552800010B1BD04FF090464FF4007ACDF818A02D
:10553800716A039282F0010321F0F0018DF81E30A8
:105548007162716A41F070017162304606A9FFF715
:1055580099FC039A52BBC6F818A027E0B9F1000FCE
:1055680010D008A94FF4007341F8083D4FF090405F
:10557800436A23F0F0034362436A43F070034362D3
:10558800FFF780FCBBF1000F10D008A94FF480632F
:1055980041F8083D4FF09040436A23F4706343623A
:1055A800436A43F4E0634362FFF76CFC454E002214
:1055B8000E234FF0010A05A88DF814308DF8162037
:1055C80003928DF815A08DF817A006F0C3F8039A7A
:1055D800029B84F850A006F10C00E262A2626263AA
:1055E8002263A3636774C4F81480A574FEF73CFCB7
:1055F800BBF1000F29D0F06B00B3D6F85880B5691D
:10560800376AFFF759FAF26BF06D116821F4FF4120
:1056180021F0700141F48551ADB211605560C2F8B6
:105628000880D760116841EA0A011160816841F079
:1056380040018160526892B2F26406E0F36D202264
:105648001A621A6842F020021A60B9F1000F29D0D4
:10565800206C1C4D08B3D5F85480EF69FFF72CFA7D
:105668002B6C1A6822F4FF4222F0700242F4845232
:1056780042F010021A60BFB200225F60C3F80880CF
:10568800DA60196841F0020119605A605A60EA6DDF
:10569800936843F08003936004E0EA6D136843F075
:1056A80080031360E26D0B48136843F00103136035
:1056B800002323749DF804302372606009B0BDE8AC
:1056C800F08F00BF5C0D00202C020108580002403A
:1056D80000380140680D0020044BD3F8603293F97C
:1056E800022082420CBF981C002070475C0D0020ED
:1056F800F0B5027887B00ABB444B454A93F9F011DC
:1057080092F9002091427FD1424C93F8F50193F829
:10571800F45154F82000B3F8F221009093F8F701FF
:1057280054F82000019093F8F6313B4854F82330A0
:10573800029354F8253003F058FA65E000220492E9
:105748000592451C09F0A4FDC4B260B2FFF7C4FF7E
:10575800074618B18DF81040012400E00446284699
:10576800202109F030FD054638B10135284609F0F9
:105778008FFD0134ADF81200E4B20026284620213E
:1057880009F021FDB0B3451C284609F081FD00222F
:10579800204951F8223083425FFA82FE04D0013258
:1057A800082AF5D1002300E0734651F823208242ED
:1057B80020D1022E0FD0032E12D05A1E012ED2B2A3
:1057C80004D0042A13D88DF814300EE0042A0ED819
:1057D8008DF8153009E0052B09D88DF8173004E04D
:1057E8009A1E052A03D88DF816300134E4B2013622
:1057F800042EC3D1052C03D807B0BDE8F040E5E47A
:1058080004AB03CB3860796007B0F0BD7816002090
:105818005C0D002024190108FD1D010810B50A4976
:1058280091F86432D1F860220C4643B99388184243
:105838004FF0010303D081F86432901C10BD84F846
:105848006432002010BD00BF5C0D0020024B002216
:1058580083F86422E2E700BF5C0D00202DE9F047E1
:10586800877890F803C0214DBBB2C7F1640E03EBF3
:1058780083065C42C3F178005FFA8EFE7600CCF1B5
:105888006408A4B280B2A3B20FFA83F9B9F1000F89
:1058980005DC002B14BFBA464FF0010A00E0F246BF
:1058A80013FB03F303FB0CF21AFB0AF392FBF3F36B
:1058B800434403FB09F30A2293FBF2F333449BB2FC
:1058C80025F8023FB1F800904A880A34C9EB020A69
:1058D800A4B21AB202FB0AF24FF47A73844292FB22
:1058E800F3F34B442B80CED1BDE8F087C00F0020E6
:1058F80010B544780078002202FB02F3193B634399
:1059080003F6C413534340F6C411434393FBF1F326
:10591800034921F812300132072AEDD110BD00BF2A
:10592800DA0F00200430114B33F91000B0F5617F15
:1059380010B506DB40F6330398420246A8BF1A4664
:1059480001E04FF461720C78192340F2833013FBA5
:105958000404944207DA497813FB01039342B4BF65
:105968000020012010BD002010BD00BFA81200209B
:1059780010B500F1500302788A4203D18478C278C6
:10598800944204D304309842F5D1002010BD012080
:1059980010BD0B4B1B6813F4805F0A4BB3F906303C
:1059A80005D0C089421A934207DD084400E0008A06
:1059B8008342B4BF0020012070470120704700BF18
:1059C800A4120020A81200201FB5094B1B681B0356
:1059D8000AD58DF8040001230D2001A98DED030AD5
:1059E8008DF8053001F052F805B05DF804FB00BFF2
:1059F800A412002038B500240B4D6059254404F04A
:105A080095FA696811B1094803F0EFF8A96811B16E
:105A1800074803F0EAF80748103404F087FAB4F5A9
:105A2800D07FE9D138BD00BF50020108EC1E010843
:105A3800F21E0108A828010870B50546284609F095
:105A4800D0FB064658B91A4B1A485A791A4B03EB39
:105A58008203BDE87040D3F89C1103F0C6B828460D
:105A68001649324609F0C6FB60B91548154C04F0D2
:105A78005DFA54F8041F19B1134803F0B6F8F8E7B3
:105A8800124805E00024124B53F8241021B911489C
:105A9800BDE8704004F04ABA2846324609F0AAFB2D
:105AA80001340028EFD1024B0B4D5C71C6E700BFF3
:105AB80078160020F81E010850020108041F01088A
:105AC800091F0108EC0301081C1F0108A828010888
