:020000040800F2
:100000000050002005260108A5260108ED0F010873
:10001000A5260108A5260108A52601080000000064
:10002000000000000000000000000000A5260108FC
:10003000A526010800000000A52601088702010886
:10004000A5260108A5260108A5260108A526010860
:10005000A5260108A5260108119700080F9700089A
:10006000A5260108A5260108A5260108A526010840
:10007000A5260108A526010899010108A526010861
:1000800013970008A5260108A5260108A526010842
:10009000A5260108A5260108A52601080D97000838
:1000A000A526010865FF0008A526010875FF0008C0
:1000B00059FF000849FF000839FF0008C153000834
:1000C000C5530008B9530008BD530008A526010810
:1000D000A52601088D0101088101010875010108AB
:1000E00095020108A5260108A526010800000000C8
:1000F0000000000000000000000000000000000000
:0C01000000000000000000005FF808F1A3
:100110002DE9F04F724B734EA3B033600023736030
:100120000EF04BFD18B90EF069FD0CF0D3FE0CF08B
:100130009BFF6D4A6D4C137843F00103137000234D
:100140000A930B930C934FF4E0130D93236843F43D
:1001500080332360A36943F01003A361236803F491
:1001600000330B930A9B01330A930B9B1BB90A9B29
:10017000B3F5A06FF2D123685C4913F4003301D0CA
:10018000022315E00A6842F001020A600A9323681C
:1001900003F002030B930A9B01330A930B9B1BB9D9
:1001A0000A9BB3F5A06FF2D123689D0739D50123CF
:1001B0000C934F4B4F491A6842F010021A601A68AC
:1001C00022F003021A601A6842F002021A606368A1
:1001D000636063686360636843F480636360464B95
:1001E0001A68043B22F070425A60444A1160616808
:1001F00021F47C116160596841F000415960D9686F
:1002000021F40041D9609B68180449BF3C4B4FF46E
:10021000E01313604FF480130D930C9B012B01D15D
:1002200016E0FEE7022B17D10D9BB3F5801F02D11C
:100230004FF4A01305E00D9BB3F5E01F02D14FF47E
:1002400000130D930D9963680B4343F4803302E070
:10025000636843F460136360236843F08073236032
:100260002168224B8901FBD5596821F003015960AF
:10027000596841F00201596063681C4903F00C039E
:10028000082BF9D14B681F4D03F00C03042B03D04E
:10029000082B03D0174B12E0136810E04B68486836
:1002A000C3F38343C70303F1020301D4164905E0F6
:1002B000496811F4003F116818BF49084B432B608F
:1002C00063681249C3F303130B44187E2B6805912E
:1002D000C3402B601368074A934219D101221BE0E7
:1002E00063C8000824080020AC2F00200010024042
:1002F0000020024000127A00041001401C0000207F
:10030000001BB7005000002000093D005C6301089D
:10031000884A934202D10222874B1A70DFF8789202
:10032000864BDFF878C2C9F80C30A3690DF1880B51
:1003300043F00103A361636A814FB360636A60465F
:1003400043F080736362A3694FF0000843F01C031D
:10035000A3614FF6FF732BF82C3D5946CDF80CC026
:100360008DF85E8009F0DFFA3846594609F0DBFA6D
:100370005946744809F0D7FA734A584653684FF003
:10038000100A43F00073536006F03AFA6F4A179B65
:100390004146B3FBF2F36E4A6E481360182214F024
:1003A0002AFA2B684FF47A72B3FBF2F36A4A013BE4
:1003B0005360F02389F82330684D0723C2F8088082
:1003C0001360AB68DFF8D891DFF8D881C9F8003046
:1003D00098E80F008BE80F00A369179843F0080313
:1003E000A361A36918A943F00803A36108233B6133
:1003F000C7F810A009F097FA19981AA909F093FA0A
:10040000D9F80020100712D595F89021012A0ED8AE
:10041000534A95F89111926812F0805200F0E185EC
:1004200005E04E4B002283F891210CF0EFFF642091
:100430000FF01FFFA0224B48002114F0DCF9E36904
:10044000002243F00703E361A36943F4006343F030
:100450000C03A361424B4FF0000803F10C0102F8BA
:10046000018001320E2AF5D1FF229A76DA761A77C8
:100470005A773D4B3D4A41461A603D483C22D9F8E7
:10048000004014F0B8F94146C4F380170523394AF7
:10049000DFF8DCE0885C0C224A4302F80E0047B922
:1004A0001E3801289FBFFF2003F1FF3302F80E0022
:1004B000DBB201310529EAD12F4A95F80590137076
:1004C0002E4B2F4983F800902E4B254A3362C033C0
:1004D0000B602D4BA10603EBC9035B7848BF0123DA
:1004E0005362002340F2DC51284A22F813100133F2
:1004F000082BF7D110A800211C2214F07CF914F469
:10050000007A04F400684FD0A3040BD4B8F1000FB4
:100510000AD01F4B95F88411A3F10C02012908BFE2
:10052000134602E01B4B00E0194B0493CDF858B082
:100530003CE000BF001BB700D32F00200005FA05E8
:10054000000C0140001001400000014040420F003B
:100550004C2C0020B413002010E000E0001A002012
:1005600024080020942C002000110020EE1B002005
:1005700004110020EE8D0108340F00201C03002020
:10058000B02D0020101A0020508F0108F80E002016
:10059000686301085C63010800ED00E000080140A9
:1005A000D821002084630108CDF810A0B9F10E0F06
:1005B00004D009F0EF09B9F1080F02D101238DF839
:1005C000523001200BF02AFF18B14088003018BFCC
:1005D0000120C4F340038DF84630C4F3403300F0EB
:1005E00001008DF84030C4F3C0338DF845008DF81C
:1005F00049708DF84330B8F1000F07D095F8848129
:1006000008F1FF37D7F1000848EB0708C4F30043AF
:100610008DF84A301AF1000318BF01238DF84B30D2
:10062000736A04F00101003318BF01238DF84C30C8
:10063000C4F300538DF84D30B5F84631C4F3C00211
:10064000ADF85030B5F85231B5F84471ADF84E30D0
:10065000C4F380438DF8473095F85431ADF85670A7
:10066000181C18BF0120E40448BFAF4C8DF84800A7
:1006700048BFB4F84C41B5F8500148BFADF85640FA
:10068000B0F5FA7F8DF844808DF841108DF8422046
:10069000ADF8540002D90BB9ADF8563095F8D43105
:1006A000A24886F82830002386F8293043709DF848
:1006B0005230002B0CBF0023022301B902B10133D9
:1006C000059A02EB830ADAF838309A1E1A33079338
:1006D000002306920593069B33F8024F06934FF6CC
:1006E000FF739C4200F09E819DF84520E3B2240AEE
:1006F000E5B21AB19A1E012A40F28F819DF8492075
:1007000032B18B491A0189588A4A914200F0858199
:100710009DF84A0030B186491A018958854A9142AC
:1007200000F07B819DF8462052B18149039E01EB88
:1007300003114A68B24203D10A89102A00F06D8180
:100740009DF8432052B17A49039E01EB03114A6898
:10075000B24203D10A89022A00F05F819DF8442049
:1007600052B17349744E01EB03114A68B24203D18E
:100770000A89022A00F05181169E7EB16C4F3268C0
:1007800007EB03177968914208D13A89B188914201
:1007900000F04381F188914200F03F81022C02D1A8
:1007A0009DF8402003E0012C04D19DF84120002A4F
:1007B00000F033819DF84C205D4C1E015AB19DF82C
:1007C000522042B9A3F10802012A04D8A2595B4978
:1007D0008A4208BF04259DF84D20344452B19DF84B
:1007E00052203AB910B10C3B012B01E0043B032B22
:1007F00040F2FB80012D48D1514FDFF834A1FF2397
:1008000087F8703087F871300AEB06035A7B586816
:1008100003F108091B894FF00008ADF85C3017A9F7
:10082000022387F87480C7F880408DF85F308DF818
:100830005E2087F82C80C7F83080C7F83480C7F86E
:100840003880C7F86C8087F8728087F8738009F069
:100850006AF85AF8060099F80210424608F001FFBB
:10086000204641462A460FF0E1FB364BC7F88C8004
:10087000C7F88430344B2046C7F8883007F184012C
:1008800007F188020FF01AFCC7E0022D62D19DF833
:1008900014204FF01C0C0CFB02FC294B002703EB2F
:1008A0000C0808939DF814304FF0010988F8753052
:1008B0001F4B88F876709A19517B506802F1080A2C
:1008C00012898DF85E1088F87E7017A988F87490E8
:1008D000C8F88040CDF824C0ADF85C208DF85F509A
:1008E00009F021F8124B9AF8021098593A4608F08C
:1008F000B8FE204639464A460FF098FB1349089B3C
:10090000DDF824C0C8F8841011496344C8F8881081
:1009100003F18401C8F88C7020460A1D0FF0CEFB4D
:10092000059B4B44059378E0001A00204D080020F9
:100930003C83010800040040000C0140002C0140F1
:100940002408002095930008759400089D960008DF
:100950006D930008032D46D19DF84730964D974E74
:10096000D3B19DF84830964F95F82A8053B1954BF6
:10097000BDF854202046B3FBF2F2082192B2BDF834
:10098000563003E020464FF6FF72082109F0BEF80A
:1009900046F82800C76020E0BDF8542095F82A707A
:1009A000B2F5FA7FBDF856300BD986492046B1FB27
:1009B000F2F2082192B209F0A9F8834B46F8270019
:1009C0000AE082492046B1FBF2F2012192B209F01D
:1009D0009DF87B4B46F82700C36095F82A30013319
:1009E00085F82A3019E0042D17D1BDF84E20774B39
:1009F000714D93FBF2F22046BDF85030012192B2C6
:100A000095F8296009F082F895F8293005EB8606FB
:100A10000133C6F8540185F82930069B079A9342A2
:100A20007FF459AE644F6A4E97F82930002487F856
:100A30007431684B34701D78A5F11703022B18D858
:100A40003B6A0021185903EB040811F0A5F910B115
:100A50007B6A5BBB25E0604B04EB030E98E80F005C
:100A60008EE80F00337810340133C02C3370E7D197
:100A7000EEE75A4B13F835C003EBC503D3F80480F7
:100A800086F800C0B8F1000FE2D06445E0DA524ABF
:100A9000230103EB020E43440FCB01348EE80F0019
:100AA000F3E74F4F3B68DB0424D41DE04D4B4E4A27
:100AB00013F8350003EBC5035C681070002CF0D010
:100AC00000238342EDDAC3EBC3016218D2F800C001
:100AD000DFF83CE1013341F80EC001EB0E079188CD
:100AE000B9809279BA71ECE705F0EF03082B3F4B20
:100AF00024D125E03378012BF6D93D4C04EB0313C8
:100B000003F110061034B442EED054F8100C4FF03C
:100B10007C5110F0ADFF4FF07C5144F8100C54F8AC
:100B2000140C10F0A5FF4FF07C5144F8140C54F84D
:100B30000C0C10F09DFF44F80C0CE3E70E2D08D1CF
:100B40001A78182D42F010021A7008D10FF03CFEEE
:100B500005E01A78192D22F010021A70F5E70FF04F
:100B600017FE3B68234D5E035EBF234B01221A70C4
:100B7000224A234E1378234843F0040313702B7842
:100B80004FF48052022B34BF142310238DF85E30B3
:100B90004FF002038DF85F30B369ADF85C2043F08D
:100BA0000403B36134BF0024012417A908F0BBFE7D
:100BB000154B7CB3154A2EE024080020602C002041
:100BC0008594000800127A009594000840420F00B6
:100BD000902C00201C03002058020020508F010898
:100BE000D82100208C6801083C2D002070240020B2
:100BF00060020020D32F002088070020AC2F0020A7
:100C00000010024000080140BC2F0020D50101085F
:100C10003D2D0020BE4A00201A600FF04BFBBD4B5B
:100C2000BD4C93E80300B3698BE8030043F008036D
:100C3000B361179818A908F076FEF3694FF003091D
:100C400043F48043F3613369204643F480433361C6
:100C500018238DF85E3059464FF42043ADF85C30D0
:100C60004FF0040A8DF85F9008F05DFE4FF480436A
:100C7000204659464FF48058ADF85C308DF85EA0A0
:100C800008F051FE1023204659468DF85E30ADF82D
:100C90005C8008F048FE3369322043F480433361BE
:100CA000336923F4804333619C4B1A8802F4415228
:100CB00042F4457242EA09021A80998B072221F414
:100CC00000610904090C99831A821A8892B242F0D1
:100CD00040021A809F23C4F810808DF83C30002316
:100CE0008DF83D308DF83E308DF83F300FF0C1FA71
:100CF0005246C4F8148058460FA909F0B5F8C4F854
:100D000010809DF85E309DF85D201B0243EA02438F
:100D10009DF85F201343824A934214D032200FF093
:100D2000A8FAC4F81480F52009F0D4F8FF2009F0DF
:100D3000D1F87028C4F8108005D12B78022B04BF9D
:100D4000784B83F800902B78032B0CBF1F200220D8
:100D50000BF0E8FA2B78032B03D001200AF0BFFC3C
:100D600007E002200BF05AFB0028F6D04388002B46
:100D7000F3D095F800906C4D4FF0100B28460021F1
:100D80005A463C6813F037FD4FF6FF73ADF83C3020
:100D9000022304F4004804F400674FF0000A1C40EA
:100DA0008DF83E308DF83FA00DD060480FA9ADF80A
:100DB0003CB005F06FFD04232B700124072385F858
:100DC00001A0AC70EB70B8F1000F0ED002235748B1
:100DD0000FA9ADF83C3005F05DFD0123E2182B7141
:100DE000AB7107236C71EB71D4B2B9F1010F0FD95C
:100DF00020234E480FA9ADF83C3005F04BFD0523EC
:100E000001222B72AA72631C07226C72EA72DCB296
:100E10007FB1022340480FA9ADF83C3005F03AFD00
:100E2000092301222B73AA73631C07226C73EA73D4
:100E3000DCB273683E4843F44043736073693C4FCF
:100E400043F001037361B36943F40073B36105F0C8
:100E5000E8FD17A805F0BAFD364B00261793364B70
:100E6000012C189394BF334680231C934FF4807356
:100E70001D934FF480631E93202317A91F933846B8
:100E80004FF400531A94209319961B96219605F05F
:100E9000AAFD3B68294A43F001033B605368012CDB
:100EA00023F4702394BF0021012123F4807343EACB
:100EB000012353609168224B013C0B40314643F4BF
:100EC000602343F002039360D36AE4B223F4700317
:100ED00043EA0454D46201236A18907800286BD046
:100EE0006C5C581C092CC0B2D278144F2AD9A4F1DA
:100EF0000A06D7F80CC006EB46064FF0070E0EFAAE
:100F000006FE2CEA0E0EB2404EEA0202FA6026E01D
:100F1000E9010108A4630108000C01400038004009
:100F200015202000D32F00206C1100200008014064
:100F3000080002404C2401407C11002000240140A4
:100F4000FDF7F1FF3E6904EB440C4FF0070E0EFA7B
:100F50000CFE26EA0E0602FA0CF232433A61062B28
:100F60003A4E0CD85A1E776B02EB82021F23934035
:100F700027EA030704FA02F33B4373631BE00C2BDD
:100F80000CD8DA1F376B02EB82021F23934027EA4B
:100F9000030704FA02F33B4333630CE0A3F10D02B1
:100FA000F76A02EB82021F23934027EA030704FA41
:100FB00002F33B43F3620346043110298CD1234BE7
:100FC0009A6842F480729A609A6842F001029A60CC
:100FD0009A6842F008029A6099681C4A0D0739D550
:100FE000FAE7013909293FF622AAD8F82C00049221
:100FF0005946C7F814A0CBF80000039808F093FCFA
:10100000039B3C201A46082313610FF032F9049A1F
:10101000C7F810A0174695F891319F42BFF601AA74
:10102000039BDFF82CA04FF00808CAF81080782046
:10103000C3F814800FF012F9039BCAF814807820CB
:10104000C3F810800FF00AF90137E4E700240140EB
:10105000000C0140936843F004039360B14B9D681A
:1010600015F00405FAD19A6842F4A0029A60AE4BDA
:10107000B3F85801002840F0E385B3F95A21002A5B
:1010800040F0DE85B3F95C31002B40F0D985A74EE6
:1010900033689C0320D5C8200FF0EBF8AE200AF08F
:1010A0009EFA08B10AF0A0FAA14C84F87501C82094
:1010B0000FF0DFF89F4B0021C4F878319E4C0C22D2
:1010C000204613F098FB0223E37007F0D6FC0FF0E4
:1010D000A9F89A4B0344A360994F934C3B6894F84A
:1010E0005F0194F8691194F86A21B3F95E3006F053
:1010F000C7FEB84610B901200FF030F9914A0A270F
:10110000137843F0020313708F4B10225A610822A8
:101110001A61DFF834921920D9F80C30013F83F0BE
:101120001003C9F80C30D9F80C3083F00803C9F863
:101130000C300FF09EF801200FF0BCF819200FF0D2
:1011400098F800200FF0B6F817F0FF07E1D1082358
:101150004FF0100A7D4FC9F81030C9F810A03B6855
:10116000180709D57A4BC9F814A01B689847794B22
:101170000122C9F810A01A70774B1B68187B10F079
:1011800023FC764910F074FC754910F069FB0BF0F4
:10119000DEFD744B71491860734B186910F068FCE0
:1011A000724B1860724B188810F00EFC01467148A3
:1011B00010F012FD704910F00FFD704B18600CF02C
:1011C0005BFA6F4BFF2118461B2213F014FBDFF86C
:1011D000B4E10022734602703A68012112F0020F56
:1011E0008EF800101FBF417003218EF800100221FD
:1011F00018BF8170510741BF9EF8001001F1010E28
:1012000083F800E04FF0030E48BF00F801E012F051
:101210000A0F0ED01A7804218154511CC9B24FF024
:10122000050E00F801E0D11C02321970D2B206217D
:101230008154D6F800E094F805C01EF0200F1FBFBF
:101240001A78511C1970072118BF8154BCF1080F7E
:1012500002D0BCF10E0F04D11A78511C19700B2169
:1012600081541A781EF4803F4FF00C0900F8029068
:1012700002F101011CBFDFF80C910232C9B21970F2
:101280001FBF89F800203E4A4FF00E0902F8019076
:101290001EF0040F18BF1A784FF0120A1FBF511C1E
:1012A000197010218154374A1EF4806F117801F1B2
:1012B00001095FFA89F982F8009000F801A00BD0CB
:1012C00094F818A2BAF1000F06D0023111702C491F
:1012D0004FF0130A01F809A01EF4007F1FBF117818
:1012E00001F1010982F800904FF0150918BF00F8CC
:1012F0000190BCF1180F47D111784FF0160900F892
:10130000019001F101095FFA89F94FF0170A00F81D
:1013100009A001F103090231C9B282F8009000F876
:1013200001C031E000240140001A0020D821002033
:1013300024080020881B0020FC0D0020404B4C009E
:10134000080F0020AC2F0020000C01407422002068
:10135000F8130020F80000204024002035FA8E3CCD
:10136000DB0FC93F6C240020381300205C240020D0
:101370002A0000200AE81C4100401C46040200200C
:10138000D10E0020D00E00201EF4002F1FBF1178B8
:1013900001F1010C82F800C04FF0190C18BF00F8E1
:1013A00001C01EF4807F1FBF117801F1010E82F889
:1013B00000E01A2218BF42541A78511C19701423E5
:1013C0008354002198227D4813F015FA06F078FC2A
:1013D0007B497C4B7C481960B4F84E217B4B016003
:1013E0007B491A8000237B4AD8F800E00B70B4F8E0
:1013F0009611138093701FFA81F90EF18102DFF8C4
:101400001882DFF818C2D8F80000DFF814A200F53F
:1014100096704AF823002CF813900133122B604683
:10142000EDD1D6F800C00EF1D10E1CF4805F08BFDC
:10143000B4F89C91A0F806901378F3B992F8029052
:10144000D378994519D2B9F1000F08D009F1FF39C5
:1014500009EB890909EB890909F5617306E0013394
:1014600003EB830303EB830303F5617392F80190AD
:101470009BB209F1040920F8193004327245DBD11E
:101480001CF0080F00F0FC8094F89031062B00F25D
:10149000F180DFE803F004070E355172720045F267
:1014A000F05201E042F6F8224B4B1A8006F0A3FC02
:1014B000DFE042F6F822484B09011A800A2391FB2B
:1014C000F3F10023A1F5B061444A42F8231001333F
:1014D000122BF9D1424A434940201160424A13700D
:1014E0000BF076F8002800F0C58001234FF0070AC2
:1014F00090F9000040218DE808043C4A3C4BB3E0E1
:1015000042F6F822344B40201A803A4A344B1A6093
:10151000354B10221A700BF05BF8002800F0AA80FF
:1015200001234FF0000990F9000040218DE80802E6
:10153000314A4FF4E13397E042F6F822264B40203F
:101540001A802E4A264B1A60274B08221A700BF07D
:101550003FF8002800F08E8001234FF0000C90F936
:10156000000040218DE80810254A4FF4E1330AF0CD
:1015700005FF244BC3F87C0178E042F6F821164AB7
:10158000062B118018494FF00C02DFF898C0DFF8E5
:1015900098E01D4C1D480A7048D0002323708CF839
:1015A00000308EF800301B230370194B4FF4E134E8
:1015B0001A70184B05221A7045E000BF88120020EF
:1015C000881B0020E80D002010120020EC0D0020E8
:1015D000230D00201C120020600E0020E40F0020CC
:1015E00024000020A1620008241300201D650008CB
:1015F000A08601008D620008716400087562000811
:1016000025640008240800207010002072100020BB
:10161000710F002073100020D4190020AE19002093
:101620006C0D0020720F002071100020002121702D
:101630008CF800108EF8001021210170B949BA4CC5
:101640000A70BA4A1370BA4ABA4B40201A600AF0BC
:10165000BFFF78B101234FF0000E90F900008DE834
:1016600008402346B44A40210AF088FE003018BFE3
:10167000012028B908200BF0FBFBB04AAD4B1A60E3
:101680003368AF4A13F4804F1FBF12211170AD4869
:10169000A84918BF086042F20101194099B144F607
:1016A0002060A9490880990441BF08211170A7480A
:1016B000A04948BF0860DC0741BF0C211170A44855
:1016C0009C4948BF086011789805A1F10401517048
:1016D00053D5A04AA04C049B4FF010092360936996
:1016E0009E4843F001039361049B0EA91B888DF86B
:1016F0003A90ADF8383002238DF83B3008F013F9FA
:10170000236896485B880EA9ADF8383004238DF81D
:101710003A3008F008F923680120197A08F0EEF849
:1017200023688F4A5B684FF0000A536117A88DF851
:1017300061904FF0010917938DF860A08DF86290C9
:1017400005F007F923680FA85B7A8DF83EA08DF8A5
:101750003C3003238DF83D308DF83F9008F066FB58
:10176000D8F800307F4A3C3B13603B684FF0FF32B3
:1017700043F010033B607C4B1A607C4B7C4A7D4CF1
:1017800013607D4A8033136033680027D9032770C4
:1017900040F1B28040F22A39DFF808A2DFF8B4B194
:1017A00007F042FC4FF001084A465046394684F89B
:1017B000008013F020F8DBF81830704843F0040381
:1017C000CBF818304023ADF8383018238DF83B3073
:1017D0000EA903238DF83A3005F05CF8DBF81C30D5
:1017E000674A43F00203CBF81C30664B664C1B681B
:1017F000ABF6947BB3FBF2F32288013B22F45C72DC
:101800001204120C22809BB21D22A2852385A4F80B
:101810001480238C23F001031B041B0C2384238CD2
:10182000A188228B23F0020322F0730212041B040E
:10183000120C1B0C89B242F0600243EA0803A1803B
:101840002283A7862384238B23F008031B041B0C0D
:1018500043F008032383B4F844306FEA43436FEA4C
:1018600053439BB2A4F84430DBF8A83F43EA080393
:10187000CBF8A83F584605F0D4F817A805F0A6F80D
:10188000424BCDF860A0179380231C934FF48073D4
:101890004FF0100A1D9358464FF4005317A9209398
:1018A000CDF864A0CDF868901B971E971F972197DD
:1018B00005F099F8A3890FA89BB243F40073A381A4
:1018C000DBF8003043F00203CBF800308DF83CA089
:1018D0008DF83D808DF83E708DF83F8008F0A6FAB7
:1018E0002B4B1A682B4B43F825200135202DF7D1BF
:1018F00007F026FF07F024FF33685A0540F188807F
:10190000254C264BD4F8AC6404201E600AF060FE1F
:101910000421C4F8B0040AF037FE214B84F8B40463
:1019200042E000BF710F002090D003007310002030
:101930009D61000824000020056300080163000881
:1019400024130020D1620008600E0020F16200081C
:10195000E1620008001002401C020020000C01405F
:101960000004014018020020280F0020281C00203D
:1019700080120020890700207C120020000801400E
:1019800000366E0150000020000400403404004086
:10199000AC6301088A07002024080020E42100200D
:1019A00028220020A409002008201E600AF010FE52
:1019B000884B082118600AF0E7FD874D2C22002192
:1019C00084F8B504284612F016FF7C232B708E2372
:1019D0006B70E023EB7010207D2385F82B30C4F86A
:1019E000B8640AF0F5FD1021C4F8BC040AF0CCFD7F
:1019F00084F8C0042020C4F8C4640AF0E9FD202162
:101A0000C4F8C8040AF0C0FD84F8CC0406F00CFF4A
:101A1000724B734C1B78022B65D1724A00251388D8
:101A2000322023F040031B041B0C138013884FF457
:101A3000805623F038031B041B0C138013889BB2C1
:101A400043F0400313809F238DF83C308DF83D50C8
:101A50008DF83E508DF83F500EF00BFC8DF85D5028
:101A6000614D04226E6117A80FA908F0FDF92E61DF
:101A70009DF85E309DF85D201B0243EA02429DF80E
:101A80005F301343594A934219D00AD8A2F51A423B
:101A9000033A93420CD002F51A420232934209D023
:101AA0001CE0534A934205D00132934207D015E01F
:101AB000202300E0802323804FF4807302E04FF462
:101AC000807323806380A38822881B02A360534312
:101AD000E360484B012283F8CD2404E000232380F7
:101AE0006380A360E360E4680CB3E40A2646002741
:101AF000A7420ADA3D196D100DF15C08E802414673
:101B0000102208F06DF90F2806DC07F0E1FB394BD5
:101B1000F602C3F8D0640AE0002358F8232001320B
:101B200055D10133042BF8D12E462C46E0E7324C38
:101B3000324A236813F4002318BF012313700EF0F8
:101B400071FB2F4B18602F4B5A791946052A02BF9B
:101B50002D4B4FF4C8721A802C4B4FF47A721A80B6
:101B60002B4BC8221A802B4A137843F008031370BA
:101B7000294A137823F00203137040F60203226807
:101B800013406BB12548264B1860264B0320187074
:101B9000254B01201870254800230380244803802A
:101BA000930341BF234B03221A71DA7844BF42F0FA
:101BB0000102DA708B68012223601F4B1A701F4AE2
:101BC000137863F07F03137023B0BDE8F08F6F1CB0
:101BD0002546AAE744220020F8210020D32F002028
:101BE0000C00002000380040000C014018BA200012
:101BF0001740EF0024080020D8210020B42D002039
:101C000020020020001A00200C240020CE2F0020EB
:101C1000CC2F002070240020D52F00207A1B00201C
:101C2000DC2100202C2200204C000020880E002007
:101C30008A0E0020FC0D002088070020AC2F002019
:101C4000464B00221A7000B20FF0BEFE44490FF05E
:101C50000FFF444C0746B4F95A010FF0B5FE404956
:101C60000FF006FF0646B4F95C010FF0ADFE3C49EB
:101C70000FF0FEFE3C49044638460FF0F1FD0BF034
:101C800066F8814638460BF062F837490746304619
:101C90000FF0E6FD0BF05BF8804630460BF057F88E
:101CA0003149064620460FF0DBFD0BF050F8834625
:101CB00020460BF04CF84946824658460FF0D8FEB5
:101CC0004946039050460FF0D3FE594605903846DA
:101CD0000FF0CEFE5146069038460FF0C9FE414641
:101CE000079058460FF0C4FE204C5146206008F182
:101CF00000400FF0BDFE31466060A66006980FF010
:101D0000B7FE014605980FF0ABFD3146E06007983D
:101D10000FF0AEFE014603980FF0A0FD4146206192
:101D200007F100400FF0A4FE3146606103980FF008
:101D30009FFE014607980FF091FD3146A06105987E
:101D40000FF096FE014606980FF08AFD4946E061C5
:101D500040460FF08DFE2062FFF799B92000002069
:101D600035FA8E3C001A0020DB0FC93F48110020D5
:101D7000A0492DE9F04F0A689F4C02F59C4320339F
:101D800023609E4B89B01E780191C6B19C490968B9
:101D90008A4240F20381013E1E70FFE0D9F8003014
:101DA000072D98BF595D974B88BF29461B689648F9
:101DB0009847032D0CD904EB4505A8800136924BBA
:101DC000F5B21A78DFF86492AA421946E6D820E004
:101DD000D9F8002005F10E0302EB83039988DA8815
:101DE0000028E8D04FF47A73401A5843531A90FBF6
:101DF000F3F040F6C90300F57A70984205DC40F232
:101E0000EE239842B8BF184601E040F6CA0080B2FF
:101E1000D1E742F201087D4B1B6803EA0808B8FAD3
:101E200088F87B4B4FEA58181B68B8F1000F06D1B1
:101E300094F8292084F82820764A5078107094F875
:101E400028701FB1734A177887F0010794F82BB0F8
:101E50000326BBFBF6F60F2206EB460684F82A2083
:101E6000C6EB0B06D9F8002091F800A0DFF8C4916A
:101E7000F6B20025554559DA4FEA450C1FB16649BF
:101E800031F8150000E03846918ADFF8ACE1814274
:101E900002D8D18A81421ED25EF82500564983427B
:101EA00003D25E4931F80C0019E0E8B203920293C4
:101EB000049104F069FF032D029B039A0FDC04993F
:101EC0004FF0010C91F82AE00CFA05FC2EEA0C0EFA
:101ED00081F82AE003E003F596714EF82510B8F179
:101EE000000F1CD194F8BC1029F8160031B9BBF1D1
:101EF000020F14D94049012081F8BC00B9F8021042
:101F0000B9F800000844B9F804100844444980B204
:101F100021F8150000B2032190FBF1F080B23F4997
:101F200009F1060921F815000135A3E794F82A20E4
:101F30003749A2F10F077A427A4184F8D620394B0B
:101F40006AB1394A1268560109D40A68D9689A6098
:101F5000521AC82A1DD9012283F8212019E02D4ADE
:101F60000120507010700A689968DA605B68521A34
:101F70009A4282BF2B4B002283F821200025554531
:101F800007DAE8B204F000FF244B23F8150001350E
:101F9000F5E794F82B30013384F82B301B4E33686F
:101FA000DD0405D5204B1B68D80701D40EF0F0FDE9
:101FB000019B1F681D4BD3F800E09EF80A00002823
:101FC0003CD0164A9EF80C30013832F810001BB194
:101FD000C0F53B60083080B200B2A0F57A70B0F571
:101FE0007A7FA8BF4FF47A7020EAE0700FF0ECFC23
:101FF0000F4959E0B42F0020F80C002018120020DF
:10200000141200202400002024130020D8210020D6
:10201000D419002006000020FC0C0020AE1900207E
:10202000B60D00201C120020CC0E00201012002043
:1020300000007A44240D00206C0D00203368190440
:102040003BD5D4F8D830A54DFB1A002B35DB07F56E
:102050009C432033C5F8D830A14B5A79A14B33F8B3
:1020600012108AB29EF80B1092FBF1F195F8DC2069
:10207000013202F00F0385F8DC302B4483F8DD10C9
:102080000346994A825C0130134410289BB2F8D170
:102090001BB293FBF0F000B26428A8BF642020EAD2
:1020A000E0700FF091FC91490FF096FD90490FF010
:1020B000DFFC0FF0C9FE8F4B188033688E4D13F490
:1020C000807F00F0F0808D4BDFF834929F4205D97D
:1020D00099F8022012B9012289F8022099F8022009
:1020E000002A00F0E080864A95F8008092F821707E
:1020F000C8F380087A1E57425741824A002F924601
:10210000116818BF4FF0000BC1F38063019308BF43
:102110004FF0030B99F82020052A00F2BE80DFE87B
:1021200002F0034E537988A5B8F1000F3AD0D4F8E5
:10213000F000B4F8F4100AF0E8FA012809D1724965
:10214000724A09681268C988642000FB0122C9F834
:102150001020019B6BB16C4A126812794AB10EF0E3
:1021600027FF032289F820204FF47A72C9F81C2037
:10217000D0E7002F40F09180644AD9F81010106821
:102180005F4A88420AD902920EF012FF029A032196
:1021900082F8201040F6B831D161BBE7012182F806
:1021A0002010B7E7019B4FF4806013B10AF050FE96
:1021B00001E00AF03DFE0022C9F810206DE0002F7A
:1021C00049D10EF0F5FEA5E727B1052289F82020B8
:1021D000012000E03846B8F1000F0CD0D4F8F02010
:1021E0004FF0020BD1894A4A1180518091804649B3
:1021F00009684988D180454A1168D9F8142091426C
:1022000002D8B8F1000F45D147F23052C9F81C206E
:10221000032221E02A7842F002022A700EF0B8FC74
:102220003A4AD9F81C1012680A44C9F81820042246
:1022300012E0364A9FB11168D9F8182091422CD982
:10224000344A92781AB9DAF80020D30725D42A78CC
:1022500022F002022A70052289F820205AE712682B
:10226000D9F81C100A44C9F8182016E02649274A54
:1022700009681268C988642000FB01224FF480605D
:10228000C9F81020002289F8202089F803200AF0DC
:10229000CFFD3FE700287FF43DAFBBF1000F02D038
:1022A00058460EF021F81C4F07F5C470B7F84E11D0
:1022B0000AF02BFA0197804680BB0EF06FFE019B5F
:1022C00093F8E231012B05D9104BD4F8F8201B68A4
:1022D0009A422ED20EF052FE2BE000BFF80C0020E6
:1022E0006C1100207C110020D50D00200000C84298
:1022F00000C07F442C0F0020D52F0020404B4C0005
:102300001C120020CC0E0020A82F0020D419002081
:10231000AE19002006000020001A0020A64B019AEA
:102320001B6892F8E2214FF47A7101FB0233C4F882
:10233000F8302B78580736D53368D90633D59F4BFC
:102340001B78DA062FD49E4B9B789BB1019B93F8A8
:10235000E031B8F1000F15D17BB1974B1A68D4F872
:10236000FC309B1A002B08DA0EF012FC954B83F818
:10237000008118E0B8F1000F0DD110200DF0B4FF6E
:1023800001230EE03BB18C4A4FF47A71126801FBD5
:102390000323C4F8FC3094F8003123B10DF090FF12
:1023A000002384F80031019B002293F8DEB193F8FA
:1023B000DF01B3F898E1B3F89AC1134682499B084C
:1023C00031F9127001327745C4BF63F07F03DBB28D
:1023D0006745B8BF43F04003042A8A46EED194F81B
:1023E000012178499A4205D191F80221F92A04D8AD
:1023F000013200E0002281F8022184F80131704BA3
:10240000724F9A789946E2B93B68DB0708D5B8F174
:10241000000F16D12B78D90713D50EF017FA10E05C
:102420002B785A070DD5674B93F828304BB1684B82
:10243000DB7833B910B10EF0ABFB02E0B8F1000F5E
:10244000F9D094F802315F4A142BDFF8A88140F0EC
:10245000898099F802301BF1000B18BF4FF0010B77
:102460006BB392F801315F2B11D12B7803F0040389
:1024700003F0FF0113B10EF08BFB08E00B2003917A
:1024800002920DF031FF029A039982F80211BBF11A
:10249000000F14D094F801317D2B10D12B7803F06C
:1024A000040303F0FF0213B10EF072FB07E00B20F0
:1024B00002920DF019FF434B029A83F802212B7808
:1024C00003F0040303F0FF01002B4BD194F801311A
:1024D0003C4A572B0AD13F4B4FF47A721A803E4B3D
:1024E0001B685B073ED50A223C4B32E03068400750
:1024F00016D55A2B14D13A4B187820B11970394B94
:1025000001221A702EE092F8033183F0010382F861
:1025100003310BB10C2000E00D200DF0E5FE21E0B1
:102520005D2B00F0A0845B2B00F09F845E2B00F0FD
:102530009E84562B01D10AF069FF99F8023053B9F5
:1025400094F801311F4A972B40F06C84264B4FF4CE
:10255000C8721A8006E094F801316F2B40F059845C
:102560000EF074F93368580753D594F80331A3B1CA
:102570002B78590711D5019BBAF90620B3F8983189
:102580009A420ADD3B6813F0010301BF174A32216A
:1025900011800C4A08BF82F803313B68DA032BD55F
:1025A000134B1A782AB90E4A127812B90F4A3221FF
:1025B000118001222CE000BFD419002070240020DB
:1025C00006000020F80C0020AE190020CC0E0020E0
:1025D0001C120020CE2F002074220020CC2F0020BF
:1025E000392400203A2400200C240020202400203C
:1025F00038240020080F0020B64A13784BB12B78FE
:1026000003F0040303F0FF011BB9B34B1170012267
:102610001A70D8F8009000233B6009F1830809F193
:10262000D30A98F8002098F8013018F8010C9A4263
:102630000BD241460AF034F838B118F8022C0123C5
:1026400003FA02F23B6813433B6008F10408D045EB
:10265000E7D1A24B1B7853B1A14FDFF8A4923B689E
:10266000DFF8A08213F0020F40F0388330E309F165
:10267000D20709F58D783A787B7817F8010C9A42E1
:1026800025D239460AF00CF808B397F804C00C219B
:10269000BB7801FB0C41934A013B03EB430313441A
:1026A000D1F8142197F803909A428F480FD0C1F8BF
:1026B0001431002390F84021C1F81831012303FAA6
:1026C0000CF322EA030381F8109180F840310637B9
:1026D0004745D0D1854BDFF830A2D3F80080844B3A
:1026E0004FF0000B1B68029394F828300393DAF83C
:1026F0000020002A00F0E38292F80090B9F1000F68
:1027000000F0DD82DAF804300299CB1A002B0CDBE2
:1027100001F5FA73CAF8043094F84011012303FA62
:102720000BF321EA030384F84031039B002B00F0F4
:10273000C6821AF8043C51780433DBB2002940F019
:102740007F826C4931F913106B4BB3F8963103F16A
:10275000C800814201DD977814E0C83B994202DA53
:1027600091784F420EE094F84021012303FA0BF3D5
:1027700022EA030384F84031029B03F5FA73CAF896
:1027800004309CE294F8403143FA0BF3DB0700F18C
:102790009682002FCCBF022001200DF0C7FD09F169
:1027A000FF32514B132A00F28282DFE812F014004C
:1027B00023003200440061006A00EC005101B601C0
:1027C000E30119028002440055006A00EC00510147
:1027D000BE002301880198F8001040460F44FA2FEC
:1027E000A8BFFA2727EAE77788F8007009F03EFFCC
:1027F00001201EE098F8011040460F44642FA8BF46
:10280000642727EAE77788F8017009F02FFF022094
:102810000FE098F8031040460F44642FA8BF6427C8
:1028200027EAE77788F80370D3F8441109F0D6FE59
:1028300003203946CAE198F805100D20394464296F
:10284000A8BF642121EAE17188F805100DF0D6FCDB
:10285000B9F10D0F00F02B8298F804100E203944C6
:102860006429A8BF642121EAE17188F80410ADE170
:1028700098F806100520394481F3080188F80610FD
:10288000A4E1D3F848311A78022A3FD1384604939C
:102890000FF09AF819490FF09FF9049B596A0593B4
:1028A0000EF0DEFF002104900FF080FA059B48B97E
:1028B000049A124910460FF097FA049A059B10B13A
:1028C0000E4A00E000225A620F20114609F038FF3C
:1028D00027E000BF392400203A240020D12F002017
:1028E000CC0E002020640108F80C0020300F0020DE
:1028F000D4190020AE190020001A00200000C842A0
:10290000742200207A2200200C0E002099780F20DB
:102910003944C829A8BFC82121EAE17199700DF096
:102920006DFCB9F10F0F00F0C281AA4BD3F84891AA
:1029300099F80030022B1AD138460FF045F8A64915
:102940000FF04AF9D9F820100EF08AFF002107464F
:102950000FF02CFA30B938469F490FF045FA10B104
:102960009D4F00E00027C9F82070122058E199F827
:10297000011012203944C829A8BFC82121EAE171F9
:1029800089F8011022E1D3F848311A78022A22D1BD
:10299000384604930FF018F88F490FF01DF9049B87
:1029A000196B05930EF05CFF002104900FF0FEF907
:1029B000059B48B9049A884910460FF015FA049A05
:1029C000059B10B1844A00E000221A6310201146D2
:1029D00009F0B6FE0AE0197B10203944C829A8BFC7
:1029E000C82121EAE17119730DF008FCB9F1100F4B
:1029F00000F05D81774BD3F8489199F80030022BB5
:102A00001AD138460EF0E0FF73490FF0E5F8D9F817
:102A10002C100EF025FF002107460FF0C7F930B942
:102A200038466D490FF0E0F910B16B4F00E0002718
:102A3000C9F82C701320F3E099F80B1013203944D7
:102A4000C829A8BFC82121EAE17189F80B10BDE0AF
:102A5000D3F848311A78022A22D1384604930EF06E
:102A6000B3FF5E490FF0B8F8049BD96B05930EF0E5
:102A7000F7FE002104900FF099F9059B48B9049ADC
:102A8000554910460FF0B0F9049A059B10B1524A0F
:102A900000E00022DA631120114609F051FE0AE03D
:102AA000997D11203944C829A8BFC82121EAE171C4
:102AB00099750DF0A3FBB9F1110F00F0F880454BAB
:102AC000D3F8489199F80030022B1AD138460EF00D
:102AD0007BFF42490FF080F8D9F838100EF0C0FEA5
:102AE000002107460FF062F930B938463A490FF035
:102AF0007BF910B1384F00E00027C9F83870142076
:102B00008EE099F8151014203944C829A8BFC821AF
:102B100021EAE17189F8151058E0D3F8489199F845
:102B20000030022B1AD138460EF04EFF2A490FF022
:102B300053F8D9F828100EF093FE002107460FF045
:102B400035F930B9384624490FF04EF910B1224F0B
:102B500000E00027C9F82870092061E099F8031007
:102B600009203944C829A8BFC82121EAE17189F8A0
:102B700003102BE0D3F8489199F80030022B1AD1BA
:102B800038460EF021FF14490FF026F8D9F834101A
:102B90000EF066FE002107460FF008F930B93846FE
:102BA0000D490FF021F910B10B4F00E00027C9F8D3
:102BB00034700A2034E099F80D100A203944C829ED
:102BC000A8BFC82121EAE17189F80D100DF016FBAC
:102BD0006DE000BFF80C00200000C84200007A44FD
:102BE000D3F8489199F80030022B1DD138460EF0E9
:102BF000EBFEBD490EF0F0FFD9F840100EF030FEAC
:102C0000002107460FF0D2F830B93846B7490FF027
:102C1000EBF810B1B54F00E00027C9F840700B2069
:102C2000394609F08DFD42E099F817100B20394420
:102C3000C829A8BFC82121EAE17189F81710C5E7A2
:102C4000012934D19078AA4A32F91370B7F5617F1F
:102C500005DB40F633039F42A8BF1F4601E04FF457
:102C60006177B9F10C0F22D14FF4966393FBF0F02A
:102C7000A7F5617797FBF0F79E4AFFB21378BB4246
:102C800015D0042F34BF3B4602231370019A09FB71
:102C90000323994A03F2A67313600AF0C1F9484668
:102CA00039460DF0ABFA781CC0B20DF03FFB94F83A
:102CB0004021012303FA0BF3134384F840310BF155
:102CC000010BBBF1040F0AF10C0A7FF410ADC3E451
:102CD0003368D80511D5894BDB7873B1D9F800304A
:102CE00099070AD5B8F8003013F0010A0AD10EF09E
:102CF00055F901200AF0ACF804E001200AF098F838
:102D0000012300E000233A6852070DD563B101208A
:102D10000AF08EF8B8F80030980708D40EF03EF9A3
:102D200002200AF095F802E002200AF081F8B8F8D3
:102D30000030734A13F0030F4FF0100114BF5161BC
:102D40001161D9F8002012F00A0F2DD03A68D1068F
:102D50000DD55A070ED404200AF07AF8694B0A22DE
:102D6000B3F9043093FBF2F3A4F84C3102E00420F1
:102D70000AF05EF83B689B0607D5B8F800305806A5
:102D800006D440200AF064F802E040200AF050F82F
:102D90003B68590641BF5B4B0A22B3F9043093FBF1
:102DA000F2F348BFA4F84E313B684FF480701A0527
:102DB00002D50AF04DF801E00AF03AF8524B5A7980
:102DC0001C46082A01D00E2A02D140200AF030F811
:102DD00033685B0540F1858094F818321BB92B7875
:102DE00013F0040F02E03B6813F4002F0AD0474BA6
:102DF00000221A703C2003F0BDFB002871D00CF0BB
:102E000015FCF7E705F010FD09B0BDE8F04F04F040
:102E100057BFBBF1000F3FF493AB7E2B7FF490AB19
:102E2000FFF79EBBA72B06D1394A137843F0040362
:102E30001370FFF797BB0021BB2B079101D1022331
:102E400003E0B72B04D14FF6FE73ADF81E301FE040
:102E5000BE2B01D1022303E0BD2B30D14FF6FE7310
:102E6000ADF81C3014E0012002E0022000E0032055
:102E70005FFA80F9019A09F1FF3382F8A4370AF06A
:102E800029F80AF0F1F848460DF050FAFFF76ABB4E
:102E9000D8F80030BDF81C10B3F860200A44A3F83D
:102EA0006020BDF81E10B3F862200A44A3F8622027
:102EB0000AF0ACFA002384F80231FFF753BB792BF8
:102EC00004D192F8073123F0010306E07A2B7FF456
:102ED00049AB92F8073143F0010382F80731FFF75D
:102EE00041BB09B0BDE8F08F00007A440000C84241
:102EF000AE190020182B0020300F00201C120020DB
:102F0000000C0140EC190020001A0020FF100020E6
:102F100070240020BB4B2DE9F04FB3F90610BA4BDB
:102F20008FB01E68728991420EDBB1F5FA6FF479A9
:102F3000BFBF8B1A6343A2F5FA6493FBF4F4ACBFF2
:102F4000C4F16404643400E06424B04BB04AB3F8C4
:102F500096E193F95E3112689BB202921546039393
:102F6000002240F2E630A74B4FEA420833F912C084
:102F7000CEEB0C0303F2F317874203D8002BB8BF44
:102F80005B4201E04FF4FA73022A01934FF06400B0
:102F9000029B2FD093F819712FB1019BBB42CCBF7C
:102FA000DB1B00230193019B9A4F93FBF0F96FF019
:102FB000630B37F819A00BFB093B09F1010937F93D
:102FC00019700FFA8AF9C9EB070707FB0BF797FB94
:102FD000F0F7914B574423F80870B7183F79019BDD
:102FE0007B438E4F93FBF7F364339BB2634393FBB6
:102FF000F0F02BE093F81A712FB1019BBB42CCBFCC
:10300000DB1B00230193019BDFF834A293FBF0F05C
:103010006FF063093AF9107009FB003B01303AF98F
:103020001000039BC01B00FB0BFB9BFBF9FBC7EBDA
:103030000B075F43784B9F80019BB079002BB8BF93
:103040005B424343754893FBF0F064306F784FF078
:103050006409474397FBF9F7714B022A9F54EF7AB3
:1030600003F1030A00FB07F797FBF9F70AF8027070
:103070006F7D03F1060300FB07F090FBF9F0664F4C
:103080009854684B0ED1F44583F802900DDB5F4CE9
:10309000B4F89821914214DBB1F5FA6FA8BF4FF450
:1030A000FA610FE0F4459C5404DA37F808305B42CB
:1030B00027F808300132032A05F101057FF451AFEA
:1030C000E5E71146891A4FF47A735943C2F5FA625B
:1030D000B1FBF2F1642391FBF3F2DFF86CE16FF0E6
:1030E00063063EF8120006FB021101323EF912207F
:1030F00006B2921B514391FBF3F30344FB804A4B0E
:10310000454D1B885A0642D5484B0A20B3F9043076
:1031100093FBF0F0464B1B88C01A00B20EF054FC33
:1031200044490EF0A5FC444906460EF099FB09F00F
:103130000EFE8046304609F00AFE0646B5F902004A
:103140000EF042FC8146B5F900000EF03DFC414610
:1031500082460EF08DFC3146834648460EF088FCD0
:10316000014658460EF07AFB0EF048FE4146288094
:1031700048460EF07DFC3146804650460EF078FC05
:10318000014640460EF06CFB0EF038FE68802B4B7B
:103190002B4D18880EF014FC2A4B05F11C0101225E
:1031A0002E8B09F065FB0EF04FFE80B2B6FBF0F0FF
:1031B00095F82630461CB6B2AE84A846002B45D002
:1031C000B5F928A000231E4D37F813C005F1320EC3
:1031D0003EF8132005F12A09C2EB0C0B39F9132034
:1031E0002EF813C00AFB02F132B291FBF2F25A44FC
:1031F00029F813200133042BE5D1002385F826306C
:10320000288526E0AE190020300F0020001A00208B
:10321000080F0020CA220020F81900200CFEFFFF32
:10322000560E0020F02200207A220020EC19002007
:10323000460E002035FA8E3CDB0FC93FC80E002039
:10324000480E00206F12833AB22200202B8D013BE2
:103250002B85B84D0023B5F92800002812DDB5F9FB
:103260002460B549A1F1080232F9132031F8131096
:10327000424392FBF6F28A1A27F813200133042BFB
:10328000EFD100E02B85AD4E33689B0776D545F234
:103290000721AB4BDFF89CB21A68EB6BD31A8B4259
:1032A0006CDDCBF83C2003F055FDA64BDFF8DCA22B
:1032B0001A789946032ABAF8003022D10A2B2CD961
:1032C0000023282089F800300CF0D3FF03F042FDE2
:1032D0009D4B188803F028FD9C4B1A68D37890FB0F
:1032E000F3F0013008289A4BA8BF082018705379D2
:1032F00080B24343A5F8403013795843A5F8420003
:103300000BE00A2B09D80323914A89F800300023E7
:103310001370ABF84030ABF8423099F80030894A6E
:10332000012B0DD002D3022B1ED027E0B5F8402090
:10333000BAF800309A4221DD012389F8003011E00B
:10334000BAF80010B5F842308B4202DD0223137048
:1033500011E0784BB3F840300133994202DD00238D
:1033600013700BE0082007E0B5F84230BAF80020EF
:1033700001339A42E0DC07200CF0B6FF3368754E4B
:1033800013F4006F7BD06E4A696C12686948C1EB18
:10339000020945F20721894571DD4264B7F906202B
:1033A0006A4FB4F84E11D7F800A0A2F57A729AF8D5
:1033B0000AE0694FBEF1010F04D047D3BEF1020FFE
:1033C00022D045E0654B816C5A7B654B4FF0080E6F
:1033D00033F8122091FBFEF392B2C91A8B18836462
:1033E00093FBFEF3A0F84C2040F6E4429BB253431B
:1033F000BAF80820C2EB13334FF47A725343BAF988
:10340000062093FBF2F322E03078BAF808B04007C8
:10341000C7F800B01CD553480292019309F075F922
:10342000019B029A18B913F0100F18BF002202FB7B
:1034300002F1322391FBF3F31344BAF906205A4305
:103440004FF47A7392FBF3F35B4400E000233B609C
:103450003B68D8E9140103FB09F94FF47A7399FB2F
:10346000F3F910EB090241EBE973C8E914231046A4
:1034700019463D4A00230EF007FD3C4B18603C4BBB
:103480001A68984612F4805F02D00A200CF02CFFD4
:10349000384F3B68002B00F08B80DFF8F4E0364AB1
:1034A000DEF800001168F2468142914600F2808009
:1034B000324ADFF8D4B01078596808BB0120107088
:1034C000BBF800208A5C52B31B78013B00FA03F280
:1034D000D4F8D0371A4201D10CF0ECFE284B01226F
:1034E0001A7003F0A7FCBBF80030C3B93B681B7827
:1034F000053B012B13D80CF095FE224B18600EE013
:1035000000231370BBF800208A5C42B11846019377
:103510000CF0D0FE1A4A019B137003F08BFC3B6841
:10352000BBF800205B6818499B5CFE2B32D100235E
:103530000B803DE0480E00207A0E0020D8210020AC
:10354000B42F00202C22002084110020DC21002038
:103550004C000020D52F0020E82100206C11002015
:103560007C110020881B0020407E0500EC210020FB
:10357000CC0E00205C2C0020542C0020502C00206D
:10358000401200206C2F0020582C0020E021002049
:10359000D4190020FF2B02D10CF092FE08E0DAF8DB
:1035A00000000A2707FB03030132C9F800300A8034
:1035B0003378590703D59B4B08225A6138E0D8F875
:1035C0000020D2075EBF984A43F001031370974B67
:1035D000974A1B781B075EBF337823F001033370D3
:1035E000944B1B6813F0040F02D09349098851B91A
:1035F0009249098809B19F0705D4914B1B88003374
:1036000018BF012333B102231370337823F0010371
:10361000337004E03178C80758BF022313700CF0F0
:1036200001FE884B1B68C01A002801DB03F002FC76
:1036300005F0FAF8844B1F780193002F00F0A88062
:10364000824E3368002B00F0DE8630680CF0EEFE10
:10365000002800F0D8867D4B7D4C18680CF0E3FE06
:10366000092801D03F2850D14FF000094F46D4F827
:103670000080784DB8F1000F05D0774829684246A0
:1036800011F006F910B9A94607B92F46734B10354A
:103690009D42EFD3C7B1D7F800E0D9F800C0236846
:1036A0001EF803501CF80300A8420DD15A1C6A49A9
:1036B00038B92D2B05D8664D2A602025CD54885465
:1036C00002E0CD542260EAE723680BB14F4511D0E8
:1036D00063480CF0A1F84F4507D857F8100B0CF0D1
:1036E0009BF809200CF090F8F5E75E480CF094F890
:1036F0004FF0000823689845A7D2574B13F80800ED
:103700000CF082F808F10108F4E72368002B40F080
:103710005F86042840F082864F4803F0F7FC00F0F3
:1037200072BED9F80000DFF844A10CF07FFE30B380
:10373000DAF800000CF077FEDBF80030024693F870
:103740004810A9BB242840F09580012283F8482026
:10375000DBF80030DFF818A193F84820062AE0D102
:1037600093F8490001F030FE8346002800F0AC8059
:103770000BF0AAFFD8F80030002283F8482095F813
:103780005D30002B40F0FF854C37982F00F03B86D2
:10379000354BFA1892F84A100129F5D1DFF8D0809C
:1037A000FB58C8F80020314AC34613609146B8E779
:1037B000012904D14D2814BF00220222C6E70229A4
:1037C00004D13C2814BF00220322BFE703290CD1F7
:1037D00040284FF0000102D983F84810B8E758712B
:1037E0001971D97198710422B0E7042906D1997929
:1037F00083F849004A409A710522A7E70529A7D115
:10380000587919798842987906D950409871481C9E
:1038100018710B441A729BE790420CBF06220022DB
:1038200094E700BF000C0140D52F00207024002039
:103830004012002074220020CC2F00200C240020F5
:10384000CE2F002044120020D12F0020342B002046
:1038500078120020FC65010848120020CC6701089E
:103860001C840108218401088812002058220020AD
:10387000542200203378C2495B073FF569AF232803
:10388000DAF8003013D1019A029001201070BD487F
:1038900003910360BC48AB650BF0BEFFBB480BF067
:1038A000BBFF0399029A0B7843F002030B70B84BED
:1038B0001B681B78934201BFB64AB74B1A60B74AE0
:1038C00004BFB74BDA6043E7DAF8002092F84930DA
:1038D0004A2B00F053854FD8332B00F0588421D861
:1038E000292B00F0F28309D8252B00F0C983272B60
:1038F00000F0CD83232B40F08D855CE22D2B00F072
:10390000F58307D82B2B40F085850BF0AFFE607157
:1039100000F034BD2F2B00F0A784312B00F0B984C8
:1039200000F078BD3E2B00F0078110D8372B00F057
:10393000628404D8352B00F0778200F06BBD392B00
:1039400000F0B2833C2B00F0018100F063BD432BFB
:1039500000F02E8406D8412B40F05C854FF0000922
:1039600000F01ABC442B00F0C984482B40F052856B
:103970000CF0BAFA00F002BDD02B00F05F835FD8E4
:10398000CA2B00F01D8116D84E2B00F0D283C82B15
:1039900000F0A2804C2B40F03D850BF067FE84F8D0
:1039A000D6010BF063FE84F8D7010BF069FEA4F892
:1039B000D80100F0E3BCCD2B00F04B8304D8CC2B16
:1039C00000F05A8200F026BDCE2B00F04B83CF2BA7
:1039D00040F020850BF054FE6FF4AF6E00EB0E0349
:1039E0009BB2C62B98BFA4F896010BF049FEA4F831
:1039F00040010BF045FEA4F842010BF041FEA4F893
:103A000044010BF03DFEA4F8D8010BF02FFE0BF0A3
:103A10002DFE0BF02BFE0BF029FE84F885010BF038
:103A200025FE84F892010BF021FE5E4BD3F8009046
:103A30000BF026FE00EB80004000A9F85E0033E3A7
:103A4000D82B00F04A810FD8D32B3FD003D8D22BEC
:103A500029D000F0DFBCD42B00F08082D62B40F0C0
:103A6000D9844FF0000957E2F22B00F0BF8212D840
:103A7000EF2B40F0CF84DFF82C91D9F800A00BF0A9
:103A8000FFFDAAF86200D9F800900BF0F9FDA9F843
:103A9000600000F073BCF32B00F03484FA2B00F0CC
:103AA000EB8200F0B7BC337803F0040303F0FF09A6
:103AB000002B40F063840BF0D9FD022884F8A407A2
:103AC00040F2C282384B83F8A497BDE20BF0D8FDD8
:103AD000364B188000F052BC92F805904FEA590915
:103AE000B9F1120F03D902F041FD00F047BC4FF0CD
:103AF000000ACA4507D20BF0C3FD05AB23F81A0034
:103B00000AF1010AF5E74A4600234B4507DA05A901
:103B100031F81300264921F813000133F5E7122A82
:103B200005D0234B002123F812100132F7E70123BF
:103B300085F85C3000F022BC0BF098FD84F8E001C1
:103B40000BF094FD84F8DF0100F018BCDFF854900E
:103B5000D9F800A00BF08AFD18B10228A8BF0220F6
:103B600000E001208AF80000D9F800301B78022B11
:103B700018BF104A104B08BF104A1A60FEE300BF7E
:103B8000D52F0020342B0020518401082184010806
:103B900000110020EFBEADDEF04F00200400FA055A
:103BA00000ED00E0080F0020001A0020440E002065
:103BB0002C10002021D4000844000020F90B01083B
:103BC000DB4B81461A689A461278022A6AD1DAF8E3
:103BD000003009F1080B02930BF048FD0DF0F0FEE8
:103BE000D4490DF0F9FF029B43F82B00DAF800B03E
:103BF0000BF03CFD09F10A030BEB830B0DF0E0FE2B
:103C0000CD490DF0E9FFDAF80030CBF8040002935B
:103C10000BF02CFD0DF0D4FEC8490DF0DDFF09F1CD
:103C20000E0B029B09F10109B9F1030F43F82B00B8
:103C3000CDD1B9F1070FDAF800B01AD10BF016FDAB
:103C40000DF0BEFEBB490DF0C7FFCBF84400DAF81B
:103C500000B00BF00BFD0DF0B3FEB6490DF0BCFF4C
:103C6000CBF84800DAF800B00BF000FD8BF84C0000
:103C700012E00BF0FBFCCB448BF80100DAF800B04B
:103C80000BF0F4FCCB448BF80B00DAF800B00BF02F
:103C9000EDFCCB448BF8150009F10109B9F10A0FCD
:103CA000C7D16BE3DAF800B00BF0E0FCCB448BF843
:103CB0000100DAF800B00BF0D9FCCB448BF80B0014
:103CC000DAF800B00BF0D2FCCB4409F10109B9F1EC
:103CD0000A0F8BF81500E5D150E38146DFF850A2BA
:103CE00009F1080BDAF8003002930BF0C9FC0DF073
:103CF00067FE92490DF070FF029B43F82B00DAF843
:103D000000B00BF0BDFC09F10A030BEB830B0DF0C7
:103D100057FE8A490DF060FFDAF80030CBF8040056
:103D200002930BF0ADFC0DF04BFE84490DF054FFF7
:103D300009F10E0B029B09F10109B9F1030F43F8D8
:103D40002B00CBD1B9F1070FDAF800B01AD10BF084
:103D500097FC0DF035FE79490DF03EFFCBF844009D
:103D6000DAF800B00BF08CFC0DF02AFE73490DF070
:103D700033FFCBF84800DAF800B00BF081FC8BF889
:103D80004C0012E00BF07CFCCB448BF80100DAF81D
:103D900000B00BF075FCCB448BF80B00DAF800B0E8
:103DA0000BF06EFCCB448BF8150009F10109B9F159
:103DB0000A0FC7D1E2E20BF059FC132883463FF605
:103DC00092AEDFF86CA1DAF800900BF04FFC002304
:103DD0005B490C2202FB0312117A814220D1137835
:103DE00009EB8B0989F881300BF040FC89F88200DF
:103DF0000BF03CFC89F883000BF038FC514A524B25
:103E000089F884001A60DAF80000504B002118602D
:103E1000813008F069FC4E4B80F001001870ADE273
:103E200001331C2BD4D15EE60BF020FC0B2882461C
:103E30003FF659AE3E4BD3F800900BF017FC032829
:103E40003FF651AE062303FB0A9989F8D6000BF022
:103E50000DFC89F8D1000BF009FC89F8D2000BF0B9
:103E600005FC89F8D3000BF001FC89F8D4000BF0B5
:103E7000FDFB89F8D50081E25379092B7FF633AE3B
:103E8000DFF8D490D9F800A00BF0F0FB8AF800001E
:103E9000D9F800A00BF0EAFB8AF801000BF0E6FB72
:103EA000D9F800306428A8BF642018710BF0DEFB3D
:103EB000D9F800306428A8BF642058710BF0D6FBF5
:103EC000D9F80030FF28A8BFFF2098710BF0CEFB77
:103ED000D9F800A0642828BF64208AF807000BF0F6
:103EE000C5FB8AF80200D9F800A00BF0BFFB8AF8E6
:103EF0000300D9F800A00BF0C3FBD8F80030AAF8F3
:103F00000A005B790A2B40F23982D9F800900BF055
:103F1000ADFB89F8080031E20BF0B2FB0D4B23F842
:103F2000190009F10109B9F1080FF5D126E200BF26
:103F3000080F0020000020410000C84200007A4421
:103F40008C640108401B00203C0E0020400E002025
:103F5000080000201A2B0020300F002053790F2B6F
:103F60007FF4C1AD0BF082FB072881463FF6BBAD65
:103F7000DFF854A4DAF800B00BF082FB0E2303FB49
:103F800009F9CB44ABF82101DAF800B00BF078FB6B
:103F9000CB44ABF82301DAF800B00BF071FBCB4453
:103FA000ABF82501DAF800B00BF060FBCB448BF8DE
:103FB0002701DAF800B00BF059FBCB448BF828014D
:103FC000DAF800B00BF052FBCB448BF82901DAF899
:103FD00000B00BF04BFBCB448BF82A01DAF800A0C1
:103FE0000BF058FBD144C9F82B01C7E10BF03EFBA5
:103FF0000F2881463FF677AD0BF038FBC9EBC909B6
:10400000A14489F8D0000BF031FB89F8D1000BF006
:104010002DFB89F8D2000BF029FB89F8D3000BF0B7
:1040200025FB89F8D4000BF021FB89F8D5000BF0B3
:104030001DFB89F8D6000CF0C7FB9FE133785807C9
:1040400000F19C810AF0DAFD08F044FF09F00CF859
:1040500094E13378590700F19181D44B4FF4C87241
:104060001A808BE133785A0700F18881D04A13789F
:1040700043F00403137081E133785B07E4D5C9E1B1
:10408000A0600BF007FBA3681843A06076E10BF07B
:10409000F7FAA4F858010BF0F3FAA4F85A010BF060
:1040A000EFFAA4F85C0169E10BF0E0FA84F87A0118
:1040B0000BF0DCFA84F87E010BF0D8FA84F87D016D
:1040C0000BF0D4FA84F87F0158E10BF0D9FAA4F888
:1040D00080010BF0D5FAA4F882010BF0C7FA84F83E
:1040E00084010BF0CDFAA4F8860147E10BF0BEFA8B
:1040F00084F890010BF0C4FAA4F89A010BF0C0FA0E
:10410000A4F896010BF0BCFAA4F898010BF0AEFAF3
:10411000DAF8003084F891015B79082B40F22E81A7
:104120000BF0AEFAA4F89C010BF0AAFAA4F89E01D9
:1041300024E192F805900323B9FBF3F9B9F1120FCA
:104140003FF6D1ACDFF884A24FF0000BCB4580F0F6
:1041500015810BF08BFA8AF8A0010BF091FA40F26E
:10416000ED23984205DD40F6CA039842A8BF1846E1
:1041700001E040F2EE20A0F2EE20192390FBF3F0D4
:104180000BF1010B8AF8A1010AF1020ADEE70BF03C
:104190006DFA84F89201F1E00BF068FA04EB090380
:1041A00009F10109B9F1080F83F88801F4D1E5E0BC
:1041B0000BF05CFAC4F808B060710BF06BFAA368FE
:1041C0001843A0600BF052FA84F890010BF058FAF3
:1041D000A4F858010BF054FAA4F85A010BF050FA65
:1041E000A4F85C010BF04CFAA4F880010BF048FA3B
:1041F000A4F88201C2E053794FF0070AB3FBFAF248
:10420000C2EBC2029A1A12F0FF0F7FF46CACB3FB40
:10421000FAFA0AF1FF3A5FFA8AFABAF1FF0F00F0F0
:10422000AD800BF023FA5FFA80FB4FFA8BF008F0B9
:10423000F5F8814600283FF456AC80F800B00BF04A
:104240001FFAA9F802000BF011FA89F804000BF02C
:104250000DFA89F805000BF009FA89F807000BF050
:1042600005FA89F80600D4E7DFF8609109F1400A01
:104270000BF006FAA9F8A8020BF0F8F989F8AA02DF
:104280000BF0F4F909F1040989F8A702D145EFD13F
:1042900074E00BF0EBF91F2881463FF624ACD8F808
:1042A00000305B79082B7FF41EAC0BF0E9F909F1C3
:1042B0008A0904EB890A00F03F00AAF802000BF01B
:1042C000DFF9BAF80230800100F4FE501843AAF872
:1042D00002000BF0CBF9000104F829000BF0C6F93D
:1042E00014F8293000F00F00184304F829000BF0EF
:1042F000BDF98AF8010004F097FE3FE0012385F83C
:104300005D303BE00BF0B2F9FF28824622D100235A
:104310008DF813309DF81330052B14D89DF8130039
:10432000244A9DF81330012102EBC3035B6852F865
:104330003000994089B2482207F054FF9DF81330AD
:104340000133DBB2E4E71C484FF48051042207F04C
:1043500049FF13E005283FF6C6AB00200BF0D8F963
:104360000BF0B2F9D9F800000CF05AF818B9322065
:104370000BF07FFFF6E7504607F042FF00200BF0FE
:10438000C7F9FFF7F5B90D4BD8590CF049F818B932
:1043900032200BF06EFFF6E70CF0D6F908F070FD56
:1043A000074A084BDA60FFF7EFB900BF0C24002082
:1043B00070240020FC9001080008014088120020B1
:1043C0000400FA0500ED00E0080F0020001A0020AC
:1043D0000C2825D00A282CD1424D43480BF01CFA5A
:1043E0002846232110F03DFA08B1401B20602368C5
:1043F000002B41D13B4800213022236010F0FBF913
:10440000019B1B787BB9394B9B68002B67D03848E0
:10441000984764E002F0AAF8FFF7AAB90C2804D183
:1044200034480BF0F9F934480DE07F2812D1FFF73A
:104430000CB90D28D0D07F2809D12A4A013B002190
:104440002E482360D1540BF0E7F9FFF7FEB82F2B6D
:104450003FF6FBA8A0F12002D2B25E2A3FF6F5A8F3
:1044600013B920283FF4F1A85A1C22601D4AD054E9
:104470000BF0CAF9FFF7E9B85A1EA95C202901D14F
:104480001346B5E7174A00212360D1541C4B1D4D3C
:10449000D3F80090D5F800A0DFF84880504610F01F
:1044A000EEF9074651463A46404610F0F1F9164AF1
:1044B00028B918F807304B445B78590703D01035FA
:1044C0009542E7D306E0954204D2781CEB6840445D
:1044D000984702E00D480BF09FF900238AE70FB0E0
:1044E000BDE8F08F481200202993010838130020FE
:1044F000A60E002026840108218401084D840108AD
:1045000054000020FC650108CC67010831840108D3
:104510006B4B6C4A2DE9F04F5E8914684FEA062A0E
:10452000B4EB0A0A9C884FF000054FEA04481C8946
:104530004FF0000BA4FB0A6765EB0B0B04FB0B773A
:10454000F40944EA476418EB04065C884FF000095C
:104550004FEAE7154FEAC438DC8849EB050787B016
:10456000CDE90467A4FB0A6704FB0B77340A44EA2D
:10457000076418EB04064FEA27259C894FF00009D1
:1045800049EB0507CDE90067AAFB046704FB0B773D
:10459000F40D44EA472414F5FA664FEAE75545F16D
:1045A0000007B6F5FA6F77F10003CDE9026796468A
:1045B00066DADDE90489A4FB046704FB05F34FF028
:1045C000050C07EB4307A6FB0C230CFB07335F101E
:1045D0004FEA3206B8EB06084FEA920646EA8376BF
:1045E00069EB07099F10DDE90023921B63EB0703CA
:1045F000CDE90023DDE90267334A4FF0FF339642ED
:1046000077EB0303CDE9048927DA40F6AC520023A7
:10461000A4185D4104FB05F3A4FB04456FF00602FA
:1046200005EB4305664202FB0566A4FB0223334407
:1046300018EB020649EB0307CDE904670B26A4FB40
:10464000062306FB0533DDE900455B104FEA320225
:10465000A41A65EB0305CDE90045DDE902450AFB37
:104660000BF3AAFB0AAB0BEB430B4FEADA7242EAFD
:104670004B02A41A4FEAEB7365EB0305CDE9024543
:10468000DEF80440009B019DA4FB032304FB0533DB
:104690004FEA525848EAC3284FEA6359DDE9042338
:1046A000B8EB020269EB03039946D30B43EA494393
:1046B00000B1036009B1029B0B6007B0BDE8F08F49
:1046C00064130020A80E002024FAFFFF2DE9F04F0C
:1046D00087B06C4C02916C4922888E680546C2EB0B
:1046E00026135B435200C2EBE602B4F902601B13CF
:1046F0005643B4F90420B4F90A0053439B1303EB67
:10470000E62606EB860380331B12B6F5FA384FEA2D
:10471000E6770493CB6847F1FF39A8FB08AB039316
:1047200008FB09F3B4F908200BEB430BE389A661FE
:104730000593D31708FB03F102FB0911A8FB022321
:104740000B44C1171F030AFB01F300FB0B33AAFB49
:1047500000011603194447EA1257020A42EA0162AD
:1047600092194FEA2123E6887B410032A2FB060121
:1047700043F5004306FB03114B100093CB17019345
:10478000DDE900231343B4F810E0B4F80CC06DD099
:104790000FFA8EF0C1170AFB01F1AAFB002300FB00
:1047A0000B11BDF914600B44F71708FB07F106FB6A
:1047B0000911A8FB06670F4479047004801841EAC8
:1047C000D6315941039B0FFA8CF8C3F5801E72460F
:1047D000D317002212184FEACE764FEAC3774FEA7A
:1047E000C8034B4147EA5E07B61A67EB030740F67A
:1047F0003543A6FB030103FB0711DDE900230DF0A0
:1048000043FBB4F916204E1302FB06FE470B47EAA2
:10481000C147D31707FB03EEA2FB0723564373449C
:1048200007FB0366A2FB07233344560E46EAC31672
:104830008219B4F914604FEA636741EB07037143CF
:10484000F71700FB0717A6FB00013944C60C46EA20
:10485000413692194FEAE1474FEA1221B4F912208A
:104860007B4141EA036113010B4400E000230DB1D9
:104870001B0A2B60029B13B11A46049B136007B0FE
:10488000BDE8F08FD0130020A80E002070477047BD
:104890002DE9F041324C334D62892B8AB4F9048002
:1048A0009A1A2389B4F902E05A43B4F91230D613A4
:1048B000B4F91420DB02324493FBF2F232440A26AC
:1048C000E2615643A2F57A6202FB02F3B4F90EC02C
:1048D00002FB0EFE02FB08F2B4F90C801B130CFB6A
:1048E00003FC03FB08F31B1403EB62320232E38880
:1048F000921002F5004253434CF25032B4F920704A
:104900004FEAEE2EB4F900400EEBEC2C0CEB8404D5
:10491000BC406D690234A5EBA4043A4162434FEAFE
:10492000D3384EBFB2FBF8F35400B4FBF8F340F6B3
:10493000DE3448BF5B001A12524362430A4C083609
:104940005C43241404EB224202F6CF62361103EBDF
:10495000221300B1036001B10E60BDE8F08100BF19
:1049600078130020A80E002043E3FFFF13B50C4B83
:1049700004465B681B20022101AA984770B19DF88C
:1049800004209DF8053043EA022303F54E5310330B
:104990004FF48C7293FBF2F32333238002B010BDEB
:1049A00050130020054B1A7E02F0FF0122B10122B4
:1049B000027000221A76704701707047A80E00201E
:1049C00037B5104B04465D68187806216A46A8473B
:1049D000A8B19DF800209DF80130012043EA022390
:1049E00023809DF802209DF8033043EA0223638070
:1049F0009DF804209DF8053043EA0223A38003B00C
:104A000030BD00BF5013002013B5104B04465B6847
:104A10003B2006216A469847A8B19DF800209DF8E2
:104A20000130012043EA022323809DF802209DF8F3
:104A3000033043EA022363809DF804209DF805308B
:104A400043EA0223A38002B010BD00BF5013002030
:104A5000B0F5807F0ED0BB280ED861280ED829284B
:104A60000ED813280ED809280ED8002814BF062007
:104A700000207047002070470120704702207047D7
:104A800003207047042070470520704710B5224C62
:104A90002368998A89B211F4706F1EBF1F4A0120E2
:104AA000507611F4E06F2BD01A8B9A88890522F486
:104AB00080624FEA02424FEA12429A8020D41A885A
:104AC00092051DD41A88D0050FD51A88D105FCD4BB
:104AD0001A8892B242F400721A801A889205FCD4A5
:104AE0000F4B187806F0FBFD0AE01A8892B242F4E8
:104AF00000721A809A8822F440721204120C9A8072
:104B00002268938A23F470631B041B0C9382054B69
:104B100000221A7010BD00BF88220020A80E0020BD
:104B20008C220020A0220020054A08B513880133FA
:104B30009BB21380034B187806F0D1FD002008BD0E
:104B4000CA0E00208C22002008B54FF4804001F0EE
:104B50002FFF012801BF044B4FF480425A61034BE1
:104B600008BF987608BD00BF00040140A80E0020D1
:104B700010B5074C2368186901F01AFF30B123689B
:104B80001A69044B5A61044B01221A7610BD00BF0A
:104B90005C13002000040140A80E0020F8B50E466A
:104BA0001746084C4FF48055656140F0800005F0D1
:104BB00091F938460021324605F056F92561012069
:104BC000F8BD00BF000C014070B50E46054C4FF417
:104BD0008055656105F07EF9304605F07BF9256169
:104BE000012070BD000C014070B5FFF731FF104C83
:104BF000054619200BF03DFBA368152000219847BE
:104C000010B902200BF0AAFB45F01801A368C9B245
:104C100016209847A368002117209847A368012110
:104C20003D209847A3683E200121BDE87040184709
:104C300050130020F0B5274D85B0EB7E002B46D1F8
:104C4000254C2368002B42D01A68244E12B1B1695A
:104C50000A43B2619A889868ADF8002002228DF864
:104C60000320694604228DF8022004F05CFEB3693B
:104C7000002743F00103B36123680126187B197DE7
:104C800004F03CFE2368164993F915000BF0B0FBC5
:104C90002368144A1B695361029308230DEB030038
:104CA0008DF80D308DF80C708DF80E6001F051FE0E
:104CB000236801A85B7D8DF806708DF8043003230E
:104CC0008DF805308DF8076005F0B0F8EE7605B088
:104CD000F0BD00BFA80E00205C13002000100240B1
:104CE000714B00080004014037B50446FFF7A2FFEE
:104CF000274B1A68274B9A420ED14FF40053ADF858
:104D0000043002238DF80730042323480DEB030100
:104D10008DF8063004F007FEFFF78CFF2046FFF702
:104D200097FE05461D4C8021A3686B2098476420A0
:104D30000BF09FFAA36807216820984764200BF0C6
:104D400098FAA36800216B20984764200BF091FA31
:104D5000A36801216B209847A36818211B2098475E
:104D6000A36810211C209847A36829461A20984759
:104D70000B4AA368117819209847A368122137209D
:104D80009847A36801213820984703B030BD00BF81
:104D90001C000020001BB700001001405013002031
:104DA000EC13002008B5FFF745FF024B4FF480528B
:104DB0001A8008BD2A00002070B50446FFF73AFFAC
:104DC0002046FFF745FE0546144C8021A3686B2062
:104DD000984764200BF04DFAA36803216B20984795
:104DE0000F4AA3681178192098470F200BF041FA59
:104DF000A36829461A209847A36818211B209847C2
:104E0000A36810211C209847A368022137209847E7
:104E1000A36838200121BDE87040184750130020D6
:104E2000EC13002008B5FFF705FF074B5B7813B1C3
:104E3000012B03D008BD4FF4006201E04FF4805213
:104E4000024B1A8008BD00BF4C1300202A0000202E
:104E500010B54000204CC0B220702048204C01709A
:104E6000204800210170012020701F4C23601F4C3E
:104E700023601F4B1A701F4A1F4B107059761F4931
:104E8000086811461A4630B383889C0515D40388F8
:104E9000DB050DD447F230530488A40502D5013B4D
:104EA000FAD112E08BB103889BB243F48073038084
:104EB00083889BB243F44073838047F23053087871
:104EC00010B1013BFBD100E013B9BDE810402BE667
:104ED000507E80F0010010BD922200209022002020
:104EE0008E22002098220020942200209C22002064
:104EF00091220020A0220020A80E0020882200205D
:104F000007B5002101AB03227720FFF7A1FF9DF831
:104F100005309DF804001B0243EA00439DF806009B
:104F2000184303B05DF804FB08B5FFF7E9FF014B38
:104F3000586008BDA80E002008B5FFF7E1FF014B3F
:104F4000186008BDA80E002007B5F7216B460622A1
:104F50007620FFF77DFF9DF800309DF801101B03C0
:104F600043EA01139DF80210094A43EA1113D36082
:104F70009DF803309DF804101B0343EA01139DF8CC
:104F8000051043EA1113936003B05DF804FB00BF02
:104F9000A80E00200F4B13B51B780F4C0BB1A37E4E
:104FA000B3B1032201AB7720F621FFF751FF9DF843
:104FB00005309DF804201B0243EA02439DF80620B9
:104FC0001343064AB2F92020C2F10802D3406361BC
:104FD00002B010BD28000020A80E00207813002089
:104FE0000A4B13B51B780A4C0BB1A37E63B10222A6
:104FF00001AB7720F621FFF72BFF9DF804209DF8E9
:10500000053043EA0223238202B010BD28000020AD
:10501000A80E002030B505460C4613462946224608
:10502000BDE83040682013E713B50622044601218D
:105030001C206B46FFF70CFF08B39DF801309DF86C
:105040000020042143EA022242F38D0292FBF1F296
:105050009DF8023022809DF8032042EA032242F3A9
:105060008D0292FBF1F29DF8043062809DF80520DC
:1050700042EA032343F38D0393FBF1F3A38002B0D1
:1050800010BD13B506220446022118206B46FFF717
:10509000DFFEB8B19DF800309DF801209B0803EBBE
:1050A000022323809DF802309DF803209B0803EB28
:1050B000022363809DF804309DF805209B0803EBD4
:1050C0000223A38002B010BD314B2DE9F3411B78C0
:1050D0000546002B3BD0002426462746A046013437
:1050E0005320322108226B46E4B2FFF7B1FE08B923
:1050F000002049E09DF801209DF80030202C03EBB2
:1051000002231BB29DF8032098449DF8023003EB64
:1051100002231BB21F449DF805209DF8043003EBC9
:1051200002231BB21E449DF8073003F07F0301D019
:10513000002BD4D198FBF4F897FBF4F796FBF4F628
:10514000144BA5F800806F80AE801C771CE05320C4
:10515000322106226B46FFF77BFE0028C8D09DF85F
:1051600001209DF8003003EB02232B809DF80320E3
:105170009DF8023003EB02236B809DF805209DF81B
:10518000043003EB0223AB8002B0BDE8F08100BF26
:1051900062130020A80E002013B502AB03F8012D06
:1051A0004000214AC0B21070204A002011702049EE
:1051B00001220A701F4908701F490B601F490B60CC
:1051C0001F4B20491A700A701F4B204A58761068EE
:1051D0001A4630B383889C0515D40388DB050DD4AB
:1051E00047F230530488A40502D5013BFAD112E0FE
:1051F0008BB103889BB243F48073038083889BB296
:1052000043F44073838047F23053087810B1013B78
:10521000FBD100E013B9FFF787FC02E0507E80F07D
:10522000010002B010BD00BF922200209022002099
:10523000982200208E2200209C2200209422002010
:1052400091220020A0220020A80E00208822002009
:105250007720482101229FE77720582101229BE7F0
:105260007620F421312297E7064B002193F8202085
:10527000054B9201343299767720F42102F0FC023A
:105280008AE700BF78130020A80E0020034B0022FD
:105290009A767720F4212E227EE700BFA80E002008
:1052A00003460A466820194676E713B500222A21EC
:1052B0001C20FFF771FF0E2102221C20FFF76CFF5C
:1052C0000F2103221C20FFF767FF2B2112221C2035
:1052D000FFF762FF164A02249369164843F004035D
:1052E00093612023ADF8043004230DEB03018DF806
:1052F00006308DF8074004F016FB22462C211C20B6
:10530000FFF74AFF2D2101221C20FFF745FF2E2128
:1053100000221C20FFF740FF2A2105221C20FFF756
:105320003BFF054B4FF480721A8002B010BD00BFE6
:1053300000100240000801402A00002008B50F219B
:1053400008221820FFF728FF0E2218201021FFF74F
:1053500023FF024B4FF480521A8008BD2A00002020
:1053600008B5134B53201B782D2108227BB1FFF782
:1053700013FF31210A225320FFF70EFF2C210C22AC
:105380005320FFF709FF53203821902209E0FFF74F
:1053900003FF31210A225320FFF7FEFE53202C2168
:1053A0000A22FFF7F9FE40F20912024B1A8008BDEB
:1053B000621300202A00002006F08CBAFFF766BBBB
:1053C00006F088BAFFF762BB2DE9F0474728A0B086
:1053D000044600F0668600F2CE802E2800F0158686
:1053E00067D8222800F0BB8423D8032800F03C8231
:1053F00014D8012800F02D82022840F09F86042056
:105400000AF086F942200AF04EF954200AF04BF9CE
:1054100046200AF048F94C2000F0CCBD042800F0EA
:105420002D82052840F08A861A200AF071F900249E
:1054300036E2282800F0868515D8242800F06D85EE
:10544000262840F07B86C24C06200AF061F9B4F8A9
:1054500058010AF060F9B4F85A010AF05CF9B4F89E
:105460005C0100F049BD2A2800F07F852C2840F01F
:105470006586B74C0C200AF04BF994F890010AF0BD
:1054800012F9B4F89A010AF046F9B4F896010AF054
:1054900042F9B4F898010AF03EF994F891010AF043
:1054A00002F9B4F89C010AF036F9B4F89E0100F054
:1054B00023BD3A2800F0E9821DD8342800F0868404
:1054C0000DD8302800F0B785322840F0378601200B
:1054D0000AF01EF99E4B93F8920100F06BBD36283E
:1054E00000F07985382840F0298604200AF010F968
:1054F000974C00F018BD402800F05F8511D83B287C
:1055000000F026843D2840F01986914C02200AF0D4
:10551000FFF894F8E0010AF0C6F894F8DF0100F013
:1055200049BD452800F0DF8500F2AA85422840F0F9
:105530000586874C10200AF0EBF860790AF0B3F882
:10554000A0680AF0F1F894F890010AF0ACF8B4F809
:1055500058010AF0E0F8B4F85A010AF0DCF8B4F89F
:105560005C010AF0D8F8B4F880010AF0D4F8B4F875
:10557000820100F0C1BC6F2800F0E08200F2F480EC
:10558000662800F0C98100F2BC804D2800F0F38449
:1055900015D8492800F0CC824B2840F0CF856C4CC0
:1055A00004200AF0B5F894F8D6010AF07CF894F8D3
:1055B000D7010AF078F8B4F8D80100F09DBC64284F
:1055C00000F08781652840F0B985624C0B200AF015
:1055D0009FF820880AF09FF8608880B20AF09BF854
:1055E0005D4B1B68C3F3C000C3F38002800040EA38
:1055F0004200C3F340021043C3F3401240EAC2002A
:1056000003F0100318430AF086F8544B1A886368B5
:1056100002F0080103F4475949EA010903F4804103
:1056200049EA010903F4004149EA010903F4803120
:1056300049EA010903F4003149EA010903F4802130
:1056400049EA010903F4002149EA010903F4801140
:1056500049EA010903F0007349EA0303DFF8049102
:1056600012F0010F99F8009018BF4FF00208C9F32B
:10567000800908BF4FF0000843EA090312F0020F47
:1056800043EA080314BF4FF0040C4FF0000C12F073
:10569000040F43EA0C0C14BF4FF0100E4FF0000E35
:1056A00012F0400F14BF202700274CEA0E0E12F014
:1056B000100F14BF4FF4007600264EEA070712F0D1
:1056C000200F14BF4FF4806500253E4312F4807F05
:1056D00014BF4FF400600020354312F4007F14BF64
:1056E0004FF400110021284312F4806F41EA0001B9
:1056F00014BF4FF08063002300201943247A03462F
:10570000F7E0692800F0A5810AD8672800F02C810D
:10571000682840F01385102009F0FAFF002490E17A
:105720006D2800F0A98100F2D5816C2840F0068533
:105730000B4C062009F0ECFF208809F0ECFF608894
:1057400009F0E9FFB4F904300A2093FBF0F0EDE131
:10575000001A0020C80E0020742200207A220020A7
:10576000EC190020D52F0020772800F08D834BD82E
:10577000732800F0A9833CD8702800F009827228B1
:1057800040F0DC84C44C162009F0C2FFB4F8960146
:1057900009F0C1FFB4F8400109F0BDFFB4F84201BF
:1057A00009F0B9FFB4F8440109F0B5FFB4F8D80125
:1057B00009F0B1FF002009F076FF002009F073FF27
:1057C000002009F070FF94F8850109F06CFF94F84F
:1057D000920109F068FF002009F065FFAF4B0A2035
:1057E0001B6CB3F95E3093FBF0F080B209F093FFCD
:1057F00099E3742800F00F83752840F09F842F20D0
:1058000009F086FFA64C9BE2A02800F078830AD816
:10581000782800F0B5807B2840F090843C2009F087
:1058200077FF002436E2F12800F0E580FE2800F042
:105830005683F02840F08284984C042009F068FFD9
:10584000236CB3F8620009F066FF236CB3F86000C4
:1058500052E3032009F05CFF002009F024FF2046FA
:1058600009F021FF0D20A5E309F052FF022009F005
:105870001AFF012009F017FF01209BE3062009F021
:1058800047FF412009F00FFF462009F00CFF4E2092
:1058900009F009FF412009F006FF824B18782BE33D
:1058A000814B185D013409F0FEFE0B2CF8D1002469
:1058B0007E4B185D013409F0F6FE082CF8D1002467
:1058C0007B4B185D013409F0EEFE072CF8D100F097
:1058D0001BBC072009F01CFFE72009F0E4FE6E4B1B
:1058E000587909F0E0FE002009F0DDFE042000F008
:1058F00009BCA3420AD26F4A9D5C012202FA05F557
:105900000D421CBF9A4010430133F2E709F00CFF2F
:10591000614B93F8A4074DE3122009F0F9FE664BA2
:1059200000241B88B3F5806F8CBF08250125634BCD
:1059300033F91400013490FBF5F080B209F0EBFE6E
:10594000032CF4D1554CA08C09F0E5FEE08C09F055
:10595000E2FE208D09F0DFFE608D09F0DCFEA08DF7
:1059600009F0D9FEE08DC7E2102009F0D1FE002435
:10597000534B185D013409F096FE102CF8D1C3E3A7
:10598000702009F0C5FE00260E247443434D0136F5
:105990002B6C2344B3F8210109F0BDFE2B6C23448A
:1059A000B3F8230109F0B7FE2B6C2344B3F82501AB
:1059B00009F0B1FE2B6C234493F8270109F073FE24
:1059C0002B6C234493F8280109F06DFE2B6C2344C3
:1059D00093F8290109F067FE2B6C234493F82A0100
:1059E00009F061FE2B6C1C44D4F82B0109F09CFEDD
:1059F000082EC9D188E3702009F08AFE264C04F1F4
:105A0000700594F8D00009F04EFE94F8D10009F02A
:105A10004AFE94F8D20009F046FE94F8D30009F04B
:105A200042FE94F8D40009F03EFE94F8D50009F047
:105A30003AFE073494F8CF0009F035FEAC42E0D1CD
:105A400062E3204B185D013409F02DFE102CF8D1D3
:105A50005AE31D4D00242878400000F0FE0009F0B4
:105A600057FE2B789C4280F04F83184B33F814007C
:105A700009F051FE0134F4E7062009F049FE074B16
:105A8000D86D09F051FE124B56E0042009F040FE9B
:105A9000024B186E36E300BF001A0020C80E00202B
:105AA0005B640108D32F0020CB810108D781010856
:105AB000AF810108D10E00202A000020DE1900204D
:105AC000F80E00200C0F002024130020AE19002037
:105AD000E41900204FF6FF74072009F019FEB14BBE
