:020000040800F2
:1000000000500020D131010871320108B91B0108EC
:1000100071320108713201087132010800000000DC
:100020000000000000000000000000007132010824
:10003000713201080000000071320108DF0C010874
:100040007132010871320108713201087132010800
:100050007132010871320108ED6D0008EB6D000886
:1000600071320108D9520008713201087132010859
:100070007132010871320108BDFC000871320108BB
:10008000EF6D000871320108713201087132010808
:10009000713201087132010871320108E96D0008FE
:1000A0007132010889FA00087132010899FA0008D2
:1000B0007DFA00086DFA00085DFA0008D1520008C8
:1000C000D5520008C9520008CD520008713201080B
:1000D00071320108B1FC0008A5FC000899FC000879
:1000E000ED0C0108713201087132010800000000B6
:1000F0000000000000000000000000000000000000
:0C01000000000000000000005FF808F1A3
:100110002DE9F04F724B734EA3B033600023736030
:100120000FF0EDFD18B90FF00DFE0CF0BDFE0CF058
:1001300085FF6D4A6D4C137843F001031370002363
:100140000A930B930C934FF4E0130D93236843F43D
:1001500080332360A36943F01003A361236803F491
:1001600000330B930A9B01330A930B9B1BB90A9B29
:10017000B3F5A06FF2D123685C4913F4003301D0CA
:10018000022315E00A6842F001020A600A9323681C
:1001900003F002030B930A9B01330A930B9B1BB9D9
:1001A0000A9BB3F5A06FF2D123689D0739D50123CF
:1001B0000C934F4B4F491A6842F010021A601A68AC
:1001C00022F003021A601A6842F002021A606368A1
:1001D000636063686360636843F480636360464B95
:1001E0001A68043B22F070425A60444A1160616808
:1001F00021F47C116160596841F000415960D9686F
:1002000021F40041D9609B68180449BF3C4B4FF46E
:10021000E01313604FF480130D930C9B012B01D15D
:1002200016E0FEE7022B17D10D9BB3F5801F02D11C
:100230004FF4A01305E00D9BB3F5E01F02D14FF47E
:1002400000130D930D9963680B4343F4803302E070
:10025000636843F460136360236843F08073236032
:100260002168224B8901FBD5596821F003015960AF
:10027000596841F00201596063681C4903F00C039E
:10028000082BF9D14B681F4D03F00C03042B03D04E
:10029000082B03D0174B12E0136810E04B68486836
:1002A000C3F38343C70303F1020301D4164905E0F6
:1002B000496811F4003F116818BF49084B432B608F
:1002C00063681249C3F303130B44187E2B6805912E
:1002D000C3402B601368074A934219D101221BE0E7
:1002E0001FC70008680800209A2F00200010024055
:1002F0000020024000127A00041001403400002067
:10030000001BB7004C00002000093D00C46F01082D
:10031000884A934202D10222874B1A70DFF8789202
:10032000864BDFF878C2C9F80C30A3690DF1880B51
:1003300043F00103A361636A814FB360636A60465F
:1003400043F080736362A3694FF0000843F01C031D
:10035000A3614FF6FF732BF82C3D5946CDF80CC026
:100360008DF85E8006F04DFE3846594606F049FE8F
:100370005946744806F045FE734A584653684FF094
:10038000100A43F00073536009F0DAFC6F4A179BC0
:100390004146B3FBF2F36E4A6E4813600C2215F02F
:1003A0003EF82B684FF47A72B3FBF2F36A4A013BD2
:1003B0005360F02389F82330684D0723C2F8088082
:1003C0001360AB68DFF8D891DFF8D881C9F8003046
:1003D00098E80F008BE80F00A369179843F0080313
:1003E000A361A36918A943F00803A36108233B6133
:1003F000C7F810A006F005FE19981AA906F001FE2C
:10040000D9F80020100712D595F89021012A0ED8AE
:10041000534A95F89111926812F0805200F0DF85EE
:1004200005E04E4B002283F891210CF0CDFF6420B3
:1004300010F04BFCA0224B48002114F0F0FFE369C0
:10044000002243F00703E361A36943F4006343F030
:100450000C03A361424B4FF0000803F10C0102F8BA
:10046000018001320E2AF5D1FF229A76DA761A77C8
:100470005A773D4A3D4B41461A603D483C22D9F8E7
:10048000004014F0CCFF4146C4F380170520394BDF
:10049000DFF8DCE0CA5C0C234B4303F80E2047B9BD
:1004A0001E3A012A9FBFFF2200F1FF3003F80E2001
:1004B000C0B201310529EAD12F4B95F8059018708B
:1004C0002E4B2F4983F800902E4B254A3362C033C0
:1004D0000B602D4BA10603EBC9035B7848BF0123DA
:1004E0005362002340F2DC51284A22F813100133F2
:1004F000082BF7D110A800211C2214F090FF14F44F
:10050000007A04F400684FD0A3040BD4B8F1000FB4
:100510000AD01F4B95F88411A3F10C02012908BFE2
:10052000134602E01B4B00E0194B0493CDF858B082
:100530003CE000BF001BB700C12F00200005FA05FA
:10054000000C0140001001400000014040420F003B
:100550003C2C0020E41E002010E000E05C0F002096
:1005600068080020842C00204A110020F020002080
:10057000F4200020C59A0108080F00205403002031
:10058000A02D00206C0F0020CC9A0108C80E00207E
:10059000D06F0108C46F010800ED00E000080140C1
:1005A00040170020EC6F0108CDF810A0B9F10E0F34
:1005B00004D009F0EF09B9F1080F02D101238DF839
:1005C000523001200AF066FB18B14088003018BF95
:1005D0000120C4F340038DF84630C4F3403300F0EB
:1005E00001008DF84030C4F3C0338DF845008DF81C
:1005F00049708DF84330B8F1000F07D095F8848129
:1006000008F1FF37D7F1000848EB0708C4F30043AF
:100610008DF84A301AF1000318BF01238DF84B30D2
:10062000736A04F00101003318BF01238DF84C30C8
:10063000C4F300538DF84D30B5F84631C4F3C00211
:10064000ADF85030B5F85231B5F84471ADF84E30D0
:10065000C4F380438DF8473095F85431ADF85670A7
:10066000181C18BF0120E40448BFAF4C8DF84800A7
:1006700048BFB4F84C41B5F8500148BFADF85640FA
:10068000B0F5FA7F8DF844808DF841108DF8422046
:10069000ADF8540002D90BB9ADF8563095F8D43105
:1006A000A24886F82830002386F8293043709DF848
:1006B0005230002B0CBF0023022301B902B10133D9
:1006C000059A02EB830ADAF838309A1E1A33079338
:1006D000002306920593069B33F8024F06934FF6CC
:1006E000FF739C4200F09E819DF84520E3B2240AEE
:1006F000E5B21AB19A1E012A40F28F819DF8492075
:1007000032B18B491A0189588A4A914200F0858199
:100710009DF84A0030B186491A018958854A9142AC
:1007200000F07B819DF8462052B18149039E01EB88
:1007300003114A68B24203D10A89102A00F06D8180
:100740009DF8432052B17A49039E01EB03114A6898
:10075000B24203D10A89022A00F05F819DF8442049
:1007600052B17349744E01EB03114A68B24203D18E
:100770000A89022A00F05181169E7EB16C4F3268C0
:1007800007EB03177968914208D13A89B188914201
:1007900000F04381F188914200F03F81022C02D1A8
:1007A0009DF8402003E0012C04D19DF84120002A4F
:1007B00000F033819DF84C205D4C1E015AB19DF82C
:1007C000522042B9A3F10802012A04D8A2595B4978
:1007D0008A4208BF04259DF84D20344452B19DF84B
:1007E00052203AB910B10C3B012B01E0043B032B22
:1007F00040F2FB80012D48D1514FDFF834A1FF2397
:1008000087F8703087F871300AEB06035A7B586816
:1008100003F108091B894FF00008ADF85C3017A9F7
:10082000022387F87480C7F880408DF85F308DF818
:100830005E2087F82C80C7F83080C7F83480C7F86E
:100840003880C7F86C8087F8728087F8738006F06C
:10085000D8FB5AF8060099F80210424606F06FFAE3
:10086000204641462A460FF073F9364BC7F88C8074
:10087000C7F88430344B2046C7F8883007F184012C
:1008800007F188020FF0ACF9C7E0022D62D19DF8A4
:1008900014204FF01C0C0CFB02FC294B002703EB2F
:1008A0000C0808939DF814304FF0010988F8753052
:1008B0001F4B88F876709A19517B506802F1080A2C
:1008C00012898DF85E1088F87E7017A988F87490E8
:1008D000C8F88040CDF824C0ADF85C208DF85F509A
:1008E00006F08FFB124B9AF8021098593A4606F020
:1008F00026FA204639464A460FF02AF91349089B42
:10090000DDF824C0C8F8841011496344C8F8881081
:1009100003F18401C8F88C7020460A1D0FF060F9BD
:10092000059B4B44059378E05C0F00209108002064
:10093000EC8F010800040040000C0140002C014035
:1009400068080020716A0008516B0008796D000882
:10095000496A0008032D46D19DF84730964D974EC1
:10096000D3B19DF84830964F95F82A8053B1954BF6
:10097000BDF854202046B3FBF2F2082192B2BDF834
:10098000563003E020464FF6FF72082106F02CFC9B
:1009900046F82800C76020E0BDF8542095F82A707A
:1009A000B2F5FA7FBDF856300BD986492046B1FB27
:1009B000F2F2082192B206F017FC834B46F82700AA
:1009C0000AE082492046B1FBF2F2012192B206F020
:1009D0000BFC7B4B46F82700C36095F82A300133A7
:1009E00085F82A3019E0042D17D1BDF84E20774B39
:1009F000714D93FBF2F22046BDF85030012192B2C6
:100A000095F8296006F0F0FB95F8293005EB86068D
:100A10000133C6F8540185F82930069B079A9342A2
:100A20007FF459AE644F6A4E97F82930002487F856
:100A30007431684B34701D78A5F11703022B18D858
:100A40003B6A0021185903EB040811F079FD10B13D
:100A50007B6A5BBB25E0604B04EB030E98E80F005C
:100A60008EE80F00337810340133C02C3370E7D197
:100A7000EEE75A4B13F835C003EBC503D3F80480F7
:100A800086F800C0B8F1000FE2D06445E0DA524ABF
:100A9000230103EB020E43440FCB01348EE80F0019
:100AA000F3E74F4F3B68DB0424D41DE04D4B4E4A27
:100AB00013F8350003EBC5035C681070002CF0D010
:100AC00000238342EDDAC3EBC3016218D2F800C001
:100AD000DFF83CE1013341F80EC001EB0E079188CD
:100AE000B9809279BA71ECE705F0EF03082B3F4B20
:100AF00024D125E03378012BF6D93D4C04EB0313C8
:100B000003F110061034B442EED054F8100C4FF03C
:100B10007C5111F081FB4FF07C5144F8100C54F8DB
:100B2000140C11F079FB4FF07C5144F8140C54F87C
:100B30000C0C11F071FB44F80C0CE3E70E2D08D1FE
:100B40001A78182D42F010021A7008D110F05AFBD2
:100B500005E01A78192D22F010021A70F5E710F04E
:100B600035FB3B68234D5E035EBF234B01221A70A9
:100B7000224A234E1378234843F0040313702B7842
:100B80004FF48052022B34BF142310238DF85E30B3
:100B90004FF002038DF85F30B369ADF85C2043F08D
:100BA0000403B36134BF0024012417A906F029FA15
:100BB000154B7CB3154A2EE068080020502C00200D
:100BC000616B000800127A00716B000840420F0050
:100BD000802C00205403002090020020CC9A0108B1
:100BE00040170020EC7701082C2D0020582A002007
:100BF00098020020C12F0020C00700209A2F00205B
:100C00000010024000080140A82F00202D0C010810
:100C10002D2D0020BD4A00201A6010F075F8BC4B45
:100C2000BC4C93E80300B3698BE8030043F008036E
:100C3000B361179818A906F0E4F9F3694FF00309B6
:100C400043F48043F3613369204643F480433361C6
:100C500018238DF85E3059464FF42043ADF85C30D0
:100C60004FF0040A8DF85F9006F0CBF94FF4804303
:100C7000204659464FF48058ADF85C308DF85EA0A0
:100C800006F0BFF91023204659468DF85E30ADF8C6
:100C90005C8006F0B6F93369322043F48043336157
:100CA000336923F4804333619B4B1A8802F4415229
:100CB00042F4457242EA09021A80998B072221F414
:100CC00000610904090C99831A821A8892B242F0D1
:100CD00040021A809F23C4F810808DF83C30002316
:100CE0008DF83D308DF83E308DF83F300FF0EDFF40
:100CF0005246C4F8148058460FA905F0F3F9C4F819
:100D000010809DF85E309DF85D201B0243EA02438F
:100D10009DF85F201343814A934214D032200FF094
:100D2000D4FFC4F81480F52005F012FAFF2005F076
:100D30000FFA7028C4F8108005D12B78022B04BF5D
:100D4000774B83F800902B78032B0CBF1F200220D9
:100D500009F024FF2B78032B03D0012006F0F3FDCC
:100D600007E0022009F096FF0028F6D04388002B08
:100D7000F3D095F800906B4D4FF0100B28460021F2
:100D80005A463C6814F04BFB4FF6FF73ADF83C300D
:100D9000022304F4004804F400674FF0000A1C40EA
:100DA0008DF83E308DF83FA00DD05F480FA9ADF80B
:100DB0003CB009F00FF804232B700124072385F8B9
:100DC00001A0AC70EB70B8F1000F0ED002235648B2
:100DD0000FA9ADF83C3008F0FDFF0123E2182B719C
:100DE000AB7107236C71EB71D4B2B9F1010F0FD95C
:100DF00020234D480FA9ADF83C3008F0EBFF052348
:100E000001222B72AA72631C07226C72EA72DCB296
:100E10007FB102233F480FA9ADF83C3008F0DAFF5C
:100E2000092301222B73AA73631C07226C73EA73D4
:100E3000DCB273683D4843F44043736073693B4FD1
:100E400043F001037361B36943F40073B36109F0C4
:100E50007BF8374B00261793364B012C189394BF21
:100E6000334680231C934FF480731D934FF48063AB
:100E70001E93202317A91F9338464FF400531A944A
:100E8000209319961B96219609F040F83B682A4A50
:100E900043F001033B605368012C23F4702394BF9B
:100EA0000021012123F4807343EA012353609168F8
:100EB000224B013C0B40314643F4602343F00203D4
:100EC0009360D36AE4B223F4700343EA0454D46217
:100ED00001236A18907800286CD06C5C581C092C8F
:100EE000C0B2D278144F2BD9A4F10A06D7F80CC09F
:100EF00006EB46064FF0070E0EFA06FE2CEA0E0E23
:100F0000B2404EEA0202FA6027E000BF410C01083D
:100F10000C700108000C0140003800401520200032
:100F2000C12F00205C210020000801400800024081
:100F30004C2401406C21002000240140FDF7F1FF0A
:100F40003E6904EB440C4FF0070E0EFA0CFE26EA45
:100F50000E0602FA0CF232433A61062B3A4E0CD8D6
:100F60005A1E776B02EB82021F23934027EA030786
:100F700004FA02F33B4373631BE00C2B0CD8DA1F1B
:100F8000376B02EB82021F23934027EA030704FA20
:100F900002F33B4333630CE0A3F10D02F76A02EB6B
:100FA00082021F23934027EA030704FA02F33B431C
:100FB000F3620346043110298BD1234B9A6842F423
:100FC00080729A609A6842F001029A609A6842F0D0
:100FD00008029A6099681C4A0D0739D5FAE7013969
:100FE00009293FF624AAD8F82C0004925946C7F8DC
:100FF00014A0CBF80000039806F003F8039B3C20F4
:101000001A46082313610FF060FE049AC7F810A077
:10101000174695F891319F42BFF603AA039BDFF86C
:101020002CA04FF00808CAF810807820C3F814806C
:101030000FF040FE039BCAF814807820C3F810809C
:101040000FF038FE0137E4E700240140000C0140B6
:10105000936843F004039360A64B9A6812F004026D
:101060000392F9D19A6842F4A0029A60A24BB3F8B5
:101070005801002840F00886B3F95A21002A40F0B0
:101080000386B3F95C31002B40F0FE859B4D2B6845
:101090009C0320D5C8200FF018FEAE2006F0D3FB2D
:1010A00008B106F0D5FB964C84F87501C8200FF006
:1010B0000CFE944B0021C4F87831934C0C2220464E
:1010C00014F0ADF90223E3700AF0DFF80FF0D6FD5B
:1010D0008E4B0344A3608E4B874C1B6894F85F01D2
:1010E00094F8691194F86A21B3F9623007F036FE7A
:1010F00010B901200FF05CFE864B10211A780A26E9
:1011000042F002021A70844A51610821116105936C
:10111000814F1920FB68013E83F01003FB60FB68E0
:1011200083F00803FB600FF0D0FD01200FF0ECFD11
:1011300019200FF0CAFD00200FF0E6FD16F0FF06A3
:10114000E6D108233B611026744B3E611B681807EB
:1011500007D5734B7E611B689847724B01223E6135
:101160001A70714B00271E68DFF8F481307B10F095
:10117000FFFF6E4911F050F80BF03AFE6C4B18600F
:101180006C4B188810F0F4FF01464FF07E5011F0C0
:10119000F7F8694B65491860684B186911F03CF81D
:1011A000674B1860307810F0E3FF01464FF07E5037
:1011B00011F0E6F8634B014618604FF07E5010F0D6
:1011C00021FF614B4FF07E521860604B38469A60A9
:1011D0001F605F605E4B9A601F605F600BF008FEEF
:1011E000064638460BF092FD31460746304611F070
:1011F00013F839468246384611F00EF831468146DA
:10120000504611F009F839468346484611F004F873
:101210000146584610F0F8FE3146C8F8000038463E
:1012200010F0FAFF3146069010F0F6FF069B834659
:101230003946184610F0F0FF034658461946069303
:1012400010F0E0FE069BC8F804001946584610F05E
:10125000DBFE3946C8F80800504610F0DDFF314685
:101260000746484610F0D8FF0146384610F0CAFE3F
:10127000384F394B0026C8F80C00FF2138461B2296
:101280001E7014F0CCF838463E70244E334B326852
:10129000012112F0020F18BF797019701FBF0321CE
:1012A00019700221B970510741BF19784F1C1F7086
:1012B000032748BF475412F00A0F0CD01A780421B4
:1012C0008154511CC9B205274754D11C02321970F0
:1012D000D2B20621815429688A0641BF1A78571C68
:1012E0001F70072748BF87546779082F3AD00E2F01
:1012F00041D137E0002401405C0F0020401700205E
:1013000068080020E4100020F40D0020404B4C0041
:10131000D80E00209A2F0020000C0140DC1700207E
:101320001C1F0020F80000205C2A002035FA8E3CAB
:10133000542A00201C0000200C2A0020681E0020D7
:10134000102A0020702A0020602A0020742A002021
:10135000642A0020A10E0020CA290020A00E00202F
:10136000442A00201A7802F1010E83F800E04FF0C1
:101370000B0E00F802E01A7811F4803F4FF00C0CCD
:1013800000F802C002F1010E1CBFDFF860C2023299
:101390005FFA8EFE83F800E01FBF8CF80020924AAF
:1013A0004FF00E0C02F80EC04A0748BF1A784FF0F3
:1013B000120C41BF02F1010E83F800E010238354A8
:1013C0008A4B11F4806F1A7802F1010E5FFA8EFEDB
:1013D00083F800E000F802C00BD094F818C2BCF10A
:1013E000000F06D002321A707F4A4FF0130C02F839
:1013F0000EC08A0541BF1A7802F1010E83F800E0A1
:101400004FF0150E48BF00F802E0182F13D11A78DC
:101410004FF0160E00F802E002F1010E5FFA8EFEA8
:101420004FF0170C00F80EC002F1030E0232D2B2D8
:1014300083F800E087540F0341BF1A78571C1F70D0
:10144000192748BF8754CA0541BF1A78511C197023
:101450001A2148BF81541A78511C197014238354DF
:1014600000219822624813F0DAFF07F0AAFB614AD4
:10147000614BB4F84E111A60604BB4F896011980B4
:101480005F4900230B808B705E490A605E4A81B21F
:1014900013705E4A22F813100133122BF9D12B6816
:1014A000DF0458BFB4F89C111B07D18040F10281C2
:1014B00094F89031062B00F2F780DFE803F0040780
:1014C0000E395576760045F2F05201E042F6F822E8
:1014D0004F4B1A8007F0FEFBE5E042F6F8224C4B3A
:1014E0001A8010F045FE4B4910F096FE4A4910F064
:1014F00089FD11F07DF80023484A42F823000133AA
:10150000122BF9D1464A474940201160464A1370D0
:1015100009F09AFC002800F0C78001234FF007096A
:1015200090F9000040218DE80802404A404BB5E0A8
:1015300042F6F822364B40201A803E4A384B1A6059
:10154000394B10221A7009F07FFC002800F0AC80A3
:1015500001234FF0000890F9000040218DE80801B8
:10156000354A4FF4E13399E042F6F822284B402007
:101570001A80324A2A4B1A602B4B08221A7009F043
:1015800063FC002800F0908001234FF0000C90F9DC
:10159000000040218DE80810294A4FF4E13309F09A
:1015A00029FB284BC3F87C017AE042F6F821184A5F
:1015B000062B11801C494FF00C02DFF8A0E0224FEF
:1015C00022480A704CD000233B708EF80030037024
:1015D0001F4B1B2119701F4B4FF4E1371A701E4B24
:1015E00005221A7049E000BFA10E0020A00E0020C5
:1015F000B81D0020E4100020E40D0020E80D0020BC
:101600000C22002000220020670D00200E0F002079
:10161000782F0020CDCCCC3F0000B044D41F002058
:101620002C000020E9970008541E0020659A00084D
:10163000A0860100D5970008B9990008BD97000859
:101640006D990008680800206120002060200020BB
:1016500062200020611F002063200020621F002004
:101660000021397001708EF80010B84921200870EF
:10167000B749B84F0A70B84A1370B84AB84B4020FF
:101680001A6009F0E1FB78B101234FF0000E90F9E8
:1016900000008DE808403B46B24A402109F0AAFA12
:1016A000003018BF012028B908200BF0CBFBAE4A50
:1016B000AB4B1A602B68AD4A13F4804F1FBF122149
:1016C0001170AB48A64918BF086042F201011940E9
:1016D00099B144F62060A7490880990441BF0821C8
:1016E0001170A5489E4948BF0860DF0741BF0C2123
:1016F0001170A2489A4948BF086011789805A1F175
:101700000401517053D59E4A9E4F049B4FF0100820
:101710003B6093699C4843F001039361049B0EA9CD
:101720001B888DF83A80ADF8383002238DF83B30B5
:1017300005F067FC3B6894485B880EA9ADF838302B
:1017400004238DF83A3005F05CFC3B680120197ADF
:1017500005F042FC3B688D4A5B684FF0000953611D
:1017600017A88DF861804FF0010817938DF86090ED
:101770008DF8628008F08DFB3B680FA85B7A8DF8CE
:101780003E908DF83C3003238DF83D308DF83F803E
:1017900004F08AFC7E4B7F4A1B683C3B1360336835
:1017A0004FF0FF3243F0100333607B4B1A607B4BEA
:1017B0007B4A7C4E13607C4A803313602B68002781
:1017C000D903377040F1B28040F22A39DFF800A225
:1017D000DFF8ACB10AF07AF84FF001084A465046FB
:1017E000394686F8008013F01AFEDBF818306F488F
:1017F00043F00403CBF818304023ADF838301823F9
:101800008DF83B300EA903238DF83A3008F0E2FA48
:10181000DBF81C30664A43F00203CBF81C30654B02
:10182000654E1B68ABF6947BB3FBF2F33288013B49
:1018300022F45C721204120C32809BB21D22B2851B
:101840003385A6F81480338C23F001031B041B0C92
:101850003384338CB188328B23F0020322F073027D
:1018600012041B04120C1B0C89B242F0600243EA02
:101870000803B1803283B7863384338B23F00803A7
:101880001B041B0C43F008033383B6F844306FEAA3
:1018900043436FEA53439BB2A6F84430DBF8A83FBA
:1018A00043EA0803CBF8A83F584608F04DFB434BEA
:1018B000CDF860A0179380231C934FF480734FF0F2
:1018C000100A1D9358464FF4005317A920931B97F5
:1018D0001E971F972197CDF864A0CDF8689008F067
:1018E00015FBB3890FA89BB243F40073B381DBF8F7
:1018F000003043F00203CBF800308DF83CA08DF8A7
:101900003D808DF83E708DF83F8004F0CDFB2C4B70
:1019100003991A682B4B43F821200B460133202BE7
:101920000393F4D105F07AFA05F078FA2B685A059A
:1019300040F18C80244E254BD6F8AC840420C3F8AB
:10194000008009F081FA042144E000BF62200020F9
:10195000611F002090D0030063200020E59600085E
:101960002C0000204D98000849980008541E0020C3
:1019700019980008782F0020399800082998000845
:101980000010024028020020000C01400004014029
:10199000340F002024020020FC0E002084110020BF
:1019A000B01D0020C1070020AC1D00200008014030
:1019B00000366E014C00002000040040340400405A
:1019C00014700108C2070020680800204C1700208E
:1019D000E8090020C6F8B00409F012FA8F4B86F827
:1019E000B4040820C3F8008009F02EFA8C4B0821BB
:1019F000186009F005FA8B4F2C22002186F8B504F7
:101A0000384613F00CFD7C233B708E237B70E02363
:101A1000FB7010207D2387F82B30C6F8B88409F0BE
:101A200013FA1021C6F8BC0409F0EAF986F8C004DC
:101A30002020C6F8C48409F007FA2021C6F8C8049B
:101A400009F0DEF986F8CC0409F0F6FA764B774E09
:101A50001B78022B67D1764A00271388322023F0A7
:101A600040031B041B0C138013884FF4805823F091
:101A700038031B041B0C138013889BB243F04003F4
:101A800013809F238DF83C308DF83D708DF83E70AB
:101A90008DF83F700FF019F98DF85D70654F0422D5
:101AA000C7F8148017A80FA904F01CFBC7F8108012
:101AB0009DF85E309DF85D201B0243EA02429DF8CE
:101AC0005F3013435C4A934219D00AD8A2F51A42F8
:101AD000033A93420CD002F51A420232934209D0E3
:101AE0001CE0564A934205D00132934207D015E0DC
:101AF000202300E0802333804FF4807302E04FF412
:101B0000807333807380B38832881B02B360534381
:101B1000F3604B4B012283F8CD2404E00023338093
:101B20007380B360F360F66826B3F60AB0464FF0F0
:101B3000000AB2450BDA0AEB06077F100DF15C09CB
:101B4000F8024946102205F0B9FC0F2807DC0DF019
:101B50001FFF3B4B4FEAC822C3F8D0240AE0002302
:101B600059F82320013255D10133042BF8D1B8465E
:101B70003E46DEE72B68334A13F4002318BF0123E7
:101B800013700FF07BF8304B18606379052B02BFA0
:101B90002E4B4FF4C8721A802D4B4FF47A721A8074
:101BA0002C4BC8221A802C4A137843F00803137078
:101BB0002A4A137823F00203137040F602032A68BE
:101BC00013406BB12649274B1960274B032119702D
:101BD000264B01211970264900230B8025490B80D3
:101BE000930341BF244B03221A71DA7844BF42F0B9
:101BF0000102DA70214B9A68214B1A60214B0122B5
:101C00001A70059B059A1B7863F07F03137023B04D
:101C1000BDE8F08F07F1010A3746A9E790170020C9
:101C2000AC17002060170020C12F00200C000020FE
:101C300000380040000C014018BA20001740EF00A7
:101C400068080020A42D00202C020020DE2900209E
:101C5000BA2F0020B82F0020582A0020BD2F0020C6
:101C6000D6100020441700209417002040000020C8
:101C7000580E00205A0E0020F40D00205C0F0020AA
:101C800040170020C0070020424B00221A7000B20B
:101C900010F06EFA404910F0BFFA404C0646B4F915
:101CA0005A0110F065FA3C4910F0B6FA0546B4F94D
:101CB0005C0110F05DFA384910F0AEFA0446304687
:101CC0000BF096F8804630460BF020F80646284682
:101CD0000BF08EF8074628460BF018F8054620460C
:101CE0000BF086F8824620460BF010F841468146FC
:101CF000504610F091FA41468346484610F08CFA5F
:101D000051460590304610F087FA49460690304615
:101D100010F082FA39460790504610F07DFA204CB8
:101D20004946206007F1004010F076FA29466060CD
:101D3000A560069810F070FA0146059810F064F955
:101D40002946E060079810F067FA0146584610F0FF
:101D500059F93946206106F1004010F05DFA294634
:101D60006061584610F058FA0146079810F04AF999
:101D70002946A061059810F04FFA0146069810F028
:101D800043F94146E061384610F046FA2062FFF719
:101D90007DB900BF3800002035FA8E3C5C0F002072
:101DA0003821002097492DE9F04F0A68964C02F53A
:101DB0009C4320332360954B89B01E788946DFF819
:101DC0008082C6B1924909688A4240F2F080013EA1
:101DD0001E70ECE0D8F80030072D98BF595D8D4B90
:101DE00088BF29461B688C489847032D0AD904EB05
:101DF0004505A8800136884BF5B21A78AA421A46E2
:101E0000E8D820E0D8F8002005F10E0302EB8303A8
:101E10009988DA880028EAD04FF47A73401A584338
:101E2000531A90FBF3F040F6C90300F57A7098421C
:101E300005DC40F2EE239842B8BF184601E040F6B8
:101E4000CA0080B2D3E742F2010B744B1B6803EA6D
:101E50000B0BBBFA8BFB4FEA5B1BBBF1000F06D1F0
:101E600094F8293084F828306D4B5978197094F81B
:101E700028701FB16A4B1F7887F0010792F800A005
:101E800094F82B200326B2FBF6F60F2306EB46064A
:101E900084F82A30961BD8F80010624BF6B2002561
:101EA00055454CDA1FB1604830F8150000E038465F
:101EB000B1F814E0864503D8B1F816E0864514D28F
:101EC000E8B203930292019108F0F0F9032DDFBF0D
:101ED0004FF0010E94F82AC00EFA05FE2CEA0E0E01
:101EE00001A9D8BF84F82AE00EC9BBF1000F1FD1A9
:101EF00094F874E023F81600BEF1000F06D1022A10
:101F000016D941484FF0010E80F874E0B3F800E0B4
:101F100058887044B3F804E07044DFF828E180B2D8
:101F20002EF8150000B24FF0030E90FBFEF080B2C9
:101F3000DFF804E106332EF815000135B0E794F818
:101F40002A203A49A2F10F067242724184F88E208B
:101F5000374B6AB1374A1268550109D40A68D96803
:101F60009A60521AC82A1DD9012283F8212019E04B
:101F70002B4A0120507010700A689968DA605B681B
:101F8000521A9A4282BF2A4B002283F82120002550
:101F9000554507DAE8B208F089F9274B23F8150010
:101FA0000135F5E794F82B30013384F82B301B4EC4
:101FB0003368D80405D51F4B1B68D90701D40FF02F
:101FC00069FBD8F800E0D9F800709EF80A000028F4
:101FD0003AD0194A9EF80C30013832F810001BB183
:101FE000C0F53B60083080B200B2A0F57A70B0F561
:101FF0007A7FA8BF4FF47A7020EAE07010F0B8F84A
:102000000E4957E0A42F00203C0D0020082200209C
:10201000042200202C000020541E00204017002025
:1020200006000020680D0020400D0020340F002025
:102030000C2200209C0E00200E0F002000007A448D
:1020400000220020B20D002033681A043BD5D4F8DA
:102050009030914DFB1A002B35DB07F59C43203364
:10206000C5F890308D4B5A798D4B33F812108AB2E7
:102070009EF80B1092FBF1F195F89420013202F0DA
:102080000F0385F894302B4483F895100346854A56
:10209000825C0130134410289BB2F8D11BB293FB31
:1020A000F0F000B26428A8BF642020EAE07010F0CD
:1020B0005FF87D4910F064F97C4910F0ADF810F03C
:1020C00097FA7B4B188033687A4D13F4807F00F0C9
:1020D0000A81794BDFF8F0919F4205D999F80220E7
:1020E00012B9012289F8022099F80220002A00F092
:1020F000FA80724A94F828709246116895F8008028
:10210000002FC1F38063C8F38008019314BF4FF020
:10211000000B4FF0030B99F82020052A00F2DD8018
:10212000DFE802F0034E537988A5B8F1000F3AD0EA
:10213000D4F8A800B4F8AC1008F023FF012809D1A6
:102140005F49604A09681268C988642000FB01225F
:10215000C9F81020019B6BB1594A126812794AB133
:102160000FF0A4FC032289F820204FF47A72C9F8FA
:102170001C20D0E7002F40F0B080524AD9F8101050
:102180001068514A88420AD902920FF08FFC029AD5
:10219000032182F8201040F6B831D161BBE701215C
:1021A00082F82010B7E7019B4FF4806013B10AF06A
:1021B00039FE01E00AF026FE0022C9F810208CE06A
:1021C000002F49D10FF072FCA5E727B1052289F84D
:1021D0002020012000E03846B8F1000F0CD0D4F8E0
:1021E000A8204FF0020BD189384A1180518091808C
:1021F000334909684988D180324A1168D9F81420D6
:10220000914202D8B8F1000F64D147F23052C9F8B8
:102210001C20032221E02A7842F002022A700FF0EB
:1022200039FA284AD9F81C1012680A44C9F818204B
:10223000042212E0234A9FB11168D9F81820914274
:102240004BD9234A92781AB9DAF80020D30744D43C
:102250002A7822F002022A70052289F820205AE703
:102260001268D9F81C100A44C9F8182035E014493E
:10227000144A09681268C988642000FB01224FF4DF
:102280008060C9F81020002289F8202089F80320F6
:102290000AF0B8FD3FE700BF3C0D00205C210020A4
:1022A0006C210020D10D00200000C84200C07F44F6
:1022B000000F0020BD2F0020404B4C009C0E002042
:1022C000742F0020340F00200C2200200E0F00205D
:1022D0000600002000287FF41EAFBBF1000F02D0E3
:1022E00058460EF02BFD904F07F5C470B7F84E110D
:1022F00008F047FE0197834668B90FF0C9FB8B4B86
:102300000022C3F800B0C3F804B0C3F808B0884B8B
:102310001A605A609A602B785F0736D53368D80602
:1023200033D5844B1B78D9062FD4834B9B789BB134
:10233000019B93F8E031BBF1000F15D17BB17F4BCE
:102340001A68D4F8B0309B1A002B08DA0FF0A2F903
:102350007B4B83F8B4B018E0BBF1000F0DD1102017
:102360000EF0ECFC01230EE03BB1744A4FF47A719D
:10237000126801FB0323C4F8B03094F8B43023B1E1
:102380000EF0C8FC002384F8B430019B002293F8BF
:10239000DEA193F8DF11B3F898E1B3F89AC11346C0
:1023A00068489B0830F9127001327745C4BF63F06A
:1023B0007F03DBB26745B8BF43F04003042A814680
:1023C000EED194F8B5205E489A4205D190F8B62037
:1023D000F92A04D8013200E0002280F8B62084F8FF
:1023E000B530554B584F9A789846E2B93B68DA07B2
:1023F00008D5BBF1000F16D12B78DB0713D50EF0F3
:10240000ADFF10E02B7858070DD54D4B93F82830D1
:102410004BB14E4BDB7833B911B10FF03BF902E011
:10242000BBF1000FF9D094F8B630454A142BDFF811
:1024300038B140F0AB8098F802301AF1000A18BFAA
:102440004FF0010A6BB392F8B5305F2B11D12B78A6
:1024500003F0040303F0FF0113B10FF01BF908E0D0
:102460000B20039102920EF069FC029A039982F804
:10247000B610BAF1000F14D094F8B5307D2B10D1FE
:102480002B7803F0040303F0FF0213B10FF002F9FD
:1024900007E00B2002920EF051FC294B029A83F8C0
:1024A000B6202B7803F0040303F0FF01002B6DD15D
:1024B00094F8B530224A572B10D1254B4FF47A723D
:1024C0001A80244B1B685A0742BF234A0A211180F5
:1024D00013F008035AD1214A138057E030684007AF
:1024E00016D55A2B14D11E4B187820B119701D4BDC
:1024F00001221A704AE092F8B73083F0010382F8A3
:10250000B7300BB10C2000E00D200EF017FC3DE0C1
:102510005D2B00F069845B2B00F068845E2B25D175
:10252000032000F064BC00BF5C0F00201C290020C9
:10253000D0280020582A002006000020340F002058
:102540003C0D00200E0F00209C0E00200C220020CD
:10255000BA2F0020DC170020B82F00204C0F0020DD
:10256000092A00200A2A0020D80E0020562B01D16B
:102570000AF02AFF98F80230002B00F04E8494F8FD
:10258000B5306F2B40F043840EF0E8FE33685807F7
:1025900032D594F8B730A3B12B78590711D5019BE8
:1025A000B9F90620B3F898319A420ADD3B6813F076
:1025B000010301BFAC4A32211180AC4A08BF82F846
:1025C000B7303B68DA030AD5A94B1A782AB9A94A69
:1025D000127812B9A44A3221118001220BE0A54AD7
:1025E00013784BB12B7803F0040303F0FF011BB900
:1025F000A14B117001221A70DBF8009000233B60A0
:1026000009F1870809F1D70A98F8002098F80130F5
:1026100018F8010C9A420BD2414608F07DFC38B103
:1026200018F8022C012303FA02F23B6813433B60C3
:1026300008F10408D045E7D1904B1B7853B1904F77
:10264000DFF854923B68DFF8548213F0020F40F039
:10265000388330E309F1D60709F58F783A787B782B
:1026600017F8010C9A4225D2394608F055FC08B3F8
:1026700097F804C00C21BB7801FB0C41814A013B57
:1026800003EB43031344D1F8C82097F803909A4210
:1026900076480FD0C1F8C830002390F8F420C1F874
:1026A000CC30012303FA0CF322EA030381F8C4902F
:1026B00080F8F43006374745D0D1734BDFF8E0A1FE
:1026C000D3F80080714B4FF0000B1B68029394F815
:1026D00028300393DAF80020002A00F0E38292F811
:1026E0000090B9F1000F00F0DD82DAF804300299B1
:1026F000CB1A002B0CDB01F5FA73CAF8043094F8FE
:10270000F410012303FA0BF321EA030384F8F430F5
:10271000039B002B00F0C6821AF8043C5178043366
:10272000DBB2002940F07F82594931F91310594B2F
:10273000B3F8963103F1C800814201DD977814E0C7
:10274000C83B994202DA91784F420EE094F8F420A7
:10275000012303FA0BF322EA030384F8F430029B0B
:1027600003F5FA73CAF804309CE294F8F43043FAA3
:102770000BF3DB0700F19682002FCCBF0220012073
:102780000EF0FEFA09F1FF32384B132A00F2828272
:10279000DFE812F0140023003200440061008800DA
:1027A000ED005201B701EA01190280024400550010
:1027B0008800ED005201BF002401890198F8001043
:1027C00040460F44FA2FA8BFFA2727EAE77788F890
:1027D000007008F087FB01201EE098F801104046C9
:1027E0000F44642FA8BF642727EAE77788F80170B1
:1027F00008F078FB02200FE098F8031040460F44E1
:10280000642FA8BF642727EAE77788F80370D3F816
:10281000F81008F01FFB03203946D1E198F80510A5
:102820000D2039446429A8BF642121EAE17188F8A8
:1028300005100EF00FFAB9F10D0F00F02B8298F889
:1028400004100E2039446429A8BF642121EAE171F3
:1028500088F80410B4E198F806100520394481F393
:10286000080188F80610ABE1F02900203C0D00209B
:10287000082A0020092A00200A2A0020BF2F002051
:102880009C0E002088700108040F0020340F0020E7
:102890000E0F00205C0F0020DC170020E217002044
:1028A000040E0020D3F8FC301A78022A22D13846D0
:1028B00004930FF05DFCA9490FF062FD049B596A77
:1028C00005930FF0A1FB002104900FF043FE059B40
:1028D00048B9049AA14910460FF05AFE049A059B84
:1028E00010B19E4A00E000225A620F20114608F003
:1028F00063FB0AE099780F203944C829A8BFC82192
:1029000021EAE17199700EF0A5F9B9F10F0F00F00D
:10291000C181934BD3F8FC9099F80030022B1AD167
:1029200038460FF025FC8D490FF02AFDD9F820100C
:102930000FF06AFB002107460FF00CFE30B9384655
:1029400086490FF025FE10B1844F00E00027C9F83A
:102950002070122057E199F8011012203944C8293B
:10296000A8BFC82121EAE17189F8011028E1D3F854
:10297000FC301A78022A22D1384604930FF0F8FB73
:1029800076490FF0FDFC049B196B05930FF03CFB9F
:10299000002104900FF0DEFD059B48B9049A6F49B1
:1029A00010460FF0F5FD049A059B10B16B4A00E04C
:1029B00000221A631020114608F0FEFA0AE0197B83
:1029C00010203944C829A8BFC82121EAE171197330
:1029D0000EF040F9B9F1100F00F05C81604BD3F8B4
:1029E000FC9099F80030022B1AD138460FF0C0FB4A
:1029F0005A490FF0C5FCD9F82C100FF005FB002147
:102A000007460FF0A7FD30B9384654490FF0C0FD16
:102A100010B1524F00E00027C9F82C701320F2E0EB
:102A200099F80B1013203944C829A8BFC82121EAFE
:102A3000E17189F80B10C3E0D3F8FC301A78022A50
:102A400022D1384604930FF093FB46490FF098FCCF
:102A5000049BD96B05930FF0D7FA002104900FF077
:102A600079FD059B48B9049A3C4910460FF090FD4A
:102A7000049A059B10B1394A00E00022DA63112064
:102A8000114608F099FA0AE0997D11203944C829C5
:102A9000A8BFC82121EAE17199750EF0DBF8B9F100
:102AA000110F00F0F7802E4BD3F8FC9099F800300E
:102AB000022B1AD138460FF05BFB2A490FF060FC5D
:102AC000D9F838100FF0A0FA002107460FF042FDA8
:102AD00030B9384621490FF05BFD10B11F4F00E0BF
:102AE0000027C9F8387014208DE099F815101420CB
:102AF0003944C829A8BFC82121EAE17189F8151015
:102B00005EE0D3F8FC9099F80030022B1AD13846D9
:102B10000FF02EFB11490FF033FCD9F828100FF0FD
:102B200073FA002107460FF015FD30B938460B49FE
:102B30000FF02EFD10B1094F00E00027C9F82870F2
:102B4000092060E099F8031009203944C829A8BF7A
:102B5000C82121EAE17189F8031031E00000C84280
:102B60003C0D002000007A44D3F8FC9099F8003026
:102B7000022B1AD138460FF0FBFABA490FF000FCCD
:102B8000D9F834100FF040FA002107460FF0E2FCAC
:102B900030B93846B3490FF0FBFC10B1B14F00E03B
:102BA0000027C9F834700A202DE099F80D100A208A
:102BB0003944C829A8BFC82121EAE17189F80D105C
:102BC0000EF048F866E0D3F8FC9099F80030022B3C
:102BD0001DD138460FF0CCFAA3490FF0D1FBD9F83C
:102BE00040100FF011FA002107460FF0B3FC30B986
:102BF00038469C490FF0CCFC10B19A4F00E00027FA
:102C0000C9F840700B20394608F0D6F942E099F82F
:102C100017100B203944C829A8BFC82121EAE17147
:102C200089F81710CCE7012934D190788F4A32F90E
:102C30001370B7F5617F05DB40F633039F42A8BFF1
:102C40001F4601E04FF46177B9F10C0F22D14FF428
:102C5000966393FBF0F0A7F5617797FBF0F7844A52
:102C6000FFB21378BB4215D0042F34BF3B4602237A
:102C70001370019A09FB03237E4A03F2B2731360B7
:102C80000AF0B8F9484639460DF0E4FF781CC0B2A6
:102C90000EF076F894F8F420012303FA0BF31343B3
:102CA00084F8F4300BF1010BBBF1040F0AF10C0AAC
:102CB0007FF410ADC3E43368D80511D56E4BDB78D3
:102CC00073B1D9F8003099070AD5B8F8003013F07D
:102CD000010A0AD10EF0DCFE01200AF0A3F804E09C
:102CE00001200AF08FF8012300E000233A68520720
:102CF0000DD563B101200AF085F8B8F800309807C7
:102D000008D40EF0C5FE02200AF08CF802E0022082
:102D10000AF078F8B8F80030584A13F0030F4FF073
:102D2000100114BF51611161D9F8002012F00A0F8F
:102D300024D03A68D10609D55A070AD404200AF0EB
:102D400071F84F4B1B88A4F8003102E004200AF010
:102D500059F83B689B0607D5B8F80030580606D4EA
:102D600040200AF05FF802E040200AF04BF83B6890
:102D7000590642BF424B1B88A4F802313B684FF40E
:102D800080701A0502D50AF04DF801E00AF03AF811
:102D90003C4B5A791C46082A01D00E2A02D1402009
:102DA0000AF030F833685B0540F1A58094F81832DA
:102DB0001BB92B7813F0040F02E03B6813F4002FCB
:102DC0000BD0314B00221A703C2006F073FE002815
:102DD00000F091800DF05AFCF6E708F02DF909B0EB
:102DE000BDE8F04F05F0EDBE012000E002205FFAE3
:102DF00080F8019A08F1FF3382F8B0370AF054F8EE
:102E00000AF01CF940460DF0BBFFFFF7BFBBBAF15B
:102E1000000F02D07E2B3FF4B7AB94F8B5301B4ABD
:102E2000972B05D11A4B4FF4C8721A80FFF7AEBB2F
:102E3000A72B06D1174A137843F004031370FFF74A
:102E4000A5BB0021BB2B079101D1022303E0B72BC7
:102E500004D14FF6FE73ADF81E3023E0BE2B1BD11C
:102E600002231DE00000C84200007A440E0F00203B
:102E7000042C0020040F00200C220020000C014034
:102E80004C0F00205C0F0020EF2000203C0D0020A4
:102E9000DE290020582A0020BD2B1AD14FF6FE73E0
:102EA000ADF81C30DBF80030BDF81C10B3F864201E
:102EB0000A44A3F86420BDF81E10B3F866200A4443
:102EC000A3F866200AF080FA002384F8B630FFF7F2
:102ED0005DBB792B04D192F8BB3023F0010306E0EF
:102EE0007A2B7FF453AB92F8BB3043F0010382F8A6
:102EF000BB30FFF74BBB09B0BDE8F08F704B2DE93D
:102F0000F04FB3F906106F4B91B01F6801937A89A7
:102F100091420EDBB1F5FA6FFC79BFBF8B1A6343A8
:102F2000A2F5FA6493FBF4F4ACBFC4F16404643416
:102F300000E06424644B654A1868B2F896A105461F
:102F400092F95E21049092B205920293002240F21F
:102F5000E6305B4B4FEA420B33F912300393CAEB76
:102F6000030303F2F316864203D8002BB8BF5B427B
:102F700001E04FF4FA73022A00934FF06400049BBF
:102F8000534E31D093F81DE1BEF1000F06D0009BE7
:102F90007345CCBFCEEB030300230093009BDFF807
:102FA0004CE193FBF0FC6FF063093EF81C8009FBD9
:102FB0000C390CF1010C3EF91CE00FFA88FCCCEB4B
:102FC0000E0E0EFB09FE9EFBF0FEC64426F80BE03B
:102FD000BE18367973433F4E93FBF6F364339BB2CE
:102FE000634393FBF0F030E093F81EE1BEF1000F75
:102FF00006D0009B7345CCBFCEEB030300230093A8
:10300000009BDFF8E48093FBF0F06FF0630C38F97D
:1030100010E00CFB0039013038F91000059BCEEBB5
:10302000000000FB09F999FBFCF9CEEB090909FB4B
:1030300003F9009BA6F80490B879002BB8BF5B4257
:103040004343244893FBF0F064306B784FF0640EF8
:10305000434393FBFEF3204E022AB354EB7A1F4EF8
:1030600000FB03F393FBFEF3B3546B7D184E00FBA0
:1030700003F090FBFEF01A4B98541A4B0FD183F8D3
:1030800002E0039B53450EDB104CB4F898219142AB
:103090002EDBB1F5FA6FA8BF4FF4FA6129E09C541A
:1030A000039B534504DA36F80B305B4226F80B30AD
:1030B0000132032A05F101057FF449AFE4E700BFBF
:1030C0000E0F0020040F0020D80E00205C0F0020FF
:1030D000540F00200CFEFFFFDC2800204E0E0020C5
:1030E000F02800200C290020400E00205E22002045
:1030F0001146891A4FF47A735943C2F5FA62B1FB4B
:10310000F2F1642791FBF7F2DFF898E26FF06303C6
:103110003EF8120003FB021101323EF9122003B205
:10312000D21A514391FBF7F30344F3808C4B8D4D3E
:103130001B885F063BD58C4A8C4B10881B88181A5D
:1031400000B20FF015F88A490FF066F8074609F04B
:103150004FFE8046384609F0D9FD0746B5F9020012
:103160000FF006F88146B5F900000FF001F841466E
:1031700082460FF051F83946834648460FF04CF826
:10318000014658460EF03EFF0FF00CFA41462880EB
:1031900048460FF041F83946804650460FF03CF85B
:1031A000014640460EF030FF0FF0FCF96880714F89
:1031B0003B689D076CD545F207216F4B6F4D1A6830
:1031C0006B69D31A8B4263DD6A6107F055F86C4B6B
:1031D000DFF8D4911A789846032AB9F8003020D144
:1031E0000A2B28D90023282088F800300DF06DFD27
:1031F00007F042F8634B188807F028F8624B1A680A
:10320000D37890FBF3F001300828604BA8BF08206A
:103210001870537980B243432B83137958436883E2
:1032200009E00A2B07D80323584A88F80030002306
:1032300013702B836B8398F80030514A012B0CD00C
:1032400002D3022B1BD023E02A8BB9F800309A421C
:103250001EDD012388F800300FE0B9F800106B8BF9
:103260008B4202DD022313700FE0444B1B8B0133B2
:10327000994202DD002313700AE0082006E06B8B00
:10328000B9F8002001339A42E3DC07200DF056FD27
:10329000D7F800B03E4D1BF4006F00F0A080364B15
:1032A000364F1B68FA69C2EB030845F207229045C6
:1032B00040F39580FB61344BB6F906C0D3F800901B
:1032C000B4F84E1199F80A30ACF57A7C012B314EE6
:1032D00003D06BD3022B20D06AE02F4B396A5A7B84
:1032E0002E4B082033F8122091FBF0F392B2C91A4A
:1032F0008B183B6293FBF0F3BA8440F6E4429BB236
:103300005343B9F80820C2EB13334FF47A72534396
:10331000B9F9062093FBF2F349E02B78B9F808A03D
:103320005807C6F800A043D51D48CDF800C007F0E7
:1033300028FEDDF800C020B91BF0100F18BF4FF0B9
:10334000000C0CFB0CF3322293FBF2F3B9F90620CC
:1033500063445A434FF47A7392FBF3F3534426E0E9
:10336000E2170020540F00203E0E00204C0F0020DA
:1033700035FA8E3C40170020A42F0020400E00207C
:1033800094170020742100204417002040000020E2
:10339000BD2F0020501700205C2100206C21002050
:1033A000E41000204622002048170020002333604C
:1033B0003368D7E90A0103FB08F84FF47A7398FBE6
:1033C000F3F810EB080241EBE873C7E90A23104653
:1033D0001946944A00230FF02BF9934B1860934F32
:1033E0003B68009713F4805F02D00A200DF0A6FC22
:1033F0008F4E3268002A58D08E498F4B08681F685C
:1034000089468742984650D88C4BDFF83CA2187802
:10341000516808BB01201870BAF80030CB5C5BB370
:103420001378013B00FA03F2D4F8DC371A4201D1D9
:103430000DF06AFC824B01221A7006F089FFBAF87F
:103440000030CBB933681B78053B012B14D80DF045
:1034500015FC7C4B18600FE04FF0000B83F800B0B8
:10346000BAF80030CB5C3BB158460DF04DFC744BC4
:1034700083F800B006F06CFF3368BAF800205B6890
:1034800071499B5CFE2B02D100230B800DE0FF2BCA
:1034900002D10DF03FFC08E0D9F800000A2606FB37
:1034A00003030132C8F800300A802B78590703D58E
:1034B000664B08225A6138E0009A1268D2075EBF54
:1034C000634A43F001031370624B5D4A1B781F0788
:1034D0005EBF2B7823F001032B705F4B1B6813F04A
:1034E000040F02D05D49098851B95D49098809B1C5
:1034F0009E0705D45B4B1B88003318BF012333B1F3
:10350000022313702B7823F001032B7004E0297839
:10351000C80758BF022313700DF0B0FB524B1B6855
:10352000C01A002801DB06F013FF504F07F084FD9E
:103530003E78002E00F0E1804D4B1A689846002A34
:1035400000F0E786D8F800000DF094FC002800F0A9
:10355000E086474B474C18680DF089FC092801D0DC
:103560003F2852D14FF0000A55462668DFF81891DF
:1035700036B14148D9F80010324611F09DFF10B91C
:10358000CA4605B94D463D4B09F110099945EFD39F
:10359000EDB1D5F800C0DAF8009023681CF803E01C
:1035A00019F80300704512D15A1C334958B92D2B14
:1035B00009D8DFF8C0E0CEF800204FF0200E01F867
:1035C00003E0885403E001F803E02260E5E72368A4
:1035D0000BB1554510D02A480DF04EF9554507D886
:1035E00055F8100B0DF048F909200DF03DF9F5E7FD
:1035F00024480DF041F9002623689E42A2D21E4BBA
:10360000985D0DF031F90136F6E72368002B40F0A4
:103610006686042840F08886174804F0FDFC00F018
:1036200078BE00BF407E0500541700209C0E00208D
:103630004C2C0020340F0020442C0020402C002073
:1036400030220020582F0020482C0020000C014080
:10365000BD2F0020582A0020DC170020B82F0020A2
:10366000DE290020BA2F002034220020BF2F0020A6
:10367000202C0020A81D0020781D00202C77010898
:10368000CC900108D19001085C750108D9F80000C0
:10369000DFF894A30DF0EEFB28B3DAF800000DF08C
:1036A000E6FBDBF80030024693F84810A9BB24285B
:1036B0006CD1012283F84820DBF80030DFF89CA3AE
:1036C00093F84820062AE1D193F8490001F01AFE48
:1036D0008346002800F083800DF026F8D8F80030EB
:1036E000002283F84820CE4B93F83530002B40F071
:1036F000E4854C36982E00F00C86CA4BF21892F8EE
:103700004A100129F5D1DFF85483F358C8F8002096
:10371000C54AC34613609146B8E7012904D14D2834
:1037200014BF00220222C5E7022904D13C2814BF9D
:1037300000220322BEE703290CD140284FF00001EC
:1037400002D983F84810B7E758711971D971987187
:103750000422AFE7042906D1997983F849004A4049
:103760009A710522A6E70529A6D1587919798842C8
:10377000987906D950409871481C18710B441A72F8
:103780009AE790420CBF0622002293E72B78A749C4
:103790005B0791D42328DAF8003013D10090012080
:1037A0003870A348039103609D480363A1480DF05E
:1037B00063F8A1480DF060F80399009A0B7843F084
:1037C00002030B709D4B1B681B78934201BF9C4A00
:1037D0009C4B1A609C4A04BF9C4BDA606CE7DAF899
:1037E000002092F849304A2B00F062855CD8332BD8
:1037F00000F05B8421D8292B00F0F58309D8252B14
:1038000000F0CC83272B00F0D083232B40F0888559
:1038100052E22D2B00F0F88307D82B2B40F0808547
:103820000CF054FF607100F043BD2F2B00F0AA8410
:10383000312B00F0C78400F073BD3E2B00F03681C1
:103840001DD8372B00F0658404D8352B00F06D822D
:1038500000F066BD392B00F0B5833C2B40F060854D
:10386000DFF8EC91D9F800A00CF030FF8AF80000E6
:10387000D9F8003018780BF035FF00F019BD432B54
:1038800000F0248406D8412B40F04A854FF000090F
:1038900000F010BC442B00F0CA84482B40F0408557
:1038A0000CF0B4F800F004BDD02B00F055835FD8C5
:1038B000CA2B00F0048116D84E2B00F0C883C82B09
:1038C00000F0A2804C2B40F02B850CF0FFFE84F81A
:1038D000D6010CF0FBFE84F8D7010CF001FFA4F830
:1038E000D80100F0E5BCCD2B00F0418304D8CC2BEF
:1038F00000F05A8200F014BDCE2B00F04183CF2B94
:1039000040F00E850CF0ECFE6FF4AF6E00EB0E0392
:103910009BB2C62B98BFA4F896010CF0E1FEA4F868
:1039200040010CF0DDFEA4F842010CF0D9FEA4F831
:1039300044010CF0D5FEA4F8D8010CF0C7FE0CF041
:10394000C5FE0CF0C3FE0CF0C1FE84F885010CF03E
:10395000BDFE84F892010CF0B9FE3D4BD3F8009007
:103960000CF0BEFE00EB80004000A9F8620029E3E5
:10397000D82B00F033810FD8D32B3FD003D8D22BD4
:1039800029D000F0CDBCD42B00F06D82D62B40F0B6
:10399000C7844FF000095BE2F22B00F0B28212D82C
:1039A000EF2B40F0BD84DFF8A890D9F800A00CF010
:1039B00097FEAAF86600D9F800900CF091FEA9F8DD
:1039C000640000F075BCF32B00F03684FA2B00F095
:1039D000E18200F0A5BC2B7803F0040303F0FF099B
:1039E000002B40F065840CF071FE022884F8B007CB
:1039F00040F2B882174B83F8B097B3E20CF070FE38
:103A0000154B188000F054BC92F805904FEA590904
:103A1000B9F1120F24D905F04DFE00F049BC00BFEA
:103A2000400E0020B81D0020C0170020BD2F002030
:103A3000202C002001910108D1900108F0200020E5
:103A4000EFBEADDEF04F00200400FA0500ED00E00F
:103A5000D80E00205C0F00203C0E0020BC17002078
:103A60004FF0000ACA4507D20CF03AFE07AB23F824
:103A70001A000AF1010AF5E74A4600234B4507DA26
:103A800007A931F81300BD4921F813000133F5E708
:103A9000122A05D0B94B002123F812100132F7E7A2
:103AA000B74B012283F8342000F002BC0CF00EFE6C
:103AB00084F8E0010CF00AFE84F8DF01F8E3B14B72
:103AC00081461A689A461278022A6CD1DFF8B4A2AD
:103AD00009F1080BDAF8003000930CF0F7FD0EF056
:103AE00043FBA9490EF04CFC009B43F82B00DAF88D
:103AF00000B00CF0EBFD09F10A030BEB830B0EF0A9
:103B000033FBA2490EF03CFCDAF80030CBF804009D
:103B100000930CF0DBFD0EF027FB9D490EF030FC0E
:103B200009F10E0B009B09F10109B9F1030F43F8EC
:103B30002B00CBD1B9F1070FDAF800B01AD10CF095
:103B4000C5FD0EF011FB90490EF01AFCCBF84400B5
:103B5000DAF800B00CF0BAFD0EF006FB8A490EF060
:103B60000FFCCBF84800DAF800B00CF0AFFD8BF892
:103B70004C0012E00CF0AAFDCB448BF80100DAF8FF
:103B800000B00CF0A3FDCB448BF80B00DAF800B0CA
:103B90000CF09CFDCB448BF8150009F10109B9F13B
:103BA0000A0FC7D184E3DAF800B00CF08FFDCB44E4
:103BB0008BF80100DAF800B00CF088FDCB448BF8EC
:103BC0000B00DAF800B00CF081FDCB4409F10109DB
:103BD000B9F10A0F8BF81500E5D169E38146DFF8EA
:103BE000A4A109F1080BDAF8003000930CF078FD7D
:103BF0000EF0BAFA66490EF0C3FB009B43F82B00A7
:103C0000DAF800B00CF06CFD09F10A030BEB830B42
:103C10000EF0AAFA5E490EF0B3FBDAF80030CBF8EA
:103C2000040000930CF05CFD0EF09EFA58490EF073
:103C3000A7FB09F10E0B009B09F10109B9F1030F74
:103C400043F82B00CBD1B9F1070FDAF800B01AD145
:103C50000CF046FD0EF088FA4D490EF091FBCBF8C2
:103C60004400DAF800B00CF03BFD0EF07DFA484954
:103C70000EF086FBCBF84800DAF800B00CF030FD0F
:103C80008BF84C0012E00CF02BFDCB448BF80100BC
:103C9000DAF800B00CF024FDCB448BF80B00DAF816
:103CA00000B00CF01DFDCB448BF8150009F10109A3
:103CB000B9F10A0FC7D1FBE20CF008FD13288346C7
:103CC0003FF6A9AEDFF8BCA0DAF800900CF0FEFCDD
:103CD000002330490C2202FB0312117A814220D1C9
:103CE000137809EB8B0989F885300CF0EFFC89F823
:103CF00086000CF0EBFC89F887000CF0E7FC264A04
:103D0000264B89F888001A60DAF80000244B00215D
:103D10001860853007F024F9224B80F001001870FC
:103D2000C6E201331C2BD4D175E60CF0CFFC0B2876
:103D300082463FF670AE134BD3F800900CF0C6FCF1
:103D400003283FF668AE062303FB0A9989F8DA00D8
:103D50000CF0BCFC89F8D5000CF0B8FC89F8D60052
:103D60000CF0B4FC89F8D7000CF0B0FC89F8D8004E
:103D70000CF0ACFC89F8D9009AE200BF1C200020AE
:103D8000400E0020D80E0020000020410000C84254
:103D900000007A44F47001089C100020340E0020CA
:103DA000380E0020080000205379092B7FF633AE2F
:103DB000019BD3F800900CF089FC019B89F800006E
:103DC000D3F800900CF082FC89F801000CF07EFC26
:103DD000019B64281B68A8BF642018710CF076FC56
:103DE000019B64281B68A8BF642058710CF06EFC0E
:103DF000019BFF281B68A8BFFF2098710CF066FC90
:103E0000019B6428D3F8009028BF642089F807003C
:103E10000CF05CFC019B89F80200D3F800900CF0D8
:103E200055FC019B89F80300D3F800900CF058FC76
:103E3000D8F80030A9F80A005B790A2B40F23882E2
:103E4000DB4BD3F800900CF041FC89F808002FE21E
:103E50000CF046FCD74B23F8190009F10109B9F120
:103E6000080FF5D124E253790F2B7FF4D4AD0CF079
:103E70002DFC072881463FF6CEAD029BD3F800A06B
:103E80000CF02EFC0E2303FB09F9029BCA44AAF88E
:103E90002501D3F800A00CF023FCCA44029BAAF829
:103EA0002701D3F800A00CF01BFCCA44029BAAF81F
:103EB0002901D3F800A00CF009FCCA44029B8AF83F
:103EC0002B01D3F800A00CF001FCCA44029B8AF835
:103ED0002C01D3F800A00CF0F9FBCA44029B8AF82D
:103EE0002D01D3F800A00CF0F1FBCA44029B8AF824
:103EF0002E01D3F800A00CF0FDFBD144C9F82F012E
:103F0000D6E10CF0E3FB0F2881463FF684AD0CF0C0
:103F1000DDFBC9EBC90904EB090383F8D00003F109
:103F2000D0090CF0D3FB89F801000CF0CFFB89F825
:103F300002000CF0CBFB89F803000CF0C7FB89F8FA
:103F400004000CF0C3FB89F805000CF0BFFB89F8F6
:103F500006000DF057F9ABE12B78580700F1A88166
:103F60000BF0F0FE08F0A0FF09F068F8A0E12B7854
:103F7000590700F19D81904B4FF4C8721A8097E168
:103F80002B785A0700F194818C4A137843F004038C
:103F900013708DE12B785B07E4D5C1E1A0600CF0D4
:103FA000A9FBA3681843A06082E10CF099FBA4F878
:103FB00058010CF095FBA4F85A010CF091FBA4F801
:103FC0005C0175E10CF082FB84F87A010CF07EFB59
:103FD00084F87E010CF07AFB84F87D010CF076FB0E
:103FE00084F87F0164E10CF07BFBA4F880010CF005
:103FF00077FBA4F882010CF069FB84F884010CF0D3
:104000006FFBA4F8860153E10CF060FB84F890018B
:104010000CF066FBA4F89A010CF062FBA4F8960180
:104020000CF05EFBA4F898010CF050FBDAF80030BD
:1040300084F891015B79082B40F23A810CF050FB37
:10404000A4F89C010CF04CFBA4F89E0130E192F81E
:1040500005900323B9FBF3F9B9F1120F3FF6DBAC7E
:10406000DFF85CA14FF0000BCB4580F021810CF014
:104070002DFB8AF8A0010CF033FB40F2ED239842AF
:1040800005DD40F6CA039842A8BF184601E040F299
:10409000EE20A0F2EE20192390FBF3F00BF1010BC0
:1040A0008AF8A1010AF1020ADEE70CF00FFB84F89E
:1040B0009201FDE00CF00AFB04EB090309F1010990
:1040C000B9F1080F83F88801F4D1F1E00CF0FEFAA1
:1040D000C4F808B060710CF00DFBA3681843A06031
:1040E0000CF0F4FA84F890010CF0FAFAA4F85801F4
:1040F0000CF0F6FAA4F85A010CF0F2FAA4F85C01FC
:104100000CF0EEFAA4F880010CF0EAFAA4F88201AF
:10411000CEE053794FF0070AB3FBFAF2C2EBC202CA
:104120009A1A12F0FF0F7FF476ACB3FBFAFA0AF199
:10413000FF3A5FFA8AFABAF1FF0F00F0B9800CF08B
:10414000C5FA5FFA80FB4FFA8BF006F0A3FD8146BB
:1041500000283FF460AC80F800B00CF0C1FAA9F878
:1041600002000CF0B3FA89F804000CF0AFFA89F8F9
:1041700005000CF0ABFA89F807000CF0A7FA89F8F3
:104180000600D4E7DFF8389009F1400A0CF0A8FAED
:10419000A9F8A8020CF09AFA89F8AA020CF096FA8B
:1041A00009F1040989F8A702D145EFD180E000BFE9
:1041B000040F0020062C0020DE290020582A0020B1
:1041C0005C0F00200CF082FA1F2881463FF623ACDA
:1041D000D8F800305B79082B7FF41DAC0CF080FA26
:1041E00009F18A0904EB890A00F03F00AAF80200ED
:1041F0000CF076FABAF80230800100F4FE50184351
:10420000AAF802000CF062FA000104F829000CF090
:104210005DFA14F8293000F00F00184304F8290063
:104220000CF054FA8AF8010007F050FB40E0704BA4
:10423000012283F835203BE00CF048FAFF28824643
:1042400022D100238DF81B309DF81B30052B14D88C
:104250009DF81B00674A9DF81B30012102EBC30348
:104260005B6852F83000994089B2482206F0F6FBAC
:104270009DF81B300133DBB2E4E75F484FF4805117
:10428000042206F0EBFB13E005283FF6C4AB002048
:104290000CF06EFA0CF048FAD9F800000CF0E4FDCE
:1042A00018B932200CF011FDF6E7504606F0E4FB99
:1042B00000200CF05DFAFFF70FBA504B98590CF044
:1042C000D3FD18B932200CF000FDF6E70CF05AFFD0
:1042D00008F0C0FD4A4A4B4BDA60FFF70ABA0C28D7
:1042E00024D00A282BD1484D48480CF0C5FA28465E
:1042F000232111F0CAF808B1401B20602368002B6D
:1043000040D1414800213022236011F088F83B78E9
:104310007BB93F4B9B68002B67D03E48984764E0D1
:1043200005F0C8F9FFF7D8B90C2804D13A480CF0C9
:10433000A3FA3A480DE07F2812D1FFF703B90D2800
:10434000D1D07F2809D1304A013B00213448236075
:10435000D1540CF091FAFFF7F5B82F2B3FF6F2A8E5
:10436000A0F12002D2B25E2A3FF6ECA813B92028B1
:104370003FF4E8A85A1C2260234AD0540CF074FA87
:10438000FFF7E0B85A1EA95C202901D11346B6E711
:104390001D4A00212360D154224B234DD3F800A0A5
:1043A000D5F800B0DFF86090584611F07CF806466A
:1043B00059463246484611F07FF81C4A28B919F888
:1043C000063053445B78590703D010359542E7D344
:1043D00006E0954204D2701CEB684844984702E01E
:1043E00013480CF049FA00238BE711B0BDE8F08FB9
:1043F000400E0020789C010800080140B81D0020F4
:104400000400FA0500ED00E0781D0020CF9F0108B0
:10441000681E0020760E0020D6900108D190010879
:10442000FD900108540000205C7501082C770108FC
:10443000E19001086B4B6C4A2DE9F04F5E891468DE
:104440004FEA062AB4EB0A0A9C884FF000054FEAAF
:1044500004481C894FF0000BA4FB0A6765EB0B0BAB
:1044600004FB0B77F40944EA476418EB04065C8804
:104470004FF000094FEAE7154FEAC438DC8849EBF2
:10448000050787B0CDE90467A4FB0A6704FB0B7737
:10449000340A44EA076418EB04064FEA27259C898E
:1044A0004FF0000949EB0507CDE90067AAFB046757
:1044B00004FB0B77F40D44EA472414F5FA664FEA3F
:1044C000E75545F10007B6F5FA6F77F10003CDE93E
:1044D0000267964666DADDE90489A4FB046704FBFB
:1044E00005F34FF0050C07EB4307A6FB0C230CFB71
:1044F00007335F104FEA3206B8EB06084FEA920620
:1045000046EA837669EB07099F10DDE90023921BD9
:1045100063EB0703CDE90023DDE90267334A4FF07F
:10452000FF33964277EB0303CDE9048927DA40F69F
:10453000AC520023A4185D4104FB05F3A4FB044521
:104540006FF0060205EB4305664202FB0566A4FB1D
:104550000223334418EB020649EB0307CDE9046755
:104560000B26A4FB062306FB0533DDE900455B10A3
:104570004FEA3202A41A65EB0305CDE90045DDE9F7
:1045800002450AFB0BF3AAFB0AAB0BEB430B4FEA0A
:10459000DA7242EA4B02A41A4FEAEB7365EB0305A9
:1045A000CDE90245DEF80440009B019DA4FB0323F6
:1045B00004FB05334FEA525848EAC3284FEA6359CF
:1045C000DDE90423B8EB020269EB03039946D30B40
:1045D00043EA494300B1036009B1029B0B6007B095
:1045E000BDE8F08F941E0020780E002024FAFFFF13
:1045F0002DE9F04F87B06C4C02916C4922888E688F
:104600000546C2EB26135B435200C2EBE602B4F947
:1046100002601B135643B4F90420B4F90A00534353
:104620009B1303EBE62606EB860380331B12B6F5DD
:10463000FA384FEAE6770493CB6847F1FF39A8FBD5
:1046400008AB039308FB09F3B4F908200BEB430B09
:10465000E389A6610593D31708FB03F102FB091157
:10466000A8FB02230B44C1171F030AFB01F300FB45
:104670000B33AAFB00011603194447EA1257020A3A
:1046800042EA016292194FEA2123E6887B41003217
:10469000A2FB060143F5004306FB03114B100093F8
:1046A000CB170193DDE900231343B4F810E0B4F80D
:1046B0000CC06DD00FFA8EF0C1170AFB01F1AAFBF6
:1046C000002300FB0B11BDF914600B44F71708FB26
:1046D00007F106FB0911A8FB06670F447904700473
:1046E000801841EAD6315941039B0FFA8CF8C3F583
:1046F000801E7246D317002212184FEACE764FEA78
:10470000C3774FEAC8034B4147EA5E07B61A67EB27
:10471000030740F63543A6FB030103FB0711DDE960
:1047200000230DF085FFB4F916204E1302FB06FEA0
:10473000470B47EAC147D31707FB03EEA2FB07234A
:104740005643734407FB0366A2FB07233344560E0C
:1047500046EAC3168219B4F914604FEA636741EB65
:1047600007037143F71700FB0717A6FB0001394445
:10477000C60C46EA413692194FEAE1474FEA122148
:10478000B4F912207B4141EA036113010B4400E0BC
:1047900000230DB11B0A2B60029B13B11A46049B28
:1047A000136007B0BDE8F08FF41E0020780E0020E3
:1047B000704770472DE9F041324C334D62892B8AA6
:1047C000B4F904809A1A2389B4F902E05A43B4F97F
:1047D0001230D613B4F91420DB02324493FBF2F208
:1047E00032440A26E2615643A2F57A6202FB02F3E2
:1047F000B4F90EC002FB0EFE02FB08F2B4F90C8005
:104800001B130CFB03FC03FB08F31B1403EB6232CA
:104810000232E388921002F5004253434CF25032C8
:10482000B4F920704FEAEE2EB4F900400EEBEC2CF8
:104830000CEB8404BC406D690234A5EBA4043A413E
:1048400062434FEAD3384EBFB2FBF8F35400B4FBD7
:10485000F8F340F6DE3448BF5B001A12524362435D
:104860000A4C08365C43241404EB224202F6CF6261
:10487000361103EB221300B1036001B10E60BDE8F5
:10488000F08100BFA81E0020780E002043E3FFFF48
:10489000024B4FF480521A80704700BF1C0000206A
:1048A00013B50C4B04465B681B20022101AA9847F4
:1048B00070B19DF804209DF8053043EA022303F50A
:1048C0004E5310334FF48C7293FBF2F32333238057
:1048D00002B010BD801E0020054B1A7E02F0FF01C1
:1048E00022B10122027000221A76704701707047CF
:1048F000780E002037B5104B04465D681878062105
:104900006A46A847A8B19DF800209DF80130012013
:1049100043EA022323809DF802209DF8033043EAF6
:10492000022363809DF804209DF8053043EA0223AA
:10493000A38003B030BD00BF801E002013B5104B14
:1049400004465B683B2006216A469847A8B19DF85B
:1049500000209DF80130012043EA022323809DF8C6
:1049600002209DF8033043EA022363809DF804206F
:104970009DF8053043EA0223A38002B010BD00BFBA
:10498000801E0020B0F5807F0ED0BB280ED8612895
:104990000ED829280ED813280ED809280ED800289A
:1049A00014BF062000207047002070470120704788
:1049B000022070470320704704207047052070478D
:1049C00010B5224C2368998A89B211F4706F1EBF0A
:1049D0001F4A0120507611F4E06F2BD01A8B9A8871
:1049E000890522F480624FEA02424FEA12429A801D
:1049F00020D41A8892051DD41A88D0050FD51A889C
:104A0000D105FCD41A8892B242F400721A801A8836
:104A10009205FCD40F4B187802F095FF0AE01A8833
:104A200092B242F400721A809A8822F44072120400
:104A3000120C9A802268938A23F470631B041B0C67
:104A40009382054B00221A7010BD00BF5C1D002030
:104A5000780E0020601D0020741D0020054A08B556
:104A6000138801339BB21380034B187802F06BFF5D
:104A7000002008BD9A0E0020601D002008B54FF4EC
:104A8000804005F035FA012801BF044B4FF4804205
:104A90005A61034B08BF987608BD00BF000401406F
:104AA000780E002010B5074C2368186905F020FA2D
:104AB00030B123681A69044B5A61044B01221A76FB
:104AC00010BD00BF8C1E002000040140780E0020A5
:104AD000F8B50E461746084C4FF48055656140F016
:104AE000800001F035FB38460021324601F0FAFA29
:104AF00025610120F8BD00BF000C014070B50E46D5
:104B0000054C4FF48055656101F022FB304601F001
:104B10001FFB2561012070BD000C0140274B37B5FC
:104B20001A68274B04469A420ED14FF40053ADF851
:104B3000043002238DF80730042322480DEB0301D3
:104B40008DF8063002F05DFA2046FFF71BFF0546A0
:104B50001D4C8021A3686B20984764200CF0B5F8A9
:104B6000A36807216820984764200CF0AEF8A3687A
:104B700000216B20984764200CF0A7F8A36801215E
:104B80006B209847A36818211B209847A368102121
:104B90001C209847A36829461A2098470B4AA36807
:104BA000117819209847A368122137209847A368E5
:104BB00001213820984703B030BD00BF34000020E9
:104BC000001BB70000100140801E0020101F0020B5
:104BD00070B5FFF7D7FE104C054619200CF075F89C
:104BE000A36815200021984710B902200CF0E0F8C6
:104BF00045F01801A368C9B216209847A3680021A0
:104C000017209847A36801213D209847A3683E20BC
:104C10000121BDE870401847801E0020F0B5254DE9
:104C200085B0EB7E002B43D1234C2368002B3FD073
:104C30001A68224E12B1B1690A43B2619A88986823
:104C4000ADF8002002228DF80320694604228DF879
:104C5000022002F0D6F9B369002743F00103B361E3
:104C600023680126197D187B02F0B6F914480CF070
:104C7000E9F82368134A1B695361029308230DEB7B
:104C800003008DF80D308DF80C708DF80E6005F076
:104C900000F9236801A85B7D8DF806708DF804305B
:104CA00003238DF805308DF8076001F0FDF9EE76ED
:104CB00005B0F0BD780E00208C1E002000100240D0
:104CC000A54A00080004014070B50446FFF7A6FF9E
:104CD0002046FFF757FE0546144C8021A3686B2041
:104CE000984764200BF0F1FFA36803216B209847DD
:104CF0000F4AA3681178192098470F200BF0E5FFA1
:104D0000A36829461A209847A36818211B209847B2
:104D1000A36810211C209847A368022137209847D8
:104D2000A36838200121BDE870401847801E00208C
:104D3000101F002008B5FFF771FF074B5B7813B118
:104D4000012B03D008BD4FF4006201E04FF4805204
:104D5000024B1A8008BD00BF7C1E00201C000020F2
:104D600010B54000204CC0B220702048204C01708B
:104D7000204800210170012020701F4C23601F4C2F
:104D800023601F4B1A701F4A1F4B107059761F4922
:104D9000086811461A4630B383889C0515D40388E9
:104DA000DB050DD447F230530488A40502D5013B3E
:104DB000FAD112E08BB103889BB243F48073038075
:104DC00083889BB243F44073838047F23053087862
:104DD00010B1013BFBD100E013B9BDE810403DE646
:104DE000507E80F0010010BD661D0020641D002073
:104DF000621D00206C1D0020681D0020701D002019
:104E0000651D0020741D0020780E00205C1D002010
:104E100007B5002101AB03227720FFF7A1FF9DF822
:104E200005309DF804001B0243EA00439DF806008C
:104E3000184303B05DF804FB08B5FFF7E9FF014B29
:104E4000586008BD780E002008B5FFF7E1FF014B60
:104E5000186008BD780E002007B5F7216B460622C2
:104E60007620FFF77DFF9DF800309DF801101B03B1
:104E700043EA01139DF80210094A43EA1113D36073
:104E80009DF803309DF804101B0343EA01139DF8BD
:104E9000051043EA1113936003B05DF804FB00BFF3
:104EA000780E00200F4B13B51B780F4C0BB1A37E6F
:104EB000B3B1032201AB7720F621FFF751FF9DF834
:104EC00005309DF804201B0243EA02439DF80620AA
:104ED0001343064AB2F92020C2F10802D3406361AD
:104EE00002B010BD30000020780E0020A81E002067
:104EF0000A4B13B51B780A4C0BB1A37E63B1022297
:104F000001AB7720F621FFF72BFF9DF804209DF8D9
:104F1000053043EA0223238202B010BD3000002096
:104F2000780E002030B505460C4613462946224629
:104F3000BDE83040682013E713B50622044601217E
:104F40001C206B46FFF70CFF08B39DF801309DF85D
:104F50000020042143EA022242F38D0292FBF1F287
:104F60009DF8023022809DF8032042EA032242F39A
:104F70008D0292FBF1F29DF8043062809DF80520CD
:104F800042EA032343F38D0393FBF1F3A38002B0C2
:104F900010BD13B506220446022118206B46FFF708
:104FA000DFFEB8B19DF800309DF801209B0803EBAF
:104FB000022323809DF802309DF803209B0803EB19
:104FC000022363809DF804309DF805209B0803EBC5
:104FD0000223A38002B010BD314B2DE9F3411B78B1
:104FE0000546002B3BD0002426462746A046013428
:104FF0005320322108226B46E4B2FFF7B1FE08B914
:10500000002049E09DF801209DF80030202C03EBA2
:1050100002231BB29DF8032098449DF8023003EB55
:1050200002231BB21F449DF805209DF8043003EBBA
:1050300002231BB21E449DF8073003F07F0301D00A
:10504000002BD4D198FBF4F897FBF4F796FBF4F619
:10505000144BA5F800806F80AE801C771CE05320B5
:10506000322106226B46FFF77BFE0028C8D09DF850
:1050700001209DF8003003EB02232B809DF80320D4
:105080009DF8023003EB02236B809DF805209DF80C
:10509000043003EB0223AB8002B0BDE8F08100BF17
:1050A000921E0020780E002013B502AB03F8012DEC
:1050B0004000214AC0B21070204A002011702049DF
:1050C00001220A701F4908701F490B601F490B60BD
:1050D0001F4B20491A700A701F4B204A58761068DF
:1050E0001A4630B383889C0515D40388DB050DD49C
:1050F00047F230530488A40502D5013BFAD112E0EF
:105100008BB103889BB243F48073038083889BB286
:1051100043F44073838047F23053087810B1013B69
:10512000FBD100E013B9FFF799FC02E0507E80F05C
:10513000010002B010BD00BF661D0020641D0020EC
:105140006C1D0020621D0020701D0020681D0020C5
:10515000651D0020741D0020780E00205C1D0020BD
:105160007720482101229FE77720582101229BE7E1
:105170007620F421312297E7064B002193F8202076
:10518000054B9201343299767720F42102F0FC022B
:105190008AE700BFA81E0020780E0020034B0022E3
:1051A0009A767720F4212E227EE700BF780E002029
:1051B00003460A466820194676E713B500222A21DD
:1051C0001C20FFF771FF0E2102221C20FFF76CFF4D
:1051D0000F2103221C20FFF767FF2B2112221C2026
:1051E000FFF762FF164A02249369164843F004034E
:1051F00093612023ADF8043004230DEB03018DF8F7
:1052000006308DF8074001F0FCFE22462C211C20C0
:10521000FFF74AFF2D2101221C20FFF745FF2E2119
:1052200000221C20FFF740FF2A2105221C20FFF747
:105230003BFF054B4FF480721A8002B010BD00BFD7
:1052400000100240000801401C00002008B50F219A
:1052500008221820FFF728FF0E2218201021FFF740
:1052600023FF024B4FF480521A8008BD1C0000201F
:1052700008B5134B53201B782D2108227BB1FFF773
:1052800013FF31210A225320FFF70EFF2C210C229D
:105290005320FFF709FF53203821902209E0FFF740
:1052A00003FF31210A225320FFF7FEFE53202C2159
:1052B0000A22FFF7F9FE40F20912024B1A8008BDDC
:1052C000921E00201C00002002F038BCFFF778BBC3
:1052D00002F034BCFFF774BB10B5074C23681869A3
:1052E00004F006FE30B123681A69044B5A61044B7E
:1052F00001221A7610BD00BF8C1E00200004014060
:10530000780E00202DE9F0474728A0B0044600F0B1
:10531000628600F2CE802E2800F0118667D82228FF
:1053200000F0C18423D8032800F03B8214D8012860
:1053300000F02C82022840F0838604200BF018FA3B
:1053400043200BF0E0F94C200BF0DDF946200BF088
:10535000DAF94C2000F0C8BD042800F02C820528A2
:1053600040F06E861A200BF003FA002435E228285C
:1053700000F0828515D8242800F06985262840F0A1
:105380005F86E44C06200BF0F3F9B4F858010BF0FB
:10539000F2F9B4F85A010BF0EEF9B4F85C0100F040
:1053A00045BD2A2800F07B852C2840F04986D94C41
:1053B0000C200BF0DDF994F890010BF0A4F9B4F88F
:1053C0009A010BF0D8F9B4F896010BF0D4F9B4F8BF
:1053D00098010BF0D0F994F891010BF094F9B4F81E
:1053E0009C010BF0C8F9B4F89E0100F01FBD3A28EB
:1053F00000F0E8821DD8342800F077840DD83028DA
:1054000000F0B385322840F01B8601200BF0B0F984
:10541000C04B93F8920100F067BD362800F0758507
:10542000382840F00D8604200BF0A2F9B94C00F0AA
:1054300014BD402800F05B8511D83B2800F02C8477
:105440003D2840F0FD85B34C02200BF091F994F813
:10545000E0010BF058F994F8DF0100F045BD452854
:1054600000F0DB8500F2A685422840F0E985A94CD2
:1054700010200BF07DF960790BF045F9A0680BF076
:1054800083F994F890010BF03EF9B4F858010BF051
:1054900072F9B4F85A010BF06EF9B4F85C010BF034
:1054A0006AF9B4F880010BF066F9B4F8820100F0F3
:1054B000BDBC6F2800F0E68200F2E680662800F0AE
:1054C000C88100F2BC804D2800F0EF8415D849282F
:1054D00000F0AC824B2840F0B3858E4C04200BF0DA
:1054E00047F994F8D6010BF00EF994F8D7010BF0B8
:1054F0000AF9B4F8D80100F099BC642800F086815C
:10550000652840F09D85844C0B200BF031F92088F4
:105510000BF031F9608880B20BF02DF97F4B1B68DE
:10552000C3F3C000C3F38002800040EA4200C3F32B
:1055300040021043C3F3401240EAC20003F01003DC
:1055400018430BF018F9764B1A88636802F00801CB
:1055500003F4475949EA010903F4804149EA010982
:1055600003F4004149EA010903F4803149EA0109E1
:1055700003F4003149EA010903F4802149EA0109F1
:1055800003F4002149EA010903F4801149EA010901
:1055900003F0007349EA0303DFF88C9112F0010F66
:1055A00099F8009018BF4FF00208C9F3800908BFAE
:1055B0004FF0000843EA090312F0020F43EA080320
:1055C00014BF4FF0040C4FF0000C12F0040F43EA2C
:1055D0000C0C14BF4FF0100E4FF0000E12F0400FE5
:1055E00014BF202700274CEA0E0E12F0100F14BF34
:1055F0004FF4007600264EEA070712F0200F14BF82
:105600004FF4806500253E4312F4807F14BF4FF4B1
:1056100000600020354312F4007F14BF4FF40011E6
:105620000021284312F4806F41EA000114BF4FF0BB
:105630008063002300201943247A0346F6E069289A
:1056400000F0A4810AD8672800F02B81682840F078
:10565000F78410200BF08CF800248FE16D2800F007
:10566000A88100F2B5816C2840F0EA842A4C06201B
:105670000BF07EF8B4F85C000BF07DF8B4F85E0037
:105680000BF079F8274BD5E1772800F0978358D8AD
:10569000732800F0B38349D8702800F01D82722867
:1056A00040F0CE841B4C16200BF062F8B4F8960143
:1056B0000BF061F8B4F840010BF05DF8B4F842016A
:1056C0000BF059F8B4F844010BF055F8B4F8D801D0
:1056D0000BF051F800200BF016F800200BF013F837
:1056E00000200BF010F894F885010BF00CF894F8FA
:1056F00092010BF008F800200BF005F8064B0A2089
:105700001B6CB3F9623093FBF0F080B20BF033F80E
:10571000A3E300BF5C0F0020980E0020DC170020E0
:10572000E21700204C0F0020BD2F0020742800F04D
:105730000183752840F084842F200BF019F8BE4CAB
:10574000A2E2A02800F075830AD8782800F0B5807E
:105750007B2840F075843C200BF00AF800243DE2E1
:10576000F12800F0E580FE2800F05383F02840F097
:105770006784B24C04200AF0FBFF236CB3F8660088
:105780000AF0F9FF236CB3F864004FE303200AF03A
:10579000EFFF00200AF0B7FF20460AF0B4FF0D200B
:1057A000A2E30AF0E5FF01200AF0ADFF0B200AF0AA
:1057B000AAFF002098E306200AF0DAFF41200AF051
:1057C000A2FF46200AF09FFF4E200AF09CFF4120D6
:1057D0000AF099FF9A4B187828E39A4B185D013428
:1057E0000AF091FF0B2CF8D10024974B185D01347F
:1057F0000AF089FF082CF8D10024944B185D01347D
:105800000AF081FF072CF8D100F018BC07200AF03D
:10581000AFFFE7200AF077FF8D4B58790AF073FF4E
:1058200000200AF070FF042000F006BCA3420AD258
:10583000884A9D5C012202FA05F50D421CBF9A4080
:1058400010430133F2E70AF09FFF814B93F8B00752
:105850004AE312200AF08CFF7F4B00241B88B3F52B
:10586000806F8CBF082501257C4B33F9140001346F
:1058700090FBF5F080B20AF07EFF032CF4D16F4C60
:10588000A08C0AF078FFE08C0AF075FF208D0AF0FA
:1058900072FF608D0AF06FFFA08D0AF06CFFE08D43
:1058A000C4E210200AF064FF00246D4B185D01343F
:1058B0000AF029FF102CF8D1C0E370200AF058FF3D
:1058C00000260E2474435D4D01362B6C2344B3F83F
:1058D00025010AF050FF2B6C2344B3F827010AF08E
:1058E0004AFF2B6C2344B3F829010AF044FF2B6CC8
:1058F000234493F82B010AF006FF2B6C234493F802
:105900002C010AF000FF2B6C234493F82D010AF0C0
:10591000FAFE2B6C234493F82E010AF0F4FE2B6C54
:105920001C44D4F82F010AF02FFF082EC9D185E3BB
:1059300070200AF01DFF464C04F1700594F8D00069
:105940000AF0E1FE94F8D1000AF0DDFE94F8D200EE
:105950000AF0D9FE94F8D3000AF0D5FE94F8D400EA
:105960000AF0D1FE94F8D5000AF0CDFE073494F881
:10597000CF000AF0C8FEAC42E0D15FE3394B185DBE
:1059800001340AF0C0FE102CF8D157E3364D002444
:105990002878400000F0FE000AF0EAFE2B789C42D6
:1059A00080F04C83314B33F814000AF0E4FE0134EC
:1059B000F4E706200AF0DCFE204B186E0AF0E4FE45
:1059C0002B4B37E004200AF0D3FE1C4B586E33E318
:1059D0004FF6FF7407200AF0CBFE264B1888FF28ED
:1059E000A8BFFF20C0B20AF08EFE234B1868A04269
:1059F000A8BF204620EAE07080B20AF0BCFE0F4B40
:105A0000B3F868000AF0B7FE114B93F885211B4BE1
:105A100018683AB10A235843A042A8BF204620EA9A
:105A2000E07001E000F30F0080B2FFE102200AF015
:105A30009FFE134B1888F9E1C3700108980E0020EF
:105A4000C12F00205C8E0108688E01083D8E010880
:105A50005C0F0020A10E00201C0000203E0F002043
:105A6000C80E0020DC0E0020541E00200E0F002067
:105A7000440F002048170020541700205017002022
:105A8000141F0020BC4C0B200AF072FEE36E25466A
:105A900018780AF038FEE36E002658780AF033FED4
:105AA000EB6EB54C3344187901360AF02CFE032E08
:105AB000F6D1E36ED8790AF026FEE36E98780AF004
:105AC00022FEE36ED8780AF01EFEE36E58890AF0D3
:105AD00052FEE36E187A07E2A74C1E200AF048FE39
